:020000040800F2
:10000000C435002041160008A9160008A9160008EA
:10001000A9160008A9160008A9160008000000008B
:10002000000000000000000000000000BD4E0008BD
:10003000A916000800000000E15000082551000842
:10004000A9160008ED8F0008A9160008A9160008D7
:10005000A9160008A9160008A9160008A916000884
:10006000A9160008A9160008A9160008A916000874
:10007000A9160008A9160008A9160008A916000864
:10008000A9160008A9160008A9160008A916000854
:10009000A9160008A9160008A9160008A916000844
:1000A000A9160008A9160008A9160008A916000834
:1000B000D9780008A9160008BD430008A916000851
:1000C000A9160008A9160008A9160008A916000814
:1000D000A9160008A9160008A9160008D95D00088D
:1000E000A9160008A9160008A9160008A9160008F4
:1000F000A9160008A9160008A9160008A9160008E4
:10010000A9160008A916000805460008A916000847
:10011000B9610008A9160008A9160008A916000868
:10012000A9160008A9160008A9160008A9160008B3
:10013000A9160008A9160008A9160008A9160008A3
:10014000A9160008A9160008A9160008A916000893
:10015000A9160008A9160008A9160008A916000883
:10016000A9160008A9160008A9160008A916000873
:10017000A9160008A9160008A9160008A916000863
:10018000A9160008A916000880B400AFBD4680BCBF
:10019000704700BF80B400AFBD4680BC704700BF51
:1001A00080B594B000AF786013460A467A803B80F1
:1001B0004FF0000387F84F3042F67C53C2F2000341
:1001C0001B6818464FF000014FF0FF324FF000035C
:1001D00005F022FA07F1080242F68053C2F200034A
:1001E0001B68136007F1080303F1040242F6805311
:1001F000C2F200035B68136007F1080303F1080211
:1002000042F68053C2F200039B69136007F10803B2
:1002100003F10C0242F68053C2F20003DB69136063
:1002200007F1080303F1100242F68053C2F2000303
:100230001B6A136007F1080303F1140242F68053AE
:10024000C2F200035B6A136007F1080303F11802AE
:1002500042F68053C2F200039B6A136007F1080361
:1002600003F11C0242F68053C2F20003DB6A136002
:1002700007F1080303F1200242F68053C2F20003A3
:100280001B6B136007F1080303F1240242F680534D
:10029000C2F200035B6B136042F67C53C2F20003B0
:1002A0001B6818464FF000014FF000024FF00003AA
:1002B00005F098F840F20003C2F200031B787A8838
:1002C0009A4246D37A883B88D21840F20003C2F2A1
:1002D00000031B78194640F20203C2F200031B78A8
:1002E000CB189A4235DC7A8840F20403C2F200034C
:1002F0001B78D31ABB6428E0BB6C4FEA430307F1B9
:100300005002D31833F8483C4FEA13239BB2DAB2B9
:100310007B681A707B6803F101037B60BB6C4FEA5A
:10032000430307F15002D31833F8483CDAB27B6834
:100330001A707B6803F101037B60BB6C03F101035E
:10034000BB643B8803F1FF333B803B88002BD3D158
:1003500003E04FF0010387F84F3097F84F3018460D
:1003600007F15007BD4680BD80B5B8B000AFF8605A
:1003700079813A81FB714FF0000387F8DF3040F25A
:100380000103C2F200031B787A899A42C0F08B8283
:100390007A893B89D21840F20103C2F200031B782C
:1003A000194640F20303C2F200031B78CB189A42AD
:1003B00000F379827A8940F20503C2F200031B78C8
:1003C000D31AC7F8D830FB79002B03D0012B00F0EB
:1003D00064826CE207F154034FF00000194607F005
:1003E00047FF07F150034FF00000194608F038F8B6
:1003F00097F85630A7F8583097F85530A7F85A3084
:1004000097F85430A7F85C3097F85230A7F85E3070
:1004100097F85130A7F8603097F85330A7F862305A
:1004200097F85030A7F8643007F1580303F10E0233
:1004300042F67853C2F200031B6813602CE0D7F831
:10044000D8304FEA430307F1E002D31833F8883C71
:100450004FEA13239BB2DAB2FB681A70FB6803F110
:100460000103FB60D7F8D8304FEA430307F1E002FD
:10047000D31833F8883CDAB2FB681A70FB6803F1D2
:100480000103FB60D7F8D83003F10103C7F8D83077
:100490003B8903F1FF333B813B89002BCFD101E244
:1004A000D7F8D830072B00F2F38101A252F823F0DD
:1004B000D10400083D050008A90500081106000840
:1004C00079060008E106000849070008AF070008A0
:1004D0004FF00003A7F84E3007F148034FF000003B
:1004E000194607F0C5FE07F14E0303F10103FA6850
:1004F00012781A70FB6803F10103FB6007F14E03E9
:10050000FA6812781A70FB6803F10103FB60B7F810
:100510004E30DBB287F84A3007F148034FF0000055
:10052000194607F0FFFDD7F8D83003F10103C7F8EB
:10053000D8303B8903F1FF333B81AEE14FF000033C
:10054000A7F8463007F140034FF00000194607F0C6
:100550008FFE07F1460303F10103FA6812781A705F
:10056000FB6803F10103FB6007F14603FA681278A8
:100570001A70FB6803F10103FB60B7F84630DBB289
:1005800087F8413007F140034FF00000194607F0AB
:10059000C9FDD7F8D83003F10103C7F8D8303B893B
:1005A00003F1FF333B8178E14FF00003FB8707F154
:1005B00038034FF00000194607F05AFE07F13E03DA
:1005C00003F10103FA6812781A70FB6803F1010362
:1005D000FB6007F13E03FA6812781A70FB6803F1BA
:1005E0000103FB60FB8FDBB287F8383007F138037B
:1005F0004FF00000194607F095FDD7F8D83003F109
:100600000103C7F8D8303B8903F1FF333B8144E154
:100610004FF00003FB8607F130034FF0000019464E
:1006200007F01EFF07F1360303F10103FA681278A1
:100630001A70FB6803F10103FB6007F13603FA68E7
:1006400012781A70FB6803F10103FB60FB8EDBB2CA
:1006500087F8323007F130034FF00000194607F0F9
:100660005DFED7F8D83003F10103C7F8D8303B89D5
:1006700003F1FF333B8110E14FF00003FB8507F1ED
:1006800028034FF00000194607F0EAFE07F12E0399
:1006900003F10103FA6812781A70FB6803F1010391
:1006A000FB6007F12E03FA6812781A70FB6803F1F9
:1006B0000103FB60FB8DDBB287F8293007F12803CB
:1006C0004FF00000194607F029FED7F8D83003F1A3
:1006D0000103C7F8D8303B8903F1FF333B81DCE0ED
:1006E0004FF00003FB8407F120034FF00000194690
:1006F00007F0B6FE07F1260303F10103FA6812784A
:100700001A70FB6803F10103FB6007F12603FA6826
:1007100012781A70FB6803F10103FB60FB8CDBB2FB
:1007200087F8233007F120034FF00000194607F047
:10073000F5FDD7F8D83003F10103C7F8D8303B896D
:1007400003F1FF333B81A8E04FF00003FB8307F187
:1007500018034FF00000194607F082FE07F11E0350
:1007600003F10103FA6812781A70FB6803F10103C0
:10077000FB6007F11E03FA6812781A70FB6803F138
:100780000103FB60FB8BDBB23B7607F118034FF0F4
:100790000000194607F0C2FDD7F8D83003F1010375
:1007A000C7F8D8303B8903F1FF333B8175E04FF048
:1007B00000037B6107F1140303F10103FA68127867
:1007C0001A70FB6803F10103FB6007F11403FA6878
:1007D00012781A70FB6803F10103FB6007F1140340
:1007E00003F10303FA6812781A70FB6803F101033E
:1007F000FB6007F1140303F10203FA6812781A7020
:10080000FB6803F10103FB607A6942F61713C0F23B
:1008100031139A4231D97A6943F2E803C0F23113B5
:100820009A422AD842F6C053C2F200031B68184607
:100830004FF000014FF0FF324FF0000304F0ECFEE8
:100840007A6942F67853C2F200031A6042F678538E
:10085000C2F200031B683B6142F6C053C2F20003C0
:100860001B6818464FF000014FF000024FF00003E4
:1008700004F0B8FD386903F08BFBD7F8D83003F1EA
:100880000203C7F8D8303B89A3F102033B8104E09F
:100890003B8903F1FF333B8100BF3B89002B7FF491
:1008A000FFAD00BF03E04FF0010387F8DF3097F89A
:1008B000DF30184607F1E007BD4680BD80B485B043
:1008C00000AFF86079813A81FB714FF0010318465F
:1008D00007F11407BD4680BC704700BF80B483B0E9
:1008E00000AF786013460A467A803B804FF00103E0
:1008F000184607F10C07BD4680BC704780B598B01C
:1009000000AFF860B9601346FB804FF0000387F832
:100910005F304FF0000387F858304FF00003A7F81E
:100920005C304FF00003A7F85A304FF00003A7F8EF
:100930005C308CE0B7F85C2013464FEA43039B1809
:100940004FEA4303BA68D3181B88002B74D1B7F859
:100950005C2013464FEA43039B184FEA4303BA68EF
:10096000D3185B88A7F85A3049E0FB684FF047027C
:100970001A70FB6803F10103FB60FB684FF006028D
:100980001A70FB6803F10103FB60B7F85A2007F106
:1009900010031046194601F091FC034687F85830C1
:1009A00097F85830002B20D14FF0000387F85930CA
:1009B0004FF0000387F8593012E097F8593007F1EB
:1009C0006002D31813F8502CFB681A70FB6803F10F
:1009D0000103FB6097F8593003F1010387F85930A0
:1009E00097F85930452BE8D903E04FF0010387F819
:1009F0005F30B7F85A3003F10103A7F85A30B7F85F
:100A00005A10B7F85C2013464FEA43039B184FEA8D
:100A10004303BA68D3185B881846B7F85C201346BE
:100A20004FEA43039B184FEA4303BA68D3189B88E5
:100A3000C318994299DB04E04FF0010387F85F3057
:100A400000BFB7F85C3003F10103A7F85C30B7F8DA
:100A50005C20FB889A42FFF46DAF97F85F30184630
:100A600007F16007BD4680BD90B587B002AF7860E2
:100A7000F970BA707B704FF00003FB737B684FF026
:100A8000020283F83620BB78002B05D0BB78002B00
:100A900002D0BB78F72B03D94FF00203FB7364E05D
:100AA0007B68BA7883F83420FB78002B41D17A68D0
:100AB00044F25D73C0F60003D3607A6844F2957324
:100AC000C0F6000313617A6844F65503C0F60003CC
:100AD00093617A6844F2C573C0F6000353617B6882
:100AE0004FF00002DA617A6844F63D13C0F6000365
:100AF00013627A6844F60D23C0F6000353627A68E5
:100B000044F6BD23C0F6000393627B6803F138000E
:100B10007B6803F150017B6893F834207B783C6A52
:100B2000009497F82440019403F0D4FD0346FB732E
:100B300002E04FF00203FB73FB7B002B15D17B68B7
:100B400003F16403184600F083FA0346002B03D137
:100B50004FF00303FB7308E07B68FA7883F83520D5
:100B60007B684FF0010283F83620FB7B184607F1C3
:100B70001407BD4690BD00BF80B584B000AF78605B
:100B80004FF00003FB737B6893F83630012B11D1D3
:100B90007B68DB687A6802F168007A6802F13801E4
:100BA0007A6802F1500298477B684FF0000283F8A0
:100BB000362002E04FF00603FB73FB7B184607F17B
:100BC0001007BD4680BD00BFB0B586B002AF7860EB
:100BD0004FF00003FB727B6893F83630002B02D095
:100BE0004FF00603CAE07B6803F1640207F10A03D1
:100BF0001046194600F052FA0346012B40F0BC8023
:100C0000BB7A032B00F2B88001A252F823F000BF98
:100C1000790D0008210C0008710C0008790D0008FE
:100C20007B685C697B6803F168007B6803F1040101
:100C30007A687B6803F10603A0470346FB72FB7AE0
:100C4000002B40F094807B681A797B6893F83430ED
:100C50009A4204D07B681B79002B40F08A807B6825
:100C600003F1640318464FF0020100F001FA83E03B
:100C70007B681B681A787B685A717B684FF00102A9
:100C80001A724FF00003FB602DE040F20803C2F23D
:100C90000003FA6813F83230002B28D040F2080322
:100CA000C2F20003FA6813F832207B685B799A423B
:100CB00015D140F20802C2F20002FB684FEAC303FA
:100CC000D3185B687A6811687A6802F106020846F0
:100CD0001146984703461A467B681A7208E0FB687B
:100CE00003F10103FB60FB68102BCEDD00E000BFC9
:100CF0007B681B79002B3ED07B681B7A002B22D0AF
:100D00007B684FF00002DA807B6819687B68DB88BB
:100D10001A468A187968497961F07F01C9B2117061
:100D200003F101039AB27B68DA807B6819687B68FB
:100D3000DB881A468A187968097A117003F1010371
:100D40009AB27B68DA807B689C697B6803F16800F3
:100D50007B6803F138017B6893F834207B681B685B
:100D60007D68ED880095A0470346FB7204E000BF54
:100D700002E000BF00E000BF4FF00003184607F19B
:100D80001007BD46B0BD00BF80B586B004AF42F6C7
:100D9000A430C2F2000005F08DF842F6A430C2F291
:100DA000000003F035FB42F63020C2F2000005F0EF
:100DB00071FA42F63020C2F2000003F04DFC4FF40D
:100DC000614300934FF00003019342F6A430C2F256
:100DD00000004FF000014FF00A024FF00003FFF750
:100DE00043FE0346FB714FF4614300934FF0000351
:100DF000019342F63020C2F200004FF000014FF0A4
:100E00000A024FF00003FFF72FFE0346FB714FF07D
:100E1000010300934FF0000301934FF0000302938E
:100E20004FF00003039340F68160C0F6000049F6DE
:100E30005871C0F600014FF400724FF0000301F04A
:100E4000F1FA4FF0010300934FF0000301934FF0CC
:100E5000000302934FF00003039340F6D160C0F605
:100E6000000049F66871C0F600014FF400724FF0BF
:100E7000000301F0D7FA07F10807BD4680BD00BFA7
:100E800080B582B000AF786042F6A430C2F20000B4
:100E9000FFF772FE42F61853C2F200034FF0000251
:100EA0001A7142F6A430C2F20000FFF78DFE4FF037
:100EB0000A0001F093FB42F61853C2F200031B68CC
:100EC00003F1010242F61853C2F200031A60E8E788
:100ED00080B582B000AF786042F63020C2F20000E8
:100EE000FFF74AFE42F61853C2F200034FF0000229
:100EF0001A7142F63020C2F20000FFF765FE4FF093
:100F00000A0001F06BFB42F61853C2F200031B68A3
:100F100003F1010242F61853C2F200031A60E8E737
:100F200080B586B000AF786039604FF00003BB75C4
:100F30003B681B88052B40F082807B6803F101032E
:100F40001B784FEA0323BB827B6803F102031B7803
:100F50001A46BB8A42EA0303BB82BB8A03F1010340
:100F6000BB827B6803F103031B784FEA03237B8278
:100F70007B6803F104031B781A467B8A42EA030369
:100F80007B827B8A002B56D07A8A40F2CF739A42BA
:100F900051D87B68FB603B684FF000021A80FB6809
:100FA0004FF002021A70FB6803F10103FB603B681B
:100FB0001B8803F101039AB23B681A807B8A03F015
:100FC0000703002B08D07B8A4FEAD3039BB2DBB226
:100FD00003F10103FB7504E07B8A4FEAD3039BB264
:100FE000FB75FB68FA7D1A70FB6803F10103FB6077
:100FF0003B681B8803F101039AB23B681A80BA8AE6
:101000007B8AF86811461A46FFF768FC0346FB72B4
:10101000FB7A002B06D0FB7A184600F0EDFA034667
:10102000BB750FE03B681A88FB7D9BB2D3189AB260
:101030003B681A8006E04FF00303BB7502E04FF0F7
:101040000303BB75BB7D184607F11807BD4680BD7D
:1010500080B483B000AF78607B684FF000025A70B4
:101060004FF00103184607F10C07BD4680BC7047DE
:1010700080B483B000AF78600B46FB707B684FF0A4
:1010800001025A707B68FA781A704FF00103184613
:1010900007F10C07BD4680BC704700BF80B485B027
:1010A00000AF786039604FF00003FB737B685B78BA
:1010B000002B0AD07B681A783B681A707B684FF067
:1010C00000025A704FF00103FB73FB7B184607F1D7
:1010D0001407BD4680BC704780B582B000AF786011
:1010E00039607B6803F1010240F2E003C2F20003C1
:1010F0001B88104640F2C001C2F200011A4608F0F7
:1011000029FE40F2E003C2F200031B8803F1010351
:101110009AB23B681A804FF00003184607F108079F
:10112000BD4680BD80B58AB000AF786039604FF0B1
:1011300000037B624FF000033B624FF00003FB6152
:101140004FF00003BB617B681B8A9BB27B627B6AAA
:1011500023F440537B623B68DB887A6A42EA0303EC
:101160007B627B6A9AB27B681A827B689B899BB29E
:101170007B627B6A23F4B05323F00C037B623B68F1
:101180009A883B681B8942EA03039AB23B685B89F1
:1011900042EA03039BB27A6A42EA03037B627B6AF8
:1011A0009AB27B689A817B689B8A9BB27B627B6ADE
:1011B00023F440737B623B689B897A6A42EA0303AB
:1011C0007B627B6A9AB27B689A8207F108031846B1
:1011D00000F00AFD7A684FF48053C4F201039A428A
:1011E00006D07A684FF4A053C4F201039A4202D1A8
:1011F0007B693B6201E03B693B627B689B899BB2F8
:101200009BB21BB2002B0FDA3A6A13464FEA8303F4
:101210009B184FEA83029A183B681B684FEA430306
:10122000B2FBF3F3FB610EE03A6A13464FEA830325
:101230009B184FEA83029A183B681B684FEA8303A6
:10124000B2FBF3F3FB61FA6948F21F53C5F2EB13EB
:10125000A3FB02134FEA53134FEA03137B627B6A2B
:101260004FEA13134FF0640202FB03F3FA69D31A37
:10127000BB617B689B899BB29BB21BB2002B13DACC
:10128000BB694FEAC30303F1320248F21F53C5F2B0
:10129000EB13A3FB02134FEA531303F007037A6A1D
:1012A00042EA03037B6212E0BB694FEA031303F1D6
:1012B000320248F21F53C5F2EB13A3FB02134FEAAD
:1012C000531303F00F037A6A42EA03037B627B6ADB
:1012D0009AB27B681A8107F12807BD4680BD00BF1E
:1012E00080B483B000AF78600B46FB70FB78002BB6
:1012F00008D07B689B899BB243F400539AB27B6809
:101300009A8107E07B689B899BB223F400539AB2D1
:101310007B689A8107F10C07BD4680BC704700BF0F
:1013200080B483B000AF78600B467B807B884FEA47
:10133000C3534FEAD3539AB27B689A8007F10C07E4
:10134000BD4680BC704700BF80B483B000AF7860FA
:101350007B689B889BB24FEAC3534FEAD3539BB23F
:10136000184607F10C07BD4680BC704780B487B0B3
:1013700000AF786013460A467A807B704FF0000316
:101380003B614FF00003FB604FF00003BB604FF088
:1013900000037B617B687B617B88DBB24FEA531380
:1013A000DBB23B617B8803F01F03FB60FB684FF0FF
:1013B000010202FA03F3BB603B69012B04D17B6994
:1013C00003F10C037B610BE03B69022B04D17B69C9
:1013D00003F110037B6103E07B6903F114037B617C
:1013E0007B78002B07D07B697A691168BA6841EA7B
:1013F00002021A6008E07B697A691168BA686FEACC
:10140000020201EA02021A6007F11C07BD4680BC15
:10141000704700BF80B485B000AF78600B467B801A
:101420004FF00003FB737B681B889AB27B8802EA4B
:1014300003039BB2002B03D04FF00103FB7302E0C8
:101440004FF00003FB73FB7B184607F11407BD4602
:1014500080BC704780B483B000AF78600B467B805F
:101460007B886FEA03039AB27B681A8007F10C0746
:10147000BD4680BC704700BF80B487B000AF7860C5
:101480000B467B804FF00003FB604FF000037B6155
:101490004FF00003BB604FF00003FB747B88DBB2AE
:1014A0004FEA5313DBB2BB607B8803F01F037B6101
:1014B0007B694FF0010202FA03F37B61BB68012BE9
:1014C00007D17B689B899BB27A6902EA03037B613F
:1014D00011E0BB68022B07D17B681B8A9BB27A693B
:1014E00002EA03037B6106E07B689B8A9BB27A6910
:1014F00002EA03037B617B884FEA13239BB2FB6004
:10150000FB684FF0010202FA03F3FB607B681B8863
:101510009BB2FA6802EA0303FB607B69002B06D0EA
:10152000FB68002B03D04FF00103FB7402E04FF087
:101530000003FB74FB7C184607F11C07BD4680BC0A
:10154000704700BF80B483B000AF0346FB714FF01B
:101550002003C4F20E23FA791A6007F10C07BD4686
:1015600080BC704780B586B000AF4FF000037B6150
:101570004FF000033B614FF080504FF0010100F04D
:1015800099FC4FF00100FFF7DDFF4FF0010000F084
:10159000FDFA00BF4FF0410000F016FD0346002B9E
:1015A000F8D04FF4807000F009FC4FF0FF033B616E
:1015B0004FF07F037B614FF0010000F03DFC06F02F
:1015C00059FD4FF0000043F2F22106F09DFF07F1B4
:1015D0000403184606F0DCFC7B69BB603B69FB60DA
:1015E0004FF000037B6007F10403184606F06CFC23
:1015F00007F11807BD4680BD80B485B000AF034633
:10160000FB71FB79012B07D0072B09D0002B0BD1E5
:101610004FF00003FB730BE04FF00203FB7307E096
:101620004FF00603FB7303E04FF00403FB7300BFAE
:10163000FB7B184607F11407BD4680BC704700BF0E
:1016400080B582B000AF4AF20C23C0F600037B6085
:1016500040F20003C2F200033B600BE07B681A68B3
:101660003B681A603B6803F104033B607B6803F14D
:1016700004037B603A6840F2C003C2F200039A425E
:10168000ECD3074807494FF000028842B8BF40F842
:10169000042BFADB00F012FA07F10807BD4680BD03
:1016A000C0000020C42D002080B400AFFEE700BFC2
:1016B00080B584B000AF786039604FF00003FB73F1
:1016C0003B681B88052B2BD17B6803F101031B783A
:1016D0004FEA0323BB817B6803F102031B781A46A0
:1016E000BB8942EA0303BB81BB8903F10103BB81D0
:1016F0007B6803F10302BB89104619464FF00102D3
:101700004FF00103FEF730FE0346FB72FB7A002B1D
:1017100009D0FB7A1846FFF76FFF0346FB7302E020
:101720004FF00303FB73FB7B184607F11007BD4620
:1017300080BD00BF80B584B000AF786039604FF0E5
:101740000003FB733B681B88052B57D97B6803F1AB
:1017500001031B784FEA0323BB817B6803F102037B
:101760001B781A46BB8942EA0303BB81BB8903F19C
:101770000103BB817B6803F103031B784FEA03235A
:101780007B817B6803F104031B781A467B8942EA5C
:1017900003037B817B6803F105031B787B727B89E4
:1017A000002B27D07B89782B24D87B89DBB24FEAAA
:1017B0004303DBB27A7A9A421CD17B6803F10601BB
:1017C000BA897B89084611461A464FF00103FEF795
:1017D000CBFD03463B723B7A002B06D03B7A184682
:1017E000FFF70AFF0346FB730BE03B684FF005026F
:1017F0001A8006E04FF00303FB7302E04FF003038F
:10180000FB73FB7B184607F11007BD4680BD00BF88
:1018100080B586B000AF786039604FF00003FB758B
:101820003B681B88052B70D17B6803F101031B7893
:101830004FEA0323BB827B6803F102031B781A463D
:10184000BB8A42EA0303BB82BB8A03F10103BB826A
:101850007B6803F103031B784FEA03237B827B68D9
:1018600003F104031B787B827B8A002B49D07B8A9F
:101870007D2B46D87B68FB603B684FF000021A80E6
:10188000FB684FF003021A70FB6803F10103FB6071
:101890003B681B8803F101039AB23B681A807B8A7C
:1018A000DBB24FEA4303DAB2FB681A70FB6803F15C
:1018B0000103FB603B681B8803F101039AB23B689C
:1018C0001A80BA8A7B8AF86811461A464FF00003DC
:1018D000FEF74AFD0346FB72FB7A002B06D0FB7A2B
:1018E0001846FFF789FE0346FB7511E03B681A882E
:1018F0007B8A4FEA43039BB2D3189AB23B681A80A3
:1019000006E04FF00303FB7502E04FF00303FB75A5
:10191000FB7D184607F11807BD4680BD80B586B02F
:1019200000AF786039604FF00003FB753B681B889F
:10193000092B40F2BC807B6803F101031B784FEA5E
:101940000323BB827B6803F102031B781A46BB8A20
:1019500042EA0303BB82BB8A03F10103BB827B68BB
:1019600003F103031B784FEA03237B827B6803F1B7
:1019700004031B781A467B8A42EA03037B827B6856
:1019800003F105031B784FEA03233B827B6803F1D5
:1019900006031B781A463B8A42EA03033B823B8AD2
:1019A00003F101033B827B6803F107031B784FEAD5
:1019B0000323FB817B6803F108031B781A46FB892C
:1019C00042EA0303FB817B6803F109031B787B7305
:1019D0007B8A002B68D07B8A7D2B65D8FB89002B06
:1019E00062D0FB89792B5FD8FB894FEA43027B7B6E
:1019F0009A4259D17B6803F10A013A8AFB89084669
:101A000011461A464FF00103FEF7AEFC0346BB75C4
:101A1000BB7D002B3ED17B68BB603B684FF0000272
:101A20001A80BB684FF017021A70BB6803F10103FC
:101A3000BB603B681B8803F101039AB23B681A80C4
:101A40007B8ADBB24FEA4303DAB2BB681A70BB6829
:101A500003F10103BB603B681B8803F101039AB2E9
:101A60003B681A80BA8A7B8AB86811461A464FF0DA
:101A70000003FEF779FC0346BB75BB7D002B09D143
:101A80003B681A887B8A4FEA43039BB2D3189AB209
:101A90003B681A80BB7D002B09D0BB7D1846FFF741
:101AA000ABFD0346FB7502E04FF00303FB75FB7DC6
:101AB000184607F11807BD4680BD00BF80B500AFCE
:101AC00003F0E8F806F0B6FE00F0DAFDFEE700BF2E
:101AD00080B400AFFEE700BF80B483B000AF786091
:101AE0003960FEE780B582B000AF06F061FE0346C4
:101AF0007B607B6807F10807BD4680BD80B485B078
:101B000000AF78600B467B804FF0FF03FB734FF014
:101B1000FF03BB731DE07B681A78BB7B82EA03037B
:101B2000DBB2BB607B6803F101037B6049F678732D
:101B3000C0F60003BA689B181A78FB7B82EA03039D
:101B4000BB734AF27803C0F60003BA689B181B788F
:101B5000FB737B88002B0CBF00230123DBB27A8848
:101B600002F1FF327A80002BD5D1FB7B4FEA0323B1
:101B70009AB2BB7B9BB242EA03039BB29BB218466C
:101B800007F11407BD4680BC704700BF80B483B026
:101B900000AF0346FB7143F67003C4F202034FF03B
:101BA00000021A7043F67003C4F202034FF0000201
:101BB0001A70FB79012B02D0042B08D00FE043F6FA
:101BC0007003C4F202034FF001021A7007E043F6FB
:101BD0007003C4F202034FF005021A7000BF07F150
:101BE0000C07BD4680BC704780B489B000AF7860F8
:101BF0004FF00003BB614FF000037B614FF0000327
:101C0000FB614FF002033B614FF00003FB604FF0BC
:101C10000203BB604FF46053C4F202039B6803F0FD
:101C20000C03BB61BB69042B0AD0082B0FD0002B1F
:101C300064D17A684FF41053C0F2F403136064E087
:101C40007A684FF49053C0F27A0313605DE04FF46A
:101C50006053C4F202035B6803F480034FEA9353BA
:101C6000FB604FF46053C4F202035B6803F03F0370
:101C7000BB60FB68002B16D04FF49053C0F27A0380
:101C8000BA68B3FBF2F24FF46053C4F202035B682C
:101C9000194647F6C07301EA03034FEA931303FBA7
:101CA00002F3FB6115E04FF41053C0F2F403BA687D
:101CB000B3FBF2F24FF46053C4F202035B681946BF
:101CC00047F6C07301EA03034FEA931303FB02F3E1
:101CD000FB614FF46053C4F202035B6803F44033CA
:101CE0004FEA134303F101034FEA43033B61FA69EF
:101CF0003B69B2FBF3F27B681A6006E07A684FF446
:101D00001053C0F2F403136000BF4FF46053C4F2E9
:101D100002039B6803F0F003BB61BB694FEA131336
:101D2000BB6140F29003C2F20003BA699B181B78B2
:101D3000DBB27B617B681A687B6922FA03F27B68FD
:101D40005A604FF46053C4F202039B6803F4E053FB
:101D5000BB61BB694FEA9323BB6140F29003C2F2BF
:101D60000003BA699B181B78DBB27B617B685A68F9
:101D70007B6922FA03F27B689A604FF46053C4F2E5
:101D800002039B6803F46043BB61BB694FEA5333B2
:101D9000BB6140F29003C2F20003BA699B181B7842
:101DA000DBB27B617B685A687B6922FA03F27B684D
:101DB000DA6007F12407BD4680BC704780B485B067
:101DC00000AF78604FF00003FB607B6803F4407362
:101DD000B3F5407F18D14FF46053C4F202039B68FF
:101DE000FB60FB6823F4F813FB607B6823F070430F
:101DF00023F44073FA6842EA0303FB604FF4605334
:101E0000C4F20203FA689A604FF46053C4F202030A
:101E10004FF46052C4F20202126F11467A684FEA20
:101E200002524FEA125241EA02021A6707F11407FE
:101E3000BD4680BC704700BF80B483B000AF03468E
:101E4000FB7140F63C63C4F24723FA791A6007F14C
:101E50000C07BD4680BC704780B483B000AF78608B
:101E60000B46FB70FB78002B0ED04FF46053C4F28E
:101E700002034FF46052C4F20202126B11467A68F8
:101E800041EA02021A630FE04FF46053C4F2020306
:101E90004FF46052C4F20202126B11467A686FEA84
:101EA000020201EA02021A6307F10C07BD4680BC78
:101EB000704700BF80B483B000AF78600B46FB7002
:101EC000FB78002B0ED04FF46053C4F202034FF4A2
:101ED0006052C4F20202126C11467A6841EA0202B0
:101EE0001A640FE04FF46053C4F202034FF46052DF
:101EF000C4F20202126C11467A686FEA020201EA29
:101F000002021A6407F10C07BD4680BC704700BF8F
:101F100080B483B000AF78600B46FB70FB78002B79
:101F20000ED04FF46053C4F202034FF46052C4F277
:101F30000202526C11467A6841EA02025A640FE0CA
:101F40004FF46053C4F202034FF46052C4F2020231
:101F5000526C11467A686FEA020201EA02025A6480
:101F600007F10C07BD4680BC704700BF80B483B04A
:101F700000AF78600B46FB70FB78002B0ED04FF45F
:101F80006053C4F202034FF46052C4F20202126AB8
:101F900011467A6841EA02021A620FE04FF4605378
:101FA000C4F202034FF46052C4F20202126A1146F4
:101FB0007A686FEA020201EA02021A6207F10C076C
:101FC000BD4680BC704700BF80B487B000AF0346F9
:101FD000FB714FF00003FB604FF000037B614FF09B
:101FE0000003FB74FB794FEA5313DBB2FB60FB6821
:101FF000012B06D14FF46053C4F202031B687B61CE
:102000000FE0FB68022B06D14FF46053C4F20203C9
:102010001B6F7B6105E04FF46053C4F202035B6FFA
:102020007B61FB7903F01F03FB60FB687A6922FA8E
:1020300003F303F00103DBB2002B03D04FF00103E5
:10204000FB7402E04FF00003FB74FB7C184607F1C1
:102050001C07BD4680BC704780B59EB000AF78605D
:1020600039604FF0000387F875304FF0000387F8B0
:1020700074303B681B88082B40F215817B6803F1A4
:1020800001031B78A7F87630B7F8762044F62513BD
:10209000C2F29243A3FB0213D21A4FEA52029B18D8
:1020A0004FEA93039BB287F873304FF0000387F831
:1020B000753062E097F875207B6803F104031B78A4
:1020C00019467B6803F103031B784FEA03239BB295
:1020D00041EA03039BB299B213464FEA43039B18AC
:1020E0004FEA430307F17802D318A3F170030A46BD
:1020F0001A8097F875207B6803F106031B78194650
:102100007B6803F105031B784FEA03239BB241EA86
:1021100003039BB299B213464FEA43039B184FEA5D
:10212000430307F17802D318A3F170030A465A80DB
:1021300097F875207B6803F108031B7819467B68C4
:1021400003F107031B784FEA03239BB241EA030321
:102150009BB299B213464FEA43039B184FEA4303DD
:1021600007F17802D318A3F170030A469A8097F812
:10217000753003F1010387F8753097F8752097F8EB
:1021800073309A4296D397F87330002B00F0868014
:1021900097F87330092B00F281807B68FB663B68FF
:1021A0004FF000021A80FB6E4FF014021A70FB6EA3
:1021B00003F10103FB663B681B8803F101039AB23C
:1021C0003B681A804FF00003A7F876304FF0000309
:1021D00087F875301FE097F8752013464FEA4303E0
:1021E0009B184FEA430307F17801CB18A3F1700362
:1021F0009B881A464FEAC202D3184FEAC3039AB229
:10220000B7F87630D318A7F8763097F8753003F121
:10221000010387F8753097F8752097F873309A4264
:10222000D9D3B7F87630FA2B33D8B7F87630DAB29C
:10223000FB6E1A70FB6E03F10103FB663B681B88A3
:1022400003F101039AB23B681A8097F873309BB28E
:1022500007F10802F86E11461A46FEF74FFB0346D7
:1022600087F86B3097F86B30002B08D097F86B30FD
:102270001846FFF7C1F9034687F8743017E03B684A
:102280001A88B7F87630DBB2D3189AB23B681A8056
:102290000DE04FF0030387F8743008E04FF00303BC
:1022A00087F8743003E04FF0030387F8743097F831
:1022B0007430184607F17807BD4680BD80B584B0FC
:1022C00000AF03463960FB804FF00003FB73FB88CF
:1022D000632B18D8FB881A464FEA8202D3181A4695
:1022E0004FEAC202D31A4FEA43039BB203F1300311
:1022F0009BB2184639684FF0460201F04FF9034689
:10230000FB73FB7B01E04FF00403184607F1100755
:10231000BD4680BD80B586B000AF786039604FF0B3
:102320000003FB753B681B88052B72D17B6803F1AA
:1023300001031B784FEA0323BB827B6803F102038E
:102340001B781A46BB8A42EA0303BB82BB8A03F1AD
:102350000103BB827B6803F103031B784FEA03236D
:102360007B827B6803F104031B781A467B8A42EA6E
:1023700003037B827B8A002B47D07B8A7C2B44D84B
:102380007B68FB603B684FF000021A80FB684FF0EF
:1023900004021A70FB6803F10103FB603B681B88B1
:1023A00003F101039AB23B681A807B8ADBB24FEAE1
:1023B0004303DAB2FB681A70FB6803F10103FB60A8
:1023C0003B681B8803F101039AB23B681A80BA8A02
:1023D0007B8AF86811461A46FDF7E2FE0346FB7257
:1023E000FB7A002B06D0FB7A1846FFF705F9034667
:1023F000FB7511E03B681A887B8A4FEA43039BB266
:10240000D3189AB23B681A8006E04FF00303FB75BD
:1024100002E04FF00303FB75FB7D184607F1180738
:10242000BD4680BD80B58AB002AFF860B9603B6040
:102430001346FB80FB68002B02D102F043FEFEE74F
:10244000BB6A042B02D902F03DFEFEE7FB8818466A
:10245000396B00F069FEB861BB69002B00F09F800A
:10246000BB691A6BFB8803F1FF334FEA8303D31870
:102470007B617B6923F007037B617B6903F00703C2
:10248000002B02D002F01EFEFEE7FB880093B86925
:10249000B968BA6A7B6B00F005FD7869F9683A683B
:1024A00002F0CAFC03461A46BB691A60FB6A002B9D
:1024B00002D0FB6ABA691A6002F0B8FD40F2BC13A0
:1024C000C2F200031B6803F1010240F2BC13C2F226
:1024D00000031A6040F2E403C2F200031B68002B01
:1024E0000FD140F2E403C2F20003BA691A6040F26D
:1024F000BC13C2F200031B68012B18D100F030FDA1
:1025000015E040F2C813C2F200031B68002B0ED185
:1025100040F2E403C2F200031B68DA6ABB6A9A4223
:1025200005D840F2E403C2F20003BA691A6040F22F
:10253000D813C2F200031B6803F1010240F2D81362
:10254000C2F200031A60BB69DB6A4FF0010202FAB3
:1025500003F240F2C413C2F200031B681A4340F2B4
:10256000C413C2F200031A60BB69DA6A13464FEA69
:1025700083039B184FEA83031A4640F2E803C2F232
:102580000003D218BB6903F104031046194602F098
:10259000F7FA4FF00103FB6102F070FD02E04FF02B
:1025A000FF33FB61FB69012B11D140F2C813C2F26A
:1025B00000031B68002B0AD040F2E403C2F20003C0
:1025C0001B68DA6ABB6A9A4201D202F01FFDFB69FE
:1025D000184607F12007BD4680BD00BF80B584B016
:1025E00000AF78604FF00003FB607B68002B3DD0AC
:1025F00040F2DC13C2F200031B68002B02D002F091
:1026000061FDFEE700F07AF840F2C013C2F2000369
:102610001A687B68D318BB6040F2E403C2F200037F
:102620001B6803F10403184602F008FB0346002B65
:1026300016D140F2E403C2F200031B68DB6A4FF0DC
:10264000010202FA03F36FEA030240F2C413C2F27A
:1026500000031B681A4040F2C413C2F200031A6060
:10266000B86800F01BFD00F05BF8F860FB68002B19
:1026700001D102F0CBFC07F11007BD4680BD00BFC1
:1026800080B586B004AF4FF0000300934FF0000315
:1026900001934FF0000302934FF00003039342F6BF
:1026A0008160C0F600004AF27811C0F600014FF0D8
:1026B00046024FF00003FFF7B5FE78607B68012B00
:1026C00012D102F0FFFC40F2C813C2F200034FF037
:1026D00001021A6040F2C013C2F200034FF0000280
:1026E0001A6002F00DFC05E07B68002B02D102F0BD
:1026F000E9FCFEE707F10807BD4680BD80B400AFE6
:1027000040F2DC13C2F200031B6803F1010240F245
:10271000DC13C2F200031A60BD4680BC704700BFE4
:1027200080B582B000AF4FF000037B6040F2DC1355
:10273000C2F200031B68002B02D102F0C3FCFEE7CB
:1027400002F074FC40F2DC13C2F200031B6803F1D8
:10275000FF3240F2DC13C2F200031A6040F2DC13D5
:10276000C2F200031B68002B40F08D8040F2BC13C6
:10277000C2F200031B68002B00F0858049E040F2A4
:102780007C13C2F20003DB68DB683B603B6803F14B
:102790001803184602F052FA3B6803F10403184686
:1027A00002F04CFA3B68DB6A4FF0010202FA03F2D6
:1027B00040F2C413C2F200031B681A4340F2C41370
:1027C000C2F200031A603B68DA6A13464FEA8303D9
:1027D0009B184FEA83031A4640F2E803C2F2000353
:1027E000D2183B6803F104031046194602F0C8F9F9
:1027F0003B68DA6A40F2E403C2F200031B68DB6A5A
:102800009A4206D340F2D013C2F200034FF0010205
:102810001A6040F27C13C2F200031B68002BAED199
:1028200040F2CC13C2F200031B68002B1FD017E04C
:1028300000F032F80346002B06D040F2D013C2F26B
:1028400000034FF001021A6040F2CC13C2F2000301
:102850001B6803F1FF3240F2CC13C2F200031A608E
:1028600040F2CC13C2F200031B68002BE0D140F20F
:10287000D013C2F200031B68012B04D14FF00103F7
:102880007B6002F0C3FB02F0F9FB7B68184607F19E
:102890000807BD4680BD00BF80B586B000AF4FF0D1
:1028A00000037B6140F2DC13C2F200031B68002BC3
:1028B00040F0D88040F2C013C2F200031B6803F15D
:1028C000010240F2C013C2F200031A6040F2C013CA
:1028D000C2F200031B683B613B69002B2ED140F222
:1028E0007413C2F200031B681B68002B02D002F0B5
:1028F000E9FBFEE740F27413C2F200031B68FB60C1
:1029000040F27813C2F200031A6840F27413C2F264
:1029100000031A6040F27813C2F20003FA681A60EA
:1029200040F2D413C2F200031B6803F1010240F22B
:10293000D413C2F200031A6000F044FC40F2A0037A
:10294000C2F200031B683A699A4272D300E000BFEA
:1029500040F27413C2F200031B681B68002B02D103
:102960004FF0010301E04FF00003002B07D040F2CD
:10297000A003C2F200034FF0FF321A6059E040F2A8
:102980007413C2F200031B68DB68DB68BB60BB68C2
:102990005B687B603A697B689A4206D240F2A0038A
:1029A000C2F200037A681A6043E0BB6803F10403D3
:1029B000184602F043F9BB689B6A002B05D0BB6840
:1029C00003F11803184602F039F9BB68DB6A4FF0CF
:1029D000010202FA03F240F2C413C2F200031B68C0
:1029E0001A4340F2C413C2F200031A60BB68DA6AE9
:1029F00013464FEA83039B184FEA83031A4640F2BB
:102A0000E803C2F20003D218BB6803F104031046C6
:102A1000194602F0B5F8BB68DA6A40F2E403C2F284
:102A200000031B68DB6A9A4291D34FF001037B617C
:102A30008EE740F2E403C2F200031B68DA6A134631
:102A40004FEA83039B184FEA83031A4640F2E803D8
:102A5000C2F20003D3181B68012B0FD94FF00103FA
:102A60007B610BE040F2CC13C2F200031B6803F160
:102A7000010240F2CC13C2F200031A6040F2D013FC
:102A8000C2F200031B68002B02D04FF001037B61F0
:102A90007B69184607F11807BD4680BD90B585B023
:102AA00000AF40F2DC13C2F200031B68002B07D01A
:102AB00040F2D013C2F200034FF001021A608FE01F
:102AC00040F2D013C2F200034FF000021A6040F24D
:102AD000E403C2F200031B681A6840F2E403C2F286
:102AE00000031B681B6B9A420FD840F2E403C2F24A
:102AF00000031A6840F2E403C2F200031B6803F10A
:102B0000340310461946FEF7E7FF40F2E403C2F231
:102B100000031B681B6B18464AF28011C0F60001C7
:102B20004FF0140207F0EAF80346002B0FD040F2F2
:102B3000E403C2F200031A6840F2E403C2F20003A5
:102B40001B6803F1340310461946FEF7C5FF40F237
:102B5000C413C2F200031B687B607B68B3FA83F482
:102B6000FC70FB78C3F11F03FB60FA6813464FEA61
:102B700083039B184FEA83031A4640F2E803C2F22C
:102B80000003D3181B68002B02D102F09BFAFEE76A
:102B9000FA6813464FEA83039B184FEA83031A46E9
:102BA00040F2E803C2F20003D318BB60BB685B6865
:102BB0005A68BB685A60BB685A68BB6803F108036F
:102BC0009A4204D1BB685B685A68BB685A60BB68AC
:102BD0005B68DB681A4640F2E403C2F200031A6045
:102BE00007F11407BD4690BD80B584B000AF786092
:102BF00039607B68002B02D102F064FAFEE740F2F4
:102C0000E403C2F200031B6803F118037868194655
:102C100001F0DAFF40F2E403C2F200031B6803F1A3
:102C20000403184602F00AF80346002B16D140F2BE
:102C3000E403C2F200031B68DB6A4FF0010202FAF0
:102C400003F36FEA030240F2C413C2F200031B68ED
:102C50001A4040F2C413C2F200031A603B68B3F199
:102C6000FF3F0ED140F2E403C2F200031B6803F100
:102C7000040340F2A810C2F20000194601F080FFE0
:102C80000AE040F2C013C2F200031A683B68D3188E
:102C9000FB60F86800F002FA07F11007BD4680BD3E
:102CA00080B584B000AF78607B68DB68DB68BB60B0
:102CB000BB68002B02D102F005FAFEE7BB6803F106
:102CC0001803184601F0BAFF40F2DC13C2F2000309
:102CD0001B68002B2CD1BB6803F10403184601F0DC
:102CE000ADFFBB68DB6A4FF0010202FA03F240F26B
:102CF000C413C2F200031B681A4340F2C413C2F2A9
:102D000000031A60BB68DA6A13464FEA83039B1814
:102D10004FEA83031A4640F2E803C2F20003D218D6
:102D2000BB6803F104031046194601F029FF09E0CE
:102D3000BB6803F1180340F27C10C2F20000194690
:102D400001F01EFFBB68DA6A40F2E403C2F200033E
:102D50001B68DB6A9A420AD94FF00103FB6040F21C
:102D6000D013C2F200034FF001021A6002E04FF0EC
:102D70000003FB60FB68184607F11007BD4680BDE5
:102D800080B582B000AF78607B68002B02D102F082
:102D900099F9FEE740F2D413C2F200031A687B6887
:102DA0001A6040F2C013C2F200031A687B685A60CE
:102DB00007F10807BD4680BD80B584B000AF7860DC
:102DC00039607B68002B02D102F07CF9FEE73B689A
:102DD000002B02D102F076F9FEE702F027F940F26B
:102DE000C013C2F200031B68BB603B681B68B3F1F1
:102DF000FF3F03D14FF00003FB602CE07B681A68B3
:102E000040F2D413C2F200031B689A4208D07B68D8
:102E10005A68BB689A4203D84FF00103FB601AE07E
:102E20007B685B68BA68D21A3B681B689A420FD20B
:102E30003B681A687B685968BB68CB1AD2183B6834
:102E40001A607868FFF79CFF4FF00003FB6002E018
:102E50004FF00103FB6002F011F9FB68184607F11F
:102E60001007BD4680BD00BF80B400AF40F2D01354
:102E7000C2F200034FF001021A60BD4680BC7047E9
:102E800080B582B000AF786000F0BCF840F2E80393
:102E9000C2F200031B68012B01D902F0B7F8FEF75C
:102EA00021FEF1E780B586B000AFF860B9607A60C6
:102EB0003B604FF000037B6113E0BA687B69D31875
:102EC0001A78F9687B69CB1803F130031A71BA6874
:102ED0007B69D3181B78002B07D07B6903F10103B2
:102EE0007B617B69092BE8D900E000BFFB684FF0EC
:102EF000000283F83D207B68042B02D94FF00403C5
:102F00007B60FB687A68DA62FB687A681A64FB683F
:102F10004FF000025A64FB6803F10403184601F005
:102F200021FEFB6803F11803184601F01BFEFB6845
:102F3000FA681A617B68C3F10502FB689A61FB6855
:102F4000FA685A62FB684FF000029A64FB684FF01F
:102F5000000283F84C2007F11807BD4680BD00BF72
:102F600080B582B000AF4FF000037B6013E07A6859
:102F700013464FEA83039B184FEA83031A4640F235
:102F8000E803C2F20003D318184601F0C7FD7B68BE
:102F900003F101037B607B68042BE8D940F24C10FD
:102FA000C2F2000001F0BAFD40F26010C2F200006F
:102FB00001F0B4FD40F27C10C2F2000001F0AEFD61
:102FC00040F29010C2F2000001F0A8FD40F2A810FB
:102FD000C2F2000001F0A2FD40F27413C2F200033D
:102FE00040F24C12C2F200021A6040F27813C2F2B0
:102FF000000340F26012C2F200021A6007F10807F3
:10300000BD4680BD80B582B000AF3CE0FFF776FBE7
:1030100040F29013C2F200031B68002B14BF002380
:1030200001237B60FFF77CFB7B68002B2BD101F039
:10303000FDFF40F29013C2F20003DB68DB683B60E7
:103040003B6803F10403184601F0F8FD40F2BC139D
:10305000C2F200031B6803F1FF3240F2BC13C2F25C
:1030600000031A6040F2A413C2F200031B6803F1CC
:10307000FF3240F2A413C2F200031A6001F0FEFF17
:10308000386800F08FF840F2A413C2F200031B6806
:10309000002BBBD107F10807BD4680BD80B582B0CB
:1030A00000AF786040F2E403C2F200031B687A6864
:1030B0005A6040F2C013C2F200031B687A689A4259
:1030C00010D240F27813C2F200031A6840F2E4030F
:1030D000C2F200031B6803F104031046194601F015
:1030E00073FD1DE040F27413C2F200031A6840F24F
:1030F000E403C2F200031B6803F1040310461946FF
:1031000001F062FD40F2A003C2F200031B687A687E
:103110009A4205D240F2A003C2F200037A681A6014
:1031200007F10807BD4680BD80B584B000AF0346F7
:103130003960FB803B68002B07D1FB884FEA830393
:10314000184605F03FFA034600E03B68BB60BB68E9
:10315000002B10D04FF0500005F034FA0346FB600E
:10316000FB68002B03D0FB68BA681A6306E0B868F6
:1031700005F0DAFA02E04FF00003FB60FB68002B79
:103180000AD0FB681A6BFB884FEA830310464FF0A6
:10319000A5011A4606F086FEFB68184607F11007DF
:1031A000BD4680BD80B582B000AF78607B681B6B88
:1031B000184605F0B9FA786805F0B6FA07F108077D
:1031C000BD4680BD80B483B000AF40F27413C2F23C
:1031D00000031B681B68002B02D14FF0010301E0C4
:1031E0004FF00003002B07D040F2A003C2F200030F
:1031F0004FF0FF321A600EE040F27413C2F2000387
:103200001B68DB68DB687B607B685A6840F2A00360
:10321000C2F200031A6007F10C07BD4680BC70477C
:1032200080B584B000AF78607B68FB607B68002B62
:1032300000F09680FB68DA6A40F2E403C2F2000311
:103240001B68DB6A9A4280F08B80FB689B69002BCD
:1032500009DB40F2E403C2F200031B68DB6AC3F13E
:103260000502FB689A61FB685969FB68DA6A1346D4
:103270004FEA83039B184FEA83031A4640F2E803A0
:10328000C2F20003D318994202D14FF0010301E0CA
:103290004FF00003002B5BD0FB6803F104031846DA
:1032A00001F0CCFC0346002B23D1FB68DA6A1346FD
:1032B0004FEA83039B184FEA83031A4640F2E80360
:1032C000C2F20003D3181B68002B12D1FB68DB6A23
:1032D0004FF0010202FA03F36FEA030240F2C41353
:1032E000C2F200031B681A4040F2C413C2F200038A
:1032F0001A6040F2E403C2F200031B68DA6AFB685A
:10330000DA62FB68DB6A4FF0010202FA03F240F274
:10331000C413C2F200031B681A4340F2C413C2F282
:1033200000031A60FB68DA6A13464FEA83039B18AE
:103330004FEA83031A4640F2E803C2F20003D218B0
:10334000FB6803F104031046194601F019FC07E07D
:1033500040F2E403C2F200031B68DA6AFB68DA6237
:1033600007F11007BD4680BD80B584B000AF78601E
:103370007B68BB604FF00003FB607B68002B76D05E
:10338000BB685B6C002B02D101F09CFEFEE7BB68C2
:103390005B6C03F1FF32BB685A64BB68DA6ABB68D6
:1033A0001B6C9A4263D0BB685B6C002B5FD1BB681F
:1033B00003F10403184601F041FC0346002B23D11E
:1033C000BB68DA6A13464FEA83039B184FEA83030C
:1033D0001A4640F2E803C2F20003D3181B68002B20
:1033E00012D1BB68DB6A4FF0010202FA03F36FEA05
:1033F000030240F2C413C2F200031B681A4040F2F9
:10340000C413C2F200031A60BB681A6CBB68DA62AC
:10341000BB68DB6AC3F10502BB689A61BB68DB6A03
:103420004FF0010202FA03F240F2C413C2F20003A9
:103430001B681A4340F2C413C2F200031A60BB684F
:10344000DA6A13464FEA83039B184FEA83031A464E
:1034500040F2E803C2F20003D218BB6803F1040390
:103460001046194601F08CFB4FF00103FB60FB682E
:10347000184607F11007BD4680BD00BF80B400AFFD
:1034800040F2E403C2F200031B68002B08D040F2B4
:10349000E403C2F200031B685A6C02F101025A6491
:1034A00040F2E403C2F200031B681846BD4680BC2C
:1034B000704700BF80B586B000AF4FF400104FF0EA
:1034C0000101FEF7F7FC4FF002004FF00101FEF79B
:1034D000C3FC4FF48060C4F202004FF009014FF0CA
:1034E000040200F057FE4FF48060C4F202004FF077
:1034F00008014FF0040200F04DFE4FF440733B61B1
:103500004FF002033B754FF000037B754FF0010352
:10351000BB754FF00103FB7507F110034FF480609A
:10352000C4F20200194600F069FD4FF4A840C4F24D
:10353000000003F071FD4FF00003BB804BF6FF73FA
:10354000FB804FF0A0033B814FF480637B814FF4FD
:103550008043BB814FF4D453C0F206033B603B462B
:103560004FF4A840C4F20000194603F099FD4FF44F
:10357000A840C4F200004FF0010103F06DFE4FF0CF
:10358000010001F0DBFE024642F66853C2F200037E
:103590001A6007F11807BD4680BD00BF80B586B030
:1035A00000AFB96013460246FA81FB8042F2107305
:1035B0007B6142F66853C2F200031B6818464FF065
:1035C00000014FF0FF324FF0000302F025F84FF0FA
:1035D00000037B8242F210737B611CE07B69002B4D
:1035E00014BF00230123DBB27A6902F1FF327A6152
:1035F000002B10D042F66853C2F200031B68184635
:103600004FF000014FF000024FF0000301F0EAFE1E
:103610004FF0050331E34FF4A840C4F200004FF42B
:10362000003103F02DFF0346002BD7D14FF4A84003
:10363000C4F200004FF0010103F02EFE42F21073BD
:103640007B6124E07B69002B14BF00230123DBB2E4
:103650007A6902F1FF327A61002B18D04FF4A8404A
:10366000C4F200004FF0010103F036FE42F6685349
:10367000C2F200031B6818464FF000014FF0000231
:103680004FF0000301F0AEFE4FF00503F5E24FF4FA
:10369000A840C4F200004FF00101C0F2030103F0A2
:1036A000B7FE0346002BCDD04FF4A840C4F2000073
:1036B0004FF0A0014FF0000203F02EFE42F2107313
:1036C0007B6124E07B69002B14BF00230123DBB264
:1036D0007A6902F1FF327A61002B18D04FF4A840CA
:1036E000C4F200004FF0010103F0F6FD42F668530A
:1036F000C2F200031B6818464FF000014FF00002B1
:103700004FF0000301F06EFE4FF00503B5E24FF4F9
:10371000A840C4F200004FF08201C0F2070103F09C
:1037200077FE0346002BCDD0FB894FEA13239BB2D3
:10373000DBB24FF4A840C4F20000194603F04AFE81
:1037400042F210737B6124E07B69002B14BF0023DD
:103750000123DBB27A6902F1FF327A61002B18D0C3
:103760004FF4A840C4F200004FF0010103F0B4FD93
:1037700042F66853C2F200031B6818464FF000017E
:103780004FF000024FF0000301F02CFE4FF0050354
:1037900073E24FF4A840C4F200004FF08401C0F27D
:1037A000070103F035FE0346002BCDD0FB89DBB2C9
:1037B0004FF4A840C4F20000194603F00BFE42F299
:1037C00010737B6124E07B69002B14BF002301236D
:1037D000DBB27A6902F1FF327A61002B18D04FF424
:1037E000A840C4F200004FF0010103F075FD42F65D
:1037F0006853C2F200031B6818464FF000014FF0F7
:1038000000024FF0000301F0EDFD4FF0050334E23C
:103810004FF4A840C4F200004FF08401C0F2070149
:1038200003F0F6FD0346002BCDD04FF4A840C4F2C0
:1038300000004FF0010103F04FFD4FF4A840C4F227
:1038400000004FF0010103F085FD4FF4A840C4F2E1
:1038500000004FF2FF7103F09DFD4FF4A840C4F249
:1038600000004FF0010103F017FD42F210737B617D
:1038700024E07B69002B14BF00230123DBB27A69AB
:1038800002F1FF327A61002B18D04FF4A840C4F245
:1038900000004FF0010103F01FFD42F66853C2F231
:1038A00000031B6818464FF000014FF000024FF074
:1038B000000301F097FD4FF00503DEE14FF4A8404F
:1038C000C4F200004FF00101C0F2030103F0A0FDBB
:1038D0000346002BCDD04FF4A840C4F200004FF0B7
:1038E000A0014FF0010203F017FD42F210737B615B
:1038F0001CE07B69002B14BF00230123DBB27A6933
:1039000002F1FF327A61002B10D042F66853C2F206
:1039100000031B6818464FF000014FF000024FF003
:10392000000301F05FFD4FF00503A6E14FF4A8404E
:10393000C4F200004FF00201C1F2000103F0A0FD4B
:103940000346002BD5D0FB88022B40F2208142F2A7
:1039500010737B6124E07B69002B14BF00230123DB
:10396000DBB27A6902F1FF327A61002B18D04FF492
:10397000A840C4F200004FF0010103F0ADFC42F694
:103980006853C2F200031B6818464FF000014FF065
:1039900000024FF0000301F025FD4FF005036CE13C
:1039A0004FF4A840C4F200004FF04001C0F2030100
:1039B00003F02EFD0346002BCDD043E04FF4A8408A
:1039C000C4F2000003F016FD03461A46BB681A70E5
:1039D000BB6803F10103BB6042F210737B6124E01A
:1039E0007B69002B14BF00230123DBB27A6902F14B
:1039F000FF327A61002B18D04FF4A840C4F20000C7
:103A00004FF0010103F068FC42F66853C2F2000374
:103A10001B6818464FF000014FF000024FF0000302
:103A200001F0E0FC4FF0050327E14FF4A840C4F299
:103A300000004FF04001C0F2030103F0E9FC03462F
:103A4000002BCDD0FB88032B0CBF00230123DBB25E
:103A5000FA8802F1FF32FA80002BAFD142F21073E4
:103A60007B6124E07B69002B14BF00230123DBB2C0
:103A70007A6902F1FF327A61002B18D04FF4A84026
:103A8000C4F200004FF0010103F026FC42F6685337
:103A9000C2F200031B6818464FF000014FF000020D
:103AA0004FF0000301F09EFC4FF00503E5E04FF4FA
:103AB000A840C4F200004FF00401C1F2000103F07D
:103AC000DFFC0346012BCDD14FF4A840C4F2000027
:103AD0004FF0000103F03EFC4FF4A840C4F2000098
:103AE00003F088FC03461A46BB681A70BB6803F1F2
:103AF0000103BB604FF4A840C4F200004FF0010185
:103B000003F0EAFB4FF4A840C4F2000003F072FC9B
:103B100003461A46BB681A70BB6803F10103BB6019
:103B200042F210737B6124E07B69002B14BF0023F9
:103B30000123DBB27A6902F1FF327A61002B18D0DF
:103B40004FF4A840C4F200004FF0010103F0C4FBA1
:103B500042F66853C2F200031B6818464FF000019A
:103B60004FF000024FF0000301F03CFC4FF0050362
:103B700083E04FF4A840C4F200004FF04001C1F2CE
:103B8000000103F07DFC0346012BCDD153E04FF43F
:103B9000A840C4F200004FF0000103F0DBFB42F24A
:103BA00010737B6124E07B69002B14BF0023012389
:103BB000DBB27A6902F1FF327A61002B18D04FF440
:103BC000A840C4F200004FF0010103F085FB42F66B
:103BD0006853C2F200031B6818464FF000014FF013
:103BE00000024FF0000301F0FDFB4FF0050344E03D
:103BF0004FF4A840C4F200004FF00401C1F20001EC
:103C000003F03EFC0346012BCDD14FF4A840C4F293
:103C100000004FF0010103F05FFB4FF4A840C4F235
:103C2000000003F0E7FB03461A46BB681A70BB6846
:103C300003F10103BB604FF4A840C4F2000003F09D
:103C4000D9FB03461A46BB681A704FF4A840C4F269
:103C500000004FF0010103F07DFB42F66853C2F211
:103C600000031B6818464FF000014FF000024FF0B0
:103C7000000301F0B7FB4FF00003184607F11807E7
:103C8000BD4680BD80B586B000AFB9601346024620
:103C9000FA81FB8042F210737B6142F66853C2F2F4
:103CA00000031B6818464FF000014FF0FF324FF041
:103CB000000301F0B1FC4FF000037B824FF4A840F9
:103CC000C4F200004FF0010103F0E6FA42F2107373
:103CD0007B6124E07B69002B14BF00230123DBB24E
:103CE0007A6902F1FF327A61002B18D04FF4A840B4
:103CF000C4F200004FF0010103F0EEFA42F66853FF
:103D0000C2F200031B6818464FF000014FF000029A
:103D10004FF0000301F066FB4FF0050332E14FF472
:103D2000A840C4F200004FF00101C0F2030103F00B
:103D30006FFB0346002BCDD04FF4A840C4F2000027
:103D40004FF0A0014FF0000203F0E6FA42F21073C8
:103D50007B6124E07B69002B14BF00230123DBB2CD
:103D60007A6902F1FF327A61002B18D04FF4A84033
:103D7000C4F200004FF0010103F0AEFA42F66853BE
:103D8000C2F200031B6818464FF000014FF000021A
:103D90004FF0000301F026FB4FF00503F2E04FF473
:103DA000A840C4F200004FF08201C0F2070103F006
:103DB0002FFB0346002BCDD0FB894FEA13239BB288
:103DC000DBB24FF4A840C4F20000194603F002FB36
:103DD00042F210737B6124E07B69002B14BF002347
:103DE0000123DBB27A6902F1FF327A61002B18D02D
:103DF0004FF4A840C4F200004FF0010103F06CFA48
:103E000042F66853C2F200031B6818464FF00001E7
:103E10004FF000024FF0000301F0E4FA4FF0050309
:103E2000B0E04FF4A840C4F200004FF08401C0F2AB
:103E3000070103F0EDFA0346002BCDD0FB89DBB27E
:103E40004FF4A840C4F20000194603F0C3FA42F24E
:103E500010737B6124E07B69002B14BF00230123D6
:103E6000DBB27A6902F1FF327A61002B18D04FF48D
:103E7000A840C4F200004FF0010103F02DFA42F611
:103E80006853C2F200031B6818464FF000014FF060
:103E900000024FF0000301F0A5FA4FF0050371E0B6
:103EA0004FF4A840C4F200004FF08401C0F20701B3
:103EB00003F0AEFA0346002BCDD04FF000037B8217
:103EC00044E07B8ABA68D3181B784FF4A840C4F248
:103ED0000000194603F07EFA42F210737B6124E081
:103EE0007B69002B14BF00230123DBB27A6902F146
:103EF000FF327A61002B18D04FF4A840C4F20000C2
:103F00004FF0010103F0E8F942F66853C2F20003F2
:103F10001B6818464FF000014FF000024FF00003FD
:103F200001F060FA4FF005032CE04FF4A840C4F212
:103F300000004FF08401C0F2070103F069FA034664
:103F4000002BCDD07B8A03F101037B827A8AFB8828
:103F50009A42B6D34FF4A840C4F200004FF00101DA
:103F600003F0BAF942F66853C2F200031B68184620
:103F70004FF000014FF000024FF0000301F032FA61
:103F80004FF00003184607F11807BD4680BD00BF7B
:103F900080B584B000AF78604FF00003FB8107F17B
:103FA000040318464FF00401FDF7A8FD0346FB810A
:103FB00007F104034FF0000019464FF00402FFF729
:103FC00061FE0346002B02D04FF0040310E007F11E
:103FD0000E034FF02A0019464FF00202FFF752FE7F
:103FE0000346002B02D04FF0040301E04FF0000322
:103FF000184607F11007BD4680BD00BF80B487B0EA
:1040000000AF786039604FF000037B614FF0000330
:104010003B614FF00003FB604FF000037B618FE0DA
:104020007B694FF0010202FA03F33B613B681A68B7
:104030003B6902EA0303FB60FA683B699A427BD161
:104040007B681B681A467B694FEA43034FF0030104
:1040500001FA03F36FEA03031A407B681A607B6876
:104060001B681A463B681B7919467B694FEA430374
:1040700001FA03F31A437B681A603B681B79012B32
:1040800003D03B681B79022B38D17B689B681A46AA
:104090007B694FEA43034FF0030101FA03F36FEA30
:1040A00003031A407B689A607B689B681A463B68EA
:1040B0005B7919467B694FEA430301FA03F31A431C
:1040C0007B689A607B685B681A467B699BB24FF09D
:1040D000010101FA03F36FEA03031A407B685A6097
:1040E0007B685B681A463B689B7919467B699BB283
:1040F00001FA03F39BB21A437B685A607B68DB6862
:104100001A467B699BB24FEA43034FF0030101FA61
:1041100003F36FEA03031A407B68DA607B68DB68AD
:104120001A463B68DB7919467B694FEA430301FA7B
:1041300003F31A437B68DA607B6903F101037B6157
:104140007B690F2B7FF66CAF07F11C07BD4680BC67
:10415000704700BF80B485B000AF78600B467B80AD
:104160004FF00003FB737B681B691A467B8802EAE9
:104170000303002B03D04FF00103FB7302E04FF069
:104180000003FB73FB7B184607F11407BD4680BC98
:10419000704700BF80B485B000AF786013460A4610
:1041A0007A807B704FF00003FB604FF00003BB6030
:1041B0007A787B8803F007034FEA830302FA03F35C
:1041C000FB607B884FEAD3039BB21A467B884FEA99
:1041D000D3039BB219467B6801F1080153F82130E3
:1041E00019467B8803F007034FEA83034FF00F0063
:1041F00000FA03F36FEA030319407B6802F1080237
:1042000043F822107B884FEAD3039BB21A467B689F
:1042100002F1080253F822301A46FB6842EA03030F
:10422000BB607B884FEAD3039BB21A467B6802F1DE
:104230000802B96843F8221007F11407BD4680BC94
:10424000704700BF80B588B000AF0346FB804FF0D9
:104250000003FB834FF004004FF00101FDF72AFE3D
:1042600040F2A403C2F200031A6841F25973CDF27E
:10427000B713A3FB02134FEA93339BB203F1FF334F
:10428000FB83FB887B61FB8B3B824FF000033B830E
:104290004FF000037B8207F110034FF40060C4F27B
:1042A0000000194604F012FB4FF40060C4F2000055
:1042B0004FF0010104F0B2FB4FF4407003F07CFDBD
:1042C0004FF01E033B734FF00E037B734FF001035F
:1042D000BB734FF00103FB7307F10C03184603F0A7
:1042E0007FFD4FF40060C4F200004FF0010104F0C4
:1042F000D9FC4FF40060C4F200004FF001014FF010
:10430000000204F097FC4FF40060C4F200004FF08C
:10431000000104F0A3FB4FF00103184607F120074A
:10432000BD4680BD80B500AF4FF40060C4F2000010
:104330004FF0010104F0B6FC4FF40060C4F200003D
:104340004FF001014FF0010204F074FC4FF40060E3
:10435000C4F200004FF0000104F052FB4FF4006083
:10436000C4F200004FF0010104F078FB80BD00BFF3
:1043700080B500AF4FF40060C4F200004FF00001C0
:1043800004F06CFB4FF40060C4F200004FF0000139
:1043900004F036FB4FF40060C4F200004FF001015E
:1043A0004FF0000204F046FC4FF40060C4F200003D
:1043B0004FF0010104F076FC80BD00BF98B500AF5E
:1043C0004FF40060C4F200004FF0010104F06AFCF9
:1043D00040F2E013C2F200031B689C6A40F2E01353
:1043E000C2F200031B6803F1680140F2E013C2F25D
:1043F00000031B6803F1500240F2E013C2F2000315
:104400001B6803F16403084611461A46A04798BD8D
:1044100080B483B000AF786040F2E013C2F20003D2
:104420007A681A6040F2E013C2F200031B684FF092
:1044300000021A6640F2E013C2F200031A6844F266
:104440007133C0F60003D36540F2E013C2F20003FB
:104450001A6844F22533C0F60003936540F2E01376
:10446000C2F200031B684FF000025A6540F2E013ED
:10447000C2F200031A6844F24523C0F60003136534
:1044800007F10C07BD4680BC704700BF80B588B0FF
:1044900000AF0346FB804FF00003FB834FF00800A2
:1044A0004FF00101FDF706FD40F2A403C2F2000344
:1044B0001A6841F25973CDF2B713A3FB02134FEA06
:1044C00093339BB203F1FF33FB83FB887B61FB8B50
:1044D0003B824FF000033B834FF000037B8207F1E8
:1044E00010034FF44060C4F20000194604F0EEF9E6
:1044F0004FF44060C4F200004FF0010104F08EFA66
:104500004FF4407003F058FC4FF032033B734FF010
:104510000E037B734FF00103BB734FF00103FB737A
:1045200007F10C03184603F05BFC4FF44060C4F243
:1045300000004FF0010104F0B5FB4FF44060C4F2FD
:1045400000004FF001014FF0000204F073FB4FF444
:104550004060C4F200004FF0000104F07FFA4FF019
:104560000103184607F12007BD4680BD80B500AFA6
:104570004FF44060C4F200004FF0010104F092FBE0
:104580004FF44060C4F200004FF001014FF001020F
:1045900004F050FB4FF44060C4F200004FF0000103
:1045A00004F02EFA4FF44060C4F200004FF0010115
:1045B00004F054FA80BD00BF80B500AF4FF44060F6
:1045C000C4F200004FF0000104F048FA4FF44060DC
:1045D000C4F200004FF0000104F012FA4FF4406002
:1045E000C4F200004FF001014FF0000204F022FB82
:1045F0004FF44060C4F200004FF0010104F052FBA0
:1046000080BD00BF98B500AF4FF44060C4F2000019
:104610004FF0010104F046FB40F2E413C2F2000344
:104620001B689C6A40F2E413C2F200031B6803F1AA
:10463000680140F2E413C2F200031B6803F1500268
:1046400040F2E413C2F200031B6803F1640308465E
:1046500011461A46A04798BD80B483B000AF786079
:1046600040F2E413C2F200037A681A6040F2E413E5
:10467000C2F200031B684FF000021A6640F2E41316
:10468000C2F200031A6844F2B953C0F60003D365BE
:1046900040F2E413C2F200031A6844F26D53C0F60C
:1046A0000003936540F2E413C2F200031B684FF06D
:1046B00000025A6540F2E413C2F200031A6844F2A1
:1046C0008D43C0F60003136507F10C07BD4680BC9F
:1046D000704700BF90B587B000AFF860B960FA715D
:1046E000BB714FF00003FB75FBF74EFDFB685C6888
:1046F000BA7997F82C301046B96A4FF00802A047F3
:104700000346012B03D04FF00303FB751DE0BB6A8A
:10471000B3F5964F03D94FF023033B6109E0BB6A21
:104720004FEA430247F6A073C0F21703B3FBF2F35C
:104730003B61BB681B683A6992B2104698470346D2
:10474000012B02D04FF00303FB75FBF723FDFB7D2C
:10475000184607F11C07BD4690BD00BF80B584B068
:1047600000AFF860B9607A60FBF70EFDFB684FF0B0
:1047700000025A70BB681B684FF001004FF0000147
:1047800098477B689B689847FBF704FD07F1100783
:10479000BD4680BD80B582B000AF78603960FBF760
:1047A000F3FC7B681B684FF000004FF00001984756
:1047B0003B68DB689847FBF7EDFC07F10807BD464F
:1047C00080BD00BF80B586B000AFF860B9607A6088
:1047D0003B604FF00003BB754FF00003FB75FBF728
:1047E000D3FCFB68B3F80A319BB2032B26D9FB68D4
:1047F00003F10202FB68B3F80A319BB21046194676
:10480000FDF77CF90346002B18D1FB689B78DAB2E0
:10481000BB681A70FB68B3F80A319BB2A3F10303BB
:104820009AB23B681A80FB6803F1020303F10102AC
:104830007B681A604FF00103BB7502E04FF005037F
:10484000FB75FBF7A7FCFB7D184607F11807BD4673
:1048500080BD00BF80B586B000AFF860B9603B6036
:104860001346FB714FF00003FB75FBF78DFCFB68F3
:104870005B78DBB2012B55D13B6803F1FF32FB685B
:10488000C3F80421FB684FF00102A3F80821FB687C
:10489000D3F80431FA791A70FB68B3F808319AB288
:1048A0003B8CD3189AB2FB68A3F80821FB68D3F8B5
:1048B0000421FB68B3F808319BB210461946FDF796
:1048C0001DF90346BB82FB68B3F808319BB21A4658
:1048D000B98AC9B2F8688218917003F101039AB2DB
:1048E000FB68A3F80821FB68B3F808319BB21A46AD
:1048F000B98A4FEA112189B2C9B2F8688218917059
:1049000003F101039AB2FB68A3F80821FB684FF09A
:1049100001021A70BB681B684FF000004FF00101E4
:10492000984702E04FF00503FB75FBF733FCFB7D76
:10493000184607F11807BD4680BD00BF80B586B098
:1049400000AFF860B9607A604FF00003FB757B68D8
:10495000DB6807F1160210469847FB685B78DBB20C
:10496000032B4DD801A252F823F000BF7D49000867
:104970008D490008C549000885490008BB689B6847
:1049800098473DE0BB689B68984739E0FB684FF06B
:104990000002A3F80A21FB68B3F80A319BB21A4659
:1049A000B97DF8688218917003F101039AB2FB682F
:1049B000A3F80A21FB684FF002025A70BB689B689B
:1049C00098471DE0FB68B3F80A319BB2FF2B0FD864
:1049D000FB68B3F80A319BB21A46B97DF8688218B1
:1049E000917003F101039AB2FB68A3F80A2103E076
:1049F000FB684FF003025A70BB689B68984700BF82
:104A0000FB7D184607F11807BD4680BD80B586B00E
:104A100000AFF860B9607A604FF00003FB75FB6887
:104A20001B78DBB2002B02D0012B08D040E0BB6822
:104A30001B684FF001004FF00001984738E0FB6819
:104A4000B3F808319BB2002B1DD0BB689B68FA6895
:104A5000D2F804211278D2B2D2B252B2104698479C
:104A6000FB68D3F8043103F10102FB68C3F80421A9
:104A7000FB68B3F808319BB203F1FF339AB2FB68CD
:104A8000A3F8082114E007F1040318464FF00301CE
:104A9000FCF7EEFA0346FB75BB681B684FF001009C
:104AA0004FF000019847FB684FF000021A7000BFFA
:104AB000FB7D184607F11807BD4680BD80B586B05E
:104AC00000AFF860B9607A604FF00003FB75FB68D7
:104AD0005B78DBB2022B0BD0032B11D0002B10D153
:104AE00078684FF00001FCF7C3FA0346FB7508E055
:104AF00078684FF00101FCF7BBFA0346FB7500E054
:104B000000BFBB68DB689847FB684FF001025A7032
:104B1000FB7D184607F11807BD4680BD80B483B001
:104B200000AF78607B6803F108031A467B685A601F
:104B30007B684FF0FF329A607B6803F108031A46E6
:104B40007B68DA607B6803F108031A467B681A61A8
:104B50007B684FF000021A6007F10C07BD4680BC6D
:104B6000704700BF80B483B000AF78607B684FF0BF
:104B700000021A6107F10C07BD4680BC704700BFF8
:104B800080B485B000AF786039607B685B68FB609B
:104B90003B68FA685A60FB689A683B689A60FB68F1
:104BA0009B683A685A60FB683A689A603B687A6822
:104BB0001A617B681B6803F101027B681A6007F1C8
:104BC0001407BD4680BC704780B485B000AF7860E4
:104BD00039603B681B68BB60BB68B3F1FF3F03D122
:104BE0007B681B69FB600DE07B6803F10803FB60D9
:104BF00002E0FB685B68FB60FB685B681A68BB6887
:104C00009A42F6D9FB685A683B685A603B685B6811
:104C10003A689A603B68FA689A60FB683A685A603A
:104C20003B687A681A617B681B6803F101027B6844
:104C30001A6007F11407BD4680BC704780B485B088
:104C400000AF78607B681B69FB607B685B687A6893
:104C500092689A607B689B687A6852685A60FB68C1
:104C60005A687B689A4203D17B689A68FB685A60ED
:104C70007B684FF000021A61FB681B6803F1FF328A
:104C8000FB681A60FB681B68184607F11407BD46ED
:104C900080BC704780B500AF4FF46053C4F202038C
:104CA0004FF46052C4F20202126842F001021A602C
:104CB0004FF46053C4F202034FF000029A604FF4C5
:104CC0006053C4F202034FF46052C4F2020212684D
:104CD00022F0847222F480321A604FF46053C4F2DE
:104CE000020343F21002C2F200425A604FF46053D2
:104CF000C4F202034FF46052C4F20202126822F4BA
:104D000080221A604FF46053C4F202034FF0000295
:104D1000DA6000F009F84FF46D43CEF200034FF073
:104D200000629A6080BD00BF80B483B000AF4FF0D6
:104D300000037B604FF000033B604FF46053C4F20C
:104D400002034FF46052C4F20202126842F480324D
:104D50001A604FF46053C4F202031B6803F400337B
:104D60003B607B6803F101037B603B68002B03D150
:104D70007B68B3F5A06FECD14FF46053C4F202032B
:104D80001B6803F40033002B03D04FF001033B609A
:104D900002E04FF000033B603B68012B46D14FF42B
:104DA0006053C4F202034FF46052C4F202029268EC
:104DB0009A604FF46053C4F202034FF46052C4F29D
:104DC000020292689A604FF46053C4F202034FF4F7
:104DD0006052C4F2020292689A604FF47053C4F2B7
:104DE00002034FF4E0621A604FF46053C4F202030E
:104DF0004FF46052C4F20202926822F003029A60F9
:104E00004FF46053C4F202034FF46052C4F2020242
:104E1000926842F001029A6000BF4FF46053C4F2FE
:104E200002039B6803F00C03042BF6D107F10C0777
:104E3000BD4680BC704700BF80B485B000AFF8604D
:104E4000B9607A60FB68A3F10403FB60FB684FF074
:104E500080721A60FB68A3F10403FB60BA68FB6808
:104E60001A60FB68A3F10403FB6044F69D63C0F67F
:104E70000003FA681360FB68A3F11403FB607A680F
:104E8000FB681A60FB68A3F12003FB60FB6818460F
:104E900007F11407BD4680BC704700BF80B500AF66
:104EA00040F2B803C2F200031B68B3F1FF3F02D027
:104EB00000F008F9FEE700F005F9FEE7074B196876
:104EC0000868B0E8F00F80F30988BFF36F8F4FF0E8
:104ED000000080F311884EF00D0E7047E4000020B2
:104EE00006480068006880F3088862B661B6BFF3C0
:104EF0004F8FBFF36F8F00DF00BF000008ED00E0B1
:104F000080B584B000AF4FF46443CEF20003FB6081
:104F1000FB681B78DBB2BB60FB684FF0FF021A70C6
:104F2000FB681B78DBB2FB71FB79DBB203F050034B
:104F3000DAB240F2E813C2F200031A7040F2EC1346
:104F4000C2F200034FF007021A6011E040F2EC13C6
:104F5000C2F200031B6803F1FF3240F2EC13C2F20D
:104F600000031A60FB79DBB24FEA4303DBB2FB714B
:104F7000FB79DBB2DBB25BB2002BE7DB40F2EC1378
:104F8000C2F200031B684FEA032240F2EC13C2F2A4
:104F900000031A6040F2EC13C2F200031B6803F432
:104FA000E06240F2EC13C2F200031A60BB68DAB2AE
:104FB000FB681A704EF62053CEF200034EF62052D4
:104FC000CEF20002126842F470021A604EF62053CC
:104FD000CEF200034EF62052CEF20002126842F0EA
:104FE00070421A6000F0B4F840F2B803C2F2000355
:104FF0004FF000021A60FFF773FFFFF74FFF4FF00B
:105000000003184607F11007BD4680BD80B400AF0D
:105010004EF60453CEF200034FF080521A60BFF3F5
:105020004F8FBFF36F8FBD4680BC704780B500AF18
:1050300000F048F840F2B803C2F200031B6803F125
:10504000010240F2B803C2F200031A60BFF34F8FAF
:10505000BFF36F8F40F2B803C2F200031B68012B4D
:105060000BD14EF60453CEF200031B6803F0FF038E
:10507000002B02D000F026F8FEE780BD80B500AF1F
:1050800040F2B803C2F200031B68002B02D100F00B
:1050900019F8FEE740F2B803C2F200031B6803F1FF
:1050A000FF3240F2B803C2F200031A6040F2B803C4
:1050B000C2F200031B68002B03D14FF0000000F088
:1050C0000BF880BDEFF311804FF0500181F3118890
:1050D00070474FF00003184680F31188704700BFF7
:1050E000EFF30980BFF36F8F0D4B1A6820E9F00FC3
:1050F00010602DE908404FF0500080F31188FDF753
:10510000CDFC4FF0000080F31188BDE8084019681D
:105110000868B0E8F00F80F30988BFF36F8F70471D
:10512000E400002080B500AFFFF7CCFFFDF7B4FB33
:105130000346002B06D04EF60453CEF200034FF088
:1051400080521A604FF00000FFF7C6FF80BD00BF1D
:1051500080B400AF4EF21403CEF2000344F61F6297
:105160001A604EF21003CEF200034FF007021A60ED
:10517000BD4680BC704700BF90B583B000AFEFF371
:1051800005847C607B680F2B13D94AF29413C0F618
:1051900000031A687B68D3181B78FB7040F2E81391
:1051A000C2F200031B78FA789A4202D2FFF78AFF14
:1051B000FEE74EF60C53CEF200031B6803F4E062E8
:1051C00040F2EC13C2F200031B689A4202D9FFF7C7
:1051D00079FFFEE707F10C07BD4690BD80B584B0AE
:1051E00000AF786039607B68FB60FB68002B02D100
:1051F000FFF768FFFEE7FFF719FFFB681A68FB6817
:10520000DB6BF968096C01FB03F3D218FB685A6089
:10521000FB684FF000029A63FB681A68FB689A60AB
:10522000FB681A68FB68DB6B03F1FF33F968096CF4
:1052300001FB03F3D218FB68DA60FB684FF0FF3222
:105240005A64FB684FF0FF329A643B68002B0FD121
:10525000FB681B69002B17D0FB6803F1100318468D
:10526000FDF71EFD0346012B0ED1FFF7CFFE0BE02D
:10527000FB6803F110031846FFF750FCFB6803F1CD
:1052800024031846FFF74AFCFFF7F8FE4FF001032E
:10529000184607F11007BD4680BD00BF80B588B035
:1052A00000AFF860B9601346FB714FF00003BB61BB
:1052B000FB68002B02D1FFF705FFFEE7BB68002B60
:1052C00003D14FF00003FB6106E0FB68BA6802FB04
:1052D00003F303F10103FB61FB6903F14C0318467F
:1052E00003F070F903467B617B69002B1AD07B6960
:1052F0003B61BB68002B03D13A693B691A6004E04B
:105300007B6903F14C023B691A603B69FA68DA6316
:105310003B69BA681A6438694FF00101FFF75EFF14
:105320003B69BB61BB69002B02D1FFF7CBFEFEE7F7
:10533000BB69184607F12007BD4680BD80B584B023
:1053400000AF0346FB714FF04C0003F03BF90346FE
:10535000FB60FB68002B38D0FB684FF000025A60FE
:10536000FB684FF000021A60FB684FF000029A6081
:10537000FB684FF00002DA60FB684FF000029A63AE
:10538000FB684FF00102DA63FB684FF000021A6419
:10539000FB684FF0FF325A64FB684FF0FF329A64AB
:1053A000FB6803F110031846FFF7B8FBFB6803F135
:1053B00024031846FFF7B2FBF8684FF000014FF0E6
:1053C00000024FF0000300F00DF8FB68002B02D143
:1053D000FFF778FEFEE7FB68184607F11007BD46A9
:1053E00080BD00BF80B58AB000AFF860B9607A6058
:1053F0003B604FF000037B62FB683B623B6A002B23
:1054000002D1FFF75FFEFEE7BB68002B03D13B6ACA
:105410001B6C002B02D14FF0010301E04FF00003A1
:10542000002B02D1FFF74EFEFEE73B68022B03D1B3
:105430003B6ADB6B012B02D14FF0010301E04FF01F
:105440000003002B03D1FFF73DFEFEE700BFFFF78F
:10545000EDFD3B6A9B6B1A463B6ADB6B9A4202D3BB
:105460003B68022B1FD1386AB9683A6800F0B0F97E
:10547000F8613B6A5B6A002B0BD03B6A03F12403A3
:105480001846FDF70DFC0346012B07D1FFF7BEFDC3
:1054900004E0FB69002B01D0FFF7B8FDFFF7EEFD3C
:1054A0004FF001035DE07B68002B04D1FFF7E6FDC0
:1054B0004FF0000355E07B6A002B07D107F114037E
:1054C0001846FDF75DFC4FF001037B62FFF7D6FD48
:1054D000FDF714F9FFF7AAFD3B6A5B6CB3F1FF3FE0
:1054E00003D13B6A4FF000025A643B6A9B6CB3F1F4
:1054F000FF3F03D13B6A4FF000029A64FFF7BEFD05
:1055000007F1140207F1040310461946FDF754FC95
:105510000346002B1ED1386A00F060FA0346002BC8
:1055200012D03B6A03F110027B6810461946FDF762
:105530005BFB386A00F0E8F9FDF7F2F80346002B50
:1055400084D1FFF763FD82E7386A00F0DDF9FDF7EB
:10555000E7F87CE7386A00F0D7F9FDF7E1F84FF09B
:105560000003184607F12807BD4680BD80B586B008
:1055700000AF786039607B683B613B69002B02D1EA
:10558000FFF7A0FDFEE73B691B6C002B02D0FFF785
:1055900099FDFEE7FFF7F0FDFFF794FDF8603B692A
:1055A0009B6B1A463B69DB6B9A4229D23B699B6B2A
:1055B00003F101023B699A633B699B6CB3F1FF3FC6
:1055C00014D13B695B6A002B16D03B6903F12403BD
:1055D0001846FDF765FB0346002B0DD03B68002BFA
:1055E0000AD03B684FF001021A6005E03B699B6CF2
:1055F00003F101023B699A644FF001037B6102E011
:105600004FF000037B61F868FFF766FD7B69184681
:1056100007F11807BD4680BD80B58AB000AFF860BD
:10562000B9607A603B604FF000037B62FB683B62CD
:105630003B6A002B02D1FFF745FDFEE7BB68002B5C
:1056400003D13B6A1B6C002B02D14FF0010301E038
:105650004FF00003002B03D1FFF734FDFEE700BF3E
:10566000FFF7E4FC3B6A9B6B002B40D03B6ADB6896
:10567000FB61386AB96800F01FF93B68002B1FD145
:105680003B6A9B6B03F1FF323B6A9A633B6A1B6880
:10569000002B05D1FDF7F2FE03461A463B6A5A601D
:1056A0003B6A1B69002B1DD03B6A03F110031846AF
:1056B000FDF7F6FA0346012B14D1FFF7A7FC11E022
:1056C0003B6AFA69DA603B6A5B6A002B0AD03B6A84
:1056D00003F124031846FDF7E3FA0346002B01D03B
:1056E000FFF794FCFFF7CAFC4FF001036BE07B6807
:1056F000002B04D1FFF7C2FC4FF0000363E07B6A8C
:10570000002B07D107F114031846FDF739FB4FF0C2
:1057100001037B62FFF7B2FCFCF7F0FFFFF786FCAA
:105720003B6A5B6CB3F1FF3F03D13B6A4FF0000271
:105730005A643B6A9B6CB3F1FF3F03D13B6A4FF065
:1057400000029A64FFF79AFC07F1140207F10403C0
:1057500010461946FDF730FB0346002B2CD1386A62
:1057600000F022F90346002B20D03B6A1B68002B77
:1057700008D1FFF75BFC3B6A5B681846FDF750FDFC
:10578000FFF77CFC3B6A03F124027B681046194654
:10579000FDF72AFA386A00F0B7F8FCF7C1FF0346B4
:1057A000002B7FF45CAFFFF731FC59E7386A00F05B
:1057B000ABF8FCF7B5FF53E7386A00F0A5F8FCF743
:1057C000AFFF4FF00003184607F12807BD4680BD24
:1057D00080B586B000AFF860B9607A604FF0000322
:1057E0007B61FB681B6C002B0ED1FB681B68002BD8
:1057F00056D1FB685B681846FDF7B6FD7861FB681B
:105800004FF000025A604BE07B68002B1AD1FB6816
:105810009A68FB681B6C1046B9681A4604F09AFA3D
:10582000FB689A68FB681B6CD218FB689A60FB687F
:105830009A68FB685B689A4232D3FB681A68FB6817
:105840009A602DE0FB68DA68FB681B6C1046B9684B
:105850001A4604F07FFAFB68DA68FB681B6CC3F138
:105860000003D218FB68DA60FB68DA68FB681B6823
:105870009A4208D2FB685A68FB681B6CC3F10003AC
:10588000D218FB68DA607B68022B09D1FB689B6B3E
:10589000002B05D0FB689B6B03F1FF32FB689A631A
:1058A000FB689B6B03F10102FB689A637B691846F6
:1058B00007F11807BD4680BD80B582B000AF7860A3
:1058C00039607B681B6C002B19D07B68DA687B68B9
:1058D0001B6CD2187B68DA607B68DA687B685B686F
:1058E0009A4203D37B681A687B68DA607B68DA685F
:1058F0007B681B6C386811461A4604F02BFA07F1D6
:105900000807BD4680BD00BF80B582B000AF78609B
:10591000FFF78CFB14E07B685B6A002B15D07B687B
:1059200003F124031846FDF7BBF90346002B01D011
:10593000FDF79AFA7B689B6C03F1FF327B689A64EF
:105940007B689B6C002BE6DC00E000BF7B684FF0BF
:10595000FF329A64FFF792FBFFF768FB14E07B6865
:105960001B69002B15D07B6803F110031846FDF767
:1059700097F90346002B01D0FDF776FA7B685B6C44
:1059800003F1FF327B685A647B685B6C002BE6DCBA
:1059900000E000BF7B684FF0FF325A64FFF76EFBF8
:1059A00007F10807BD4680BD80B584B000AF7860C0
:1059B000FFF73CFB7B689B6B002B03D14FF001038F
:1059C000FB6002E04FF00003FB60FFF757FBFB6852
:1059D000184607F11007BD4680BD00BF80B584B0F2
:1059E00000AF7860FFF722FB7B689B6B1A467B68F1
:1059F000DB6B9A4203D14FF00103FB6002E04FF0F2
:105A00000003FB60FFF73AFBFB68184607F110073D
:105A1000BD4680BD80B483B000AF0346FB714FF438
:105A20006143CEF2000397F907204FEA5212F97949
:105A300001F01F014FF0010000FA01F143F82210BC
:105A400007F10C07BD4680BC704700BF90B583B01E
:105A500000AF02460B46FA71BB71FB79012B26D1D0
:105A60004FF49040C4F2000040F225514FF0010283
:105A7000FBF77CFC4FF48063C4F202034FF48062B6
:105A8000C4F20202528B92B242F0020292B25A83E4
:105A90004FF48063C4F202034FF48062C4F2020246
:105AA000528B92B242F0040292B25A8325E04FF434
:105AB0009040C4F2000040F225514FF00002FBF785
:105AC00055FC4FF48063C4F202034FF48062C4F2C9
:105AD0000202128B92B242F0020292B21A834FF487
