:020000040800F2
:10000000C4350020C115000829160008291600086B
:10001000291600082916000829160008000000000B
:100020000000000000000000000000005D4F00081C
:10003000291600080000000081510008C551000881
:1000400029160008719600082916000829160008CC
:100050002916000829160008291600082916000884
:100060002916000829160008291600082916000874
:100070002916000829160008291600082916000864
:100080002916000829160008291600082916000854
:100090002916000829160008291600082916000844
:1000A0002916000829160008291600082916000834
:1000B000397F000829160008ED44000829160008B9
:1000C0002916000829160008291600082916000814
:1000D000291600082916000829160008B55D000831
:1000E00029160008291600082916000829160008F4
:1000F00029160008291600082916000829160008E4
:100100002916000829160008354700082916000896
:1001100029160008291600082916000829160008C3
:1001200029160008291600082916000829160008B3
:1001300029160008291600082916000829160008A3
:100140002916000829160008291600082916000893
:10015000291600082916000829160008B9600008A9
:100160002916000829160008291600082916000873
:100170002916000829160008291600082916000863
:10018000291600082916000880B400AFBD4680BCBF
:10019000704700BF80B400AFBD4680BC704700BF51
:1001A00080B594B000AF786013460A467A803B80F1
:1001B0004FF0000387F84F30634B1B6818464FF031
:1001C00000014FF0FF324FF0000305F075FA07F120
:1001D00008035E4A12681A6007F1080303F104037A
:1001E0005A4A52681A6007F1080303F10803574A94
:1001F000D2E9020102461A6007F1080303F10C0379
:10020000524AD2E9040102461A6007F1080303F1D9
:1002100010034E4A92691A6007F1080303F11403B0
:100220004A4AD2691A6007F1080303F11803474AE2
:10023000926A1A6007F1080303F11C03434AD26A69
:100240001A6007F1080303F12003404A526A1A605A
:1002500007F1080303F124033C4A126A1A6007F10C
:10026000080303F12803394A926B1A6007F1080367
:1002700003F12C03354AD26B1A6007F1080303F12E
:100280003003324A526B1A6007F1080303F134035A
:100290002E4A126B1A602C4B1B6818464FF0000157
:1002A0004FF000024FF0000305F0ECF8284B1B78EC
:1002B0007A889A423DD37A883B88D218244B1B789F
:1002C0001946244B1B78CB189A4232DC7A88224B91
:1002D0001B78D31ABB6428E0BB6C4FEA430307F1D9
:1002E0005002D31833F8483C4FEA13239BB2DAB2DA
:1002F0007B681A707B6803F101037B60BB6C4FEA7B
:10030000430307F15002D31833F8483CDAB27B6854
:100310001A707B6803F101037B60BB6C03F101037E
:10032000BB643B8803F1FF333B803B88002BD3D178
:1003300003E04FF0010387F84F3097F84F3018462D
:1003400007F15007BD4680BD7C2D0020802D002088
:1003500000000020020000200400002080B5B8B09A
:1003600000AFF86079813A81FB714FF0000387F8A4
:10037000DF309D4B1B787A899A42C0F076827A8969
:100380003B89D218984B1B781946984B1B78CB1891
:100390009A4200F36A827A89954B1B78D31AC7F880
:1003A000D830FB79002B03D0012B00F058825BE2A0
:1003B00007F154034FF00000194608F0A7FA07F1BF
:1003C00050034FF00000194608F098FB97F856309C
:1003D000A7F8583097F85530A7F85A3097F85430A6
:1003E000A7F85C3097F85230A7F85E3097F8513094
:1003F000A7F8603097F85330A7F8623097F850307C
:10040000A7F8643007F1580303F10E03794A126824
:100410001A602CE0D7F8D8304FEA430307F1E00226
:10042000D31833F8883C4FEA13239BB2DAB2FB6847
:100430001A70FB6803F10103FB60D7F8D8304FEA6C
:10044000430307F1E002D31833F8883CDAB2FB68C3
:100450001A70FB6803F10103FB60D7F8D83003F191
:100460000103C7F8D8303B8903F1FF333B813B8957
:10047000002BCFD1F8E1D7F8D830072B00F2EA8172
:1004800001A252F823F000BFA904000815050008D6
:1004900081050008F905000861060008C906000882
:1004A00031070008970700084FF00003A7F84E3007
:1004B00007F148034FF00000194608F027FA07F14A
:1004C0004E0303F10103FA6812781A70FB6803F116
:1004D0000103FB6007F14E03FA6812781A70FB689B
:1004E00003F10103FB60B7F84E30DBB287F84A3006
:1004F00007F148034FF00000194608F061F9D7F8FA
:10050000D83003F10103C7F8D8303B8903F1FF333A
:100510003B81A4E14FF00003A7F8463007F1400308
:100520004FF00000194608F0F1F907F1460303F116
:100530000103FA6812781A70FB6803F10103FB608B
:1005400007F14603FA6812781A70FB6803F1010399
:10055000FB60B7F84630DBB287F8413007F1400363
:100560004FF00000194608F02BF9D7F8D83003F106
:100570000103C7F8D8303B8903F1FF333B816EE1BB
:100580004FF00003FB8707F138034FF000001946D6
:1005900008F0BCF907F13E0303F10103FA68127891
:1005A0001A70FB6803F10103FB6007F13E03FA6870
:1005B00012781A70FB6803F10103FB60FB8FDBB25A
:1005C00087F8383007F138034FF00000194608F07B
:1005D000F7F8D7F8D83003F10103C7F8D8303B89D2
:1005E00003F1FF333B813AE10100002003000020CA
:1005F00005000020782D00204FF00003FB8607F156
:1006000030034FF00000194608F078FA07F136037E
:1006100003F10103FA6812781A70FB6803F1010311
:10062000FB6007F13603FA6812781A70FB6803F171
:100630000103FB60FB8EDBB287F8323007F1300339
:100640004FF00000194608F0B7F9D7F8D83003F199
:100650000103C7F8D8303B8903F1FF333B81FEE04B
:100660004FF00003FB8507F128034FF00000194607
:1006700008F044FA07F12E0303F10103FA68127837
:100680001A70FB6803F10103FB6007F12E03FA689F
:1006900012781A70FB6803F10103FB60FB8DDBB27B
:1006A00087F8293007F128034FF00000194608F0B9
:1006B00083F9D7F8D83003F10103C7F8D8303B8964
:1006C00003F1FF333B81CAE04FF00003FB8407F1E5
:1006D00020034FF00000194608F010FA07F1260336
:1006E00003F10103FA6812781A70FB6803F1010341
:1006F000FB6007F12603FA6812781A70FB6803F1B1
:100700000103FB60FB8CDBB287F8233007F1200389
:100710004FF00000194608F04FF9D7F8D83003F130
:100720000103C7F8D8303B8903F1FF333B8196E0E2
:100730004FF00003FB8307F118034FF00000194648
:1007400008F0DCF907F11E0303F10103FA681278DF
:100750001A70FB6803F10103FB6007F11E03FA68DE
:1007600012781A70FB6803F10103FB60FB8BDBB2AC
:100770003B7607F118034FF00000194608F01CF90A
:10078000D7F8D83003F10103C7F8D8303B8903F11B
:10079000FF333B8163E04FF000037B6107F11403FB
:1007A00003F10103FA6812781A70FB6803F1010380
:1007B000FB6007F11403FA6812781A70FB6803F102
:1007C0000103FB6007F1140303F10303FA681278D5
:1007D0001A70FB6803F10103FB6007F1140303F1D6
:1007E0000203FA6812781A70FB6803F10103FB60D8
:1007F0007A69234B9A4222D97A69224B9A421ED8AF
:10080000214B1B6818464FF000014FF0FF324FF0AC
:10081000000304F051FF7A691C4B1A601B4B1B68E4
:100820003B61194B1B6818464FF000014FF0000266
:100830004FF0000304F026FE386903F041FCD7F8BE
:10084000D83003F10203C7F8D8303B89A3F1020383
:100850003B8104E03B8903F1FF333B8100BF3B89CF
:10086000002B7FF408AE00BF03E04FF0010387F8D0
:10087000DF3097F8DF30184607F1E007BD4680BD4E
:1008800017293101E8303101C02D0020782D0020DA
:1008900080B485B000AFF86079813A81FB714FF088
:1008A0000103184607F11407BD4680BC704700BF1E
:1008B00080B483B000AF786013460A467A803B80EC
:1008C0004FF00103184607F10C07BD4680BC704786
:1008D00080B598B000AFF860B9601346FB804FF068
:1008E000000387F85F304FF0000387F858304FF06F
:1008F0000003A7F85C304FF00003A7F85A304FF020
:100900000003A7F85C308CE0B7F85C2013464FEA90
:1009100043039B184FEA4303BA68D3181B88002B84
:1009200074D1B7F85C2013464FEA43039B184FEA93
:100930004303BA68D3185B88A7F85A3049E0FB68CC
:100940004FF047021A70FB6803F10103FB60FB687C
:100950004FF006021A70FB6803F10103FB60B7F861
:100960005A2007F110031046194601F065FC0346B2
:1009700087F8583097F85830002B20D14FF00003FB
:1009800087F859304FF0000387F8593012E097F894
:10099000593007F16002D31813F8502CFB681A7015
:1009A000FB6803F10103FB6097F8593003F1010381
:1009B00087F8593097F85930452BE8D903E04FF0C4
:1009C000010387F85F30B7F85A3003F10103A7F845
:1009D0005A30B7F85A10B7F85C2013464FEA430371
:1009E0009B184FEA4303BA68D3185B881846B7F8D8
:1009F0005C2013464FEA43039B184FEA4303BA684F
:100A0000D3189B88C318994299DB04E04FF0010387
:100A100087F85F3000BFB7F85C3003F10103A7F837
:100A20005C30B7F85C20FB889A42FFF46DAF97F812
:100A30005F30184607F16007BD4680BD90B587B0AE
:100A400002AF7860F970BA707B704FF00003FB73EF
:100A50007B684FF0020283F83620BB78002B05D06C
:100A6000BB78002B02D0BB78F72B03D94FF00203E1
:100A7000FB7364E07B68BA7883F83420FB78002B42
:100A800041D17A6844F68D03C0F60003D3607A68DA
:100A900044F6C503C0F6000313617A6844F6851373
:100AA000C0F6000393617A6844F6F503C0F60003CC
:100AB00053617B684FF00002DA617A6844F66D2377
:100AC000C0F6000313627A6844F63D33C0F60003B3
:100AD00053627A6844F6ED33C0F6000393627B6894
:100AE00003F138007B6803F150017B6893F83420F0
:100AF0007B783C6A009497F82440019403F082FECE
:100B00000346FB7302E04FF00203FB73FB7B002BF9
:100B100015D17B6803F16403184600F059FA0346C7
:100B2000002B03D14FF00303FB7308E07B68FA78D6
:100B300083F835207B684FF0010283F83620FB7B79
:100B4000184607F11407BD4690BD00BF80B584B0BC
:100B500000AF78604FF00003FB737B6893F836308A
:100B6000012B11D17B68DB687A6802F168007A6832
:100B700002F138017A6802F1500298477B684FF021
:100B8000000283F8362002E04FF00603FB73FB7B84
:100B9000184607F11007BD4680BD00BFB0B586B04E
:100BA00002AF78604FF00003FB727B6893F8363039
:100BB000002B02D04FF00603CAE07B6803F1640209
:100BC00007F10A031046194600F028FA0346012BE4
:100BD00040F0BC80BB7A032B00F2B88001A252F82F
:100BE00023F000BF4D0D0008F50B0008450C000870
:100BF0004D0D00087B685C697B6803F168007B68C9
:100C000003F104017A687B6803F10603A0470346F9
:100C1000FB72FB7A002B40F094807B681A797B682A
:100C200093F834309A4204D07B681B79002B40F053
:100C30008A807B6803F1640318464FF0020100F0DC
:100C4000D7F983E07B681B681A787B685A717B68E8
:100C50004FF001021A724FF00003FB602DE040F2EA
:100C60000803C2F20003FA6813F83230002B28D0D0
:100C700040F20803C2F20003FA6813F832207B68DE
:100C80005B799A4215D140F20802C2F20002FB6879
:100C90004FEAC303D3185B687A6811687A6802F177
:100CA000060208461146984703461A467B681A72A0
:100CB00008E0FB6803F10103FB60FB68102BCEDD4D
:100CC00000E000BF7B681B79002B3ED07B681B7A5D
:100CD000002B22D07B684FF00002DA807B68196815
:100CE0007B68DB881A468A187968497961F07F0148
:100CF000C9B2117003F101039AB27B68DA807B6894
:100D000019687B68DB881A468A187968097A117035
:100D100003F101039AB27B68DA807B689C697B6887
:100D200003F168007B6803F138017B6893F8342095
:100D30007B681B687D68ED880095A0470346FB72C1
:100D400004E000BF02E000BF00E000BF4FF000037E
:100D5000184607F11007BD46B0BD00BF80B586B08C
:100D600004AF2D4805F06EF82B4803F0E9FB2B4843
:100D700005F0EAF9294803F007FD4FF461430093B9
:100D80004FF00003019324484FF000014FF00A0296
:100D90004FF00003FFF752FE0346FB714FF461432F
:100DA00000934FF0000301931C484FF000014FF0F7
:100DB0000A024FF00003FFF741FE0346FB714FF0BC
:100DC000010300934FF0000301934FF000030293DF
:100DD0004FF000030393124812494FF400724FF092
:100DE000000301F00DFB4FF0010300934FF00003EF
:100DF00001934FF0000302934FF0000303930A485E
:100E00000A494FF400724FF0000301F0F9FA07F1BC
:100E10000807BD4680BD00BFA42B0020302A00205B
:100E2000310E000824A60008690E000834A6000848
:100E300080B582B000AF78600A48FFF787FE4FF0B8
:100E400001004FF0000101F0ABFA0648FFF7A6FEE3
:100E50004FF00A0001F0B0FB4FF0010001F0B8FACA
:100E6000F3E700BFA42B002080B582B000AF78600C
:100E70000A48FFF76BFE4FF000004FF0000101F051
:100E80008FFA0648FFF78AFE4FF00A0001F094FB44
:100E90004FF0000001F09CFAF3E700BF302A002079
:100EA00080B586B000AF786039604FF00003BB7545
:100EB0003B681B88052B40F082807B6803F10103AF
:100EC0001B784FEA0323BB827B6803F102031B7884
:100ED0001A46BB8A42EA0303BB82BB8A03F10103C1
:100EE000BB827B6803F103031B784FEA03237B82F9
:100EF0007B6803F104031B781A467B8A42EA0303EA
:100F00007B827B8A002B56D07A8A40F2CF739A423A
:100F100051D87B68FB603B684FF000021A80FB6889
:100F20004FF002021A70FB6803F10103FB603B689B
:100F30001B8803F101039AB23B681A807B8A03F095
:100F40000703002B08D07B8A4FEAD3039BB2DBB2A6
:100F500003F10103FB7504E07B8A4FEAD3039BB2E4
:100F6000FB75FB68FA7D1A70FB6803F10103FB60F7
:100F70003B681B8803F101039AB23B681A80BA8A66
:100F80007B8AF86811461A46FFF792FC0346FB720B
:100F9000FB7A002B06D0FB7A184600F0EDFA0346E8
:100FA000BB750FE03B681A88FB7D9BB2D3189AB2E1
:100FB0003B681A8006E04FF00303BB7502E04FF078
:100FC0000303BB75BB7D184607F11807BD4680BDFE
:100FD00080B483B000AF78607B684FF000025A7035
:100FE0004FF00103184607F10C07BD4680BC70475F
:100FF00080B483B000AF78600B46FB707B684FF025
:1010000001025A707B68FA781A704FF00103184693
:1010100007F10C07BD4680BC704700BF80B485B0A7
:1010200000AF786039604FF00003FB737B685B783A
:10103000002B0AD07B681A783B681A707B684FF0E7
:1010400000025A704FF00103FB73FB7B184607F157
:101050001407BD4680BC704780B582B000AF786091
:1010600039607B6803F1010240F2E003C2F2000341
:101070001B88104640F2C001C2F200011A4609F076
:10108000B1F940F2E003C2F200031B8803F101034F
:101090009AB23B681A804FF00003184607F1080720
:1010A000BD4680BD80B58AB000AF786039604FF032
:1010B00000037B624FF000033B624FF00003FB61D3
:1010C0004FF00003BB617B681B8A9BB27B627B6A2B
:1010D00023F440537B623B68DB887A6A42EA03036D
:1010E0007B627B6A9AB27B681A827B689B899BB21F
:1010F0007B627B6A23F4B05323F00C037B623B6872
:101100009A883B681B8942EA03039AB23B685B8971
:1011100042EA03039BB27A6A42EA03037B627B6A78
:101120009AB27B689A817B689B8A9BB27B627B6A5E
:1011300023F440737B623B689B897A6A42EA03032B
:101140007B627B6A9AB27B689A8207F10803184631
:1011500000F00AFD7A684FF48053C4F201039A420A
:1011600006D07A684FF4A053C4F201039A4202D128
:101170007B693B6201E03B693B627B689B899BB278
:101180009BB21BB2002B0FDA3A6A13464FEA830375
:101190009B184FEA83029A183B681B684FEA430387
:1011A000B2FBF3F3FB610EE03A6A13464FEA8303A6
:1011B0009B184FEA83029A183B681B684FEA830327
:1011C000B2FBF3F3FB61FA6948F21F53C5F2EB136C
:1011D000A3FB02134FEA53134FEA03137B627B6AAC
:1011E0004FEA13134FF0640202FB03F3FA69D31AB8
:1011F000BB617B689B899BB29BB21BB2002B13DA4D
:10120000BB694FEAC30303F1320248F21F53C5F230
:10121000EB13A3FB02134FEA531303F007037A6A9D
:1012200042EA03037B6212E0BB694FEA031303F156
:10123000320248F21F53C5F2EB13A3FB02134FEA2D
:10124000531303F00F037A6A42EA03037B627B6A5B
:101250009AB27B681A8107F12807BD4680BD00BF9E
:1012600080B483B000AF78600B46FB70FB78002B36
:1012700008D07B689B899BB243F400539AB27B6889
:101280009A8107E07B689B899BB223F400539AB252
:101290007B689A8107F10C07BD4680BC704700BF90
:1012A00080B483B000AF78600B467B807B884FEAC8
:1012B000C3534FEAD3539AB27B689A8007F10C0765
:1012C000BD4680BC704700BF80B483B000AF78607B
:1012D0007B689B889BB24FEAC3534FEAD3539BB2C0
:1012E000184607F10C07BD4680BC704780B487B034
:1012F00000AF786013460A467A807B704FF0000397
:101300003B614FF00003FB604FF00003BB604FF008
:1013100000037B617B687B617B88DBB24FEA531300
:10132000DBB23B617B8803F01F03FB60FB684FF07F
:10133000010202FA03F3BB603B69012B04D17B6914
:1013400003F10C037B610BE03B69022B04D17B6949
:1013500003F110037B6103E07B6903F114037B61FC
:101360007B78002B07D07B697A691168BA6841EAFB
:1013700002021A6008E07B697A691168BA686FEA4C
:10138000020201EA02021A6007F11C07BD4680BC96
:10139000704700BF80B485B000AF78600B467B809B
:1013A0004FF00003FB737B681B889AB27B8802EACC
:1013B00003039BB2002B03D04FF00103FB7302E049
:1013C0004FF00003FB73FB7B184607F11407BD4683
:1013D00080BC704780B483B000AF78600B467B80E0
:1013E0007B886FEA03039AB27B681A8007F10C07C7
:1013F000BD4680BC704700BF80B487B000AF786046
:101400000B467B804FF00003FB604FF000037B61D5
:101410004FF00003BB604FF00003FB747B88DBB22E
:101420004FEA5313DBB2BB607B8803F01F037B6181
:101430007B694FF0010202FA03F37B61BB68012B69
:1014400007D17B689B899BB27A6902EA03037B61BF
:1014500011E0BB68022B07D17B681B8A9BB27A69BB
:1014600002EA03037B6106E07B689B8A9BB27A6990
:1014700002EA03037B617B884FEA13239BB2FB6084
:10148000FB684FF0010202FA03F3FB607B681B88E4
:101490009BB2FA6802EA0303FB607B69002B06D06B
:1014A000FB68002B03D04FF00103FB7402E04FF008
:1014B0000003FB74FB7C184607F11C07BD4680BC8B
:1014C000704700BF80B483B000AF0346FB714FF09C
:1014D0002003C4F20E23FA791A6007F10C07BD4607
:1014E00080BC704780B586B000AF4FF000037B61D1
:1014F0004FF000033B614FF080504FF0010100F0CE
:1015000099FC4FF00100FFF7DDFF4FF0010000F004
:10151000FDFA00BF4FF0410000F016FD0346002B1E
:10152000F8D04FF4807000F009FC4FF0FF033B61EE
:101530004FF07F037B614FF0010000F03DFC07F0AE
:10154000E7F84FF0000043F2F22107F02BFB07F120
:101550000403184607F06AF87B69BB603B69FB60CF
:101560004FF000037B6007F10403184606F0FAFF12
:1015700007F11807BD4680BD80B485B000AF0346B3
:10158000FB71FB79012B07D0072B09D0002B0BD166
:101590004FF00003FB730BE04FF00203FB7307E017
:1015A0004FF00603FB7303E04FF00403FB7300BF2F
:1015B000FB7B184607F11407BD4680BC704700BF8F
:1015C00080B582B000AF4AF6DC03C0F600037B6052
:1015D00040F20003C2F200033B600BE07B681A6834
:1015E0003B681A603B6803F104033B607B6803F1CE
:1015F00004037B603A6840F2C003C2F200039A42DF
:10160000ECD3074807494FF000028842B8BF40F8C2
:10161000042BFADB00F012FA07F10807BD4680BD83
:10162000C0000020C42D002080B400AFFEE700BF42
:1016300080B584B000AF786039604FF00003FB7371
:101640003B681B88052B2BD17B6803F101031B78BA
:101650004FEA0323BB817B6803F102031B781A4620
:10166000BB8942EA0303BB81BB8903F10103BB8150
:101670007B6803F10302BB89104619464FF0010253
:101680004FF00103FEF76AFE0346FB72FB7A002B64
:1016900009D0FB7A1846FFF76FFF0346FB7302E0A1
:1016A0004FF00303FB73FB7B184607F11007BD46A1
:1016B00080BD00BF80B584B000AF786039604FF066
:1016C0000003FB733B681B88052B57D97B6803F12C
:1016D00001031B784FEA0323BB817B6803F10203FC
:1016E0001B781A46BB8942EA0303BB81BB8903F11D
:1016F0000103BB817B6803F103031B784FEA0323DB
:101700007B817B6803F104031B781A467B8942EADC
:1017100003037B817B6803F105031B787B727B8964
:10172000002B27D07B89782B24D87B89DBB24FEA2A
:101730004303DBB27A7A9A421CD17B6803F106013B
:10174000BA897B89084611461A464FF00103FEF715
:1017500005FE03463B723B7A002B06D03B7A1846C7
:10176000FFF70AFF0346FB730BE03B684FF00502EF
:101770001A8006E04FF00303FB7302E04FF003030F
:10178000FB73FB7B184607F11007BD4680BD00BF09
:1017900080B586B000AF786039604FF00003FB750C
:1017A0003B681B88052B70D17B6803F101031B7814
:1017B0004FEA0323BB827B6803F102031B781A46BE
:1017C000BB8A42EA0303BB82BB8A03F10103BB82EB
:1017D0007B6803F103031B784FEA03237B827B685A
:1017E00003F104031B787B827B8A002B49D07B8A20
:1017F0007D2B46D87B68FB603B684FF000021A8067
:10180000FB684FF003021A70FB6803F10103FB60F1
:101810003B681B8803F101039AB23B681A807B8AFC
:10182000DBB24FEA4303DAB2FB681A70FB6803F1DC
:101830000103FB603B681B8803F101039AB23B681C
:101840001A80BA8A7B8AF86811461A464FF000035C
:10185000FEF784FD0346FB72FB7A002B06D0FB7A71
:101860001846FFF789FE0346FB7511E03B681A88AE
:101870007B8A4FEA43039BB2D3189AB23B681A8023
:1018800006E04FF00303FB7502E04FF00303FB7526
:10189000FB7D184607F11807BD4680BD80B586B0B0
:1018A00000AF786039604FF00003FB753B681B8820
:1018B000092B40F2BC807B6803F101031B784FEADF
:1018C0000323BB827B6803F102031B781A46BB8AA1
:1018D00042EA0303BB82BB8A03F10103BB827B683C
:1018E00003F103031B784FEA03237B827B6803F138
:1018F00004031B781A467B8A42EA03037B827B68D7
:1019000003F105031B784FEA03233B827B6803F155
:1019100006031B781A463B8A42EA03033B823B8A52
:1019200003F101033B827B6803F107031B784FEA55
:101930000323FB817B6803F108031B781A46FB89AC
:1019400042EA0303FB817B6803F109031B787B7385
:101950007B8A002B68D07B8A7D2B65D8FB89002B86
:1019600062D0FB89792B5FD8FB894FEA43027B7BEE
:101970009A4259D17B6803F10A013A8AFB890846E9
:1019800011461A464FF00103FEF7E8FC0346BB750B
:10199000BB7D002B3ED17B68BB603B684FF00002F3
:1019A0001A80BB684FF017021A70BB6803F101037D
:1019B000BB603B681B8803F101039AB23B681A8045
:1019C0007B8ADBB24FEA4303DAB2BB681A70BB68AA
:1019D00003F10103BB603B681B8803F101039AB26A
:1019E0003B681A80BA8A7B8AB86811461A464FF05B
:1019F0000003FEF7B3FC0346BB75BB7D002B09D18A
:101A00003B681A887B8A4FEA43039BB2D3189AB289
:101A10003B681A80BB7D002B09D0BB7D1846FFF7C1
:101A2000ABFD0346FB7502E04FF00303FB75FB7D46
:101A3000184607F11807BD4680BD00BF80B500AF4E
:101A400003F0C0F907F044FA00F008FEFEE700BF1B
:101A500080B400AFFEE700BF80B483B000AF786011
:101A60003960FEE780B582B000AF07F0EFF90346BA
:101A70007B607B6807F10807BD4680BD80B485B0F8
:101A800000AF78600B467B804FF0FF03FB734FF095
:101A9000FF03BB731DE07B681A78BB7B82EA0303FC
:101AA000DBB2BB607B6803F101037B604AF24463F5
:101AB000C0F60003BA689B181A78FB7B82EA03031E
:101AC000BB734AF24473C0F60003BA689B181B78D4
:101AD000FB737B88002B0CBF00230123DBB27A88C9
:101AE00002F1FF327A80002BD5D1FB7B4FEA032332
:101AF0009AB2BB7B9BB242EA03039BB29BB21846ED
:101B000007F11407BD4680BC704700BF80B483B0A6
:101B100000AF0346FB7143F67003C4F202034FF0BB
:101B200000021A7043F67003C4F202034FF0000281
:101B30001A70FB79012B02D0042B08D00FE043F67A
:101B40007003C4F202034FF001021A7007E043F67B
:101B50007003C4F202034FF005021A7000BF07F1D0
:101B60000C07BD4680BC704780B489B000AF786078
:101B70004FF00003BB614FF000037B614FF00003A7
:101B8000FB614FF002033B614FF00003FB604FF03D
:101B90000203BB604FF46053C4F202039B6803F07E
:101BA0000C03BB61BB69042B0AD0082B0FD0002BA0
:101BB00064D17A684FF41053C0F2F403136064E008
:101BC0007A684FF49053C0F27A0313605DE04FF4EB
:101BD0006053C4F202035B6803F480034FEA93533B
:101BE000FB604FF46053C4F202035B6803F03F03F1
:101BF000BB60FB68002B16D04FF49053C0F27A0301
:101C0000BA68B3FBF2F24FF46053C4F202035B68AC
:101C1000194647F6C07301EA03034FEA931303FB27
:101C200002F3FB6115E04FF41053C0F2F403BA68FD
:101C3000B3FBF2F24FF46053C4F202035B6819463F
:101C400047F6C07301EA03034FEA931303FB02F361
:101C5000FB614FF46053C4F202035B6803F440334A
:101C60004FEA134303F101034FEA43033B61FA696F
:101C70003B69B2FBF3F27B681A6006E07A684FF4C6
:101C80001053C0F2F403136000BF4FF46053C4F26A
:101C900002039B6803F0F003BB61BB694FEA1313B7
:101CA000BB6140F29003C2F20003BA699B181B7833
:101CB000DBB27B617B681A687B6922FA03F27B687E
:101CC0005A604FF46053C4F202039B6803F4E0537C
:101CD000BB61BB694FEA9323BB6140F29003C2F240
:101CE0000003BA699B181B78DBB27B617B685A687A
:101CF0007B6922FA03F27B689A604FF46053C4F266
:101D000002039B6803F46043BB61BB694FEA533332
:101D1000BB6140F29003C2F20003BA699B181B78C2
:101D2000DBB27B617B685A687B6922FA03F27B68CD
:101D3000DA6007F12407BD4680BC704780B485B0E7
:101D400000AF78604FF00003FB607B6803F44073E2
:101D5000B3F5407F18D14FF46053C4F202039B687F
:101D6000FB60FB6823F4F813FB607B6823F070438F
:101D700023F44073FA6842EA0303FB604FF46053B4
:101D8000C4F20203FA689A604FF46053C4F202038B
:101D90004FF46052C4F20202126F11467A684FEAA1
:101DA00002524FEA125241EA02021A6707F114077F
:101DB000BD4680BC704700BF80B483B000AF03460F
:101DC000FB7140F63C63C4F24723FA791A6007F1CD
:101DD0000C07BD4680BC704780B483B000AF78600C
:101DE0000B46FB70FB78002B0ED04FF46053C4F20F
:101DF00002034FF46052C4F20202126B11467A6879
:101E000041EA02021A630FE04FF46053C4F2020386
:101E10004FF46052C4F20202126B11467A686FEA04
:101E2000020201EA02021A6307F10C07BD4680BCF8
:101E3000704700BF80B483B000AF78600B46FB7082
:101E4000FB78002B0ED04FF46053C4F202034FF422
:101E50006052C4F20202126C11467A6841EA020230
:101E60001A640FE04FF46053C4F202034FF460525F
:101E7000C4F20202126C11467A686FEA020201EAA9
:101E800002021A6407F10C07BD4680BC704700BF10
:101E900080B483B000AF78600B46FB70FB78002BFA
:101EA0000ED04FF46053C4F202034FF46052C4F2F8
:101EB0000202526C11467A6841EA02025A640FE04B
:101EC0004FF46053C4F202034FF46052C4F20202B2
:101ED000526C11467A686FEA020201EA02025A6401
:101EE00007F10C07BD4680BC704700BF80B483B0CB
:101EF00000AF78600B46FB70FB78002B0ED04FF4E0
:101F00006053C4F202034FF46052C4F20202126A38
:101F100011467A6841EA02021A620FE04FF46053F8
:101F2000C4F202034FF46052C4F20202126A114674
:101F30007A686FEA020201EA02021A6207F10C07EC
:101F4000BD4680BC704700BF80B487B000AF034679
:101F5000FB714FF00003FB604FF000037B614FF01B
:101F60000003FB74FB794FEA5313DBB2FB60FB68A1
:101F7000012B06D14FF46053C4F202031B687B614E
:101F80000FE0FB68022B06D14FF46053C4F202034A
:101F90001B6F7B6105E04FF46053C4F202035B6F7B
:101FA0007B61FB7903F01F03FB60FB687A6922FA0F
:101FB00003F303F00103DBB2002B03D04FF0010366
:101FC000FB7402E04FF00003FB74FB7C184607F142
:101FD0001C07BD4680BC704780B59EB000AF7860DE
:101FE00039604FF0000387F875304FF0000387F831
:101FF00074303B681B88082B40F210817B6803F12A
:1020000001031B78A7F87630B7F87620894BA3FB3D
:102010000213D21A4FEA52029B184FEA93039BB263
:1020200087F873304FF0000387F875305FE097F85A
:1020300075207B6803F104031B7819467B6803F164
:1020400003031B784FEA03239BB20B439BB299B265
:1020500013464FEA43039B184FEA430307F1780204
:10206000D318A3F170030A461A8097F875207B688D
:1020700003F106031B7819467B6803F105031B78FF
:102080004FEA03239BB20B439BB299B213464FEA2C
:1020900043039B184FEA430307F17802D318A3F1D7
:1020A00070030A465A8097F875207B6803F108038D
:1020B0001B7819467B6803F107031B784FEA03235B
:1020C0009BB20B439BB299B213464FEA43039B1852
:1020D0004FEA430307F17802D318A3F170030A46CD
:1020E0009A8097F8753003F1010387F8753097F8F7
:1020F000752097F873309A4299D397F87330002B74
:1021000000F0878097F87330092B00F282807B689B
:10211000FB663B684FF000021A80FB6E4FF0140222
:102120001A70FB6E03F10103FB663B681B8803F129
:1021300001039AB23B681A804FF00003A7F876308B
:102140004FF0000387F875301FE097F875201346AD
:102150004FEA43039B184FEA430307F17801CB187A
:10216000A3F170039B881A464FEAC202D3184FEAC4
:10217000C3039AB2B7F87630D318A7F8763097F839
:10218000753003F1010387F8753097F8752097F8DB
:1021900073309A42D9D3B7F87630FA2B33D8B7F8E0
:1021A0007630DAB2FB6E1A70FB6E03F10103FB6648
:1021B0003B681B8803F101039AB23B681A8097F8C9
:1021C00073309BB207F10802F86E11461A46FEF70B
:1021D0007FFB034687F86B3097F86B30002B08D0F5
:1021E00097F86B301846FFF7C7F9034687F8743045
:1021F00018E03B681A88B7F87630DBB2D3189AB289
:102200003B681A800EE04FF0030387F8743000BF7C
:1022100008E04FF0030387F8743003E04FF0030346
:1022200087F8743097F87430184607F17807BD4680
:1022300080BD00BF2549922480B584B000AF03461D
:102240003960FB804FF00003FB73FB88632B18D8C9
:10225000FB881A464FEA8202D3181A464FEAC20296
:10226000D31A4FEA43039BB203F130039BB21846E3
:1022700039684FF0460201F03BFA0346FB73FB7BE3
:1022800001E04FF00403184607F11007BD4680BD7A
:1022900080B586B000AF786039604FF00003FB7501
:1022A0003B681B88052B72D17B6803F101031B7807
:1022B0004FEA0323BB827B6803F102031B781A46B3
:1022C000BB8A42EA0303BB82BB8A03F10103BB82E0
:1022D0007B6803F103031B784FEA03237B827B684F
:1022E00003F104031B781A467B8A42EA03037B82CC
:1022F0007B8A002B47D07B8A7C2B44D87B68FB6091
:102300003B684FF000021A80FB684FF004021A701D
:10231000FB6803F10103FB603B681B8803F10103C9
:102320009AB23B681A807B8ADBB24FEA4303DAB287
:10233000FB681A70FB6803F10103FB603B681B88B4
:1023400003F101039AB23B681A80BA8A7B8AF86863
:1023500011461A46FDF724FF0346FB72FB7A002B59
:1023600006D0FB7A1846FFF707F90346FB7511E024
:102370003B681A887B8A4FEA43039BB2D3189AB210
:102380003B681A8006E04FF00303FB7502E04FF054
:102390000303FB75FB7D184607F11807BD4680BD9A
:1023A00080B483B000AF02460B46FA71BB71FB7973
:1023B000092B06D8FB79054A4FEAC303D318BA792B
:1023C0001A7107F10C07BD4680BC7047182D00201C
:1023D00080B483B000AF0346FB71FB79092B08D8AA
:1023E000FB79064A52F8332002F10101034A42F810
:1023F000331007F10C07BD4680BC7047182D002034
:1024000080B58AB002AFF860B9603B601346FB80CC
:10241000FB68002B02D102F0A5FEFEE7BB6A042B8D
:1024200002D902F09FFEFEE7FB881846396B00F0E8
:1024300069FEB861BB69002B00F09F80BB691A6B15
:10244000FB8803F1FF334FEA8303D3187B617B6979
:1024500023F007037B617B6903F00703002B02D0A5
:1024600002F080FEFEE7FB880093B869B968BA6A9B
:102470007B6B00F005FD7869F9683A6802F02CFD85
:1024800003461A46BB691A60FB6A002B02D0FB6A3E
:10249000BA691A6002F01AFE40F2BC13C2F20003DD
:1024A0001B6803F1010240F2BC13C2F200031A6080
:1024B00040F2E403C2F200031B68002B0FD140F28C
:1024C000E403C2F20003BA691A6040F2BC13C2F21C
:1024D00000031B68012B18D100F030FD15E040F21D
:1024E000C813C2F200031B68002B0ED140F2E403B4
:1024F000C2F200031B68DA6ABB6A9A4205D840F24E
:10250000E403C2F20003BA691A6040F2D813C2F2BF
:1025100000031B6803F1010240F2D813C2F200036A
:102520001A60BB69DB6A4FF0010202FA03F240F263
:10253000C413C2F200031B681A4340F2C413C2F270
:1025400000031A60BB69DA6A13464FEA83039B18DB
:102550004FEA83031A4640F2E803C2F20003D2189E
:10256000BB6903F104031046194602F0A1FB4FF0CA
:102570000103FB6102F0D2FD02E04FF0FF33FB618B
:10258000FB69012B11D140F2C813C2F200031B6892
:10259000002B0AD040F2E403C2F200031B68DA6A9F
:1025A000BB6A9A4201D202F081FDFB69184607F12D
:1025B0002007BD4680BD00BF80B584B000AF786005
:1025C0004FF00003FB607B68002B3DD040F2DC1332
:1025D000C2F200031B68002B02D002F0C3FDFEE72D
:1025E00000F07AF840F2C013C2F200031A687B6868
:1025F000D318BB6040F2E403C2F200031B6803F18E
:102600000403184602F0B2FB0346002B16D140F239
:10261000E403C2F200031B68DB6A4FF0010202FA16
:1026200003F36FEA030240F2C413C2F200031B6813
:102630001A4040F2C413C2F200031A60B86800F0F6
:102640001BFD00F05BF8F860FB68002B01D102F085
:102650002DFD07F11007BD4680BD00BF80B586B0D7
:1026600004AF4FF0000300934FF0000301934FF0CD
:10267000000302934FF00003039342F65D60C0F63F
:1026800000004AF64401C0F600014FF046024FF048
:102690000003FFF7B5FE78607B68012B12D102F0D2
:1026A00061FD40F2C813C2F200034FF001021A604C
:1026B00040F2C013C2F200034FF000021A6002F0B1
:1026C0006FFC05E07B68002B02D102F04BFDFEE7BA
:1026D00007F10807BD4680BD80B400AF40F2DC13AF
:1026E000C2F200031B6803F1010240F2DC13C2F2E4
:1026F00000031A60BD4680BC704700BF80B582B041
:1027000000AF4FF000037B6040F2DC13C2F2000325
:102710001B68002B02D102F025FDFEE702F0D6FC7B
:1027200040F2DC13C2F200031B6803F1FF3240F2F7
:10273000DC13C2F200031A6040F2DC13C2F20003A1
:102740001B68002B40F08D8040F2BC13C2F20003E6
:102750001B68002B00F0858049E040F27C13C2F238
:102760000003DB68DB683B603B6803F11803184635
:1027700002F0FCFA3B6803F10403184602F0F6FA93
:102780003B68DB6A4FF0010202FA03F240F2C41325
:10279000C2F200031B681A4340F2C413C2F20003E2
:1027A0001A603B68DA6A13464FEA83039B184FEAC4
:1027B00083031A4640F2E803C2F20003D2183B68D2
:1027C00003F104031046194602F072FA3B68DA6A14
:1027D00040F2E403C2F200031B68DB6A9A4206D3AC
:1027E00040F2D013C2F200034FF001021A6040F22F
:1027F0007C13C2F200031B68002BAED140F2CC1355
:10280000C2F200031B68002B1FD017E000F032F863
:102810000346002B06D040F2D013C2F200034FF063
:1028200001021A6040F2CC13C2F200031B6803F1EC
:10283000FF3240F2CC13C2F200031A6040F2CC1314
:10284000C2F200031B68002BE0D140F2D013C2F2A9
:1028500000031B68012B04D14FF001037B6002F0E1
:1028600025FC02F05BFC7B68184607F10807BD46B3
:1028700080BD00BF80B586B000AF4FF000037B6124
:1028800040F2DC13C2F200031B68002B40F0D8803A
:1028900040F2C013C2F200031B6803F1010240F2D0
:1028A000C013C2F200031A6040F2C013C2F2000368
:1028B0001B683B613B69002B2ED140F27413C2F2BE
:1028C00000031B681B68002B02D002F04BFCFEE7E4
:1028D00040F27413C2F200031B68FB6040F27813ED
:1028E000C2F200031A6840F27413C2F200031A60C5
:1028F00040F27813C2F20003FA681A6040F2D4136F
:10290000C2F200031B6803F1010240F2D413C2F2C9
:1029100000031A6000F044FC40F2A003C2F200037E
:102920001B683A699A4272D300E000BF40F2741308
:10293000C2F200031B681B68002B02D14FF0010399
:1029400001E04FF00003002B07D040F2A003C2F2D9
:1029500000034FF0FF321A6059E040F27413C2F2E4
:1029600000031B68DB68DB68BB60BB685B687B607F
:102970003A697B689A4206D240F2A003C2F2000391
:102980007A681A6043E0BB6803F10403184602F05A
:10299000EDF9BB689B6A002B05D0BB6803F11803F7
:1029A000184602F0E3F9BB68DB6A4FF0010202FA55
:1029B00003F240F2C413C2F200031B681A4340F250
:1029C000C413C2F200031A60BB68DA6A13464FEA06
:1029D00083039B184FEA83031A4640F2E803C2F2CE
:1029E0000003D218BB6803F104031046194602F035
:1029F0005FF9BB68DA6A40F2E403C2F200031B68C5
:102A0000DB6A9A4291D34FF001037B618EE740F27B
:102A1000E403C2F200031B68DA6A13464FEA830339
:102A20009B184FEA83031A4640F2E803C2F2000300
:102A3000D3181B68012B0FD94FF001037B610BE00A
:102A400040F2CC13C2F200031B6803F1010240F212
:102A5000CC13C2F200031A6040F2D013C2F200039A
:102A60001B68002B02D04FF001037B617B69184685
:102A700007F11807BD4680BD90B585B000AF40F2A4
:102A8000DC13C2F200031B68002B07D040F2D01306
:102A9000C2F200034FF001021A608FE040F2D0133F
:102AA000C2F200034FF000021A6040F2E403C2F2E7
:102AB00000031B681A6840F2E403C2F200031B68BB
:102AC0001B6B9A420FD840F2E403C2F200031A686B
:102AD00040F2E403C2F200031B6803F13403104622
:102AE0001946FEF7B9FF40F2E403C2F200031B6887
:102AF0001B6B18464AF64C01C0F600014FF0140259
:102B000007F03EFC0346002B0FD040F2E403C2F274
:102B100000031A6840F2E403C2F200031B6803F1E9
:102B2000340310461946FEF797FF40F2C413C2F271
:102B300000031B687B607B68B3FA83F4FC70FB784E
:102B4000C3F11F03FB60FA6813464FEA83039B1827
:102B50004FEA83031A4640F2E803C2F20003D31897
:102B60001B68002B02D102F0FDFAFEE7FA6813465B
:102B70004FEA83039B184FEA83031A4640F2E803A7
:102B8000C2F20003D318BB60BB685B685A68BB68BD
:102B90005A60BB685A68BB6803F108039A4204D1C3
:102BA000BB685B685A68BB685A60BB685B68DB6877
:102BB0001A4640F2E403C2F200031A6007F1140758
:102BC000BD4690BD80B584B000AF786039607B6849
:102BD000002B02D102F0C6FAFEE740F2E403C2F293
:102BE00000031B6803F118037868194602F084F8A3
:102BF00040F2E403C2F200031B6803F10403184629
:102C000002F0B4F80346002B16D140F2E403C2F2FE
:102C100000031B68DB6A4FF0010202FA03F36FEA5C
:102C2000030240F2C413C2F200031B681A4040F2D0
:102C3000C413C2F200031A603B68B3F1FF3F0ED128
:102C400040F2E403C2F200031B6803F1040340F204
:102C5000A810C2F20000194602F02AF80AE040F279
:102C6000C013C2F200031A683B68D318FB60F8680F
:102C700000F002FA07F11007BD4680BD80B584B0B0
:102C800000AF78607B68DB68DB68BB60BB68002BEB
:102C900002D102F067FAFEE7BB6803F11803184699
:102CA00002F064F840F2DC13C2F200031B68002B50
:102CB0002CD1BB6803F10403184602F057F8BB6837
:102CC000DB6A4FF0010202FA03F240F2C413C2F2CF
:102CD00000031B681A4340F2C413C2F200031A60D7
:102CE000BB68DA6A13464FEA83039B184FEA8303F3
:102CF0001A4640F2E803C2F20003D218BB6803F19F
:102D000004031046194601F0D3FF09E0BB6803F144
:102D1000180340F27C10C2F20000194601F0C8FF0F
:102D2000BB68DA6A40F2E403C2F200031B68DB6AA4
:102D30009A420AD94FF00103FB6040F2D013C2F26D
:102D400000034FF001021A6002E04FF00003FB6045
:102D5000FB68184607F11007BD4680BD80B582B0FC
:102D600000AF78607B68002B02D102F0FBF9FEE730
:102D700040F2D413C2F200031A687B681A6040F272
:102D8000C013C2F200031A687B685A6007F1080793
:102D9000BD4680BD80B584B000AF786039607B6887
:102DA000002B02D102F0DEF9FEE73B68002B02D1D6
:102DB00002F0D8F9FEE702F089F940F2C013C2F23E
:102DC00000031B68BB603B681B68B3F1FF3F03D186
:102DD0004FF00003FB602CE07B681A6840F2D413CC
:102DE000C2F200031B689A4208D07B685A68BB682D
:102DF0009A4203D84FF00103FB601AE07B685B68DE
:102E0000BA68D21A3B681B689A420FD23B681A68AC
:102E10007B685968BB68CB1AD2183B681A6078681F
:102E2000FFF79CFF4FF00003FB6002E04FF001034F
:102E3000FB6002F073F9FB68184607F11007BD4606
:102E400080BD00BF80B400AF40F2D013C2F20003D7
:102E50004FF001021A60BD4680BC704780B582B059
:102E600000AF786000F0BCF840F2E803C2F2000363
:102E70001B68012B01D902F019F9FEF7F3FDF1E708
:102E800080B586B000AFF860B9607A603B604FF003
:102E900000037B6113E0BA687B69D3181A78F9687C
:102EA0007B69CB1803F130031A71BA687B69D318B8
:102EB0001B78002B07D07B6903F101037B617B69E1
:102EC000092BE8D900E000BFFB684FF0000283F84F
:102ED0003D207B68042B02D94FF004037B60FB6824
:102EE0007A68DA62FB687A681A64FB684FF000025D
:102EF0005A64FB6803F10403184601F0CBFEFB683B
:102F000003F11803184601F0C5FEFB68FA681A6160
:102F10007B68C3F10502FB689A61FB68FA685A6234
:102F2000FB684FF000029A64FB684FF0000283F8E0
:102F30004C2007F11807BD4680BD00BF80B582B0A8
:102F400000AF4FF000037B6013E07A6813464FEA4E
:102F500083039B184FEA83031A4640F2E803C2F248
:102F60000003D318184601F071FE7B6803F10103DA
:102F70007B607B68042BE8D940F24C10C2F2000061
:102F800001F064FE40F26010C2F2000001F05EFE4B
:102F900040F27C10C2F2000001F058FE40F29010A6
:102FA000C2F2000001F052FE40F2A810C2F200008E
:102FB00001F04CFE40F27413C2F2000340F24C12D6
:102FC000C2F200021A6040F27813C2F2000340F22B
:102FD0006012C2F200021A6007F10807BD4680BD08
:102FE00080B582B000AF3CE0FFF776FB40F2901373
:102FF000C2F200031B68002B14BF002301237B6077
:10300000FFF77CFB7B68002B2BD102F05FF840F2CE
:103010009013C2F20003DB68DB683B603B6803F19E
:103020000403184601F0A2FE40F2BC13C2F20003F2
:103030001B6803F1FF3240F2BC13C2F200031A60B6
:1030400040F2A413C2F200031B6803F1FF3240F206
:10305000A413C2F200031A6002F060F8386800F0AE
:103060008FF840F2A413C2F200031B68002BBBD1FF
:1030700007F10807BD4680BD80B582B000AF78601B
:1030800040F2E403C2F200031B687A685A6040F21F
:10309000C013C2F200031B687A689A4210D240F251
:1030A0007813C2F200031A6840F2E403C2F200038C
:1030B0001B6803F104031046194601F01DFE1DE0D4
:1030C00040F27413C2F200031A6840F2E403C2F241
:1030D00000031B6803F104031046194601F00CFEBF
:1030E00040F2A003C2F200031B687A689A4205D23C
:1030F00040F2A003C2F200037A681A6007F10807E1
:10310000BD4680BD80B584B000AF03463960FB800A
:103110003B68002B07D1FB884FEA8303184605F074
:103120009FFD034600E03B68BB60BB68002B10D0EE
:103130004FF0500005F094FD0346FB60FB68002B48
:1031400003D0FB68BA681A6306E0B86805F03AFE77
:1031500002E04FF00003FB60FB68002B0AD0FB6825
:103160001A6BFB884FEA830310464FF0A5011A46FD
:1031700007F0F2F9FB68184607F11007BD4680BD5D
:1031800080B582B000AF78607B681B6B184605F095
:1031900019FE786805F016FE07F10807BD4680BDE8
:1031A00080B483B000AF40F27413C2F200031B6816
:1031B0001B68002B02D14FF0010301E04FF0000328
:1031C000002B07D040F2A003C2F200034FF0FF3201
:1031D0001A600EE040F27413C2F200031B68DB6851
:1031E000DB687B607B685A6840F2A003C2F2000390
:1031F0001A6007F10C07BD4680BC704780B584B0EB
:1032000000AF78607B68FB607B68002B00F09680E5
:10321000FB68DA6A40F2E403C2F200031B68DB6A6F
:103220009A4280F08B80FB689B69002B09DB40F29F
:10323000E403C2F200031B68DB6AC3F10502FB680A
:103240009A61FB685969FB68DA6A13464FEA83039F
:103250009B184FEA83031A4640F2E803C2F20003C8
:10326000D318994202D14FF0010301E04FF000035F
:10327000002B5BD0FB6803F10403184601F076FDD8
:103280000346002B23D1FB68DA6A13464FEA830317
:103290009B184FEA83031A4640F2E803C2F2000388
:1032A000D3181B68002B12D1FB68DB6A4FF00102B8
:1032B00002FA03F36FEA030240F2C413C2F20003FE
:1032C0001B681A4040F2C413C2F200031A6040F2B5
:1032D000E403C2F200031B68DA6AFB68DA62FB6887
:1032E000DB6A4FF0010202FA03F240F2C413C2F2A9
:1032F00000031B681A4340F2C413C2F200031A60B1
:10330000FB68DA6A13464FEA83039B184FEA83038C
:103310001A4640F2E803C2F20003D218FB6803F138
:1033200004031046194601F0C3FC07E040F2E40331
:10333000C2F200031B68DA6AFB68DA6207F1100761
:10334000BD4680BD80B584B000AF78607B68BB604F
:103350004FF00003FB607B68002B76D0BB685B6C92
:10336000002B02D101F0FEFEFEE7BB685B6C03F1AF
:10337000FF32BB685A64BB68DA6ABB681B6C9A424E
:1033800063D0BB685B6C002B5FD1BB6803F10403A7
:10339000184601F0EBFC0346002B23D1BB68DA6A28
:1033A00013464FEA83039B184FEA83031A4640F201
:1033B000E803C2F20003D3181B68002B12D1BB68CC
:1033C000DB6A4FF0010202FA03F36FEA030240F2F4
:1033D000C413C2F200031B681A4040F2C413C2F2C5
:1033E00000031A60BB681A6CBB68DA62BB68DB6AF0
:1033F000C3F10502BB689A61BB68DB6A4FF001024A
:1034000002FA03F240F2C413C2F200031B681A432B
:1034100040F2C413C2F200031A60BB68DA6A1346B2
:103420004FEA83039B184FEA83031A4640F2E803EE
:10343000C2F20003D218BB6803F104031046194618
:1034400001F036FC4FF00103FB60FB68184607F102
:103450001007BD4680BD00BF80B400AF40F2E4035A
:10346000C2F200031B68002B08D040F2E403C2F252
:1034700000031B685A6C02F101025A6440F2E40333
:10348000C2F200031B681846BD4680BC704700BFEF
:1034900080B586B000AF4FF480004FF00101FEF719
:1034A000C9FC4FF002004FF00101FEF795FC2648E1
:1034B0004FF00B014FF0040200F004FF22484FF0E0
:1034C0000A014FF0040200F0FDFE4FF440633B613F
:1034D0004FF002033B754FF000037B754FF0010383
:1034E000BB754FF00103FB7507F110031648194631
:1034F00000F01CFE154804F0F3F84FF00003BB8009
:103500004BF6FF73FB804FF0A0033B814FF48063C9
:103510007B814FF48043BB810D4B3B603B460B48A6
:10352000194604F021F909484FF0010104F0F8F9B7
:103530004FF0010001F052FF0246064B1A6007F1FE
:103540001807BD4680BD00BF00040240005800407F
:10355000801A0600682D002080B588B000AF4FF4B7
:1035600080004FF00001FEF765FC5E484FF000015F
:1035700004F0D6F94FF002004FF00101FEF72CFCE9
:103580004FF440633B614FF001033B754FF0000384
:103590007B754FF00103BB754FF00103FB7507F11D
:1035A00010035148194600F0C1FD4FF00003FB77AE
:1035B0004FF00003BB614C4B4B4A528B92B242F42A
:1035C000806292B25A834FF00003FB7733E04FF0F2
:1035D0001F03BB6100BFBB69002B0CBF002301238D
:1035E000DBB2BA6902F1FF32BA61002BF3D13E4B74
:1035F0003D4A128B92B242F4806292B21A834FF02B
:103600001F03BB6100BFBB69002B0CBF002301235C
:10361000DBB2BA6902F1FF32BA61002BF3D1324B4F
:10362000314A528B92B242F4806292B25A83FB7F4B
:1036300003F10103FB77FB7F092BC8D92A4B2A4AE8
:10364000528B92B242F4806292B25A834FF480005D
:103650004FF00101FEF7EEFB23484FF00B014FF056
:10366000040200F02FFE20484FF00A014FF0040240
:1036700000F028FE4FF440633B614FF002033B75BE
:103680004FF000037B754FF00103BB754FF0010352
:10369000FB7507F110031448194600F047FD114867
:1036A00004F01EF84FF00003BB804BF6FF73FB8065
:1036B0004FF0A0033B814FF480637B814FF4804344
:1036C000BB810A4B3B603B460648194604F04CF868
:1036D00004484FF0010104F023F907F12007BD462B
:1036E00080BD00BF0058004000040240801A060060
:1036F00080B584B000AF396013460246FA80BB80C3
:1037000042F21073FB60A64B1B6818464FF0000195
:103710004FF0FF324FF0000301F0CEFF4FF00003F7
:103720007B8142F21073FB601BE0FB68002B14BF2F
:1037300000230123DBB2FA6802F1FF32FA60002BAA
:103740000FD0FFF709FF964B1B6818464FF000019A
:103750004FF000024FF0000301F094FE4FF005031C
:1037600016E390484FF4003104F0EEF90346002BC5
:10377000DBD18C484FF0010104F0F2F842F21073F3
:10378000FB6020E0FB68002B14BF00230123DBB2A9
:10379000FA6802F1FF32FA60002B14D081484FF032
:1037A000010104F0FDF8FFF7D7FE7D4B1B681846BA
:1037B0004FF000014FF000024FF0000301F062FEF5
:1037C0004FF00503E4E27748774904F085F90346B2
:1037D000002BD7D073484FF0A0014FF0000204F047
:1037E000FFF842F21073FB6020E0FB68002B14BF6F
:1037F00000230123DBB2FA6802F1FF32FA60002BEA
:1038000014D068484FF0010104F0CAF8FFF7A4FE95
:10381000634B1B6818464FF000014FF000024FF059
:10382000000301F02FFE4FF00503B1E25D485F4950
:1038300004F052F90346002BD7D0FB884FEA13233C
:103840009BB2DBB25748194604F028F942F21073D4
:10385000FB6020E0FB68002B14BF00230123DBB2D8
:10386000FA6802F1FF32FA60002B14D04D484FF095
:10387000010104F095F8FFF76FFE494B1B681846ED
:103880004FF000014FF000024FF0000301F0FAFD8D
:103890004FF005037CE24348454904F01DF9034617
:1038A000002BD7D0FB88DBB23E48194604F0F6F86F
:1038B00042F21073FB6020E0FB68002B14BF002372
:1038C0000123DBB2FA6802F1FF32FA60002B14D058
:1038D00034484FF0010104F063F8FFF73DFE304B30
:1038E0001B6818464FF000014FF000024FF0000334
:1038F00001F0C8FD4FF005034AE22A482C4904F0C4
:10390000EBF80346002BD7D026484FF0010104F016
:1039100047F824484FF0010104F080F821484FF2A5
:10392000FF7104F09BF81F484FF0010104F018F8F4
:1039300042F21073FB6020E0FB68002B14BF0023F1
:103940000123DBB2FA6802F1FF32FA60002B14D0D7
:1039500014484FF0010104F023F8FFF7FDFD104B70
:103960001B6818464FF000014FF000024FF00003B3
:1039700001F088FD4FF005030AE20A480A4904F005
:10398000ABF80346002BD7D006484FF0A0014FF00C
:10399000010204F025F842F21073FB6026E000BF3C
:1039A000682D00200058004001000300820007003D
:1039B00084000700FB68002B14BF00230123DBB247
:1039C000FA6802F1FF32FA60002B0FD0FFF7C4FD56
:1039D000A54B1B6818464FF000014FF000024FF056
:1039E000000301F04FFD4FF00503D1E19F48A049CE
:1039F00004F0AAF80346002BDCD0BB88022B40F26F
:103A0000F08042F21073FB6020E0FB68002B14BFD3
:103A100000230123DBB2FA6802F1FF32FA60002BC7
:103A200014D092484FF0010103F0BAFFFFF794FD64
:103A30008D4B1B6818464FF000014FF000024FF00D
:103A4000000301F01FFD4FF00503A1E187488949FC
:103A500004F042F80346002BD7D036E0834804F048
:103A60002DF803461A463B681A703B6803F10103C0
:103A70003B6042F21073FB6020E0FB68002B14BF38
:103A800000230123DBB2FA6802F1FF32FA60002B57
:103A900014D076484FF0010103F082FFFFF75CFD80
:103AA000714B1B6818464FF000014FF000024FF0B9
:103AB000000301F0E7FC4FF0050369E16B486D4935
:103AC00004F00AF80346002BD7D0BB88032B0CBFA9
:103AD00000230123DBB2BA8802F1FF32BA80002B47
:103AE000BCD142F21073FB6020E0FB68002B14BFD6
:103AF00000230123DBB2FA6802F1FF32FA60002BE7
:103B000014D05A484FF0010103F04AFFFFF724FD9B
:103B1000554B1B6818464FF000014FF000024FF064
:103B2000000301F0AFFC4FF0050331E14F4852496B
:103B300004F00AF80346012BD7D14C484FF000019E
:103B400003F06CFF494803F0B9FF03461A463B688F
:103B50001A703B6803F101033B6044484FF00101D8
:103B600003F01EFF414803F0A9FF03461A463B68D5
:103B70001A703B6803F101033B6042F21073FB6073
:103B800020E0FB68002B14BF00230123DBB2FA689E
:103B900002F1FF32FA60002B14D034484FF00101DB
:103BA00003F0FEFEFFF7D8FC2F4B1B6818464FF0C2
:103BB00000014FF000024FF0000301F063FC4FF0F2
:103BC0000503E5E029482D4903F0BEFF0346012B1C
:103BD000D7D1264803F072FF03461A463B681A7095
:103BE000C2E0BB88022B7FD142F21073FB6020E061
:103BF000FB68002B14BF00230123DBB2FA6802F13B
:103C0000FF32FA60002B14D018484FF0010103F086
:103C1000C7FEFFF7A1FC144B1B6818464FF00001CC
:103C20004FF000024FF0000301F02CFC4FF00503B1
:103C3000AEE00E480F4903F04FFF0346002BD7D0EC
:103C40000A4803F03BFF03461A463B681A703B687C
:103C500003F101033B6005484FF0000103F0DEFE75
:103C600042F21073FB602CE0682D002000580040E9
:103C7000020000104000030004000010400000108B
:103C8000FB68002B14BF00230123DBB2FA6802F1AA
:103C9000FF32FA60002B14D040484FF0010103F0CE
:103CA0007FFEFFF759FC3E4B1B6818464FF00001A2
:103CB0004FF000024FF0000301F0E4FB4FF005036A
:103CC00066E03648374903F007FF0346002BD7D09C
:103CD000324803F0F3FE03461A463B681A703B680D
:103CE00003F101033B603FE0BB88012B3CD12B4833
:103CF0004FF0000103F092FE42F21073FB6020E0EF
:103D0000FB68002B14BF00230123DBB2FA6802F129
:103D1000FF32FA60002B14D020484FF0010103F06D
:103D20003FFEFFF719FC1E4B1B6818464FF00001C1
:103D30004FF000024FF0000301F0A4FB4FF0050329
:103D400026E01648184903F0FFFE0346002BD7D0A3
:103D500012484FF0010103F023FE104803F0AEFEBD
:103D600003461A463B681A700C484FF0010103F0F5
:103D700055FEFFF7F1FB0A4B1B6818464FF0000198
:103D80004FF000024FF0000301F07CFB4FF0000306
:103D9000184607F11007BD4680BD00BF005800401F
:103DA000682D0020400003004000001080B584B062
:103DB00000AF396013460246FA80BB8042F21073AE
:103DC000FB60984B1B6818464FF000014FF0FF3224
:103DD0004FF0000301F070FC4FF000037B8192482C
:103DE0004FF0010103F0BCFD42F21073FB6020E0D4
:103DF000FB68002B14BF00230123DBB2FA6802F139
:103E0000FF32FA60002B14D087484FF0010103F015
:103E1000C7FDFFF7A1FB834B1B6818464FF000015D
:103E20004FF000024FF0000301F02CFB4FF00503B0
:103E3000F2E07D487D4903F04FFE0346002BD7D0CA
:103E400079484FF0A0014FF0000203F0C9FD42F2A3
:103E50001073FB6020E0FB68002B14BF00230123DC
:103E6000DBB2FA6802F1FF32FA60002B14D06E4820
:103E70004FF0010103F094FDFFF76EFB694B1B68E7
:103E800018464FF000014FF000024FF0000301F020
:103E9000F9FA4FF00503BFE06348654903F01CFEE3
:103EA0000346002BD7D0FB884FEA13239BB2DBB22B
:103EB0005D48194603F0F2FD42F21073FB6020E00A
:103EC000FB68002B14BF00230123DBB2FA6802F168
:103ED000FF32FA60002B14D053484FF0010103F079
:103EE0005FFDFFF739FB4F4B1B6818464FF0000191
:103EF0004FF000024FF0000301F0C4FA4FF0050349
:103F00008AE049484B4903F0E7FD0346002BD7D030
:103F1000FB88DBB24448194603F0C0FD42F210733F
:103F2000FB6020E0FB68002B14BF00230123DBB201
:103F3000FA6802F1FF32FA60002B14D03A484FF0D1
:103F4000010103F02DFDFFF707FB364B1B681846F8
:103F50004FF000014FF000024FF0000301F092FA21
:103F60004FF0050358E03048324903F0B5FD0346F1
:103F7000002BD7D04FF000037B8137E07B893A6874
:103F8000D3181B782848194603F088FD42F21073B5
:103F9000FB6020E0FB68002B14BF00230123DBB291
:103FA000FA6802F1FF32FA60002B14D01E484FF07D
:103FB000010103F0F5FCFFF7CFFA1A4B1B68184616
:103FC0004FF000014FF000024FF0000301F05AFAE9
:103FD0004FF0050320E01448164903F07DFD034629
:103FE000002BD7D07B8903F101037B817A89BB88C1
:103FF0009A42C3D30C484FF0010103F0D1FC094BA6
:104000001B6818464FF000014FF000024FF000030C
:1040100001F038FA4FF00003184607F11007BD46CB
:1040200080BD00BF682D0020005800400100030043
:10403000820007008400070080B584B000AF78607C
:104040004FF000037B8107F10C034FF0000019468D
:104050004FF00402FFF74CFB0346002B02D04FF059
:10406000040326E007F10A034FF02A0019464FF037
:104070000202FFF73DFB0346002B02D04FF0040382
:1040800017E007F10C0318464FF00401FDF7F6FCAA
:1040900003461A467B899A4205D17B68FA681A6002
:1040A0004FF0000305E07B68044A12681A604FF085
:1040B0000603184607F11007BD4680BDD8A80008C2
:1040C00080B584B000AF78604FF00003FB8107F14A
:1040D000040318464FF00401FDF7D0FC0346FB81B2
:1040E00007F104034FF0000019464FF00402FFF7F8
:1040F0005DFE0346002B02D04FF0040310E007F1F1
:104100000E034FF02A0019464FF00202FFF74EFE51
:104110000346002B02D04FF0040301E04FF00003F0
:10412000184607F11007BD4680BD00BF80B487B0B8
:1041300000AF786039604FF000037B614FF00003FF
:104140003B614FF00003FB604FF000037B618FE0A9
:104150007B694FF0010202FA03F33B613B681A6886
:104160003B6902EA0303FB60FA683B699A427BD130
:104170007B681B681A467B694FEA43034FF00301D3
:1041800001FA03F36FEA03031A407B681A607B6845
:104190001B681A463B681B7919467B694FEA430343
:1041A00001FA03F31A437B681A603B681B79012B01
:1041B00003D03B681B79022B38D17B689B681A4679
:1041C0007B694FEA43034FF0030101FA03F36FEAFF
:1041D00003031A407B689A607B689B681A463B68B9
:1041E0005B7919467B694FEA430301FA03F31A43EB
:1041F0007B689A607B685B681A467B699BB24FF06C
:10420000010101FA03F36FEA03031A407B685A6065
:104210007B685B681A463B689B7919467B699BB251
:1042200001FA03F39BB21A437B685A607B68DB6830
:104230001A467B699BB24FEA43034FF0030101FA30
:1042400003F36FEA03031A407B68DA607B68DB687C
:104250001A463B68DB7919467B694FEA430301FA4A
:1042600003F31A437B68DA607B6903F101037B6126
:104270007B690F2B7FF66CAF07F11C07BD4680BC36
:10428000704700BF80B485B000AF78600B467B807C
:104290004FF00003FB737B681B691A467B8802EAB8
:1042A0000303002B03D04FF00103FB7302E04FF038
:1042B0000003FB73FB7B184607F11407BD4680BC67
:1042C000704700BF80B485B000AF786013460A46DF
:1042D0007A807B704FF00003FB604FF00003BB60FF
:1042E0007A787B8803F007034FEA830302FA03F32B
:1042F000FB607B884FEAD3039BB21A467B884FEA68
:10430000D3039BB219467B6801F1080153F82130B1
:1043100019467B8803F007034FEA83034FF00F0031
:1043200000FA03F36FEA030319407B6802F1080205
:1043300043F822107B884FEAD3039BB21A467B686E
:1043400002F1080253F822301A46FB6842EA0303DE
:10435000BB607B884FEAD3039BB21A467B6802F1AD
:104360000802B96843F8221007F11407BD4680BC63
:10437000704700BF80B588B000AF0346FB804FF0A8
:104380000003FB834FF004004FF00101FDF752FDE5
:1043900040F2A403C2F200031A6841F25973CDF24D
:1043A000B713A3FB02134FEA93339BB203F1FF331E
:1043B000FB83FB887B61FB8B3B824FF000033B83DD
:1043C0004FF000037B8207F110034FF40060C4F24A
:1043D0000000194604F0BCFD4FF40060C4F2000078
:1043E0004FF0010104F05CFE4FF4407004F032F82D
:1043F0004FF01E033B734FF00E037B734FF001032E
:10440000BB734FF00103FB7307F10C03184604F074
:1044100035F84FF40060C4F200004FF0010104F0E1
:1044200083FF4FF40060C4F200004FF001014FF031
:10443000000204F041FF4FF40060C4F200004FF0AE
:10444000000104F04DFE4FF00103184607F120076C
:10445000BD4680BD80B500AF4FF40060C4F20000DF
:104460004FF0010104F060FF4FF40060C4F200005F
:104470004FF001014FF0010204F01EFF4FF4006005
:10448000C4F200004FF0000104F0FCFD4FF40060A6
:10449000C4F200004FF0010104F022FE80BD00BF15
:1044A00080B500AF4FF40060C4F200004FF000018F
:1044B00004F016FE4FF40060C4F200004FF000015B
:1044C00004F0E0FD4FF40060C4F200004FF0010181
:1044D0004FF0000204F0F0FE4FF40060C4F2000060
:1044E0004FF0010104F020FF80BD00BF98B500AF80
:1044F0004FF40060C4F200004FF0010104F014FF1B
:1045000040F2E013C2F200031B689C6A40F2E01321
:10451000C2F200031B6803F1680140F2E013C2F22B
:1045200000031B6803F1500240F2E013C2F20003E3
:104530001B6803F16403084611461A46A04798BD5C
:1045400080B483B000AF786040F2E013C2F20003A1
:104550007A681A6040F2E013C2F200031B684FF061
:1045600000021A6640F2E013C2F200031A6844F235
:10457000A143C0F60003D36540F2E013C2F200038A
:104580001A6844F25543C0F60003936540F2E01305
:10459000C2F200031B684FF000025A6540F2E013BC
:1045A000C2F200031A6844F27533C0F600031365C3
:1045B00007F10C07BD4680BC704700BF80B588B0CE
:1045C00000AF0346FB804FF00003FB834FF0080071
:1045D0004FF00101FDF72EFC40F2A403C2F20003EC
:1045E0001A6841F25973CDF2B713A3FB02134FEAD5
:1045F00093339BB203F1FF33FB83FB887B61FB8B1F
:104600003B824FF000033B834FF000037B8207F1B6
:1046100010034FF44060C4F20000194604F098FC07
:104620004FF44060C4F200004FF0010104F038FD87
:104630004FF4407003F00EFF4FF032033B734FF026
:104640000E037B734FF00103BB734FF00103FB7349
:1046500007F10C03184603F011FF4FF44060C4F259
:1046600000004FF0010104F05FFE4FF44060C4F21F
:1046700000004FF001014FF0000204F01DFE4FF466
:104680004060C4F200004FF0000104F029FD4FF03B
:104690000103184607F12007BD4680BD80B500AF75
:1046A0004FF44060C4F200004FF0010104F03CFE02
:1046B0004FF44060C4F200004FF001014FF00102DE
:1046C00004F0FAFD4FF44060C4F200004FF0000126
:1046D00004F0D8FC4FF44060C4F200004FF0010138
:1046E00004F0FEFC80BD00BF80B500AF4FF4406019
:1046F000C4F200004FF0000104F0F2FC4FF44060FF
:10470000C4F200004FF0000104F0BCFC4FF4406024
:10471000C4F200004FF001014FF0000204F0CCFDA4
:104720004FF44060C4F200004FF0010104F0FCFDC2
:1047300080BD00BF98B500AF4FF44060C4F20000E8
:104740004FF0010104F0F0FD40F2E413C2F2000367
:104750001B689C6A40F2E413C2F200031B6803F179
:10476000680140F2E413C2F200031B6803F1500237
:1047700040F2E413C2F200031B6803F1640308462D
:1047800011461A46A04798BD80B483B000AF786048
:1047900040F2E413C2F200037A681A6040F2E413B4
:1047A000C2F200031B684FF000021A6640F2E413E5
:1047B000C2F200031A6844F2E963C0F60003D3654D
:1047C00040F2E413C2F200031A6844F29D63C0F69B
:1047D0000003936540F2E413C2F200031B684FF03C
:1047E00000025A6540F2E413C2F200031A6844F270
:1047F000BD53C0F60003136507F10C07BD4680BC2E
:10480000704700BF90B587B000AFF860B960FA712B
:10481000BB714FF00003FB75FBF7B6FCFB685C68EF
:10482000BA7997F82C301046B96A4FF00802A047C1
:104830000346012B03D04FF00303FB751DE0BB6A59
:10484000B3F5964F03D94FF023033B6109E0BB6AF0
:104850004FEA430247F6A073C0F21703B3FBF2F32B
:104860003B61BB681B683A6992B2104698470346A1
:10487000012B02D04FF00303FB75FBF78BFCFB7D94
:10488000184607F11C07BD4690BD00BF80B584B037
:1048900000AFF860B9607A60FBF776FCFB684FF018
:1048A00000025A70BB681B684FF001004FF0000116
:1048B00098477B689B689847FBF76CFC07F11007EB
:1048C000BD4680BD80B582B000AF78603960FBF72F
:1048D0005BFC7B681B684FF000004FF000019847BD
:1048E0003B68DB689847FBF755FC07F10807BD46B6
:1048F00080BD00BF80B586B000AFF860B9607A6057
:104900003B604FF00003BB754FF00003FB75FBF7F6
:104910003BFCFB68B3F80A319BB2032B26D9FB683A
:1049200003F10202FB68B3F80A319BB21046194644
:10493000FDF7A4F80346002B18D1FB689B78DAB288
:10494000BB681A70FB68B3F80A319BB2A3F103038A
:104950009AB23B681A80FB6803F1020303F101027B
:104960007B681A604FF00103BB7502E04FF005034E
:10497000FB75FBF70FFCFB7D184607F11807BD46DA
:1049800080BD00BF80B586B000AFF860B9603B6005
:104990001346FB714FF00003FB75FBF7F5FBFB685B
:1049A0005B78DBB2012B55D13B6803F1FF32FB682A
:1049B000C3F80421FB684FF00102A3F80821FB684B
:1049C000D3F80431FA791A70FB68B3F808319AB257
:1049D0003B8CD3189AB2FB68A3F80821FB68D3F884
:1049E0000421FB68B3F808319BB210461946FDF765
:1049F00045F80346BB82FB68B3F808319BB21A4600
:104A0000B98AC9B2F8688218917003F101039AB2A9
:104A1000FB68A3F80821FB68B3F808319BB21A467B
:104A2000B98A4FEA112189B2C9B2F8688218917027
:104A300003F101039AB2FB68A3F80821FB684FF069
:104A400001021A70BB681B684FF000004FF00101B3
:104A5000984702E04FF00503FB75FBF79BFBFB7DDE
:104A6000184607F11807BD4680BD00BF80B586B067
:104A700000AFF860B9607A604FF00003FB757B68A7
:104A8000DB6807F1160210469847FB685B78DBB2DB
:104A9000032B4DD801A252F823F000BFAD4A000805
:104AA000BD4A0008F54A0008B54A0008BB689B6883
:104AB00098473DE0BB689B68984739E0FB684FF03A
:104AC0000002A3F80A21FB68B3F80A319BB21A4628
:104AD000B97DF8688218917003F101039AB2FB68FE
:104AE000A3F80A21FB684FF002025A70BB689B686A
:104AF00098471DE0FB68B3F80A319BB2FF2B0FD833
:104B0000FB68B3F80A319BB21A46B97DF86882187F
:104B1000917003F101039AB2FB68A3F80A2103E044
:104B2000FB684FF003025A70BB689B68984700BF50
:104B3000FB7D184607F11807BD4680BD80B586B0DD
:104B400000AFF860B9607A604FF00003FB75FB6856
:104B50001B78DBB2002B02D0012B08D040E0BB68F1
:104B60001B684FF001004FF00001984738E0FB68E8
:104B7000B3F808319BB2002B1DD0BB689B68FA6864
:104B8000D2F804211278D2B2D2B252B2104698476B
:104B9000FB68D3F8043103F10102FB68C3F8042178
:104BA000FB68B3F808319BB203F1FF339AB2FB689C
:104BB000A3F8082114E007F1040318464FF003019D
:104BC000FCF716FA0346FB75BB681B684FF0010043
:104BD0004FF000019847FB684FF000021A7000BFC9
:104BE000FB7D184607F11807BD4680BD80B586B02D
:104BF00000AFF860B9607A604FF00003FB75FB68A6
:104C00005B78DBB2022B0BD0032B11D0002B10D121
:104C100078684FF00001FCF7EBF90346FB7508E0FC
:104C200078684FF00101FCF7E3F90346FB7500E0FB
:104C300000BFBB68DB689847FB684FF001025A7001
:104C4000FB7D184607F11807BD4680BD80B483B0D0
:104C500000AF78607B6803F108031A467B685A60EE
:104C60007B684FF0FF329A607B6803F108031A46B5
:104C70007B68DA607B6803F108031A467B681A6177
:104C80007B684FF000021A6007F10C07BD4680BC3C
:104C9000704700BF80B483B000AF78607B684FF08E
:104CA00000021A6107F10C07BD4680BC704700BFC7
:104CB00080B485B000AF786039607B685B68FB606A
:104CC0003B68FA685A60FB689A683B689A60FB68C0
:104CD0009B683A685A60FB683A689A603B687A68F1
:104CE0001A617B681B6803F101027B681A6007F197
:104CF0001407BD4680BC704780B485B000AF7860B3
:104D000039603B681B68BB60BB68B3F1FF3F03D1F0
:104D10007B681B69FB600DE07B6803F10803FB60A7
:104D200002E0FB685B68FB60FB685B681A68BB6855
:104D30009A42F6D9FB685A683B685A603B685B68E0
:104D40003A689A603B68FA689A60FB683A685A6009
:104D50003B687A681A617B681B6803F101027B6813
:104D60001A6007F11407BD4680BC704780B485B057
:104D700000AF78607B681B69FB607B685B687A6862
:104D800092689A607B689B687A6852685A60FB6890
:104D90005A687B689A4203D17B689A68FB685A60BC
:104DA0007B684FF000021A61FB681B6803F1FF3259
:104DB000FB681A60FB681B68184607F11407BD46BC
:104DC00080BC704780B500AF124B124A126842F0A7
:104DD00001021A600F4B4FF000029A600D4A0D4B12
:104DE0001B6823F0847323F480331360094B0A4A51
:104DF0005A60084B074A126822F480221A60054B59
:104E00004FF00002DA6000F00BF8044B4FF0006244
:104E10009A6080BD003802401030002400ED00E0B0
:104E200080B483B000AF4FF000037B604FF000030D
:104E30003B60274B264A126842F480321A60244BAA
:104E40001B6803F400333B607B6803F101037B6064
:104E50003B68002B03D17B68B3F5A06FEFD11C4BEF
:104E60001B6803F40033002B03D04FF001033B60B9
:104E700002E04FF000033B603B68012B22D1144B52
:104E8000134A92689A60124B114A92689A60104BCA
:104E90000F4A92689A600F4B4FF4E0621A600C4B15
:104EA0000B4A926822F003029A60094B084A926802
:104EB00042F001029A6000BF054B9B6803F00C03AF
:104EC000042BF9D107F10C07BD4680BC704700BF29
:104ED00000380240003C024080B485B000AFF8606A
:104EE000B9607A60FB68A3F10403FB60FB684FF0D4
:104EF00080721A60FB68A3F10403FB60BA68FB6868
:104F00001A60FB68A3F10403FB6044F63D73C0F62E
:104F10000003FA681360FB68A3F11403FB607A686E
:104F2000FB681A60FB68A3F12003FB60FB6818466E
:104F300007F11407BD4680BC704700BF80B500AFC5
:104F400040F2B803C2F200031B68B3F1FF3F02D086
:104F500000F008F9FEE700F005F9FEE7074B1968D5
:104F60000868B0E8F00F80F30988BFF36F8F4FF047
:104F7000000080F311884EF00D0E7047E400002011
:104F800006480068006880F3088862B661B6BFF31F
:104F90004F8FBFF36F8F00DF00BF000008ED00E010
:104FA00080B584B000AF4FF46443CEF20003FB60E1
:104FB000FB681B78DBB2BB60FB684FF0FF021A7026
:104FC000FB681B78DBB2FB71FB79DBB203F05003AB
:104FD000DAB240F2E813C2F200031A7040F2EC13A6
:104FE000C2F200034FF007021A6011E040F2EC1326
:104FF000C2F200031B6803F1FF3240F2EC13C2F26D
:1050000000031A60FB79DBB24FEA4303DBB2FB71AA
:10501000FB79DBB2DBB25BB2002BE7DB40F2EC13D7
:10502000C2F200031B684FEA032240F2EC13C2F203
:1050300000031A6040F2EC13C2F200031B6803F491
:10504000E06240F2EC13C2F200031A60BB68DAB20D
:10505000FB681A704EF62053CEF200034EF6205233
:10506000CEF20002126842F470021A604EF620532B
:10507000CEF200034EF62052CEF20002126842F049
:1050800070421A6000F0B4F840F2B803C2F20003B4
:105090004FF000021A60FFF773FFFFF74FFF4FF06A
:1050A0000003184607F11007BD4680BD80B400AF6D
:1050B0004EF60453CEF200034FF080521A60BFF355
:1050C0004F8FBFF36F8FBD4680BC704780B500AF78
:1050D00000F048F840F2B803C2F200031B6803F185
:1050E000010240F2B803C2F200031A60BFF34F8F0F
:1050F000BFF36F8F40F2B803C2F200031B68012BAD
:105100000BD14EF60453CEF200031B6803F0FF03ED
:10511000002B02D000F026F8FEE780BD80B500AF7E
:1051200040F2B803C2F200031B68002B02D100F06A
:1051300019F8FEE740F2B803C2F200031B6803F15E
:10514000FF3240F2B803C2F200031A6040F2B80323
:10515000C2F200031B68002B03D14FF0000000F0E7
:105160000BF880BDEFF311804FF0500181F31188EF
:1051700070474FF00003184680F31188704700BF56
:10518000EFF30980BFF36F8F0D4B1A6820E9F00F22
:1051900010602DE908404FF0500080F31188FDF7B2
:1051A0006BFC4FF0000080F31188BDE808401968DF
:1051B0000868B0E8F00F80F30988BFF36F8F70477D
:1051C000E400002080B500AFFFF7CCFFFDF752FBF5
:1051D0000346002B06D04EF60453CEF200034FF0E8
:1051E00080521A604FF00000FFF7C6FF80BD00BF7D
:1051F00080B400AF4EF21403CEF2000344F61F62F7
:105200001A604EF21003CEF200034FF007021A604C
:10521000BD4680BC704700BF90B583B000AFEFF3D0
:1052200005847C607B680F2B13D94AF66003C0F6B7
:1052300000031A687B68D3181B78FB7040F2E813F0
:10524000C2F200031B78FA789A4202D2FFF78AFF73
:10525000FEE74EF60C53CEF200031B6803F4E06247
:1052600040F2EC13C2F200031B689A4202D9FFF726
:1052700079FFFEE707F10C07BD4690BD80B584B00D
:1052800000AF786039607B68FB60FB68002B02D15F
:10529000FFF768FFFEE7FFF719FFFB681A68FB6876
:1052A000DB6BF968096C01FB03F3D218FB685A60E9
:1052B000FB684FF000029A63FB681A68FB689A600B
:1052C000FB681A68FB68DB6B03F1FF33F968096C54
:1052D00001FB03F3D218FB68DA60FB684FF0FF3282
:1052E0005A64FB684FF0FF329A643B68002B0FD181
:1052F000FB681B69002B17D0FB6803F110031846ED
:10530000FDF7BCFC0346012B0ED1FFF7CFFE0BE0EF
:10531000FB6803F110031846FFF798FCFB6803F1E4
:1053200024031846FFF792FCFFF7F8FE4FF0010345
:10533000184607F11007BD4680BD00BF80B588B094
:1053400000AFF860B9601346FB714FF00003BB611A
:10535000FB68002B02D1FFF705FFFEE7BB68002BBF
:1053600003D14FF00003FB6106E0FB68BA6802FB63
:1053700003F303F10103FB61FB6903F14C031846DE
:1053800003F06EFC03467B617B69002B1AD07B69BE
:105390003B61BB68002B03D13A693B691A6004E0AA
:1053A0007B6903F14C023B691A603B69FA68DA6376
:1053B0003B69BA681A6438694FF00101FFF75EFF74
:1053C0003B69BB61BB69002B02D1FFF7CBFEFEE757
:1053D000BB69184607F12007BD4680BD80B584B083
:1053E00000AF0346FB714FF04C0003F039FC03465D
:1053F000FB60FB68002B38D0FB684FF000025A605E
:10540000FB684FF000021A60FB684FF000029A60E0
:10541000FB684FF00002DA60FB684FF000029A630D
:10542000FB684FF00102DA63FB684FF000021A6478
:10543000FB684FF0FF325A64FB684FF0FF329A640A
:10544000FB6803F110031846FFF700FCFB6803F14B
:1054500024031846FFF7FAFBF8684FF000014FF0FD
:1054600000024FF0000300F00DF8FB68002B02D1A2
:10547000FFF778FEFEE7FB68184607F11007BD4608
:1054800080BD00BF80B58AB000AFF860B9607A60B7
:105490003B604FF000037B62FB683B623B6A002B82
:1054A00002D1FFF75FFEFEE7BB68002B03D13B6A2A
:1054B0001B6C002B02D14FF0010301E04FF0000301
:1054C000002B02D1FFF74EFEFEE73B68022B03D113
:1054D0003B6ADB6B012B02D14FF0010301E04FF07F
:1054E0000003002B03D1FFF73DFEFEE700BFFFF7EF
:1054F000EDFD3B6A9B6B1A463B6ADB6B9A4202D31B
:105500003B68022B1FD1386AB9683A6800F0B0F9DD
:10551000F8613B6A5B6A002B0BD03B6A03F1240302
:105520001846FDF7ABFB0346012B07D1FFF7BEFD85
:1055300004E0FB69002B01D0FFF7B8FDFFF7EEFD9B
:105540004FF001035DE07B68002B04D1FFF7E6FD1F
:105550004FF0000355E07B6A002B07D107F11403DD
:105560001846FDF7FBFB4FF001037B62FFF7D6FD0A
:10557000FDF7B2F8FFF7AAFD3B6A5B6CB3F1FF3FA2
:1055800003D13B6A4FF000025A643B6A9B6CB3F153
:10559000FF3F03D13B6A4FF000029A64FFF7BEFD64
:1055A00007F1140207F1040310461946FDF7F2FB58
:1055B0000346002B1ED1386A00F060FA0346002B28
:1055C00012D03B6A03F110027B6810461946FDF7C2
:1055D000F9FA386A00F0E8F9FDF790F80346002B75
:1055E00084D1FFF763FD82E7386A00F0DDF9FDF74B
:1055F00085F87CE7386A00F0D7F9FDF77FF84FF0BF
:105600000003184607F12807BD4680BD80B586B067
:1056100000AF786039607B683B613B69002B02D149
:10562000FFF7A0FDFEE73B691B6C002B02D0FFF7E4
:1056300099FDFEE7FFF7F0FDFFF794FDF8603B6989
:105640009B6B1A463B69DB6B9A4229D23B699B6B89
:1056500003F101023B699A633B699B6CB3F1FF3F25
:1056600014D13B695B6A002B16D03B6903F124031C
:105670001846FDF703FB0346002B0DD03B68002BBB
:105680000AD03B684FF001021A6005E03B699B6C51
:1056900003F101023B699A644FF001037B6102E070
:1056A0004FF000037B61F868FFF766FD7B691846E1
:1056B00007F11807BD4680BD80B58AB000AFF8601D
:1056C000B9607A603B604FF000037B62FB683B622D
:1056D0003B6A002B02D1FFF745FDFEE7BB68002BBC
:1056E00003D13B6A1B6C002B02D14FF0010301E098
:1056F0004FF00003002B03D1FFF734FDFEE700BF9E
:10570000FFF7E4FC3B6A9B6B002B40D03B6ADB68F5
:10571000FB61386AB96800F01FF93B68002B1FD1A4
:105720003B6A9B6B03F1FF323B6A9A633B6A1B68DF
:10573000002B05D1FDF790FE03461A463B6A5A60DE
:105740003B6A1B69002B1DD03B6A03F1100318460E
:10575000FDF794FA0346012B14D1FFF7A7FC11E0E3
:105760003B6AFA69DA603B6A5B6A002B0AD03B6AE3
:1057700003F124031846FDF781FA0346002B01D0FC
:10578000FFF794FCFFF7CAFC4FF001036BE07B6866
:10579000002B04D1FFF7C2FC4FF0000363E07B6AEB
:1057A000002B07D107F114031846FDF7D7FA4FF085
:1057B00001037B62FFF7B2FCFCF78EFFFFF786FC6C
:1057C0003B6A5B6CB3F1FF3F03D13B6A4FF00002D1
:1057D0005A643B6A9B6CB3F1FF3F03D13B6A4FF0C5
:1057E00000029A64FFF79AFC07F1140207F1040320
:1057F00010461946FDF7CEFA0346002B2CD1386A25
:1058000000F022F90346002B20D03B6A1B68002BD6
:1058100008D1FFF75BFC3B6A5B681846FDF7EEFCBE
:10582000FFF77CFC3B6A03F124027B6810461946B3
:10583000FDF7C8F9386A00F0B7F8FCF75FFF0346D8
:10584000002B7FF45CAFFFF731FC59E7386A00F0BA
:10585000ABF8FCF753FF53E7386A00F0A5F8FCF704
:105860004DFF4FF00003184607F12807BD4680BDE5
:1058700080B586B000AFF860B9607A604FF0000381
:105880007B61FB681B6C002B0ED1FB681B68002B37
:1058900056D1FB685B681846FDF754FD7861FB68DC
:1058A0004FF000025A604BE07B68002B1AD1FB6876
:1058B0009A68FB681B6C1046B9681A4604F092FDA2
:1058C000FB689A68FB681B6CD218FB689A60FB68DF
:1058D0009A68FB685B689A4232D3FB681A68FB6877
:1058E0009A602DE0FB68DA68FB681B6C1046B968AB
:1058F0001A4604F077FDFB68DA68FB681B6CC3F19D
:105900000003D218FB68DA60FB68DA68FB681B6882
:105910009A4208D2FB685A68FB681B6CC3F100030B
:10592000D218FB68DA607B68022B09D1FB689B6B9D
:10593000002B05D0FB689B6B03F1FF32FB689A6379
:10594000FB689B6B03F10102FB689A637B69184655
:1059500007F11807BD4680BD80B582B000AF786002
:1059600039607B681B6C002B19D07B68DA687B6818
:105970001B6CD2187B68DA607B68DA687B685B68CE
:105980009A4203D37B681A687B68DA607B68DA68BE
:105990007B681B6C386811461A4604F023FD07F13A
:1059A0000807BD4680BD00BF80B582B000AF7860FB
:1059B000FFF78CFB14E07B685B6A002B15D07B68DB
:1059C00003F124031846FDF759F90346002B01D0D3
:1059D000FDF738FA7B689B6C03F1FF327B689A64B1
:1059E0007B689B6C002BE6DC00E000BF7B684FF01F
:1059F000FF329A64FFF792FBFFF768FB14E07B68C5
:105A00001B69002B15D07B6803F110031846FDF7C6
:105A100035F90346002B01D0FDF714FA7B685B6C67
:105A200003F1FF327B685A647B685B6C002BE6DC19
:105A300000E000BF7B684FF0FF325A64FFF76EFB57
:105A400007F10807BD4680BD80B584B000AF78601F
:105A5000FFF73CFB7B689B6B002B03D14FF00103EE
:105A6000FB6002E04FF00003FB60FFF757FBFB68B1
:105A7000184607F11007BD4680BD00BF80B584B051
:105A800000AF7860FFF722FB7B689B6B1A467B6850
:105A9000DB6B9A4203D14FF00103FB6002E04FF051
:105AA0000003FB60FFF73AFBFB68184607F110079D
:105AB000BD4680BD80B483B000AF0346FB71094B87
:105AC00097F907204FEA5212F97901F01F014FF0C0
:105AD000010000FA01F143F8221007F10C07BD465E
