:020000040800F2
:10000000C44C0020790D0008E10D0008E10D000846
:10001000E10D0008E10D0008E10D000800000000FE
:10002000000000000000000000000000412E000859
:10003000E10D00080000000065300008A93000084C
:10004000E10D0008553F0008E10D0008E10D000832
:10005000E10D0008E10D0008E10D0008E10D0008C8
:10006000E10D0008E10D0008E10D0008E10D0008B8
:10007000E10D0008E10D0008E10D0008E10D0008A8
:10008000E10D0008E10D0008E10D0008E10D000898
:10009000E10D0008E10D0008E10D0008E10D000888
:1000A000E10D0008E10D0008E10D0008E10D000878
:1000B000E10D0008E10D000845250008E10D0008EC
:1000C000E10D0008E10D0008E10D0008E10D000858
:1000D000E10D0008E10D0008E10D0008B53400084D
:1000E000E10D0008E10D0008E10D0008E10D000838
:1000F000E10D0008E10D0008E10D0008E10D000828
:10010000E10D0008E10D0008E10D0008E10D000817
:10011000E10D0008E10D0008E10D0008E10D000807
:10012000E10D0008E10D0008E10D0008E10D0008F7
:10013000E10D0008E10D0008E10D0008E10D0008E7
:10014000E10D0008E10D0008E10D0008E10D0008D7
:10015000E10D0008E10D0008E10D0008E10D0008C7
:10016000E10D0008E10D0008E10D0008E10D0008B7
:10017000E10D0008E10D0008E10D0008E10D0008A7
:10018000E10D0008E10D000880B400AFBD4680BC61
:10019000704700BF80B400AFBD4680BC704700BF51
:1001A00080B487B000AF786013460A467A803B80FF
:1001B0004FF00003FB754FF00003FB8140F2060394
:1001C000C2F200034FF010021A704FF00003FB81DF
:1001D0000DE040F2BC03C2F20003FA894FEA82024A
:1001E0009B18334A1A60FB8903F10103FB813B88AA
:1001F0004FEA53039BB2FA899A42EAD340F20403CE
:10020000C2F200031B787A889A4246D37A883B88E8
:10021000D21840F20403C2F200031B78194640F2E0
:100220000603C2F200031B78CB189A4235DC7A88A9
:1002300040F20803C2F200031B78D31A3B6128E0A6
:1002400040F2BC03C2F200033A6933F812309BB2A9
:100250004FEA13239BB2DAB27B681A707B6803F112
:1002600001037B6040F2BC03C2F200033A6933F839
:1002700012309BB2DAB27B681A707B6803F101031B
:100280007B603B6903F101033B613B8803F1FF3372
:100290003B803B88002BD3D102E04FF00103FB757C
:1002A000FB7D184607F11C07BD4680BC704700BFA8
:1002B00066E6F64280B487B000AFF86079813A8193
:1002C000FB714FF00003FB75FB7D184607F11C071F
:1002D000BD4680BC704700BF80B485B000AFF860F9
:1002E00079813A81FB714FF00103184607F1140739
:1002F000BD4680BC704700BF80B483B000AF78605B
:1003000013460A467A803B804FF00103184607F1F6
:100310000C07BD4680BC704790B587B002AF7860CF
:10032000F970BA707B704FF00003FB737B684FF07D
:10033000020283F83620BB78002B05D0BB78002B57
:1003400002D0BB78F72B03D94FF00203FB7364E0B4
:100350007B68BA7883F83420FB78002B41D17A6827
:1003600042F29D63C0F60003D3607A6842F2D5631F
:10037000C0F6000313617A6842F29573C0F6000379
:1003800093617A6842F20573C0F6000353617B689B
:100390004FF00002DA617A6842F67D03C0F600038E
:1003A00013627A6842F64D13C0F6000353627A680E
:1003B00042F6FD13C0F6000393627B6803F1380038
:1003C0007B6803F150017B6893F834207B783C6AAA
:1003D000009497F82440019402F01CF90346FB7343
:1003E00002E04FF00203FB73FB7B002B15D17B680F
:1003F00003F16403184600F021FA0346002B03D1F1
:100400004FF00303FB7308E07B68FA7883F835202C
:100410007B684FF0010283F83620FB7B184607F11A
:100420001407BD4690BD00BF80B584B000AF7860B2
:100430004FF00003FB737B6893F83630012B11D12A
:100440007B68DB687A6802F168007A6802F138013B
:100450007A6802F1500298477B684FF0000283F8F7
:10046000362002E04FF00603FB73FB7B184607F1D2
:100470001007BD4680BD00BFB0B586B002AF786042
:100480004FF00003FB727B6893F83630002B02D0EC
:100490004FF00603CAE07B6803F1640207F10A0328
:1004A0001046194600F0F0F90346012B40F0BC80DD
:1004B000BB7A032B00F2B88001A252F823F000BFF0
:1004C00029060008D10400082105000829060008B3
:1004D0007B685C697B6803F168007B6803F1040159
:1004E0007A687B6803F10603A0470346FB72FB7A38
:1004F000002B40F094807B681A797B6893F8343045
:100500009A4204D07B681B79002B40F08A807B687C
:1005100003F1640318464FF0020100F09FF983E0F5
:100520007B681B681A787B685A717B684FF0010200
:100530001A724FF00003FB602DE040F20C03C2F290
:100540000003FA6813F83230002B28D040F20C0375
:10055000C2F20003FA6813F832207B685B799A4292
:1005600015D140F20C02C2F20002FB684FEAC3034D
:10057000D3185B687A6811687A6802F10602084647
:100580001146984703461A467B681A7208E0FB68D2
:1005900003F10103FB60FB680F2BCEDD00E000BF21
:1005A0007B681B79002B3ED07B681B7A002B22D006
:1005B0007B684FF00002DA807B6819687B68DB8813
:1005C0001A468A187968497961F07F01C9B21170B9
:1005D00003F101039AB27B68DA807B6819687B6853
:1005E000DB881A468A187968097A117003F10103C9
:1005F0009AB27B68DA807B689C697B6803F168004B
:100600007B6803F138017B6893F834207B681B68B2
:100610007D68ED880095A0470346FB7204E000BFAB
:1006200002E000BF00E000BF4FF00003184607F1F2
:100630001007BD46B0BD00BF80B586B004AF44F220
:100640000430C2F2000002F0A3FF44F20430C2F210
:10065000000001F0A1FF4FF4614300934FF000034D
:10066000019344F20430C2F200004FF000014FF059
:100670000A024FF00003FFF74FFE0346FB714FF0F5
:10068000010300934FF0000301934FF00003029326
:100690004FF00003039340F2BD60C0F6000044F247
:1006A000D011C0F600014FF480624FF0000300F05B
:1006B000D7FF07F10807BD4680BD00BF80B582B0F7
:1006C00000AF786044F20430C2F20000FFF7ACFEE5
:1006D00044F27843C2F200034FF000021A7144F270
:1006E0000430C2F20000FFF7C7FE4FF00A0001F02D
:1006F00093F844F27843C2F200031B6803F101024D
:1007000044F27843C2F200031A60E8E780B586B08D
:1007100000AF786039604FF00003BB753B681B8801
:10072000052B40F082807B6803F101031B784FEAC0
:100730000323BB827B6803F102031B781A46BB8A42
:1007400042EA0303BB82BB8A03F10103BB827B68DD
:1007500003F103031B784FEA03237B827B6803F1D9
:1007600004031B781A467B8A42EA03037B827B8A56
:10077000002B56D07A8A40F2CF739A4251D87B68C8
:10078000FB603B684FF000021A80FB684FF00202EA
:100790001A70FB6803F10103FB603B681B8803F1DF
:1007A00001039AB23B681A807B8A03F00703002B8F
:1007B00008D07B8A4FEAD3039BB2DBB203F101037B
:1007C000FB7504E07B8A4FEAD3039BB2FB75FB68A1
:1007D000FA7D1A70FB6803F10103FB603B681B881C
:1007E00003F101039AB23B681A80BA8A7B8AF868DF
:1007F00011461A46FFF780FD0346FB72FB7A002B79
:1008000006D0FB7A184600F093FA0346BB750FE05A
:100810003B681A88FB7D9BB2D3189AB23B681A805A
:1008200006E04FF00303BB7502E04FF00303BB7516
:10083000BB7D184607F11807BD4680BD80B483B064
:1008400000AF78607B684FF000025A704FF00103F0
:10085000184607F10C07BD4680BC704780B483B0D2
:1008600000AF78600B46FB707B684FF001025A7056
:100870007B68FA781A704FF00103184607F10C07ED
:10088000BD4680BC704700BF80B485B000AF7860C3
:1008900039604FF00003FB737B685B78002B0AD054
:1008A0007B681A783B681A707B684FF000025A70B8
:1008B0004FF00103FB73FB7B184607F11407BD469D
:1008C00080BC704780B582B000AF786039607B68CB
:1008D00003F1010240F2DC13C2F200031B88104650
:1008E00040F2BC11C2F200011A4603F06FFB40F265
:1008F000DC13C2F200031B8803F101039AB23B68C8
:100900001A804FF00003184607F10807BD4680BD66
:1009100080B58AB000AF786039604FF000037B6229
:100920004FF000033B624FF00003FB614FF0000308
:10093000BB617B681B8A9BB27B627B6A23F440535A
:100940007B623B68DB887A6A42EA03037B627B6AEC
:100950009AB27B681A827B689B899BB27B627B6AB6
:1009600023F4B05323F00C037B623B689A883B6806
:100970001B8942EA03039AB23B685B8942EA03039C
:100980009BB27A6A42EA03037B627B6A9AB27B6813
:100990009A817B689B8A9BB27B627B6A23F440735B
:1009A0007B623B689B897A6A42EA03037B627B6ACB
:1009B0009AB27B689A8207F10803184600F082FC1D
:1009C0007A684FF48053C4F201039A4206D07A68E1
:1009D0004FF4A053C4F201039A4202D17B693B62F7
:1009E00001E03B693B627B689B899BB29BB21BB277
:1009F000002B0FDA3A6A13464FEA83039B184FEA3B
:100A000083029A183B681B684FEA4303B2FBF3F377
:100A1000FB610EE03A6A13464FEA83039B184FEAE4
:100A200083029A183B681B684FEA8303B2FBF3F317
:100A3000FB61FA6948F21F53C5F2EB13A3FB0213E3
:100A40004FEA53134FEA03137B627B6A4FEA131397
:100A50004FF0640202FB03F3FA69D31ABB617B68AF
:100A60009B899BB29BB21BB2002B13DABB694FEA86
:100A7000C30303F1320248F21F53C5F2EB13A3FB89
:100A800002134FEA531303F007037A6A42EA03039F
:100A90007B6212E0BB694FEA031303F1320248F2B2
:100AA0001F53C5F2EB13A3FB02134FEA531303F0DA
:100AB0000F037A6A42EA03037B627B6A9AB27B681D
:100AC0001A8107F12807BD4680BD00BF80B483B0FE
:100AD00000AF78600B46FB70FB78002B08D07B687A
:100AE0009B899BB243F400539AB27B689A8107E0DA
:100AF0007B689B899BB223F400539AB27B689A81EE
:100B000007F10C07BD4680BC704700BF80B483B0BE
:100B100000AF78600B467B807B884FEAC3534FEA77
:100B2000D3539AB27B689A8007F10C07BD4680BC0C
:100B3000704700BF80B483B000AF78607B689B884B
:100B40009BB24FEAC3534FEAD3539BB2184607F107
:100B50000C07BD4680BC704780B487B000AF78609A
:100B600013460A467A807B704FF000033B614FF0DA
:100B70000003FB604FF00003BB604FF000037B619C
:100B80007B687B617B88DBB24FEA5313DBB23B614E
:100B90007B8803F01F03FB60FB684FF0010202FA41
:100BA00003F3BB603B69012B04D17B6903F10C03A8
:100BB0007B610BE03B69022B04D17B6903F11003DD
:100BC0007B6103E07B6903F114037B617B78002B7D
:100BD00007D07B697A691168BA6841EA02021A6033
:100BE00008E07B697A691168BA686FEA020201EA73
:100BF00002021A6007F11C07BD4680BC704700BFA7
:100C000080B485B000AF78600B467B804FF0000366
:100C1000FB737B681B889AB27B8802EA03039BB252
:100C2000002B03D04FF00103FB7302E04FF00003F1
:100C3000FB73FB7B184607F11407BD4680BC704769
:100C400080B483B000AF78600B467B807B886FEA0E
:100C500003039AB27B681A8007F10C07BD4680BC7B
:100C6000704700BF80B487B000AF78600B467B80D0
:100C70004FF00003FB604FF000037B614FF0000377
:100C8000BB604FF00003FB747B88DBB24FEA531369
:100C9000DBB2BB607B8803F01F037B617B694FF095
:100CA000010202FA03F37B61BB68012B07D17B6869
:100CB0009B899BB27A6902EA03037B6111E0BB68FE
:100CC000022B07D17B681B8A9BB27A6902EA030375
:100CD0007B6106E07B689B8A9BB27A6902EA030328
:100CE0007B617B884FEA13239BB2FB60FB684FF06C
:100CF000010202FA03F3FB607B681B889BB2FA686F
:100D000002EA0303FB607B69002B06D0FB68002B23
:100D100003D04FF00103FB7402E04FF00003FB74BB
:100D2000FB7C184607F11C07BD4680BC704700BF1E
:100D300080B485B000AF0346FB71FB79012B07D06F
:100D4000072B09D0002B0BD14FF00003FB730BE0F6
:100D50004FF00203FB7307E04FF00603FB7303E061
:100D60004FF00403FB7300BFFB7B184607F1140729
:100D7000BD4680BC704700BF80B582B000AF44F272
:100D80000043C0F600037B6040F20003C2F20003A0
:100D90003B600BE07B681A683B681A603B6803F1B4
:100DA00004033B607B6803F104037B603A6840F214
:100DB000BC03C2F200039A42ECD3074807494FF044
:100DC00000028842B8BF40F8042BFADB00F012FAA8
:100DD00007F10807BD4680BDBC000020C8440020C4
:100DE00080B400AFFEE700BF80B584B000AF78608C
:100DF00039604FF00003FB733B681B88052B2BD138
:100E00007B6803F101031B784FEA0323BB817B68F6
:100E100003F102031B781A46BB8942EA0303BB8134
:100E2000BB8903F10103BB817B6803F10302BB892A
:100E3000104619464FF001024FF00103FFF73AFA4E
:100E40000346FB72FB7A002B09D0FB7A1846FFF7AA
:100E50006FFF0346FB7302E04FF00303FB73FB7B62
:100E6000184607F11007BD4680BD00BF80B584B0AD
:100E700000AF786039604FF00003FB733B681B885C
:100E8000052B57D97B6803F101031B784FEA032335
:100E9000BB817B6803F102031B781A46BB8942EAD7
:100EA0000303BB81BB8903F10103BB817B6803F1B1
:100EB00003031B784FEA03237B817B6803F1040360
:100EC0001B781A467B8942EA03037B817B6803F126
:100ED00005031B787B727B89002B27D07B89782BBD
:100EE00024D87B89DBB24FEA4303DBB27A7A9A4299
:100EF0001CD17B6803F10601BA897B89084611463B
:100F00001A464FF00103FFF7D5F903463B723B7ACF
:100F1000002B06D03B7A1846FFF70AFF0346FB7307
:100F20000BE03B684FF005021A8006E04FF0030328
:100F3000FB7302E04FF00303FB73FB7B184607F1E2
:100F40001007BD4680BD00BF80B586B000AF786099
:100F500039604FF00003FB753B681B88052B70D18F
:100F60007B6803F101031B784FEA0323BB827B6894
:100F700003F102031B781A46BB8A42EA0303BB82D1
:100F8000BB8A03F10103BB827B6803F103031B7877
:100F90004FEA03237B827B6803F104031B787B8287
:100FA0007B8A002B49D07B8A7D2B46D87B68FB60EF
:100FB0003B684FF000021A80FB684FF003021A7082
:100FC000FB6803F10103FB603B681B8803F101032D
:100FD0009AB23B681A807B8ADBB24FEA4303DAB2EB
:100FE000FB681A70FB6803F10103FB603B681B8818
:100FF00003F101039AB23B681A80BA8A7B8AF868C7
:1010000011461A464FF00003FFF754F90346FB72EE
:10101000FB7A002B06D0FB7A1846FFF789FE0346C1
:10102000FB7511E03B681A887B8A4FEA43039BB249
:10103000D3189AB23B681A8006E04FF00303FB75A1
:1010400002E04FF00303FB75FB7D184607F118071C
:10105000BD4680BD80B586B000AF786039604FF086
:101060000003FB753B681B88092B40F2BC807B6842
:1010700003F101031B784FEA0323BB827B6803F172
:1010800002031B781A46BB8A42EA0303BB82BB8A6F
:1010900003F10103BB827B6803F103031B784FEA72
:1010A00003237B827B6803F104031B781A467B8A47
:1010B00042EA03037B827B6803F105031B784FEA56
:1010C00003233B827B6803F106031B781A463B8AA5
:1010D00042EA03033B823B8A03F101033B827B68C4
:1010E00003F107031B784FEA0323FB817B6803F1BD
:1010F00008031B781A46FB8942EA0303FB817B68DD
:1011000003F109031B787B737B8A002B68D07B8AF1
:101110007D2B65D8FB89002B62D0FB89792B5FD8AA
:10112000FB894FEA43027B7B9A4259D17B6803F1EA
:101130000A013A8AFB89084611461A464FF0010314
:10114000FFF7B8F80346BB75BB7D002B3ED17B682B
:10115000BB603B684FF000021A80BB684FF017027B
:101160001A70BB6803F10103BB603B681B8803F185
:1011700001039AB23B681A807B8ADBB24FEA4303D1
:10118000DAB2BB681A70BB6803F10103BB603B684D
:101190001B8803F101039AB23B681A80BA8A7B8AE2
:1011A000B86811461A464FF00003FFF783F803466C
:1011B000BB75BB7D002B09D13B681A887B8A4FEA3F
:1011C00043039BB2D3189AB23B681A80BB7D002BB5
:1011D00009D0BB7D1846FFF7ABFD0346FB7502E067
:1011E0004FF00303FB75FB7D184607F11807BD465A
:1011F00080BD00BF80B500AF01F0ECFCFFF71CFA2A
:1012000000F05CFBFEE700BF80B400AFFEE700BF6C
:1012100080B483B000AF78603960FEE780B582B0FB
:1012200000AF02F039FD03467B607B6807F10807D9
:10123000BD4680BD80B485B000AF78600B467B8032
:101240004FF0FF03FB734FF0FF03BB731DE07B68A0
:101250001A78BB7B82EA0303DBB2BB607B6803F1D5
:1012600001037B6044F2E013C0F60003BA689B18E8
:101270001A78FB7B82EA0303BB7344F2E023C0F6D7
:101280000003BA689B181B78FB737B88002B0CBF8C
:1012900000230123DBB27A8802F1FF327A80002B2F
:1012A000D5D1FB7B4FEA03239AB2BB7B9BB242EAC8
:1012B00003039BB29BB2184607F11407BD4680BCDE
:1012C000704700BF80B489B000AF78604FF0000372
:1012D000BB614FF000037B614FF00003FB614FF0F7
:1012E00002033B614FF00003FB604FF00203BB6061
:1012F0004FF46053C4F202039B6803F00C03BB611C
:10130000BB69042B0AD0082B0FD0002B64D17A685C
:101310004FF41053C0F2F403136064E07A684FF4A2
:101320009053C0F27A0313605DE04FF46053C4F24F
:1013300002035B6803F480034FEA9353FB604FF4AE
:101340006053C4F202035B6803F03F03BB60FB68B9
:10135000002B16D04FF49053C0F27A03BA68B3FB57
:10136000F2F24FF46053C4F202035B68194647F689
:10137000C07301EA03034FEA931303FB02F3FB611B
:1013800015E04FF41053C0F2F403BA68B3FBF2F265
:101390004FF46053C4F202035B68194647F6C0730A
:1013A00001EA03034FEA931303FB02F3FB614FF4DB
:1013B0006053C4F202035B6803F440334FEA134303
:1013C00003F101034FEA43033B61FA693B69B2FB56
:1013D000F3F27B681A6006E07A684FF41053C0F2AB
:1013E000F403136000BF4FF46053C4F202039B6820
:1013F00003F0F003BB61BB694FEA1313BB6140F21A
:101400008C03C2F20003BA699B181B78DBB27B61C4
:101410007B681A687B6922FA03F27B685A604FF492
:101420006053C4F202039B6803F4E053BB61BB69E1
:101430004FEA9323BB6140F28C03C2F20003BA6906
:101440009B181B78DBB27B617B685A687B6922FA48
:1014500003F27B689A604FF46053C4F202039B6806
:1014600003F46043BB61BB694FEA5333BB6140F295
:101470008C03C2F20003BA699B181B78DBB27B6154
:101480007B685A687B6922FA03F27B68DA6007F1AD
:101490002407BD4680BC704780B483B000AF78603D
:1014A0000B46FB70FB78002B0ED04FF46053C4F258
:1014B00002034FF46052C4F20202126B11467A68C2
:1014C00041EA02021A630FE04FF46053C4F20203D0
:1014D0004FF46052C4F20202126B11467A686FEA4E
:1014E000020201EA02021A6307F10C07BD4680BC42
:1014F000704700BF80B483B000AF78600B46FB70CC
:10150000FB78002B0ED04FF46053C4F202034FF46B
:101510006052C4F20202126C11467A6841EA020279
:101520001A640FE04FF46053C4F202034FF46052A8
:10153000C4F20202126C11467A686FEA020201EAF2
:1015400002021A6407F10C07BD4680BC704700BF59
:1015500080B586B000AF786039604FF00003FB754E
:101560003B681B88052B72D17B6803F101031B7854
:101570004FEA0323BB827B6803F102031B781A4600
:10158000BB8A42EA0303BB82BB8A03F10103BB822D
:101590007B6803F103031B784FEA03237B827B689C
:1015A00003F104031B781A467B8A42EA03037B8219
:1015B0007B8A002B47D07B8A7C2B44D87B68FB60DE
:1015C0003B684FF000021A80FB684FF004021A706B
:1015D000FB6803F10103FB603B681B8803F1010317
:1015E0009AB23B681A807B8ADBB24FEA4303DAB2D5
:1015F000FB681A70FB6803F10103FB603B681B8802
:1016000003F101039AB23B681A80BA8A7B8AF868B0
:1016100011461A46FEF7C4FD0346FB72FB7A002B07
:1016200006D0FB7A1846FFF783FB0346FB7511E0F3
:101630003B681A887B8A4FEA43039BB2D3189AB25D
:101640003B681A8006E04FF00303FB7502E04FF0A1
:101650000303FB75FB7D184607F11807BD4680BDE7
:1016600080B58AB002AFF860B9603B601346FB807A
:10167000FB68002B02D101F0E7FCFEE7BB6A042BFC
:1016800002D901F0E1FCFEE7FB881846396B00F057
:101690001DFDB861BB69002B00F09F80BB691A6B10
:1016A000FB8803F1FF334FEA8303D3187B617B6927
:1016B00023F007037B617B6903F00703002B02D053
:1016C00001F0C2FCFEE7FB880093B869B968BA6A0A
:1016D0007B6B00F0B9FB7869F9683A6801F06EFB42
:1016E00003461A46BB691A60FB6A002B02D0FB6AEC
:1016F000BA691A6001F05CFC40F2B823C2F2000340
:101700001B6803F1010240F2B823C2F200031A6021
:1017100040F2E013C2F200031B68002B0FD140F22D
:10172000E013C2F20003BA691A6040F2B823C2F2B1
:1017300000031B68012B18D100F0E4FB15E040F218
:10174000C423C2F200031B68002B0ED140F2E01349
:10175000C2F200031B68DA6ABB6A9A4205D840F2FB
:10176000E013C2F20003BA691A6040F2D423C2F255
:1017700000031B6803F1010240F2D423C2F200030C
:101780001A60BB69DB6A4FF0010202FA03F240F211
:10179000C023C2F200031B681A4340F2C023C2F206
:1017A00000031A60BB69DA6A13464FEA83039B1889
:1017B0004FEA83031A4640F2E413C2F20003D21840
:1017C000BB6903F104031046194601F079F94FF0A3
:1017D0000103FB6101F014FC02E04FF0FF33FB61F9
:1017E000FB69012B11D140F2C423C2F200031B6834
:1017F000002B0AD040F2E013C2F200031B68DA6A41
:10180000BB6A9A4201D201F0C3FBFB69184607F19B
:101810002007BD4680BD00BF80B584B000AF7860B2
:101820004FF00003FB607B68002B3DD040F2D823D3
:10183000C2F200031B68002B02D001F005FCFEE79A
:1018400000F07AF840F2BC23C2F200031A687B6809
:10185000D318BB6040F2E013C2F200031B6803F12F
:101860000403184601F08AF90346002B16D140F212
:10187000E013C2F200031B68DB6A4FF0010202FAB8
:1018800003F36FEA030240F2C023C2F200031B68B5
:101890001A4040F2C023C2F200031A60B86800F098
:1018A000CFFB00F05BF8F860FB68002B01D101F082
:1018B0006FFB07F11007BD4680BD00BF80B586B045
:1018C00004AF4FF0000300934FF0000301934FF07B
:1018D000000302934FF00003039341F62560C0F626
:1018E000000044F2E031C0F600014FF046024FF034
:1018F0000003FFF7B5FE78607B68012B12D101F081
:10190000A3FB40F2C423C2F200034FF001021A60AD
:1019100040F2BC23C2F200034FF000021A6001F053
:10192000B1FA05E07B68002B02D101F08DFBFEE7E8
:1019300007F10807BD4680BD80B400AF40F2D82350
:10194000C2F200031B6803F1010240F2D823C2F285
:1019500000031A60BD4680BC704700BF80B582B0EE
:1019600000AF4FF000037B6040F2D823C2F20003C7
:101970001B68002B02D101F067FBFEE701F018FBAA
:1019800040F2D823C2F200031B6803F1FF3240F299
:10199000D823C2F200031A6040F2D823C2F2000337
:1019A0001B68002B40F08D8040F2B823C2F2000388
:1019B0001B68002B00F0858049E040F27823C2F2DA
:1019C0000003DB68DB683B603B6803F118031846E3
:1019D00001F0D4F83B6803F10403184601F0CEF897
:1019E0003B68DB6A4FF0010202FA03F240F2C023C7
:1019F000C2F200031B681A4340F2C023C2F2000384
:101A00001A603B68DA6A13464FEA83039B184FEA71
:101A100083031A4640F2E413C2F20003D2183B6873
:101A200003F104031046194601F04AF83B68DA6AEC
:101A300040F2E013C2F200031B68DB6A9A4206D34D
:101A400040F2CC23C2F200034FF001021A6040F2D0
:101A50007823C2F200031B68002BAED140F2C823EA
:101A6000C2F200031B68002B1FD017E000F032F811
:101A70000346002B06D040F2CC23C2F200034FF005
:101A800001021A6040F2C823C2F200031B6803F18E
:101A9000FF3240F2C823C2F200031A6040F2C823AA
:101AA000C2F200031B68002BE0D140F2CC23C2F24B
:101AB00000031B68012B04D14FF001037B6001F090
:101AC00067FA01F09DFA7B68184607F10807BD46E2
:101AD00080BD00BF80B586B000AF4FF000037B61D2
:101AE00040F2D823C2F200031B68002B40F0D880DC
:101AF00040F2BC23C2F200031B6803F1010240F272
:101B0000BC23C2F200031A6040F2BC23C2F20003FD
:101B10001B683B613B69002B2ED140F27023C2F25F
:101B200000031B681B68002B02D001F08DFAFEE752
:101B300040F27023C2F200031B68FB6040F2742382
:101B4000C2F200031A6840F27023C2F200031A6066
:101B500040F27423C2F20003FA681A6040F2D02304
:101B6000C2F200031B6803F1010240F2D023C2F26B
:101B700000031A6000F0F8FA40F29C03C2F200037E
:101B80001B683A699A4272D300E000BF40F27023AA
:101B9000C2F200031B681B68002B02D14FF0010347
:101BA00001E04FF00003002B07D040F29C03C2F28B
:101BB00000034FF0FF321A6059E040F27023C2F286
:101BC00000031B68DB68DB68BB60BB685B687B602D
:101BD0003A697B689A4206D240F29C03C2F2000343
:101BE0007A681A6043E0BB6803F10403184600F00A
:101BF000C5FFBB689B6A002B05D0BB6803F11803C7
:101C0000184600F0BBFFBB68DB6A4FF0010202FA26
:101C100003F240F2C023C2F200031B681A4340F2F1
:101C2000C023C2F200031A60BB68DA6A13464FEAA7
:101C300083039B184FEA83031A4640F2E413C2F26F
:101C40000003D218BB6803F104031046194600F0E4
:101C500037FFBB68DA6A40F2E013C2F200031B6888
:101C6000DB6A9A4291D34FF001037B618EE740F229
:101C7000E013C2F200031B68DA6A13464FEA8303DB
:101C80009B184FEA83031A4640F2E413C2F20003A2
:101C9000D3181B68012B0FD94FF001037B610BE0B8
:101CA00040F2C823C2F200031B6803F1010240F2B4
:101CB000C823C2F200031A6040F2CC23C2F2000330
:101CC0001B68002B02D04FF001037B617B69184633
:101CD00007F11807BD4680BD90B585B000AF40F252
:101CE000D823C2F200031B68002B07D040F2CC239C
:101CF000C2F200034FF001021A608FE040F2CC23E1
:101D0000C2F200034FF000021A6040F2E013C2F288
:101D100000031B681A6840F2E013C2F200031B685C
:101D20001B6B9A420FD840F2E013C2F200031A680C
:101D300040F2E013C2F200031B6803F134031046C3
:101D40001946FFF765FA40F2E013C2F200031B6880
:101D50001B6B184644F2E831C0F600014FF0140244
:101D600002F008F90346002B0FD040F2E013C2F254
:101D700000031A6840F2E013C2F200031B6803F18B
:101D8000340310461946FFF743FA40F2C023C2F26B
:101D900000031B687B607B68B3FA83F4FC70FB78FC
:101DA000C3F11F03FB60FA6813464FEA83039B18D5
:101DB0004FEA83031A4640F2E413C2F20003D31839
:101DC0001B68002B02D101F03FF9FEE7FA681346C9
:101DD0004FEA83039B184FEA83031A4640F2E41349
:101DE000C2F20003D318BB60BB685B685A68BB686B
:101DF0005A60BB685A68BB6803F108039A4204D171
:101E0000BB685B685A68BB685A60BB685B68DB6824
:101E10001A4640F2E013C2F200031A6007F11407F9
:101E2000BD4690BD80B582B000AF786000F0BCF8D0
:101E300040F2E413C2F200031B68012B01D901F048
:101E4000A7F8FFF7EBF9F1E780B586B000AFF860CF
:101E5000B9607A603B604FF000037B6113E0BA68C1
:101E60007B69D3181A78F9687B69CB1803F13003C2
:101E70001A71BA687B69D3181B78002B07D07B696D
:101E800003F101037B617B69092BE8D900E000BF06
:101E9000FB684FF0000283F83D207B68042B02D9D9
:101EA0004FF004037B60FB687A68DA62FB687A684B
:101EB0001A64FB684FF000025A64FB6803F10403E4
:101EC000184600F0EFFDFB6803F11803184600F018
:101ED000E9FDFB68FA681A617B68C3F10502FB68DB
:101EE0009A61FB68FA685A62FB684FF000029A64D4
:101EF000FB684FF0000283F84C2007F11807BD463D
:101F000080BD00BF80B582B000AF4FF000037B60A2
:101F100013E07A6813464FEA83039B184FEA830362
:101F20001A4640F2E413C2F20003D318184600F038
:101F300095FD7B6803F101037B607B68042BE8D986
:101F400040F24820C2F2000000F088FD40F25C2020
:101F5000C2F2000000F082FD40F27820C2F20000E0
:101F600000F07CFD40F28C20C2F2000000F076FD13
:101F700040F2A420C2F2000000F070FD40F2702395
:101F8000C2F2000340F24822C2F200021A6040F29C
:101F90007423C2F2000340F25C22C2F200021A6013
:101FA00007F10807BD4680BD80B582B000AF3CE0B8
:101FB000FFF7C2FC40F28C23C2F200031B68002B27
:101FC00014BF002301237B60FFF7C8FC7B68002B54
:101FD0002BD100F0EDFF40F28C23C2F20003DB684E
:101FE000DB683B603B6803F10403184600F0C6FD64
:101FF00040F2B823C2F200031B6803F1FF3240F243
:10200000B823C2F200031A6040F2A023C2F2000318
:102010001B6803F1FF3240F2A023C2F200031A60F2
:1020200000F0EEFF386800F08FF840F2A023C2F213
:1020300000031B68002BBBD107F10807BD4680BD1C
:1020400080B582B000AF786040F2E013C2F20003C6
:102050001B687A685A6040F2BC23C2F200031B6816
:102060007A689A4210D240F27423C2F200031A68CE
:1020700040F2E013C2F200031B6803F104031046B0
:10208000194600F041FD1DE040F27023C2F200034A
:102090001A6840F2E013C2F200031B6803F1040364
:1020A0001046194600F030FD40F29C03C2F20003D6
:1020B0001B687A689A4205D240F29C03C2F2000380
:1020C0007A681A6007F10807BD4680BD80B584B004
:1020D00000AF03463960FB803B68002B07D1FB88CB
:1020E0004FEA8303184601F0E1FC034600E03B6839
:1020F000BB60BB68002B10D04FF0500001F0D6FC45
:102100000346FB60FB68002B03D0FB68BA681A63C8
:1021100006E0B86801F07CFD02E04FF00003FB60D0
:10212000FB68002B0AD0FB681A6BFB884FEA83031D
:1021300010464FF0A5011A4601F0F0FFFB68184663
:1021400007F11007BD4680BD80B582B000AF786052
:102150007B681B6B184601F05BFD786801F058FD49
:1021600007F10807BD4680BD80B483B000AF40F2E0
:102170007023C2F200031B681B68002B02D14FF0D2
:10218000010301E04FF00003002B07D040F29C0355
:10219000C2F200034FF0FF321A600EE040F27023EB
:1021A000C2F200031B68DB68DB687B607B685A68EF
:1021B00040F29C03C2F200031A6007F10C07BD460F
:1021C00080BC704780B487B000AF786039604FF052
:1021D00000037B614FF000033B614FF00003FB60A5
:1021E0004FF000037B618FE07B694FF0010202FA40
:1021F00003F33B613B681A683B6902EA0303FB6037
:10220000FA683B699A427BD17B681B681A467B69F6
:102210004FEA43034FF0030101FA03F36FEA0303AC
:102220001A407B681A607B681B681A463B681B79FA
:1022300019467B694FEA430301FA03F31A437B68AB
:102240001A603B681B79012B03D03B681B79022B7A
:1022500038D17B689B681A467B694FEA43034FF08D
:10226000030101FA03F36FEA03031A407B689A60E3
:102270007B689B681A463B685B7919467B694FEA25
:10228000430301FA03F31A437B689A607B685B6837
:102290001A467B699BB24FF0010101FA03F36FEA22
:1022A00003031A407B685A607B685B681A463B6888
:1022B0009B7919467B699BB201FA03F39BB21A43DF
:1022C0007B685A607B68DB681A467B699BB24FEA81
:1022D00043034FF0030101FA03F36FEA03031A40CB
:1022E0007B68DA607B68DB681A463B68DB791946F5
:1022F0007B694FEA430301FA03F31A437B68DA6010
:102300007B6903F101037B617B690F2B7FF66CAF67
:1023100007F11C07BD4680BC704700BF80B485B084
:1023200000AF786013460A467A807B704FF0000356
:10233000FB604FF00003BB607A787B8803F00703F3
:102340004FEA830302FA03F3FB607B884FEAD3036F
:102350009BB21A467B884FEAD3039BB219467B682F
:1023600001F1080153F8213019467B8803F0070377
:102370004FEA83034FF00F0000FA03F36FEA030301
:1023800019407B6802F1080243F822107B884FEA6B
:10239000D3039BB21A467B6802F1080253F822303D
:1023A0001A46FB6842EA0303BB607B884FEAD3030B
:1023B0009BB21A467B6802F10802B96843F8221002
:1023C00007F11407BD4680BC704700BF80B588B0D8
:1023D00000AF0346FB804FF00003FB834FF0040087
:1023E0004FF00101FFF786F840F2A003C2F20003AC
:1023F0001A6841F25973CDF2B713A3FB02134FEAE7
:1024000093339BB203F1FF33FB83FB887B61FB8B30
:102410003B824FF000033B834FF000037B8207F1C8
:1024200010034FF40060C4F20000194601F076FC7E
:102430004FF40060C4F200004FF0010101F0F8FC1D
:102440004FF4407001F0AAFA4FF01E033B734FF0B7
:102450000E037B734FF00103BB734FF00103FB735B
:1024600007F10C03184601F0ADFA4FF40060C4F216
:1024700000004FF0010101F041FD4FF40060C4F293
:1024800000004FF001014FF0000201F011FD4FF488
:102490000060C4F200004FF0000101F0E9FC4FF0D1
:1024A0000103184607F12007BD4680BD80B500AF87
:1024B0004FF40060C4F200004FF0010101F01EFD76
:1024C0004FF40060C4F200004FF001014FF0010230
:1024D00001F0EEFC4FF40060C4F200004FF0000188
:1024E00001F098FC4FF40060C4F200004FF00101CD
:1024F00001F0BEFC80BD00BF80B500AF4FF40060AE
:10250000C4F200004FF0000101F0B2FC4FF4006093
:10251000C4F200004FF0000101F07CFC4FF40060B9
:10252000C4F200004FF001014FF0000201F0C0FCC6
:102530004FF40060C4F200004FF0010101F0DEFC36
:1025400080BD00BF98B500AF4FF40060C4F200003A
:102550004FF0010101F0D2FC40F2DC23C2F2000393
:102560001B689C6A40F2DC23C2F200031B6803F183
:10257000680140F2DC23C2F200031B6803F1500241
:1025800040F2DC23C2F200031B6803F16403084637
:1025900011461A46A04798BD80B483B000AF78605A
:1025A00040F2DC23C2F200037A681A6040F2DC23B6
:1025B000C2F200031B684FF000021A6640F2DC23EF
:1025C000C2F200031A6842F2F943C0F60003D36571
:1025D00040F2DC23C2F200031A6842F2AD43C0F6B7
:1025E0000003936540F2DC23C2F200031B684FF046
:1025F00000025A6540F2DC23C2F200031A6842F27C
:10260000CD33C0F60003136507F10C07BD4680BC4F
:10261000704700BF90B587B000AFF860B960FA713D
:10262000BB714FF00003FB75FDF7AEFDFB685C6806
:10263000BA7997F82C301046B96A4FF00802A047D3
:102640000346012B03D04FF00303FB751DE0BB6A6B
:10265000B3F5964F03D94FF023033B6109E0BB6A02
:102660004FEA430247F6A073C0F21703B3FBF2F33D
:102670003B61BB681B683A6992B2104698470346B3
:10268000012B02D04FF00303FB75FDF783FDFB7DAB
:10269000184607F11C07BD4690BD00BF80B584B049
:1026A00000AFF860B9607A60FDF76EFDFB684FF02F
:1026B00000025A70BB681B684FF001004FF0000128
:1026C00098477B689B689847FDF764FD07F1100702
:1026D000BD4680BD80B582B000AF78603960FDF73F
:1026E00053FD7B681B684FF000004FF000019847D6
:1026F0003B68DB689847FDF74DFD07F10807BD46CD
:1027000080BD00BF80B586B000AFF860B9607A6068
:102710003B604FF00003BB754FF00003FB75FDF706
:1027200033FDFB68B3F80A319BB2032B26D9FB6853
:1027300003F10202FB68B3F80A319BB21046194656
:10274000FEF778FD0346002B18D1FB689B78DAB2C0
:10275000BB681A70FB68B3F80A319BB2A3F103039C
:102760009AB23B681A80FB6803F1020303F101028D
:102770007B681A604FF00103BB7502E04FF0050360
:10278000FB75FDF707FDFB7D184607F11807BD46F1
:1027900080BD00BF80B586B000AFF860B9603B6017
:1027A0001346FB714FF00003FB75FDF7EDFCFB6872
:1027B0005B78DBB2012B55D13B6803F1FF32FB683C
:1027C000C3F80421FB684FF00102A3F80821FB685D
:1027D000D3F80431FA791A70FB68B3F808319AB269
:1027E0003B8CD3189AB2FB68A3F80821FB68D3F896
:1027F0000421FB68B3F808319BB210461946FEF776
:1028000019FD0346BB82FB68B3F808319BB21A4638
:10281000B98AC9B2F8688218917003F101039AB2BB
:10282000FB68A3F80821FB68B3F808319BB21A468D
:10283000B98A4FEA112189B2C9B2F8688218917039
:1028400003F101039AB2FB68A3F80821FB684FF07B
:1028500001021A70BB681B684FF000004FF00101C5
:10286000984702E04FF00503FB75FDF793FCFB7DF5
:10287000184607F11807BD4680BD00BF80B586B079
:1028800000AFF860B9607A604FF00003FB757B68B9
:10289000DB6807F1160210469847FB685B78DBB2ED
:1028A000032B4DD801A252F823F000BFBD28000829
:1028B000CD28000805290008C5280008BB689B68CA
:1028C00098473DE0BB689B68984739E0FB684FF04C
:1028D0000002A3F80A21FB68B3F80A319BB21A463A
:1028E000B97DF8688218917003F101039AB2FB6810
:1028F000A3F80A21FB684FF002025A70BB689B687C
:1029000098471DE0FB68B3F80A319BB2FF2B0FD844
:10291000FB68B3F80A319BB21A46B97DF868821891
:10292000917003F101039AB2FB68A3F80A2103E056
:10293000FB684FF003025A70BB689B68984700BF62
:10294000FB7D184607F11807BD4680BD80B586B0EF
:1029500000AFF860B9607A604FF00003FB75FB6868
:102960001B78DBB2002B02D0012B08D040E0BB6803
:102970001B684FF001004FF00001984738E0FB68FA
:10298000B3F808319BB2002B1DD0BB689B68FA6876
:10299000D2F804211278D2B2D2B252B2104698477D
:1029A000FB68D3F8043103F10102FB68C3F804218A
:1029B000FB68B3F808319BB203F1FF339AB2FB68AE
:1029C000A3F8082114E007F1040318464FF00301AF
:1029D000FDF744FF0346FB75BB681B684FF0010021
:1029E0004FF000019847FB684FF000021A7000BFDB
:1029F000FB7D184607F11807BD4680BD80B586B03F
:102A000000AFF860B9607A604FF00003FB75FB68B7
:102A10005B78DBB2022B0BD0032B11D0002B10D133
:102A200078684FF00001FDF719FF0346FB7508E0D9
:102A300078684FF00101FDF711FF0346FB7500E0D8
:102A400000BFBB68DB689847FB684FF001025A7013
:102A5000FB7D184607F11807BD4680BD80B483B0E2
:102A600000AF78607B6803F108031A467B685A6000
:102A70007B684FF0FF329A607B6803F108031A46C7
:102A80007B68DA607B6803F108031A467B681A6189
:102A90007B684FF000021A6007F10C07BD4680BC4E
:102AA000704700BF80B483B000AF78607B684FF0A0
:102AB00000021A6107F10C07BD4680BC704700BFD9
:102AC00080B485B000AF786039607B685B68FB607C
:102AD0003B68FA685A60FB689A683B689A60FB68D2
:102AE0009B683A685A60FB683A689A603B687A6803
:102AF0001A617B681B6803F101027B681A6007F1A9
:102B00001407BD4680BC704780B485B000AF7860C4
:102B100039603B681B68BB60BB68B3F1FF3F03D102
:102B20007B681B69FB600DE07B6803F10803FB60B9
:102B300002E0FB685B68FB60FB685B681A68BB6867
:102B40009A42F6D9FB685A683B685A603B685B68F2
:102B50003A689A603B68FA689A60FB683A685A601B
:102B60003B687A681A617B681B6803F101027B6825
:102B70001A6007F11407BD4680BC704780B485B069
:102B800000AF78607B681B69FB607B685B687A6874
:102B900092689A607B689B687A6852685A60FB68A2
:102BA0005A687B689A4203D17B689A68FB685A60CE
:102BB0007B684FF000021A61FB681B6803F1FF326B
:102BC000FB681A60FB681B68184607F11407BD46CE
:102BD00080BC704780B500AF4FF46053C4F202036D
:102BE0004FF46052C4F20202126842F001021A600D
:102BF0004FF46053C4F202034FF000029A604FF4A6
:102C00006053C4F202034FF46052C4F2020212682D
:102C100022F0847222F480321A604FF46053C4F2BE
:102C2000020343F21002C2F200425A604FF46053B2
:102C3000C4F202034FF46052C4F20202126822F49A
:102C400080221A604FF46053C4F202034FF0000276
:102C5000DA6000F009F84FF46D43CEF200034FF054
:102C600000629A6080BD00BF80B483B000AF4FF0B7
:102C700000037B604FF000033B604FF46053C4F2ED
:102C800002034FF46052C4F20202126842F480322E
:102C90001A604FF46053C4F202031B6803F400335C
:102CA0003B607B6803F101037B603B68002B03D131
:102CB0007B68B3F5A06FECD14FF46053C4F202030C
:102CC0001B6803F40033002B03D04FF001033B607B
:102CD00002E04FF000033B603B68012B69D14FF4E9
:102CE0006053C4F202034FF46052C4F202029268CD
:102CF0009A604FF46053C4F202034FF46052C4F27E
:102D00000202926842F400429A604FF46053C4F2A7
:102D100002034FF46052C4F20202926842F4A052DD
:102D20009A604FF46053C4F2020343F20402C0F607
:102D300043025A604FF46053C4F202034FF46052EE
:102D4000C4F20202126842F080721A6000BF4FF4AF
:102D50006053C4F202031B6803F00073002BF6D02B
:102D60004FF47053C4F2020340F201721A604FF440
:102D70006053C4F202034FF46052C4F2020292683C
:102D800022F003029A604FF46053C4F202034FF43E
:102D90006052C4F20202926842F002029A6000BFDE
:102DA0004FF46053C4F202039B6803F00C03082B3A
:102DB000F6D107F10C07BD4680BC704780B485B0E2
:102DC00000AFF860B9607A60FB68A3F10403FB60B0
:102DD000FB684FF080721A60FB68A3F10403FB608C
:102DE000BA68FB681A60FB68A3F10403FB6042F653
:102DF0002163C0F60003FA681360FB68A3F11403B3
:102E0000FB607A68FB681A60FB68A3F12003FB6033
:102E1000FB68184607F11407BD4680BC704700BF29
:102E200080B500AF40F2B403C2F200031B68B3F1F7
:102E3000FF3F02D000F008F9FEE700F005F9FEE7D9
:102E4000074B19680868B0E8F00F80F30988BFF3F2
:102E50006F8F4FF0000080F311884EF00D0E704719
:102E6000E001002006480068006880F3088862B628
:102E700061B6BFF34F8FBFF36F8F00DF00BF00005D
:102E800008ED00E080B584B000AF4FF46443CEF2AB
:102E90000003FB60FB681B78DBB2BB60FB684FF094
:102EA000FF021A70FB681B78DBB2FB71FB79DBB2A7
:102EB00003F05003DAB240F2E023C2F200031A70CA
:102EC00040F2E423C2F200034FF007021A6011E05F
:102ED00040F2E423C2F200031B6803F1FF3240F228
:102EE000E423C2F200031A60FB79DBB24FEA43032A
:102EF000DBB2FB71FB79DBB2DBB25BB2002BE7DB51
:102F000040F2E423C2F200031B684FEA032240F2BE
:102F1000E423C2F200031A6040F2E423C2F2000389
:102F20001B6803F4E06240F2E423C2F200031A607B
:102F3000BB68DAB2FB681A704EF62053CEF200037B
:102F40004EF62052CEF20002126842F470021A606D
:102F50004EF62053CEF200034EF62052CEF200027F
:102F6000126842F070421A6000F0B4F840F2B40304
:102F7000C2F200034FF000021A60FFF773FFFFF781
:102F80004FFF4FF00003184607F11007BD4680BD04
:102F900080B400AF4EF60453CEF200034FF08052DF
:102FA0001A60BFF34F8FBFF36F8FBD4680BC704771
:102FB00080B500AF00F048F840F2B403C2F200035D
:102FC0001B6803F1010240F2B403C2F200031A606D
:102FD000BFF34F8FBFF36F8F40F2B403C2F2000311
:102FE0001B68012B0BD14EF60453CEF200031B6875
:102FF00003F0FF03002B02D000F026F8FEE780BDAF
:1030000080B500AF40F2B403C2F200031B68002B8E
:1030100002D100F019F8FEE740F2B403C2F2000357
:103020001B6803F1FF3240F2B403C2F200031A60DE
:1030300040F2B403C2F200031B68002B03D14FF02F
:10304000000000F00BF880BDEFF311804FF050014D
:1030500081F3118870474FF00003184680F3118800
:10306000704700BFEFF30980BFF36F8F0D4B1A68F5
:1030700020E9F00F10602DE908404FF0500080F378
:103080001188FEF729FE4FF0000080F31188BDE89B
:10309000084019680868B0E8F00F80F30988BFF3AA
:1030A0006F8F7047E001002080B500AFFFF7CCFFC5
:1030B000FEF710FD0346002B06D04EF60453CEF269
:1030C00000034FF080521A604FF00000FFF7C6FF78
:1030D00080BD00BF80B400AF4EF21403CEF20003F7
:1030E0004BF67F321A604EF21003CEF200034FF01F
:1030F00007021A60BD4680BC704700BF80B483B031
:1031000000AF0346FB714FF46143CEF2000397F921
:1031100007204FEA5212F97901F01F014FF0010028
:1031200000FA01F143F8221007F10C07BD4680BCFC
:10313000704700BF90B583B000AF02460B46FA71EE
:10314000BB71FB79012B26D14FF49040C4F20000F3
:1031500040F225514FF00102FDF7FEFC4FF4806371
:10316000C4F202034FF48062C4F20202528B92B2A4
:1031700042F0020292B25A834FF48063C4F2020317
:103180004FF48062C4F20202528B92B242F0040207
:1031900092B25A8325E04FF49040C4F2000040F20E
:1031A00025514FF00002FDF7D7FC4FF48063C4F2C5
:1031B00002034FF48062C4F20202128B92B242F018
:1031C000020292B21A834FF48063C4F202034FF4F6
:1031D0008062C4F20202128B92B242F0040292B2F6
:1031E0001A83BB79012B45D14FF49040C4F2000003
:1031F00040F226614FF00102FDF7AEFC4FF4806310
:10320000C4F202034FF48062C4F20202128B92B243
:1032100042F0020292B21A834FF48063C4F20203B6
:103220004FF48062C4F20202128B92B242F00402A6
:1032300092B21A8340F2E823C2F200031B685C6A70
:1032400040F2E823C2F200031B6803F1680140F278
:10325000E823C2F200031B6803F1380240F2E823BE
:10326000C2F200031B6803F16403084611461A46C4
:10327000A04725E04FF49040C4F2000040F22661E0
:103280004FF00002FDF768FC4FF48063C4F20203C4
:103290004FF48062C4F20202528B92B242F00202F8
:1032A00092B25A834FF48063C4F202034FF48062F7
:1032B000C4F20202528B92B242F0040292B25A83DA
:1032C00007F10C07BD4690BD80B58CB000AFB9606A
:1032D0000146F973FA71BB714FF480204FF0010180
:1032E000FEF708F94FF002004FF00101FEF7D4F8A5
:1032F0004FF44063BB624FF0020387F82C304FF06D
:10330000020387F82D304FF0000387F82E304FF07E
:10331000010387F82F3007F128034FF48060C4F2CF
:1033200002001946FEF74EFF4FF48060C4F202001F
:103330004FF00A014FF00702FEF7F0FF4FF48060F4
:10334000C4F202004FF00B014FF00702FEF7E6FF58
:10335000BB68BB614FF00003BB834FF00003FB83EE
:103360004FF000033B844FF00003BB844FF00C038D
:103370007B8407F118034FF49040C4F20000194613
:10338000FDF7C6FA4FF00603BB624FF0010387F862
:103390002C304FF0000387F82E304FF0000387F8F1
:1033A0002F304FF0020387F82D3007F128034FF438
:1033B0008060C4F202001946FEF704FF4FF490400B
:1033C000C4F200004FF0A001FDF73AFC4FF490402A
:1033D000C4F200004FF00101FDF778FB4FF440709C
:1033E00000F0DCFA4FF027033B754FF00E037B75BE
:1033F0004FF00003BB754FF00103FB7507F1140399
:10340000184600F0DFFA4FF02700FFF777FE40F292
:10341000E823C2F200031B689B6B4FF001004FF0E2
:10342000000198474FF00103184607F13007BD46E9
:1034300080BD00BF80B582B000AF0346FB7197F935
:1034400007309BB24FF49040C4F200001946FDF7DC
:103450005DFB00BF4FF49040C4F200004FF08001CC
:10346000FDF7CEFB0346002BF4D04FF001031846C6
:1034700007F10807BD4680BD80B582B000AF786017
:103480004FF49040C4F2000040F22551FDF7D8FB04
:103490004FF49040C4F20000FDF74CFB0346DAB253
:1034A0007B681A704FF00103184607F10807BD4604
:1034B00080BD00BF98B500AF40F2EC23C2F200031C
:1034C0004FF000021A604FF49040C4F2000040F246
:1034D0002661FDF7C7FB0346002B1FD040F2E8230F
:1034E000C2F200031B685C6A40F2E823C2F20003E8
:1034F0001B6803F1680140F2E823C2F200031B6875
:1035000003F1380240F2E823C2F200031B6803F122
:103510006403084611461A46A04729E04FF490403C
:10352000C4F2000040F22551FDF79CFB0346002B3E
:103530001ED040F2E823C2F200031B681C6A40F26E
:10354000E823C2F200031B6803F1680140F2E8239C
:10355000C2F200031B6803F1500240F2E823C2F2FA
:1035600000031B6803F13803084611461A46A047BA
:1035700040F2EC23C2F200031B68002B06D04EF68B
:103580000453CEF200034FF080521A6098BD00BF82
:1035900080B483B000AF786040F2E823C2F2000349
:1035A0007A681A6040F2E823C2F200031A6843F214
:1035B000C923C0F60003D36340F2E823C2F200033C
:1035C0001A6843F23513C0F60003936340F2E82310
:1035D000C2F200031A6843F23543C0F600031364D5
:1035E00040F2E823C2F200031A6843F27943C0F6BE
:1035F0000003536440F2E823C2F200031B684FF05B
:1036000000029A6440F2E823C2F200031B684FF004
:103610000002DA6407F10C07BD4680BC704700BFAA
:1036200080B586B000AF786039604FF00003BB759D
:103630003B681B88052B40F084807B6803F1010305
:103640001B784FEA0323BB827B6803F102031B78DC
:103650001A46BB8A42EA0303BB82BB8A03F1010319
:10366000BB827B6803F103031B784FEA03237B8251
:103670007B6803F104031B781A467B8A42EA030342
:103680007B827B8A002B58D07A8A40F2CF739A4291
:1036900053D87B68FB603B684FF000021A80FB68E0
:1036A0004FF001021A70FB6803F10103FB603B68F5
:1036B0001B8803F101039AB23B681A807B8A03F0EE
:1036C0000703002B08D07B8A4FEAD3039BB2DBB2FF
:1036D00003F10103FB7504E07B8A4FEAD3039BB23D
:1036E000FB75FB68FA7D1A70FB6803F10103FB6050
:1036F0003B681B8803F101039AB23B681A80BA8ABF
:103700007B8AF86811461A464FF00003FCF7E4FD87
:103710000346FB72FB7A002B06D0FB7A1846FDF7B6
:1037200007FB0346BB750FE03B681A88FB7D9BB225
:10373000D3189AB23B681A8006E04FF00303BB75BA
:1037400002E04FF00303BB75BB7D184607F1180775
:10375000BD4680BD80B584B000AF786039604FF061
:103760000003FB733B681B88052B50D17B6803F17A
:1037700001031B784FEA0323BB817B6803F102033B
:103780001B781A46BB8942EA0303BB81BB8903F15C
:103790000103BB817B6803F104031B78002B32D14A
:1037A0007B6803F103031B78FF2B05D07B6803F1D3
:1037B00003031B78002B26D14FF000037B727B683C
:1037C00003F103031B78FF2B03D14FF001033B727E
:1037D00002E04FF000033B7207F10802BB8910467C
:1037E00019464FF001024FF00103FCF775FD034647
:1037F000FB72FB7A002B0DD0FB7A1846FDF798FA86
:103800000346FB7306E04FF00303FB7302E04FF047
:103810000303FB73FB7B184607F11007BD4680BD11
:1038200080B584B000AF786039604FF00003BB739F
:103830003B681B88052B67D97B6803F101031B7864
:103840004FEA0323BB817B6803F102031B781A460E
:10385000BB8942EA0303BB81BB8903F10103BB813E
:103860007B6803F103031B784FEA03237B817B68AA
:1038700003F104031B781A467B8942EA03037B8128
:103880007B6803F105031B787B727B8903F00703D8
:10389000002B08D07B894FEAD3039BB2DBB203F144
:1038A0000103FB7304E07B894FEAD3039BB2FB73F4
:1038B0007B89002B24D07B89B3F5F66F20D8FA7B67
:1038C0007B7A9A421CD17B6803F10601BA897B8915
:1038D000084611461A464FF00103FCF7FDFC03466B
:1038E0003B723B7A002B06D03B7A1846FDF720FA54
:1038F0000346BB730BE03B684FF005021A8006E0FD
:103900004FF00303BB7302E04FF00303BB73BB7BB9
:10391000184607F11007BD4680BD00BF80B485B0D2
:1039200000AF78604FF00003FB734FF00003BB6003
:103930004FF47053C4F201031B681A467B6802EA15
:103940000303BB604FF47053C4F201035B691A4672
:103950007B6802EA0303002B06D0BB68002B03D070
:103960004FF00103FB7302E04FF00003FB73FB7B9E
:10397000184607F11407BD4680BC704780B483B079
:1039800000AF78604FF47053C4F201037A685A6153
:1039900007F10C07BD4680BC704700BF80B483B000
:1039A00000AF78604FF46D43CEF200037A6842F0C6
:1039B000BE6242F42022DA6007F10C07BD4680BCEB
:1039C000704700BF80B485B000AF78604FF000034F
:1039D000FB734FF00003BB734FF00F037B737B68E7
:1039E000DB78002B47D04FF46D43CEF20003DB6849
:1039F0006FEA030303F4E0634FEA1323FB73FB7BDB
:103A0000C3F10403BB737A7BFB7B42FA03F37B7342
:103A10007B685B781A46BB7B02FA03F3FB737B6817
:103A20009A787B7B02EA0303DAB2FB7B42EA030368
:103A3000FB73FB7B4FEA0313FB734FF46143CEF23E
:103A400000037A6812789B18FA7B83F800234FF4FE
:103A50006143CEF200037A6812784FEA5212D2B272
:103A60007968097801F01F014FF0010000FA01F1B7
:103A700043F8221014E04FF46143CEF200037A6859
:103A800012784FEA5212D2B27968097801F01F0118
:103A90004FF0010000FA01F102F1200243F8221078
:103AA00007F11407BD4680BC704700BF80B588B0E1
:103AB00000AF78604FF000037B61FDF73DFF44F2FB
:103AC0000033C2F200031B68002B08D100F0F0F8AD
:103AD00044F20033C2F200034FF001021A607B6827
:103AE000002B12D044F2FC33C0F600031B887A6826
:103AF000D3187B607B6803F00703002B05D07B683D
:103B000023F0070303F108037B607B68002B72D06E
:103B10007A6843F6F7739A426DD844F2F023C2F202
:103B20000003BB6144F2F023C2F200031B68FB6197
:103B300004E0FB69BB61FB691B68FB61FB695A68B8
:103B40007B689A4203D2FB691B68002BF1D1FA69AA
:103B500044F2F823C2F200039A424CD0BB691A68BF
:103B600044F2FC33C0F600031B88D3187B61FB6969
:103B70001A68BB691A60FB695A687B68D21A44F2FA
:103B8000FC33C0F600031B884FEA43039A4225D951
:103B9000FA697B68D318FB60FB695A687B68D21AA4
:103BA000FB685A60FB697A685A60FB685B68BB60B7
:103BB00044F2F023C2F200033B6102E03B691B6860
:103BC0003B613B691B685A68BB689A42F6D33B6904
:103BD0001A68FB681A603B69FA681A6040F2B80319
:103BE000C2F200031A68FB695B68D21A40F2B8039C
:103BF000C2F200031A60FDF7B1FE7B69002B01D110
:103C0000FDF702FB7B69184607F12007BD4680BD22
:103C100080B586B000AF78607B683B617B68002B25
:103C200035D044F2FC33C0F600031B88C3F1000317
:103C30003A69D3183B613B69FB60FDF77DFEFB6889
:103C40005B68BB6044F2F023C2F200037B6102E0D8
:103C50007B691B687B617B691B685A68BB689A42F9
:103C6000F6D37B691A68FB681A607B69FA681A6088
:103C7000FB685A6840F2B803C2F200031B68D2180E
:103C800040F2B803C2F200031A60FDF767FE07F1C5
:103C90001807BD4680BD00BF80B400AF40F2B80336
:103CA000C2F200031B681846BD4680BC704700BFC7
:103CB00080B483B000AF184B23F007037B607A68B1
:103CC00044F2F023C2F200031A6044F2F023C2F27D
:103CD00000034FF000025A6044F2F823C2F20003DE
:103CE00043F6F8725A6044F2F823C2F200034FF030
:103CF00000021A607B683B603B6843F6F8725A60CA
:103D00003A6844F2F823C2F20003136007F10C078B
:103D1000BD4680BC704700BFF802002080B485B06B
:103D200000AF786039604FF00003FB817B681B882F
:103D3000FB817A684FF00003C4F201039A421FD05E
:103D40007A684FF48063C4F201039A4218D07B680A
:103D5000B3F1804F14D07A684FF48063C4F200034B
:103D60009A420DD07A684FF40063C4F200039A427D
:103D700006D07A684FF44063C4F200039A4209D136
:103D8000FB8923F07003FB813B685A88FB8942EA78
:103D90000303FB817A684FF48053C4F200039A4214
:103DA00010D07A684FF4A053C4F200039A4209D0AD
:103DB000FB8923F44073FB813B681A89FB8942EA43
:103DC0000303FB817B68FA891A803B685A687B6829
:103DD000DA623B681A887B681A857A684FF00003BC
:103DE000C4F201039A4206D07A684FF48063C4F2A9
:103DF00001039A4204D13B689B7A1A467B681A8673
:103E00007B684FF001029A8207F11407BD4680BC1F
:103E1000704700BF80B483B000AF786039607B68C2
:103E20003A685A6207F10C07BD4680BC704700BF74
:103E300080B483B000AF78600B46FB70FB78002B3A
:103E400008D07B681B889BB243F080039AB27B68E2
:103E50001A8007E07B681B889BB223F080039AB22C
:103E60007B681A8007F10C07BD4680BC704700BF15
:103E700080B483B000AF78600B46FB70FB78002BFA
:103E800008D07B681B889BB243F001039AB27B6821
:103E90001A8007E07B681B889BB223F001039AB26B
:103EA0007B681A8007F10C07BD4680BC704700BFD5
:103EB00080B483B000AF786013460A467A807B7086
:103EC0007B78002B09D07B689B899AB27B8842EA79
:103ED00003039AB27B689A810BE07B689B899AB254
:103EE0007B886FEA03039BB202EA03039AB27B6802
:103EF0009A8107F10C07BD4680BC704780B483B03F
:103F000000AF78600B467B807B886FEA03039AB230
:103F10007B681A8207F10C07BD4680BC704700BF62
:103F200080B400AFBFF34F8F4FF46D42CEF200026A
:103F30004FF46D43CEF20003DB6803F4E0614FF011
:103F40000403C0F2FA5341EA0303D360BFF34F8F77
:103F5000FEE700BF80B500AF4FF48030FFF7DEFC16
:103F60000346002B05D04FF48030FFF707FDFFF725
:103F7000D7FF80BD032A70B404460D4612D941EA2A
:103F8000000313F0030F0FD10B46044651F8045BF6
:103F900050F8046BAE4204D1043A0446032A0B469F
:103FA000F2D81D46104672B121782B78994209D17A
:103FB000501E2A4638B114F8011F013812F8013F8B
:103FC0009942F7D0C81A70BC704700BF032A2DE988
:103FD000F00109D82AB10023CC5CC45401339342C8
:103FE000FAD1BDE8F00170470B468218014603E0A4
:103FF0002478013301F8014B11F0030F1C46F7D16F
:1040000013F003055DD06E42C5F1040CED009B5921
:104010004FEACC0C08E00434A7593B4607FA0CF7EA
:1040200048EA070741F8047B571A23FA05F8032FDB
:10403000F1DC03E014F8013B01F8013B8A42F9D8B6
:10404000CFE753F8404C41F8404C53F83C4C41F812
:104050003C4C53F8384C41F8384C53F8344C41F848
:10406000344C53F8304C41F8304C53F82C4C41F858
:104070002C4C53F8284C41F8284C53F8244C41F868
:10408000244C53F8204C41F8204C53F81C4C41F878
:104090001C4C53F8184C41F8184C53F8144C41F888
:1040A000144C53F8104C41F8104C53F80C4C41F898
:1040B0000C4C53F8084C41F8084C53F8044C41F8A8
:1040C000044C561A1D460C46403340313F2EB8DC96
:1040D0002B460FE053F8101C44F8101C53F80C1C2E
:1040E00044F80C1C53F8081C44F8081C53F8041C32
:1040F00044F8041C161B1D4610330F2E214604F1F4
:104100001004E7DC2B4602E0246841F8044B551A02
:104110001C46032D03F10403F6DC8FE7032AC9B222
:1041200070B408D82AB10346121803F8011B934251
:10413000FBD170BC70478218044601E004F8011BF3
:1041400014F0030FFAD14FF0013303FB01F31FE02A
:1041500044F8403C44F83C3C44F8383C44F8343C97
:1041600044F8303C44F82C3C44F8283C44F8243CC7
:1041700044F8203C44F81C3C44F8183C44F8143CF7
:1041800044F8103C44F80C3C44F8083C44F8043C27
:10419000161B254640343F2EDADC2C4607E044F857
:1041A000103C44F80C3C44F8083C44F8043C161B12
:1041B000254610340F2EF2DC01E045F8043B541B79
:1041C000032CFADC01E005F8011B9542FBD3B0E7B4
:1041D0004D6F64627573205253343835000000000F
:1041E00000C1814001C0804101C0804100C18140C7
:1041F00001C0804100C1814000C1814001C08041B7
:1042000001C0804100C1814000C1814001C08041A6
:1042100000C1814001C0804101C0804100C1814096
:1042200001C0804100C1814000C1814001C0804186
:1042300000C1814001C0804101C0804100C1814076
:1042400000C1814001C0804101C0804100C1814066
:1042500001C0804100C1814000C1814001C0804156
:1042600001C0804100C1814000C1814001C0804146
:1042700000C1814001C0804101C0804100C1814036
:1042800000C1814001C0804101C0804100C1814026
:1042900001C0804100C1814000C1814001C0804116
:1042A00000C1814001C0804101C0804100C1814006
:1042B00001C0804100C1814000C1814001C08041F6
:1042C00001C0804100C1814000C1814001C08041E6
:1042D00000C1814001C0804101C0804100C18140D6
:1042E00000C0C101C30302C2C60607C705C5C40496
:1042F000CC0C0DCD0FCFCE0E0ACACB0BC90908C806
:10430000D81819D91BDBDA1A1EDEDF1FDD1D1CDCF5
:1043100014D4D515D71716D6D21213D311D1D01065
:10432000F03031F133F3F23236F6F737F53534F455
:104330003CFCFD3DFF3F3EFEFA3A3BFB39F9F838C5
:1043400028E8E929EB2B2AEAEE2E2FEF2DEDEC2CB5
:10435000E42425E527E7E62622E2E323E12120E025
:10436000A06061A163A3A26266A6A767A56564A415
:104370006CACAD6DAF6F6EAEAA6A6BAB69A9A86885
:1043800078B8B979BB7B7ABABE7E7FBF7DBDBC7C75
:10439000B47475B577B7B67672B2B373B17170B0E5
:1043A00050909151935352929656579755959454D5
:1043B0009C5C5D9D5F9F9E5E5A9A9B5B9959589845
:1043C000884849894B8B8A4A4E8E8F4F8D4D4C8C35
:1043D00044848545874746868242438341818040A5
:1043E00049444C4500000000A5A5A5A5A5A5A5A587
:0E43F000A5A5A5A5A5A5A5A5A5A5A5A50800FB
:10440000BC0000200101203001010000110000006B
:10441000C508000804000000511500080300000052
:10442000490F0008100000006D0E00080600000093
:10443000E90D0008170000005510000801000000F9
:104440002136000805000000553700080F00000065
:1044500021380008020000000D07000800000000DD
:10446000000000000000000000000000000000004C
:10447000000000000000000000000000000000003C
:10448000000000000000000000000000000000002C
:10449000010203040102030406070809FFFFFFFFEE
:1044A000006CDC02000000000000000001020304B8
:0C44B00006070809AAAAAAAAF83F000003
:0400000508000000EF
:00000001FF
