:020000040800F2
:100000005C61002059300008CD300008CD30000878
:10001000CD300008CD300008CD30000800000000D1
:10002000000000000000000000000000F57A000859
:10003000CD30000800000000B57C0008F97C000805
:10004000CD3000088DD80008CD300008CD30000834
:10005000CD300008CD300008CD300008CD3000088C
:10006000CD300008CD300008CD300008CD3000087C
:10007000CD300008CD300008CD300008CD3000086C
:10008000CD300008CD300008CD300008CD3000085C
:10009000CD300008CD300008CD300008CD3000084C
:1000A000CD30000825650008CD300008CD300008AF
:1000B00001BD0008CD300008A5610008CD30000862
:1000C000CD300008CD300008CD300008CD3000081C
:1000D000CD300008CD300008CD3000087D940008F8
:1000E000CD300008CD3000086D700008CD3000081C
:1000F000CD300008CD300008CD300008CD300008EC
:10010000CD300008CD30000865630008CD30000810
:10011000CD300008CD300008CD300008CD300008CB
:10012000CD300008CD300008CD300008CD300008BB
:10013000CD300008CD300008CD300008CD300008AB
:10014000CD300008CD300008CD300008A170000887
:10015000CD300008CD300008CD3000088197000870
:10016000CD300008CD300008CD300008CD3000087B
:10017000CD300008CD300008CD300008CD3000086B
:10018000CD300008CD30000880B485B000AF786075
:100190004FF00003FB607B68DB684FF0FF325A6072
:1001A0007B68DB684FF0FF325A61FB6843F0004325
:1001B000FB60FB6843F40063FB607B68DB68FA6804
:1001C0009A6107F11407BD4680BC704780B586B0C0
:1001D00000AF78604FF00003FB744FF000037B61C9
:1001E0004FF00003FB604FF0030006F003FF7B6855
:1001F000DB681B69FB607B6903F101037B617A6942
:100200001A4B9A4202D94FF0000329E0FB68C3F36E
:10021000C073DBB2002BE6D04FF000037B61FB68BC
:1002200043F00103FB607B68DB68FA681A617B6856
:10023000DB681B69FB607B6903F101037B617A6901
:100240000A4B9A4206D8FB68C3F30003DBB2012BCA
:10025000EDD000E000BF4FF0030006F0CBFEFB7CCA
:10026000184607F11807BD4680BD00BF400D0300CA
:1002700080B489B000AFF860B960FA71BB804FF00C
:100280000003FB76FB68DB78002B2CD14FF00003DA
:100290007B614FF00003FB61BB8803F10303002B7C
:1002A00001DA03F103034FEAA3037B61FB79FA68E8
:1002B00003F132034FEA8303D3189B683B614FF08D
:1002C0000003FB610BE0BB681A683B691A60FB69BD
:1002D00003F10103FB61BB6803F10403BB60FA692E
:1002E0007B699A42EFD3FB7E184607F12407BD468F
:1002F00080BC704780B489B000AFF860B960134625
:10030000FB804FF00003FB61FB8803F10303002B2C
:1003100001DA03F103034FEAA303BB61FB68D3F8DF
:10032000D0307B614FF00003FB610BE07B691A6802
:10033000BB681A60FB6903F10103FB61BB6803F151
:100340000403BB60FA69BB699A42EFD3BB681846E5
:1003500007F12407BD4680BC704700BF80B487B05A
:1003600000AF78600B46FB704FF000033B614FF02D
:100370000003FB737B684FF00002DA707B684FF07C
:1003800001029A707B684FF040029A80FB78012B43
:1003900017D14FF0A0433B617B684FF00102DA7246
:1003A0007B684FF008021A707B684FF004025A70A5
:1003B0007B684FF4A072DA807B684FF002021A72F9
:1003C00014E0FB78002B11D14F4B3B617B684FF061
:1003D0000002DA727B684FF00C021A707B684FF0F3
:1003E00006025A707B684FF4A062DA803A697B6833
:1003F000DA603B6903F500631A467B681A614FF0C7
:1004000000037B6123E07B694FEA43123B69D31809
:1004100003F510631A4679687B6903F104034FEA18
:100420008303CB189A607B694FEA43123B69D31868
:1004300003F530631A4679687B6903F114034FEAC8
:100440008303CB185A607B6903F101037B617B68EE
:100450005B781A467B699A42D5D83B6903F580637D
:100460001A467B685A613B6903F588631A467B68C4
:10047000C3F8CC204FF000037B6113E07B694FEAA7
:1004800043123B69D31803F5A0631A4679687B6968
:1004900003F122034FEA8303CB189A607B6903F1CF
:1004A00001037B617B681B781A467B699A42E5D819
:1004B0004FF000037B6113E07B694FEA03323B6935
:1004C000D31803F580531A4679687B6903F1320328
:1004D0004FEA8303CB189A607B6903F101037B61C8
:1004E0007B681B781A467B699A42E5D83B6903F51D
:1004F00060631A467B68C3F80C21FB7B184607F142
:100500001C07BD4680BC70470000044080B588B021
:1005100000AF78604FF00003FB774FF00003BB6142
:100520004FF000037B614FF00003FB607B681B7A98
:10053000012B51D17B68DB689B6B7B617B696FF31F
:1005400010437B617B685B7A002B03D07B6943F4AB
:1005500080137B617B68DB687A699A634FF00003E4
:10056000BB617B68DB68DB68BB61BB696FF38613CB
:10057000BB61BB696FF39653BB61BB6943F010036A
:10058000BB61BB696FF3C303BB61BB696FF3C71387
:10059000BB61BB696FF35143BB61BB696FF3D3436D
:1005A000BB617B68DB68BA69DA607868FFF70EFECA
:1005B0007B68DB78012B40F08980FB684FF00502F7
:1005C00062F34403FB60FB6843F02003FB607B683D
:1005D000DB68FA689A6079E07B68DB68DB68BB619E
:1005E000BB6943F04003BB617B68DB68BA69DA60D2
:1005F0007868FFF7EBFD4FF000037B617B6943F404
:1006000080337B617B681B7A032B03D17B6943F4C6
:1006100000337B617B6943F480237B617B6943F416
:1006200000237B617B6943F400137B617B685B7A09
:10063000002B03D07B6943F480137B617B68DB680C
:100640007A699A634FF0140006F000FD7B68DB685E
:10065000DB68BB617B681B7A032B03D1BB6943F466
:100660008033BB617B68DB68BA69DA607B681B7AC0
:10067000032B2BD17B68DB681B6B3B613B694FF025
:10068000010262F39B633B613B696FF3D7533B61AC
:100690003B6943F080533B613B694FF02D0262F3AD
:1006A00016433B617B68DB683A691A634FF0C80008
:1006B00006F0CCFC3B6943F400033B617B68DB68DC
:1006C0003A691A634FF0C80006F0C0FC7B68DB781B
:1006D000012B11D17B68DB689B68FB60FB684FF0E6
:1006E000050262F34403FB60FB6843F02003FB60F8
:1006F0007B68DB68FA689A60FB7F184607F1200781
:10070000BD4680BD80B485B000AF78604FF0000377
:10071000FB734FF00003BB60BB6843F00103BB6099
:100720007B68DB687A68D2689168BA680A439A6025
:10073000FB7B184607F11407BD4680BC704700BF1D
:1007400080B485B000AF78604FF00003FB734FF0CA
:100750000003BB60BB6843F00103BB607B68DB68E0
:100760007A68D2689168BA686FEA02020A409A60B1
:10077000FB7B184607F11407BD4680BC704700BFDD
:1007800080B586B000AF786039604FF00003FB742D
:100790004FF000037B614FF00003FB60FB6843F008
:1007A0002003FB603B68DBB203F01F03DAB2FB6897
:1007B00062F38A13FB607B68DB68FA681A617B6806
:1007C000DB681B69FB607B6903F101037B617A696C
:1007D0000A4B9A4206D8FB68C3F34013DBB2012BE5
:1007E000EDD000E000BF4FF0030006F003FCFB7CFF
:1007F000184607F11807BD4680BD00BF400D030035
:1008000080B586B000AF78604FF00003FB744FF006
:1008100000037B614FF00003FB60FB6843F01003B3
:10082000FB607B68DB68FA681A617B68DB681B69C0
:10083000FB607B6903F101037B617A690A4B9A4291
:1008400006D8FB68C3F30013DBB2012BEDD000E048
:1008500000BF4FF0030006F0CDFBFB7C184607F10C
:100860001807BD4680BD00BF400D030080B584B0B1
:1008700000AF78600B46FB704FF00003FB737B68A2
:10088000DB68DB68BB60BB686FF35D73BB60BB6834
:100890006FF39E73BB60FB78012B04D1BB6843F000
:1008A0000053BB6006E0FB78002B03D1BB6843F02C
:1008B0008043BB607B68DB68BA68DA604FF0320067
:1008C00006F0C4FBFB7B184607F11007BD4680BD50
:1008D00080B483B000AF78607B68DB685B6903F04D
:1008E0000103184607F10C07BD4680BC704700BFE6
:1008F00080B582B000AF78607868FFF7E9FF034603
:10090000012B0CBF00230123DBB2184607F10807B7
:10091000BD4680BD80B485B000AF78604FF0000365
:10092000FB607B68DB685B69FB607B68DB689B69FD
:10093000FA681340FB60FB68184607F11407BD46D0
:1009400080BC704780B485B000AF78600B46FB7008
:100950007B681B691B68FB60FB7803F00303DAB25A
:10096000FB6862F30103FB607B681B69FA681A602D
:1009700007F11407BD4680BC704700BF80B58CB03E
:1009800000AF78604FF0000387F82B304FF0000382
:100990007B624FF000033B624FF00003FB614FF0BE
:1009A0000003BB614FF000037B617B68D3F80C311F
:1009B0004FF000021A607B681B691B683B623B6A50
:1009C0006FF3CC233B627B681B693A6A1A607B68D1
:1009D000DB7A012B47D178684FF00301FFF7B2FFB4
:1009E0007B68DB684FF080025A62FB694FF020029F
:1009F00062F31F43FB61FB694FF0800262F30F0358
:100A0000FB617B68DB68FA699A62BA8BFB8BD3184F
:100A10009BB23B83BB694FF0800262F31F43BB6113
:100A20007B68DB68BA69C3F804213A8B7B8BD318E7
:100A30009BB23B83BB694FF0200262F31F43BB6153
:100A40007B68DB68BA69C3F808213A8B7B8BD318C3
:100A50009BB23B83BB696FF31F43BB617B68DB6861
:100A6000BA69C3F80C2178684FF01001FFF788FECF
:100A70007868FFF7C5FE7B681B694FF000021A61BA
:100A80007B681B694FF000025A617B681B694FF05D
:100A9000FF329A617B681B694FF00002DA614FF008
:100AA0000003FB6242E07A68FB6A03F104034FEA49
:100AB0008303D3189B681B687B627B6AC3F3C07394
:100AC000DBB2002B0BD04FF000037B627B6A43F05C
:100AD00080437B627B6A43F000637B6202E04FF0FD
:100AE00000037B627A68FB6A03F104034FEA830325
:100AF000D3189B687A6A1A607A68FB6A03F1040368
:100B00004FEA8303D3189B684FF000021A617A689A
:100B1000FB6A03F104034FEA8303D3189B684FF089
:100B2000FF029A60FB6A03F10103FB627B685B785A
:100B30001A46FB6A9A42B6D84FF00003FB6242E0C5
:100B40007A68FB6A03F114034FEA8303D3185B68E6
:100B50001B68FB60FB68C3F3C073DBB2002B0BD0D8
:100B60004FF00003FB60FB6843F08043FB60FB68D1
:100B700043F00063FB6002E04FF00003FB607A6823
:100B8000FB6A03F114034FEA8303D3185B68FA6826
:100B90001A607A68FB6A03F114034FEA8303D318DF
:100BA0005B684FF000021A617A68FB6A03F1140374
:100BB0004FEA8303D3185B684FF0FF029A60FB6A29
:100BC00003F10103FB627B685B781A46FB6A9A4279
:100BD000B6D84FF000037B617B6943F480737B617F
:100BE0007B681B697A68126911697A696FEA020287
:100BF00011407A690A431A617B68DB78012B1ED1A8
:100C00004FF000033B613B6943F001033B613B69EB
:100C100043F002033B613B694FF0400262F38A03F9
:100C20003B613B6943F480333B613B694FF04002D9
:100C300062F359433B617B681B693A691A637868C0
:100C400000F008F897F82B30184607F13007BD463A
:100C500080BD00BF80B584B000AF78604FF0000366
:100C6000FB734FF00003BB607B68DB684FF0000252
:100C70009A617B68DB684FF0FF325A617868FFF752
:100C800083FA7B68DB78002B03D1BB6843F0100349
:100C9000BB60BB6843F40063BB60BB6843F4805334
:100CA000BB60BB6843F40053BB60BB6843F4802364
:100CB000BB60BB6843F40023BB60BB6843F0080320
:100CC000BB60BB6843F48013BB60BB6843F4001394
:100CD000BB607B68DB687A68D2689169BA686FEA42
:100CE00002021140BA680A439A61FB7B184607F179
:100CF0001007BD4680BD00BF80B485B000AF7860EE
:100D00004FF00003FB737B681B699B68BB60BB688B
:100D1000C3F34103DBB2022B0BD0032B05D0012B15
:100D200003D04FF00303FB7307E04FF00203FB73A4
:100D300003E04FF00103FB7300BFFB7B184607F194
:100D40001407BD4680BC704780B487B000AF7860A0
:100D50004FF00003FB754FF00003BB607B681B691D
:100D60009B683B617B689B691B68FB603B69C3F3C5
:100D70004103DBB2022B04D0FB686FF30A03FB6074
:100D800006E0FB684FF0030262F30A03FB6000BF5A
:100D90007B689B69FA681A60BB6843F48073BB6028
:100DA0007B681B697A6812695168BA686FEA020247
:100DB0001140BA680A435A60FB7D184607F11C07C8
:100DC000BD4680BC704700BF80B487B000AF78607C
:100DD00039604FF00003FB744FF00003FB604FF0ED
:100DE0000003BB603B685B78012B12D13B681B782A
:100DF0007A6803F104034FEA8303D3189B687B618D
:100E00003B681B784FF0010202FA03F39BB23B816F
:100E100014E03B681B787A6803F114034FEA8303FC
:100E2000D3185B687B613B681B784FF0010202FAC4
:100E300003F39AB2BB6862F31F43BB607B691B6814
:100E4000FB60FB68C3F3C033DBB2002B29D13B68E6
:100E50009B689BB24FEA43534FEA53539AB2FB68E5
:100E600062F30A03FB603B68DB7803F00303DAB24A
:100E7000FB6862F39343FB603B68DB88DBB203F003
:100E80000F03DAB2FB6862F39953FB60FB6843F02F
:100E90008053FB60FB6843F40043FB60FA687B69A6
:100EA0001A607B681B697A681269D169BA680A435B
:100EB000DA61FB7C184607F11C07BD4680BC704711
:100EC00080B487B000AF786039604FF00003FB74E6
:100ED0004FF00003FB604FF00003BB603B685B78A2
:100EE000012B12D13B681B787A6803F104034FEAA7
:100EF0008303D3189B687B613B681B784FF001022A
:100F000002FA03F39BB23B8114E03B681B787A68DA
:100F100003F114034FEA8303D3185B687B613B68DA
:100F20001B784FF0010202FA03F39AB2BB6862F336
:100F30001F43BB60FB686FF3CF33FB60FA687B69CC
:100F40001A607B681B697A681269D169BA686FEAAE
:100F500002020A40DA61FB7C184607F11C07BD4615
:100F600080BC704780B588B000AF786039604FF0C2
:100F70000003FB774FF00003BB614FF000037B6180
:100F80004FF000033B613B685B78012B40F0BD8074
:100F90003B681B787A6803F104034FEA8303D31894
:100FA0009B681B687B613B681B787A6803F10403CC
:100FB0004FEA8303D3189B681B693B613B685B69FD
:100FC000002B0AD13B696FF312033B613B694FF081
:100FD000010262F3DC433B6128E03B685B6923F07C
:100FE0007F4222F478023B6962F312033B613B6863
:100FF0005A693B689B68D31803F1FF323B689B68D2
:10100000B2FBF3F39BB24FEA83534FEA93539AB286
:101010003B6962F3DC433B613B68DB78012B05D124
:101020003B694FF0010262F35E733B613B681B78E2
:101030007A6803F104034FEA8303D3189B683A6983
:101040001A617B68DB78012B0CD13B681B787A68CE
:1010500003F104034FEA8303D3189B683A681269CB
:101060005A6116E03B68DB78012B12D03B685B6964
:10107000002B0ED03B681B784FF0010202FA03F3FD
:10108000BB617B681B697A681269516BBA690A4354
:101090005A633B68DB78012B14D17B681B699B6822
:1010A000FB60FB68C3F30D239BB203F00103002B2D
:1010B00004D17B6943F000537B6103E07B6943F01B
:1010C00080537B617B6943F080637B617B6943F084
:1010D00000437B613B681B787A6803F104034FEAA5
:1010E0008303D3189B687A691A603B68DB78012B0D
:1010F00040F09A803B68D9683B681A783B685B6926
:101100009BB27868FFF7B4F88EE03B681B787A688A
:1011100003F114034FEA8303D3185B681B687B61F8
:101120003B681B787A6803F114034FEA8303D318F2
:101130005B681B693B613B685B69002B10D13B68B6
:101140009B6823F07F4222F478023B6962F312032A
:101150003B613B694FF0010262F3DC433B6124E0F9
:101160003B685A693B689B68D31803F1FF323B68C0
:101170009B68B2FBF3F39BB24FEA83534FEA93535E
:101180009AB23B6962F3DC433B613B69C3F3C943F9
:101190009BB23A68926802FB03F323F07F4222F489
:1011A00078023B6962F312033B613B681B787A6803
:1011B00003F114034FEA8303D3185B683A691A6199
:1011C0007B68DB78012B0BD13B681B787A6803F1D5
:1011D00014034FEA8303D3185B683A6812695A61B3
:1011E0003B68DB78012B0CD13B685B79002B04D08A
:1011F0007B6943F000537B6103E07B6943F08053DC
:101200007B617B6943F080637B617B6943F00043D2
:101210007B613B681B787A6803F114034FEA830310
:10122000D3185B687A691A60FB7F184607F12007BC
:10123000BD4680BD80B489B000AF786039604FF0A2
:101240000003FB774FF00003BB614FF000033B61ED
:101250004FF00003BB603B685B78012B75D17B6866
:101260009B697B617B691B683B617B691B69BB6018
:101270003B685B69002B0AD13B7A6FF306033B7234
:10128000BB7A4FF0010262F3C403BB7224E03B68F7
:101290005A693B689B689A420ED93B689A683B68DA
:1012A0005A613B689B68DBB203F07F03DAB23B7A9A
:1012B00062F306033B7209E03B685B69DBB203F053
:1012C0007F03DAB23B7A62F306033B72BB7A4FF0DC
:1012D000010262F3C403BB72BA687B691A617B685E
:1012E000DB78012B0BD13B681B787A6803F1040390
:1012F0004FEA8303D3189B683A6812695A613B69C5
:1013000043F080633B613B6943F000433B613A69D2
:101310007B691A607B68DB78002B40F083803B6838
:101320005B69002B7ED03B681B784FF0010202FA0C
:1013300003F3BA691343BB617B681B697A6812695E
:10134000516BBA690A435A636CE03B681B787A6850
:1013500003F114034FEA8303D3185B681B683B61F6
:101360003B681B787A6803F114034FEA8303D318B0
:101370005B681B69BB603B685B69002B10D13B68F5
:101380009B68DBB203F07F03DAB23B7A62F30603B9
:101390003B72BB7A4FF0010262F3C403BB7213E0ED
:1013A0003B689A683B685A613B689B68DBB203F014
:1013B0007F03DAB23B7A62F306033B72BB7A4FF0EB
:1013C000010262F3C403BB723B681B787A6803F1C5
:1013D00014034FEA8303D3185B68BA681A617B6809
:1013E000DB78012B0BD13B681B787A6803F114037F
:1013F0004FEA8303D3185B683A6812695A613B6904
:1014000043F080633B613B6943F000433B613B68D1
:101410001B787A6803F114034FEA8303D3185B68DF
:101420003A691A60FB7F184607F12407BD4680BC65
:10143000704700BF80B487B000AF786039604FF06C
:101440000003FB754FF00003FB603B685B78012BEA
:101450001ED13B681B787A6803F104034FEA8303CB
:10146000D3189B683B613B691B68FB60FB68C3F357
:10147000C073DBB2002B03D0FB6843F08043FB60FA
:10148000FB6843F40013FB60FA683B691A6013E0E1
:101490003B681B787A6803F114034FEA8303D3187F
:1014A0005B683B613B691B68FB60FB6843F40013AE
:1014B000FB60FA683B691A60FB7D184607F11C0760
:1014C000BD4680BC704700BF80B487B000AF786075
:1014D00039604FF00003FB744FF00003FB603B6882
:1014E0005B78012B0AD13B681B787A6803F104030F
:1014F0004FEA8303D3189B687B6109E03B681B7844
:101500007A6803F114034FEA8303D3185B687B61A5
:101510007B691B68FB60FB686FF35553FB603B689E
:10152000DB78032B03D03B68DB78022B03D1FB680D
:1015300043F08053FB60FA687B691A60FB7C1846B5
:1015400007F11C07BD4680BC704700BF80B485B062
:1015500000AF78607B681B699B69FB607B681B69D7
:10156000DB69FA681340FB60FB684FEA13431846D7
:1015700007F11407BD4680BC704700BF80B485B03A
:1015800000AF78600B46FB70FB787A6803F11403B8
:101590004FEA8303D3185B689B68FB607B681B6919
:1015A0005B69FA681340FB60FB68184607F1140793
:1015B000BD4680BC704700BF80B485B000AF786086
:1015C0007B681B699B69FB607B681B69DB69FA6848
:1015D0001340FB60FB684FEA03434FEA134318468E
:1015E00007F11407BD4680BC704700BF80B487B0C8
:1015F00000AF78604FF000033B61FB7C43F0C00319
:10160000FB74BB7C4FF0010262F3C403BB743B7CF0
:101610004FF0180262F306033B747B685B6D3A6916
:101620001A617B68DB78012B17D14FF00003FB6058
:101630007B685B6D7A6802F5B9625A617B685B6DA5
:101640001B68FB60FB6843F00043FB604FF08023A6
:10165000FB607B685B6DFA681A6007F11C07BD468A
:1016600080BC704780B485B000AF78607B689B7A9F
:10167000002B1BD07B681B699B68FB60FB68C3F376
:101680000003DBB2012B11D17B6803F586731B6865
:10169000BB60BB686FF34103BB60BB686FF30003C3
:1016A000BB607B68D3F80C31BA681A6007F1140785
:1016B000BD4680BC704700BF80B400AFBD4680BC53
:1016C000704700BF80B400AFBD4680BC704700BF0C
:1016D00080B594B000AF786013460A467A803B80AC
:1016E0004FF0000387F84F308F4B1B6818464FF0C0
:1016F00000014FF0FF324FF0000306F06DFD07F1DF
:1017000008038A4A12681A6007F1080303F1040308
:10171000864A52681A6007F1080303F10803834AF6
:10172000D2E9020102461A6007F1080303F10C0333
:101730007E4AD2E9040102461A6007F1080303F168
:1017400010037A4A92691A6007F1080303F114033F
:10175000764AD2691A6007F1080303F11803734A45
:10176000926C1A6007F1080303F11C036F4AD26CF4
:101770001A6007F1080303F120036C4A526C1A60E7
:1017800007F1080303F12403684A126C1A6007F199
:10179000080303F12803654A926D1A6007F10803F4
:1017A00003F12C03614AD26D1A6007F1080303F1BB
:1017B00030035E4A526D1A6007F1080303F13403E7
:1017C0005A4A126D1A6007F1080303F13803574AA9
:1017D000D2ED0A7AFCEEE77AC3ED007A07F108034E
:1017E00003F13C03514AD2ED0B7AFCEEE77AC3EDEC
:1017F000007A07F1080303F140034C4AD2ED097A5D
:10180000FCEEE77AC3ED007A07F1080303F1440325
:10181000464AD2ED087AFCEEE77AC3ED007A07F18A
:10182000080303F14803414AD2ED0E7AFCEEE77A51
:10183000C3ED007A07F1080303F14C033B4AD2EDF4
:101840000F7AFCEEE77AC3ED007A07F1080303F1A3
:101850005003364AD2ED0D7AFCEEE77AC3ED007AFA
:1018600007F1080303F15403304AD2ED0C7AFCEE81
:10187000E77AC3ED007A2C4B1B6818464FF0000145
:101880004FF000024FF0000306F08CFB284B1B7852
:101890007A889A423DD37A883B88D218244B1B78A9
:1018A0001946244B1B78CB189A4232DC7A88224B9B
:1018B0001B78D31ABB6428E0BB6C4FEA430307F1E3
:1018C0005002D31833F8483C4FEA13239BB2DAB2E4
:1018D0007B681A707B6803F101037B60BB6C4FEA85
:1018E000430307F15002D31833F8483CDAB27B685F
:1018F0001A707B6803F101037B60BB6C03F1010389
:10190000BB643B8803F1FF333B803B88002BD3D182
:1019100003E04FF0010387F84F3097F84F30184637
:1019200007F15007BD4680BDF4580020F85800204C
:1019300000000020020000200400002090B5F7B055
:101940001EAF07F10C042060084611461A4607F145
:101950000A03188007F10803198007F107031A70BA
:101960004FF0000387F85F31BE4B1B7807F10A0286
:1019700012889A42C0F0708407F10A031A8807F1AE
:1019800008031B88D218B74B1B781946B64B1B7837
:10199000CB189A4200F3608407F10A031A88B34B0C
:1019A0001B78D31AC7F8583107F107031B78002BAF
:1019B00004D0012B00F0488400F04DBC07F1D403A3
:1019C0004FF0000019460BF067F807F1D0034FF015
:1019D000000019460BF048F997F8D630A7F8D83030
:1019E00097F8D530A7F8DA3097F8D430A7F8DC307C
:1019F00097F8D230A7F8DE3097F8D130A7F8E0306A
:101A000097F8D330A7F8E23097F8D030A7F8E43051
:101A100007F1D80303F10E03954A12681A6007F123
:101A2000D80303F11203924AD2ED017AFCEEE77A71
:101A3000C3ED007A07F1D80303F116038C4A9268CC
:101A40001A6007F1D80303F11A03894AD2ED037A29
:101A5000FCEEE77AC3ED007A07F1D80303F11E0329
:101A6000834A12691A6007F1D80303F12203804AFE
:101A7000D2ED057AFCEEE77AC3ED007A07F1D803E0
:101A800003F126037A4A92691A6007F1D80303F139
:101A90002A03774AD2ED077AFCEEE77AC3ED007AA3
:101AA00007F1D80303F12E03714A126A1A6007F195
:101AB000D80303F132036E4AD2ED097AFCEEE77ADD
:101AC000C3ED007A07F1D80303F13603684A926A3E
:101AD0001A6007F1D80303F13A03654AD2ED0B7A95
:101AE000FCEEE77AC3ED007A07F1D80303F13E0379
:101AF0005F4A126B1A6007F1D80303F142035C4A94
:101B0000D2ED0D7AFCEEE77AC3ED007A07F1D80347
:101B100003F14603564A926B1A6007F1D80303F1AA
:101B20004A03534AD2ED0F7AFCEEE77AC3ED007A0E
:101B300007F1D80303F14E034D4A126C1A6007F106
:101B4000D80303F152034A4AD2ED117AFCEEE77A48
:101B5000C3ED007A07F1D80303F15603444A926CAF
:101B60001A6007F1D80303F15A03414AD2ED137A00
:101B7000FCEEE77AC3ED007A07F1D80303F15E03C8
:101B80003B4A126D1A6007F1D80303F16203384A29
:101B9000D2ED157AFCEEE77AC3ED007A07F1D803AF
:101BA00003F16603324A926D1A6007F1D80303F11C
:101BB0006A032F4AD2ED177AFCEEE77AC3ED007A7A
:101BC00007F1D80303F16E03294A126E1A6007F178
:101BD000D80303F17203264AD2ED197AFCEEE77AB4
:101BE000C3ED007A07F1D80303F17603204A926E21
:101BF0001A6007F1D80303F17A031D4AD2ED1B7A6C
:101C0000FCEEE77AC3ED007A07F1D80303F17E0317
:101C1000174A126F1A6007F1D80303F18203144ABE
:101C2000D2ED1D7AFCEEE77AC3ED007A07F1D80316
:101C300003F186030E4A926F1A6007F1D80303F18D
:101C40008A030B4AD2ED1F7AFCEEE77AC3ED007AE5
:101C500007F1D80303F18E03054AD2F880201A60F9
:101C600045E000BF01000020030000200500002027
:101C700070580020D7F858314FEA430307F5B07287
:101C8000D31833F8883C4FEA13239BB2DAB207F13A
:101C90000C031B681A7007F10C0307F10C021268A1
:101CA00002F101021A60D7F858314FEA430307F5F1
:101CB000B072D31833F8883CDAB207F10C031B6812
:101CC0001A7007F10C0307F10C02126802F101020D
:101CD0001A60D7F8583103F10103C7F8583107F1FA
:101CE000080307F10802128802F1FF321A8007F197
:101CF00008031B88002BBDD1ADE2D7F85831072B64
:101D000000F2938201A252F823F000BF2D1D0008BB
:101D1000B91D0008451E0008D11E00085D1F0008FF
:101D2000E91F000875200008012100084FF000039A
:101D3000A7F8CE3007F1C8034FF0000019460AF0AB
:101D4000ABFE07F1CE0303F1010307F10C021268A9
:101D500012781A7007F10C0307F10C02126802F1F5
:101D600001021A6007F1CE0307F10C021268127823
:101D70001A7007F10C0307F10C02126802F101025C
:101D80001A60B7F8CE30DBB287F8CA3007F1C80363
:101D90004FF0000019460AF0EDFDD7F8583103F175
:101DA0000103C7F8583107F1080307F10802128848
:101DB00002F1FF321A8047E24FF00003A7F8C63065
:101DC00007F1C0034FF0000019460AF065FE07F165
:101DD000C60303F1010307F10C02126812781A70AE
:101DE00007F10C0307F10C02126802F101021A60FC
:101DF00007F1C60307F10C02126812781A7007F196
:101E00000C0307F10C02126802F101021A60B7F824
:101E1000C630DBB287F8C13007F1C0034FF00000D5
:101E200019460AF0A7FDD7F8583103F10103C7F8A6
:101E3000583107F1080307F10802128802F1FF3256
:101E40001A8001E24FF00003A7F8BE3007F1B80393
:101E50004FF0000019460AF01FFE07F1BE0303F120
:101E6000010307F10C02126812781A7007F10C03D3
:101E700007F10C02126802F101021A6007F1BE03B9
:101E800007F10C02126812781A7007F10C0307F1BF
:101E90000C02126802F101021A60B7F8BE30DBB220
:101EA00087F8B83007F1B8034FF0000019460AF080
:101EB00061FDD7F8583103F10103C7F8583107F134
:101EC000080307F10802128802F1FF321A80BBE111
:101ED0004FF00003A7F8B63007F1B0034FF0000051
:101EE00019460AF0C1FE07F1B60303F1010307F139
:101EF0000C02126812781A7007F10C0307F10C0239
:101F0000126802F101021A6007F1B60307F10C0230
:101F1000126812781A7007F10C0307F10C021268AC
:101F200002F101021A60B7F8B630DBB287F8B230BE
:101F300007F1B0034FF0000019460AF0FFFDD7F893
:101F4000583103F10103C7F8583107F1080307F1CD
:101F50000802128802F1FF321A8075E14FF0000387
:101F6000A7F8AE3007F1A8034FF0000019460AF0B9
:101F70007BFE07F1AE0303F1010307F10C021268C7
:101F800012781A7007F10C0307F10C02126802F1C3
:101F900001021A6007F1AE0307F10C021268127811
:101FA0001A7007F10C0307F10C02126802F101022A
:101FB0001A60B7F8AE30DBB287F8A93007F1A80392
:101FC0004FF0000019460AF0B9FDD7F8583103F177
:101FD0000103C7F8583107F1080307F10802128816
:101FE00002F1FF321A802FE14FF00003A7F8A6306C
:101FF00007F1A0034FF0000019460AF035FE07F183
:10200000A60303F1010307F10C02126812781A709B
:1020100007F10C0307F10C02126802F101021A60C9
:1020200007F1A60307F10C02126812781A7007F183
:102030000C0307F10C02126802F101021A60B7F8F2
:10204000A630DBB287F8A33007F1A0034FF0000001
:1020500019460AF073FDD7F8583103F10103C7F8A8
:10206000583107F1080307F10802128802F1FF3224
:102070001A80E9E04FF00003A7F89E3007F19803BB
:102080004FF0000019460AF0EFFD07F19E0303F13F
:10209000010307F10C02126812781A7007F10C03A1
:1020A00007F10C02126802F101021A6007F19E03A7
:1020B00007F10C02126812781A7007F10C0307F18D
:1020C0000C02126802F101021A60B7F89E30DBB20E
:1020D00087F8983007F198034FF0000019460AF08E
:1020E0002DFDD7F8583103F10103C7F8583107F136
:1020F000080307F10802128802F1FF321A80A3E0F8
:102100004FF00003C7F8943007F1940303F1010383
:1021100007F10C02126812781A7007F10C0307F12C
:102120000C02126802F101021A6007F1940307F130
:102130000C02126812781A7007F10C0307F10C02F6
:10214000126802F101021A6007F1940303F103031C
:1021500007F10C02126812781A7007F10C0307F1EC
:102160000C02126802F101021A6007F1940303F1F4
:10217000020307F10C02126812781A7007F10C03BF
:1021800007F10C02126802F101021A60D7F89420DC
:10219000374B9A423AD9D7F89420364B9A4235D8E1
:1021A000354B1B6818464FF000014FF0FF324FF0DF
:1021B000000306F011F8D7F89420304B1A6007F1AD
:1021C00010022E4B11461A464FF084030846114662
:1021D0001A460BF09FFB284B1B6818464FF0000176
:1021E0004FF000024FF0000305F0DCFE07F1100491
:1021F000694604F110024FF07403084611461A466E
:102200000BF088FB94E80F0003F0E4FDD7F8583199
:1022100003F10203C7F8583107F1080307F1080278
:102220001288A2F102021A800EE007F1080307F1FA
:102230000802128802F1FF321A8007F10C0307F13D
:102240000C0212681A6000BF07F108031B88002BFC
:102250007FF453AD00BF03E04FF0010387F85F3117
:1022600097F85F31184607F5B277BD4690BD00BFBD
:1022700017293101E83031015859002070580020E9
:1022800080B485B000AFF86079813A81FB714FF07E
:102290000103184607F11407BD4680BC704700BF14
:1022A00080B483B000AF786013460A467A803B80E2
:1022B0004FF00103184607F10C07BD4680BC70477C
:1022C00080B598B000AFF860B9601346FB804FF05E
:1022D000000387F85F304FF0000387F858304FF065
:1022E0000003A7F85C304FF00003A7F85A304FF016
:1022F0000003A7F85C308CE0B7F85C2013464FEA87
:1023000043039B184FEA4303BA68D3181B88002B7A
:1023100074D1B7F85C2013464FEA43039B184FEA89
:102320004303BA68D3185B88A7F85A3049E0FB68C2
:102330004FF047021A70FB6803F10103FB60FB6872
:102340004FF006021A70FB6803F10103FB60B7F857
:102350005A2007F110031046194601F06FFE03469C
:1023600087F8583097F85830002B20D14FF00003F1
:1023700087F859304FF0000387F8593012E097F88A
:10238000593007F16002D31813F8502CFB681A700B
:10239000FB6803F10103FB6097F8593003F1010377
:1023A00087F8593097F85930452BE8D903E04FF0BA
:1023B000010387F85F30B7F85A3003F10103A7F83B
:1023C0005A30B7F85A10B7F85C2013464FEA430367
:1023D0009B184FEA4303BA68D3185B881846B7F8CE
:1023E0005C2013464FEA43039B184FEA4303BA6845
:1023F000D3189B88C318994299DB04E04FF001037E
:1024000087F85F3000BFB7F85C3003F10103A7F82D
:102410005C30B7F85C20FB889A42FFF46DAF97F808
:102420005F30184607F16007BD4680BD90B587B0A4
:1024300002AF7860F970BA707B704FF00003FB73E5
:102440007B684FF0020283F83620BB78002B05D062
:10245000BB78002B02D0BB78F72B03D94FF00203D7
:10246000FB734FE07B68BA7883F83420FB78002B4D
:102470002CD17B68264ADA607B68264A1A617B6821
:10248000254A9A617B68254A5A617B684FF00002B1
:10249000DA617B68224A1A627B68224A5A627B6848
:1024A000214A9A627B6803F138007B6803F150018E
:1024B0007B6893F834207B783C6A009497F824403A
:1024C000019404F085F90346FB7302E04FF0020328
:1024D000FB73FB7B002B15D17B6803F1640318466B
:1024E00000F0CAFA0346002B03D14FF00303FB733D
:1024F00008E07B68FA7883F835207B684FF00102AA
:1025000083F83620FB7B184607F11407BD4690BDC3
:10251000556800088D68000849690008BD68000812
:10252000316A0008016B0008B16B000880B584B007
:1025300000AF78604FF00003FB737B6893F8363090
:10254000012B11D17B68DB687A6802F168007A6838
:1025500002F138017A6802F1500298477B684FF027
:10256000000283F8362002E04FF00603FB73FB7B8A
:10257000184607F11007BD4680BD00BFB0B586B054
:1025800002AF78604FF00003FB727B6893F836303F
:10259000002B02D04FF00603BEE07B6803F164021B
:1025A00007F10A031046194600F08CFA0346012B86
:1025B00040F0B080BB7A032B00F2AC8001A252F84D
:1025C00023F000BF15270008D525000823260008A2
:1025D000152700087B685C697B6803F168007B68ED
:1025E00003F104017A687B6803F10603A047034600
:1025F000FB72FB7A002B40F08A807B681A797B683B
:1026000093F834309A4203D07B681B79002B7ED13B
:102610007B6803F1640318464FF0020100F03CFAB6
:1026200075E07B681B681A787B685A717B684FF08D
:1026300001021A724FF00003FB6024E0394BFA6884
:1026400013F83230002B22D0364BFA6813F83220C0
:102650007B685B799A4212D1324AFB684FEAC30326
:10266000D3185B687A6811687A6802F10602084636
:102670001146984703461A467B681A7208E0FB68C1
:1026800003F10103FB60FB68102BD7DD00E000BF06
:102690007B681B79002B3CD07B681B7A002B22D0F7
:1026A0007B684FF00002DA807B6819687B68DB8802
:1026B0001A468A187968497961F07F01C9B21170A8
:1026C00003F101039AB27B68DA807B6819687B6842
:1026D000DB881A468A187968097A117003F10103B8
:1026E0009AB27B68DA807B689C697B6803F168003A
:1026F0007B6803F138017B6893F834207B681B68A2
:102700007D68ED880095A0470346FB7201E000BF9D
:1027100000E000BF4FF00003184607F11007BD4668
:10272000B0BD00BF0800002080B586B004AF4248AD
:1027300006F0ECFE404803F051FD404807F068F811
:102740003E4803F02BFE3E4807F026F93C4803F0D4
:1027500005FF4FF4614300934FF0000301933648A7
:102760004FF000014FF00A024FF00003FFF75EFE4A
:102770000346FB714FF4614300934FF00003019354
:102780002E484FF000014FF00A024FF00003FFF710
:102790004DFE0346FB714FF4614300934FF000037D
:1027A000019327484FF000014FF00A024FF0000359
:1027B000FFF73CFE0346FB714FF0010300934FF01F
:1027C000000301934FF0000302934FF000030393C3
:1027D0001C481D494FF400724FF0000301F012FD38
:1027E0004FF0010300934FF0000301934FF00003FB
:1027F00002934FF000030393144815494FF40072FD
:102800004FF0000301F0FEFC4FF0010300934FF086
:10281000000301934FF0000302934FF00003039372
:102820000C480D494FF400724FF0000301F0EAFC30
:1028300007F10807BD4680BDEC4500207844002024
:10284000604700205D280008B0E4000895280008D3
:10285000C0E40008CD280008D0E4000880B582B0AC
:1028600000AF78600A48FFF761FE4FF001004FF0BB
:10287000000101F097FC0648FFF780FE4FF00A00C8
:1028800001F078FD4FF0010001F0A4FCF3E700BF78
:10289000EC45002080B582B000AF78600A48FFF7B1
:1028A00045FE4FF000004FF0000101F07BFC0648B0
:1028B000FFF764FE4FF00A0001F05CFD4FF00000EE
:1028C00001F088FCF3E700BF7844002080B582B0B7
:1028D00000AF78600A48FFF729FE4FF002004FF082
:1028E000000101F05FFC0648FFF748FE4FF00A00C8
:1028F00001F040FD4FF0020001F06CFCF3E700BF77
:102900006047002080B586B000AF786039604FF036
:102910000003BB753B681B88052B40F081807B68FA
:1029200003F101031B784FEA0323BB827B6803F1A9
:1029300002031B781A46BB8A1343BB82BB8A03F18E
:102940000103BB827B6803F103031B784FEA032377
:102950007B827B6803F104031B781A467B8A13434E
:102960007B827B8A002B57D07A8A40F2CF739A42BF
:1029700052D87B68FB603B684FF000021A80FB680E
:102980004FF002021A70FB6803F10103FB603B6821
:102990001B8803F101039AB23B681A807B8A03F01B
:1029A0000703002B08D07B8A4FEAD3039BB2DBB22C
:1029B00003F10103FB7504E07B8A4FEAD3039BB26A
:1029C000FB75FB68FA7D1A70FB6803F10103FB607D
:1029D0003B681B8803F101039AB23B681A80BA8AEC
:1029E0007B8AF86811461A46FFF75AFC0346FB72C9
:1029F000FB7A002B06D0FB7A184600F009FB034651
:102A0000BB7510E03B681A88FB7D9BB2D3189AB265
:102A10003B681A8000BF06E04FF00303BB7502E07D
:102A20004FF00303BB75BB7D184607F11807BD4681
:102A300080BD00BF80B400AFBD4680BC704700BF02
:102A400080B483B000AF0346FB7107F10C07BD46AD
:102A500080BC704780B400AFBD4680BC704700BFEB
:102A600080B400AFBD4680BC704700BF80B400AFEB
:102A7000BD4680BC704700BF80B483B000AF7860B3
:102A80007B684FF000025A704FF00103184607F1BF
:102A90000C07BD4680BC704780B483B000AF78603F
:102AA0000B46FB707B684FF001025A707B68FA7826
:102AB0001A704FF00103184607F10C07BD4680BCA1
:102AC000704700BF80B584B000AF786039604FF0C8
:102AD0000003FB737B685B78002B14D07B681A784B
:102AE0003B681A707B684FF000025A704FF0010388
:102AF000FB737B681B78032B05D1064B5B6A06488A
:102B00000649074A9847FB7B184607F11007BD4660
:102B100080BD00BF60470020C847002098470020C4
:102B2000C447002080B582B000AF786039607B6810
:102B300003F101020A4B1B8810460A491A460AF0A3
:102B4000E9FE074B1B8803F101039AB23B681A8028
:102B50004FF00003184607F10807BD4680BD00BFCF
:102B6000F0020020D002002080B58AB000AF78606B
:102B700039604FF000037B624FF000033B624FF07F
:102B80000003FB614FF00003BB617B681B8A9BB2B3
:102B90007B627B6A23F440537B623B68DB887A6A02
:102BA00013437B627B6A9AB27B681A827B689B893B
:102BB0009BB27B627B6A23F4B05323F00C037B62ED
:102BC0003B689A883B681B8913439AB23B685B89D0
:102BD00013439BB27A6A13437B627B6A9AB27B6827
:102BE0009A817B689B8A9BB27B627B6A23F44073E9
:102BF0007B623B689B897A6A13437B627B6A9AB2E9
:102C00007B689A8207F10803184600F00BFF7A6888
:102C1000394B9A4203D07A68384B9A4202D17B6989
:102C20003B6201E03B693B627B689B899BB29BB244
:102C30001BB2002B0FDA3A6A13464FEA83039B1844
:102C40004FEA83029A183B681B684FEA4303B2FBC2
:102C5000F3F3FB610EE03A6A13464FEA83039B18D5
:102C60004FEA83029A183B681B684FEA8303B2FB62
:102C7000F3F3FB61FA69224BA3FB02134FEA5313F0
:102C80004FEA03137B627B6A4FEA13134FF064022F
:102C900002FB03F3FA69D31ABB617B689B899BB281
:102CA0009BB21BB2002B0FDABB694FEAC30303F1DF
:102CB0003202134BA3FB02134FEA531303F0070333
:102CC0007A6A13437B620EE0BB694FEA031303F198
:102CD00032020B4BA3FB02134FEA531303F00F0313
:102CE0007A6A13437B627B6A9AB27B681A8107F126
:102CF0002807BD4680BD00BF001001400014014000
:102D00001F85EB5180B483B000AF78600B46FB7039
:102D1000FB78002B08D07B689B899BB243F400535F
:102D20009AB27B689A8107E07B689B899BB223F407
:102D300000539AB27B689A8107F10C07BD4680BCAC
:102D4000704700BF80B483B000AF78600B467B80D3
:102D50007B884FEAC3534FEAD3539AB27B689A8079
:102D600007F10C07BD4680BC704700BF80B483B03C
:102D700000AF78607B689B889BB24FEAC3534FEAF1
:102D8000D3539BB2184607F10C07BD4680BC704771
:102D900080B487B000AF786013460A467A807B70B3
:102DA0004FF000033B614FF00003FB604FF0000366
:102DB000BB604FF000037B617B687B617B88DBB28B
:102DC0004FEA5313DBB23B617B8803F01F03FB60C8
:102DD000FB684FF0010202FA03F3BB603B69012B71
:102DE00004D17B6903F10C037B610BE03B69022B8F
:102DF00004D17B6903F110037B6103E07B6903F17C
:102E000014037B617B78002B06D07B697A6911689B
:102E1000BA680A431A6007E07B697A691168BA6880
:102E20006FEA02020A401A6007F11C07BD4680BC27
:102E3000704700BF80B485B000AF78600B467B80E0
:102E40004FF00003FB737B681B889AB27B881340AA
:102E50009BB2002B03D04FF00103FB7302E04FF055
:102E60000003FB73FB7B184607F11407BD4680BCCB
:102E7000704700BF80B483B000AF78600B467B80A2
:102E80007B886FEA03039AB27B681A8007F10C070C
:102E9000BD4680BC704700BF80B487B000AF78608B
:102EA0000B467B804FF00003FB604FF000037B611B
:102EB0004FF00003BB604FF00003FB747B88DBB274
:102EC0004FEA5313DBB2BB607B8803F01F037B61C7
:102ED0007B694FF0010202FA03F37B61BB68012BAF
:102EE00006D17B689B899BB27A6913407B610FE0B6
:102EF000BB68022B06D17B681B8A9BB27A691340A0
:102F00007B6105E07B689B8A9BB27A6913407B6199
:102F10007B884FEA13239BB2FB60FB684FF00102F2
:102F200002FA03F3FB607B681B889BB2FA681340CC
:102F3000FB607B69002B06D0FB68002B03D04FF0B1
:102F40000103FB7402E04FF00003FB74FB7C1846A6
:102F500007F11C07BD4680BC704700BF80B483B03A
:102F600000AF0346FB71044BFA791A6007F10C07B6
:102F7000BD4680BC704700BF20000E4280B586B0C1
:102F800000AF4FF000037B614FF000033B614FF057
:102F900080504FF0010100F081FE4FF00100FFF77B
:102FA000DDFF4FF0010000F017FD00BF4FF04100C2
:102FB00000F0D4FE0346002BF8D04FF4807000F0F0
:102FC000EDFD4FF0FF033B614FF07F037B614FF05E
:102FD000010000F013FE09F089FC4FF0000043F2FD
:102FE000F22109F093FE07F10403184609F01AFCD8
:102FF0007B69BB603B69FB604FF000037B6007F1BE
:103000000403184609F0CAFB07F11807BD4680BD46
:1030100080B485B000AF0346FB71FB79012B07D06C
:10302000072B09D0002B0BD14FF00003FB730BE0F3
:103030004FF00203FB7307E04FF00603FB7303E05E
:103040004FF00403FB7300BFFB7B184607F1140726
:10305000BD4680BC704700BF80B582B000AF154B45
:103060007B60154B3B600BE07B681A683B681A601D
:103070003B6803F104033B607B6803F104037B605E
:103080003A680E4B9A42EFD30D480E494FF00002BA
:103090008842B8BF40F8042BFFF6FAAFDFF82800EB
:1030A000016841F47001016000F034FC07F1080789
:1030B000BD4680BDA0E8000800000020CC02002032
:1030C000D00200205C59002088ED00E080B400AF01
:1030D000FEE700BF80B584B000AF786039604FF084
:1030E0000003FB733B681B88052B2AD17B6803F127
:1030F00001031B784FEA0323BB817B6803F10203C2
:103100001B781A46BB891343BB81BB8903F10103BA
:10311000BB817B6803F10302BB89104619464FF05F
:1031200001024FF00103FEF709FC0346FB72FB7A34
:10313000002B09D0FB7A1846FFF76AFF0346FB73A2
:1031400002E04FF00303FB73FB7B184607F1100707
:10315000BD4680BD80B584B000AF786039604FF067
:103160000003FB733B681B88052B54D97B6803F174
:1031700001031B784FEA0323BB817B6803F1020341
:103180001B781A46BB891343BB81BB8903F101033A
:10319000BB817B6803F103031B784FEA03237B8128
:1031A0007B6803F104031B781A467B8913437B81F8
:1031B0007B685B797B727B89002B28D07B89782B9D
:1031C00025D87B89DBB24FEA4303DBB27A7A9A4295
:1031D0001DD17B6803F10601BA897B890846114637
:1031E0001A464FF00103FEF7A9FB03463B723B7AF8
:1031F000002B06D03B7A1846FFF70AFF0346FB7305
:103200000CE03B684FF005021A8000BF06E04FF06B
:103210000303FB7302E04FF00303FB73FB7B1846D1
:1032200007F11007BD4680BD80B586B000AF78605D
:1032300039604FF00003FB753B681B88052B70D18C
:103240007B6803F101031B784FEA0323BB827B6891
:1032500003F102031B781A46BB8A1343BB82BB8A65
:1032600003F10103BB827B6803F103031B784FEA80
:1032700003237B827B6803F104031B787B827B8AB8
:10328000002B4AD07B8A7D2B47D87B68FB603B684C
:103290004FF000021A80FB684FF003021A70FB68BF
:1032A00003F10103FB603B681B8803F101039AB241
:1032B0003B681A807B8ADBB24FEA4303DAB2FB68D1
:1032C0001A70FB6803F10103FB603B681B8803F184
:1032D00001039AB23B681A80BA8A7B8AF868114661
:1032E0001A464FF00003FEF729FB0346FB72FB7AF8
:1032F000002B06D0FB7A1846FFF78AFE0346FB75C3
:1033000012E03B681A887B8A4FEA43039BB2D318CA
:103310009AB23B681A8000BF06E04FF00303FB75CA
:1033200002E04FF00303FB75FB7D184607F1180719
:10333000BD4680BD80B586B000AF786039604FF083
:103340000003FB753B681B88092B40F2B6807B6845
:1033500003F101031B784FEA0323BB827B6803F16F
:1033600002031B781A46BB8A1343BB82BB8A03F154
:103370000103BB827B6803F103031B784FEA03233D
:103380007B827B6803F104031B781A467B8A134314
:103390007B827B6803F105031B784FEA03233B82A2
:1033A0007B6803F106031B781A463B8A13433B8272
:1033B0003B8A03F101033B827B6803F107031B781F
:1033C0004FEA0323FB817B6803F108031B781A464D
:1033D000FB891343FB817B685B7A7B737B8A002BC1
:1033E00068D07B8A7D2B65D8FB89002B62D0FB8956
:1033F000792B5FD8FB894FEA43027B7B9A4259D1F4
:103400007B6803F10A013A8AFB89084611461A468D
:103410004FF00103FEF792FA0346BB75BB7D002B0C
:103420003ED17B68BB603B684FF000021A80BB68EE
:103430004FF017021A70BB6803F10103BB603B68D1
:103440001B8803F101039AB23B681A807B8ADBB2C6
:103450004FEA4303DAB2BB681A70BB6803F1010399
:10346000BB603B681B8803F101039AB23B681A807A
:10347000BA8A7B8AB86811461A464FF00003FEF7F5
:103480005DFA0346BB75BB7D002B09D13B681A88EA
:103490007B8A4FEA43039BB2D3189AB23B681A80E7
:1034A000BB7D002B09D0BB7D1846FFF7B1FD03465D
:1034B000FB7502E04FF00303FB75FB7D184607F137
:1034C0001807BD4680BD00BF80B584B000AFF8606E
:1034D0007A603B600B46FB72F86803F007FDF86802
:1034E00000F01EF8FB683A68C3F8E025FB68BA698B
:1034F000C3F8E425FB687A68C3F8E825FB7AF86826
:10350000194608F0F5FEFB68D3F8E4351B689847C8
:10351000F86803F051FD07F11007BD4680BD00BFFC
:1035200080B483B000AF78604FF00003184607F115
:103530000C07BD4680BC704780B584B000AF786092
:1035400007F108037868194604F0B8F93B7A03F0EC
:103550001F03012B0AD0022B0FD0002B14D107F12F
:1035600008037868194603F0A3FD16E007F1080385
:103570007868194603F0EEFD0FE007F1080378685C
:10358000194603F01DFE08E03B7A23F07F03DBB20F
:103590007868194609F060F800BF4FF0000318463C
:1035A00007F11007BD4680BD80B584B000AF7860DC
:1035B0000B46FB70FB78002B45D17B6803F55C73F1
:1035C000FB607B6893F81131032B4FD1FB68DA69FC
:1035D000FB689B689A4221D9FB68DA69FB689B68A3
:1035E000D21AFB68DA617B68DB78012B06D1FB68B5
:1035F000DA68FB689B68D218FB68DA60FB68DA68F7
:10360000FB689968FB68DB69994238BF0B469BB23F
:10361000786811461A4609F035FC27E07B68D3F834
:10362000E0351B69002B0AD07B6893F81231032B1D
:1036300005D17B68D3F8E0351B69786898477868CE
:1036400009F038FC12E07B68D3F8E0359B69002B69
:103650000CD07B6893F81231032B07D17B68D3F829
:10366000E0359B69FA787868114698474FF0000377
:10367000184607F11007BD4680BD00BF80B584B075
:1036800000AF78600B46FB70FB78002B63D17B6842
:1036900003F58C73FB607B6893F81131022B6ED1BC
:1036A000FB68DA69FB689B689A421CD9FB68DA6997
:1036B000FB689B68D21AFB68DA617B68DB78012BB8
:1036C00006D1FB68DA68FB689B68D218FB68DA6091
:1036D000FB68DA68FB68DB699BB2786811461A46BA
:1036E00009F094FB4BE0FB681B6AFA689268B3FB35
:1036F000F2F102FB01F29B1A002B17D1FB681A6A48
:10370000FB689B689A4211D3FB681A6AFB685B6A84
:103710009A420BD278684FF000014FF0000209F096
:1037200075FBFB684FF000025A6229E07B68D3F812
:10373000E035DB68002B0AD07B6893F81231032B4D
:1037400005D17B68D3F8E035DB68786898477868FE
:1037500009F0CEFB13E07B68D3F8E0355B69002B02
:103760000ED07B6893F81231032B09D17B68D3F814
:10377000E0355B69FA7878681146984700E000BF49
:103780004FF00003184607F11007BD4680BD00BF8B
:1037900080B582B000AF786078684FF000014FF0DC
:1037A00040024FF0000308F039FE78684FF08001C6
:1037B0004FF040024FF0000308F030FE7B684FF0FE
:1037C000010283F812217B68D3F8E4355B687A68DC
:1037D0009278104698474FF00003184607F1080703
:1037E000BD4680BD80B582B000AF78607B68D3F8FD
:1037F000E4351B6998477B684FF0030283F8122178
:103800004FF00003184607F10807BD4680BD00BF12
:1038100080B582B000AF78607B684FF0040283F817
:1038200012217B68D3F8E435DB6898474FF000033A
:10383000184607F10807BD4680BD00BF80B582B0BD
:1038400000AF78607B68D3F8E035DB69002B05D0EA
:103850007B68D3F8E035DB69786898474FF0000360
:10386000184607F10807BD4680BD00BF80B582B08D
:1038700000AF78600B46FB707B68D3F8E0351B68BF
:10388000FA787868114698477B68D3F8E4359B68E6
:1038900098474FF00003184607F10807BD4680BD62
:1038A00080B582B000AF78600B46FB707B68D3F8C0
:1038B000E0355B68FA787868114698474FF0000366
:1038C000184607F10807BD4680BD00BF80B582B02D
:1038D00000AF78607B68D3F8E0351B6A786898475A
:1038E0004FF00003184607F10807BD4680BD00BF32
:1038F00080B582B000AF78607B68D3F8E0355B6A52
:10390000786898474FF00003184607F10807BD464E
:1039100080BD00BF80B500AF03F032FA09F014FC9F
:1039200000F070FDFEE700BF80B400AFFEE700BF0F
:1039300080B483B000AF78603960FEE780B582B0B4
:1039400000AF09F0CDFB03467B607B6807F10807F9
:10395000BD4680BD80B485B000AF78600B467B80EB
:103960004FF0FF03FB734FF0FF03BB7315E07B6861
:103970001A78BB7B5340DBB2BB607B6803F1010369
:103980007B60134ABB68D3181A78FB7B5340BB7328
:10399000104ABB68D3181B78FB737B88002B0CBFC5
:1039A00000230123DBB27A8802F1FF327A80002BF8
:1039B000DDD1FB7B4FEA03239AB2BB7B9BB213435F
:1039C0009BB29BB2184607F11407BD4680BC7047F6
:1039D000DCE40008DCE5000880B483B000AF0346F7
:1039E000FB710F4B4FF000021A700D4B4FF00002AD
:1039F0001A70FB79012B02D0042B05D009E0084B8B
:103A00004FF001021A7005E0054B4FF005021A70E5
:103A100000E000BF07F10C07BD4680BC704700BF47
:103A20007038024080B489B000AF78604FF0000376
:103A3000BB614FF000037B614FF00003FB614FF06F
:103A400002033B614FF00003FB604FF00203BB60D9
:103A50004E4B9B6803F00C03BB61BB69042B07D082
:103A6000082B09D0002B45D17B68494A1A6045E0F4
:103A70007B68484A1A6041E0444B5B6803F480036A
:103A80004FEA9353FB60414B5B6803F03F03BB601D
:103A9000FB68002B0ED03F4ABB68B2FBF3F23B4BF6
:103AA000596847F6C0730B404FEA931303FB02F3C8
:103AB000FB610DE0364ABB68B2FBF3F2334B596849
:103AC00047F6C0730B404FEA931303FB02F3FB610D
:103AD0002E4B5B6803F440334FEA134303F10103B9
:103AE0004FEA43033B61FA693B69B2FBF3F27B683F
:103AF0001A6003E07B68264A1A6000BF234B9B686C
:103B000003F0F003BB61BB694FEA1313BB61224AA8
:103B1000BB69D3181B78DBB27B617B681A687B6951
:103B200022FA03F27B685A60184B9B6803F4E05357
:103B3000BB61BB694FEA9323BB61174ABB69D318CA
:103B40001B78DBB27B617B685A687B6922FA03F2DF
:103B50007B689A600D4B9B6803F46043BB61BB6953
:103B60004FEA5333BB610C4ABB69D3181B78DBB2F5
:103B70007B617B685A687B6922FA03F27B68DA60B2
:103B800007F12407BD4680BC704700BF00380240E3
:103B90000024F40000127A00DC00002080B485B01C
:103BA00000AF78604FF00003FB607B6803F4407364
:103BB000B3F5407F11D1104B9B68FB60FB6823F489
:103BC000F813FB607B6823F0704323F44073FA68BA
:103BD0001343FB60084BFA689A60074A064B196F5B
:103BE0007B684FEA03534FEA13530B43136707F104
:103BF0001407BD4680BC70470038024080B483B0D3
:103C000000AF0346FB71044BFA791A6007F10C0709
:103C1000BD4680BC704700BF3C0E474280B483B0B5
:103C200000AF78600B46FB70FB78002B06D00A4B88
:103C3000094A116B7A680A431A6307E0064B064A81
:103C4000116B7A686FEA02020A401A6307F10C07E7
:103C5000BD4680BC704700BF0038024080B483B0CE
:103C600000AF78600B46FB70FB78002B06D00A4B48
:103C7000094A516B7A680A435A6307E0064B064AC1
:103C8000516B7A686FEA02020A405A6307F10C0727
:103C9000BD4680BC704700BF0038024080B483B08E
:103CA00000AF78600B46FB70FB78002B06D00A4B08
:103CB000094A116C7A680A431A6407E0064B064AFF
:103CC000116C7A686FEA02020A401A6407F10C0765
:103CD000BD4680BC704700BF0038024080B483B04E
:103CE00000AF78600B46FB70FB78002B06D00A4BC8
:103CF000094A516C7A680A435A6407E0064B064A3F
:103D0000516C7A686FEA02020A405A6407F10C07A4
:103D1000BD4680BC704700BF0038024080B483B00D
:103D200000AF78600B46FB70FB78002B06D00A4B87
:103D3000094A116A7A680A431A6207E0064B064A82
:103D4000116A7A686FEA02020A401A6207F10C07E8
:103D5000BD4680BC704700BF0038024080B487B0C9
:103D600000AF0346FB714FF00003FB604FF0000310
:103D70007B614FF00003FB74FB794FEA5313DBB216
:103D8000FB60FB68012B03D1134B1B687B6109E0CF
:103D9000FB68022B03D1104B1B6F7B6102E00E4BC3
:103DA0005B6F7B61FB7903F01F03FB60FB687A6943
:103DB00022FA03F303F00103002B03D04FF00103B9
:103DC000FB7402E04FF00003FB74FB7C184607F124
:103DD0001C07BD4680BC70470038024080B59EB0CD
:103DE00000AF786039604FF0000387F875304FF00E
:103DF000000387F874303B681B88082B40F2108161
:103E00007B6803F101031B78A7F87630B7F87620BA
:103E1000894BA3FB0213D21A4FEA52029B184FEAB6
:103E200093039BB287F873304FF0000387F8753027
:103E30005FE097F875207B6803F104031B7819464F
:103E40007B6803F103031B784FEA03239BB20B4308
:103E50009BB299B213464FEA43039B184FEA4303C0
:103E600007F17802D318A3F170030A461A8097F875
:103E700075207B6803F106031B7819467B6803F104
:103E800005031B784FEA03239BB20B439BB299B205
:103E900013464FEA43039B184FEA430307F17802A6
:103EA000D318A3F170030A465A8097F875207B68EF
:103EB00003F108031B7819467B6803F107031B789D
:103EC0004FEA03239BB20B439BB299B213464FEACE
:103ED00043039B184FEA430307F17802D318A3F179
:103EE00070030A469A8097F8753003F1010387F84A
:103EF000753097F8752097F873309A4299D397F8F0
:103F00007330002B00F0878097F87330092B00F294
:103F100082807B68FB663B684FF000021A80FB6E74
:103F20004FF014021A70FB6E03F10103FB663B684D
:103F30001B8803F101039AB23B681A804FF000031B
:103F4000A7F876304FF0000387F875301FE097F838
:103F5000752013464FEA43039B184FEA430307F1CA
:103F60007801CB18A3F170039B881A464FEAC2026E
:103F7000D3184FEAC3039AB2B7F87630D318A7F82C
:103F8000763097F8753003F1010387F8753097F8AC
:103F9000752097F873309A42D9D3B7F87630FA2B58
:103FA00033D8B7F87630DAB2FB6E1A70FB6E03F1D5
:103FB0000103FB663B681B8803F101039AB23B686F
:103FC0001A8097F873309BB207F10802F86E114619
:103FD0001A46FEF775F9034687F86B3097F86B3091
:103FE000002B08D097F86B301846FFF711F80346FE
:103FF00087F8743018E03B681A88B7F87630DBB27F
:10400000D3189AB23B681A800EE04FF0030387F88A
:10401000743000BF08E04FF0030387F8743003E00A
:104020004FF0030387F8743097F87430184607F19F
:104030007807BD4680BD00BF2549922480B584B075
:1040400000AF03463960FB804FF00003FB73FB8831
:10405000632B18D8FB881A464FEA8202D3181A46F7
:104060004FEAC202D31A4FEA43039BB203F1300373
:104070009BB2184639684FF0460201F0B3F9034687
:10408000FB73FB7B01E04FF00403184607F11007B8
:10409000BD4680BD80B586B000AF786039604FF016
:1040A0000003FB753B681B88052B71D17B6803F10E
:1040B00001031B784FEA0323BB827B6803F10203F1
:1040C0001B781A46BB8A1343BB82BB8A03F10103E8
:1040D000BB827B6803F103031B784FEA03237B82D7
:1040E0007B6803F104031B781A467B8A13437B82A7
:1040F0007B8A002B48D07B8A7C2B45D87B68FB6071
:104100003B684FF000021A80FB684FF004021A70FF
:10411000FB6803F10103FB603B681B8803F10103AB
:104120009AB23B681A807B8ADBB24FEA4303DAB269
:10413000FB681A70FB6803F10103FB603B681B8896
:1041400003F101039AB23B681A80BA8A7B8AF86845
:1041500011461A46FDF7BCFA0346FB72FB7A002BA8
:1041600006D0FB7A1846FEF753FF0346FB7512E0B4
:104170003B681A887B8A4FEA43039BB2D3189AB2F2
:104180003B681A8000BF06E04FF00303FB7502E0B6
:104190004FF00303FB75FB7D184607F11807BD467A
:1041A00080BD00BF80B483B000AF02460B46FA71F9
:1041B000BB71FB79092B06D8FB79054A4FEAC3038B
:1041C000D318BA791A7107F10C07BD4680BC704745
:1041D000D448002080B483B000AF0346FB71FB7964
:1041E000092B08D8FB79064A52F8332002F1010165
:1041F000034A42F8331007F10C07BD4680BC7047F4
:10420000D448002080B58AB002AFF860B9603B6046
:104210001346FB80FB68002B02D103F03DFDFEE757
:10422000BB6A042B02D903F037FDFEE7FB88184672
:10423000396B00F067FDB861BB69002B75D0BB69B5
:104240001A6BFB8803F1FF334FEA8303D3187B61BA
:104250007B6923F007037B617B6903F00703002B75
:1042600002D003F019FDFEE7FB880093B869B96836
:10427000BA6A7B6B00F02EFC7869F9683A6803F043
:10428000F9FB0246BB691A60FB6A002B02D0FB6A8D
:10429000BA691A6003F0C6FC304B1B6803F10102D7
:1042A0002E4B1A602E4B1B68002B09D12C4BBA6980
:1042B0001A602A4B1B68012B0FD100F069FC0CE03F
:1042C000284B1B68002B08D1254B1B68DA6ABB6A98
:1042D0009A4202D8224BBA691A60234B1B6803F139
:1042E0000102214B1A60BB69DB6A4FF0010202FA3E
:1042F00003F21E4B1B681A431C4B1A60BB69DA6A37
:1043000013464FEA83039B184FEA8303184A9A180F
:10431000BB6903F104031046194602F0A7FC4FF0F5
:104320000103FB6103F09EFC02E04FF0FF33FB61F1
:10433000FB69012B0BD10B4B1B68002B07D0084BE3
:104340001B68DA6ABB6A9A4201D203F05BFCFB6924
:10435000184607F12007BD4680BD00BFCC030020F2
:10436000F4020020D8030020E8030020D40300203A
:10437000F802002080B584B000AF78604FF00003F1
:10438000FB607B68002B2BD01A4B1B68002B02D0E4
:1043900003F082FCFEE700F06FF8174B1A687B68A9
:1043A000D318BB60154B1B6803F10403184602F0D9
:1043B000BBFC0346002B0DD1104B1B68DB6A4FF092
:1043C000010202FA03F36FEA03020D4B1B681A4065
:1043D0000B4B1A60B86800F05DFC00F05BF8F86009
:1043E000FB68002B01D103F00DFC07F11007BD465F
:1043F00080BD00BFEC030020D0030020F4020020A9
:10440000D403002080B586B004AF4FF000030093C2
:104410004FF0000301934FF0000302934FF00003AD
:104420000393114811494FF046024FF00003FFF784
:10443000E9FE78607B68012B0CD103F02DFC0C4B5E
:104440004FF001021A600B4B4FF000021A6003F0AC
:1044500073FB05E07B68002B02D103F01DFCFEE737
:1044600007F10807BD4680BDB14A0008DCE6000838
:10447000D8030020D003002080B400AF044B1B6899
:1044800003F10102024B1A60BD4680BC704700BFB9
:10449000EC03002080B582B000AF4FF000037B60DA
:1044A0003D4B1B68002B02D103F0F6FBFEE703F047
:1044B000B9FB394B1B6803F1FF32374B1A60364B9F
:1044C0001B68002B60D1354B1B68002B5CD036E09D
:1044D000334BDB68DB683B603B6803F1180318462D
:1044E00002F022FC3B6803F10403184602F01CFCB6
:1044F0003B68DB6A4FF0010202FA03F2294B1B68AA
:104500001A43284B1A603B68DA6A13464FEA830362
:104510009B184FEA8303244A9A183B6803F104036B
:104520001046194602F0A2FB3B68DA6A1F4B1B6873
:10453000DB6A9A4203D31E4B4FF001021A60184BFC
:104540001B68002BC4D11B4B1B68002B13D00EE043
:1045500000F032F80346002B03D0154B4FF0010258
:104560001A60144B1B6803F1FF32124B1A60114B97
:104570001B68002BECD10E4B1B68012B04D14FF0B4
:1045800001037B6003F03EFB03F06CFB7B68184685
:1045900007F10807BD4680BDEC030020CC030020D6
:1045A0008C030020D4030020F8020020F402002035
:1045B000E0030020DC03002080B586B000AF4FF0A0
:1045C00000037B61574B1B68002B40F09780564BD4
:1045D0001B6803F10102544B1A60534B1B683B618B
:1045E0003B69002B19D1514B1B681B68002B02D073
:1045F00003F052FBFEE74D4B1B68FB604C4B1A6807
:104600004A4B1A604A4BFA681A604A4B1B6803F11E
:104610000102484B1A6000F0C3FB474B1B683A6924
:104620009A4259D300E000BF404B1B681B68002B27
:1046300002D14FF0010301E04FF00003002B04D042
:104640003D4B4FF0FF321A6046E0384B1B68DB6889
:10465000DB68BB60BB685B687B603A697B689A42D9
:1046600003D2354B7A681A6036E0BB6803F1040365
:10467000184602F059FBBB689B6A002B05D0BB684B
:1046800003F11803184602F04FFBBB68DB6A4FF0DA
:10469000010202FA03F2294B1B681A43274B1A60E6
:1046A000BB68DA6A13464FEA83039B184FEA830319
:1046B000234A9A18BB6803F104031046194602F016
:1046C000D5FABB68DA6A1F4B1B68DB6A9A42AAD329
:1046D0004FF001037B61A6E71A4B1B68DA6A1849A1
:1046E00013464FEA83039B184FEA8303CB181B68DA
:1046F000012B09D94FF001037B6105E0124B1B68C8
:1047000003F10102104B1A60104B1B68002B02D002
:104710004FF001037B617B69184607F11807BD461E
:1047200080BD00BFEC030020D003002084030020E4
:1047300088030020E4030020E0010020D4030020CF
:10474000F8020020F4020020DC030020E003002037
:1047500090B585B000AF394B1B68002B04D0384BA7
:104760004FF001021A6065E0354B4FF000021A600D
:10477000344B1B681A68334B1B681B6B9A4209D871
:10478000304B1A682F4B1B6803F13403104619464F
:10479000FFF7CEF82B4B1B681B6B18462A494FF0CE
:1047A000140209F083F80346002B09D0254B1A6840
:1047B000244B1B6803F1340310461946FFF7B8F881
:1047C000224B1B687B607B68B3FA83F4FC70FB7838
:1047D000C3F11F03FB601E49FA6813464FEA8303C7
:1047E0009B184FEA8303CB181B68002B02D103F000
:1047F00053FAFEE7FA6813464FEA83039B184FEA21
:104800008303134A9B18BB60BB685B685A68BB682C
:104810005A60BB685A68BB6803F108039A4204D126
:10482000BB685B685A68BB685A60BB685B68DA68DB
:10483000044B1A6007F11407BD4690BDEC0300203D
:10484000E0030020F4020020E4E60008D403002086
:10485000F802002080B584B000AF786039607B68D2
:10486000002B02D103F018FAFEE71C4B1B6803F182
:1048700018037868194602F01DFA184B1B6803F1FB
:104880000403184602F050FA0346002B0DD1134BD7
:104890001B68DB6A4FF0010202FA03F36FEA0302BE
:1048A0000F4B1B681A400E4B1A603B68B3F1FF3F79
:1048B00008D10A4B1B6803F104030A48194602F0A9
:1048C000D5F907E0084B1A683B68D318FB60F86815
:1048D00000F0E0F907F11007BD4680BDF4020020AA
:1048E000D4030020B8030020D003002080B584B09A
:1048F00000AF78607B68DB68DB68BB60BB68002B5F
:1049000002D103F0C9F9FEE7BB6803F118031846AA
:1049100002F00AFA224B1B68002B22D1BB6803F17C
:104920000403184602F000FABB68DB6A4FF001028C
:1049300002FA03F21B4B1B681A431A4B1A60BB683E
:10494000DA6A13464FEA83039B184FEA8303164A39
:104950009A18BB6803F104031046194602F086F961
:1049600006E0BB6803F118031048194602F07EF90F
:10497000BB68DA6A0E4B1B68DB6A9A4207D94FF0B4
:104980000103FB600B4B4FF001021A6002E04FF095
:104990000003FB60FB68184607F11007BD4680BDA9
:1049A000EC030020D4030020F80200208C03002038
:1049B000F4020020E003002080B582B000AF7860F0
:1049C0007B68002B02D103F067F9FEE7054B1A68FC
:1049D0007B681A60044B1A687B685A6007F1080705
:1049E000BD4680BDE4030020D003002080B584B024
:1049F00000AF786039607B68002B02D103F04CF97E
:104A0000FEE73B68002B02D103F046F9FEE703F016
:104A100009F91F4B1B68BB603B681B68B3F1FF3F84
:104A200003D14FF00003FB6029E07B681A68194B43
:104A30001B689A4208D07B685A68BB689A4203D8C0
:104A40004FF00103FB601AE07B685B68BA68D21A1A
:104A50003B681B689A420FD23B681A687B685968AA
:104A6000BB68CB1AD2183B681A607868FFF7A4FFBE
:104A70004FF00003FB6002E04FF00103FB6003F026
:104A8000F1F8FB68184607F11007BD4680BD00BF6E
:104A9000D0030020E403002080B400AF034B4FF0AC
:104AA00001021A60BD4680BC704700BFE0030020D1
:104AB00080B582B000AF786000F0AEF8044B1B68A0
:104AC000012B01D903F09EF8FEF738FFF4E700BF91
:104AD000F802002080B586B000AFF860B9607A6057
:104AE0003B604FF000037B6113E0BA687B69D31829
:104AF0001A78F9687B69CB1803F130031A71BA6828
:104B00007B69D3181B78002B07D07B6903F1010365
:104B10007B617B69092BE8D900E000BFFB684FF09F
:104B2000000283F83D207B68042B02D94FF0040378
:104B30007B60FB687A68DA62FB687A681A64FB68F3
:104B40004FF000025A64FB6803F10403184602F0B8
:104B50007FF8FB6803F11803184602F079F8FB6848
:104B6000FA681A617B68C3F10502FB689A61FB6809
:104B7000FA685A62FB684FF000029A64FB684FF0D3
:104B8000000283F84C2007F11807BD4680BD00BF26
:104B900080B582B000AF4FF000037B600FE07A6811
:104BA00013464FEA83039B184FEA8303124A9B186C
:104BB000184602F02DF87B6803F101037B607B68E7
:104BC000042BECD90D4802F023F80D4802F020F830
:104BD0000C4802F01DF80C4802F01AF80B4802F0DD
:104BE00017F80B4B054A1A600A4B054A1A6007F181
:104BF0000807BD4680BD00BFF80200205C0300200E
:104C0000700300208C030020A0030020B8030020C4
:104C1000840300208803002080B582B000AF2BE021
:104C2000FFF72AFC184B1B68002B14BF002301233D
:104C3000DBB27B60FFF72EFC7B68002B1CD102F0FF
:104C4000F1FF114BDB68DB683B603B6803F1040359
:104C5000184602F069F80D4B1B6803F1FF320B4B4D
:104C60001A600B4B1B6803F1FF32094B1A6002F00C
:104C7000F9FF386800F084F8054B1B68002BCFD192
:104C800007F10807BD4680BDA0030020CC0300202B
:104C9000B403002080B582B000AF7860144B1B686D
:104CA0007A685A60134B1B687A689A420AD2124B90
:104CB0001A680F4B1B6803F104031046194601F0F4
:104CC000F9FF11E00D4B1A68094B1B6803F104034F
:104CD0001046194601F0EEFF094B1B687A689A42AC
:104CE00002D2074B7A681A6007F10807BD4680BDFB
:104CF000F4020020D0030020880300208403002059
:104D0000E001002080B584B000AF03463960FB802D
:104D10003B68002B07D1FB884FEA8303184608F055
:104D200005F9034600E03B68BB60BB68002B0FD071
:104D30004FF0500008F0FAF8F860FB68002B03D041
:104D4000FB68BA681A6306E0B86808F08BF902E0FD
:104D50004FF00003FB60FB68002B0AD0FB681A6B66
:104D6000FB884FEA830310464FF0A5011A4608F06E
:104D70006BFEFB68184607F11007BD4680BD00BFFB
:104D800080B582B000AF78607B681B6B184608F076
:104D900069F9786808F066F907F10807BD4680BD33
:104DA00080B483B000AF0F4B1B681B68002B02D18F
:104DB0004FF0010301E04FF00003002B04D00A4B39
:104DC0004FF0FF321A6008E0064B1B68DB68DB68B7
:104DD0007B607B685A68044B1A6007F10C07BD467C
:104DE00080BC704784030020E001002080B584B0BF
:104DF00000AF78607B68FB607B68002B70D0FB683D
:104E0000DA6A394B1B68DB6A9A4269D2FB689B6994
:104E1000002B06DB344B1B68DB6AC3F10502FB6821
:104E20009A61FB685969FB68DA6A13464FEA8303A3
:104E30009B184FEA83032D4A9B18994202D14FF0E9
:104E4000010301E04FF00003002B44D0FB6803F1A5
:104E50000403184601F068FF0346002B19D1FB68D4
:104E6000DA6A224913464FEA83039B184FEA830309
:104E7000CB181B68002B0CD1FB68DB6A4FF00102DA
:104E800002FA03F36FEA0302194B1B681A40184B2E
:104E90001A60154B1B68DA6AFB68DA62FB68DB6A2A
:104EA0004FF0010202FA03F2114B1B681A43104B38
:104EB0001A60FB68DA6A13464FEA83039B184FEACD
:104EC00083030A4A9A18FB6803F104031046194643
:104ED00001F0CCFE04E0044B1B68DA6AFB68DA627E
:104EE00007F11007BD4680BDF4020020F802002043
:104EF000D403002080B584B000AF78607B68BB60CD
:104F00004FF00003FB607B68002B62D0BB685B6CDA
:104F1000002B02D102F0C0FEFEE7BB685B6C03F120
:104F2000FF32BB685A64BB68DA6ABB681B6C9A4282
:104F30004FD0BB685B6C002B4BD1BB6803F1040303
:104F4000184601F0F1FE0346002B19D1BB68DA6A5E
:104F5000234913464FEA83039B184FEA8303CB1878
:104F60001B68002B0CD1BB68DB6A4FF0010202FA10
:104F700003F36FEA03021B4B1B681A40194B1A60BC
:104F8000BB681A6CBB68DA62BB68DB6AC3F10502F6
:104F9000BB689A61BB68DB6A4FF0010202FA03F258
:104FA000104B1B681A430F4B1A60BB68DA6A134632
:104FB0004FEA83039B184FEA8303094A9A18BB6898
:104FC00003F104031046194601F050FE4FF00103AF
:104FD000FB60FB68184607F11007BD4680BD00BFA7
:104FE000F8020020D403002080B400AF074B1B68F8
:104FF000002B05D0054B1B685A6C02F101025A6464
:10500000024B1B681846BD4680BC7047F402002066
:1050100080B483B000AF03463960FB713B684FF04A
:1050200012021A80034B184607F10C07BD4680BCDC
:10503000704700BF0002002080B483B000AF034679
:105040003960FB713B684FF004021A80034B18462D
:1050500007F10C07BD4680BC704700BF200200204E
:1050600080B582B000AF03463960FB71FB79002B3D
:1050700005D1084808493A6802F092FC04E0074864
:1050800005493A6802F08CFC034B184607F1080703
:10509000BD4680BDF8E60008B04900201CE70008C6
:1050A00080B582B000AF03463960FB710548064900
:1050B0003A6802F075FC044B184607F10807BD4634
:1050C00080BD00BF40E70008B049002080B582B035
:1050D00000AF03463960FB71FB79002B05D108480E
:1050E00008493A6802F05CFC04E0074805493A6860
:1050F00002F056FC034B184607F10807BD4680BD79
:1051000054E70008B049002064E7000880B582B089
:1051100000AF03463960FB71FB79002B05D10848CD
:1051200008493A6802F03CFC04E0054805493A6841
:1051300002F036FC034B184607F10807BD4680BD58
:1051400074E70008B049002080B582B000AF034684
:105150003960FB71FB79002B05D1084808493A6892
:1051600002F01EFC04E0054805493A6802F018FC0C
:10517000034B184607F10807BD4680BD80E70008CD
:10518000B049002080B586B000AF4FF480004FF0EA
:105190000101FEF783FD4FF002004FF00101FEF721
:1051A0003DFD26484FF00B014FF0040200F00CFFCC
:1051B00022484FF00A014FF0040200F005FF4FF4BF
:1051C00040633B614FF002033B754FF000037B757A
:1051D0004FF00103BB754FF00103FB7507F110039E
:1051E0001648194600F030FE154806F06DF94FF0EC
:1051F0000003BB804BF6FF73FB804FF0A0033B81A5
:105200004FF480637B814FF48043BB810D4B3B6047
:105210003B460B48194606F097F909484FF0010143
:1052200006F064FA4FF0010002F06AFE0246064BF7
:105230001A6007F11807BD4680BD00BF0004024098
:1052400000580040A08601002449002080B588B0A5
:1052500000AF4FF480004FF00001FEF71FFD5E48E5
:105260004FF0000106F042FA4FF002004FF001014A
:10527000FEF7D4FC4FF440633B614FF001033B75F4
:105280004FF000037B754FF00103BB754FF0010336
:10529000FB7507F110035148194600F0D5FD4FF09A
:1052A0000003FB774FF00003BB614C4B4B4A528B22
:1052B00092B242F4806292B25A834FF00003FB77BD
:1052C00033E04FF01F03BB6100BFBB69002B0CBF75
:1052D00000230123DBB2BA6902F1FF32BA61002B6D
:1052E000F3D13E4B3D4A128B92B242F4806292B2AD
:1052F0001A834FF01F03BB6100BFBB69002B0CBFBB
:1053000000230123DBB2BA6902F1FF32BA61002B3C
:10531000F3D1324B314A528B92B242F4806292B254
:105320005A83FB7F03F10103FB77FB7F092BC8D96D
:105330002A4B2A4A528B92B242F4806292B25A832A
:105340004FF480004FF00101FEF7A8FC23484FF016
:105350000B014FF0040200F037FE20484FF00A0125
:105360004FF0040200F030FE4FF440633B614FF019
:1053700002033B754FF000037B754FF00103BB75D3
:105380004FF00103FB7507F110031448194600F0B4
:105390005BFD114806F098F84FF00003BB804BF618
:1053A000FF73FB804FF0A0033B814FF480637B8150
:1053B0004FF48043BB810A4B3B603B46064819468D
:1053C00006F0C2F804484FF0010106F08FF907F12A
:1053D0002007BD4680BD00BF0058004000040240C9
:1053E000A086010080B584B000AF39601346024644
:1053F000FA80BB804EF66023FB60A64B1B68184604
:105400004FF000014FF0FF324FF0000302F0E4FED6
:105410004FF000037B814EF66023FB601BE0FB68CE
:10542000002B14BF00230123DBB2FA6802F1FF3224
:10543000FA60002B0FD0FFF709FF964B1B68184648
:105440004FF000014FF000024FF0000302F0AAFD00
:105450004FF0050316E390484FF4003106F05AFA76
:105460000346002BDBD18C484FF0010106F05EF9BA
:105470004EF66023FB6020E0FB68002B14BF002386
:105480000123DBB2FA6802F1FF32FA60002B14D07C
:1054900081484FF0010106F069F9FFF7D7FE7D4B17
:1054A0001B6818464FF000014FF000024FF0000358
:1054B00002F078FD4FF00503E4E27748774906F003
:1054C000F1F90346002BD7D073484FF0A0014FF0FD
:1054D000000206F06BF94EF66023FB6020E0FB68EB
:1054E000002B14BF00230123DBB2FA6802F1FF3264
:1054F000FA60002B14D068484FF0010106F036F92D
:10550000FFF7A4FE634B1B6818464FF000014FF0F5
:1055100000024FF0000302F045FD4FF00503B1E239
:105520005D485F4906F0BEF90346002BD7D0FB88E3
:105530004FEA13239BB2DBB25748194606F094F9A1
:105540004EF66023FB6020E0FB68002B14BF0023B5
:105550000123DBB2FA6802F1FF32FA60002B14D0AB
:105560004D484FF0010106F001F9FFF76FFE494B7E
:105570001B6818464FF000014FF000024FF0000387
:1055800002F010FD4FF005037CE24348454906F068
:1055900089F90346002BD7D0FB88DBB23E48194679
:1055A00006F062F94EF66023FB6020E0FB68002BFA
:1055B00014BF00230123DBB2FA6802F1FF32FA6064
:1055C000002B14D034484FF0010106F0CFF8FFF75C
:1055D0003DFE304B1B6818464FF000014FF00002B3
:1055E0004FF0000302F0DEFC4FF005034AE22A48C8
:1055F0002C4906F057F90346002BD7D026484FF028
:10560000010106F0B3F824484FF0010106F0ECF870
:1056100021484FF2FF7106F007F91F484FF00101D2
:1056200006F084F84EF66023FB6020E0FB68002B58
:1056300014BF00230123DBB2FA6802F1FF32FA60E3
:10564000002B14D014484FF0010106F08FF8FFF73B
:10565000FDFD104B1B6818464FF000014FF0000293
:105660004FF0000302F09EFC4FF005030AE20A48E7
:105670000A4906F017F90346002BD7D006484FF029
:10568000A0014FF0010206F091F84EF66023FB6096
:1056900026E000BF2449002000580040010003001C
:1056A0008200070084000700FB68002B14BF002362
:1056B0000123DBB2FA6802F1FF32FA60002B0FD04F
:1056C000FFF7C4FDA54B1B6818464FF000014FF0D3
:1056D00000024FF0000302F065FC4FF00503D1E13A
:1056E0009F48A04906F016F90346002BDCD0BB8882
:1056F000022B40F2F0804EF66023FB6020E0FB6856
:10570000002B14BF00230123DBB2FA6802F1FF3241
:10571000FA60002B14D092484FF0010106F026F8F1
:10572000FFF794FD8D4B1B6818464FF000014FF0BA
:1057300000024FF0000302F035FC4FF00503A1E139
:105740008748894906F0AEF80346002BD7D036E0EB
:10575000834806F099F803461A463B681A703B687E
:1057600003F101033B604EF66023FB6020E0FB6821
:10577000002B14BF00230123DBB2FA6802F1FF32D1
:10578000FA60002B14D076484FF0010105F0EEFFCF
:10579000FFF75CFD714B1B6818464FF000014FF09E
:1057A00000024FF0000302F0FDFB4FF0050369E13A
:1057B0006B486D4906F076F80346002BD7D0BB88BE
:1057C000032B0CBF00230123DBB2BA8802F1FF32A6
:1057D000BA80002BBCD14EF66023FB6020E0FB6852
:1057E000002B14BF00230123DBB2FA6802F1FF3261
:1057F000FA60002B14D05A484FF0010105F0B6FFB3
:10580000FFF724FD554B1B6818464FF000014FF081
:1058100000024FF0000302F0C5FB4FF0050331E139
:105820004F48524906F076F80346012BD7D14C4831
:105830004FF0000105F0D8FF494806F025F803466F
:105840001A463B681A703B6803F101033B60444809
:105850004FF0010105F08AFF414806F015F80346B4
:105860001A463B681A703B6803F101033B604EF631
:105870006023FB6020E0FB68002B14BF00230123A2
:10588000DBB2FA6802F1FF32FA60002B14D0344820
:105890004FF0010105F06AFFFFF7D8FC2F4B1B68A2
:1058A00018464FF000014FF000024FF0000302F0E5
:1058B00079FB4FF00503E5E029482D4906F02AF869
:1058C0000346012BD7D1264805F0DEFF03461A46D2
:1058D0003B681A70C2E0BB88022B7FD14EF6602372
:1058E000FB6020E0FB68002B14BF00230123DBB228
:1058F000FA6802F1FF32FA60002B14D018484FF01A
:10590000010105F033FFFFF7A1FC144B1B6818469B
:105910004FF000014FF000024FF0000302F042FB95
:105920004FF00503AEE00E480F4905F0BBFF0346FC
:10593000002BD7D00A4805F0A7FF03461A463B685C
:105940001A703B6803F101033B6005484FF000010A
:1059500005F04AFF4EF66023FB602CE0244900204E
:105960000058004002000010400003000400001036
:1059700040000010FB68002B14BF00230123DBB2A2
:10598000FA6802F1FF32FA60002B14D040484FF061
:10599000010105F0EBFEFFF759FC3E4B1B68184672
:1059A0004FF000014FF000024FF0000302F0FAFA4E
:1059B0004FF0050366E03648374905F073FF0346AC
:1059C000002BD7D0324805F05FFF03461A463B68EC
:1059D0001A703B6803F101033B603FE0BB88012B79
:1059E0003CD12B484FF0000105F0FEFE4EF660233F
:1059F000FB6020E0FB68002B14BF00230123DBB217
:105A0000FA6802F1FF32FA60002B14D020484FF000
:105A1000010105F0ABFEFFF719FC1E4B1B68184691
:105A20004FF000014FF000024FF0000302F0BAFA0D
:105A30004FF0050326E01648184905F06BFF0346B2
:105A4000002BD7D012484FF0010105F08FFE10480F
:105A500005F01AFF03461A463B681A700C484FF0CF
:105A6000010105F0C1FEFFF7F1FB0A4B1B68184668
:105A70004FF000014FF000024FF0000302F092FAE5
:105A80004FF00003184607F11007BD4680BD00BF68
:105A9000005800402449002040000300400000104E
:105AA00080B584B000AF396013460246FA80BB80EF
:105AB0004EF66023FB60984B1B6818464FF00001C0
:105AC0004FF0FF324FF0000302F086FB4FF000036F
:105AD0007B8192484FF0010105F028FE4EF66023CD
