:020000040800F2
:10000000E46400204D4D0008B54D0008B54D0008D2
:10001000B54D0008B54D0008B54D000800000000C2
:10002000000000000000000000000000119B00081C
:10003000B54D000800000000C99C0008299D00087B
:10004000B54D0008F9EB0008B54D0008B54D0008A6
:10005000B54D0008B54D0008B54D0008B54D000878
:10006000B54D0008B54D0008B54D0008B54D000868
:10007000B54D0008B54D0008B54D0008B54D000858
:10008000B54D0008B54D0008B54D0008B54D000848
:10009000B54D0008B54D0008B54D0008B54D000838
:1000A000B54D00089D7D0008B54D0008B54D000810
:1000B00019D00008B54D0008A57A0008B54D000814
:1000C000B54D0008B54D0008B54D0008B54D000808
:1000D000B54D0008B54D0008B54D000859AB0008F6
:1000E000B54D0008B54D00084D880008B54D000815
:1000F000B54D0008B54D0008B54D0008B54D0008D8
:10010000B54D0008354D0008217C0008B54D0008AC
:10011000B54D0008B54D0008B54D0008B54D0008B7
:10012000B54D0008B54D0008B54D0008414D00081B
:10013000B54D0008B54D0008B54D0008B54D000897
:10014000B54D0008B54D0008B54D00088188000880
:10015000B54D0008B54D0008B54D000819AE0008B2
:10016000B54D0008B54D0008B54D0008B54D000867
:10017000B54D0008B54D0008B54D0008B54D000857
:10018000B54D0008B54D000880B485B000AF78606B
:100190000023FB607B68DB684FF0FF325A607B68AE
:1001A000DB684FF0FF325A61FB7B43F08003FB7347
:1001B0007B7B43F008037B737B68DB68FA689A619A
:1001C0001437BD465DF8047B704700BF80B586B02C
:1001D00000AF78600023FB7400237B610023FB6089
:1001E000032008F0FFFA7B68DB681B69FB607B6912
:1001F00001337B617B69174A934201D9002324E0D4
:10020000FB68DB0FDBB2002BEAD000237B61FB68CD
:1002100043F00103FB607B68DB68FA681A617B6866
:10022000DB681B69FB607B6901337B617B69094A81
:10023000934200D905E0FB6803F00103DBB2012B18
:10024000EDD0032008F0CEFAFB7C18461837BD46E7
:1002500080BD00BF400D030080B489B000AFF860DE
:10026000B96011461A460B46FB711346BB8000234A
:10027000FB76FB68DB78002B22D100237B61002317
:10028000FB61BB880333002B00DA03339B107B61D7
:10029000FB79FA6832339B0013449B683B6100236F
:1002A000FB6109E0BB681A683B691A60FB690133AE
:1002B000FB61BB680433BB60FA697B699A42F1D386
:1002C000FB7E18462437BD465DF8047B704700BFAF
:1002D00080B489B000AFF860B9601346FB8000239A
:1002E000FB61FB880333002B00DA03339B10BB61F7
:1002F000FB68D3F8D0307B610023FB6109E07B69A8
:100300001A68BB681A60FB690133FB61BB68043380
:10031000BB60FA69BB699A42F1D3BB6818462437BF
:10032000BD465DF8047B704780B487B000AF78604D
:100330000B46FB7000233B610023FB737B680022AC
:10034000DA707B6801229A707B6840229A80FB7881
:10035000012B13D14FF0A0433B617B680122DA727D
:100360007B6808221A707B6804225A707B684FF4FD
:10037000A072DA807B6802221A7211E0FB78002BEF
:100380000ED1454B3B617B680022DA727B680C2200
:100390001A707B6806225A707B684FF4A062DA807C
:1003A0003A697B68DA603B6903F500631A467B684B
:1003B0001A6100237B611CE07B695A013B6913448D
:1003C00003F5106319467A687B6904339B00134474
:1003D00099607B695A013B69134403F53063194600
:1003E0007A687B6914339B00134459607B6901333D
:1003F0007B617B685B781A467B699A42DCD83B69F3
:1004000003F580631A467B685A613B6903F588638C
:100410001A467B68C3F8CC2000237B610FE07B6920
:100420005A013B69134403F5A06319467A687B6956
:1004300022339B00134499607B6901337B617B68A5
:100440001B781A467B699A42E9D800237B610FE04A
:100450007B691A033B69134403F5805319467A6894
:100460007B6932339B00134499607B6901337B6164
:100470007B681B781A467B699A42E9D83B6903F589
:1004800060631A467B68C3F80C21FB7B18461C3757
:10049000BD465DF8047B70470000044080B588B01D
:1004A00000AF78600023FB770023BB6100237B61F2
:1004B0000023FB607B681B7A012B4FD17B68DB68D4
:1004C0009B6B7B61BB7D6FF30003BB757B685B7AC5
:1004D000002B03D0BB7D43F01003BB757B68DB684A
:1004E0007A699A630023BB617B68DB68DB68BB6168
:1004F0003B7E6FF386133B76BB7E6FF38613BB7632
:100500003B7E43F010033B763B7E6FF3C3033B76A9
:100510003B7E6FF3C7133B76BB7E6FF34103BB7625
:10052000BB7E6FF3C303BB767B68DB68BA69DA60B6
:100530007868FFF74BFE7B68DB78012B40F0828008
:100540003B7B052262F344033B733B7B43F0200378
:100550003B737B68DB68FA689A6073E07B68DB68F2
:10056000DB68BB613B7E43F040033B767B68DB6826
:10057000BA69DA607868FFF729FE00237B61BB7DEA
:1005800043F00103BB757B681B7A032B03D1BB7D52
:1005900043F00203BB75BB7D43F00403BB75BB7D19
:1005A00043F00803BB75BB7D43F02003BB757B683C
:1005B0005B7A002B03D0BB7D43F01003BB757B68D7
:1005C000DB687A699A63142008F030F97B68DB688D
:1005D000DB68BB617B681B7A032B03D1BB7E43F0D6
:1005E0000103BB767B68DB68BA69DA607B681B7ADB
:1005F000032B27D17B68DB681B6B3B61FB7C0122F3
:1006000062F38303FB74BB7C6FF3C713BB74FB7C87
:1006100043F01003FB74BB7C2D2262F30603BB7412
:100620007B68DB683A691A63C82008F0FFF8BB7C76
:1006300043F08003BB747B68DB683A691A63C820A7
:1006400008F0F4F87B68DB78012B10D17B68DB685D
:100650009B68FB603B7B052262F344033B733B7B5F
:1006600043F020033B737B68DB68FA689A60FB7F8A
:1006700018462037BD4680BD80B485B000AF786095
:100680000023FB730023BB603B7A43F001033B7202
:100690007B68DB687A68D2689168BA680A439A60B6
:1006A000FB7B18461437BD465DF8047B704700BFDE
:1006B00080B485B000AF78600023FB730023BB607B
:1006C0003B7A43F001033B727B68DB687A68D2684F
:1006D0009168BA68D2430A409A60FB7B1846143787
:1006E000BD465DF8047B704780B586B000AF78608A
:1006F00039600023FB7400237B610023FB60FB68EF
:1007000043F02003FB603B68DBB203F01F03DBB266
:1007100003F01F039B01FA6822F4F8621343FB60A5
:100720007B68DB68FA681A617B68DB681B69FB60C1
:100730007B6901337B617B69094A934200D906E0FA
:10074000FB685B0903F00103DBB2012BECD0032053
:1007500008F048F8FB7C18461837BD4680BD00BF3E
:10076000400D030080B586B000AF78600023FB74B5
:1007700000237B610023FB60FB6843F01003FB60F8
:100780007B68DB68FA681A617B68DB681B69FB6061
:100790007B6901337B617B69094A934200D906E09A
:1007A000FB681B0903F00103DBB2012BECD0032033
:1007B00008F018F8FB7C18461837BD4680BD00BF0E
:1007C000400D030080B584B000AF78600B46FB702D
:1007D0000023FB737B68DB68DB68BB60FB7A6FF32D
:1007E0004513FB72FB7A6FF38613FB72FB78012BC8
:1007F00004D1FB7A43F02003FB7206E0FB78002B68
:1008000003D1FB7A43F04003FB727B68DB68BA6874
:10081000DA60322008F00AF8FB7B18461037BD4634
:1008200080BD00BF80B483B000AF78607B68DB68B8
:100830005B6903F0010318460C37BD465DF8047B85
:10084000704700BF80B582B000AF78607868FFF76E
:10085000E9FF0346012B14BF01230023DBB2184636
:100860000837BD4680BD00BF80B485B000AF78605A
:100870000023FB607B68DB685B69FB607B68DB688F
:100880009B69FA681340FB60FB6818461437BD4645
:100890005DF8047B704700BF80B485B000AF78601E
:1008A0000B46FB707B681B691B68FB60FB7803F0E1
:1008B0000303DAB23B7B62F301033B737B681B6982
:1008C000FA681A601437BD465DF8047B704700BFB4
:1008D00080B58CB000AF7860002387F82B30002300
:1008E0007B6200233B620023FB610023BB6100238A
:1008F0007B617B68D3F80C3100221A607B681B692E
:100900001B683B6297F821306FF3C40387F82130EE
:100910007B681B693A6A1A607B68DB7A012B33D1EA
:1009200078680321FFF7B8FF7B68DB6880225A6292
:100930002023FB838023BB837B68DB68FA699A6290
:10094000BA8BFB8B13449BB23B8380237B837B68F6
:10095000DB68BA69C3F804213A8B7B8B13449BB2E2
:100960003B8320237B837B68DB68BA69C3F808215B
:100970003A8B7B8B13449BB23B8300237B837B6846
:10098000DB68BA69C3F80C2178681021FFF7ACFE68
:100990007868FFF7E7FE7B681B6900221A617B68B5
:1009A0001B6900225A617B681B694FF0FF329A6114
:1009B0007B681B690022DA610023FB623AE07A68F7
:1009C000FB6A04339B0013449B681B687B6297F8A7
:1009D000273023F07F03DBB2002B0ED000237B6295
:1009E00097F8273043F0400387F8273097F82730EF
:1009F00043F0080387F8273001E000237B627A6820
:100A0000FB6A04339B0013449B687A6A1A607A6815
:100A1000FB6A04339B0013449B6800221A617A68C6
:100A2000FB6A04339B0013449B68FF229A60FB6AB5
:100A30000133FB627B685B781A46FB6A9A42BED838
:100A40000023FB6235E07A68FB6A14339B00134491
:100A50005B681B68FB60FB7B23F07F03DBB2002B32
:100A60000AD00023FB60FB7B43F04003FB73FB7B5E
:100A700043F00803FB7301E00023FB607A68FB6A24
:100A800014339B0013445B68FA681A607A68FB6A47
:100A900014339B0013445B6800221A617A68FB6A76
:100AA00014339B0013445B68FF229A60FB6A013396
:100AB000FB627B685B781A46FB6A9A42C3D80023C4
:100AC0007B617B7D43F001037B757B681B697A68E2
:100AD000126911697A69D24311407A690A431A612D
:100AE0007B68DB78012B1BD100233B613B7C43F00F
:100AF00001033B743B7C43F002033B743B8A40227E
:100B000062F38A033B82BB7C43F00103BB747B8AA4
:100B1000402262F349037B827B681B693A691A634E
:100B2000786800F007F897F82B3018463037BD4644
:100B300080BD00BF80B584B000AF78600023FB7338
:100B40000023BB607B68DB6800229A617B68DB68FE
:100B50004FF0FF325A617868FFF716FB7B68DB784D
:100B6000002B03D13B7A43F010033B727B7A43F0B6
:100B700008037B727B7A43F010037B727B7A43F02D
:100B800020037B72BB7A43F00403BB72BB7A43F051
:100B90000803BB723B7A43F008033B72BB7A43F015
:100BA0001003BB72BB7A43F02003BB727B68DB6827
:100BB0007A68D2689169BA68D2431140BA680A4328
:100BC0009A61FB7B18461037BD4680BD80B485B066
:100BD00000AF78600023FB737B681B699B68BB6078
:100BE0003B7AC3F34103DBB2022B09D0032B04D0C1
:100BF000012B02D00323FB7305E00223FB7302E009
:100C00000123FB7300BFFB7B18461437BD465DF81C
:100C1000047B704780B487B000AF78600023FB7519
:100C20000023BB607B681B699B683B617B689B6999
:100C30001B68FB603B7CC3F34103DBB2022B04D097
:100C4000BB896FF30A03BB8105E0BB89032262F312
:100C50000A03BB8100BF7B689B69FA681A607B7AD4
:100C600043F001037B727B681B697A6812695168E3
:100C7000BA68D2431140BA680A435A60FB7D1846ED
:100C80001C37BD465DF8047B704700BF80B487B059
:100C900000AF786039600023FB740023FB60002301
:100CA000BB603B685B78012B0FD13B681B787A688F
:100CB00004339B0013449B687B613B681B781A4696
:100CC000012393409BB23B810EE03B681B787A681E
:100CD00014339B0013445B687B613B681B781A46A6
:100CE000012393409BB27B817B691B68FB607B7B0C
:100CF00023F07F03DBB2002B27D13B689B689BB2BC
:100D0000C3F30A039AB2BB8962F30A03BB813B684F
:100D1000DB7803F00303DAB2BB7B62F38303BB73BC
:100D20003B68DB88DBB203F00F03DAB2FB8962F3C6
:100D30008913FB81FB7B43F01003FB737B7B43F048
:100D400080037B73FA687B691A607B681B697A6829
:100D50001269D169BA680A43DA61FB7C18461C370C
:100D6000BD465DF8047B704780B487B000AF786003
:100D700039600023FB740023FB600023BB603B68E9
:100D80005B78012B0FD13B681B787A6804339B009A
:100D900013449B687B613B681B781A460123934090
:100DA0009BB23B810EE03B681B787A6814339B0052
:100DB00013445B687B613B681B781A4601239340B0
:100DC0009BB27B817B7B6FF3C7137B73FA687B6974
:100DD0001A607B681B697A681269D169BA68D24364
:100DE0000A40DA61FB7C18461C37BD465DF8047B7F
:100DF000704700BF80B588B000AF786039600023CD
:100E0000FB770023BB6100237B6100233B613B68D0
:100E10005B78012B40F0AB803B681B787A68043329
:100E20009B0013449B681B687B613B681B787A6856
:100E300004339B0013449B681B693B613B685B69FF
:100E4000002B09D13B696FF312033B617B8A0122BE
:100E500062F3CC037B8222E03B685B69C3F312023E
:100E60003B6962F312033B613B685A693B689B68CC
:100E700013445A1E3B689B68B2FBF3F39BB2C3F367
:100E800009039AB27B8A62F3CC037B823B68DB78EE
:100E9000012B04D1FB7C012262F34613FB743B68F7
:100EA0001B787A6804339B0013449B683A691A6183
:100EB0007B68DB78012B0AD13B681B787A680433A6
:100EC0009B0013449B683A6812695A6115E03B68BD
:100ED000DB78012B11D03B685B69002B0DD03B68A0
:100EE0001B781A4601239340BB617B681B697A68B3
:100EF0001269516BBA690A435A633B68DB78012B6C
:100F000014D17B681B699B68FB60FB68C3F30D23EE
:100F10009BB203F00103002B04D1FB7D43F02003BF
:100F2000FB7503E0FB7D43F01003FB75FB7D43F095
:100F30000403FB75FB7D43F08003FB753B681B7866
:100F40007A6804339B0013449B687A691A603B6893
:100F5000DB78012B40F089803B68D9683B681A78C0
:100F60003B685B699BB27868FFF776F97DE03B6888
:100F70001B787A6814339B0013445B681B687B61A1
:100F80003B681B787A6814339B0013445B681B69C9
:100F90003B613B685B69002B0DD13B689B68C3F3E9
:100FA00012023B6962F312033B617B8A012262F306
:100FB000CC037B8220E03B685A693B689B68134402
:100FC0005A1E3B689B68B2FBF3F39BB2C3F3090361
:100FD0009AB27B8A62F3CC037B827B8AC3F3C90318
:100FE0009BB21A463B689B6803FB02F3C3F31202F1
:100FF0003B6962F312033B613B681B787A681433E8
:101000009B0013445B683A691A617B68DB78012BAB
:1010100009D13B681B787A6814339B0013445B68E2
:101020003A6812695A613B68DB78012B0CD13B6846
:101030005B79002B04D0FB7D43F02003FB7503E0BC
:10104000FB7D43F01003FB75FB7D43F00403FB7550
:10105000FB7D43F08003FB753B681B787A68143393
:101060009B0013445B687A691A60FB7F184620373F
:10107000BD4680BD80B489B000AF78603960002380
:10108000FB770023BB6100233B610023BB603B680F
:101090005B78012B70D17B689B697B617B691B68E6
:1010A0003B617B691B69BB603B685B69002B09D1B5
:1010B0003B7A6FF306033B72BB7A012262F3C403EF
:1010C000BB7223E03B685A693B689B689A420ED921
:1010D0003B689A683B685A613B689B68DBB203F0E7
:1010E0007F03DAB23B7A62F306033B7209E03B68A6
:1010F0005B69DBB203F07F03DAB23B7A62F306038B
:101100003B72BB7A012262F3C403BB72BA687B698B
:101110001A617B68DB78012B09D13B681B787A6800
:1011200004339B0013449B683A6812695A61FB7C44
:1011300043F00403FB74FB7C43F08003FB743A69C7
:101140007B691A607B68DB78002B76D13B685B6932
:10115000002B72D03B681B781A46012393401A4635
:10116000BB691343BB617B681B697A681269516B69
:10117000BA690A435A6360E03B681B787A681433A3
:101180009B0013445B681B683B613B681B787A6873
:1011900014339B0013445B681B69BB603B685B694D
:1011A000002B0FD13B689B68DBB203F07F03DAB200
:1011B0003B7A62F306033B72BB7A012262F3C403FB
:1011C000BB7212E03B689A683B685A613B689B6857
:1011D000DBB203F07F03DAB23B7A62F306033B72C1
:1011E000BB7A012262F3C403BB723B681B787A6846
:1011F00014339B0013445B68BA681A617B68DB7820
:10120000012B09D13B681B787A6814339B00134487
:101210005B683A6812695A61FB7C43F00403FB7413
:10122000FB7C43F08003FB743B681B787A681433C3
:101230009B0013445B683A691A60FB7F18462437A9
:10124000BD465DF8047B704780B487B000AF78601E
:1012500039600023FB750023FB603B685B78012B42
:101260001CD13B681B787A6804339B0013449B684D
:101270003B613B691B68FB60FB7B23F07F03DBB2B8
:10128000002B03D0FB7B43F04003FB73BB7B43F09D
:101290002003BB73FA683B691A6011E03B681B7856
:1012A0007A6814339B0013445B683B613B691B689D
:1012B000FB60BB7B43F02003BB73FA683B691A6099
:1012C000FB7D18461C37BD465DF8047B704700BFA8
:1012D00080B487B000AF786039600023FB740023CE
:1012E000FB603B685B78012B08D13B681B787A6810
:1012F00004339B0013449B687B6107E03B681B78C9
:101300007A6814339B0013445B687B617B691B68BC
:10131000FB60BB7B6FF34513BB733B68DB78032B30
:1013200003D03B68DB78022B03D1FB7B43F0100337
:10133000FB73FA687B691A60FB7C18461C37BD4654
:101340005DF8047B704700BF80B485B000AF786063
:101350007B681B699B69FB607B681B69DB69FA68BA
:101360001340FB60FB681B0C18461437BD465DF844
:10137000047B704780B485B000AF78600B46FB708B
:10138000FB787A6814339B0013445B689B68FB60AE
:101390007B681B695B69FA681340FB60FB68184651
:1013A0001437BD465DF8047B704700BF80B485B03C
:1013B00000AF78607B681B699B69FB607B681B6979
:1013C000DB69FA681340FB60FB689BB21846143770
:1013D000BD465DF8047B704780B487B000AF78608D
:1013E00000233B61FB7C43F0C003FB74BB7C012208
:1013F00062F3C403BB743B7C182262F306033B74A4
:101400007B685B6D3A691A617B68DB78012B16D1CA
:101410000023FB607B685B6D7A6802F5B9625A61F4
:101420007B685B6D1B68FB60FB7B43F08003FB7399
:101430004FF08023FB607B685B6DFA681A601C3795
:10144000BD465DF8047B704780B485B000AF78601E
:101450007B689B7A002B1BD07B681B699B68FB60B9
:101460003B7B03F00103DBB2002B11D07B6803F55B
:1014700086731B68BB603B7A6FF341033B723B7A18
:101480006FF300033B727B68D3F80C31BA681A60C3
:101490001437BD465DF8047B704700BF80B400AFD1
:1014A000BD465DF8047B704780B400AFBD465DF873
:1014B000047B70472DE9F04387B000AF78600B469E
:1014C0007B8013463B806B461E460023FB75864B94
:1014D00019780B46013BFB60CAB24FF000034FEA9C
:1014E000031949EA12794FEA0218CAB24FF0000311
:1014F0001D0145EA127514010B465B0001330733E9
:10150000DB08DB00ADEB030D6B4601335B085B00D2
:10151000BB60764B1B68184600214FF0FF3200235A
:1015200008F0A8F8BB68724A12681A60BB680433F6
:101530006F4A52681A60BB6803F108016C4BD3E92B
:10154000022313460B60BB6803F10C01684BD3E91F
:10155000042313460B60BB681033654A92691A6016
:10156000BB681433624AD2691A60BB681833604A98
:10157000926C1A60BB681C335D4AD26C1A60BB68FF
:1015800020335B4A526C1A60BB682433584A126C91
:101590001A60BB682833564A926D1A60BB682C33B8
:1015A000534AD26D1A60BB683033514A526D1A608B
:1015B000BB6834334E4A126D1A60BB6838334C4AEC
:1015C000D2ED0A7AFCEEE77A17EE902A1A60BB6831
:1015D0003C33474AD2ED0B7AFCEEE77A17EE902ABD
:1015E0001A60BB684033424AD2ED097AFCEEE77AD2
:1015F00017EE902A1A60BB6844333D4AD2ED087A50
:10160000FCEEE77A17EE902A1A60BB684833384A36
:10161000D2ED0E7AFCEEE77A17EE902A1A60BB68DC
:101620004C33334AD2ED0F7AFCEEE77A17EE902A6C
:101630001A60BB6850332E4AD2ED0D7AFCEEE77A81
:1016400017EE902A1A60BB685433294AD2ED0C7AFF
:10165000FCEEE77A17EE902A1A60244B1B681846B6
:1016600000210022002307F0BBFE224B1B789BB217
:101670007A889A422ED37A883B881A441D4B1B786D
:101680001946194B1B780B449A4223DC7B881A4A73
:1016900012789B1A3B6119E07B685A1C7A60BA6821
:1016A000396932F81120120A92B2D2B21A707B68EC
:1016B0005A1C7A60BA68396932F81120D2B21A70AD
:1016C0003B6901333B613B88013B3B803B88002BFE
:1016D000E2D101E00123FB75FB7DB54618461C37BE
:1016E000BD46BDE8F08300BF020000207C5C002006
:1016F000805C002000000020040000202DE9F04361
:10170000F9B01EAF07F10C0630600E4610461946C0
:1017100007F10A0332461A8007F1080302461A80CD
:10172000FB1D0A461A706B461E46002387F8673178
:10173000A54B19780B46013BC7F85C31CAB24FF094
:1017400000034FEA031949EA12794FEA0218CAB2B4
:101750004FF000031D0145EA127514010B465B00B2
:1017600001330733DB08DB00ADEB030D1EAB0133A8
:101770005B085B00C7F85831944B1B789BB207F1AC
:101780000A0212889A42C2F02C8307F10A031A88CF
:1017900007F108031B881A448C4B1B7819468A4BA7
:1017A0001B780B449A4202F31C8307F10A031B883F
:1017B000874A12789B1AC7F86031FB1D1B78002BF3
:1017C00004D0012B02F0058302F00EBB07F5AA73CB
:1017D000002019460CF0C2FA07F5A873002019463C
:1017E0000CF090FB97F856319AB2D7F858311A801E
:1017F00097F855319AB2D7F858315A8097F8543142
:101800009AB2D7F858319A8097F852319AB2D7F8ED
:101810005831DA8097F851319AB2D7F858311A8195
:1018200097F853319AB2D7F858315A8197F8503116
:101830009AB2D7F858319A81D7F858310E33654AA1
:1018400012681A60D7F858311233624A526A1A6025
:10185000D7F8583116335F4A926A1A60D7F8583170
:101860001A335C4AD26A1A60D7F858311E33594A83
:10187000126B1A60D7F858312233564A526B1A60ED
:10188000D7F858312633534A926B1A60D7F858313B
:101890002A33504AD26B1A60D7F858312E334D4A4A
:1018A000126C1A60D7F8583132334A4A52691A60BA
:1018B000D7F858313633474A92691A60D7F8583109
:1018C0003A33444AD2691A60D7F858313E33414A14
:1018D000126A1A60D7F8583142333E4A52681A6089
:1018E000D7F8583146333B4A92681A60D7F85831D6
:1018F0004A33384AD2681A60D7F858314E33354ADD
:1019000012691A60D7F858315233324A526E1A604F
:10191000D7F8583156332F4A926E1A60D7F858319B
:101920005A332C4AD26E1A60D7F858315E33294A9E
:10193000126F1A60D7F858316233264A526F1A6014
:10194000D7F858316633234A926F1A60D7F8583166
:101950006A33204AD26F1A60D7F858316E331D4A65
:10196000D2F880201A60D7F858317233194A526D74
:101970001A60D7F858317633164A926D1A60D7F844
:1019800058317A33134AD26D1A60D7F858317E3302
:10199000104A126E1A60D7F8583182330D4A526CD1
:1019A0001A60D7F8583186330A4A926C1A60D7F811
:1019B00058318A33074AD26C1A60D7F858318E33BF
:1019C000044A126D1A6033E0030000200100002079
:1019D00005000020F85B002007F10C031B6807F1ED
:1019E0000C02591C1160D7F85821D7F8601132F851
:1019F0001120120A92B2D2B21A7007F10C031B68BE
:101A000007F10C02591C1160D7F85821D7F8601162
:101A100032F81120D2B21A70D7F860310133C7F80A
:101A2000603107F108031A8807F10803013A1A80A8
:101A300007F108031B88002BCED102F0D1B9D7F8EB
:101A40006031472B02F2B78101A252F823F000BFA8
:101A5000711B0008E31B0008551C0008C71C000888
:101A6000391D0008AB1D00081D1E00088F1E000850
:101A7000B73D00087D1F0008B73D00086120000841
:101A8000B73D00085D210008B73D0008512200085D
:101A9000B73D00084D230008B73D00083124000879
:101AA000B73D00082D250008B73D0008192600089D
:101AB000B73D000815270008B73D0008F9270008C2
:101AC000B73D0008F5280008B73D0008E1290008E7
:101AD000B73D0008DD2A0008B73D0008C12B00080B
:101AE000B73D0008BD2C0008B73D0008A92D00082F
:101AF000B73D0008A52E0008B73D0008892F000853
:101B0000B73D000885300008B73D00087131000876
:101B1000B73D00086D320008B73D0008513300089A
:101B2000B73D00084D340008B73D000839350008BE
:101B3000B73D000835360008B73D000817370008E4
:101B4000B73D000811380008B73D0008FD3800080F
:101B5000B73D0008F7390008B73D0008D93A00083A
:101B6000B73D0008D33B0008B73D0008BD3C000866
:101B70000023A7F84E3107F5A473002019460CF096
:101B8000EDF807F5A773013307F10C02126807F1AE
:101B90000C01501C086012781A7007F5A77207F143
:101BA0000C031B6807F10C01581C08601B781370AC
:101BB000B7F84E31DBB287F84A3107F5A47300203D
:101BC00019460CF049F8D7F860310133C7F8603195
:101BD00007F108031A8807F10803013A1A8002F096
:101BE000F8B80023A7F8463107F5A073002019467E
:101BF0000CF0B4F807F5A373013307F10C02126877
:101C000007F10C01501C086012781A7007F5A372D6
:101C100007F10C031B6807F10C01581C08601B78C6
:101C20001370B7F84631DBB287F8413107F5A0737E
:101C3000002019460CF010F8D7F860310133C7F8CE
:101C4000603107F108031A8807F10803013A1A8086
:101C500002F0BFB80023A7F83E3107F59C730020BF
:101C600019460CF07BF807F59F73013307F10C025E
:101C7000126807F10C01501C086012781A7007F501
:101C80009F7207F10C031B6807F10C01581C0860D8
:101C90001B781370B7F83E31DBB287F8383107F59F
:101CA0009C73002019460BF0D7FFD7F86031013341
:101CB000C7F8603107F108031A8807F10803013AF1
:101CC0001A8002F086B80023A7F8363107F598731A
:101CD000002019460CF016F907F59B73013307F144
:101CE0000C02126807F10C01501C086012781A707F
:101CF00007F59B7207F10C031B6807F10C01581CD8
:101D000008601B781370B7F83631DBB287F83231D0
:101D100007F59873002019460CF06EF8D7F860317B
:101D20000133C7F8603107F108031A8807F1080387
:101D3000013A1A8002F04DB80023A7F82E3107F5BA
:101D40009473002019460CF0DDF807F59773013302
:101D500007F10C02126807F10C01501C08601278A0
:101D60001A7007F5977207F10C031B6807F10C0155
:101D7000581C08601B781370B7F82E31DBB287F857
:101D8000293107F59473002019460CF035F8D7F87F
:101D900060310133C7F8603107F108031A8807F191
:101DA0000803013A1A8002F014B80023A7F826317C
:101DB00007F59073002019460CF0A4F807F593730B
:101DC000013307F10C02126807F10C01501C086086
:101DD00012781A7007F5937207F10C031B6807F16C
:101DE0000C01581C08601B781370B7F82631DBB261
:101DF00087F8233107F59073002019460BF0FCFF9C
:101E0000D7F860310133C7F8603107F108031A8849
:101E100007F10803013A1A8001F0DBBF0023A7F89D
:101E20001E3107F58C73002019460CF06BF807F58E
:101E30008F73013307F10C02126807F10C01501C7B
:101E4000086012781A7007F58F7207F10C031B688F
:101E500007F10C01581C08601B781370B7F81E318D
:101E6000DBB287F8183107F58C73002019460BF0A8
:101E7000C3FFD7F860310133C7F8603107F10803B9
:101E80001A8807F10803013A1A8001F0A2BF002363
:101E9000C7F8143107F58A73013307F10C02126891
:101EA00007F10C01501C086012781A7007F58A724D
:101EB00007F10C031B6807F10C01581C08601B7824
:101EC000137007F58A73033307F10C02126807F1E8
:101ED0000C01501C086012781A7007F58A730233DF
:101EE00007F10C02126807F10C01501C086012780F
:101EF0001A70D7F81431D24A934231D9D7F8143135
:101F0000D04A93422CD8D04B1B68184600214FF082
:101F1000FF32002307F0AEFBD7F81431CB4A136031
:101F200007F11003C94A19468423084611461A4688
:101F30000CF0A4FEC44B1B681846002100220023AD
:101F400007F04EFA07F11004694604F110037422F9
:101F5000084619460CF092FE94E80F0005F006FCC6
:101F6000D7F860310233C7F8603107F1080307F191
:101F700008021288023A1A8001F02BBF0023C7F82A
:101F8000103107F58873013307F10C02126807F16D
:101F90000C01501C086012781A7007F5887207F15E
:101FA0000C031B6807F10C01581C08601B781370A8
:101FB00007F58873033307F10C02126807F10C016F
:101FC000501C086012781A7007F58873023307F105
:101FD0000C02126807F10C01501C086012781A708C
:101FE000D7F81031B3F5000F2CD2974B1B68184669
:101FF00000214FF0FF32002307F03CFBD7F81031EF
:10200000924A536207F11003904A19468423084606
:1020100011461A460CF032FE8B4B1B681846002105
:102020000022002307F0DCF907F11004694604F1EF
:1020300010037422084619460CF020FE94E80F00A5
:1020400005F094FBD7F860310233C7F8603107F12F
:10205000080307F108021288023A1A8001F0B9BE9B
:102060004FF00003C7F80C3107F58673013307F111
:102070000C02126807F10C01501C086012781A70EB
:1020800007F5867207F10C031B6807F10C01581C59
:1020900008601B78137007F58673033307F10C0291
:1020A000126807F10C01501C086012781A7007F5CD
:1020B0008673023307F10C02126807F10C01501C01
:1020C000086012781A70D7ED437AF5EEC07AF1EE17
:1020D00010FA35DBD7ED437AB3EE047AF4EEC77A23
:1020E000F1EE10FA2CD8584B1B68184600214FF01F
:1020F000FF32002307F0BEFAD7F80C31534A93623F
:1021000007F11003514A19468423084611461A461E
:102110000CF0B4FD4C4B1B68184600210022002334
:1021200007F05EF907F11004694604F11003742208
:10213000084619460CF0A2FD94E80F0005F016FBC6
:10214000D7F860310233C7F8603107F1080307F1AF
:1021500008021288023A1A8001F03BBE0023C7F839
:10216000083107F58473013307F10C02126807F197
:102170000C01501C086012781A7007F5847207F180
:102180000C031B6807F10C01581C08601B781370C6
:1021900007F58473033307F10C02126807F10C0191
:1021A000501C086012781A7007F58473023307F127
:1021B0000C02126807F10C01501C086012781A70AA
:1021C000D7F80831B3F5000F2CD21F4B1B68184607
:1021D00000214FF0FF32002307F04CFAD7F8083106
:1021E0001A4AD36207F11003184A19468423084695
:1021F00011461A460CF042FD134B1B68184600218D
:102200000022002307F0ECF807F11004694604F1FE
:1022100010037422084619460CF030FD94E80F00B4
:1022200005F0A4FAD7F860310233C7F8603107F13E
:10223000080307F108021288023A1A8001F0C9BDAA
:1022400017293101E8303101E05C0020F85B002003
:102250004FF00003C7F8043107F58273013307F12B
:102260000C02126807F10C01501C086012781A70F9
:1022700007F5827207F10C031B6807F10C01581C6B
:1022800008601B78137007F58273033307F10C02A3
:10229000126807F10C01501C086012781A7007F5DB
:1022A0008273023307F10C02126807F10C01501C13
:1022B000086012781A70D7ED417AF5EEC07AF1EE27
:1022C00010FA35DBD7ED417AB3EE047AF4EEC77A33
:1022D000F1EE10FA2CD8CE4B1B68184600214FF0B7
:1022E000FF32002307F0C6F9D7F80431C94A136357
:1022F00007F11003C74A19468423084611461A46B7
:102300000CF0BCFCC24B1B681846002100220023C5
:1023100007F066F807F11004694604F1100374220F
:10232000084619460CF0AAFC94E80F0005F01EFAC6
:10233000D7F860310233C7F8603107F1080307F1BD
:1023400008021288023A1A8001F043BD0023C7F840
:10235000003107F58073013307F10C02126807F1B1
:102360000C01501C086012781A7007F5807207F192
:102370000C031B6807F10C01581C08601B781370D4
:1023800007F58073033307F10C02126807F10C01A3
:10239000501C086012781A7007F58073023307F139
:1023A0000C02126807F10C01501C086012781A70B8
:1023B000D7F80031B3F5000F2CD2954B1B681846A7
:1023C00000214FF0FF32002307F054F9D7F8003115
:1023D000904A536307F110038E4A19468423084636
:1023E00011461A460CF04AFC894B1B68184600211E
:1023F0000022002306F0F4FF07F11004694604F1FF
:1024000010037422084619460CF038FC94E80F00BB
:1024100005F0ACF9D7F860310233C7F8603107F145
:10242000080307F108021288023A1A8001F0D1BCB1
:102430004FF00003C7F8FC3007F1FC03013307F14C
:102440000C02126807F10C01501C086012781A7017
:1024500007F1FC0207F10C031B6807F10C01581C83
:1024600008601B78137007F1FC03033307F10C02BB
:10247000126807F10C01501C086012781A7007F1FD
:10248000FC03023307F10C02126807F10C01501C27
:10249000086012781A70D7ED3F7AF5EEC07AF1EE47
:1024A00010FA35DBD7ED3F7AB3EE047AF4EEC77A53
:1024B000F1EE10FA2CD8564B1B68184600214FF04D
:1024C000FF32002307F0D6F8D7F8FC30514A936367
:1024D00007F110034F4A19468423084611461A464D
:1024E0000CF0CCFB4A4B1B6818460021002200234D
:1024F00006F076FF07F11004694604F11003742218
:10250000084619460CF0BAFB94E80F0005F02EF9C6
:10251000D7F860310233C7F8603107F1080307F1DB
:1025200008021288023A1A8001F053BC0023C7F84F
:10253000F83007F1F803013307F10C02126807F1D4
:102540000C01501C086012781A7007F1F80207F1AC
:102550000C031B6807F10C01581C08601B781370F2
:1025600007F1F803033307F10C02126807F10C01BD
:10257000501C086012781A7007F1F803023307F153
:102580000C02126807F10C01501C086012781A70D6
:10259000D7F8F830B3F5000F2CD21D4B1B68184646
:1025A00000214FF0FF32002307F064F8D7F8F8302D
:1025B000184AD36307F11003164A194684230846C4
:1025C00011461A460CF05AFB114B1B6818460021A5
:1025D0000022002306F004FF07F11004694604F10D
:1025E00010037422084619460CF048FB94E80F00CB
:1025F00005F0BCF8D7F860310233C7F8603107F155
:10260000080307F108021288023A1A8001F0E1BBC0
:10261000E05C0020F85B00204FF00003C7F8F430C6
:1026200007F1F403013307F10C02126807F10C0102
:10263000501C086012781A7007F1F40207F10C03BD
:102640001B6807F10C01581C08601B78137007F118
:10265000F403033307F10C02126807F10C01501C5C
:10266000086012781A7007F1F403023307F10C02C4
:10267000126807F10C01501C086012781A70D7ED2F
:102680003D7AF5EEC07AF1EE10FA35DBD7ED3D7A02
:10269000B3EE047AF4EEC77AF1EE10FA2CD8CE4BF2
:1026A0001B68184600214FF0FF32002306F0E2FFBE
:1026B000D7F8F430C94A136407F11003C74A194622
:1026C0008423084611461A460CF0D8FAC24B1B6800
:1026D000184600210022002306F082FE07F11004B4
:1026E000694604F110037422084619460CF0C6FA34
:1026F00094E80F0005F03AF8D7F860310233C7F8D4
:10270000603107F1080307F108021288023A1A80C3
:1027100001F05FBB0023C7F8F03007F1F00301338D
:1027200007F10C02126807F10C01501C08601278C6
:102730001A7007F1F00207F10C031B6807F10C0196
:10274000581C08601B78137007F1F003033307F17E
:102750000C02126807F10C01501C086012781A7004
:1027600007F1F003023307F10C02126807F10C01C4
:10277000501C086012781A70D7F8F030B3F5000FCB
:102780002CD2954B1B68184600214FF0FF320023D6
:1027900006F070FFD7F8F030904A536107F110034C
:1027A0008E4A19468423084611461A460CF066FAEA
:1027B000894B1B68184600210022002306F010FEFA
:1027C00007F11004694604F1100374220846194603
:1027D0000CF054FA94E80F0004F0C8FFD7F8603109
:1027E0000233C7F8603107F1080307F108021288C5
:1027F000023A1A8001F0EDBA4FF00003C7F8EC304E
:1028000007F1EC03013307F10C02126807F10C0128
:10281000501C086012781A7007F1EC0207F10C03E3
:102820001B6807F10C01581C08601B78137007F136
:10283000EC03033307F10C02126807F10C01501C82
:10284000086012781A7007F1EC03023307F10C02EA
:10285000126807F10C01501C086012781A70D7ED4D
:102860003B7AF5EEC07AF1EE10FA35DBD7ED3B7A24
:10287000B3EE047AF4EEC77AF1EE10FA2CD8564B88
:102880001B68184600214FF0FF32002306F0F2FECD
:10289000D7F8EC30514A936107F110034F4A1946BB
:1028A0008423084611461A460CF0E8F94A4B1B6887
:1028B000184600210022002306F092FD07F11004C3
:1028C000694604F110037422084619460CF0D6F943
:1028D00094E80F0004F04AFFD7F860310233C7F8DC
:1028E000603107F1080307F108021288023A1A80E2
:1028F00001F06FBA0023C7F8E83007F1E8030133AD
:1029000007F10C02126807F10C01501C08601278E4
:102910001A7007F1E80207F10C031B6807F10C01BC
:10292000581C08601B78137007F1E803033307F1A4
:102930000C02126807F10C01501C086012781A7022
:1029400007F1E803023307F10C02126807F10C01EA
:10295000501C086012781A70D7F8E830B3F5000FF1
:102960002CD21D4B1B68184600214FF0FF3200236C
:1029700006F080FED7F8E830184AD36107F110035B
:10298000164A19468423084611461A460CF076F971
:10299000114B1B68184600210022002306F020FD81
:1029A00007F11004694604F1100374220846194621
:1029B0000CF064F994E80F0004F0D8FED7F8603109
:1029C0000233C7F8603107F1080307F108021288E3
:1029D000023A1A8001F0FDB9E05C0020F85B0020AB
:1029E0004FF00003C7F8E43007F1E403013307F1C7
:1029F0000C02126807F10C01501C086012781A7062
:102A000007F1E40207F10C031B6807F10C01581CE5
:102A100008601B78137007F1E403033307F10C021D
:102A2000126807F10C01501C086012781A7007F147
:102A3000E403023307F10C02126807F10C01501C89
:102A4000086012781A70D7ED397AF5EEC07AF1EE97
:102A500010FA35DBD7ED397AB3EE047AF4EEC77AA3
:102A6000F1EE10FA2CD8CE4B1B68184600214FF01F
:102A7000FF32002306F0FEFDD7F8E430C94A1362A6
:102A800007F11003C74A19468423084611461A461F
:102A90000CF0F4F8C24B1B681846002100220023FA
:102AA00006F09EFC07F11004694604F1100374223D
:102AB000084619460CF0E2F894E80F0004F056FEC0
:102AC000D7F860310233C7F8603107F1080307F126
:102AD00008021288023A1A8001F07BB90023C7F875
:102AE000E03007F1E003013307F10C02126807F14F
:102AF0000C01501C086012781A7007F1E00207F10F
:102B00000C031B6807F10C01581C08601B7813703C
:102B100007F1E003033307F10C02126807F10C011F
:102B2000501C086012781A7007F1E003023307F1B5
:102B30000C02126807F10C01501C086012781A7020
:102B4000D7F8E030B3F5000F2CD2954B1B68184630
:102B500000214FF0FF32002306F08CFDD7F8E03063
:102B6000904A536007F110038E4A194684230846A1
:102B700011461A460CF082F8894B1B681846002152
:102B80000022002306F02CFC07F11004694604F132
:102B900010037422084619460CF070F894E80F00F0
:102BA00004F0E4FDD7F860310233C7F8603107F173
:102BB000080307F108021288023A1A8001F009B9E5
:102BC0004FF00003C7F8DC3007F1DC03013307F1F5
:102BD0000C02126807F10C01501C086012781A7080
:102BE00007F1DC0207F10C031B6807F10C01581C0C
:102BF00008601B78137007F1DC03033307F10C0244
:102C0000126807F10C01501C086012781A7007F165
:102C1000DC03023307F10C02126807F10C01501CAF
:102C2000086012781A70D7ED377AF5EEC07AF1EEB7
:102C300010FA35DBD7ED377AB3EE047AF4EEC77AC3
:102C4000F1EE10FA2CD8564B1B68184600214FF0B5
:102C5000FF32002306F00EFDD7F8DC30514A9360B6
:102C600007F110034F4A19468423084611461A46B5
:102C70000CF004F84A4B1B68184600210022002380
:102C800006F0AEFB07F11004694604F1100374224C
:102C9000084619460BF0F2FF94E80F0004F066FDB9
:102CA000D7F860310233C7F8603107F1080307F144
:102CB00008021288023A1A8001F08BB80023C7F884
:102CC000D83007F1D803013307F10C02126807F17D
:102CD0000C01501C086012781A7007F1D80207F135
:102CE0000C031B6807F10C01581C08601B7813705B
:102CF00007F1D803033307F10C02126807F10C0146
:102D0000501C086012781A7007F1D803023307F1DB
:102D10000C02126807F10C01501C086012781A703E
:102D2000D7F8D830B3F5000F2CD21D4B1B681846CE
:102D300000214FF0FF32002306F09CFCD7F8D8307A
:102D4000184AD36007F11003164A1946842308462F
:102D500011461A460BF092FF114B1B6818460021D2
:102D60000022002306F03CFB07F11004694604F141
:102D700010037422084619460BF080FF94E80F00F8
:102D800004F0F4FCD7F860310233C7F8603107F182
:102D9000080307F108021288023A1A8001F019B8F4
:102DA000E05C0020F85B00204FF00003C7F8D4304F
:102DB00007F1D403013307F10C02126807F10C018B
:102DC000501C086012781A7007F1D40207F10C0346
:102DD0001B6807F10C01581C08601B78137007F181
:102DE000D403033307F10C02126807F10C01501CE5
:102DF000086012781A7007F1D403023307F10C024D
:102E0000126807F10C01501C086012781A70D7ED97
:102E1000357AF5EEC07AF1EE10FA35DBD7ED357A7A
:102E2000B3EE047AF4EEC77AF1EE10FA2CD8CE4B5A
:102E30001B68184600214FF0FF32002306F01AFCF1
:102E4000D7F8D430C94A136107F11003C74A1946AD
:102E50008423084611461A460BF010FFC24B1B682C
:102E6000184600210022002306F0BAFA07F11004E8
:102E7000694604F110037422084619460BF0FEFE61
:102E800094E80F0004F072FCD7F860310233C7F801
:102E9000603107F1080307F108021288023A1A802C
:102EA00000F097BF0023C7F8D03007F1D0030133FB
:102EB00007F10C02126807F10C01501C086012782F
:102EC0001A7007F1D00207F10C031B6807F10C011F
:102ED000581C08601B78137007F1D003033307F107
:102EE0000C02126807F10C01501C086012781A706D
:102EF00007F1D003023307F10C02126807F10C014D
:102F0000501C086012781A70D7F8D030B3F5000F53
:102F10002CD2954B1B68184600214FF0FF3200233E
:102F200006F0A8FBD7F8D030904A536607F110039B
:102F30008E4A19468423084611461A460BF09EFE17
:102F4000894B1B68184600210022002306F048FA2E
:102F500007F11004694604F110037422084619466B
:102F60000BF08CFE94E80F0004F000FCD7F8603101
:102F70000233C7F8603107F1080307F1080212882D
:102F8000023A1A8000F025BF4FF00003C7F8CC309A
:102F900007F1CC03013307F10C02126807F10C01B1
:102FA000501C086012781A7007F1CC0207F10C036C
:102FB0001B6807F10C01581C08601B78137007F19F
:102FC000CC03033307F10C02126807F10C01501C0B
:102FD000086012781A7007F1CC03023307F10C0273
:102FE000126807F10C01501C086012781A70D7EDB6
:102FF000337AF5EEC07AF1EE10FA35DBD7ED337A9D
:10300000B3EE047AF4EEC77AF1EE10FA2CD8564BF0
:103010001B68184600214FF0FF32002306F02AFB00
:10302000D7F8CC30514A936607F110034F4A19463E
:103030008423084611461A460BF020FE4A4B1B68B3
:10304000184600210022002306F0CAF907F11004F7
:10305000694604F110037422084619460BF00EFE6F
:1030600094E80F0004F082FBD7F860310233C7F810
:10307000603107F1080307F108021288023A1A804A
:1030800000F0A7BE0023C7F8C83007F1C80301331A
:1030900007F10C02126807F10C01501C086012784D
:1030A0001A7007F1C80207F10C031B6807F10C0145
:1030B000581C08601B78137007F1C803033307F12D
:1030C0000C02126807F10C01501C086012781A708B
:1030D00007F1C803023307F10C02126807F10C0173
:1030E000501C086012781A70D7F8C830B3F5000F7A
:1030F0002CD21D4B1B68184600214FF0FF320023D5
:1031000006F0B8FAD7F8C830184AD36607F11003AA
:10311000164A19468423084611461A460BF0AEFD9E
:10312000114B1B68184600210022002306F058F9B5
:1031300007F11004694604F1100374220846194689
:103140000BF09CFD94E80F0004F010FBD7F8603101
:103150000233C7F8603107F1080307F1080212884B
:10316000023A1A8000F035BEE05C0020F85B0020D7
:103170004FF00003C7F8C43007F1C403013307F16F
:103180000C02126807F10C01501C086012781A70CA
:1031900007F1C40207F10C031B6807F10C01581C6E
:1031A00008601B78137007F1C403033307F10C02A6
:1031B000126807F10C01501C086012781A7007F1B0
:1031C000C403023307F10C02126807F10C01501C12
:1031D000086012781A70D7ED317AF5EEC07AF1EE08
:1031E00010FA35DBD7ED317AB3EE047AF4EEC77A14
:1031F000F1EE10FA2CD8CE4B1B68184600214FF088
:10320000FF32002306F036FAD7F8C430C94A1367F4
:1032100007F11003C74A19468423084611461A4687
:103220000BF02CFDC24B1B68184600210022002326
:1032300006F0D6F807F11004694604F11003742271
:10324000084619460BF01AFD94E80F0004F08EFAB8
:10325000D7F860310233C7F8603107F1080307F18E
:1032600008021288023A1A8000F0B3BD0023C7F8A2
:10327000C03007F1C003013307F10C02126807F1F7
:103280000C01501C086012781A7007F1C00207F197
:103290000C031B6807F10C01581C08601B781370A5
:1032A00007F1C003033307F10C02126807F10C01A8
:1032B000501C086012781A7007F1C003023307F13E
:1032C0000C02126807F10C01501C086012781A7089
:1032D000D7F8C030B3F5000F2CD2954B1B681846B9
:1032E00000214FF0FF32002306F0C4F9D7F8C030B8
:1032F000904A536707F110038E4A19468423084603
:1033000011461A460BF0BAFC894B1B68184600217F
:103310000022002306F064F807F11004694604F166
:1033200010037422084619460BF0A8FC94E80F001D
:1033300004F01CFAD7F860310233C7F8603107F1A6
:10334000080307F108021288023A1A8000F041BD12
:103350004FF00003C7F8BC3007F1BC03013307F19D
:103360000C02126807F10C01501C086012781A70E8
:1033700007F1BC0207F10C031B6807F10C01581C94
:1033800008601B78137007F1BC03033307F10C02CC
:10339000126807F10C01501C086012781A7007F1CE
:1033A000BC03023307F10C02126807F10C01501C38
:1033B000086012781A70D7ED2F7AF5EEC07AF1EE28
:1033C00010FA35DBD7ED2F7AB3EE047AF4EEC77A34
:1033D000F1EE10FA2CD8564B1B68184600214FF01E
:1033E000FF32002306F046F9D7F8BC30514A936704
:1033F00007F110034F4A19468423084611461A461E
:103400000BF03CFC4A4B1B681846002100220023AD
:1034100005F0E6FF07F11004694604F11003742279
:10342000084619460BF02AFC94E80F0004F09EF9B8
:10343000D7F860310233C7F8603107F1080307F1AC
:1034400008021288023A1A8000F0C3BC0023C7F8B1
:10345000B83007F1B803013307F10C02126807F125
:103460000C01501C086012781A7007F1B80207F1BD
:103470000C031B6807F10C01581C08601B781370C3
:1034800007F1B803033307F10C02126807F10C01CE
:10349000501C086012781A7007F1B803023307F164
:1034A0000C02126807F10C01501C086012781A70A7
:1034B000D7F8B830B3F5000F2CD21D4B1B68184657
:1034C00000214FF0FF32002306F0D4F8D7F8B830CF
:1034D000184AD36707F11003164A19468423084691
:1034E00011461A460BF0CAFB114B1B681846002107
:1034F0000022002305F074FF07F11004694604F16F
:1035000010037422084619460BF0B8FB94E80F002C
:1035100004F02CF9D7F860310233C7F8603107F1B5
:10352000080307F108021288023A1A8000F051BC21
:10353000E05C0020F85B00204FF00003C7F8B430D7
:1035400007F1B403013307F10C02126807F10C0113
:10355000501C086012781A7007F1B40207F10C03CE
:103560001B6807F10C01581C08601B78137007F1E9
:10357000B403033307F10C02126807F10C01501C6D
:10358000086012781A7007F1B403023307F10C02D5
:10359000126807F10C01501C086012781A70D7ED00
:1035A0002D7AF5EEC07AF1EE10FA36DBD7ED2D7AF2
:1035B000B3EE047AF4EEC77AF1EE10FA2DD8CD4BC3
:1035C0001B68184600214FF0FF32002306F052F826
:1035D000D7F8B430C84AC2F8803007F11003C64AA1
:1035E00019468423084611461A460BF047FBC14B87
:1035F0001B68184600210022002305F0F1FE07F1A8
:103600001004694604F110037422084619460BF0B1
:1036100035FB94E80F0004F0A9F8D7F860310233C5
:10362000C7F8603107F1080307F108021288023A6F
:103630001A80CEE30023C7F8B03007F1B00301339E
:1036400007F10C02126807F10C01501C0860127897
:103650001A7007F1B00207F10C031B6807F10C01A7
:10366000581C08601B78137007F1B003033307F18F
:103670000C02126807F10C01501C086012781A70D5
:1036800007F1B003023307F10C02126807F10C01D5
:10369000501C086012781A70D7F8B030B3F5000FDC
:1036A0002CD2944B1B68184600214FF0FF320023A8
:1036B00005F0E0FFD7F8B0308F4A536507F11003EB
:1036C0008D4A19468423084611461A460BF0D6FA4D
:1036D000884B1B68184600210022002305F080FE5D
:1036E00007F11004694604F11003742208461946D4
:1036F0000BF0C4FA94E80F0004F038F8D7F8603102
:103700000233C7F8603107F1080307F10802128895
:10371000023A1A805DE34FF00003C7F8AC3007F1BE
:10372000AC03013307F10C02126807F10C01501CC5
:10373000086012781A7007F1AC0207F10C031B68DD
:1037400007F10C01581C08601B78137007F1AC03DB
:10375000033307F10C02126807F10C01501C0860DA
:1037600012781A7007F1AC03023307F10C021268E9
:1037700007F10C01501C086012781A70D7ED2B7AF3
:10378000F5EEC07AF1EE10FA35DBD7ED2B7AB3EE19
:10379000047AF4EEC77AF1EE10FA2CD8554B1B6878
:1037A000184600214FF0FF32002305F063FFD7F8E1
:1037B000AC30514A936507F110034F4A19468423F0
:1037C000084611461A460BF059FA4A4B1B68184630
:1037D00000210022002305F003FE07F110046946D2
:1037E00004F110037422084619460BF047FA94E8D6
:1037F0000F0003F0BBFFD7F860310233C7F8603128
:1038000007F1080307F108021288023A1A80E0E281
:103810000023C7F8A83007F1A803013307F10C0211
:10382000126807F10C01501C086012781A7007F139
:10383000A80207F10C031B6807F10C01581C086073
:103840001B78137007F1A803033307F10C02126809
:1038500007F10C01501C086012781A7007F1A803D8
:10386000023307F10C02126807F10C01501C0860CA
:1038700012781A70D7F8A830B3F5000F2CD21D4B70
:103880001B68184600214FF0FF32002305F0F2FEBE
:10389000D7F8A830184AD36507F11003164A19461D
:1038A0008423084611461A460BF0E8F9114B1B68B1
:1038B000184600210022002305F092FD07F11004B4
:1038C000694604F110037422084619460BF0D6F934
:1038D00094E80F0003F04AFFD7F860310233C7F8CD
:1038E000603107F1080307F108021288023A1A80D2
:1038F0006FE200BFE05C0020F85B00204FF00003A7
:10390000C7F8A43007F1A403013307F10C021268D1
:1039100007F10C01501C086012781A7007F1A4021C
:1039200007F10C031B6807F10C01581C08601B7899
:10393000137007F1A403033307F10C02126807F1B7
:103940000C01501C086012781A7007F1A4030233AE
:1039500007F10C02126807F10C01501C0860127884
:103960001A70D7ED297AF5EEC07AF1EE10FA35DB50
:10397000D7ED297AB3EE047AF4EEC77AF1EE10FAB5
:103980002CD8CC4B1B68184600214FF0FF32002387
:1039900005F070FED7F8A430C74A136607F110038C
:1039A000C54A19468423084611461A460BF066F9A3
:1039B000C04B1B68184600210022002305F010FDB3
:1039C00007F11004694604F11003742208461946F1
:1039D0000BF054F994E80F0003F0C8FED7F86031FB
:1039E0000233C7F8603107F1080307F108021288B3
:1039F000023A1A80EDE10023C7F8A03007F1A003D6
:103A0000013307F10C02126807F10C01501C086029
:103A100012781A7007F1A00207F10C031B6807F176
:103A20000C01581C08601B78137007F1A0030333C6
:103A300007F10C02126807F10C01501C08601278A3
:103A40001A7007F1A003023307F10C02126807F1A4
:103A50000C01501C086012781A70D7F8A030B3F52A
:103A6000000F2CD2934B1B68184600214FF0FF32F9
:103A7000002305F0FFFDD7F8A0308F4A536407F10B
:103A800010038D4A19468423084611461A460BF046
:103A9000F5F8884B1B68184600210022002305F02A
:103AA0009FFC07F11004694604F1100374220846D4
:103AB00019460BF0E3F894E80F0003F057FED7F82F
:103AC00060310233C7F8603107F1080307F10802DB
:103AD0001288023A1A807CE14FF00003C7F89C304C
:103AE00007F19C03013307F10C02126807F10C0186
:103AF000501C086012781A7007F19C0207F10C0341
:103B00001B6807F10C01581C08601B78137007F143
:103B10009C03033307F10C02126807F10C01501CDF
:103B2000086012781A7007F19C03023307F10C0247
:103B3000126807F10C01501C086012781A70D7ED5A
:103B4000277AF5EEC07AF1EE10FA35DBD7ED277A59
:103B5000B3EE047AF4EEC77AF1EE10FA2CD8554B96
:103B60001B68184600214FF0FF32002305F082FD4C
:103B7000D7F89C30504A936407F110034E4A194617
:103B80008423084611461A460BF078F8494B1B6807
:103B9000184600210022002305F022FC07F1100442
:103BA000694604F110037422084619460BF066F8C2
:103BB00094E80F0003F0DAFDD7F860310233C7F85C
:103BC000603107F1080307F108021288023A1A80EF
:103BD000FFE00023C7F8983007F19803013307F19D
:103BE0000C02126807F10C01501C086012781A7060
:103BF00007F1980207F10C031B6807F10C01581C30
:103C000008601B78137007F19803033307F10C0267
:103C1000126807F10C01501C086012781A7007F145
:103C20009803023307F10C02126807F10C01501CD3
:103C3000086012781A70D7F89830B3F5000F2CD2BC
:103C40001C4B1B68184600214FF0FF32002305F083
:103C500011FDD7F89830184AD36407F11003164ABB
:103C600019468423084611461A460BF007F8114BF3
:103C70001B68184600210022002305F0B1FB07F164
:103C80001004694604F110037422084619460AF02C
:103C9000F5FF94E80F0003F069FDD7F860310233B7
:103CA000C7F8603107F1080307F108021288023AE9
:103CB0001A808EE0E05C0020F85B00204FF00003EB
:103CC000C7F8943007F19403013307F10C0212682E
:103CD00007F10C01501C086012781A7007F1940269
:103CE00007F10C031B6807F10C01581C08601B78D6
:103CF000137007F19403033307F10C02126807F104
:103D00000C01501C086012781A7007F194030233FA
:103D100007F10C02126807F10C01501C08601278C0
:103D20001A70D7ED257AF5EEC07AF1EE10FA35DB90
:103D3000D7ED257AB3EE047AF4EEC77AF1EE10FAF5
:103D40002CD82E4B1B68184600214FF0FF32002361
:103D500005F090FCD7F89430294A136507F1100359
:103D6000274A19468423084611461A460AF086FF58
:103D7000224B1B68184600210022002305F030FB6F
:103D800007F11004694604F110037422084619462D
:103D90000AF074FF94E80F0003F0E8FCD7F86031F4
:103DA0000233C7F8603107F1080307F108021288EF
:103DB000023A1A800DE007F108031A8807F1080398
:103DC000013A1A8007F10C0307F10C0212681A601D
:103DD00000BF07F108031B88002B7DF430AE00BF45
:103DE00002E0012387F8673197F86731B546184636
:103DF00007F5B677BD46BDE8F08300BFE05C002064
:103E0000F85B002080B485B000AFF860084611462A
:103E10001A4603467B810B463B811346FB71012307
:103E200018461437BD465DF8047B704780B483B0F4
:103E300000AF78600B467B8013463B800123184619
:103E40000C37BD465DF8047B704700BF80B598B065
:103E500000AFF860B9601346FB80002387F85F303D
:103E6000002387F858300023A7F85C300023A7F818
:103E70005A300023A7F85C3079E0B7F85C2013468D
:103E80005B0013445B001A46BB6813441B88002B7D
:103E900064D1B7F85C2013465B0013445B001A46FC
:103EA000BB6813445B88A7F85A303CE0FB685A1C97
:103EB000FA6047221A70FB685A1CFA6006221A70D0
:103EC000B7F85A2007F110031046194601F0A2FE78
:103ED000034687F8583097F85830002B1BD1002341
:103EE00087F85930002387F859300FE0FB685A1CD7
:103EF000FA6097F8592007F160010A4412F8502C33
:103F00001A7097F85930013387F8593097F85930BB
:103F1000452BEBD902E0012387F85F30B7F85A3020
:103F20000133A7F85A30B7F85A10B7F85C20134697
:103F30005B0013445B001A46BB6813445B88184659
:103F4000B7F85C2013465B0013445B001A46BB685D
:103F500013449B8803449942A8DB03E0012387F8BC
:103F60005F3000BFB7F85C300133A7F85C30B7F8BA
:103F70005C20FB889A4280D397F85F301846603700
:103F8000BD4680BD80B586B004AF1020012101F090
:103F90006FFC02233B6001233B710123BB710023B3
:103FA000FB7100237B713B460A48194603F00EFC67
:103FB0000123009300230193002302930023039322
:103FC000054806494FF48072002301F05DFF083771
:103FD000BD4680BD00100240E13F000830040108EA
:103FE00080B584B000AF78600A20002101F0E2FEC5
:103FF0001D4A1D4B5B8B9BB243F002039BB2538364
:104000001A4B1B68184600214FF0FF32002305F0C1
:1040100031FB174BFB604FF00003BB6097ED030AC9
:104020000AF014FF87ED020A4FF00003FB600F4B0C
:104030001B68184600210022002305F0D1F94FF437
:104040007A7001F0EFFF0A2001F0CCFE064A064B21
:104050001B8B9BB243F002039BB213834FF47A7025
:1040600001F0E0FFC4E700BF001002407C5C0020CC
:10407000E7FB493F90B587B002AF7860084611462C
:104080001A460346FB700B46BB7013467B70002339
:10409000FB737B68022283F83620BB78002B05D0A7
:1040A000BB78002B02D0BB78F72B02D90223FB731D
:1040B0004BE07B68BA7883F83420FB78002B2CD156
:1040C0007B68244ADA607B68234A1A617B68234A4A
:1040D0009A617B68224A5A617B680022DA617B68B8
:1040E000204A1A627B68204A5A627B681F4A9A6299
:1040F0007B6803F138007B6803F150017B6893F81B
:1041000034207C783B6A009397F82430019323464F
:1041100004F038F80346FB7301E00223FB73FB7BDA
:10412000002B12D17B686433184600F0B5FA0346C1
:10413000002B02D10323FB7307E07B68FA7883F836
:1041400035207B68012283F83620FB7B1846143724
:10415000BD4690BD0582000835820008D98200085E
:104160005D820008A98300086984000805850008AD
:1041700080B584B000AF78600023FB737B6893F850
:104180003630012B0FD17B68DB687A6802F168005A
:104190007A6802F138017A68503298477B680022C9
:1041A00083F8362001E00623FB73FB7B18461037AB
:1041B000BD4680BDB0B586B002AF78600023FB720B
:1041C0007B6893F83630002B01D00623ADE07B6886
:1041D00003F1640207F10A031046194600F07EFA63
:1041E0000346012B40F0A080BB7A032B00F29C8099
:1041F00001A252F823F000BF294300080942000839
:104200004F420008294300087B685C697B6803F122
:1042100068007B68191D7A687B680633A0470346EF
:10422000FB72FB7A002B11D17B681A797B6893F8BB
:1042300034309A4203D07B681B79002B06D17B680F
:1042400064331846022100F035FA6DE06CE07B68BB
:104250001B681A787B685A717B6801221A720023E6
:10426000FB6022E0334AFB6812F83330002B00D1A8
:104270001EE0304AFB6812F833207B685B799A4273
:1042800010D12C4AFB68DB0013445B687A68116824
:104290007A68063208461146984703461A467B68F4
:1042A0001A7205E0FB680133FB60FB68102BD9DD57
:1042B0007B681B79002B36D07B681B7A002B1DD0C6
:1042C0007B680022DA807B681A687B68DB88591C6F
:1042D00088B27968C88013447A68527962F07F02A4
:1042E000D2B21A707B681A687B68DB88591C88B266
:1042F0007968C88013447A68127A1A707B689C695E
:104300007B6803F168007B6803F138017B6893F8F0
:1043100034207B681D687B68DB8800932B46A047B0
:104320000346FB72FFE700BF002318461037BD4667
:10433000B0BD00BF0800002080B483B000AF78603B
:104340000B46FB70FB78002B06D00949084BDA6B53
:104350007B681343CB6306E00549054BDA6B7B684A
:10436000DB431340CB630C37BD465DF8047B7047DD
:10437000002C014080B485B000AF78600023FB734F
:10438000084B5A6B7B681340002B02D00123FB7350
:1043900001E00023FB73FB7B18461437BD465DF834
:1043A000047B7047002C014080B483B000AF78607C
:1043B000034A7B6893630C37BD465DF8047B704706
:1043C000002C014080B586B004AF344806F00EFCE6
:1043D000324803F081FB324806F068FD304803F0B4
:1043E00039FC304806F016FE2E4803F0F1FC4FF47D
:1043F0006143009300230193284800210A220023EF
:10440000FFF738FE0346FB714FF46143009300232E
:104410000193234800210A220023FFF72BFE0346C5
:10442000FB714FF461430093002301931D48002169
:104430000A220023FFF71EFE0346FB7101230093AF
:104440000023019300230293002303931648174986
:104450004FF40072002301F017FD012300930023A5
:1044600001930023029300230393114811494FF451
:104470000072002301F008FD012300930023019343
:1044800000230293002303930B480C494FF400725E
:10449000002301F0F9FC0837BD4680BD6C490020BF
:1044A000F8470020E04A0020C14400083C0401080D
:1044B000F14400084C040108214500085C0401088F
:1044C00080B582B000AF78600848FFF751FE012048
:1044D000002101F06FFC0548FFF76CFE0A2001F097
:1044E000A1FD012001F07EFCF5E700BF6C49002032
:1044F00080B582B000AF78600848FFF739FE002031
:10450000002101F057FC0548FFF754FE0A2001F096
:1045100089FD002001F066FCF5E700BFF8470020A8
:1045200080B582B000AF78600848FFF721FE022016
:10453000002101F03FFC0548FFF73CFE0A2001F096
:1045400071FD022001F04EFCF5E700BFE04A0020BB
:1045500080B586B000AF786039600023BB753B68DA
:104560001B88052B6ED17B6801331B789BB21B0225
:10457000BB827B6802331B789AB2BB8A1343BB822F
:10458000BB8A0133BB827B6803331B789BB21B025F
:104590007B827B6804331B789AB27B8A13437B82CD
:1045A0007B8A002B4AD07B8AB3F5FA6F46D27B68B0
:1045B000FB603B6800221A80FB685A1CFA600222EA
:1045C0001A703B681B8801339AB23B681A807B8A59
:1045D00003F00703002B06D07B8ADB089BB2DBB21B
:1045E0000133FB7503E07B8ADB089BB2FB75FB683C
:1045F0005A1CFA60FA7D1A703B681B8801339AB224
:104600003B681A80BA8A7B8AF86811461A46FFF717
:104610000DFC0346FB72FB7A002B06D0FB7A184692
:1046200000F068FB0346BB750BE03B681A88FB7D16
:104630009BB213449AB23B681A8002E00323BB7515
:1046400002E001E00323BB75BB7D18461837BD4669
:1046500080BD00BF80B400AFBD465DF8047B7047ED
:1046600080B483B000AF0346FB710C37BD465DF8E4
:10467000047B704780B400AFBD465DF8047B704793
:1046800080B400AFBD465DF8047B704780B400AFD6
:10469000BD465DF8047B704780B483B000AF78609E
:1046A0007B6800225A70012318460C37BD465DF81E
:1046B000047B704780B483B000AF78600B46FB701A
:1046C0007B6801225A707B68FA781A7001231846B9
:1046D0000C37BD465DF8047B704700BF80B584B0E1
:1046E00000AF786039600023FB737B685B78002B38
:1046F00012D07B681A783B681A707B6800225A7067
:104700000123FB737B681B78032B05D1054B5B6A88
:1047100005480649064A9847FB7B18461037BD46B0
:1047200080BD00BFE04A0020484B0020184B00200D
:10473000444B002080B582B000AF786039607B6860
:104740005A1C094B1B88104608491A460AF096FA6B
:10475000054B1B8801339AB23B681A800023184628
:104760000837BD4680BD00BF28060020080600208F
:1047700080B58AB000AF7860396000237B62002387
:104780003B620023FB610023BB617B681B8A9BB2F9
:104790007B627B6A23F440537B623B68DB881A466A
:1047A0007B6A13437B627B6A9AB27B681A827B685E
:1047B0009B899BB27B627B6A23F4B05323F00C038A
:1047C0007B623B689A883B681B8913439AB23B68BB
:1047D0005B8913439BB21A467B6A13437B627B6AF5
:1047E0009AB27B689A817B689B8A9BB27B627B6A68
:1047F00023F440737B623B689B891A467B6A1343B0
:104800007B627B6A9AB27B689A8207F1080318463A
:1048100000F046FF7B68314A934203D07B68304A00
:10482000934202D17B693B6201E03B693B627B685A
:104830009B899BB29BB21BB2002B0CDA3A6A1346DF
:104840009B0013449A001A443B681B685B00B2FB50
:10485000F3F3FB610BE03A6A13469B0013449A00A2
:104860001A443B681B689B00B2FBF3F3FB61FB69D6
:104870001C4AA2FB03235B091B017B627B6A1B09A9
:10488000642202FB03F3FA69D31ABB617B689B893C
:104890009BB29BB21BB2002B0CDABB69DB0032333C
:1048A000104AA2FB03235B0903F007037A6A134350
:1048B0007B620BE0BB691B0132330A4AA2FB032374
:1048C0005B0903F00F037A6A13437B627B6A9AB237
:1048D0007B681A812837BD4680BD00BF00100140AB
:1048E000001401401F85EB5180B483B000AF7860A5
:1048F0000B46FB70FB78002B08D07B689B899BB232
:1049000043F400539AB27B689A8107E07B689B89E5
:104910009BB223F400539AB27B689A810C37BD4650
:104920005DF8047B704700BF80B483B000AF78604F
:104930000B467B807B88C3F308039AB27B689A801E
:104940000C37BD465DF8047B704700BF80B483B070
:1049500000AF78607B689B889BB2C3F308039BB26F
:1049600018460C37BD465DF8047B704780B487B0AD
:1049700000AF78600B467B8013467B7000233B6161
:104980000023FB600023BB6000237B617B687B61AD
:104990007B88DBB25B09DBB23B617B8803F01F03E2
:1049A000FB60FB68012202FA03F3BB603B69012B49
:1049B00003D17B690C337B6109E03B69022B03D196
:1049C0007B6910337B6102E07B6914337B617B7808
:1049D000002B06D07B697A691168BA680A431A60AD
:1049E00006E07B697A691168BA68D2430A401A60A6
:1049F0001C37BD465DF8047B704700BF80B485B0AE
:104A000000AF78600B467B800023FB737B681B88BC
:104A10009AB27B8813409BB2002B02D00123FB7318
:104A200001E00023FB73FB7B18461437BD465DF89D
:104A3000047B704780B483B000AF78600B467B8006
:104A40007B88DB439AB27B681A800C37BD465DF8E1
:104A5000047B704780B487B000AF78600B467B80E2
:104A60000023FB6000237B610023BB600023FB74F9
:104A70007B88DBB25B09DBB2BB607B8803F01F0382
:104A80007B617B69012202FA03F37B61BB68012B26
:104A900007D17B689B899BB21A467B6913407B6177
:104AA00011E0BB68022B07D17B681B8A9BB21A46B8
:104AB0007B6913407B6106E07B689B8A9BB21A4648
:104AC0007B6913407B617B881B0A9BB2FB60FB68A0
:104AD000012202FA03F3FB607B681B889BB21A4633
:104AE000FB681340FB607B69002B05D0FB68002B43
:104AF00002D00123FB7401E00023FB74FB7C184609
:104B00001C37BD465DF8047B704700BF80B483B09E
:104B100000AF0346FB71044AFB7913600C37BD46B6
:104B20005DF8047B704700BF20000E4280B485B062
:104B300000AF78600023FB60094B1B68FB60FB68DB
:104B400023F0E003FB60FA687B681343FB60044AD0
:104B5000FB6813601437BD465DF8047B704700BFE7
:104B60000070004080B483B000AF0346FB71044A7C
:104B7000FB7913600C37BD465DF8047B704700BFBE
:104B800010000E4280B586B000AF00237B61002389
:104B90003B614FF08050012100F0A6FE0120FFF79D
:104BA000B5FF012000F05CFD00BF412000F0F6FEE3
:104BB0000346002BF9D04FF4807000F01BFEFF235A
:104BC0003B617F237B61012000F042FE09F008F881
:104BD000002043F2F22109F0E3F93B1D184608F0EA
:104BE000A5FF7B69BB603B69FB6000237B603B1DCD
:104BF000184608F05FFF1837BD4680BD80B500AF8E
:104C00004FF48070FFF7B6FB0346002B0AD02B4B06
:104C100000221A704FF48070FFF7C6FB284B012268
:104C20001A6041E00220FFF7A5FB0346002B06D0E7
:104C30000220FFF7B9FB214B02221A7034E0082052
:104C4000FFF798FB0346002B06D00820FFF7ACFBCC
:104C50001A4B04221A7027E02020FFF78BFB034633
:104C6000002B06D02020FFF79FFB144B06221A7062
:104C70001AE01020FFF77EFB0346002B06D0102021
:104C8000FFF792FB0D4B05221A700DE04FF40070F8
:104C9000FFF770FB0346002B06D04FF40070FFF7C0
:104CA00083FB064B07221A704CF23A300021FFF7C3
:104CB00043FB024B1B78DBB2184680BD6806002020
:104CC0006C06002080B500AF074B1B6803F0C05393
:104CD000002B07D0054B01221A6005484FF0C25146
:104CE00003F0EAFC80BD00BF0064024070060020B3
:104CF0005864024080B485B000AF0346FB71FB7975
:104D0000012B06D0072B07D0002B08D10023FB7303
:104D100008E00223FB7305E00623FB7302E0042393
:104D2000FB7300BFFB7B18461437BD465DF8047B60
:104D3000704700BF80B500AFFFF760FF80BD00BFC8
:104D400080B500AFFFF7BEFF80BD00BF80B582B069
:104D500000AF124B7B60124B3B6007E03B681A1DB3
:104D60003A607A68111D796012681A603B680D4AD2
:104D70009342F3D30C480D494FF000028842B8BF6C
:104D800040F8042BFADBDFF82800016841F47001D9
:104D9000016000F00FFC0837BD4680BDFC0B010828
:104DA000000000200806002008060020E45C002027
:104DB00088ED00E080B400AFFEE700BF80B483B0B0
:104DC00000AF0346FB80044AFB8813600C37BD46E6
:104DD0005DF8047B704700BF0030004080B483B0B2
:104DE00000AF0346FB71044AFB7953600C37BD46A4
:104DF0005DF8047B704700BF0030004080B483B092
:104E000000AF0346FB80044AFB8893600C37BD4625
:104E10005DF8047B704700BF0030004080B400AFF5
:104E2000034B4AF6AA221A60BD465DF8047B704720
:104E30000030004080B400AF034B4CF6CC421A6007
:104E4000BD465DF8047B70470030004080B584B0FB
:104E500000AF786039600023FB733B681B88052B2B
:104E600024D17B6801331B789BB21B02BB817B681A
:104E700002331B789AB2BB891343BB81BB890133D0
:104E8000BB817B68DA1CBB891046194601220123CD
:104E9000FCF734FC0346FB72FB7A002B08D0FB7A4C
:104EA0001846FFF727FF0346FB7301E00323FB735C
:104EB000FB7B18461037BD4680BD00BF80B584B06F
:104EC00000AF786039600023FB733B681B88052BBB
:104ED0004AD97B6801331B789BB21B02BB817B687C
:104EE00002331B789AB2BB891343BB81BB89013360
:104EF000BB817B6803331B789BB21B027B817B6881
:104F000004331B789AB27B8913437B817B685B797E
:104F10007B727B89002B23D07B89782B20D87B89DF
:104F2000DBB25B00DBB27A7A9A4219D17B68991DB9
:104F3000BA897B89084611461A460123FCF7DEFB35
:104F400003463B723B7A002B06D03B7A1846FFF7AC
:104F5000D1FE0346FB7306E03B6805221A8002E09F
:104F60000323FB7302E001E00323FB73FB7B184682
:104F70001037BD4680BD00BF80B586B000AF7860F9
:104F800039600023FB753B681B88052B5FD17B686C
:104F900001331B789BB21B02BB827B6802331B78F8
:104FA0009AB2BB8A1343BB82BB8A0133BB827B6844
:104FB00003331B789BB21B027B827B6804331B7814
:104FC0007B827B8A002B3ED07B8A7D2B3BD87B6803
:104FD000FB603B6800221A80FB685A1CFA600322BF
:104FE0001A703B681B8801339AB23B681A80FB68D1
:104FF0005A1CFA607A8AD2B25200D2B21A703B6856
:105000001B8801339AB23B681A80BA8A7B8AF86897
:1050100011461A460023FCF771FB0346FB72FB7A2C
:10502000002B06D0FB7A1846FFF764FE0346FB759B
:105030000CE03B681A887B8A5B009BB213449AB2EF
:105040003B681A8002E00323FB7502E001E00323C2
:10505000FB75FB7D18461837BD4680BD80B586B010
:1050600000AF786039600023FB753B681B88092B13
:1050700040F29F807B6801331B789BB21B02BB828E
:105080007B6802331B789AB2BB8A1343BB82BB8A0C
:105090000133BB827B6803331B789BB21B027B828C
:1050A0007B6804331B789AB27B8A13437B827B68CC
:1050B00005331B789BB21B023B827B6806331B784F
:1050C0009AB23B8A13433B823B8A01333B827B6823
:1050D00007331B789BB21B02FB817B6808331B786C
:1050E0009AB2FB891343FB817B685B7A7B737B8A73
:1050F000002B5CD07B8A7D2B59D8FB89002B56D0A6
:10510000FB89792B53D8FB895A007B7B9A424ED17D
:105110007B6803F10A013A8AFB89084611461A4660
:105120000123FCF7EBFA0346BB75BB7D002B33D1A3
:105130007B68BB603B6800221A80BB685A1CBA605F
:1051400017221A703B681B8801339AB23B681A8099
:10515000BB685A1CBA607A8AD2B25200D2B21A70B4
:105160003B681B8801339AB23B681A80BA8A7B8AF3
:10517000B86811461A460023FCF7C0FA0346BB750F
:10518000BB7D002B08D13B681A887B8A5B009BB2F1
:1051900013449AB23B681A80BB7D002B06D0BB7DBE
:1051A0001846FFF7A7FD0346FB7502E001E0032365
:1051B000FB75FB7D18461837BD4680BD80B584B0B1
:1051C00000AFF8607A603B600B46FB72F86803F052
:1051D000A1FAF86800F01CF8FB683A68C3F8E0250B
:1051E000FB68BA69C3F8E425FB687A68C3F8E82568
:1051F000FB7AF868194608F041FAFB68D3F8E43501
:105200001B689847F86803F0D5FA1037BD4680BD93
:1052100080B483B000AF7860002318460C37BD46D9
:105220005DF8047B704700BF80B584B000AF786044
:1052300007F108037868194603F000FF3B7A03F092
:105240001F03012B0AD0022B0FD0002B14D107F122
:1052500008037868194603F01BFB16E007F1080302
:105260007868194603F064FB0FE007F108037868DB
:10527000194603F091FB08E03B7A23F07F03DBB291
:105280007868194608F084FB00BF002318461037E1
:10529000BD4680BD80B584B000AF78600B46FB7022
:1052A000FB78002B44D17B6803F55C73FB607B6863
:1052B00093F81131032B4ED1FB68DA69FB689B68C8
:1052C0009A4220D9FB68DA69FB689B68D21AFB68AE
:1052D000DA617B68DB78012B06D1FB68DA68FB6852
:1052E0009B681A44FB68DA60FB68D968FB689A68B7
:1052F000FB68DB69934228BF13469BB278681A4665
:1053000008F0F6FE27E07B68D3F8E0351B69002B38
:105310000AD07B6893F81231032B05D17B68D3F850
:10532000E0351B6978689847786808F0F5FE12E068
:105330007B68D3F8E0359B69002B0CD07B6893F831
:105340001231032B07D17B68D3F8E0359B69FA78DB
:10535000786811469847002318461037BD4680BD2F
:1053600080B584B000AF78600B46FB70FB78002BF3
:1053700060D17B6803F58C73FB607B6893F8113117
:10538000022B6AD1FB68DA69FB689B689A421CD9D8
:10539000FB68DA69FB689B68D21AFB68DA617B6894
:1053A000DB78012B06D1FB68DA68FB689B681A443E
:1053B000FB68DA60FB68DA68FB68DB699BB27868D7
:1053C00011461A4608F060FE47E0FB681B6AFA685F
:1053D0009268B3FBF2F102FB01F29B1A002B14D18D
:1053E000FB681A6AFB689B689A420ED3FB681A6ACC
:1053F000FB685B6A9A4208D278680021002208F0B4
:1054000043FEFB6800225A6227E07B68D3F8E03550
:10541000DB68002B0AD07B6893F81231032B05D18F
:105420007B68D3F8E035DB6878689847786808F0DF
:105430008BFE12E07B68D3F8E0355B69002B0CD063
:105440007B6893F81231032B07D17B68D3F8E035E2
:105450005B69FA7878681146984700231846103738
:10546000BD4680BD80B582B000AF7860786800210D
:105470004022002308F082F978688021402200232E
:1054800008F07CF97B68012283F812217B68D3F84D
:10549000E4355B687A68927810469847002318468E
:1054A0000837BD4680BD00BF80B582B000AF7860D0
:1054B0007B68D3F8E4351B6998477B68032283F83F
:1054C0001221002318460837BD4680BD80B582B042
:1054D00000AF78607B68042283F812217B68D3F8E0
:1054E000E435DB689847002318460837BD4680BD81
:1054F00080B582B000AF78607B68D3F8E035DB69B7
:10550000002B05D07B68D3F8E035DB6978689847D5
:10551000002318460837BD4680BD00BF80B582B065
:1055200000AF78600B46FB707B68D3F8E0351B68F2
:10553000FA787868114698477B68D3F8E4359B6819
:105540009847002318460837BD4680BD80B582B015
:1055500000AF78600B46FB707B68D3F8E0355B6882
:10556000FA78786811469847002318460837BD46F0
:1055700080BD00BF80B582B000AF78607B68D3F893
:10558000E0351B6A78689847002318460837BD46FF
:1055900080BD00BF80B582B000AF78607B68D3F873
:1055A000E0355B6A78689847002318460837BD469F
:1055B00080BD00BF80B500AF02F0D0FF08F0DAFE7A
:1055C00000F082FDFEE700BF80B400AFFEE700BF41
:1055D00080B483B000AF78603960FEE780B582B0F8
:1055E00000AF08F093FE03467B607B680837BD463A
:1055F00080BD00BF80B485B000AF78600B467B8073
:10560000FF23FB73FF23BB7313E07B685A1C7A6094
:105610001A78BB7B5340DBB2BB600F4ABB681344B4
:105620001A78FB7B5340BB730C4ABB6813441B784E
:10563000FB737B885A1E7A80002BE6D1FB7B1B0212
:105640009AB2BB7B9BB213439BB29BB218461437F2
:10565000BD465DF8047B70476804010868050108D1
:1056600080B483B000AF0346FB710C4B00221A706C
:105670000A4B00221A70FB79012B02D0042B04D0B4
:1056800007E0064B01221A7003E0044B05221A7052
:1056900000BF0C37BD465DF8047B70477038024090
:1056A00080B489B000AF78600023BB6100237B61C8
:1056B0000023FB6102233B610023FB600223BB60EC
:1056C000484B9B6803F00C03BB61BB69042B07D0FC
:1056D000082B09D0002B3FD17B68434A1A603FE07A
:1056E0007B68424A1A603BE03E4B5B6803F48003F0
:1056F0009B0DFB603B4B5B6803F03F03BB60FB68AB
:10570000002B0DD0394ABB68B2FBF3F2354B596818
:1057100047F6C0730B409B0903FB02F3FB610CE0EF
:10572000314ABB68B2FBF3F22E4B596847F6C0739F
:105730000B409B0903FB02F3FB612A4B5B6803F4FC
:1057400040331B0C01335B003B61FA693B69B2FBE0
:10575000F3F27B681A6003E07B68234A1A6000BF9B
:10576000204B9B6803F0F003BB61BB691B09BB6165
:105770001F4ABB6913441B78DBB27B617B681A68E4
:105780007B69DA407B685A60164B9B6803F4E053F0
:10579000BB61BB699B0ABB61154ABB6913441B789B
:1057A000DBB27B617B685A687B69DA407B689A6010
:1057B0000C4B9B6803F46043BB61BB695B0BBB6133
:1057C0000B4ABB6913441B78DBB27B617B685A6868
:1057D0007B69DA407B68DA602437BD465DF8047B7C
:1057E000704700BF003802400024F40000127A0025
:1057F000DC00002080B485B000AF78600023FB603F
:105800007B6803F44073B3F5407F11D10F4B9B6865
:10581000FB60FB6823F4F813FB607B6823F07043A4
:1058200023F44073FA681343FB60084AFB689360F3
:105830000649064B1A6F7B68C3F30B0313430B67D0
:105840001437BD465DF8047B704700BF0038024046
:1058500080B483B000AF0346FB71044AFB79136048
:105860000C37BD465DF8047B704700BF3C0E4742D5
:1058700080B483B000AF78600B46FB70FB78002BE0
:1058800006D00949084B1A6B7B6813430B6306E08B
:105890000549054B1A6B7B68DB4313400B630C37E0
:1058A000BD465DF8047B70470038024080B483B089
:1058B00000AF78600B46FB70FB78002B06D00949DF
:1058C000084B5A6B7B6813434B6306E00549054B55
:1058D0005A6B7B68DB4313404B630C37BD465DF866
:1058E000047B70470038024080B483B000AF78601A
:1058F0000B46FB70FB78002B06D00949084B1A6C4D
:105900007B6813430B6406E00549054B1A6C7B6802
:10591000DB4313400B640C37BD465DF8047B7047D6
:105920000038024080B483B000AF78600B46FB7053
:10593000FB78002B06D00949084B5A6C7B6813434F
:105940004B6406E00549054B5A6C7B68DB4313400A
:105950004B640C37BD465DF8047B7047003802404D
:1059600080B483B000AF78600B46FB70FB78002BEF
:1059700006D00949084B1A6A7B6813430B6206E09C
:105980000549054B1A6A7B68DB4313400B620C37F1
:10599000BD465DF8047B70470038024080B487B094
:1059A00000AF0346FB710023FB6000237B610023F3
:1059B000FB74FB795B09DBB2FB60FB68012B03D155
:1059C000124B1B687B6109E0FB68022B03D10F4B74
:1059D0001B6F7B6102E00D4B5B6F7B61FB7903F01A
:1059E0001F03FB60FB687A6922FA03F303F00103EB
:1059F000002B02D00123FB7401E00023FB74FB7C2D
:105A000018461C37BD465DF8047B704700380240DD
:105A100080B59EB000AF78603960002387F875309C
:105A2000002387F874303B681B88082B40F2E6801F
:105A30007B6801331B78A7F87630B7F87620744B73
:105A4000A3FB0213D21A520813449B089BB287F897
:105A50007330002387F875304CE097F875207B6829
:105A600004331B7899B27B6803331B781B029BB20B
:105A70000B439BB299B213465B0013445B0007F1E2
:105A800078021344703B0A461A8097F875207B68A9
:105A900006331B7899B27B6805331B781B029BB2D7
:105AA0000B439BB299B213465B0013445B0007F1B2
:105AB00078021344703B0A465A8097F875207B6839
:105AC00008331B7899B27B6807331B781B029BB2A3
:105AD0000B439BB299B213465B0013445B0007F182
