:020000040800F2
:10000000B42D0020C51400082D1500082D1500087A
:100010002D1500082D1500082D1500080000000002
:10002000000000000000000000000000D5410008B2
:100030002D15000800000000F94300083D440008A9
:100040002D150008E58200082D1500082D15000863
:100050002D1500082D1500082D1500082D15000878
:100060002D1500082D1500082D1500082D15000868
:100070002D1500082D1500082D1500082D15000858
:100080002D1500082D1500082D1500082D15000848
:100090002D1500082D1500082D1500082D15000838
:1000A0002D1500082D1500082D1500082D15000828
:1000B000B16B00082D150008D53600082D15000875
:1000C0002D1500082D1500082D1500082D15000808
:1000D0002D1500082D1500082D150008F1500008F9
:1000E0002D1500082D1500082D1500082D150008E8
:1000F0002D1500082D1500082D1500082D150008D8
:100100002D1500082D1500081D3900082D150008B3
:10011000D15400082D1500082D1500082D150008D4
:100120002D1500082D1500082D1500082D150008A7
:100130002D1500082D1500082D1500082D15000897
:100140002D1500082D1500082D1500082D15000887
:100150002D1500082D1500082D1500082D15000877
:100160002D1500082D1500082D1500082D15000867
:100170002D1500082D1500082D1500082D15000857
:100180002D1500082D15000880B400AFBD4680BCB9
:10019000704700BF80B400AFBD4680BC704700BF51
:1001A00080B594B000AF786013460A467A803B80F1
:1001B0004FF0000387F84F3042F27453C2F200034D
:1001C0001B6818464FF000014FF0FF324FF000035C
:1001D00004F0AEFB07F1080242F27853C2F20003CA
:1001E0001B68136007F1080303F1040242F278531D
:1001F000C2F200035B68136007F1080303F1080211
:1002000042F27853C2F200039B69136007F10803BE
:1002100003F10C0242F27853C2F20003DB6913606F
:1002200007F1080303F1100242F27853C2F200030F
:100230001B6A136007F1080303F1140242F27853BA
:10024000C2F200035B6A136007F1080303F11802AE
:1002500042F27853C2F200039B6A136007F108036D
:1002600003F11C0242F27853C2F20003DB6A13600E
:1002700007F1080303F1200242F27853C2F20003AF
:100280001B6B136007F1080303F1240242F2785359
:10029000C2F200035B6B136042F27453C2F20003BC
:1002A0001B6818464FF000014FF000024FF00003AA
:1002B00004F024FA40F20003C2F200031B787A88AB
:1002C0009A4246D37A883B88D21840F20003C2F2A1
:1002D00000031B78194640F20203C2F200031B78A8
:1002E000CB189A4235DC7A8840F20403C2F200034C
:1002F0001B78D31ABB6428E0BB6C4FEA430307F1B9
:100300005002D31833F8483C4FEA13239BB2DAB2B9
:100310007B681A707B6803F101037B60BB6C4FEA5A
:10032000430307F15002D31833F8483CDAB27B6834
:100330001A707B6803F101037B60BB6C03F101035E
:10034000BB643B8803F1FF333B803B88002BD3D158
:1003500003E04FF0010387F84F3097F84F3018460D
:1003600007F15007BD4680BD80B5B8B000AFF8605A
:1003700079813A81FB714FF0000387F8DF3040F25A
:100380000103C2F200031B787A899A42C0F082828C
:100390007A893B89D21840F20103C2F200031B782C
:1003A000194640F20303C2F200031B78CB189A42AD
:1003B00000F370827A8940F20503C2F200031B78D1
:1003C000D31AC7F8D830FB79002B03D0012B00F0EB
:1003D0005B8263E207F154034FF00000194607F017
:1003E000B3F807F150034FF00000194607F0A4F9E5
:1003F00097F85630A7F8583097F85530A7F85A3084
:1004000097F85430A7F85C3097F85230A7F85E3070
:1004100097F85130A7F8603097F85330A7F862305A
:1004200097F85030A7F8643007F1580303F10E0233
:1004300042F27053C2F200031B6813602CE0D7F83D
:10044000D8304FEA430307F1E002D31833F8883C71
:100450004FEA13239BB2DAB2FB681A70FB6803F110
:100460000103FB60D7F8D8304FEA430307F1E002FD
:10047000D31833F8883CDAB2FB681A70FB6803F1D2
:100480000103FB60D7F8D83003F10103C7F8D83077
:100490003B8903F1FF333B813B89002BCFD1F8E14E
:1004A000D7F8D830072B00F2EA8101A252F823F0E6
:1004B000D10400083D050008A90500081106000840
:1004C00079060008E106000849070008AF070008A0
:1004D0004FF00003A7F84E3007F148034FF000003B
:1004E000194607F031F807F14E0303F10103FA68EA
:1004F00012781A70FB6803F10103FB6007F14E03E9
:10050000FA6812781A70FB6803F10103FB60B7F810
:100510004E30DBB287F84A3007F148034FF0000055
:10052000194606F06BFFD7F8D83003F10103C7F87E
:10053000D8303B8903F1FF333B81A5E14FF0000345
:10054000A7F8463007F140034FF00000194606F0C7
:10055000FBFF07F1460303F10103FA6812781A70F2
:10056000FB6803F10103FB6007F14603FA681278A8
:100570001A70FB6803F10103FB60B7F84630DBB289
:1005800087F8413007F140034FF00000194606F0AC
:1005900035FFD7F8D83003F10103C7F8D8303B89CD
:1005A00003F1FF333B816FE14FF00003FB8707F15D
:1005B00038034FF00000194606F0C6FF07F13E036E
:1005C00003F10103FA6812781A70FB6803F1010362
:1005D000FB6007F13E03FA6812781A70FB6803F1BA
:1005E0000103FB60FB8FDBB287F8383007F138037B
:1005F0004FF00000194606F001FFD7F8D83003F19C
:100600000103C7F8D8303B8903F1FF333B813BE15D
:100610004FF00003FB8607F130034FF0000019464E
:1006200007F08AF807F1360303F10103FA6812783C
:100630001A70FB6803F10103FB6007F13603FA68E7
:1006400012781A70FB6803F10103FB60FB8EDBB2CA
:1006500087F8323007F130034FF00000194606F0FA
:10066000C9FFD7F8D83003F10103C7F8D8303B8968
:1006700003F1FF333B8107E14FF00003FB8507F1F6
:1006800028034FF00000194607F056F807F12E0333
:1006900003F10103FA6812781A70FB6803F1010391
:1006A000FB6007F12E03FA6812781A70FB6803F1F9
:1006B0000103FB60FB8DDBB287F8293007F12803CB
:1006C0004FF00000194606F095FFD7F8D83003F137
:1006D0000103C7F8D8303B8903F1FF333B81D3E0F6
:1006E0004FF00003FB8407F120034FF00000194690
:1006F00007F022F807F1260303F10103FA681278E4
:100700001A70FB6803F10103FB6007F12603FA6826
:1007100012781A70FB6803F10103FB60FB8CDBB2FB
:1007200087F8233007F120034FF00000194606F048
:1007300061FFD7F8D83003F10103C7F8D8303B89FF
:1007400003F1FF333B819FE04FF00003FB8307F190
:1007500018034FF00000194606F0EEFF07F11E03E4
:1007600003F10103FA6812781A70FB6803F10103C0
:10077000FB6007F11E03FA6812781A70FB6803F138
:100780000103FB60FB8BDBB23B7607F118034FF0F4
:100790000000194606F02EFFD7F8D83003F1010308
:1007A000C7F8D8303B8903F1FF333B816CE04FF051
:1007B00000037B6107F1140303F10103FA68127867
:1007C0001A70FB6803F10103FB6007F11403FA6878
:1007D00012781A70FB6803F10103FB6007F1140340
:1007E00003F10303FA6812781A70FB6803F101033E
:1007F000FB6007F1140303F10203FA6812781A7020
:10080000FB6803F10103FB607A6942F61713C0F23B
:1008100031139A4228D97A6943F2E803C0F23113BE
:100820009A4221D842F2B053C2F200031B68184624
:100830004FF000014FF0FF324FF0000304F078F862
:100840007A6942F27053C2F200031A6042F2B05366
:10085000C2F200031B6818464FF000014FF000027F
:100860004FF0000303F04AFFD7F8D83003F102033A
:10087000C7F8D8303B89A3F102033B8104E03B89F0
:1008800003F1FF333B8100BF3B89002B7FF408AEAF
:1008900000BF03E04FF0010387F8DF3097F8DF3047
:1008A000184607F1E007BD4680BD00BF80B485B0A3
:1008B00000AFF86079813A81FB714FF0010318466F
:1008C00007F11407BD4680BC704700BF80B483B0F9
:1008D00000AF786013460A467A803B804FF00103F0
:1008E000184607F10C07BD4680BC704790B587B02D
:1008F00002AF7860F970BA707B704FF00003FB7341
:100900007B684FF0020283F83620BB78002B05D0BD
:10091000BB78002B02D0BB78F72B03D94FF0020332
:10092000FB7364E07B68BA7883F83420FB78002B93
:1009300041D17A6843F67523C0F60003D3607A6824
:1009400043F6AD23C0F6000313617A6843F66D33B6
:10095000C0F6000393617A6843F6DD23C0F6000316
:1009600053617B684FF00002DA617A6843F65543C1
:10097000C0F6000313627A6843F62553C0F60003FD
:1009800053627A6843F6D553C0F6000393627B68DE
:1009900003F138007B6803F150017B6893F8342041
:1009A0007B783C6A009497F82440019403F01EF889
:1009B0000346FB7302E04FF00203FB73FB7B002B4B
:1009C00015D17B6803F16403184600F083FA0346EF
:1009D000002B03D14FF00303FB7308E07B68FA7828
:1009E00083F835207B684FF0010283F83620FB7BCB
:1009F000184607F11407BD4690BD00BF80B584B00E
:100A000000AF78604FF00003FB737B6893F83630DB
:100A1000012B11D17B68DB687A6802F168007A6883
:100A200002F138017A6802F1500298477B684FF072
:100A3000000283F8362002E04FF00603FB73FB7BD5
:100A4000184607F11007BD4680BD00BFB0B586B09F
:100A500002AF78604FF00003FB727B6893F836308A
:100A6000002B02D04FF00603CAE07B6803F164025A
:100A700007F10A031046194600F052FA0346012B0B
:100A800040F0BC80BB7A032B00F2B88001A252F880
:100A900023F000BFFD0B0008A50A0008F50A0008B6
:100AA000FD0B00087B685C697B6803F168007B686C
:100AB00003F104017A687B6803F10603A04703464B
:100AC000FB72FB7A002B40F094807B681A797B687C
:100AD00093F834309A4204D07B681B79002B40F0A5
:100AE0008A807B6803F1640318464FF0020100F02E
:100AF00001FA83E07B681B681A787B685A717B680F
:100B00004FF001021A724FF00003FB602DE040F23B
:100B10000803C2F20003FA6813F83230002B28D021
:100B200040F20803C2F20003FA6813F832207B682F
:100B30005B799A4215D140F20802C2F20002FB68CA
:100B40004FEAC303D3185B687A6811687A6802F1C8
:100B5000060208461146984703461A467B681A72F1
:100B600008E0FB6803F10103FB60FB680F2BCEDD9F
:100B700000E000BF7B681B79002B3ED07B681B7AAE
:100B8000002B22D07B684FF00002DA807B68196866
:100B90007B68DB881A468A187968497961F07F0199
:100BA000C9B2117003F101039AB27B68DA807B68E5
:100BB00019687B68DB881A468A187968097A117087
:100BC00003F101039AB27B68DA807B689C697B68D9
:100BD00003F168007B6803F138017B6893F83420E7
:100BE0007B681B687D68ED880095A0470346FB7213
:100BF00004E000BF02E000BF00E000BF4FF00003D0
:100C0000184607F11007BD46B0BD00BF80B586B0DD
:100C100004AF42F29C30C2F2000004F0D7FA42F274
:100C20009C30C2F2000002F07FFD42F22820C2F2A6
:100C3000000004F0BBFC42F22820C2F2000002F0E7
:100C400097FE4FF4614300934FF00003019342F28B
:100C50009C30C2F200004FF000014FF00A024FF04A
:100C60000003FFF743FE0346FB714FF4614300931B
:100C70004FF00003019342F22820C2F200004FF02F
:100C800000014FF00A024FF00003FFF72FFE03466A
:100C9000FB714FF0010300934FF0000301934FF0FD
:100CA000000302934FF00003039340F60550C0F693
:100CB000000049F25021C0F600014FF400724FF0DD
:100CC000000301F093F94FF0010300934FF000038C
:100CD00001934FF0000302934FF00003039340F69B
:100CE0005550C0F6000049F26021C0F600014FF4F3
:100CF00000724FF0000301F079F907F10807BD46D3
:100D000080BD00BF80B582B000AF786042F29C30F9
:100D1000C2F20000FFF772FE42F21053C2F200036B
:100D20004FF000021A7142F29C30C2F20000FFF74D
:100D30008DFE4FF00A0001F035FA42F21053C2F274
:100D400000031B6803F1010242F21053C2F20003D8
:100D50001A60E8E780B582B000AF786042F22820E0
:100D6000C2F20000FFF74AFE42F21053C2F2000343
:100D70004FF000021A7142F22820C2F20000FFF781
:100D800065FE4FF00A0001F00DFA42F21053C2F274
:100D900000031B6803F1010242F21053C2F2000388
:100DA0001A60E8E780B586B000AF786039604FF030
:100DB0000003BB753B681B88052B40F082807B6875
:100DC00003F101031B784FEA0323BB827B6803F125
:100DD00002031B781A46BB8A42EA0303BB82BB8A22
:100DE00003F10103BB827B6803F103031B784FEA25
:100DF00003237B827B6803F104031B781A467B8AFA
:100E000042EA03037B827B8A002B56D07A8A40F227
:100E1000CF739A4251D87B68FB603B684FF0000269
:100E20001A80FB684FF002021A70FB6803F101039D
:100E3000FB603B681B8803F101039AB23B681A8090
:100E40007B8A03F00703002B08D07B8A4FEAD30389
:100E50009BB2DBB203F10103FB7504E07B8A4FEA2E
:100E6000D3039BB2FB75FB68FA7D1A70FB6803F134
:100E70000103FB603B681B8803F101039AB23B68E6
:100E80001A80BA8A7B8AF86811461A46FFF71EFD57
:100E90000346FB72FB7A002B06D0FB7A184600F063
:100EA000EDFA0346BB750FE03B681A88FB7D9BB2E9
:100EB000D3189AB23B681A8006E04FF00303BB7563
:100EC00002E04FF00303BB75BB7D184607F118071E
:100ED000BD4680BD80B483B000AF78607B684FF0C2
:100EE00000025A704FF00103184607F10C07BD4687
:100EF00080BC704780B483B000AF78600B46FB7055
:100F00007B684FF001025A707B68FA781A704FF0D4
:100F10000103184607F10C07BD4680BC704700BFAF
:100F200080B485B000AF786039604FF00003FB7388
:100F30007B685B78002B0AD07B681A783B681A7054
:100F40007B684FF000025A704FF00103FB73FB7B8C
:100F5000184607F11407BD4680BC704780B582B0C3
:100F600000AF786039607B6803F1010240F2D8037A
:100F7000C2F200031B88104640F2B801C2F2000121
:100F80001A4608F063F840F2D803C2F200031B8847
:100F900003F101039AB23B681A804FF00003184630
:100FA00007F10807BD4680BD80B58AB000AF786004
:100FB00039604FF000037B624FF000033B624FF05B
:100FC0000003FB614FF00003BB617B681B8A9BB28F
:100FD0007B627B6A23F440537B623B68DB887A6ADE
:100FE00042EA03037B627B6A9AB27B681A827B685F
:100FF0009B899BB27B627B6A23F4B05323F00C0382
:101000007B623B689A883B681B8942EA03039AB279
:101010003B685B8942EA03039BB27A6A42EA0303B4
:101020007B627B6A9AB27B689A817B689B8A9BB25F
:101030007B627B6A23F440737B623B689B897A6A9C
:1010400042EA03037B627B6A9AB27B689A8207F169
:101050000803184600F00AFD7A684FF48053C4F282
:1010600001039A4206D07A684FF4A053C4F20103F8
:101070009A4202D17B693B6201E03B693B627B683B
:101080009B899BB29BB21BB2002B0FDA3A6A1346C4
:101090004FEA83039B184FEA83029A183B681B6848
:1010A0004FEA4303B2FBF3F3FB610EE03A6A1346E7
:1010B0004FEA83039B184FEA83029A183B681B6828
:1010C0004FEA8303B2FBF3F3FB61FA6948F21F5363
:1010D000C5F2EB13A3FB02134FEA53134FEA0313BA
:1010E0007B627B6A4FEA13134FF0640202FB03F347
:1010F000FA69D31ABB617B689B899BB29BB21BB216
:10110000002B13DABB694FEAC30303F1320248F242
:101110001F53C5F2EB13A3FB02134FEA531303F063
:1011200007037A6A42EA03037B6212E0BB694FEA73
:10113000031303F1320248F21F53C5F2EB13A3FB72
:1011400002134FEA531303F00F037A6A42EA0303D0
:101150007B627B6A9AB27B681A8107F12807BD46D9
:1011600080BD00BF80B483B000AF78600B46FB70D9
:10117000FB78002B08D07B689B899BB243F400531B
:101180009AB27B689A8107E07B689B899BB223F4C3
:1011900000539AB27B689A8107F10C07BD4680BC68
:1011A000704700BF80B483B000AF78600B467B808F
:1011B0007B884FEAC3534FEAD3539AB27B689A8035
:1011C00007F10C07BD4680BC704700BF80B483B0F8
:1011D00000AF78607B689B889BB24FEAC3534FEAAD
:1011E000D3539BB2184607F10C07BD4680BC70472D
:1011F00080B487B000AF786013460A467A807B706F
:101200004FF000033B614FF00003FB604FF0000321
:10121000BB604FF000037B617B687B617B88DBB246
:101220004FEA5313DBB23B617B8803F01F03FB6083
:10123000FB684FF0010202FA03F3BB603B69012B2C
:1012400004D17B6903F10C037B610BE03B69022B4A
:1012500004D17B6903F110037B6103E07B6903F137
:1012600014037B617B78002B07D07B697A69116856
:10127000BA6841EA02021A6008E07B697A6911687B
:10128000BA686FEA020201EA02021A6007F11C075B
:10129000BD4680BC704700BF80B485B000AF7860A9
:1012A0000B467B804FF00003FB737B681B889AB270
:1012B0007B8802EA03039BB2002B03D04FF00103AB
:1012C000FB7302E04FF00003FB73FB7B184607F152
:1012D0001407BD4680BC704780B483B000AF78600F
:1012E0000B467B807B886FEA03039AB27B681A8087
:1012F00007F10C07BD4680BC704700BF80B487B0C3
:1013000000AF78600B467B804FF00003FB604FF02E
:1013100000037B614FF00003BB604FF00003FB74E0
:101320007B88DBB24FEA5313DBB2BB607B8803F0F0
:101330001F037B617B694FF0010202FA03F37B61BB
:10134000BB68012B07D17B689B899BB27A6902EA53
:1013500003037B6111E0BB68022B07D17B681B8A0A
:101360009BB27A6902EA03037B6106E07B689B8A91
:101370009BB27A6902EA03037B617B884FEA1323FD
:101380009BB2FB60FB684FF0010202FA03F3FB60C3
:101390007B681B889BB2FA6802EA0303FB607B69E7
:1013A000002B06D0FB68002B03D04FF00103FB7429
:1013B00002E04FF00003FB74FB7C184607F11C07AA
:1013C000BD4680BC704700BF80B483B000AF034609
:1013D000FB714FF02003C4F20E23FA791A6007F173
:1013E0000C07BD4680BC704780B586B000AF4FF09B
:1013F00000037B614FF000033B614FF080504FF0E2
:10140000010100F099FC4FF00100FFF7DDFF4FF004
:10141000010000F0FDFA00BF4FF0410000F016FDA2
:101420000346002BF8D04FF4807000F009FC4FF019
:10143000FF033B614FF07F037B614FF0010000F041
:101440003DFC05F083FF4FF0000043F2F22106F06F
:10145000C7F907F10403184605F006FF7B69BB6076
:101460003B69FB604FF000037B6007F10403184603
:1014700005F096FE07F11807BD4680BD80B485B023
:1014800000AF0346FB71FB79012B07D0072B09D076
:10149000002B0BD14FF00003FB730BE04FF0020366
:1014A000FB7307E04FF00603FB7303E04FF0040308
:1014B000FB7300BFFB7B184607F11407BD4680BCD9
:1014C000704700BF80B582B000AF49F20453C0F648
:1014D00000037B6040F20003C2F200033B600BE0BC
:1014E0007B681A683B681A603B6803F104033B6041
:1014F0007B6803F104037B603A6840F2B803C2F2F0
:1015000000039A42ECD3074807494FF00002884293
:10151000B8BF40F8042BFADB00F012FA07F1080715
:10152000BD4680BDB8000020B425002080B400AFC7
:10153000FEE700BF80B584B000AF786039604FF03F
:101540000003FB733B681B88052B2BD17B6803F1E1
:1015500001031B784FEA0323BB817B6803F102037D
:101560001B781A46BB8942EA0303BB81BB8903F19E
:101570000103BB817B6803F10302BB891046194656
:101580004FF001024FF00103FEF7EEFE0346FB723F
:10159000FB7A002B09D0FB7A1846FFF76FFF034652
:1015A000FB7302E04FF00303FB73FB7B184607F16C
:1015B0001007BD4680BD00BF80B584B000AF786025
:1015C00039604FF00003FB733B681B88052B57D92C
:1015D0007B6803F101031B784FEA0323BB817B681F
:1015E00003F102031B781A46BB8942EA0303BB815D
:1015F000BB8903F10103BB817B6803F103031B7803
:101600004FEA03237B817B6803F104031B781A46AE
:101610007B8942EA03037B817B6803F105031B7826
:101620007B727B89002B27D07B89782B24D87B8900
:10163000DBB24FEA4303DBB27A7A9A421CD17B6871
:1016400003F10601BA897B89084611461A464FF014
:101650000103FEF789FE03463B723B7A002B06D05E
:101660003B7A1846FFF70AFF0346FB730BE03B6823
:101670004FF005021A8006E04FF00303FB7302E00F
:101680004FF00303FB73FB7B184607F11007BD46C1
:1016900080BD00BF80B586B000AF786039604FF084
:1016A0000003FB753B681B88052B70D17B6803F139
:1016B00001031B784FEA0323BB827B6803F102031B
:1016C0001B781A46BB8A42EA0303BB82BB8A03F13A
:1016D0000103BB827B6803F103031B784FEA0323FA
:1016E0007B827B6803F104031B787B827B8A002B5F
:1016F00049D07B8A7D2B46D87B68FB603B684FF0E6
:1017000000021A80FB684FF003021A70FB6803F1B5
:101710000103FB603B681B8803F101039AB23B683D
:101720001A807B8ADBB24FEA4303DAB2FB681A7095
:10173000FB6803F10103FB603B681B8803F10103B5
:101740009AB23B681A80BA8A7B8AF86811461A46B0
:101750004FF00003FEF708FE0346FB72FB7A002BF6
:1017600006D0FB7A1846FFF789FE0346FB7511E0A9
:101770003B681A887B8A4FEA43039BB2D3189AB21C
:101780003B681A8006E04FF00303FB7502E04FF060
:101790000303FB75FB7D184607F11807BD4680BDA6
:1017A00080B586B000AF786039604FF00003FB75FC
:1017B0003B681B88092B40F2BC807B6803F1010366
:1017C0001B784FEA0323BB827B6803F102031B787B
:1017D0001A46BB8A42EA0303BB82BB8A03F10103B8
:1017E000BB827B6803F103031B784FEA03237B82F0
:1017F0007B6803F104031B781A467B8A42EA0303E1
:101800007B827B6803F105031B784FEA03233B824D
:101810007B6803F106031B781A463B8A42EA0303FE
:101820003B823B8A03F101033B827B6803F10703A0
:101830001B784FEA0323FB817B6803F108031B78C5
:101840001A46FB8942EA0303FB817B6803F1090323
:101850001B787B737B8A002B68D07B8A7D2B65D8B5
:10186000FB89002B62D0FB89792B5FD8FB894FEA7B
:1018700043027B7B9A4259D17B6803F10A013A8A81
:10188000FB89084611461A464FF00103FEF76CFD2E
:101890000346BB75BB7D002B3ED17B68BB603B68BC
:1018A0004FF000021A80BB684FF017021A70BB6835
:1018B00003F10103BB603B681B8803F101039AB28B
:1018C0003B681A807B8ADBB24FEA4303DAB2BB681B
:1018D0001A70BB6803F10103BB603B681B8803F10E
:1018E00001039AB23B681A80BA8A7B8AB8681146AB
:1018F0001A464FF00003FEF737FD0346BB75BB7D6C
:10190000002B09D13B681A887B8A4FEA43039BB2BC
:10191000D3189AB23B681A80BB7D002B09D0BB7DDF
:101920001846FFF7ABFD0346FB7502E04FF00303DB
:10193000FB75FB7D184607F11807BD4680BD00BF4B
:1019400080B500AF02F032FB06F0E0F800F07CFC5E
:10195000FEE700BF80B400AFFEE700BF80B483B0F5
:1019600000AF78603960FEE780B582B000AF06F066
:101970008BF803467B607B6807F10807BD4680BD96
:1019800080B485B000AF78600B467B804FF0FF03DA
:10199000FB734FF0FF03BB731DE07B681A78BB7BC2
:1019A00082EA0303DBB2BB607B6803F101037B6067
:1019B00049F27023C0F60003BA689B181A78FB7BC3
:1019C00082EA0303BB7349F27033C0F60003BA68BE
:1019D0009B181B78FB737B88002B0CBF0023012313
:1019E000DBB27A8802F1FF327A80002BD5D1FB7B03
:1019F0004FEA03239AB2BB7B9BB242EA03039BB23A
:101A00009BB2184607F11407BD4680BC704700BF63
:101A100080B483B000AF0346FB7143F67003C4F299
:101A200002034FF000021A7043F67003C4F202037F
:101A30004FF000021A70FB79012B02D0042B08D062
:101A40000FE043F67003C4F202034FF001021A7074
:101A500007E043F67003C4F202034FF005021A7068
:101A600000BF07F10C07BD4680BC704780B489B049
:101A700000AF78604FF00003BB614FF000037B6163
:101A80004FF00003FB614FF002033B614FF0000396
:101A9000FB604FF00203BB604FF46053C4F20203DB
:101AA0009B6803F00C03BB61BB69042B0AD0082BB5
:101AB0000FD0002B64D17A684FF41053C0F2F403B6
:101AC000136064E07A684FF49053C0F27A031360B5
:101AD0005DE04FF46053C4F202035B6803F48003DB
:101AE0004FEA9353FB604FF46053C4F202035B6808
:101AF00003F03F03BB60FB68002B16D04FF49053FC
:101B0000C0F27A03BA68B3FBF2F24FF46053C4F246
:101B100002035B68194647F6C07301EA03034FEA04
:101B2000931303FB02F3FB6115E04FF41053C0F273
:101B3000F403BA68B3FBF2F24FF46053C4F2020349
:101B40005B68194647F6C07301EA03034FEA931333
:101B500003FB02F3FB614FF46053C4F202035B68C2
:101B600003F440334FEA134303F101034FEA430305
:101B70003B61FA693B69B2FBF3F27B681A6006E0ED
:101B80007A684FF41053C0F2F403136000BF4FF4AF
:101B90006053C4F202039B6803F0F003BB61BB69AE
:101BA0004FEA1313BB6140F28803C2F20003BA6923
:101BB0009B181B78DBB27B617B681A687B6922FA11
:101BC00003F27B685A604FF46053C4F202039B68CF
:101BD00003F4E053BB61BB694FEA9323BB6140F25E
:101BE0008803C2F20003BA699B181B78DBB27B61E1
:101BF0007B685A687B6922FA03F27B689A604FF42B
:101C00006053C4F202039B6803F46043BB61BB6989
:101C10004FEA5333BB6140F28803C2F20003BA6952
:101C20009B181B78DBB27B617B685A687B6922FA60
:101C300003F27B68DA6007F12407BD4680BC704779
:101C400080B485B000AF78604FF00003FB607B6824
:101C500003F44073B3F5407F18D14FF46053C4F2DE
:101C600002039B68FB60FB6823F4F813FB607B684E
:101C700023F0704323F44073FA6842EA0303FB60E5
:101C80004FF46053C4F20203FA689A604FF4605351
:101C9000C4F202034FF46052C4F20202126F114602
:101CA0007A684FEA02524FEA125241EA02021A6778
:101CB00007F11407BD4680BC704700BF80B483B0F5
:101CC00000AF0346FB7140F63C63C4F24723FA7948
:101CD0001A6007F10C07BD4680BC704780B483B022
:101CE00000AF78600B46FB70FB78002B0ED04FF4F2
:101CF0006053C4F202034FF46052C4F20202126B4A
:101D000011467A6841EA02021A630FE04FF4605309
:101D1000C4F202034FF46052C4F20202126B114685
:101D20007A686FEA020201EA02021A6307F10C07FD
:101D3000BD4680BC704700BF80B483B000AF786000
:101D40000B46FB70FB78002B0ED04FF46053C4F2AF
:101D500002034FF46052C4F20202126C11467A6818
:101D600041EA02021A640FE04FF46053C4F2020326
:101D70004FF46052C4F20202126C11467A686FEAA4
:101D8000020201EA02021A6407F10C07BD4680BC98
:101D9000704700BF80B483B000AF78600B46FB7023
:101DA000FB78002B0ED04FF46053C4F202034FF4C3
:101DB0006052C4F20202526C11467A6841EA020291
:101DC0005A640FE04FF46053C4F202034FF46052C0
:101DD000C4F20202526C11467A686FEA020201EA0A
:101DE00002025A6407F10C07BD4680BC704700BF71
:101DF00080B483B000AF78600B46FB70FB78002B9B
:101E00000ED04FF46053C4F202034FF46052C4F298
:101E10000202126A11467A6841EA02021A620FE06F
:101E20004FF46053C4F202034FF46052C4F2020252
:101E3000126A11467A686FEA020201EA02021A6225
:101E400007F10C07BD4680BC704700BF80B487B067
:101E500000AF0346FB714FF00003FB604FF000033F
:101E60007B614FF00003FB74FB794FEA5313DBB245
:101E7000FB60FB68012B06D14FF46053C4F20203F0
:101E80001B687B610FE0FB68022B06D14FF46053A7
:101E9000C4F202031B6F7B6105E04FF46053C4F290
:101EA00002035B6F7B61FB7903F01F03FB60FB6840
:101EB0007A6922FA03F303F00103DBB2002B03D0AB
:101EC0004FF00103FB7402E04FF00003FB74FB7C56
:101ED000184607F11C07BD4680BC704780B586B028
:101EE00000AF786039604FF00003FB753B681B88DA
:101EF000052B72D17B6803F101031B784FEA0323A2
:101F0000BB827B6803F102031B781A46BB8A42EA54
:101F10000303BB82BB8A03F10103BB827B6803F12D
:101F200003031B784FEA03237B827B6803F10403DE
:101F30001B781A467B8A42EA03037B827B8A002B4A
:101F400047D07B8A7C2B44D87B68FB603B684FF092
:101F500000021A80FB684FF004021A70FB6803F15C
:101F60000103FB603B681B8803F101039AB23B68E5
:101F70001A807B8ADBB24FEA4303DAB2FB681A703D
:101F8000FB6803F10103FB603B681B8803F101035D
:101F90009AB23B681A80BA8A7B8AF86811461A4658
:101FA000FEF7FEF80346FB72FB7A002B06D0FB7AA5
:101FB0001846FFF763FA0346FB7511E03B681A8881
:101FC0007B8A4FEA43039BB2D3189AB23B681A80CC
:101FD00006E04FF00303FB7502E04FF00303FB75CF
:101FE000FB7D184607F11807BD4680BD80B58AB055
:101FF00002AFF860B9603B601346FB80FB68002BC2
:1020000002D102F0EBF9FEE7BB6A042B02D902F021
:10201000E5F9FEE7FB881846396B00F069FEB86108
:10202000BB69002B00F09F80BB691A6BFB8803F132
:10203000FF334FEA8303D3187B617B6923F00703E7
:102040007B617B6903F00703002B02D002F0C6F925
:10205000FEE7FB880093B869B968BA6A7B6B00F049
:1020600005FD7869F9683A6802F072F803461A4685
:10207000BB691A60FB6A002B02D0FB6ABA691A605E
:1020800002F060F940F2B413C2F200031B6803F1DE
:10209000010240F2B413C2F200031A6040F2DC0302
:1020A000C2F200031B68002B0FD140F2DC03C2F226
:1020B0000003BA691A6040F2B413C2F200031B684D
:1020C000012B18D100F030FD15E040F2C013C2F230
:1020D00000031B68002B0ED140F2DC03C2F20003A8
:1020E0001B68DA6ABB6A9A4205D840F2DC03C2F286
:1020F0000003BA691A6040F2D013C2F200031B68F1
:1021000003F1010240F2D013C2F200031A60BB696E
:10211000DB6A4FF0010202FA03F240F2BC13C2F292
:1021200000031B681A4340F2BC13C2F200031A609A
:10213000BB69DA6A13464FEA83039B184FEA8303AD
:102140001A4640F2E003C2F20003D218BB6903F161
:1021500004031046194601F09FFE4FF00103FB6196
:1021600002F018F902E04FF0FF33FB61FB69012B2D
:1021700011D140F2C013C2F200031B68002B0AD039
:1021800040F2DC03C2F200031B68DA6ABB6A9A42BF
:1021900001D202F0C7F8FB69184607F12007BD46D7
:1021A00080BD00BF80B584B000AF78604FF0000301
:1021B000FB607B68002B3DD040F2D413C2F20003D9
:1021C0001B68002B02D002F009F9FEE700F07AF854
:1021D00040F2B813C2F200031A687B68D318BB60E0
:1021E00040F2DC03C2F200031B6803F1040318464B
:1021F00001F0B0FE0346002B16D140F2DC03C2F220
:1022000000031B68DB6A4FF0010202FA03F36FEA76
:10221000030240F2BC13C2F200031B681A4040F2F2
:10222000BC13C2F200031A60B86800F01BFD00F096
:102230005BF8F860FB68002B01D102F073F807F13E
:102240001007BD4680BD00BF80B586B004AF4FF01B
:10225000000300934FF0000301934FF0000302933B
:102260004FF00003039342F64920C0F6000049F204
:102270007041C0F600014FF046024FF00003FFF737
:10228000B5FE78607B68012B12D102F0A7F840F20E
:10229000C013C2F200034FF001021A6040F2B813FB
:1022A000C2F200034FF000021A6001F0B5FF05E032
:1022B0007B68002B02D102F091F8FEE707F10807D6
:1022C000BD4680BD80B400AF40F2D413C2F200031B
:1022D0001B6803F1010240F2D413C2F200031A603A
:1022E000BD4680BC704700BF80B582B000AF4FF0E4
:1022F00000037B6040F2D413C2F200031B68002B82
:1023000002D102F06BF8FEE702F01CF840F2D413A1
:10231000C2F200031B6803F1FF3240F2D413C2F291
:1023200000031A6040F2D413C2F200031B68002BB2
:1023300040F08D8040F2B413C2F200031B68002B02
:1023400000F0858049E040F27413C2F20003DB68BC
:10235000DB683B603B6803F11803184601F0FAFDA7
:102360003B6803F10403184601F0F4FD3B68DB6AA7
:102370004FF0010202FA03F240F2BC13C2F2000372
:102380001B681A4340F2BC13C2F200031A603B6898
:10239000DA6A13464FEA83039B184FEA83031A460F
:1023A00040F2E003C2F20003D2183B6803F10403D9
:1023B0001046194601F070FD3B68DA6A40F2DC0312
:1023C000C2F200031B68DB6A9A4206D340F2C813CC
:1023D000C2F200034FF001021A6040F27413C2F21D
:1023E00000031B68002BAED140F2C413C2F20003FD
:1023F0001B68002B1FD017E000F032F80346002BBB
:1024000006D040F2C813C2F200034FF001021A6076
:1024100040F2C413C2F200031B6803F1FF3240F222
:10242000C413C2F200031A6040F2C413C2F20003E4
:102430001B68002BE0D140F2C813C2F200031B68F6
:10244000012B04D14FF001037B6001F06BFF01F021
:10245000A1FF7B68184607F10807BD4680BD00BF95
:1024600080B586B000AF4FF000037B6140F2D4131B
:10247000C2F200031B68002B40F0D88040F2B81372
:10248000C2F200031B6803F1010240F2B813C2F26A
:1024900000031A6040F2B813C2F200031B683B61EC
:1024A0003B69002B2ED140F26C13C2F200031B6873
:1024B0001B68002B02D001F091FFFEE740F26C1385
:1024C000C2F200031B68FB6040F27013C2F200030B
:1024D0001A6840F26C13C2F200031A6040F27013E3
:1024E000C2F20003FA681A6040F2CC13C2F2000391
:1024F0001B6803F1010240F2CC13C2F200031A6020
:1025000000F044FC40F29803C2F200031B683A69F1
:102510009A4272D300E000BF40F26C13C2F2000393
:102520001B681B68002B02D14FF0010301E04FF044
:102530000003002B07D040F29803C2F200034FF0D3
:10254000FF321A6059E040F26C13C2F200031B68BC
:10255000DB68DB68BB60BB685B687B603A697B6893
:102560009A4206D240F29803C2F200037A681A60D7
:1025700043E0BB6803F10403184601F0EBFCBB68C1
:102580009B6A002B05D0BB6803F11803184601F0C5
:10259000E1FCBB68DB6A4FF0010202FA03F240F291
:1025A000BC13C2F200031B681A4340F2BC13C2F210
:1025B00000031A60BB68DA6A13464FEA83039B186C
:1025C0004FEA83031A4640F2E003C2F20003D21836
:1025D000BB6803F104031046194601F05DFCBB68BB
:1025E000DA6A40F2DC03C2F200031B68DB6A9A423B
:1025F00091D34FF001037B618EE740F2DC03C2F21E
:1026000000031B68DA6A13464FEA83039B184FEAFC
:1026100083031A4640F2E003C2F20003D3181B689A
:10262000012B0FD94FF001037B610BE040F2C41383
:10263000C2F200031B6803F1010240F2C413C2F2AC
:1026400000031A6040F2C813C2F200031B68002B9B
:1026500002D04FF001037B617B69184607F1180730
:10266000BD4680BD90B585B000AF40F2D413C2F234
:1026700000031B68002B07D040F2C813C2F200030E
:102680004FF001021A608FE040F2C813C2F200035B
:102690004FF000021A6040F2DC03C2F200031B6834
:1026A0001A6840F2DC03C2F200031B681B6B9A42FB
:1026B0000FD840F2DC03C2F200031A6840F2DC03D8
:1026C000C2F200031B6803F1340310461946FFF7FA
:1026D00045F940F2DC03C2F200031B681B6B18468D
:1026E00049F27841C0F600014FF0140206F082FC76
:1026F0000346002B0FD040F2DC03C2F200031A683D
:1027000040F2DC03C2F200031B6803F134031046FD
:102710001946FFF723F940F2BC13C2F200031B680D
:102720007B607B68B3FA83F4FC70FB78C3F11F0312
:10273000FB60FA6813464FEA83039B184FEA830352
:102740001A4640F2E003C2F20003D3181B68002BC4
:1027500002D101F043FEFEE7FA6813464FEA830315
:102760009B184FEA83031A4640F2E003C2F20003CB
:10277000D318BB60BB685B685A68BB685A60BB68AB
:102780005A68BB6803F108039A4204D1BB685B68CE
:102790005A68BB685A60BB685B68DB681A4640F2DF
:1027A000DC03C2F200031A6007F11407BD4690BDB6
:1027B00080B584B000AF786039607B68002B02D1AF
:1027C00001F00CFEFEE740F2DC03C2F200031B68DE
:1027D00003F118037868194601F082FB40F2DC032C
:1027E000C2F200031B6803F10403184601F0B2FBB8
:1027F0000346002B16D140F2DC03C2F200031B6833
:10280000DB6A4FF0010202FA03F36FEA030240F2BF
:10281000BC13C2F200031B681A4040F2BC13C2F2A0
:1028200000031A603B68B3F1FF3F0ED140F2DC03B6
:10283000C2F200031B6803F1040340F2A010C2F2CD
:102840000000194601F028FB0AE040F2B813C2F27A
:1028500000031A683B68D318FB60F86800F002FABE
:1028600007F11007BD4680BD80B584B000AF786029
:102870007B68DB68DB68BB60BB68002B02D101F0C2
:10288000ADFDFEE7BB6803F11803184601F062FBDB
:1028900040F2D413C2F200031B68002B2CD1BB689A
:1028A00003F10403184601F055FBBB68DB6A4FF0E7
:1028B000010202FA03F240F2BC13C2F200031B68E9
:1028C0001A4340F2BC13C2F200031A60BB68DA6A12
:1028D00013464FEA83039B184FEA83031A4640F2DC
:1028E000E003C2F20003D218BB6803F104031046F0
:1028F000194601F0D1FA09E0BB6803F1180340F270
:102900007410C2F20000194601F0C6FABB68DA6A18
:1029100040F2DC03C2F200031B68DB6A9A420AD968
:102920004FF00103FB6040F2C813C2F200034FF006
:1029300001021A6002E04FF00003FB60FB681846DA
:1029400007F11007BD4680BD80B582B000AF78604A
:102950007B68002B02D101F041FDFEE740F2CC1371
:10296000C2F200031A687B681A6040F2B813C2F220
:1029700000031A687B685A6007F10807BD4680BDEE
:1029800080B584B000AF786039607B68002B02D1DD
:1029900001F024FDFEE73B68002B02D101F01EFD93
:1029A000FEE701F0CFFC40F2B813C2F200031B684F
:1029B000BB603B681B68B3F1FF3F03D14FF00003DE
:1029C000FB602CE07B681A6840F2CC13C2F2000373
:1029D0001B689A4208D07B685A68BB689A4203D841
:1029E0004FF00103FB601AE07B685B68BA68D21A9B
:1029F0003B681B689A420FD23B681A687B6859682B
:102A0000BB68CB1AD2183B681A607868FFF79CFF46
:102A10004FF00003FB6002E04FF00103FB6001F0A8
:102A2000B9FCFB68184607F11007BD4680BD00BF22
:102A300080B400AF40F2C813C2F200034FF00102AD
:102A40001A60BD4680BC704780B582B000AF786028
:102A500000F0BCF840F2E003C2F200031B68012B57
:102A600001D901F05FFCFEF77FFFF1E780B586B08A
:102A700000AFF860B9607A603B604FF000037B61A3
:102A800013E0BA687B69D3181A78F9687B69CB18A8
:102A900003F130031A71BA687B69D3181B78002BD5
:102AA00007D07B6903F101037B617B69092BE8D9BE
:102AB00000E000BFFB684FF0000283F83D207B6818
:102AC000042B02D94FF004037B60FB687A68DA625A
:102AD000FB687A681A64FB684FF000025A64FB686E
:102AE00003F10403184601F0C9F9FB6803F1180368
:102AF000184601F0C3F9FB68FA681A617B68C3F1F4
:102B00000502FB689A61FB68FA685A62FB684FF03D
:102B100000029A64FB684FF0000283F84C2007F132
:102B20001807BD4680BD00BF80B582B000AF4FF032
:102B300000037B6013E07A6813464FEA83039B1817
:102B40004FEA83031A4640F2E003C2F20003D318AF
:102B5000184601F06FF97B6803F101037B607B6825
:102B6000042BE8D940F24410C2F2000001F062F9EF
:102B700040F25810C2F2000001F05CF940F274100B
:102B8000C2F2000001F056F940F28810C2F20000D3
:102B900001F050F940F2A010C2F2000001F04AF931
:102BA00040F26C13C2F2000340F24412C2F200027F
:102BB0001A6040F27013C2F2000340F25812C2F2DF
:102BC00000021A6007F10807BD4680BD80B582B0DB
:102BD00000AF3CE0FFF776FB40F28813C2F200033F
:102BE0001B68002B14BF002301237B60FFF77CFBD5
:102BF0007B68002B2BD101F0A5FB40F28813C2F2B9
:102C00000003DB68DB683B603B6803F104031846A4
:102C100001F0A0F940F2B413C2F200031B6803F103
:102C2000FF3240F2B413C2F200031A6040F29C1368
:102C3000C2F200031B6803F1FF3240F29C13C2F2A0
:102C400000031A6001F0A6FB386800F08FF840F22C
:102C50009C13C2F200031B68002BBBD107F10807CD
:102C6000BD4680BD80B582B000AF786040F2DC0325
:102C7000C2F200031B687A685A6040F2B813C2F2CD
:102C800000031B687A689A4210D240F27013C2F2B5
:102C900000031A6840F2DC03C2F200031B6803F170
:102CA00004031046194601F01BF91DE040F26C13B5
:102CB000C2F200031A6840F2DC03C2F200031B6890
:102CC00003F104031046194601F00AF940F2980393
:102CD000C2F200031B687A689A4205D240F2980358
:102CE000C2F200037A681A6007F10807BD4680BD8A
:102CF00080B584B000AF03463960FB803B68002B91
:102D000007D1FB884FEA8303184604F0C7FD03464A
:102D100000E03B68BB60BB68002B10D04FF0500058
:102D200004F0BCFD0346FB60FB68002B03D0FB688E
:102D3000BA681A6306E0B86804F062FE02E04FF079
:102D40000003FB60FB68002B0AD0FB681A6BFB8852
:102D50004FEA830310464FF0A5011A4606F01EFA0B
:102D6000FB68184607F11007BD4680BD80B582B0EC
:102D700000AF78607B681B6B184604F041FE7868F2
:102D800004F03EFE07F10807BD4680BD80B483B065
:102D900000AF40F26C13C2F200031B681B68002BEB
:102DA00002D14FF0010301E04FF00003002B07D0E8
:102DB00040F29803C2F200034FF0FF321A600EE0B7
:102DC00040F26C13C2F200031B68DB68DB687B60B7
:102DD0007B685A6840F29803C2F200031A6007F158
:102DE0000C07BD4680BC704780B584B000AF7860EA
:102DF0007B68FB607B68002B00F09680FB68DA6ADA
:102E000040F2DC03C2F200031B68DB6A9A4280F0E6
:102E10008B80FB689B69002B09DB40F2DC03C2F26C
:102E200000031B68DB6AC3F10502FB689A61FB685B
:102E30005969FB68DA6A13464FEA83039B184FEA25
:102E400083031A4640F2E003C2F20003D31899420A
:102E500002D14FF0010301E04FF00003002B5BD0E3
:102E6000FB6803F10403184601F074F80346002BD5
:102E700023D1FB68DA6A13464FEA83039B184FEAB3
:102E800083031A4640F2E003C2F20003D3181B6822
:102E9000002B12D1FB68DB6A4FF0010202FA03F348
:102EA0006FEA030240F2BC13C2F200031B681A402F
:102EB00040F2BC13C2F200031A6040F2DC03C2F21B
:102EC00000031B68DA6AFB68DA62FB68DB6A4FF0B2
:102ED000010202FA03F240F2BC13C2F200031B68C3
:102EE0001A4340F2BC13C2F200031A60FB68DA6AAC
:102EF00013464FEA83039B184FEA83031A4640F2B6
:102F0000E003C2F20003D218FB6803F10403104689
:102F1000194600F0C1FF07E040F2DC03C2F20003F3
:102F20001B68DA6AFB68DA6207F11007BD4680BDEC
:102F300080B584B000AF78607B68BB604FF0000361
:102F4000FB607B68002B76D0BB685B6C002B02D1EA
:102F500001F044FAFEE7BB685B6C03F1FF32BB682B
:102F60005A64BB68DA6ABB681B6C9A4263D0BB6860
:102F70005B6C002B5FD1BB6803F10403184600F0C3
:102F8000E9FF0346002B23D1BB68DA6A13464FEAF8
:102F900083039B184FEA83031A4640F2E003C2F210
:102FA0000003D3181B68002B12D1BB68DB6A4FF0FB
:102FB000010202FA03F36FEA030240F2BC13C2F209
:102FC00000031B681A4040F2BC13C2F200031A60EF
:102FD000BB681A6CBB68DA62BB68DB6AC3F10502C6
:102FE000BB689A61BB68DB6A4FF0010202FA03F228
:102FF00040F2BC13C2F200031B681A4340F2BC1338
:10300000C2F200031A60BB68DA6A13464FEA830310
:103010009B184FEA83031A4640F2E003C2F2000312
:10302000D218BB6803F104031046194600F034FFC0
:103030004FF00103FB60FB68184607F11007BD461F
:1030400080BD00BF80B400AF40F2DC03C2F20003D9
:103050001B68002B08D040F2DC03C2F200031B689F
:103060005A6C02F101025A6440F2DC03C2F200031E
:103070001B681846BD4680BC704700BF80B586B04F
:1030800000AF4FF400104FF00101FEF755FE4FF076
:1030900002004FF00101FEF721FE4FF48060C4F200
:1030A00002004FF009014FF0040200F0FFF94FF465
:1030B0008060C4F202004FF008014FF0040200F0FB
:1030C000F5F94FF440733B614FF002033B754FF04D
:1030D00000037B754FF00103BB754FF00103FB75D7
:1030E00007F110034FF48060C4F20200194600F0AB
:1030F00011F94FF4A840C4F2000003F019F94FF0A1
:103100000003BB804BF6FF73FB804FF0A0033B81B5
:103110004FF480637B814FF48043BB814FF4D453E1
:10312000C0F206033B603B464FF4A840C4F20000E7
:10313000194603F041F94FF4A840C4F200004FF0E3
:10314000010103F015FA07F11807BD4680BD00BF65
:1031500090B587B000AFB96013460246FA81FB8094
:103160004FF00003FB8200BF4FF4A840C4F2000000
:103170004FF4003103F0F0FA0346002BF4D14FF482
:10318000A840C4F200004FF0010103F011FA00BFA3
:103190004FF4A840C4F200004FF00101C0F2030157
:1031A00003F0A2FA0346002BF2D04FF4A840C4F279
:1031B00000004FF0A0014FF0000203F039FA00BF09
:1031C0004FF4A840C4F200004FF08201C0F20701A2
:1031D00003F08AFA0346002BF2D0FB894FEA13234F
:1031E0009BB2DBB24FF4A840C4F20000194603F0D2
:1031F0005DFA00BF4FF4A840C4F200004FF0840114
:10320000C0F2070103F070FA0346002BF2D0FB89ED
:10321000DBB24FF4A840C4F20000194603F046FAAE
:1032200000BF4FF4A840C4F200004FF08401C0F288
:10323000070103F059FA0346002BF2D04FF4A840DF
:10324000C4F200004FF0010103F0B2F900BF4FF4E7
:10325000A840C4F200004FF00101C0F2030103F0E6
:1032600043FA0346002BF2D04FF4A840C4F200000A
:103270004FF0A0014FF0010203F0DAF94FF0000324
:10328000FB8233E000BF4FF4A840C4F200004FF0CF
:103290004001C0F2030103F027FA0346002BF2D0ED
:1032A000FB8ABA68D4184FF4A840C4F2000003F0B7
:1032B0000DFA03462370FA8AFB8803F1FF339A4222
:1032C00008D14FF4A840C4F200004FF0000103F011
:1032D000CDF907E04FF4A840C4F200004FF001011F
:1032E00003F0C4F9FB8A03F10103FB82FA8AFB882D
:1032F0009A42C7D34FF4A840C4F200004FF0010136
:1033000003F076F94FF00003184607F11C07BD469D
:1033100090BD00BF80B487B000AF786039604FF0D7
:1033200000037B614FF000033B614FF00003FB6043
:103330004FF000037B618FE07B694FF0010202FADE
:1033400003F33B613B681A683B6902EA0303FB60D5
:10335000FA683B699A427BD17B681B681A467B6995
:103360004FEA43034FF0030101FA03F36FEA03034B
:103370001A407B681A607B681B681A463B681B7999
:1033800019467B694FEA430301FA03F31A437B684A
:103390001A603B681B79012B03D03B681B79022B19
:1033A00038D17B689B681A467B694FEA43034FF02C
:1033B000030101FA03F36FEA03031A407B689A6082
:1033C0007B689B681A463B685B7919467B694FEAC4
:1033D000430301FA03F31A437B689A607B685B68D6
:1033E0001A467B699BB24FF0010101FA03F36FEAC1
:1033F00003031A407B685A607B685B681A463B6827
:103400009B7919467B699BB201FA03F39BB21A437D
:103410007B685A607B68DB681A467B699BB24FEA1F
:1034200043034FF0030101FA03F36FEA03031A4069
:103430007B68DA607B68DB681A463B68DB79194693
:103440007B694FEA430301FA03F31A437B68DA60AE
:103450007B6903F101037B617B690F2B7FF66CAF06
:1034600007F11C07BD4680BC704700BF80B485B023
:1034700000AF78600B467B804FF00003FB737B68E6
:103480001B691A467B8802EA0303002B03D04FF026
:103490000103FB7302E04FF00003FB73FB7B184654
:1034A00007F11407BD4680BC704700BF80B485B0EB
:1034B00000AF786013460A467A807B704FF00003B5
:1034C000FB604FF00003BB607A787B8803F0070352
:1034D0004FEA830302FA03F3FB607B884FEAD303CE
:1034E0009BB21A467B884FEAD3039BB219467B688E
:1034F00001F1080153F8213019467B8803F00703D6
:103500004FEA83034FF00F0000FA03F36FEA03035F
:1035100019407B6802F1080243F822107B884FEAC9
:10352000D3039BB21A467B6802F1080253F822309B
:103530001A46FB6842EA0303BB607B884FEAD30369
:103540009BB21A467B6802F10802B96843F8221060
:1035500007F11407BD4680BC704700BF80B588B036
:1035600000AF0346FB804FF00003FB834FF00400E5
:103570004FF00101FEF7E0FB40F29C03C2F20003B2
:103580001A6841F25973CDF2B713A3FB02134FEA45
:1035900093339BB203F1FF33FB83FB887B61FB8B8F
:1035A0003B824FF000033B834FF000037B8207F127
:1035B00010034FF40060C4F20000194604F002FB4F
:1035C0004FF40060C4F200004FF0010104F0A2FBD0
:1035D0004FF4407003F05CFD4FF01E033B734FF05F
:1035E0000E037B734FF00103BB734FF00103FB73BA
:1035F00007F10C03184603F05FFD4FF40060C4F2BE
:1036000000004FF0010104F0C9FC4FF40060C4F267
:1036100000004FF001014FF0000204F087FC4FF46E
:103620000060C4F200004FF0000104F093FB4FF083
:103630000103184607F12007BD4680BD80B500AFE5
:103640004FF40060C4F200004FF0010104F0A6FC4A
:103650004FF40060C4F200004FF001014FF001028E
:1036600004F064FC4FF40060C4F200004FF000016D
:1036700004F042FB4FF40060C4F200004FF001017F
:1036800004F068FB80BD00BF80B500AF4FF4006060
:10369000C4F200004FF0000104F05CFB4FF4006046
:1036A000C4F200004FF0000104F026FB4FF400606C
:1036B000C4F200004FF001014FF0000204F036FCAC
:1036C0004FF40060C4F200004FF0010104F066FC0A
:1036D00080BD00BF98B500AF4FF40060C4F2000099
:1036E0004FF0010104F05AFC40F2D813C2F200037B
:1036F0001B689C6A40F2D813C2F200031B6803F1F6
:10370000680140F2D813C2F200031B6803F15002B3
:1037100040F2D813C2F200031B6803F164030846A9
:1037200011461A46A04798BD80B483B000AF7860B8
:1037300040F2D813C2F200037A681A6040F2D8133C
:10374000C2F200031B684FF000021A6640F2D81361
:10375000C2F200031A6843F28963C0F60003D3651E
:1037600040F2D813C2F200031A6843F23D63C0F678
:103770000003936540F2D813C2F200031B684FF0B8
:1037800000025A6540F2D813C2F200031A6843F2ED
:103790005D53C0F60003136507F10C07BD4680BCFE
:1037A000704700BF80B588B000AF0346FB804FF084
:1037B0000003FB834FF008004FF00101FEF7BCFA55
:1037C00040F29C03C2F200031A6841F25973CDF231
:1037D000B713A3FB02134FEA93339BB203F1FF33FA
:1037E000FB83FB887B61FB8B3B824FF000033B83B9
:1037F0004FF000037B8207F110034FF44060C4F2E6
:103800000000194604F0DEF94FF44060C4F20000F5
:103810004FF0010104F07EFA4FF4407003F038FCE1
:103820004FF032033B734FF00E037B734FF00103F5
:10383000BB734FF00103FB7307F10C03184603F051
:103840003BFC4FF44060C4F200004FF0010104F073
:10385000A5FB4FF44060C4F200004FF001014FF0AF
:10386000000204F063FB4FF44060C4F200004FF02C
:10387000000104F06FFA4FF00103184607F120072A
:10388000BD4680BD80B500AF4FF44060C4F200007B
:103890004FF0010104F082FB4FF44060C4F20000DD
:1038A0004FF001014FF0010204F040FB4FF4406083
:1038B000C4F200004FF0000104F01EFA4FF4406023
:1038C000C4F200004FF0010104F044FA80BD00BFD3
:1038D00080B500AF4FF44060C4F200004FF000012B
:1038E00004F038FA4FF44060C4F200004FF00001D9
:1038F00004F002FA4FF44060C4F200004FF00101FE
:103900004FF0000204F012FB4FF44060C4F20000DC
:103910004FF0010104F042FB80BD00BF98B500AF3D
:103920004FF44060C4F200004FF0010104F036FB98
:1039300040F2DC13C2F200031B689C6A40F2DC1305
:10394000C2F200031B6803F1680140F2DC13C2F20B
:1039500000031B6803F1500240F2DC13C2F20003C3
:103960001B6803F16403084611461A46A04798BD38
:1039700080B483B000AF786040F2DC13C2F2000381
:103980007A681A6040F2DC13C2F200031B684FF041
:1039900000021A6640F2DC13C2F200031A6843F612
:1039A000D103C0F60003D36540F2DC13C2F200037A
:1039B0001A6843F68503C0F60003936540F2DC13F2
:1039C000C2F200031B684FF000025A6540F2DC139C
:1039D000C2F200031A6843F2A573C0F60003136530
:1039E00007F10C07BD4680BC704700BF90B587B09B
:1039F00000AFF860B960FA71BB714FF00003FB755E
:103A0000FCF7C2FBFB685C68BA7997F82C3010466B
:103A1000B96A4FF00802A0470346012B03D04FF0CC
:103A20000303FB751DE0BB6AB3F5964F03D94FF056
:103A300023033B6109E0BB6A4FEA430247F6A073E8
:103A4000C0F21703B3FBF2F33B61BB681B683A6932
:103A500092B2104698470346012B02D04FF0030361
:103A6000FB75FCF797FBFB7D184607F11C07BD466D
:103A700090BD00BF80B584B000AFF860B9607A60D7
:103A8000FCF782FBFB684FF000025A70BB681B68B2
:103A90004FF001004FF0000198477B689B68984702
:103AA000FCF778FB07F11007BD4680BD80B582B0FA
:103AB00000AF78603960FCF767FB7B681B684FF0EC
:103AC00000004FF0000198473B68DB689847FCF71F
:103AD00061FB07F10807BD4680BD00BF80B586B019
:103AE00000AFF860B9607A603B604FF00003BB75CF
:103AF0004FF00003FB75FCF747FBFB68B3F80A3196
:103B00009BB2032B26D9FB6803F10202FB68B3F8D2
:103B10000A319BB210461946FDF732FF0346002BCF
:103B200018D1FB689B78DAB2BB681A70FB68B3F8EF
:103B30000A319BB2A3F103039AB23B681A80FB6877
:103B400003F1020303F101027B681A604FF00103E5
:103B5000BB7502E04FF00503FB75FCF71BFBFB7D1B
:103B6000184607F11807BD4680BD00BF80B586B076
:103B700000AFF860B9603B601346FB714FF0000383
:103B8000FB75FCF701FBFB685B78DBB2012B55D1C1
:103B90003B6803F1FF32FB68C3F80421FB684FF078
:103BA0000102A3F80821FB68D3F80431FA791A70EE
:103BB000FB68B3F808319AB23B8CD3189AB2FB6811
:103BC000A3F80821FB68D3F80421FB68B3F8083197
:103BD0009BB210461946FDF7D3FE0346BB82FB6835
:103BE000B3F808319BB21A46B98AC9B2F86882188C
:103BF000917003F101039AB2FB68A3F80821FB68F6
:103C0000B3F808319BB21A46B98A4FEA112189B23A
:103C1000C9B2F8688218917003F101039AB2FB6887
:103C2000A3F80821FB684FF001021A70BB681B68FB
:103C30004FF000004FF00101984702E04FF00503FC
:103C4000FB75FCF7A7FAFB7D184607F11807BD4680
:103C500080BD00BF80B586B000AFF860B9607A6003
:103C60004FF00003FB757B68DB6807F11602104616
:103C70009847FB685B78DBB2032B4DD801A252F862
:103C800023F000BF953C0008A53C0008DD3C00087F
:103C90009D3C0008BB689B6898473DE0BB689B68FB
:103CA000984739E0FB684FF00002A3F80A21FB684F
:103CB000B3F80A319BB21A46B97DF8688218917040
:103CC00003F101039AB2FB68A3F80A21FB684FF0E5
:103CD00002025A70BB689B6898471DE0FB68B3F806
:103CE0000A319BB2FF2B0FD8FB68B3F80A319BB2A5
:103CF0001A46B97DF8688218917003F101039AB2EF
:103D0000FB68A3F80A2103E0FB684FF003025A7036
:103D1000BB689B68984700BFFB7D184607F11807F2
:103D2000BD4680BD80B586B000AFF860B9607A60EE
:103D30004FF00003FB75FB681B78DBB2002B02D051
:103D4000012B08D040E0BB681B684FF001004FF02A
:103D50000001984738E0FB68B3F808319BB2002BAC
:103D60001DD0BB689B68FA68D2F804211278D2B2E1
:103D7000D2B252B210469847FB68D3F8043103F12F
:103D80000102FB68C3F80421FB68B3F808319BB259
:103D900003F1FF339AB2FB68A3F8082114E007F19E
:103DA000040318464FF00301FDF7A4F80346FB7522
:103DB000BB681B684FF001004FF000019847FB689B
:103DC0004FF000021A7000BFFB7D184607F118077C
:103DD000BD4680BD80B586B000AFF860B9607A603E
:103DE0004FF00003FB75FB685B78DBB2022B0BD056
:103DF000032B11D0002B10D178684FF00001FDF794
:103E000079F80346FB7508E078684FF00101FDF78B
:103E100071F80346FB7500E000BFBB68DB6898479C
:103E2000FB684FF001025A70FB7D184607F1180736
:103E3000BD4680BD80B483B000AF78607B6803F17D
:103E400008031A467B685A607B684FF0FF329A601D
:103E50007B6803F108031A467B68DA607B6803F12C
:103E600008031A467B681A617B684FF000021A60EB
:103E700007F10C07BD4680BC704700BF80B483B01B
:103E800000AF78607B684FF000021A6107F10C0701
:103E9000BD4680BC704700BF80B485B000AF78607D
:103EA00039607B685B68FB603B68FA685A60FB6856
:103EB0009A683B689A60FB689B683A685A60FB683E
:103EC0003A689A603B687A681A617B681B6803F1FC
:103ED00001027B681A6007F11407BD4680BC704779
:103EE00080B485B000AF786039603B681B68BB6008
:103EF000BB68B3F1FF3F03D17B681B69FB600DE03A
:103F00007B6803F10803FB6002E0FB685B68FB6011
:103F1000FB685B681A68BB689A42F6D9FB685A6806
:103F20003B685A603B685B683A689A603B68FA682D
:103F30009A60FB683A685A603B687A681A617B68E5
:103F40001B6803F101027B681A6007F11407BD4684
:103F500080BC704780B485B000AF78607B681B6917
:103F6000FB607B685B687A6892689A607B689B6894
:103F70007A6852685A60FB685A687B689A4203D133
:103F80007B689A68FB685A607B684FF000021A6190
:103F9000FB681B6803F1FF32FB681A60FB681B6853
:103FA000184607F11407BD4680BC704780B500AFC6
:103FB0004FF46053C4F202034FF46052C4F20202A1
:103FC000126842F001021A604FF46053C4F2020317
:103FD0004FF000029A604FF46053C4F202034FF4B2
:103FE0006052C4F20202126822F0847222F480321B
:103FF0001A604FF46053C4F2020343F21002C2F29B
:1040000000425A604FF46053C4F202034FF460520E
:10401000C4F20202126822F480221A604FF4605344
:10402000C4F202034FF00002DA6000F009F84FF426
:104030006D43CEF200034FF000629A6080BD00BF76
:1040400080B483B000AF4FF000037B604FF00003FB
:104050003B604FF46053C4F202034FF46052C4F269
:104060000202126842F480321A604FF46053C4F2C4
:1040700002031B6803F400333B607B6803F1010318
:104080007B603B68002B03D17B68B3F5A06FECD15C
:104090004FF46053C4F202031B6803F40033002B97
:1040A00003D04FF001033B6002E04FF000033B60A0
:1040B0003B68012B46D14FF46053C4F202034FF426
:1040C0006052C4F2020292689A604FF46053C4F2E4
:1040D00002034FF46052C4F2020292689A604FF4F5
:1040E0006053C4F202034FF46052C4F202029268B9
:1040F0009A604FF47053C4F202034FF4E0621A6006
:104100004FF46053C4F202034FF46052C4F202024F
:10411000926822F003029A604FF46053C4F20203E3
:104120004FF46052C4F20202926842F001029A60B7
:1041300000BF4FF46053C4F202039B6803F00C030A
:10414000042BF6D107F10C07BD4680BC704700BFB9
:1041500080B485B000AFF860B9607A60FB68A3F105
:104160000403FB60FB684FF080721A60FB68A3F1E8
:104170000403FB60BA68FB681A60FB68A3F10403E0
:10418000FB6044F2B513C0F60003FA681360FB68E5
:10419000A3F11403FB607A68FB681A60FB68A3F163
:1041A0002003FB60FB68184607F11407BD4680BC7E
:1041B000704700BF80B500AF40F2B003C2F2000309
:1041C0001B68B3F1FF3F02D000F008F9FEE700F0F2
:1041D00005F9FEE7074B19680868B0E8F00F80F3AF
:1041E0000988BFF36F8F4FF0000080F311884EF005
:1041F0000D0E7047DC00002006480068006880F360
:10420000088862B661B6BFF34F8FBFF36F8F00DFD0
:1042100000BF000008ED00E080B584B000AF4FF4AF
:104220006443CEF20003FB60FB681B78DBB2BB602B
:10423000FB684FF0FF021A70FB681B78DBB2FB7162
:10424000FB79DBB203F05003DAB240F2E013C2F2C2
:1042500000031A7040F2E413C2F200034FF00702A9
:104260001A6011E040F2E413C2F200031B6803F18C
:10427000FF3240F2E413C2F200031A60FB79DBB2B2
:104280004FEA4303DBB2FB71FB79DBB2DBB25BB21B
:10429000002BE7DB40F2E413C2F200031B684FEA95
:1042A000032240F2E413C2F200031A6040F2E41366
:1042B000C2F200031B6803F4E06240F2E413C2F2AE
:1042C00000031A60BB68DAB2FB681A704EF620531E
:1042D000CEF200034EF62052CEF20002126842F4F3
:1042E00070021A604EF62053CEF200034EF62052B2
:1042F000CEF20002126842F070421A6000F0B4F888
:1043000040F2B003C2F200034FF000021A60FFF760
:1043100073FFFFF74FFF4FF00003184607F1100738
:10432000BD4680BD80B400AF4EF60453CEF200030C
:104330004FF080521A60BFF34F8FBFF36F8FBD46AF
:1043400080BC704780B500AF00F048F840F2B00381
:10435000C2F200031B6803F1010240F2B003C2F293
:1043600000031A60BFF34F8FBFF36F8F40F2B003AB
:10437000C2F200031B68012B0BD14EF60453CEF2A0
:1043800000031B6803F0FF03002B02D000F026F8A7
:10439000FEE780BD80B500AF40F2B003C2F200037B
:1043A0001B68002B02D100F019F8FEE740F2B003C1
:1043B000C2F200031B6803F1FF3240F2B003C2F205
:1043C00000031A6040F2B003C2F200031B68002B26
:1043D00003D14FF0000000F00BF880BDEFF3118027
:1043E0004FF0500181F3118870474FF000031846D9
:1043F00080F31188704700BFEFF30980BFF36F8F20
:104400000D4B1A6820E9F00F10602DE908404FF0BD
:10441000500080F31188FEF725F94FF0000080F37B
:104420001188BDE8084019680868B0E8F00F80F30B
:104430000988BFF36F8F7047DC00002080B500AFA4
:10444000FFF7CCFFFEF70CF80346002B06D04EF624
:104450000453CEF200034FF080521A604FF0000078
:10446000FFF7C6FF80BD00BF80B400AF4EF214035B
:10447000CEF2000344F61F621A604EF21003CEF231
:1044800000034FF007021A60BD4680BC704700BFB2
:1044900090B583B000AFEFF305847C607B680F2B91
:1044A00013D949F28C43C0F600031A687B68D3180D
:1044B0001B78FB7040F2E013C2F200031B78FA781D
:1044C0009A4202D2FFF78AFFFEE74EF60C53CEF275
:1044D00000031B6803F4E06240F2E413C2F200033D
:1044E0001B689A4202D9FFF779FFFEE707F10C0734
:1044F000BD4690BD80B584B000AF786039607B6800
:10450000FB60FB68002B02D1FFF768FFFEE7FFF7B7
:1045100019FFFB681A68FB68DB6BF968096C01FB23
:1045200003F3D218FB685A60FB684FF000029A63ED
:10453000FB681A68FB689A60FB681A68FB68DB6BAB
:1045400003F1FF33F968096C01FB03F3D218FB6830
:10455000DA60FB684FF0FF325A64FB684FF0FF32BD
:104560009A643B68002B0FD1FB681B69002B17D0A6
:10457000FB6803F110031846FEF776F90346012B9A
:104580000ED1FFF7CFFE0BE0FB6803F110031846D6
:10459000FFF750FCFB6803F124031846FFF74AFCC1
:1045A000FFF7F8FE4FF00103184607F11007BD466C
:1045B00080BD00BF80B588B000AFF860B960134619
:1045C000FB714FF00003BB61FB68002B02D1FFF7CA
:1045D00005FFFEE7BB68002B03D14FF00003FB6132
:1045E00006E0FB68BA6802FB03F303F10103FB6119
:1045F000FB6903F14C03184603F050F903467B6155
:104600007B69002B1AD07B693B61BB68002B03D10F
:104610003A693B691A6004E07B6903F14C023B692B
:104620001A603B69FA68DA633B69BA681A643869E8
:104630004FF00101FFF75EFF3B69BB61BB69002BD7
:1046400002D1FFF7CBFEFEE7BB69184607F1200752
:10465000BD4680BD80B584B000AF0346FB714FF00E
:104660004C0003F01BF90346FB60FB68002B38D0BD
:10467000FB684FF000025A60FB684FF000021A60BE
:10468000FB684FF000029A60FB684FF00002DA60AE
:10469000FB684FF000029A63FB684FF00102DA6397
:1046A000FB684FF000021A64FB684FF0FF325A6457
:1046B000FB684FF0FF329A64FB6803F11003184661
:1046C000FFF7B8FBFB6803F124031846FFF7B2FBC2
:1046D000F8684FF000014FF000024FF0000300F0C7
:1046E0000DF8FB68002B02D1FFF778FEFEE7FB68B0
:1046F000184607F11007BD4680BD00BF80B58AB0DF
:1047000000AFF860B9607A603B604FF000037B62F5
:10471000FB683B623B6A002B02D1FFF75FFEFEE7BE
:10472000BB68002B03D13B6A1B6C002B02D14FF0FE
:10473000010301E04FF00003002B02D1FFF74EFE12
:10474000FEE73B68022B03D13B6ADB6B012B02D1F6
:104750004FF0010301E04FF00003002B03D1FFF7FE
:104760003DFEFEE700BFFFF7EDFD3B6A9B6B1A467F
:104770003B6ADB6B9A4202D33B68022B1FD1386A3B
:10478000B9683A6800F0B0F9F8613B6A5B6A002BDF
:104790000BD03B6A03F124031846FEF765F8034685
:1047A000012B07D1FFF7BEFD04E0FB69002B01D010
:1047B000FFF7B8FDFFF7EEFD4FF001035DE07B680A
:1047C000002B04D1FFF7E6FD4FF0000355E07B6AB4
:1047D000002B07D107F114031846FEF7B5F84FF088
:1047E00001037B62FFF7D6FDFDF76CFDFFF7AAFD25
:1047F0003B6A5B6CB3F1FF3F03D13B6A4FF00002B1
:104800005A643B6A9B6CB3F1FF3F03D13B6A4FF0A4
:1048100000029A64FFF7BEFD07F1140207F10403DA
:1048200010461946FEF7ACF80346002B1ED1386A35
:1048300000F060FA0346002B12D03B6A03F110022D
:104840007B6810461946FDF7B3FF386A00F0E8F9B7
:10485000FDF74AFD0346002B84D1FFF763FD82E795
:10486000386A00F0DDF9FDF73FFD7CE7386A00F0BB
:10487000D7F9FDF739FD4FF00003184607F1280777
:10488000BD4680BD80B586B000AF786039607B687A
:104890003B613B69002B02D1FFF7A0FDFEE73B69BE
:1048A0001B6C002B02D0FFF799FDFEE7FFF7F0FD30
:1048B000FFF794FDF8603B699B6B1A463B69DB6B25
:1048C0009A4229D23B699B6B03F101023B699A63CF
:1048D0003B699B6CB3F1FF3F14D13B695B6A002BD2
:1048E00016D03B6903F124031846FDF7BDFF0346CC
:1048F000002B0DD03B68002B0AD03B684FF0010223
:104900001A6005E03B699B6C03F101023B699A6404
:104910004FF001037B6102E04FF000037B61F86818
:10492000FFF766FD7B69184607F11807BD4680BD95
:1049300080B58AB000AFF860B9607A603B604FF034
:1049400000037B62FB683B623B6A002B02D1FFF7EE
:1049500045FDFEE7BB68002B03D13B6A1B6C002BB7
:1049600002D14FF0010301E04FF00003002B03D10F
:10497000FFF734FDFEE700BFFFF7E4FC3B6A9B6BEB
:10498000002B40D03B6ADB68FB61386AB96800F0F5
:104990001FF93B68002B1FD13B6A9B6B03F1FF3271
:1049A0003B6A9A633B6A1B68002B05D1FEF74AFB02
:1049B00003461A463B6A5A603B6A1B69002B1DD0AE
:1049C0003B6A03F110031846FDF74EFF0346012B27
:1049D00014D1FFF7A7FC11E03B6AFA69DA603B6A81
:1049E0005B6A002B0AD03B6A03F124031846FDF7EB
:1049F0003BFF0346002B01D0FFF794FCFFF7CAFCF6
:104A00004FF001036BE07B68002B04D1FFF7C2FC81
:104A10004FF0000363E07B6A002B07D107F114031A
:104A20001846FDF791FF4FF001037B62FFF7B2FCE0
:104A3000FDF748FCFFF786FC3B6A5B6CB3F1FF3F78
:104A400003D13B6A4FF000025A643B6A9B6CB3F19E
:104A5000FF3F03D13B6A4FF000029A64FFF79AFCD4
:104A600007F1140207F1040310461946FDF788FF09
:104A70000346002B2CD1386A00F022F90346002BA4
:104A800020D03B6A1B68002B08D1FFF75BFC3B6A18
:104A90005B681846FEF7A8F9FFF77CFC3B6A03F158
:104AA00024027B6810461946FDF782FE386A00F042
:104AB000B7F8FDF719FC0346002B7FF45CAFFFF756
:104AC00031FC59E7386A00F0ABF8FDF70DFC53E70D
:104AD000386A00F0A5F8FDF707FC4FF00003184610
:104AE00007F12807BD4680BD80B586B000AFF860ED
:104AF000B9607A604FF000037B61FB681B6C002B90
:104B00000ED1FB681B68002B56D1FB685B6818460A
:104B1000FEF70EFA7861FB684FF000025A604BE036
:104B20007B68002B1AD1FB689A68FB681B6C1046E7
:104B3000B9681A4604F08AFAFB689A68FB681B6C2D
:104B4000D218FB689A60FB689A68FB685B689A42B7
:104B500032D3FB681A68FB689A602DE0FB68DA685C
:104B6000FB681B6C1046B9681A4604F06FFAFB68C4
:104B7000DA68FB681B6CC3F10003D218FB68DA60CB
:104B8000FB68DA68FB681B689A4208D2FB685A68BF
:104B9000FB681B6CC3F10003D218FB68DA607B680A
:104BA000022B09D1FB689B6B002B05D0FB689B6B2C
:104BB00003F1FF32FB689A63FB689B6B03F1010210
:104BC000FB689A637B69184607F11807BD4680BDEC
:104BD00080B582B000AF786039607B681B6C002BB9
:104BE00019D07B68DA687B681B6CD2187B68DA6046
:104BF0007B68DA687B685B689A4203D37B681A68D3
:104C00007B68DA607B68DA687B681B6C3868114601
:104C10001A4604F01BFA07F10807BD4680BD00BF25
:104C200080B582B000AF7860FFF78CFB14E07B6842
:104C30005B6A002B15D07B6803F124031846FDF74F
:104C400013FE0346002B01D0FDF7F2FE7B689B6C40
:104C500003F1FF327B689A647B689B6C002BE6DC77
:104C600000E000BF7B684FF0FF329A64FFF792FBD1
:104C7000FFF768FB14E07B681B69002B15D07B688D
:104C800003F110031846FDF7EFFD0346002B01D09A
:104C9000FDF7CEFE7B685B6C03F1FF327B685A64E4
:104CA0007B685B6C002BE6DC00E000BF7B684FF0AC
:104CB000FF325A64FFF76EFB07F10807BD4680BD5F
:104CC00080B584B000AF7860FFF73CFB7B689B6BDE
:104CD000002B03D14FF00103FB6002E04FF0000313
:104CE000FB60FFF757FBFB68184607F11007BD464E
:104CF00080BD00BF80B584B000AF7860FFF722FBB5
:104D00007B689B6B1A467B68DB6B9A4203D14FF042
:104D10000103FB6002E04FF00003FB60FFF73AFB8A
:104D2000FB68184607F11007BD4680BD80B483B00C
:104D300000AF0346FB714FF46143CEF2000397F9D5
:104D400007204FEA5212F97901F01F014FF00100DC
:104D500000FA01F143F8221007F10C07BD4680BCB0
:104D6000704700BF90B583B000AF02460B46FA71A2
:104D7000BB71FB79012B26D14FF49040C4F20000A7
:104D800040F225514FF00102FCF732FA4FF48063F4
:104D9000C4F202034FF48062C4F20202528B92B258
:104DA00042F0020292B25A834FF48063C4F20203CB
:104DB0004FF48062C4F20202528B92B242F00402BB
:104DC00092B25A8325E04FF49040C4F2000040F2C2
:104DD00025514FF00002FCF70BFA4FF48063C4F248
:104DE00002034FF48062C4F20202128B92B242F0CC
:104DF000020292B21A834FF48063C4F202034FF4AA
:104E00008062C4F20202128B92B242F0040292B2A9
:104E10001A83BB79012B45D14FF49040C4F20000B6
:104E200040F226614FF00102FCF7E2F94FF4806393
:104E3000C4F202034FF48062C4F20202128B92B2F7
:104E400042F0020292B21A834FF48063C4F202036A
:104E50004FF48062C4F20202128B92B242F004025A
:104E600092B21A8340F2E813C2F200031B685C6A34
:104E700040F2E813C2F200031B6803F1680140F23C
:104E8000E813C2F200031B6803F1380240F2E81392
:104E9000C2F200031B6803F16403084611461A4678
:104EA000A04725E04FF49040C4F2000040F2266194
:104EB0004FF00002FCF79CF94FF48063C4F2020348
:104EC0004FF48062C4F20202528B92B242F00202AC
:104ED00092B25A834FF48063C4F202034FF48062AB
:104EE000C4F20202528B92B242F0040292B25A838E
:104EF00007F10C07BD4690BD80B58CB000AFB9601E
:104F00000146F973FA71BB714FF480204FF0010133
:104F1000FCF712FF4FF002004FF00101FCF7DEFE3C
:104F20004FF44063BB624FF0020387F82C304FF020
:104F3000020387F82D304FF0000387F82E304FF032
:104F4000010387F82F3007F128034FF48060C4F283
:104F500002001946FEF7DEF94FF48060C4F2020049
:104F60004FF00A014FF00702FEF7A0FA4FF48060FD
:104F7000C4F202004FF00B014FF00702FEF796FA61
:104F8000BB68BB614FF00003BB834FF00003FB83A2
:104F90004FF000033B844FF00003BB844FF00C0341
:104FA0007B8407F118034FF49040C4F200001946C7
:104FB000FBF7FAFF4FF49043C4F200034FF4AE72D4
:104FC0001A814FF00603BB624FF0010387F82C30C3
:104FD0004FF0000387F82E304FF0000387F82F3092
:104FE0004FF0020387F82D3007F128034FF480605B
:104FF000C4F202001946FEF78DF94FF49040C4F256
:1050000000004FF0A001FCF767F94FF49040C4F2A4
:1050100000004FF00101FCF7A5F84FF4407002F0DA
:1050200037F84FF027033B754FF00E037B754FF0B9
:105030000003BB754FF00103FB7507F1140318461D
:1050400002F03AF84FF02700FFF770FE40F2E81345
:10505000C2F200031B689B6B4FF001004FF0000190
:1050600098474FF00103184607F13007BD4680BD51
:1050700080B582B000AF0346FB7197F907309BB251
:105080004FF49040C4F200001946FCF78BF800BFC3
:105090004FF49040C4F200004FF08001FCF7FCF8A0
:1050A0000346002BF4D04FF00103184607F1080720
:1050B000BD4680BD80B582B000AF78604FF49040AF
:1050C000C4F2000040F22551FCF706F94FF490407D
:1050D000C4F20000FCF77AF80346DAB27B681A7073
:1050E0004FF00103184607F10807BD4680BD00BF19
:1050F00098B500AF40F2F413C2F200034FF0000283
:105100001A604FF49040C4F2000040F22661FCF7B0
:10511000F5F80346002B1FD040F2E813C2F200035B
:105120001B685C6A40F2E813C2F200031B6803F1DB
:10513000680140F2E813C2F200031B6803F1380271
:1051400040F2E813C2F200031B6803F1640308464F
:1051500011461A46A04729E04FF49040C4F20000DF
:1051600040F22551FCF7CAF80346002B1ED040F24E
:10517000E813C2F200031B681C6A40F2E813C2F293
:1051800000031B6803F1680140F2E813C2F2000358
:105190001B6803F1500240F2E813C2F200031B68DF
:1051A00003F13803084611461A46A04740F2F413AB
:1051B000C2F200031B68002B06D04EF60453CEF259
:1051C00000034FF080521A6098BD00BF80B483B0D6
:1051D00000AF786040F2E813C2F200037A681A6008
:1051E00040F2E813C2F200031A6844F6F963C0F60D
:1051F0000003D36340F2E813C2F200031A6844F6D6
:105200006553C0F60003936340F2E813C2F2000353
:105210001A6845F27103C0F60003136440F2E81304
:10522000C2F200031A6845F2B503C0F600035364E6
:1052300040F2E813C2F200031B684FF000029A64C8
:1052400040F2E813C2F200031B684FF00002DA6478
:1052500007F10C07BD4680BC704700BF90B583B016
:1052600000AF02460B46FA71BB71FB79012B0AD1E4
:105270004FF49840C4F2000040F225514FF0010273
:10528000FBF7B6FF09E04FF49840C4F2000040F28B
:1052900025514FF00002FBF7ABFFBB79012B29D161
:1052A0004FF49840C4F2000040F226614FF0010232
:1052B000FBF79EFF40F2EC13C2F200031B685C6A2E
:1052C00040F2EC13C2F200031B6803F1680140F2E4
:1052D000EC13C2F200031B6803F1380240F2EC1336
:1052E000C2F200031B6803F16403084611461A4624
:1052F000A04709E04FF49840C4F2000040F2266154
:105300004FF00002FBF774FF07F10C07BD4690BD9C
:1053100080B58CB000AFB9600146F973FA71BB710A
:105320004FF400204FF00101FCF706FD4FF00400A0
:105330004FF00101FCF7D2FC4FF44063BB624FF029
:10534000020387F82C304FF0020387F82D304FF01E
:10535000000387F82E304FF0010387F82F3007F154
:1053600028034FF40060C4F202001946FDF7D2FF93
:105370004FF40060C4F202004FF00A014FF008023F
:10538000FEF794F84FF40060C4F202004FF00B01F6
:105390004FF00802FEF78AF8BB68BB614FF00003CC
:1053A000BB834FF00003FB834FF000033B844FF0BF
:1053B0000003BB844FF00C037B8407F118034FF408
:1053C0009840C4F200001946FBF7EEFD4FF49843F5
:1053D000C4F200034FF4AE721A814FF49840C4F245
:1053E00000004FF0A001FBF777FF4FF49840C4F2A4
:1053F00000004FF00101FBF7B5FE4FF4407001F0E3
:1054000047FE4FF034033B754FF00E037B754FF0B2
:105410000003BB754FF00103FB7507F11403184639
:1054200001F04AFE4FF03400FFF780FC40F2EC132D
:10543000C2F200031B689B6B4FF001004FF00001AC
:1054400098474FF00103184607F13007BD4680BD6D
:1054500080B582B000AF0346FB7197F907309BB26D
:105460004FF49840C4F200001946FBF79BFE00BFC2
:105470004FF49840C4F200004FF08001FBF70CFF9E
:105480000346002BF4D04FF00103184607F108073C
:10549000BD4680BD80B582B000AF78604FF49840C3
:1054A000C4F2000040F22551FBF716FF4FF498407C
:1054B000C4F20000FBF78AFE0346DAB27B681A707A
:1054C0004FF00103184607F10807BD4680BD00BF35
:1054D00098B500AF40F2F013C2F200034FF00002A3
:1054E0001A604FF49840C4F2000040F22661FBF7C6
:1054F00005FF0346002B1FD040F2EC13C2F200035D
:105500001B685C6A40F2EC13C2F200031B6803F1F3
:10551000680140F2EC13C2F200031B6803F1380289
:1055200040F2EC13C2F200031B6803F16403084667
:1055300011461A46A04729E04FF49840C4F20000F3
:1055400040F22551FBF7DAFE0346002B1ED040F255
:10555000EC13C2F200031B681C6A40F2EC13C2F2A7
:1055600000031B6803F1680140F2EC13C2F2000370
:105570001B6803F1500240F2EC13C2F200031B68F7
:1055800003F13803084611461A46A04740F2F013CB
:10559000C2F200031B68002B06D04EF60453CEF275
:1055A00000034FF080521A6098BD00BF80B483B0F2
:1055B00000AF786040F2EC13C2F200037A681A6020
:1055C00040F2EC13C2F200031A6845F21133C0F640
:1055D0000003D36340F2EC13C2F200031A6845F2F1
:1055E0005D23C0F60003936340F2EC13C2F20003A4
:1055F0001A6845F25143C0F60003136440F2EC13FD
:10560000C2F200031A6845F29543C0F600035364E2
:1056100040F2EC13C2F200031B684FF000029A64E0
:1056200040F2EC13C2F200031B684FF00002DA6490
:1056300007F10C07BD4680BC704700BF80B485B041
:1056400000AF786039604FF00003FB817B681B88F6
:10565000FB81FB8903F44153FB813B681A883B685B
:105660005B8842EA03039AB23B689B8842EA0303E1
:105670009AB23B68DB8842EA03039AB23B681B8913
:1056800042EA03039AB23B685B8942EA03039AB297
:105690003B689B8942EA03039AB23B68DB8942EA92
:1056A00003039AB2FB8942EA0303FB817B68FA8910
:1056B0001A807B689B8B9BB223F400639AB27B6851
:1056C0009A833B681A8A7B681A8207F11407BD46E1
:1056D00080BC704780B483B000AF78600B46FB702D
:1056E000FB78002B08D07B681B889BB243F04003FB
:1056F0009AB27B681A8007E07B681B889BB223F014
:1057000040039AB27B681A8007F10C07BD4680BC43
:10571000704700BF80B483B000AF78600B46FB7069
:10572000FB78002B08D07B681B889BB243F40053A6
:105730009AB27B681A8007E07B681B889BB223F4CF
:1057400000539AB27B681A8007F10C07BD4680BCF3
:10575000704700BF80B586B000AF786039604FF009
:105760000003BB753B681B88052B40F084807B6879
:1057700003F101031B784FEA0323BB827B6803F12B
:1057800002031B781A46BB8A42EA0303BB82BB8A28
:1057900003F10103BB827B6803F103031B784FEA2B
:1057A00003237B827B6803F104031B781A467B8A00
:1057B00042EA03037B827B8A002B58D07A8A40F22C
:1057C000CF739A4253D87B68FB603B684FF000026E
:1057D0001A80FB684FF001021A70FB6803F10103A5
:1057E000FB603B681B8803F101039AB23B681A8097
:1057F0007B8A03F00703002B08D07B8A4FEAD30390
:105800009BB2DBB203F10103FB7504E07B8A4FEA34
:10581000D3039BB2FB75FB68FA7D1A70FB6803F13A
:105820000103FB603B681B8803F101039AB23B68EC
:105830001A80BA8A7B8AF86811461A464FF000032C
:10584000FBF734F80346FB72FB7A002B06D0FB7A99
:105850001846FBF713FE0346BB750FE03B681A883A
:10586000FB7D9BB2D3189AB23B681A8006E04FF0DA
:105870000303BB7502E04FF00303BB75BB7D184605
:1058800007F11807BD4680BD80B584B000AF7860D1
:1058900039604FF00003FB733B681B88052B50D128
:1058A0007B6803F101031B784FEA0323BB817B680C
:1058B00003F102031B781A46BB8942EA0303BB814A
:1058C000BB8903F10103BB817B6803F104031B78EF
:1058D000002B32D17B6803F103031B78FF2B05D02B
:1058E0007B6803F103031B78002B26D14FF00003E4
:1058F0007B727B6803F103031B78FF2B03D14FF00E
:1059000001033B7202E04FF000033B7207F1080213
:10591000BB89104619464FF001024FF00103FAF718
:10592000C5FF0346FB72FB7A002B0DD0FB7A1846AD
:10593000FBF7A4FD0346FB7306E04FF00303FB7384
:1059400002E04FF00303FB73FB7B184607F11007DF
:10595000BD4680BD80B584B000AF786039604FF03F
:105960000003BB733B681B88052B67D97B6803F179
:1059700001031B784FEA0323BB817B6803F1020319
:105980001B781A46BB8942EA0303BB81BB8903F13A
:105990000103BB817B6803F103031B784FEA0323F8
:1059A0007B817B6803F104031B781A467B8942EAFA
:1059B00003037B817B6803F105031B787B727B8982
:1059C00003F00703002B08D07B894FEAD3039BB277
:1059D000DBB203F10103FB7304E07B894FEAD303DD
:1059E0009BB2FB737B89002B24D07B89B3F5F66FC8
:1059F00020D8FA7B7B7A9A421CD17B6803F106019E
:105A0000BA897B89084611461A464FF00103FAF716
:105A10004DFF03463B723B7A002B06D03B7A18467B
:105A2000FBF72CFD0346BB730BE03B684FF0050210
:105A30001A8006E04FF00303BB7302E04FF003034C
:105A4000BB73BB7B184607F11007BD4680BD00BF86
:105A500080B584B004AF00F077F84FF00100FEF796
:105A6000F9FD024642F26053C2F200031A604FF0A1
:105A7000010300934FF0000301934FF000030293E2
:105A80004FF00003039345F62D50C0F6000049F295
:105A90009041C0F600014FF040024FF00003FCF7C8
:105AA000A5FA4FF0010300934FF0000301934FF06C
:105AB000000302934FF00003039346F20510C0F673
:105AC000000049F2A441C0F600014FF040024FF03F
:105AD0000003FCF78BFA4FF0010300934FF0000333
