:020000040800F2
:1000000064540020310E0008990E0008990E000873
:10001000990E0008990E0008990E000800000000D3
:100020000000000000000000000000004137000850
:10003000990E00080000000065390008A939000881
:10004000990E000895660008990E0008990E0008A0
:10005000990E0008990E0008990E0008990E0008E4
:10006000990E0008990E0008990E0008990E0008D4
:10007000990E0008990E0008990E0008990E0008C4
:10008000990E0008990E0008990E0008990E0008B4
:10009000990E0008990E0008990E0008990E0008A4
:1000A000990E0008990E0008990E0008990E000894
:1000B000990E0008A5510008412C0008990E00086F
:1000C000990E0008990E0008990E0008990E000874
:1000D000990E0008990E0008990E00086544000862
:1000E000990E0008990E0008990E0008990E000854
:1000F000990E0008990E0008990E0008990E000844
:10010000990E0008990E0008892E0008990E000823
:1001100045480008990E0008990E0008990E00083D
:10012000990E0008990E0008990E0008990E000813
:10013000990E0008990E0008990E0008990E000803
:10014000990E0008990E0008990E0008990E0008F3
:10015000990E0008990E0008990E0008990E0008E3
:10016000990E0008990E0008990E0008990E0008D3
:10017000990E0008990E0008990E0008990E0008C3
:10018000990E0008990E000880B400AFBD4680BCEF
:10019000704700BF80B400AFBD4680BC704700BF51
:1001A00080B487B000AF786013460A467A803B80FF
:1001B0004FF00003FB754FF00003FB8140F2060394
:1001C000C2F200034FF010021A7040F2BC03C2F2F8
:1001D000000344F66042C2F2000212681A6040F264
:1001E000BC03C2F2000303F1040244F65443C2F21A
:1001F00000031B68136040F20403C2F200031B7883
:100200007A889A4246D37A883B88D21840F204030F
:10021000C2F200031B78194640F20603C2F2000343
:100220001B78CB189A4235DC7A8840F20803C2F278
:1002300000031B78D31A3B6128E040F2BC03C2F2F2
:1002400000033A6933F812309BB24FEA13239BB292
:10025000DAB27B681A707B6803F101037B6040F2BD
:10026000BC03C2F200033A6933F812309BB2DAB22F
:100270007B681A707B6803F101037B603B6903F1C3
:1002800001033B613B8803F1FF333B803B88002B3C
:10029000D3D102E04FF00103FB75FB7D184607F157
:1002A0001C07BD4680BC704780B487B000AFF860C3
:1002B00079813A81FB714FF00003FB75FB7D184695
:1002C00007F11C07BD4680BC704700BF80B485B0F5
:1002D00000AFF86079813A81FB714FF00103184655
:1002E00007F11407BD4680BC704700BF80B483B0DF
:1002F00000AF786013460A467A803B804FF00103D6
:10030000184607F10C07BD4680BC704790B587B012
:1003100002AF7860F970BA707B704FF00003FB7326
:100320007B684FF0020283F83620BB78002B05D0A3
:10033000BB78002B02D0BB78F72B03D94FF0020318
:10034000FB7364E07B68BA7883F83420FB78002B79
:1003500041D17A6842F6E173C0F60003D3607A684F
:1003600043F21903C0F6000313617A6843F2D9031C
:10037000C0F6000393617A6843F24903C0F60003B4
:1003800053617B684FF00002DA617A6843F2C1136F
:10039000C0F6000313627A6843F29123C0F60003AB
:1003A00053627A6843F24133C0F6000393627B687C
:1003B00003F138007B6803F150017B6893F8342027
:1003C0007B783C6A009497F82440019402F0C4FDC5
:1003D0000346FB7302E04FF00203FB73FB7B002B31
:1003E00015D17B6803F16403184600F083FA0346D5
:1003F000002B03D14FF00303FB7308E07B68FA780E
:1004000083F835207B684FF0010283F83620FB7BB0
:10041000184607F11407BD4690BD00BF80B584B0F3
:1004200000AF78604FF00003FB737B6893F83630C1
:10043000012B11D17B68DB687A6802F168007A6869
:1004400002F138017A6802F1500298477B684FF058
:10045000000283F8362002E04FF00603FB73FB7BBB
:10046000184607F11007BD4680BD00BFB0B586B085
:1004700002AF78604FF00003FB727B6893F8363070
:10048000002B02D04FF00603CAE07B6803F1640240
:1004900007F10A031046194600F052FA0346012BF1
:1004A00040F0BC80BB7A032B00F2B88001A252F866
:1004B00023F000BF1D060008C5040008150500084C
:1004C0001D0600087B685C697B6803F168007B6837
:1004D00003F104017A687B6803F10603A047034631
:1004E000FB72FB7A002B40F094807B681A797B6862
:1004F00093F834309A4204D07B681B79002B40F08B
:100500008A807B6803F1640318464FF0020100F013
:1005100001FA83E07B681B681A787B685A717B68F4
:100520004FF001021A724FF00003FB602DE040F221
:100530000C03C2F20003FA6813F83230002B28D003
:1005400040F20C03C2F20003FA6813F832207B6811
:100550005B799A4215D140F20C02C2F20002FB68AC
:100560004FEAC303D3185B687A6811687A6802F1AE
:10057000060208461146984703461A467B681A72D7
:1005800008E0FB6803F10103FB60FB680F2BCEDD85
:1005900000E000BF7B681B79002B3ED07B681B7A94
:1005A000002B22D07B684FF00002DA807B6819684C
:1005B0007B68DB881A468A187968497961F07F017F
:1005C000C9B2117003F101039AB27B68DA807B68CB
:1005D00019687B68DB881A468A187968097A11706D
:1005E00003F101039AB27B68DA807B689C697B68BF
:1005F00003F168007B6803F138017B6893F83420CD
:100600007B681B687D68ED880095A0470346FB72F8
:1006100004E000BF02E000BF00E000BF4FF00003B5
:10062000184607F11007BD46B0BD00BF80B586B0C3
:1006300004AF44F69020C2F2000003F081FF44F6BC
:100640009020C2F2000002F025FB44F61C10C2F21A
:10065000000004F065F944F61C10C2F2000002F03C
:100660003DFC4FF4614300934FF00003019344F6C7
:100670009020C2F200004FF000014FF00A024FF04C
:100680000003FFF743FE0346FB714FF46143009301
:100690004FF00003019344F61C10C2F200004FF02B
:1006A00000014FF00A024FF00003FFF72FFE034650
:1006B000FB714FF0010300934FF0000301934FF0E3
:1006C000000302934FF00003039340F22570C0F63D
:1006D000000046F6CC51C0F600014FF480624FF0A6
:1006E000000301F0A5F84FF0010300934FF0000361
:1006F00001934FF0000302934FF00003039340F285
:100700007570C0F6000046F6DC51C0F600014FF4EB
:1007100080624FF0000301F08BF807F10807BD4637
:1007200080BD00BF80B582B000AF786044F69020F5
:10073000C2F20000FFF772FE44F60443C2F2000367
:100740004FF000021A7144F69020C2F20000FFF749
:100750008DFE4FF00A0001F047F944F60443C2F25F
:1007600000031B6803F1010244F60443C2F20003D4
:100770001A60E8E780B582B000AF786044F61C10DC
:10078000C2F20000FFF74AFE44F60443C2F200033F
:100790004FF000021A7144F61C10C2F20000FFF77D
:1007A00065FE4FF00A0001F01FF944F60443C2F25F
:1007B00000031B6803F1010244F60443C2F2000384
:1007C0001A60E8E780B586B000AF786039604FF016
:1007D0000003BB753B681B88052B40F082807B685B
:1007E00003F101031B784FEA0323BB827B6803F10B
:1007F00002031B781A46BB8A42EA0303BB82BB8A08
:1008000003F10103BB827B6803F103031B784FEA0A
:1008100003237B827B6803F104031B781A467B8ADF
:1008200042EA03037B827B8A002B56D07A8A40F20D
:10083000CF739A4251D87B68FB603B684FF000024F
:100840001A80FB684FF002021A70FB6803F1010383
:10085000FB603B681B8803F101039AB23B681A8076
:100860007B8A03F00703002B08D07B8A4FEAD3036F
:100870009BB2DBB203F10103FB7504E07B8A4FEA14
:10088000D3039BB2FB75FB68FA7D1A70FB6803F11A
:100890000103FB603B681B8803F101039AB23B68CC
:1008A0001A80BA8A7B8AF86811461A46FFF71EFD3D
:1008B0000346FB72FB7A002B06D0FB7A184600F049
:1008C00093FA0346BB750FE03B681A88FB7D9BB229
:1008D000D3189AB23B681A8006E04FF00303BB7549
:1008E00002E04FF00303BB75BB7D184607F1180704
:1008F000BD4680BD80B483B000AF78607B684FF0A8
:1009000000025A704FF00103184607F10C07BD466C
:1009100080BC704780B483B000AF78600B46FB703A
:100920007B684FF001025A707B68FA781A704FF0BA
:100930000103184607F10C07BD4680BC704700BF95
:1009400080B485B000AF786039604FF00003FB736E
:100950007B685B78002B0AD07B681A783B681A703A
:100960007B684FF000025A704FF00103FB73FB7B72
:10097000184607F11407BD4680BC704780B582B0A9
:1009800000AF786039607B6803F1010240F2DC134C
:10099000C2F200031B88104640F2BC11C2F20001F3
:1009A0001A4606F011F940F2DC13C2F200031B886C
:1009B00003F101039AB23B681A804FF00003184616
:1009C00007F10807BD4680BD80B58AB000AF7860EA
:1009D00039604FF000037B624FF000033B624FF041
:1009E0000003FB614FF00003BB617B681B8A9BB275
:1009F0007B627B6A23F440537B623B68DB887A6AC4
:100A000042EA03037B627B6A9AB27B681A827B6844
:100A10009B899BB27B627B6A23F4B05323F00C0367
:100A20007B623B689A883B681B8942EA03039AB25F
:100A30003B685B8942EA03039BB27A6A42EA03039A
:100A40007B627B6A9AB27B689A817B689B8A9BB245
:100A50007B627B6A23F440737B623B689B897A6A82
:100A600042EA03037B627B6A9AB27B689A8207F14F
:100A70000803184600F084FC7A684FF48053C4F2EF
:100A800001039A4206D07A684FF4A053C4F20103DE
:100A90009A4202D17B693B6201E03B693B627B6821
:100AA0009B899BB29BB21BB2002B0FDA3A6A1346AA
:100AB0004FEA83039B184FEA83029A183B681B682E
:100AC0004FEA4303B2FBF3F3FB610EE03A6A1346CD
:100AD0004FEA83039B184FEA83029A183B681B680E
:100AE0004FEA8303B2FBF3F3FB61FA6948F21F5349
:100AF000C5F2EB13A3FB02134FEA53134FEA0313A0
:100B00007B627B6A4FEA13134FF0640202FB03F32C
:100B1000FA69D31ABB617B689B899BB29BB21BB2FB
:100B2000002B13DABB694FEAC30303F1320248F228
:100B30001F53C5F2EB13A3FB02134FEA531303F049
:100B400007037A6A42EA03037B6212E0BB694FEA59
:100B5000031303F1320248F21F53C5F2EB13A3FB58
:100B600002134FEA531303F00F037A6A42EA0303B6
:100B70007B627B6A9AB27B681A8107F12807BD46BF
:100B800080BD00BF80B483B000AF78600B46FB70BF
:100B9000FB78002B08D07B689B899BB243F4005301
:100BA0009AB27B689A8107E07B689B899BB223F4A9
:100BB00000539AB27B689A8107F10C07BD4680BC4E
:100BC000704700BF80B483B000AF78600B467B8075
:100BD0007B884FEAC3534FEAD3539AB27B689A801B
:100BE00007F10C07BD4680BC704700BF80B483B0DE
:100BF00000AF78607B689B889BB24FEAC3534FEA93
:100C0000D3539BB2184607F10C07BD4680BC704712
:100C100080B487B000AF786013460A467A807B7054
:100C20004FF000033B614FF00003FB604FF0000307
:100C3000BB604FF000037B617B687B617B88DBB22C
:100C40004FEA5313DBB23B617B8803F01F03FB6069
:100C5000FB684FF0010202FA03F3BB603B69012B12
:100C600004D17B6903F10C037B610BE03B69022B30
:100C700004D17B6903F110037B6103E07B6903F11D
:100C800014037B617B78002B07D07B697A6911683C
:100C9000BA6841EA02021A6008E07B697A69116861
:100CA000BA686FEA020201EA02021A6007F11C0741
:100CB000BD4680BC704700BF80B485B000AF78608F
:100CC0000B467B804FF00003FB737B681B889AB256
:100CD0007B8802EA03039BB2002B03D04FF0010391
:100CE000FB7302E04FF00003FB73FB7B184607F138
:100CF0001407BD4680BC704780B483B000AF7860F5
:100D00000B467B807B886FEA03039AB27B681A806C
:100D100007F10C07BD4680BC704700BF80B487B0A8
:100D200000AF78600B467B804FF00003FB604FF014
:100D300000037B614FF00003BB604FF00003FB74C6
:100D40007B88DBB24FEA5313DBB2BB607B8803F0D6
:100D50001F037B617B694FF0010202FA03F37B61A1
:100D6000BB68012B07D17B689B899BB27A6902EA39
:100D700003037B6111E0BB68022B07D17B681B8AF0
:100D80009BB27A6902EA03037B6106E07B689B8A77
:100D90009BB27A6902EA03037B617B884FEA1323E3
:100DA0009BB2FB60FB684FF0010202FA03F3FB60A9
:100DB0007B681B889BB2FA6802EA0303FB607B69CD
:100DC000002B06D0FB68002B03D04FF00103FB740F
:100DD00002E04FF00003FB74FB7C184607F11C0790
:100DE000BD4680BC704700BF80B485B000AF0346ED
:100DF000FB71FB79012B07D0072B09D0002B0BD1FE
:100E00004FF00003FB730BE04FF00203FB7307E0AE
:100E10004FF00603FB7303E04FF00403FB7300BFC6
:100E2000FB7B184607F11407BD4680BC704700BF26
:100E300080B582B000AF47F22803C0F600037B60A4
:100E400040F20003C2F200033B600BE07B681A68CB
:100E50003B681A603B6803F104033B607B6803F165
:100E600004037B603A6840F2BC03C2F200039A427A
:100E7000ECD3074807494FF000028842B8BF40F85A
:100E8000042BFADB00F012FA07F10807BD4680BD1B
:100E9000BC000020644C002080B400AFFEE700BF1F
:100EA00080B584B000AF786039604FF00003FB7309
:100EB0003B681B88052B2BD17B6803F101031B7852
:100EC0004FEA0323BB817B6803F102031B781A46B8
:100ED000BB8942EA0303BB81BB8903F10103BB81E8
:100EE0007B6803F10302BB89104619464FF00102EB
:100EF0004FF00103FFF7D8F90346FB72FB7A002B92
:100F000009D0FB7A1846FFF76FFF0346FB7302E038
:100F10004FF00303FB73FB7B184607F11007BD4638
:100F200080BD00BF80B584B000AF786039604FF0FD
:100F30000003FB733B681B88052B57D97B6803F1C3
:100F400001031B784FEA0323BB817B6803F1020393
:100F50001B781A46BB8942EA0303BB81BB8903F1B4
:100F60000103BB817B6803F103031B784FEA032372
:100F70007B817B6803F104031B781A467B8942EA74
:100F800003037B817B6803F105031B787B727B89FC
:100F9000002B27D07B89782B24D87B89DBB24FEAC2
:100FA0004303DBB27A7A9A421CD17B6803F10601D3
:100FB000BA897B89084611461A464FF00103FFF7AC
:100FC00073F903463B723B7A002B06D03B7A1846F6
:100FD000FFF70AFF0346FB730BE03B684FF0050287
:100FE0001A8006E04FF00303FB7302E04FF00303A7
:100FF000FB73FB7B184607F11007BD4680BD00BFA1
:1010000080B586B000AF786039604FF00003FB75A3
:101010003B681B88052B70D17B6803F101031B78AB
:101020004FEA0323BB827B6803F102031B781A4655
:10103000BB8A42EA0303BB82BB8A03F10103BB8282
:101040007B6803F103031B784FEA03237B827B68F1
:1010500003F104031B787B827B8A002B49D07B8AB7
:101060007D2B46D87B68FB603B684FF000021A80FE
:10107000FB684FF003021A70FB6803F10103FB6089
:101080003B681B8803F101039AB23B681A807B8A94
:10109000DBB24FEA4303DAB2FB681A70FB6803F174
:1010A0000103FB603B681B8803F101039AB23B68B4
:1010B0001A80BA8A7B8AF86811461A464FF00003F4
:1010C000FFF7F2F80346FB72FB7A002B06D0FB7A9F
:1010D0001846FFF789FE0346FB7511E03B681A8846
:1010E0007B8A4FEA43039BB2D3189AB23B681A80BB
:1010F00006E04FF00303FB7502E04FF00303FB75BE
:10110000FB7D184607F11807BD4680BD80B586B047
:1011100000AF786039604FF00003FB753B681B88B7
:10112000092B40F2BC807B6803F101031B784FEA76
:101130000323BB827B6803F102031B781A46BB8A38
:1011400042EA0303BB82BB8A03F10103BB827B68D3
:1011500003F103031B784FEA03237B827B6803F1CF
:1011600004031B781A467B8A42EA03037B827B686E
:1011700003F105031B784FEA03233B827B6803F1ED
:1011800006031B781A463B8A42EA03033B823B8AEA
:1011900003F101033B827B6803F107031B784FEAED
:1011A0000323FB817B6803F108031B781A46FB8944
:1011B00042EA0303FB817B6803F109031B787B731D
:1011C0007B8A002B68D07B8A7D2B65D8FB89002B1E
:1011D00062D0FB89792B5FD8FB894FEA43027B7B86
:1011E0009A4259D17B6803F10A013A8AFB89084681
:1011F00011461A464FF00103FFF756F80346BB7538
:10120000BB7D002B3ED17B68BB603B684FF000028A
:101210001A80BB684FF017021A70BB6803F1010314
:10122000BB603B681B8803F101039AB23B681A80DC
:101230007B8ADBB24FEA4303DAB2BB681A70BB6841
:1012400003F10103BB603B681B8803F101039AB201
:101250003B681A80BA8A7B8AB86811461A464FF0F2
:101260000003FFF721F80346BB75BB7D002B09D1B6
:101270003B681A887B8A4FEA43039BB2D3189AB221
:101280003B681A80BB7D002B09D0BB7D1846FFF759
:10129000ABFD0346FB7502E04FF00303FB75FB7DDE
:1012A000184607F11807BD4680BD00BF80B500AFE6
:1012B00002F032F9FFF7BAF903F014FD00F0E6FB93
:1012C000FEE700BF80B400AFFEE700BF80B483B08C
:1012D00000AF78603960FEE780B582B000AF04F0FF
:1012E00047FC03467B607B6807F10807BD4680BD6D
:1012F00080B485B000AF78600B467B804FF0FF0371
:10130000FB734FF0FF03BB731DE07B681A78BB7B58
:1013100082EA0303DBB2BB607B6803F101037B60FD
:1013200046F6EC53C0F60003BA689B181A78FB7BAC
:1013300082EA0303BB7346F6EC63C0F60003BA68A7
:101340009B181B78FB737B88002B0CBF00230123A9
:10135000DBB27A8802F1FF327A80002BD5D1FB7B99
:101360004FEA03239AB2BB7B9BB242EA03039BB2D0
:101370009BB2184607F11407BD4680BC704700BFFA
:1013800080B489B000AF78604FF00003BB614FF0CC
:1013900000037B614FF00003FB614FF002033B61F0
:1013A0004FF00003FB604FF00203BB604FF460534B
:1013B000C4F202039B6803F00C03BB61BB69042BFE
:1013C0000AD0082B0FD0002B64D17A684FF4105349
:1013D000C0F2F403136064E07A684FF49053C0F2F3
:1013E0007A0313605DE04FF46053C4F202035B685C
:1013F00003F480034FEA9353FB604FF46053C4F24D
:1014000002035B6803F03F03BB60FB68002B16D050
:101410004FF49053C0F27A03BA68B3FBF2F24FF480
:101420006053C4F202035B68194647F6C07301EAD1
:1014300003034FEA931303FB02F3FB6115E04FF440
:101440001053C0F2F403BA68B3FBF2F24FF46053E6
:10145000C4F202035B68194647F6C07301EA03034E
:101460004FEA931303FB02F3FB614FF46053C4F2A2
:1014700002035B6803F440334FEA134303F10103B3
:101480004FEA43033B61FA693B69B2FBF3F27B68C5
:101490001A6006E07A684FF41053C0F2F403136048
:1014A00000BF4FF46053C4F202039B6803F0F003E3
:1014B000BB61BB694FEA1313BB6140F28C03C2F2FC
:1014C0000003BA699B181B78DBB27B617B681A68E2
:1014D0007B6922FA03F27B685A604FF46053C4F2CE
:1014E00002039B6803F4E053BB61BB694FEA93239B
:1014F000BB6140F28C03C2F20003BA699B181B78EF
:10150000DBB27B617B685A687B6922FA03F27B68F5
:101510009A604FF46053C4F202039B6803F4604383
:10152000BB61BB694FEA5333BB6140F28C03C2F22B
:101530000003BA699B181B78DBB27B617B685A6831
:101540007B6922FA03F27B68DA6007F12407BD4663
:1015500080BC704780B483B000AF78600B46FB70EE
:10156000FB78002B0ED04FF46053C4F202034FF40B
:101570006052C4F20202126B11467A6841EA02021A
:101580001A630FE04FF46053C4F202034FF4605249
:10159000C4F20202126B11467A686FEA020201EA93
:1015A00002021A6307F10C07BD4680BC704700BFFA
:1015B00080B483B000AF78600B46FB70FB78002BE3
:1015C0000ED04FF46053C4F202034FF46052C4F2E1
:1015D0000202126C11467A6841EA02021A640FE0B4
:1015E0004FF46053C4F202034FF46052C4F202029B
:1015F000126C11467A686FEA020201EA02021A646A
:1016000007F10C07BD4680BC704700BF80B483B0B3
:1016100000AF78600B46FB70FB78002B0ED04FF4C8
:101620006053C4F202034FF46052C4F20202526CDF
:1016300011467A6841EA02025A640FE04FF460539F
:10164000C4F202034FF46052C4F20202526C11461B
:101650007A686FEA020201EA02025A6407F10C0793
:10166000BD4680BC704700BF80B483B000AF7860D7
:101670000B46FB70FB78002B0ED04FF46053C4F286
:1016800002034FF46052C4F20202126A11467A68F1
:1016900041EA02021A620FE04FF46053C4F20203FF
:1016A0004FF46052C4F20202126A11467A686FEA7D
:1016B000020201EA02021A6207F10C07BD4680BC71
:1016C000704700BF80B483B000AF78600B46FB70FA
:1016D000FB78002B0ED04FF46053C4F202034FF49A
:1016E0006052C4F20202526A11467A6841EA02026A
:1016F0005A620FE04FF46053C4F202034FF4605299
:10170000C4F20202526A11467A686FEA020201EAE2
:1017100002025A6207F10C07BD4680BC704700BF49
:1017200080B586B000AF786039604FF00003FB757C
:101730003B681B88052B72D17B6803F101031B7882
:101740004FEA0323BB827B6803F102031B781A462E
:10175000BB8A42EA0303BB82BB8A03F10103BB825B
:101760007B6803F103031B784FEA03237B827B68CA
:1017700003F104031B781A467B8A42EA03037B8247
:101780007B8A002B47D07B8A7C2B44D87B68FB600C
:101790003B684FF000021A80FB684FF004021A7099
:1017A000FB6803F10103FB603B681B8803F1010345
:1017B0009AB23B681A807B8ADBB24FEA4303DAB203
:1017C000FB681A70FB6803F10103FB603B681B8830
:1017D00003F101039AB23B681A80BA8A7B8AF868DF
:1017E00011461A46FEF7DCFC0346FB72FB7A002B1F
:1017F00006D0FB7A1846FFF7F7FA0346FB7511E0AF
:101800003B681A887B8A4FEA43039BB2D3189AB28B
:101810003B681A8006E04FF00303FB7502E04FF0CF
:101820000303FB75FB7D184607F11807BD4680BD15
:1018300080B58AB002AFF860B9603B601346FB80A8
:10184000FB68002B02D102F07FF8FEE7BB6A042B95
:1018500002D902F079F8FEE7FB881846396B00F0F0
:1018600069FEB861BB69002B00F09F80BB691A6BF1
:10187000FB8803F1FF334FEA8303D3187B617B6955
:1018800023F007037B617B6903F00703002B02D081
:1018900002F05AF8FEE7FB880093B869B968BA6AA3
:1018A0007B6B00F005FD7869F9683A6801F006FF86
:1018B00003461A46BB691A60FB6A002B02D0FB6A1A
:1018C000BA691A6001F0F4FF40F2B823C2F20003D3
:1018D0001B6803F1010240F2B823C2F200031A6050
:1018E00040F2E013C2F200031B68002B0FD140F25C
:1018F000E013C2F20003BA691A6040F2B823C2F2E0
:1019000000031B68012B18D100F030FD15E040F2F8
:10191000C423C2F200031B68002B0ED140F2E01377
:10192000C2F200031B68DA6ABB6A9A4205D840F229
:10193000E013C2F20003BA691A6040F2D423C2F283
:1019400000031B6803F1010240F2D423C2F200033A
:101950001A60BB69DB6A4FF0010202FA03F240F23F
:10196000C023C2F200031B681A4340F2C023C2F234
:1019700000031A60BB69DA6A13464FEA83039B18B7
:101980004FEA83031A4640F2E413C2F20003D2186E
:10199000BB6903F104031046194601F033FD4FF013
:1019A0000103FB6101F0ACFF02E04FF0FF33FB618C
:1019B000FB69012B11D140F2C423C2F200031B6862
:1019C000002B0AD040F2E013C2F200031B68DA6A6F
:1019D000BB6A9A4201D201F05BFFFB69184607F12E
:1019E0002007BD4680BD00BF80B584B000AF7860E1
:1019F0004FF00003FB607B68002B3DD040F2D82302
:101A0000C2F200031B68002B02D001F09DFFFEE72D
:101A100000F07AF840F2BC23C2F200031A687B6837
:101A2000D318BB6040F2E013C2F200031B6803F15D
:101A30000403184601F044FD0346002B16D140F282
:101A4000E013C2F200031B68DB6A4FF0010202FAE6
:101A500003F36FEA030240F2C023C2F200031B68E3
:101A60001A4040F2C023C2F200031A60B86800F0C6
:101A70001BFD00F05BF8F860FB68002B01D101F062
:101A800007FF07F11007BD4680BD00BF80B586B0D7
:101A900004AF4FF0000300934FF0000301934FF0A9
:101AA000000302934FF00003039342F28D20C0F62F
:101AB000000046F6EC71C0F600014FF046024FF010
:101AC0000003FFF7B5FE78607B68012B12D101F0AF
:101AD0003BFF40F2C423C2F200034FF001021A6040
:101AE00040F2BC23C2F200034FF000021A6001F082
:101AF00049FE05E07B68002B02D101F025FFFEE7DF
:101B000007F10807BD4680BD80B400AF40F2D8237E
:101B1000C2F200031B6803F1010240F2D823C2F2B3
:101B200000031A60BD4680BC704700BF80B582B01C
:101B300000AF4FF000037B6040F2D823C2F20003F5
:101B40001B68002B02D101F0FFFEFEE701F0B0FEA2
:101B500040F2D823C2F200031B6803F1FF3240F2C7
:101B6000D823C2F200031A6040F2D823C2F2000365
:101B70001B68002B40F08D8040F2B823C2F20003B6
:101B80001B68002B00F0858049E040F27823C2F208
:101B90000003DB68DB683B603B6803F11803184611
:101BA00001F08EFC3B6803F10403184601F088FC49
:101BB0003B68DB6A4FF0010202FA03F240F2C023F5
:101BC000C2F200031B681A4340F2C023C2F20003B2
:101BD0001A603B68DA6A13464FEA83039B184FEAA0
:101BE00083031A4640F2E413C2F20003D2183B68A2
:101BF00003F104031046194601F004FC3B68DA6A5D
:101C000040F2E013C2F200031B68DB6A9A4206D37B
:101C100040F2CC23C2F200034FF001021A6040F2FE
:101C20007823C2F200031B68002BAED140F2C82318
:101C3000C2F200031B68002B1FD017E000F032F83F
:101C40000346002B06D040F2CC23C2F200034FF033
:101C500001021A6040F2C823C2F200031B6803F1BC
:101C6000FF3240F2C823C2F200031A6040F2C823D8
:101C7000C2F200031B68002BE0D140F2CC23C2F279
:101C800000031B68012B04D14FF001037B6001F0BE
:101C9000FFFD01F035FE7B68184607F10807BD46D9
:101CA00080BD00BF80B586B000AF4FF000037B6100
:101CB00040F2D823C2F200031B68002B40F0D8800A
:101CC00040F2BC23C2F200031B6803F1010240F2A0
:101CD000BC23C2F200031A6040F2BC23C2F200032C
:101CE0001B683B613B69002B2ED140F27023C2F28E
:101CF00000031B681B68002B02D001F025FEFEE7E5
:101D000040F27023C2F200031B68FB6040F27423B0
:101D1000C2F200031A6840F27023C2F200031A6094
:101D200040F27423C2F20003FA681A6040F2D02332
:101D3000C2F200031B6803F1010240F2D023C2F299
:101D400000031A6000F044FC40F29C03C2F200035E
:101D50001B683A699A4272D300E000BF40F27023D8
:101D6000C2F200031B681B68002B02D14FF0010375
:101D700001E04FF00003002B07D040F29C03C2F2B9
:101D800000034FF0FF321A6059E040F27023C2F2B4
:101D900000031B68DB68DB68BB60BB685B687B605B
:101DA0003A697B689A4206D240F29C03C2F2000371
:101DB0007A681A6043E0BB6803F10403184601F037
:101DC0007FFBBB689B6A002B05D0BB6803F118033F
:101DD000184601F075FBBB68DB6A4FF0010202FA9E
:101DE00003F240F2C023C2F200031B681A4340F220
:101DF000C023C2F200031A60BB68DA6A13464FEAD6
:101E000083039B184FEA83031A4640F2E413C2F29D
:101E10000003D218BB6803F104031046194601F011
:101E2000F1FABB68DA6A40F2E013C2F200031B6801
:101E3000DB6A9A4291D34FF001037B618EE740F257
:101E4000E013C2F200031B68DA6A13464FEA830309
:101E50009B184FEA83031A4640F2E413C2F20003D0
:101E6000D3181B68012B0FD94FF001037B610BE0E6
:101E700040F2C823C2F200031B6803F1010240F2E2
:101E8000C823C2F200031A6040F2CC23C2F200035E
:101E90001B68002B02D04FF001037B617B69184661
:101EA00007F11807BD4680BD90B585B000AF40F280
:101EB000D823C2F200031B68002B07D040F2CC23CA
:101EC000C2F200034FF001021A608FE040F2CC230F
:101ED000C2F200034FF000021A6040F2E013C2F2B7
:101EE00000031B681A6840F2E013C2F200031B688B
:101EF0001B6B9A420FD840F2E013C2F200031A683B
:101F000040F2E013C2F200031B6803F134031046F1
:101F10001946FFF7DBF940F2E013C2F200031B6839
:101F20001B6B184646F6F471C0F600014FF0140220
:101F300004F01EFE0346002B0FD040F2E013C2F265
:101F400000031A6840F2E013C2F200031B6803F1B9
:101F5000340310461946FFF7B9F940F2C023C2F224
:101F600000031B687B607B68B3FA83F4FC70FB782A
:101F7000C3F11F03FB60FA6813464FEA83039B1803
:101F80004FEA83031A4640F2E413C2F20003D31867
:101F90001B68002B02D101F0D7FCFEE7FA6813465C
:101FA0004FEA83039B184FEA83031A4640F2E41377
:101FB000C2F20003D318BB60BB685B685A68BB6899
:101FC0005A60BB685A68BB6803F108039A4204D19F
:101FD000BB685B685A68BB685A60BB685B68DB6853
:101FE0001A4640F2E013C2F200031A6007F1140728
:101FF000BD4690BD80B584B000AF786039607B6825
:10200000002B02D101F0A0FCFEE740F2E013C2F287
:1020100000031B6803F118037868194601F016FAEB
:1020200040F2E013C2F200031B6803F104031846F8
:1020300001F046FA0346002B16D140F2E013C2F23B
:1020400000031B68DB6A4FF0010202FA03F36FEA38
:10205000030240F2C023C2F200031B681A4040F2A0
:10206000C023C2F200031A603B68B3F1FF3F0ED1F8
:1020700040F2E013C2F200031B6803F1040340F2D4
:10208000A420C2F20000194601F0BCF90AE040F2B7
:10209000BC23C2F200031A683B68D318FB60F868DF
:1020A00000F002FA07F11007BD4680BD80B584B08C
:1020B00000AF78607B68DB68DB68BB60BB68002BC7
:1020C00002D101F041FCFEE7BB6803F1180318469A
:1020D00001F0F6F940F2D823C2F200031B68002B8E
:1020E0002CD1BB6803F10403184601F0E9F9BB6881
:1020F000DB6A4FF0010202FA03F240F2C023C2F29F
:1021000000031B681A4340F2C023C2F200031A60A6
:10211000BB68DA6A13464FEA83039B184FEA8303CE
:102120001A4640F2E413C2F20003D218BB6803F16E
:1021300004031046194601F065F909E0BB6803F194
:10214000180340F27820C2F20000194601F05AF953
:10215000BB68DA6A40F2E013C2F200031B68DB6A74
:102160009A420AD94FF00103FB6040F2CC23C2F23D
:1021700000034FF001021A6002E04FF00003FB6021
:10218000FB68184607F11007BD4680BD80B582B0D8
:1021900000AF78607B68002B02D101F0D5FBFEE731
:1021A00040F2D023C2F200031A687B681A6040F242
:1021B000BC23C2F200031A687B685A6007F1080763
:1021C000BD4680BD80B584B000AF786039607B6863
:1021D000002B02D101F0B8FBFEE73B68002B02D1D7
:1021E00001F0B2FBFEE701F063FB40F2BC23C2F258
:1021F00000031B68BB603B681B68B3F1FF3F03D162
:102200004FF00003FB602CE07B681A6840F2D0239B
:10221000C2F200031B689A4208D07B685A68BB6808
:102220009A4203D84FF00103FB601AE07B685B68B9
:10223000BA68D21A3B681B689A420FD23B681A6888
:102240007B685968BB68CB1AD2183B681A607868FB
:10225000FFF79CFF4FF00003FB6002E04FF001032B
:10226000FB6001F04DFBFB68184607F11007BD4607
:1022700080BD00BF80B400AF40F2CC23C2F20003A7
:102280004FF001021A60BD4680BC704780B582B035
:1022900000AF786000F0BCF840F2E413C2F2000333
:1022A0001B68012B01D901F0F3FAFFF715F8F1E7EC
:1022B00080B586B000AFF860B9607A603B604FF0DF
:1022C00000037B6113E0BA687B69D3181A78F96858
:1022D0007B69CB1803F130031A71BA687B69D31894
:1022E0001B78002B07D07B6903F101037B617B69BD
:1022F000092BE8D900E000BFFB684FF0000283F82B
:102300003D207B68042B02D94FF004037B60FB68FF
:102310007A68DA62FB687A681A64FB684FF0000238
:102320005A64FB6803F10403184601F05DF8FB688A
:1023300003F11803184601F057F8FB68FA681A61B0
:102340007B68C3F10502FB689A61FB68FA685A6210
:10235000FB684FF000029A64FB684FF0000283F8BC
:102360004C2007F11807BD4680BD00BF80B582B084
:1023700000AF4FF000037B6013E07A6813464FEA2A
:1023800083039B184FEA83031A4640F2E413C2F218
:102390000003D318184601F003F87B6803F101032A
:1023A0007B607B68042BE8D940F24820C2F2000031
:1023B00000F0F6FF40F25C20C2F2000000F0F0FFF7
:1023C00040F27820C2F2000000F0EAFF40F28C20D8
:1023D000C2F2000000F0E4FF40F2A420C2F20000CC
:1023E00000F0DEFF40F27023C2F2000340F2482208
:1023F000C2F200021A6040F27423C2F2000340F2FB
:102400005C22C2F200021A6007F10807BD4680BDD7
:1024100080B582B000AF3CE0FFF776FB40F28C2342
:10242000C2F200031B68002B14BF002301237B6052
:10243000FFF77CFB7B68002B2BD101F039FA40F2CF
:102440008C23C2F20003DB68DB683B603B6803F16E
:102450000403184601F034F840F2B823C2F2000336
:102460001B6803F1FF3240F2B823C2F200031A6086
:1024700040F2A023C2F200031B6803F1FF3240F2D6
:10248000A023C2F200031A6001F03AFA386800F0A3
:102490008FF840F2A023C2F200031B68002BBBD1CF
:1024A00007F10807BD4680BD80B582B000AF7860F7
:1024B00040F2E013C2F200031B687A685A6040F2EF
:1024C000BC23C2F200031B687A689A4210D240F221
:1024D0007423C2F200031A6840F2E013C2F2000350
:1024E0001B6803F104031046194600F0AFFF1DE01E
:1024F00040F27023C2F200031A6840F2E013C2F205
:1025000000031B6803F104031046194600F09EFF08
:1025100040F29C03C2F200031B687A689A4205D21B
:1025200040F29C03C2F200037A681A6007F10807C0
:10253000BD4680BD80B584B000AF03463960FB80E6
:102540003B68002B07D1FB884FEA8303184603F052
:1025500019FA034600E03B68BB60BB68002B10D053
:102560004FF0500003F00EFA0346FB60FB68002BAF
:1025700003D0FB68BA681A6306E0B86803F0B4FADF
:1025800002E04FF00003FB60FB68002B0AD0FB6801
:102590001A6BFB884FEA830310464FF0A5011A46D9
:1025A00004F0BAFBFB68184607F11007BD4680BD72
:1025B00080B582B000AF78607B681B6B184603F073
:1025C00093FA786803F090FA07F10807BD4680BDDA
:1025D00080B483B000AF40F27023C2F200031B68E6
:1025E0001B68002B02D14FF0010301E04FF0000304
:1025F000002B07D040F29C03C2F200034FF0FF32E1
:102600001A600EE040F27023C2F200031B68DB6820
:10261000DB687B607B685A6840F29C03C2F200036F
:102620001A6007F10C07BD4680BC704780B584B0C6
:1026300000AF78607B68FB607B68002B00F09680C1
:10264000FB68DA6A40F2E013C2F200031B68DB6A3F
:102650009A4280F08B80FB689B69002B09DB40F27B
:10266000E013C2F200031B68DB6AC3F10502FB68DA
:102670009A61FB685969FB68DA6A13464FEA83037B
:102680009B184FEA83031A4640F2E413C2F2000398
:10269000D318994202D14FF0010301E04FF000033B
:1026A000002B5BD0FB6803F10403184600F008FF21
:1026B0000346002B23D1FB68DA6A13464FEA8303F3
:1026C0009B184FEA83031A4640F2E413C2F2000358
:1026D000D3181B68002B12D1FB68DB6A4FF0010294
:1026E00002FA03F36FEA030240F2C023C2F20003CE
:1026F0001B681A4040F2C023C2F200031A6040F285
:10270000E013C2F200031B68DA6AFB68DA62FB6856
:10271000DB6A4FF0010202FA03F240F2C023C2F278
:1027200000031B681A4340F2C023C2F200031A6080
:10273000FB68DA6A13464FEA83039B184FEA830368
:102740001A4640F2E413C2F20003D218FB6803F108
:1027500004031046194600F055FE07E040F2E0136E
:10276000C2F200031B68DA6AFB68DA6207F110073D
:10277000BD4680BD80B584B000AF78607B68BB602B
:102780004FF00003FB607B68002B76D0BB685B6C6E
:10279000002B02D101F0D8F8FEE7BB685B6C03F1B7
:1027A000FF32BB685A64BB68DA6ABB681B6C9A422A
:1027B00063D0BB685B6C002B5FD1BB6803F1040383
:1027C000184600F07DFE0346002B23D1BB68DA6A71
:1027D00013464FEA83039B184FEA83031A4640F2DD
:1027E000E413C2F20003D3181B68002B12D1BB689C
:1027F000DB6A4FF0010202FA03F36FEA030240F2D0
:10280000C023C2F200031B681A4040F2C023C2F288
:1028100000031A60BB681A6CBB68DA62BB68DB6ACB
:10282000C3F10502BB689A61BB68DB6A4FF0010225
:1028300002FA03F240F2C023C2F200031B681A43FB
:1028400040F2C023C2F200031A60BB68DA6A134682
:102850004FEA83039B184FEA83031A4640F2E413BE
:10286000C2F20003D218BB6803F1040310461946F4
:1028700000F0C8FD4FF00103FB60FB68184607F14C
:102880001007BD4680BD00BF80B400AF40F2E0132A
:10289000C2F200031B68002B08D040F2E013C2F222
:1028A00000031B685A6C02F101025A6440F2E01303
:1028B000C2F200031B681846BD4680BC704700BFCB
:1028C00080B487B000AF786039604FF000037B615F
:1028D0004FF000033B614FF00003FB604FF000033B
:1028E0007B618FE07B694FF0010202FA03F33B61E9
:1028F0003B681A683B6902EA0303FB60FA683B69BC
:102900009A427BD17B681B681A467B694FEA430376
:102910004FF0030101FA03F36FEA03031A407B68E7
:102920001A607B681B681A463B681B7919467B69ED
:102930004FEA430301FA03F31A437B681A603B68CA
:102940001B79012B03D03B681B79022B38D17B68A4
:102950009B681A467B694FEA43034FF0030101FA73
:1029600003F36FEA03031A407B689A607B689B68F5
:102970001A463B685B7919467B694FEA430301FAC3
:1029800003F31A437B689A607B685B681A467B692D
:102990009BB24FF0010101FA03F36FEA03031A40FF
:1029A0007B685A607B685B681A463B689B7919466E
:1029B0007B699BB201FA03F39BB21A437B685A60AE
:1029C0007B68DB681A467B699BB24FEA43034FF092
:1029D000030101FA03F36FEA03031A407B68DA602C
:1029E0007B68DB681A463B68DB7919467B694FEAEE
:1029F000430301FA03F31A437B68DA607B6903F14E
:102A000001037B617B690F2B7FF66CAF07F11C071D
:102A1000BD4680BC704700BF80B485B000AF786011
:102A200013460A467A807B704FF00003FB604FF03C
:102A30000003BB607A787B8803F007034FEA8303C7
:102A400002FA03F3FB607B884FEAD3039BB21A467A
:102A50007B884FEAD3039BB219467B6801F10801DA
:102A600053F8213019467B8803F007034FEA8303AC
:102A70004FF00F0000FA03F36FEA030319407B687D
:102A800002F1080243F822107B884FEAD3039BB27D
:102A90001A467B6802F1080253F822301A46FB6896
:102AA00042EA0303BB607B884FEAD3039BB21A461A
:102AB0007B6802F10802B96843F8221007F1140795
:102AC000BD4680BC704700BF80B588B000AF0346EC
:102AD000FB804FF00003FB834FF004004FF0010137
:102AE000FEF766FD40F2A003C2F200031A6841F24D
:102AF0005973CDF2B713A3FB02134FEA93339BB282
:102B000003F1FF33FB83FB887B61FB8B3B824FF040
:102B100000033B834FF000037B8207F110034FF467
:102B20000060C4F20000194603F080F94FF4006021
:102B3000C4F200004FF0010103F020FA4FF440709E
:102B400002F098FE4FF01E033B734FF00E037B73B1
:102B50004FF00103BB734FF00103FB7307F10C034C
:102B6000184602F09BFE4FF40060C4F200004FF0E4
:102B7000010103F079FB4FF40060C4F200004FF054
:102B800001014FF0000203F005FB4FF40060C4F2B6
:102B900000004FF0000103F011FA4FF00103184656
:102BA00007F12007BD4680BD80B500AF4FF400603F
:102BB000C4F200004FF0010103F056FB4FF4006037
:102BC000C4F200004FF001014FF0010203F0E2FAFD
:102BD0004FF40060C4F200004FF0000103F0C0F9B0
:102BE0004FF40060C4F200004FF0010103F0E6F979
:102BF00080BD00BF80B500AF4FF40060C4F200009C
:102C00004FF0000103F0DAF94FF40060C4F2000065
:102C10004FF0000103F0A4F94FF40060C4F200008B
:102C20004FF001014FF0000203F0B4FA4FF40060DE
:102C3000C4F200004FF0010103F016FB80BD00BF9D
:102C400098B500AF4FF40060C4F200004FF00101EE
:102C500003F00AFB40F2DC23C2F200031B689C6A0B
:102C600040F2DC23C2F200031B6803F1680140F26A
:102C7000DC23C2F200031B6803F1500240F2DC23A4
:102C8000C2F200031B6803F16403084611461A46AA
:102C9000A04798BD80B483B000AF786040F2DC23D9
:102CA000C2F200037A681A6040F2DC23C2F2000329
:102CB0001B684FF000021A6640F2DC23C2F20003E8
:102CC0001A6842F6F533C0F60003D36540F2DC2300
:102CD000C2F200031A6842F6A933C0F600039365F6
:102CE00040F2DC23C2F200031B684FF000025A6579
:102CF00040F2DC23C2F200031A6842F6C923C0F690
:102D00000003136507F10C07BD4680BC704700BF88
:102D100080B588B000AF0346FB804FF00003FB8313
:102D20004FF008004FF00101FEF742FC40F2A00313
:102D3000C2F200031A6841F25973CDF2B713A3FB34
:102D400002134FEA93339BB203F1FF33FB83FB88FB
:102D50007B61FB8B3B824FF000033B834FF0000312
:102D60007B8207F110034FF44060C4F20000194663
:102D700003F05CF84FF44060C4F200004FF0010132
:102D800003F0FCF84FF4407002F074FD4FF0320392
:102D90003B734FF00E037B734FF00103BB734FF097
:102DA0000103FB7307F10C03184602F077FD4FF4A3
:102DB0004060C4F200004FF0010103F055FA4FF4F7
:102DC0004060C4F200004FF001014FF0000203F038
:102DD000E1F94FF44060C4F200004FF0000103F04D
:102DE000EDF84FF00103184607F12007BD4680BDFE
:102DF00080B500AF4FF44060C4F200004FF0010115
:102E000003F032FA4FF44060C4F200004FF00101C9
:102E10004FF0010203F0BEF94FF44060C4F200002D
:102E20004FF0000103F09CF84FF44060C4F2000042
:102E30004FF0010103F0C2F880BD00BF80B500AFC4
:102E40004FF44060C4F200004FF0000103F0B6F808
:102E50004FF44060C4F200004FF0000103F080F82E
:102E60004FF44060C4F200004FF001014FF0000247
:102E700003F090F94FF44060C4F200004FF00101FC
:102E800003F0F2F980BD00BF98B500AF4FF4406089
:102E9000C4F200004FF0010103F0E6F940F2E02334
:102EA000C2F200031B689C6A40F2E023C2F20003F6
:102EB0001B6803F1680140F2E023C2F200031B68C3
:102EC00003F1500240F2E023C2F200031B6803F159
:102ED0006403084611461A46A04798BD80B483B0E3
:102EE00000AF786040F2E023C2F200037A681A6013
:102EF00040F2E023C2F200031B684FF000021A66A2
:102F000040F2E023C2F200031A6842F63D63C0F6C5
:102F10000003D36540F2E023C2F200031A6842F6D0
:102F2000F153C0F60003936540F2E023C2F20003C0
:102F30001B684FF000025A6540F2E023C2F2000322
:102F40001A6842F61153C0F60003136507F10C0727
:102F5000BD4680BC704700BF90B587B000AFF86039
:102F6000B960FA71BB714FF00003FB75FDF70CF906
:102F7000FB685C68BA7997F82C301046B96A4FF054
:102F80000802A0470346012B03D04FF00303FB7553
:102F90001DE0BB6AB3F5964F03D94FF023033B61A5
:102FA00009E0BB6A4FEA430247F6A073C0F2170379
:102FB000B3FBF2F33B61BB681B683A6992B21046FF
:102FC00098470346012B02D04FF00303FB75FDF732
:102FD000E1F8FB7D184607F11C07BD4690BD00BF18
:102FE00080B584B000AFF860B9607A60FDF7CCF8C6
:102FF000FB684FF000025A70BB681B684FF001007D
:103000004FF0000198477B689B689847FDF7C2F82E
:1030100007F11007BD4680BD80B582B000AF786073
:103020003960FDF7B1F87B681B684FF000004FF086
:10303000000198473B68DB689847FDF7ABF807F15C
:103040000807BD4680BD00BF80B586B000AFF86000
:10305000B9607A603B604FF00003BB754FF000032E
:10306000FB75FDF791F8FB68B3F80A319BB2032BAF
:1030700026D9FB6803F10202FB68B3F80A319BB260
:1030800010461946FEF734F90346002B18D1FB68A9
:103090009B78DAB2BB681A70FB68B3F80A319BB24E
:1030A000A3F103039AB23B681A80FB6803F10203A1
:1030B00003F101027B681A604FF00103BB7502E067
:1030C0004FF00503FB75FDF765F8FB7D184607F12A
:1030D0001807BD4680BD00BF80B586B000AFF86060
:1030E000B9603B601346FB714FF00003FB75FDF7C1
:1030F0004BF8FB685B78DBB2012B55D13B6803F1E1
:10310000FF32FB68C3F80421FB684FF00102A3F80B
:103110000821FB68D3F80431FA791A70FB68B3F818
:1031200008319AB23B8CD3189AB2FB68A3F80821F5
:10313000FB68D3F80421FB68B3F808319BB2104652
:103140001946FEF7D5F80346BB82FB68B3F8083191
:103150009BB21A46B98AC9B2F8688218917003F115
:1031600001039AB2FB68A3F80821FB68B3F80831A1
:103170009BB21A46B98A4FEA112189B2C9B2F868DE
:103180008218917003F101039AB2FB68A3F8082139
:10319000FB684FF001021A70BB681B684FF000001B
:1031A0004FF00101984702E04FF00503FB75FCF773
:1031B000F1FFFB7D184607F11807BD4680BD00BF33
:1031C00080B586B000AFF860B9607A604FF0000358
:1031D000FB757B68DB6807F1160210469847FB68B1
:1031E0005B78DBB2032B4DD801A252F823F000BF6D
:1031F0000132000811320008493200080932000883
:10320000BB689B6898473DE0BB689B68984739E07E
:10321000FB684FF00002A3F80A21FB68B3F80A31FB
:103220009BB21A46B97DF8688218917003F10103C8
:103230009AB2FB68A3F80A21FB684FF002025A70A9
:10324000BB689B6898471DE0FB68B3F80A319BB2E6
:10325000FF2B0FD8FB68B3F80A319BB21A46B97D31
:10326000F8688218917003F101039AB2FB68A3F821
:103270000A2103E0FB684FF003025A70BB689B68A9
:10328000984700BFFB7D184607F11807BD4680BD73
:1032900080B586B000AFF860B9607A604FF0000387
:1032A000FB75FB681B78DBB2002B02D0012B08D02A
:1032B00040E0BB681B684FF001004FF000019847E9
:1032C00038E0FB68B3F808319BB2002B1DD0BB6817
:1032D0009B68FA68D2F804211278D2B2D2B252B204
:1032E00010469847FB68D3F8043103F10102FB68EC
:1032F000C3F80421FB68B3F808319BB203F1FF3334
:103300009AB2FB68A3F8082114E007F104031846F9
:103310004FF00301FDF7FEFA0346FB75BB681B681F
:103320004FF001004FF000019847FB684FF000029A
:103330001A7000BFFB7D184607F11807BD4680BD17
:1033400080B586B000AFF860B9607A604FF00003D6
:10335000FB75FB685B78DBB2022B0BD0032B11D023
:10336000002B10D178684FF00001FDF7D3FA034627
:10337000FB7508E078684FF00101FDF7CBFA0346D2
:10338000FB7500E000BFBB68DB689847FB684FF047
:1033900001025A70FB7D184607F11807BD4680BD33
:1033A00080B483B000AF78607B6803F108031A46ED
:1033B0007B685A607B684FF0FF329A607B6803F14C
:1033C00008031A467B68DA607B6803F108031A4633
:1033D0007B681A617B684FF000021A6007F10C07E6
:1033E000BD4680BC704700BF80B483B000AF78603A
:1033F0007B684FF000021A6107F10C07BD4680BCE4
:10340000704700BF80B485B000AF786039607B68DA
:103410005B68FB603B68FA685A60FB689A683B68C7
:103420009A60FB689B683A685A60FB683A689A60E1
:103430003B687A681A617B681B6803F101027B684C
:103440001A6007F11407BD4680BC704780B485B090
:1034500000AF786039603B681B68BB60BB68B3F144
:10346000FF3F03D17B681B69FB600DE07B6803F1C4
:103470000803FB6002E0FB685B68FB60FB685B685D
:103480001A68BB689A42F6D9FB685A683B685A606A
:103490003B685B683A689A603B68FA689A60FB68C8
:1034A0003A685A603B687A681A617B681B6803F166
:1034B00001027B681A6007F11407BD4680BC7047A3
:1034C00080B485B000AF78607B681B69FB607B6867
:1034D0005B687A6892689A607B689B687A685268D1
:1034E0005A60FB685A687B689A4203D17B689A6885
:1034F000FB685A607B684FF000021A61FB681B682A
:1035000003F1FF32FB681A60FB681B68184607F17D
:103510001407BD4680BC704780B500AF4FF46053C0
:10352000C4F202034FF46052C4F20202126842F085
:1035300001021A604FF46053C4F202034FF000021C
:103540009A604FF46053C4F202034FF46052C4F225
:103550000202126822F0847222F480321A604FF460
:103560006053C4F2020343F21002C2F200425A60F6
:103570004FF46053C4F202034FF46052C4F20202EB
:10358000126822F480221A604FF46053C4F20203DE
:103590004FF00002DA6000F009F84FF46D43CEF20C
:1035A00000034FF000629A6080BD00BF80B483B01A
:1035B00000AF4FF000037B604FF000033B604FF41F
:1035C0006053C4F202034FF46052C4F20202126864
:1035D00042F480321A604FF46053C4F202031B6855
:1035E00003F400333B607B6803F101037B603B68BD
:1035F000002B03D17B68B3F5A06FECD14FF460537F
:10360000C4F202031B6803F40033002B03D04FF015
:1036100001033B6002E04FF000033B603B68012B7D
:1036200046D14FF46053C4F202034FF46052C4F227
:10363000020292689A604FF46053C4F202034FF49E
:103640006052C4F2020292689A604FF46053C4F26E
:1036500002034FF46052C4F2020292689A604FF47F
:103660007053C4F202034FF4E0621A604FF46053E7
:10367000C4F202034FF46052C4F20202926822F0D4
:1036800003029A604FF46053C4F202034FF4605295
:10369000C4F20202926842F001029A6000BF4FF445
:1036A0006053C4F202039B6803F00C03042BF6D1B1
:1036B00007F10C07BD4680BC704700BF80B485B0E1
:1036C00000AFF860B9607A60FB68A3F10403FB60A7
:1036D000FB684FF080721A60FB68A3F10403FB6083
:1036E000BA68FB681A60FB68A3F10403FB6043F24D
:1036F0002173C0F60003FA681360FB68A3F114039A
:10370000FB607A68FB681A60FB68A3F12003FB602A
:10371000FB68184607F11407BD4680BC704700BF20
:1037200080B500AF40F2B403C2F200031B68B3F1EE
:10373000FF3F02D000F008F9FEE700F005F9FEE7D0
:10374000074B19680868B0E8F00F80F30988BFF3E9
:103750006F8F4FF0000080F311884EF00D0E704710
:10376000E001002006480068006880F3088862B61F
:1037700061B6BFF34F8FBFF36F8F00DF00BF000054
:1037800008ED00E080B584B000AF4FF46443CEF2A2
:103790000003FB60FB681B78DBB2BB60FB684FF08B
:1037A000FF021A70FB681B78DBB2FB71FB79DBB29E
:1037B00003F05003DAB240F2E423C2F200031A70BD
:1037C00040F2E823C2F200034FF007021A6011E052
:1037D00040F2E823C2F200031B6803F1FF3240F21B
:1037E000E823C2F200031A60FB79DBB24FEA43031D
:1037F000DBB2FB71FB79DBB2DBB25BB2002BE7DB48
:1038000040F2E823C2F200031B684FEA032240F2B1
:10381000E823C2F200031A6040F2E823C2F2000378
:103820001B6803F4E06240F2E823C2F200031A606E
:10383000BB68DAB2FB681A704EF62053CEF2000372
:103840004EF62052CEF20002126842F470021A6064
:103850004EF62053CEF200034EF62052CEF2000276
:10386000126842F070421A6000F0B4F840F2B403FB
:10387000C2F200034FF000021A60FFF773FFFFF778
:103880004FFF4FF00003184607F11007BD4680BDFB
:1038900080B400AF4EF60453CEF200034FF08052D6
:1038A0001A60BFF34F8FBFF36F8FBD4680BC704768
:1038B00080B500AF00F048F840F2B403C2F2000354
:1038C0001B6803F1010240F2B403C2F200031A6064
:1038D000BFF34F8FBFF36F8F40F2B403C2F2000308
:1038E0001B68012B0BD14EF60453CEF200031B686C
:1038F00003F0FF03002B02D000F026F8FEE780BDA6
:1039000080B500AF40F2B403C2F200031B68002B85
:1039100002D100F019F8FEE740F2B403C2F200034E
:103920001B6803F1FF3240F2B403C2F200031A60D5
:1039300040F2B403C2F200031B68002B03D14FF026
:10394000000000F00BF880BDEFF311804FF0500144
:1039500081F3118870474FF00003184680F31188F7
:10396000704700BFEFF30980BFF36F8F0D4B1A68EC
:1039700020E9F00F10602DE908404FF0500080F36F
:103980001188FEF791FA4FF0000080F31188BDE82E
:10399000084019680868B0E8F00F80F30988BFF3A1
:1039A0006F8F7047E001002080B500AFFFF7CCFFBC
:1039B000FEF778F90346002B06D04EF60453CEF2FC
:1039C00000034FF080521A604FF00000FFF7C6FF6F
:1039D00080BD00BF80B400AF4EF21403CEF20003EE
:1039E00044F61F621A604EF21003CEF200034FF04D
:1039F00007021A60BD4680BC704700BF90B583B017
:103A000000AFEFF305847C607B680F2B13D947F27E
:103A10000803C0F600031A687B68D3181B78FB7094
:103A200040F2E423C2F200031B78FA789A4202D2F1
:103A3000FFF78AFFFEE74EF60C53CEF200031B6839
:103A400003F4E06240F2E823C2F200031B689A42EA
:103A500002D9FFF779FFFEE707F10C07BD4690BDDD
:103A600080B584B000AF786039607B68FB60FB682C
:103A7000002B02D1FFF768FFFEE7FFF719FFFB6895
:103A80001A68FB68DB6BF968096C01FB03F3D21859
:103A9000FB685A60FB684FF000029A63FB681A6883
:103AA000FB689A60FB681A68FB68DB6B03F1FF3305
:103AB000F968096C01FB03F3D218FB68DA60FB6854
:103AC0004FF0FF325A64FB684FF0FF329A643B6854
:103AD000002B0FD1FB681B69002B17D0FB6803F18B
:103AE00010031846FEF7E2FA0346012B0ED1FFF74A
:103AF000CFFE0BE0FB6803F110031846FFF750FC04
:103B0000FB6803F124031846FFF74AFCFFF7F8FEB1
:103B10004FF00103184607F11007BD4680BD00BFF6
:103B200080B588B000AFF860B9601346FB714FF004
:103B30000003BB61FB68002B02D1FFF705FFFEE726
:103B4000BB68002B03D14FF00003FB6106E0FB686C
:103B5000BA6802FB03F303F10103FB61FB6903F1A4
:103B60004C03184601F00EFF03467B617B69002B76
:103B70001AD07B693B61BB68002B03D13A693B6972
:103B80001A6004E07B6903F14C023B691A603B69EF
:103B9000FA68DA633B69BA681A6438694FF0010160
:103BA000FFF75EFF3B69BB61BB69002B02D1FFF7EA
:103BB000CBFEFEE7BB69184607F12007BD4680BD76
:103BC00080B588B000AFF860B9607A603B60FB6890
:103BD000BB61BB69002B02D1FFF7B6FEFEE7BB68F5
:103BE000002B03D1BB691B6C002B02D14FF00103EA
:103BF00001E04FF00003002B02D1FFF7A5FEFEE726
:103C00003B68022B03D1BB69DB6B012B02D14FF068
:103C1000010301E04FF00003002B02D1FFF794FEF7
:103C2000FEE7FFF7EBFEFFF78FFE7861BB699B6B4A
:103C30001A46BB69DB6B9A4202D33B68022B28D140
:103C4000B869B9683A6800F025F9BB699B6CB3F1B3
:103C5000FF3F14D1BB695B6A002B16D0BB6903F12F
:103C600024031846FEF722FA0346002B0DD07B688A
:103C7000002B0AD07B684FF001021A6005E0BB6997
:103C80009B6C03F10102BB699A644FF00103FB6175
:103C900002E04FF00003FB617869FFF75FFEFB690C
:103CA000184607F12007BD4680BD00BF80B58AB029
:103CB00000AFF860B9607A603B604FF000037B6250
:103CC000FB683B623B6A002B02D1FFF73DFEFEE73B
:103CD000BB68002B03D13B6A1B6C002B02D14FF059
:103CE000010301E04FF00003002B03D1FFF72CFE8E
:103CF000FEE700BFFFF7DCFD3B6A9B6B002B40D06B
:103D00003B6ADB68FB61386AB96800F037F93B68E9
:103D1000002B1FD13B6A9B6B03F1FF323B6A9A6316
:103D20003B6A1B68002B05D1FEF7AEFD03461A4621
:103D30003B6A5A603B6A1B69002B1DD03B6A03F14A
:103D400010031846FEF7B2F90346012B14D1FFF712
:103D50009FFD11E03B6AFA69DA603B6A5B6A002BFF
:103D60000AD03B6A03F124031846FEF79FF9034685
:103D7000002B01D0FFF78CFDFFF7C2FD4FF00103D0
:103D80006BE07B68002B04D1FFF7BAFD4FF0000316
:103D900063E07B6A002B07D107F114031846FEF796
:103DA000F5F94FF001037B62FFF7AAFDFDF7ACFECA
:103DB000FFF77EFD3B6A5B6CB3F1FF3F03D13B6ACB
:103DC0004FF000025A643B6A9B6CB3F1FF3F03D192
:103DD0003B6A4FF000029A64FFF792FD07F114026C
:103DE00007F1040310461946FEF7ECF90346002BD1
:103DF0002CD1386A00F03AF90346002B20D03B6AF8
:103E00001B68002B08D1FFF753FD3B6A5B6818461F
:103E1000FEF70CFCFFF774FD3B6A03F124027B689C
:103E200010461946FEF7E6F8386A00F0CFF8FDF7BD
:103E30007DFE0346002B7FF45CAFFFF729FD59E7B9
:103E4000386A00F0C3F8FDF771FE53E7386A00F0F6
:103E5000BDF8FDF76BFE4FF00003184607F1280789
:103E6000BD4680BD80B584B000AF78607B68002B14
:103E700002D1FFF769FDFEE7FFF71AFD7B689B6B38
:103E8000FB60FFF73DFDFB68184607F11007BD46D4
:103E900080BD00BF80B586B000AFF860B9607A60C1
:103EA0004FF000037B61FB681B6C002B0ED1FB689D
:103EB0001B68002B56D1FB685B681846FEF75AFC5E
:103EC0007861FB684FF000025A604BE07B68002B82
:103ED0001AD1FB689A68FB681B6C1046B9681A46D1
:103EE00002F072FEFB689A68FB681B6CD218FB68D4
:103EF0009A60FB689A68FB685B689A4232D3FB68F9
:103F00001A68FB689A602DE0FB68DA68FB681B6C36
:103F10001046B9681A4602F057FEFB68DA68FB687B
:103F20001B6CC3F10003D218FB68DA60FB68DA6827
:103F3000FB681B689A4208D2FB685A68FB681B6CD6
:103F4000C3F10003D218FB68DA607B68022B09D149
:103F5000FB689B6B002B05D0FB689B6B03F1FF326A
:103F6000FB689A63FB689B6B03F10102FB689A6331
:103F70007B69184607F11807BD4680BD80B582B041
:103F800000AF786039607B681B6C002B19D07B68B0
:103F9000DA687B681B6CD2187B68DA607B68DA6849
:103FA0007B685B689A4203D37B681A687B68DA6037
:103FB0007B68DA687B681B6C386811461A4602F029
:103FC00003FE07F10807BD4680BD00BF80B582B083
:103FD00000AF7860FFF76CFC14E07B685B6A002B35
:103FE00015D07B6803F124031846FEF75FF80346FB
:103FF000002B01D0FEF73EF97B689B6C03F1FF328A
:104000007B689A647B689B6C002BE6DC00E000BF59
:104010007B684FF0FF329A64FFF772FCFFF748FCB1
:1040200014E07B681B69002B15D07B6803F110033B
:104030001846FEF73BF80346002B01D0FEF71AF9AD
:104040007B685B6C03F1FF327B685A647B685B6C56
:10405000002BE6DC00E000BF7B684FF0FF325A64C3
:10406000FFF74EFC07F10807BD4680BD80B584B060
:1040700000AF7860FFF71CFC7B689B6B002B03D1C3
:104080004FF00103FB6002E04FF00003FB60FFF71D
:1040900037FCFB68184607F11007BD4680BD00BF1E
:1040A00080B483B000AF0346FB714FF46143CEF29E
:1040B000000397F907204FEA5212F97901F01F0126
:1040C0004FF0010000FA01F143F8221007F10C074C
:1040D000BD4680BC704700BF90B583B000AF0246BC
:1040E0000B46FA71BB71FB79012B26D14FF490403E
:1040F000C4F2000040F225514FF00102FCF788FDA8
:104100004FF48063C4F202034FF48062C4F20202EF
:10411000528B92B242F0020292B25A834FF4806301
:10412000C4F202034FF48062C4F20202528B92B2D4
:1041300042F0040292B25A8325E04FF49040C4F258
:10414000000040F225514FF00002FCF761FD4FF4F2
:104150008063C4F202034FF48062C4F20202128B45
:1041600092B242F0020292B21A834FF48063C4F218
:1041700002034FF48062C4F20202128B92B242F048
:10418000040292B21A83BB79012B45D14FF49040BF
:10419000C4F2000040F226614FF00102FCF738FD46
:1041A0004FF48063C4F202034FF48062C4F202024F
:1041B000128B92B242F0020292B21A834FF48063E1
:1041C000C4F202034FF48062C4F20202128B92B274
:1041D00042F0040292B21A8340F2EC23C2F20003CE
:1041E0001B685C6A40F2EC23C2F200031B6803F117
:1041F000680140F2EC23C2F200031B6803F13802AD
:1042000040F2EC23C2F200031B6803F1640308468A
:1042100011461A46A04725E04FF49040C4F2000032
:1042200040F226614FF00002FCF7F2FC4FF480638D
:10423000C4F202034FF48062C4F20202528B92B2C3
:1042400042F0020292B25A834FF48063C4F2020336
:104250004FF48062C4F20202528B92B242F0040226
:1042600092B25A8307F10C07BD4690BD80B58CB061
:1042700000AFB9600146F973FA71BB714FF4802049
:104280004FF00101FDF794F94FF002004FF00101EA
:10429000FDF760F94FF44063BB624FF0020387F80B
:1042A0002C304FF0020387F82D304FF0000387F8D1
:1042B0002E304FF0010387F82F3007F128034FF419
:1042C0008060C4F202001946FEF7FAFA4FF48060EB
:1042D000C4F202004FF00A014FF00702FEF79CFB08
:1042E0004FF48060C4F202004FF00B014FF0070260
:1042F000FEF792FBBB68BB614FF00003BB834FF03E
:104300000003FB834FF000033B844FF00003BB84AA
:104310004FF00C037B8407F118034FF49040C4F274
:1043200000001946FCF750FB4FF49043C4F2000321
:104330004FF4AE721A814FF00603BB624FF00103D7
:1043400087F82C304FF0000387F82E304FF0000331
:1043500087F82F304FF0020387F82D3007F128033C
:104360004FF48060C4F202001946FEF7A9FA4FF438
:104370009040C4F200004FF0A001FCF7BDFC4FF4E8
:104380009040C4F200004FF00101FCF7FBFB4FF43A
:10439000407001F06FFA4FF027033B754FF00E03AA
:1043A0007B754FF00003BB754FF00103FB7507F100
:1043B0001403184601F072FA4FF02700FFF770FE61
:1043C00040F2EC23C2F200031B689B6B4FF001002C
:1043D0004FF0000198474FF00103184607F13007EE
:1043E000BD4680BD80B582B000AF0346FB7197F932
:1043F00007309BB24FF49040C4F200001946FCF71E
:10440000E1FB00BF4FF49040C4F200004FF0800188
:10441000FCF752FC0346002BF4D04FF00103184682
:1044200007F10807BD4680BD80B582B000AF786057
:104430004FF49040C4F2000040F22551FCF75CFCC0
:104440004FF49040C4F20000FCF7D0FB0346DAB210
:104450007B681A704FF00103184607F10807BD4644
:1044600080BD00BF98B500AF40F2F823C2F2000350
:104470004FF000021A604FF49040C4F2000040F286
:104480002661FCF74BFC0346002B1FD040F2EC23C7
:10449000C2F200031B685C6A40F2EC23C2F2000324
:1044A0001B6803F1680140F2EC23C2F200031B68B1
:1044B00003F1380240F2EC23C2F200031B6803F15F
:1044C0006403084611461A46A04729E04FF490407D
:1044D000C4F2000040F22551FCF720FC0346002BFB
:1044E0001ED040F2EC23C2F200031B681C6A40F2AB
:1044F000EC23C2F200031B6803F1680140F2EC23D5
:10450000C2F200031B6803F1500240F2EC23C2F236
:1045100000031B6803F13803084611461A46A047FA
:1045200040F2F823C2F200031B68002B06D04EF6BF
:104530000453CEF200034FF080521A6098BD00BFC2
:1045400080B483B000AF786040F2EC23C2F2000385
:104550007A681A6040F2EC23C2F200031A6844F24F
:104560006D23C0F60003D36340F2EC23C2F20003D4
:104570001A6844F2D903C0F60003936340F2EC23B7
:10458000C2F200031A6844F2E533C0F60003136474
:1045900040F2EC23C2F200031A6844F22943C0F649
:1045A0000003536440F2EC23C2F200031B684FF097
:1045B00000029A6440F2EC23C2F200031B684FF041
:1045C0000002DA6407F10C07BD4680BC704700BFEB
:1045D00090B583B000AF02460B46FA71BB71FB7910
:1045E000012B0AD14FF49840C4F2000040F225514B
:1045F0004FF00102FCF70CFB09E04FF49840C4F2C5
:10460000000040F225514FF00002FCF701FBBB799E
:10461000012B29D14FF49840C4F2000040F22661EA
:104620004FF00102FCF7F4FA40F2F023C2F200036B
:104630001B685C6A40F2F023C2F200031B6803F1BE
:10464000680140F2F023C2F200031B6803F1380254
:1046500040F2F023C2F200031B6803F16403084632
:1046600011461A46A04709E04FF49840C4F20000F2
:1046700040F226614FF00002FCF7CAFA07F10C077E
:10468000BD4690BD80B58CB000AFB9600146F973EE
:10469000FA71BB714FF400204FF00101FCF788FF65
:1046A0004FF004004FF00101FCF754FF4FF440635A
:1046B000BB624FF0020387F82C304FF0020387F8FB
:1046C0002D304FF0000387F82E304FF0010387F8AC
:1046D0002F3007F128034FF40060C4F2020019469E
:1046E000FEF7EEF84FF40060C4F202004FF00A014A
:1046F0004FF00802FEF790F94FF40060C4F2020098
:104700004FF00B014FF00802FEF786F9BB68BB6162
:104710004FF00003BB834FF00003FB834FF0000317
:104720003B844FF00003BB844FF00C037B8407F104
:1047300018034FF49840C4F200001946FCF744F9FE
:104740004FF49843C4F200034FF4AE721A814FF451
:104750009840C4F200004FF0A001FCF7CDFA4FF4EE
:104760009840C4F200004FF00101FCF70BFA4FF43F
:10477000407001F07FF84FF034033B754FF00E03AB
:104780007B754FF00003BB754FF00103FB7507F11C
:104790001403184601F082F84FF03400FFF780FC54
:1047A00040F2F023C2F200031B689B6B4FF0010044
:1047B0004FF0000198474FF00103184607F130070A
:1047C000BD4680BD80B582B000AF0346FB7197F94E
:1047D00007309BB24FF49840C4F200001946FCF732
:1047E000F1F900BF4FF49840C4F200004FF080018F
:1047F000FCF762FA0346002BF4D04FF00103184691
:1048000007F10807BD4680BD80B582B000AF786073
:104810004FF49840C4F2000040F22551FCF76CFAC6
:104820004FF49840C4F20000FCF7E0F90346DAB216
:104830007B681A704FF00103184607F10807BD4660
:1048400080BD00BF98B500AF40F2F423C2F2000370
:104850004FF000021A604FF49840C4F2000040F29A
:104860002661FCF75BFA0346002B1FD040F2F023D1
:10487000C2F200031B685C6A40F2F023C2F200033C
:104880001B6803F1680140F2F023C2F200031B68C9
:1048900003F1380240F2F023C2F200031B6803F177
:1048A0006403084611461A46A04729E04FF4984091
:1048B000C4F2000040F22551FCF730FA0346002B09
:1048C0001ED040F2F023C2F200031B681C6A40F2C3
:1048D000F023C2F200031B6803F1680140F2F023E9
:1048E000C2F200031B6803F1500240F2F023C2F24F
:1048F00000031B6803F13803084611461A46A04717
:1049000040F2F423C2F200031B68002B06D04EF6DF
:104910000453CEF200034FF080521A6098BD00BFDE
:1049200080B483B000AF786040F2F023C2F200039D
:104930007A681A6040F2F023C2F200031A6844F267
:104940008563C0F60003D36340F2F023C2F2000394
:104950001A6844F2D153C0F60003936340F2F02387
:10496000C2F200031A6844F2C573C0F60003136470
:1049700040F2F023C2F200031A6844F60903C0F6BD
:104980000003536440F2F023C2F200031B684FF0AF
:1049900000029A6440F2F023C2F200031B684FF059
:1049A0000002DA6407F10C07BD4680BC704700BF07
:1049B00080B586B000AF786039604FF00003BB75FA
:1049C0003B681B88052B40F084807B6803F1010362
:1049D0001B784FEA0323BB827B6803F102031B7839
:1049E0001A46BB8A42EA0303BB82BB8A03F1010376
:1049F000BB827B6803F103031B784FEA03237B82AE
:104A00007B6803F104031B781A467B8A42EA03039E
:104A10007B827B8A002B58D07A8A40F2CF739A42ED
:104A200053D87B68FB603B684FF000021A80FB683C
:104A30004FF001021A70FB6803F10103FB603B6851
:104A40001B8803F101039AB23B681A807B8A03F04A
:104A50000703002B08D07B8A4FEAD3039BB2DBB25B
:104A600003F10103FB7504E07B8A4FEAD3039BB299
:104A7000FB75FB68FA7D1A70FB6803F10103FB60AC
:104A80003B681B8803F101039AB23B681A80BA8A1B
:104A90007B8AF86811461A464FF00003FBF716FCB4
:104AA0000346FB72FB7A002B06D0FB7A1846FCF714
:104AB0009BF90346BB750FE03B681A88FB7D9BB2F0
:104AC000D3189AB23B681A8006E04FF00303BB7517
:104AD00002E04FF00303BB75BB7D184607F11807D2
:104AE000BD4680BD80B584B000AF786039604FF0BE
:104AF0000003FB733B681B88052B50D17B6803F1D7
:104B000001031B784FEA0323BB817B6803F1020397
:104B10001B781A46BB8942EA0303BB81BB8903F1B8
:104B20000103BB817B6803F104031B78002B32D1A6
:104B30007B6803F103031B78FF2B05D07B6803F12F
:104B400003031B78002B26D14FF000037B727B6898
:104B500003F103031B78FF2B03D14FF001033B72DA
:104B600002E04FF000033B7207F10802BB891046D8
:104B700019464FF001024FF00103FBF7A7FB034674
:104B8000FB72FB7A002B0DD0FB7A1846FCF72CF950
:104B90000346FB7306E04FF00303FB7302E04FF0A4
:104BA0000303FB73FB7B184607F11007BD4680BD6E
:104BB00080B584B000AF786039604FF00003BB73FC
:104BC0003B681B88052B67D97B6803F101031B78C1
:104BD0004FEA0323BB817B6803F102031B781A466B
:104BE000BB8942EA0303BB81BB8903F10103BB819B
:104BF0007B6803F103031B784FEA03237B817B6807
:104C000003F104031B781A467B8942EA03037B8184
:104C10007B6803F105031B787B727B8903F0070334
:104C2000002B08D07B894FEAD3039BB2DBB203F1A0
:104C30000103FB7304E07B894FEAD3039BB2FB7350
:104C40007B89002B24D07B89B3F5F66F20D8FA7BC3
:104C50007B7A9A421CD17B6803F10601BA897B8971
:104C6000084611461A464FF00103FBF72FFB034697
:104C70003B723B7A002B06D03B7A1846FCF7B4F81F
:104C80000346BB730BE03B684FF005021A8006E059
:104C90004FF00303BB7302E04FF00303BB73BB7B16
:104CA000184607F11007BD4680BD00BF80B483B031
:104CB00000AF0346FB714FF46143CEF2000397F956
:104CC00007204FEA5212F97901F01F014FF001005D
:104CD00000FA01F143F8221007F10C07BD4680BC31
:104CE000704700BF80B58EB004AF4FF48060C4F24F
:104CF000000000F07FFF4FF002004FF00101FCF7D1
:104D000057FC4FF001004FF00101FCF723FC07F1C5
:104D10000403184601F006F94FF00003BB804FF67C
:104D2000FF73BB6007F104034FF48060C4F200001E
:104D3000194601F07BF84FF48060C4F200004FF098
:104D4000010101F03BF94FF0C0033B624FF0020359
:104D500087F824304FF0020387F825304FF0000326
:104D600087F826304FF0010387F8273007F120033A
:104D70004FF00000C4F202001946FDF7A1FD4FF00C
:104D80000000C4F202004FF006014FF00202FDF7EE
:104D900043FE4FF00000C4F202004FF007014FF055
:104DA0000202FDF739FE4FF00003BB824FF0000313
:104DB000FB824FF001033B834FF000037B834FF0F6
:104DC0000503BB8307F114034FF48060C4F20000B5
:104DD000194601F013F94FF00403BB824FF00203B0
:104DE000FB824FF001033B834FF000037B834FF0C6
:104DF0000503BB8307F114034FF48060C4F2000085
:104E0000194601F0FBF84FF01D00FFF74FFF4FF47C
:104E1000407000F02FFD4FF01D033B744FF00E0368
:104E20007B744FF00103BB744FF00103FB7407F177
:104E30001003184600F032FD4FF48060C4F2000009
:104E40004FF006014FF0010201F0A4F94FF4806029
:104E5000C4F200004FF0200101F050FA4FF48060DE
:104E6000C4F200004FF0060101F0BAF94FF0010062
:104E70004FF00101FCF79CFB4FF6FF73BB604FF056
:104E80000003BB804FF00003BB814FF00003FB80A9
:104E900007F104034FF08040194600F0C7FF4FF0C0
:104EA00006033B624FF0020387F824304FF0020301
:104EB00087F825304FF0000387F826304FF00103C4
:104EC00087F8273007F120034FF00000C4F20200FA
:104ED0001946FDF7F5FC4FF00000C4F202004FF058
:104EE00001014FF00102FDF797FD4FF00000C4F201
:104EF00002004FF002014FF00102FDF78DFD4FF06F
:104F00000403BB824FF00003FB824FF001033B839D
:104F10004FF000037B834FF00503BB8307F11403BD
:104F20004FF08040194601F069F84FF00803BB824A
:104F30004FF00203FB824FF001033B834FF000036D
:104F40007B834FF00503BB8307F114034FF08040D0
:104F5000194601F053F84FF080404FF0010101F085
:104F60000DF84FF080404FF0200101F0A9F94FF00B
:104F700080404FF0800101F0F9F94FF080404FF090
:104F8000070101F0D7F94FF080404FF0010101F027
:104F900015F84FF480533B624FF0020387F824303A
:104FA0004FF0020387F825304FF0000387F82630D2
:104FB0004FF0010387F8273007F120034FF000007E
:104FC000C4F202001946FDF77BFC4FF00000C4F26A
:104FD00002004FF00C014FF00102FDF71DFD4FF0F4
:104FE00001004FF00101FCF711FB07F10403184623
:104FF00000F098FF4FF00003BB804FF00003FB80F0
:105000004FF6FF73BB604FF00003BB8107F1040351
:105010004FF00000C4F20100194600F007FF4FF006
:105020000000C4F201004FF000014FF000024FF009
:10503000000301F02BF94FF00000C4F201004FF023
:10504000010100F0BBFF4FF001033B624FF0020390
:1050500087F824304FF0020387F825304FF0000323
:1050600087F826304FF0010387F8273007F1200337
:105070004FF00000C4F202001946FDF721FC4FF08A
:105080000000C4F202004FF000014FF00302FDF7F0
:10509000C3FC4FF002004FF00101FCF7B7FA07F133
:1050A0000403184600F03EFF4FF00003BB804FF0B2
:1050B0000003FB804FF6FF73BB604FF00003BB8122
:1050C00007F104034FF48060C4F20100194600F0B8
:1050D000ADFE4FF48060C4F201004FF000014FF0CC
:1050E00000024FF0000301F0D1F84FF48060C4F2E9
:1050F00001004FF0010100F061FF4FF002004FF09E
:1051000001014FF00002FEF70BFD024644F65C433E
:10511000C2F200031A604FF002004FF001014FF09D
:105120000002FEF7FDFC024644F65843C2F20003BB
:105130001A604FF0010300934FF0000301934FF00A
:10514000000302934FF00003039345F20140C0F6C1
:10515000000047F20C01C0F600014FF040024FF092
:105160000003FCF765FB4FF0010300934FF00003D1
:1051700001934FF0000302934FF00003039345F2B5
:10518000FD50C0F6000047F21801C0F600014FF0D4
:1051900040024FF00003FCF74BFB07F12807BD4628
:1051A00080BD00BF80B500AF4FF48060C4F2000046
:1051B0004FF0020101F026F80346002B00F0868034
:1051C0004FF48060C4F200004FF0020101F008F8D3
:1051D0004FF48063C4F200034FF48062C4F2000213
:1051E000928992B222F0020292B29A8140F6FC03B6
:1051F000C2F200031B78DBB219464FF48063C4F29D
:1052000000035B6B1A464FF080439B6B4FEA0343EE
:1052100042EA030040F2FC22C2F200020B464FEACF
:1052200043035B184FEA8303D318186040F6FC036E
:10523000C2F200031B78DBB219464FF48063C4F25C
:1052400001035B6A184640F2FC22C2F200020B46E0
:105250004FEA43035B184FEA8303D31803F10803B3
:1052600018604FF48063C4F201034FF000025A62E9
:1052700040F6FC03C2F200031B78DBB203F101032A
:10528000DAB240F6FC03C2F200031A7040F6FC03E7
:10529000C2F200031B78DBB203F03F03DAB240F640
:1052A000FC03C2F200031A7044F65C43C2F200032E
:1052B0001B68184640F6FC01C2F2000140F60412D9
:1052C000C2F200024FF00003FEF77AFC4FF4806058
:1052D000C4F200004FF0040100F094FF0346002BDD
:1052E00000F08C804FF48063C4F200034FF48062BE
:1052F000C4F20002128A92B222F0040292B21A821E
:105300004FF48063C4F200034FF48062C4F20002E1
:10531000928992B222F0040292B29A8140F6FD0381
:10532000C2F200031B78DBB219464FF48063C4F26B
:1053300000039B6B1A464FF08043DB6B4FEA03433D
:1053400042EA030040F2FC52C2F200020B464FEA6E
:1053500043035B184FEA8303D318186040F6FD033C
:10536000C2F200031B78DBB219464FF00003C4F20F
:1053700001035B6A184640F2FC52C2F200020B467F
:105380004FEA43035B184FEA8303D31803F1080382
:1053900018604FF00003C4F201034FF000025A629C
:1053A00040F6FD03C2F200031B78DBB203F10103F8
:1053B000DAB240F6FD03C2F200031A7040F6FD03B4
:1053C000C2F200031B78DBB203F03F03DAB240F60F
:1053D000FD03C2F200031A7044F65843C2F2000300
:1053E0001B68184640F6FD01C2F2000140F60412A7
:1053F000C2F200024FF00003FEF7E2FB80BD00BFE7
:1054000090B587B000AF78604FF00003FB724FF0AB
:105410000003FB744FF00003FB604FF000037B615F
:1054200000E000BF4FF0FA00FCF7DEFA4FF48063B3
:10543000C4F200034FF48062C4F20002128A92B2F6
:1054400022F0020292B21A824FF48063C4F2000387
:105450004FF48062C4F20002928992B242F00202DA
:1054600092B29A8144F65C43C2F200031B6818466C
:10547000FEF7F8FC0346002BD3D044F65C43C2F29F
:1054800000031A6807F10B03104619464FF000029B
:105490004FF00003FEF70AFCFB7A03F1FF3303F041
:1054A0003F0140F2FC22C2F200020B464FEA4303E6
:1054B0005B184FEA8303D31803F108031B68FB60F2
:1054C000FB7A03F1FF3303F03F0140F2FC22C2F20A
:1054D00000020B464FEA43035B184FEA8303D318DD
:1054E0001B681846FB7AA3F1020303F03F0140F268
:1054F000FC22C2F200020B464FEA43035B184FEA5C
:105500008303D3181B68984225D9FB7A03F1FF3334
:1055100003F03F0140F2FC22C2F200020B464FEAC8
:1055200043035B184FEA8303D3181B681846FB7AC2
:10553000A3F1020303F03F0140F2FC22C2F2000299
:105540000B464FEA43035B184FEA8303D3181B68EB
:10555000C31A7B6124E0FB7AA3F1020303F03F014D
:1055600040F2FC22C2F200020B464FEA43035B18F2
:105570004FEA8303D3181B681846FB7A03F1FF3305
:1055800003F03F0140F2FC22C2F200020B464FEA58
:1055900043035B184FEA8303D3181B68C31A7B616C
:1055A000FB7A03F1FF3303F03F0140F2FC22C2F229
:1055B00000020B464FEA43035B184FEA8303D318FC
:1055C0007A695A60F86801F02BF9034618460A49CF
:1055D00001F07EF903461C46786901F021F9034683
:1055E0002046194601F028FA03461A4644F660435D
:1055F000C2F200031A6015E78096984B90B587B009
:1056000000AF78604FF00003FB734FF000033B6185
:105610004FF000037B6100E000BF4FF0FA00FCF7A1
:10562000E3F94FF48063C4F200034FF48062C4F2E4
:105630000002128A92B222F0040292B21A824FF44D
:105640008063C4F200034FF48062C4F200029289C6
:1056500092B242F0040292B29A8144F65843C2F2E6
:1056600000031B681846FEF7FDFB0346002BD3D052
:1056700044F65843C2F200031A6807F10F031046BC
:1056800019464FF000024FF00003FEF70FFBFB7BC3
:1056900003F1FF3303F03F0140F2FC52C2F200027B
:1056A0000B464FEA43035B184FEA8303D31803F119
:1056B00008031B683B61FB7B03F1FF3303F03F01F1
:1056C00040F2FC52C2F200020B464FEA43035B1861
:1056D0004FEA8303D3181B681846FB7BA3F1020330
:1056E00003F03F0140F2FC52C2F200020B464FEAC7
:1056F00043035B184FEA8303D3181B68984225D9EC
:10570000FB7B03F1FF3303F03F0140F2FC52C2F296
:1057100000020B464FEA43035B184FEA8303D3189A
:105720001B681846FB7BA3F1020303F03F0140F224
:10573000FC52C2F200020B464FEA43035B184FEAE9
:105740008303D3181B68C31A7B6124E0FB7BA3F19E
:10575000020303F03F0140F2FC52C2F200020B468A
:105760004FEA43035B184FEA8303D3181B681846BC
:10577000FB7B03F1FF3303F03F0140F2FC52C2F226
:1057800000020B464FEA43035B184FEA8303D3182A
:105790001B68C31A7B61FB7B03F1FF3303F03F01FE
:1057A00040F2FC52C2F200020B464FEA43035B1880
:1057B0004FEA8303D3187A695A60386901F030F8E8
:1057C000034618460A4901F083F803461C467869E7
:1057D00001F026F803462046194601F02DF903464C
:1057E0001A4644F65443C2F200031A6015E700BF9C
:1057F0008096984B80B485B000AF78604FF000037E
:10580000FB734FF00003BB604FF47053C4F201030D
:105810001B681A467B6802EA0303BB604FF47053AF
:10582000C4F201035B691A467B6802EA0303002B9A
:1058300006D0BB68002B03D04FF00103FB7302E0DE
:105840004FF00003FB73FB7B184607F11407BD46BE
:1058500080BC704780B483B000AF78604FF4705361
:10586000C4F201037A685A6107F10C07BD4680BC97
:10587000704700BF80B483B000AF78604FF46D43D1
:10588000CEF200037A6842F0BE6242F42022DA606F
:1058900007F10C07BD4680BC704700BF80B485B0DF
:1058A00000AF78604FF00003FB734FF00003BB7351
:1058B0004FF00F037B737B68DB78002B47D04FF4EE
:1058C0006D43CEF20003DB686FEA030303F4E06389
:1058D0004FEA1323FB73FB7BC3F10403BB737A7B97
:1058E000FB7B42FA03F37B737B685B781A46BB7BD6
:1058F00002FA03F3FB737B689A787B7B02EA03036B
:10590000DAB2FB7B42EA0303FB73FB7B4FEA031330
:10591000FB734FF46143CEF200037A6812789B1850
:10592000FA7B83F800234FF46143CEF200037A68D8
:1059300012784FEA5212D2B27968097801F01F0149
:105940004FF0010000FA01F143F8221014E04FF487
:105950006143CEF200037A6812784FEA5212D2B253
:105960007968097801F01F014FF0010000FA01F198
:1059700002F1200243F8221007F11407BD4680BC53
:10598000704700BF80B588B000AF78604FF000036B
:105990007B61FCF7B9F844F61813C2F200031B68E8
:1059A000002B08D100F0F0F844F61813C2F20003FF
:1059B0004FF001021A607B68002B12D047F22403DB
:1059C000C0F600031B887A68D3187B607B6803F0FD
:1059D0000703002B05D07B6823F0070303F10803BE
:1059E0007B607B68002B72D07A6843F6F7739A422B
:1059F0006DD844F60813C2F20003BB6144F60813E5
:105A0000C2F200031B68FB6104E0FB69BB61FB6938
:105A10001B68FB61FB695A687B689A4203D2FB6989
:105A20001B68002BF1D1FA6944F61013C2F200038F
:105A30009A424CD0BB691A6847F22403C0F60003AF
:105A40001B88D3187B61FB691A68BB691A60FB6904
:105A50005A687B68D21A47F22403C0F600031B88F9
:105A60004FEA43039A4225D9FA697B68D318FB6051
:105A7000FB695A687B68D21AFB685A60FB697A68CE
:105A80005A60FB685B68BB6044F60813C2F200030F
:105A90003B6102E03B691B683B613B691B685A68DC
:105AA000BB689A42F6D33B691A68FB681A603B6987
:105AB000FA681A6040F2B803C2F200031A68FB6980
:105AC0005B68D21A40F2B803C2F200031A60FCF716
:105AD0002DF87B69002B01D1FBF7F4FB7B6918469D
