:020000040800F2
:1000000064650020D94E0008414F0008414F0008A8
:10001000414F0008414F0008414F00080000000018
:1000200000000000000000000000000069950008CA
:10003000414F000800000000219700088197000848
:10004000414F0008ADF10008414F0008414F000842
:10005000414F0008414F0008414F0008414F000840
:10006000414F0008414F0008414F0008414F000830
:10007000414F0008414F0008414F0008414F000820
:10008000414F0008414F0008414F0008414F000810
:10009000414F0008414F0008414F0008414F000800
:1000A000414F00089D800008414F0008414F000863
:1000B000B5D00008414F0008A57D0008414F000859
:1000C000414F0008414F0008414F0008414F0008D0
:1000D000414F0008414F0008414F000859AE000849
:1000E000414F0008414F00084D8B0008414F000868
:1000F000414F0008414F0008414F0008414F0008A0
:10010000414F0008C14E0008217F0008414F000800
:10011000414F0008414F0008414F0008414F00087F
:10012000414F0008414F0008414F0008CD4E0008E4
:10013000414F0008414F0008414F0008414F00085F
:10014000414F0008414F0008414F0008818B0008D3
:10015000414F0008414F0008414F000819B1000805
:10016000414F0008414F0008414F0008414F00082F
:10017000414F0008414F0008414F0008414F00081F
:10018000414F0008414F000880B485B000AF78604F
:100190000023FB607B68DB684FF0FF325A607B68AE
:1001A000DB684FF0FF325A61FB7B43F08003FB7347
:1001B0007B7B43F008037B737B68DB68FA689A619A
:1001C0001437BD465DF8047B704700BF80B586B02C
:1001D00000AF78600023FB7400237B610023FB6089
:1001E000032008F07FFC7B68DB681B69FB607B6990
:1001F00001337B617B69174A934201D9002324E0D4
:10020000FB68DB0FDBB2002BEAD000237B61FB68CD
:1002100043F00103FB607B68DB68FA681A617B6866
:10022000DB681B69FB607B6901337B617B69094A81
:10023000934200D905E0FB6803F00103DBB2012B18
:10024000EDD0032008F04EFCFB7C18461837BD4665
:1002500080BD00BF400D030080B489B000AFF860DE
:10026000B96011461A460B46FB711346BB8000234A
:10027000FB76FB68DB78002B22D100237B61002317
:10028000FB61BB880333002B00DA03339B107B61D7
:10029000FB79FA6832339B0013449B683B6100236F
:1002A000FB6109E0BB681A683B691A60FB690133AE
:1002B000FB61BB680433BB60FA697B699A42F1D386
:1002C000FB7E18462437BD465DF8047B704700BFAF
:1002D00080B489B000AFF860B9601346FB8000239A
:1002E000FB61FB880333002B00DA03339B10BB61F7
:1002F000FB68D3F8D0307B610023FB6109E07B69A8
:100300001A68BB681A60FB690133FB61BB68043380
:10031000BB60FA69BB699A42F1D3BB6818462437BF
:10032000BD465DF8047B704780B487B000AF78604D
:100330000B46FB7000233B610023FB737B680022AC
:10034000DA707B6801229A707B6840229A80FB7881
:10035000012B13D14FF0A0433B617B680122DA727D
:100360007B6808221A707B6804225A707B684FF4FD
:10037000A072DA807B6802221A7211E0FB78002BEF
:100380000ED1454B3B617B680022DA727B680C2200
:100390001A707B6806225A707B684FF4A062DA807C
:1003A0003A697B68DA603B6903F500631A467B684B
:1003B0001A6100237B611CE07B695A013B6913448D
:1003C00003F5106319467A687B6904339B00134474
:1003D00099607B695A013B69134403F53063194600
:1003E0007A687B6914339B00134459607B6901333D
:1003F0007B617B685B781A467B699A42DCD83B69F3
:1004000003F580631A467B685A613B6903F588638C
:100410001A467B68C3F8CC2000237B610FE07B6920
:100420005A013B69134403F5A06319467A687B6956
:1004300022339B00134499607B6901337B617B68A5
:100440001B781A467B699A42E9D800237B610FE04A
:100450007B691A033B69134403F5805319467A6894
:100460007B6932339B00134499607B6901337B6164
:100470007B681B781A467B699A42E9D83B6903F589
:1004800060631A467B68C3F80C21FB7B18461C3757
:10049000BD465DF8047B70470000044080B588B01D
:1004A00000AF78600023FB770023BB6100237B61F2
:1004B0000023FB607B681B7A012B4FD17B68DB68D4
:1004C0009B6B7B61BB7D6FF30003BB757B685B7AC5
:1004D000002B03D0BB7D43F01003BB757B68DB684A
:1004E0007A699A630023BB617B68DB68DB68BB6168
:1004F0003B7E6FF386133B76BB7E6FF38613BB7632
:100500003B7E43F010033B763B7E6FF3C3033B76A9
:100510003B7E6FF3C7133B76BB7E6FF34103BB7625
:10052000BB7E6FF3C303BB767B68DB68BA69DA60B6
:100530007868FFF74BFE7B68DB78012B40F0828008
:100540003B7B052262F344033B733B7B43F0200378
:100550003B737B68DB68FA689A6073E07B68DB68F2
:10056000DB68BB613B7E43F040033B767B68DB6826
:10057000BA69DA607868FFF729FE00237B61BB7DEA
:1005800043F00103BB757B681B7A032B03D1BB7D52
:1005900043F00203BB75BB7D43F00403BB75BB7D19
:1005A00043F00803BB75BB7D43F02003BB757B683C
:1005B0005B7A002B03D0BB7D43F01003BB757B68D7
:1005C000DB687A699A63142008F0B0FA7B68DB680C
:1005D000DB68BB617B681B7A032B03D1BB7E43F0D6
:1005E0000103BB767B68DB68BA69DA607B681B7ADB
:1005F000032B27D17B68DB681B6B3B61FB7C0122F3
:1006000062F38303FB74BB7C6FF3C713BB74FB7C87
:1006100043F01003FB74BB7C2D2262F30603BB7412
:100620007B68DB683A691A63C82008F07FFABB7CF4
:1006300043F08003BB747B68DB683A691A63C820A7
:1006400008F074FA7B68DB78012B10D17B68DB68DB
:100650009B68FB603B7B052262F344033B733B7B5F
:1006600043F020033B737B68DB68FA689A60FB7F8A
:1006700018462037BD4680BD80B485B000AF786095
:100680000023FB730023BB603B7A43F001033B7202
:100690007B68DB687A68D2689168BA680A439A60B6
:1006A000FB7B18461437BD465DF8047B704700BFDE
:1006B00080B485B000AF78600023FB730023BB607B
:1006C0003B7A43F001033B727B68DB687A68D2684F
:1006D0009168BA68D2430A409A60FB7B1846143787
:1006E000BD465DF8047B704780B586B000AF78608A
:1006F00039600023FB7400237B610023FB60FB68EF
:1007000043F02003FB603B68DBB203F01F03DBB266
:1007100003F01F039B01FA6822F4F8621343FB60A5
:100720007B68DB68FA681A617B68DB681B69FB60C1
:100730007B6901337B617B69094A934200D906E0FA
:10074000FB685B0903F00103DBB2012BECD0032053
:1007500008F0C8F9FB7C18461837BD4680BD00BFBD
:10076000400D030080B586B000AF78600023FB74B5
:1007700000237B610023FB60FB6843F01003FB60F8
:100780007B68DB68FA681A617B68DB681B69FB6061
:100790007B6901337B617B69094A934200D906E09A
:1007A000FB681B0903F00103DBB2012BECD0032033
:1007B00008F098F9FB7C18461837BD4680BD00BF8D
:1007C000400D030080B584B000AF78600B46FB702D
:1007D0000023FB737B68DB68DB68BB60FB7A6FF32D
:1007E0004513FB72FB7A6FF38613FB72FB78012BC8
:1007F00004D1FB7A43F02003FB7206E0FB78002B68
:1008000003D1FB7A43F04003FB727B68DB68BA6874
:10081000DA60322008F08AF9FB7B18461037BD46B3
:1008200080BD00BF80B483B000AF78607B68DB68B8
:100830005B6903F0010318460C37BD465DF8047B85
:10084000704700BF80B582B000AF78607868FFF76E
:10085000E9FF0346012B14BF01230023DBB2184636
:100860000837BD4680BD00BF80B485B000AF78605A
:100870000023FB607B68DB685B69FB607B68DB688F
:100880009B69FA681340FB60FB6818461437BD4645
:100890005DF8047B704700BF80B485B000AF78601E
:1008A0000B46FB707B681B691B68FB60FB7803F0E1
:1008B0000303DAB23B7B62F301033B737B681B6982
:1008C000FA681A601437BD465DF8047B704700BFB4
:1008D00080B58CB000AF7860002387F82B30002300
:1008E0007B6200233B620023FB610023BB6100238A
:1008F0007B617B68D3F80C3100221A607B681B692E
:100900001B683B6297F821306FF3C40387F82130EE
:100910007B681B693A6A1A607B68DB7A012B33D1EA
:1009200078680321FFF7B8FF7B68DB6880225A6292
:100930002023FB838023BB837B68DB68FA699A6290
:10094000BA8BFB8B13449BB23B8380237B837B68F6
:10095000DB68BA69C3F804213A8B7B8B13449BB2E2
:100960003B8320237B837B68DB68BA69C3F808215B
:100970003A8B7B8B13449BB23B8300237B837B6846
:10098000DB68BA69C3F80C2178681021FFF7ACFE68
:100990007868FFF7E7FE7B681B6900221A617B68B5
:1009A0001B6900225A617B681B694FF0FF329A6114
:1009B0007B681B690022DA610023FB623AE07A68F7
:1009C000FB6A04339B0013449B681B687B6297F8A7
:1009D000273023F07F03DBB2002B0ED000237B6295
:1009E00097F8273043F0400387F8273097F82730EF
:1009F00043F0080387F8273001E000237B627A6820
:100A0000FB6A04339B0013449B687A6A1A607A6815
:100A1000FB6A04339B0013449B6800221A617A68C6
:100A2000FB6A04339B0013449B68FF229A60FB6AB5
:100A30000133FB627B685B781A46FB6A9A42BED838
:100A40000023FB6235E07A68FB6A14339B00134491
:100A50005B681B68FB60FB7B23F07F03DBB2002B32
:100A60000AD00023FB60FB7B43F04003FB73FB7B5E
:100A700043F00803FB7301E00023FB607A68FB6A24
:100A800014339B0013445B68FA681A607A68FB6A47
:100A900014339B0013445B6800221A617A68FB6A76
:100AA00014339B0013445B68FF229A60FB6A013396
:100AB000FB627B685B781A46FB6A9A42C3D80023C4
:100AC0007B617B7D43F001037B757B681B697A68E2
:100AD000126911697A69D24311407A690A431A612D
:100AE0007B68DB78012B1BD100233B613B7C43F00F
:100AF00001033B743B7C43F002033B743B8A40227E
:100B000062F38A033B82BB7C43F00103BB747B8AA4
:100B1000402262F349037B827B681B693A691A634E
:100B2000786800F007F897F82B3018463037BD4644
:100B300080BD00BF80B584B000AF78600023FB7338
:100B40000023BB607B68DB6800229A617B68DB68FE
:100B50004FF0FF325A617868FFF716FB7B68DB784D
:100B6000002B03D13B7A43F010033B727B7A43F0B6
:100B700008037B727B7A43F010037B727B7A43F02D
:100B800020037B72BB7A43F00403BB72BB7A43F051
:100B90000803BB723B7A43F008033B72BB7A43F015
:100BA0001003BB72BB7A43F02003BB727B68DB6827
:100BB0007A68D2689169BA68D2431140BA680A4328
:100BC0009A61FB7B18461037BD4680BD80B485B066
:100BD00000AF78600023FB737B681B699B68BB6078
:100BE0003B7AC3F34103DBB2022B09D0032B04D0C1
:100BF000012B02D00323FB7305E00223FB7302E009
:100C00000123FB7300BFFB7B18461437BD465DF81C
:100C1000047B704780B487B000AF78600023FB7519
:100C20000023BB607B681B699B683B617B689B6999
:100C30001B68FB603B7CC3F34103DBB2022B04D097
:100C4000BB896FF30A03BB8105E0BB89032262F312
:100C50000A03BB8100BF7B689B69FA681A607B7AD4
:100C600043F001037B727B681B697A6812695168E3
:100C7000BA68D2431140BA680A435A60FB7D1846ED
:100C80001C37BD465DF8047B704700BF80B487B059
:100C900000AF786039600023FB740023FB60002301
:100CA000BB603B685B78012B0FD13B681B787A688F
:100CB00004339B0013449B687B613B681B781A4696
:100CC000012393409BB23B810EE03B681B787A681E
:100CD00014339B0013445B687B613B681B781A46A6
:100CE000012393409BB27B817B691B68FB607B7B0C
:100CF00023F07F03DBB2002B27D13B689B689BB2BC
:100D0000C3F30A039AB2BB8962F30A03BB813B684F
:100D1000DB7803F00303DAB2BB7B62F38303BB73BC
:100D20003B68DB88DBB203F00F03DAB2FB8962F3C6
:100D30008913FB81FB7B43F01003FB737B7B43F048
:100D400080037B73FA687B691A607B681B697A6829
:100D50001269D169BA680A43DA61FB7C18461C370C
:100D6000BD465DF8047B704780B487B000AF786003
:100D700039600023FB740023FB600023BB603B68E9
:100D80005B78012B0FD13B681B787A6804339B009A
:100D900013449B687B613B681B781A460123934090
:100DA0009BB23B810EE03B681B787A6814339B0052
:100DB00013445B687B613B681B781A4601239340B0
:100DC0009BB27B817B7B6FF3C7137B73FA687B6974
:100DD0001A607B681B697A681269D169BA68D24364
:100DE0000A40DA61FB7C18461C37BD465DF8047B7F
:100DF000704700BF80B588B000AF786039600023CD
:100E0000FB770023BB6100237B6100233B613B68D0
:100E10005B78012B40F0AB803B681B787A68043329
:100E20009B0013449B681B687B613B681B787A6856
:100E300004339B0013449B681B693B613B685B69FF
:100E4000002B09D13B696FF312033B617B8A0122BE
:100E500062F3CC037B8222E03B685B69C3F312023E
:100E60003B6962F312033B613B685A693B689B68CC
:100E700013445A1E3B689B68B2FBF3F39BB2C3F367
:100E800009039AB27B8A62F3CC037B823B68DB78EE
:100E9000012B04D1FB7C012262F34613FB743B68F7
:100EA0001B787A6804339B0013449B683A691A6183
:100EB0007B68DB78012B0AD13B681B787A680433A6
:100EC0009B0013449B683A6812695A6115E03B68BD
:100ED000DB78012B11D03B685B69002B0DD03B68A0
:100EE0001B781A4601239340BB617B681B697A68B3
:100EF0001269516BBA690A435A633B68DB78012B6C
:100F000014D17B681B699B68FB60FB68C3F30D23EE
:100F10009BB203F00103002B04D1FB7D43F02003BF
:100F2000FB7503E0FB7D43F01003FB75FB7D43F095
:100F30000403FB75FB7D43F08003FB753B681B7866
:100F40007A6804339B0013449B687A691A603B6893
:100F5000DB78012B40F089803B68D9683B681A78C0
:100F60003B685B699BB27868FFF776F97DE03B6888
:100F70001B787A6814339B0013445B681B687B61A1
:100F80003B681B787A6814339B0013445B681B69C9
:100F90003B613B685B69002B0DD13B689B68C3F3E9
:100FA00012023B6962F312033B617B8A012262F306
:100FB000CC037B8220E03B685A693B689B68134402
:100FC0005A1E3B689B68B2FBF3F39BB2C3F3090361
:100FD0009AB27B8A62F3CC037B827B8AC3F3C90318
:100FE0009BB21A463B689B6803FB02F3C3F31202F1
:100FF0003B6962F312033B613B681B787A681433E8
:101000009B0013445B683A691A617B68DB78012BAB
:1010100009D13B681B787A6814339B0013445B68E2
:101020003A6812695A613B68DB78012B0CD13B6846
:101030005B79002B04D0FB7D43F02003FB7503E0BC
:10104000FB7D43F01003FB75FB7D43F00403FB7550
:10105000FB7D43F08003FB753B681B787A68143393
:101060009B0013445B687A691A60FB7F184620373F
:10107000BD4680BD80B489B000AF78603960002380
:10108000FB770023BB6100233B610023BB603B680F
:101090005B78012B70D17B689B697B617B691B68E6
:1010A0003B617B691B69BB603B685B69002B09D1B5
:1010B0003B7A6FF306033B72BB7A012262F3C403EF
:1010C000BB7223E03B685A693B689B689A420ED921
:1010D0003B689A683B685A613B689B68DBB203F0E7
:1010E0007F03DAB23B7A62F306033B7209E03B68A6
:1010F0005B69DBB203F07F03DAB23B7A62F306038B
:101100003B72BB7A012262F3C403BB72BA687B698B
:101110001A617B68DB78012B09D13B681B787A6800
:1011200004339B0013449B683A6812695A61FB7C44
:1011300043F00403FB74FB7C43F08003FB743A69C7
:101140007B691A607B68DB78002B76D13B685B6932
:10115000002B72D03B681B781A46012393401A4635
:10116000BB691343BB617B681B697A681269516B69
:10117000BA690A435A6360E03B681B787A681433A3
:101180009B0013445B681B683B613B681B787A6873
:1011900014339B0013445B681B69BB603B685B694D
:1011A000002B0FD13B689B68DBB203F07F03DAB200
:1011B0003B7A62F306033B72BB7A012262F3C403FB
:1011C000BB7212E03B689A683B685A613B689B6857
:1011D000DBB203F07F03DAB23B7A62F306033B72C1
:1011E000BB7A012262F3C403BB723B681B787A6846
:1011F00014339B0013445B68BA681A617B68DB7820
:10120000012B09D13B681B787A6814339B00134487
:101210005B683A6812695A61FB7C43F00403FB7413
:10122000FB7C43F08003FB743B681B787A681433C3
:101230009B0013445B683A691A60FB7F18462437A9
:10124000BD465DF8047B704780B487B000AF78601E
:1012500039600023FB750023FB603B685B78012B42
:101260001CD13B681B787A6804339B0013449B684D
:101270003B613B691B68FB60FB7B23F07F03DBB2B8
:10128000002B03D0FB7B43F04003FB73BB7B43F09D
:101290002003BB73FA683B691A6011E03B681B7856
:1012A0007A6814339B0013445B683B613B691B689D
:1012B000FB60BB7B43F02003BB73FA683B691A6099
:1012C000FB7D18461C37BD465DF8047B704700BFA8
:1012D00080B487B000AF786039600023FB740023CE
:1012E000FB603B685B78012B08D13B681B787A6810
:1012F00004339B0013449B687B6107E03B681B78C9
:101300007A6814339B0013445B687B617B691B68BC
:10131000FB60BB7B6FF34513BB733B68DB78032B30
:1013200003D03B68DB78022B03D1FB7B43F0100337
:10133000FB73FA687B691A60FB7C18461C37BD4654
:101340005DF8047B704700BF80B485B000AF786063
:101350007B681B699B69FB607B681B69DB69FA68BA
:101360001340FB60FB681B0C18461437BD465DF844
:10137000047B704780B485B000AF78600B46FB708B
:10138000FB787A6814339B0013445B689B68FB60AE
:101390007B681B695B69FA681340FB60FB68184651
:1013A0001437BD465DF8047B704700BF80B485B03C
:1013B00000AF78607B681B699B69FB607B681B6979
:1013C000DB69FA681340FB60FB689BB21846143770
:1013D000BD465DF8047B704780B487B000AF78608D
:1013E00000233B61FB7C43F0C003FB74BB7C012208
:1013F00062F3C403BB743B7C182262F306033B74A4
:101400007B685B6D3A691A617B68DB78012B16D1CA
:101410000023FB607B685B6D7A6802F5B9625A61F4
:101420007B685B6D1B68FB60FB7B43F08003FB7399
:101430004FF08023FB607B685B6DFA681A601C3795
:10144000BD465DF8047B704780B485B000AF78601E
:101450007B689B7A002B1BD07B681B699B68FB60B9
:101460003B7B03F00103DBB2002B11D07B6803F55B
:1014700086731B68BB603B7A6FF341033B723B7A18
:101480006FF300033B727B68D3F80C31BA681A60C3
:101490001437BD465DF8047B704700BF80B400AFD1
:1014A000BD465DF8047B704780B400AFBD465DF873
:1014B000047B70472DE9F04389B000AF78600B469C
:1014C0007B8013463B806B461E460023FB77954B83
:1014D00019780B46013B3B61CAB24FF000034FEA5B
:1014E000031949EA12794FEA0218CAB24FF0000311
:1014F0001D0145EA127514010B465B0001330733E9
:10150000DB08DB00ADEB030D6B4601335B085B00D2
:10151000FB60854B1B68184600214FF0FF3200230B
:1015200008F0FEFBF968814BD3E9062313460B60F4
:10153000FB68191D7D4BD3E9082313460B60FB683C
:1015400008337A4AD2ED0E7AFCEEE77A17EE902A4B
:101550001A60FB680C33754AD2ED0F7AFCEEE77A1D
:1015600017EE902A1A60FB681033704AD2ED0D7A9C
:10157000FCEEE77A17EE902A1A60FB6814336B4A88
:10158000D2ED0C7AFCEEE77A17EE902A1A60FB682F
:101590001833664AD2ED127AFCEEE77A17EE902AFB
:1015A0001A60FB681C33614AD2ED137AFCEEE77ACD
:1015B00017EE902A1A60FB6820335C4AD2ED117A4C
:1015C000FCEEE77A17EE902A1A60FB682433574A3C
:1015D000D2ED107AFCEEE77A17EE902A1A60FB68DB
:1015E0002833524A12681A60FB682C334F4A5268FB
:1015F0001A60FB6830334D4A926A1A60FB683433D4
:101600004A4AD26A1A60FB683833484A926D1A60B7
:10161000FB683C33454AD26D1A60FB684033434A4D
:10162000526D1A60FB684433404A126D1A60FB68C1
:1016300048333E4A926E1A60FB684C333B4AD26E86
:101640001A60FB685033394A526E1A60FB68543393
:10165000364A126E1A6000237B6114E07B691633F0
:101660005B005B00FA68D1187B6916335A0030487A
:101670001346DB009B1A9B00034418335B680B6026
:101680007B6901337B617B69072BE7DDFB6878337E
:10169000264A126F1A60244B1B681846002100224C
:1016A000002308F0F3F9234B1B789BB27A889A4207
:1016B0002ED37A883B881A441E4B1B781946194B47
:1016C0001B780B449A4223DC7B881B4A12789B1AB6
:1016D000BB6119E07B685A1C7A60FA68B96932F814
:1016E0001120120A92B2D2B21A707B685A1C7A6028
:1016F000FA68B96932F81120D2B21A70BB690133A5
:10170000BB613B88013B3B803B88002BE2D101E081
:101710000123FB77FB7FB54618462437BD46BDE85D
:10172000F08300BF02000020E45C0020E85C0020A1
:10173000005C002000000020040000202DE9F043A0
:10174000ADF5297D36AF07F10C0630600E46104628
:10175000194607F10A0332461A8007F108030246C8
:101760001A80FB1D0A461A706B461E46002387F836
:10177000C731AC4B19780B46013BC7F8BC31CAB234
:101780004FF000034FEA031949EA12794FEA0218B1
:10179000CAB24FF000031D0145EA127514010B4651
:1017A0005B0001330733DB08DB00ADEB030D36AB29
:1017B00001335B085B00C7F8B8319B4B1B789BB2C9
:1017C00007F10A0212889A42C2F0468307F10A031F
:1017D0001A8807F108031B881A44934B1B78194693
:1017E000904B1B780B449A4202F3368307F10A03AD
:1017F0001B888E4A12789B1AC7F8C031FB1D1B78D4
:10180000002B04D0012B02F01F8302F028BB07F548
:10181000DA73002019460CF03BFD07F5D873002061
:1018200019460CF009FE97F8B6319AB2D7F8B831DC
:101830001A8097F8B5319AB2D7F8B8315A8097F82C
:10184000B4319AB2D7F8B8319A8097F8B2319AB2D7
:10185000D7F8B831DA8097F8B1319AB2D7F8B83101
:101860001A8197F8B3319AB2D7F8B8315A8197F8FC
:10187000B0319AB2D7F8B8319A81D7F8B8310E336F
:101880006B4A12681A60D7F8B8311233684AD26BC3
:101890001A60D7F8B8311633654A126C1A60D7F857
:1018A000B8311A33624A526C1A60D7F8B8311E3315
:1018B0005F4A926C1A60D7F8B83122335C4A926D55
:1018C0001A60D7F8B8312633594AD26D1A60D7F862
:1018D000B8312A33564A126E1A60D7F8B8312E330F
:1018E000534A526E1A60D7F8B8313233504A126AEE
:1018F0001A60D7F8B83136334D4A526A1A60D7F8B1
:10190000B8313A334A4A926A1A60D7F8B8313E334E
:10191000474AD26A1A60D7F8B8314233444A52680B
:101920001A60D7F8B8314633414A92681A60D7F83E
:10193000B8314A333E4AD2681A60D7F8B8314E33CC
:101940003B4A12691A60D7F8B8315233384AD2F894
:10195000AC201A60D7F8B8315633354AD2F8B020E7
:101960001A60D7F8B8315A33314AD2F8B4201A6025
:10197000D7F8B8315E332E4AD2F8B8201A60D7F8BB
:10198000B83162332A4AD2F8C8201A60D7F8B83181
:101990006633274AD2F8CC201A60D7F8B8316A33B8
:1019A000234AD2F8D0201A60D7F8B8316E33204AD3
:1019B000D2F8D4201A60D7F8B83172331C4AD2F862
:1019C00090201A60D7F8B8317633194AD2F89420AB
:1019D0001A60D7F8B8317A33154AD2F898201A60CD
:1019E000D7F8B8317E33124AD2F89C201A60D7F863
:1019F000B83182330E4A526F1A60D7F8B831863345
:101A00000B4A926F1A60D7F8B8318A33084AD26FFE
:101A10001A60D7F8B8318E33054AD2F880201A60A0
:101A200034E000BF0300002001000020050000207A
:101A3000005C002007F10C031B6807F10C02591C25
:101A40001160D7F8B821D7F8C01132F81120120A66
:101A500092B2D2B21A7007F10C031B6807F10C02A4
:101A6000591C1160D7F8B821D7F8C01132F81120ED
:101A7000D2B21A70D7F8C0310133C7F8C03107F1BC
:101A800008031A8807F10803013A1A8007F10803CE
:101A90001B88002BCED102F0DEB9D7F8C031472B1E
:101AA00002F2C48101A252F823F000BFCD1B00084E
:101AB0003F1C0008B11C0008231D0008951D0008EC
:101AC000071E0008791E0008EB1E00082D3E0008C6
:101AD000D91F00082D3E0008BD2000082D3E00083B
:101AE000B92100082D3E0008AD2200082D3E000857
:101AF000A92300082D3E00088D2400082D3E000873
:101B0000892500082D3E0008752600082D3E000896
:101B1000712700082D3E0008552800082D3E0008BA
:101B2000512900082D3E00083D2A00082D3E0008DE
:101B3000392B00082D3E00081D2C00082D3E000802
:101B4000192D00082D3E0008052E00082D3E000826
:101B5000012F00082D3E0008E72F00082D3E000849
:101B6000E53000082D3E0008D53100082D3E000864
:101B7000D33200082D3E0008B93300082D3E00087E
:101B8000B73400082D3E0008A53500082D3E00089A
:101B9000A13600082D3E0008853700082D3E0008BC
:101BA000813800082D3E00086D3900082D3E0008E0
:101BB000693A00082D3E00084B3B00082D3E000806
:101BC000453C00082D3E0008313D00080023A7F8E1
:101BD000AE3107F5D473002019460CF059FB07F518
:101BE000D773013307F10C02126807F10C01501C86
:101BF000086012781A7007F5D77207F10C031B689A
:101C000007F10C01581C08601B781370B7F8AE314F
:101C1000DBB287F8AA3107F5D473002019460CF01F
:101C2000B5FAD7F8C0310133C7F8C03107F108035E
:101C30001A8807F10803013A1A8002F005B9002357
:101C4000A7F8A63107F5D073002019460CF020FB49
:101C500007F5D373013307F10C02126807F10C0189
:101C6000501C086012781A7007F5D37207F10C0344
:101C70001B6807F10C01581C08601B781370B7F83B
:101C8000A631DBB287F8A13107F5D07300201946E1
:101C90000CF07CFAD7F8C0310133C7F8C03107F136
:101CA00008031A8807F10803013A1A8002F0CCB839
:101CB0000023A7F89E3107F5CC73002019460CF0DD
:101CC000E7FA07F5CF73013307F10C02126807F149
:101CD0000C01501C086012781A7007F5CF7207F1DA
:101CE0000C031B6807F10C01581C08601B7813706B
:101CF000B7F89E31DBB287F8983107F5CC73002036
:101D000019460CF043FAD7F8C0310133C7F8C03197
:101D100007F108031A8807F10803013A1A8002F054
:101D200093B80023A7F8963107F5C8730020194629
:101D30000CF082FB07F5CB73013307F10C0212683C
:101D400007F10C01501C086012781A7007F5CB726D
:101D500007F10C031B6807F10C01581C08601B7885
:101D60001370B7F89631DBB287F8923107F5C87374
:101D7000002019460CF0DAFAD7F8C0310133C7F861
:101D8000C03107F108031A8807F10803013A1A80E5
:101D900002F05AB80023A7F88E3107F5C47300206B
:101DA00019460CF049FB07F5C773013307F10C0224
:101DB000126807F10C01501C086012781A7007F5C0
:101DC000C77207F10C031B6807F10C01581C08606F
:101DD0001B781370B7F88E31DBB287F8893107F5BD
:101DE000C473002019460CF0A1FAD7F8C0310133B2
:101DF000C7F8C03107F108031A8807F10803013A50
:101E00001A8002F021B80023A7F8863107F5C073C5
:101E1000002019460CF010FB07F5C373013307F1DE
:101E20000C02126807F10C01501C086012781A703D
:101E300007F5C37207F10C031B6807F10C01581C6E
:101E400008601B781370B7F88631DBB287F88331EE
:101E500007F5C073002019460CF068FAD7F8C031B6
:101E60000133C7F8C03107F108031A8807F10803E6
:101E7000013A1A8001F0E8BF0023A7F87E3107F588
:101E8000BC73002019460CF0D7FA07F5BF73013375
:101E900007F10C02126807F10C01501C086012785F
:101EA0001A7007F5BF7207F10C031B6807F10C01EC
:101EB000581C08601B781370B7F87E31DBB287F8C6
:101EC000783107F5BC73002019460CF02FFAD7F8CB
:101ED000C0310133C7F8C03107F108031A8807F190
:101EE0000803013A1A8001F0AFBF0023C7F874312C
:101EF00007F5BA73013307F10C02126807F10C0100
:101F0000501C086012781A7007F5BA7207F10C03BA
:101F10001B6807F10C01581C08601B78137007F54B
:101F2000BA73033307F10C02126807F10C01501C5D
:101F3000086012781A7007F5BA73023307F10C02C1
:101F4000126807F10C01501C086012781A70D7F85B
:101F50007431D24A934231D9D7F87431D04A93427E
:101F60002CD8D04B1B68184600214FF0FF320023BD
:101F700007F0D6FED7F87431CB4A136007F110038F
:101F8000C94A1946E423084611461A460DF050F98D
:101F9000C44B1B68184600210022002307F076FD81
:101FA00007F11004694604F11003D42208461946CB
:101FB0000DF03EF994E80F0005F058FDD7F8C03158
:101FC0000233C7F8C03107F1080307F1080212888D
:101FD000023A1A8001F038BF0023C7F8703107F5C4
:101FE000B873013307F10C02126807F10C01501CA1
:101FF000086012781A7007F5B87207F10C031B68B5
:1020000007F10C01581C08601B78137007F5B873B2
:10201000033307F10C02126807F10C01501C086031
:1020200012781A7007F5B873023307F10C021268C0
:1020300007F10C01501C086012781A70D7F8703143
:10204000B3F5000F2CD2974B1B68184600214FF0B8
:10205000FF32002307F064FED7F87031924AD36351
:1020600007F11003904A1946E423084611461A4620
:102070000DF0DEF88B4B1B68184600210022002370
:1020800007F004FD07F11004694604F11003D4229F
:10209000084619460DF0CCF894E80F0005F0E6FC70
:1020A000D7F8C0310233C7F8C03107F1080307F190
:1020B00008021288023A1A8001F0C6BE4FF00003EF
:1020C000C7F86C3107F5B673013307F10C021268DB
:1020D00007F10C01501C086012781A7007F5B672EF
:1020E00007F10C031B6807F10C01581C08601B78F2
:1020F000137007F5B673033307F10C02126807F18A
:102100000C01501C086012781A7007F5B673023380
:1021100007F10C02126807F10C01501C08601278DC
:102120001A70D7ED5B7AF5EEC07AF1EE10FA35DB76
:10213000D7ED5B7AB3EE047AF4EEC77AF1EE10FADB
:102140002CD8584B1B68184600214FF0FF32002353
:1021500007F0E6FDD7F86C31534A136407F110031A
:10216000514A1946E423084611461A460DF060F814
:102170004C4B1B68184600210022002307F086FC08
:1021800007F11004694604F11003D42208461946E9
:102190000DF04EF894E80F0005F068FCD7F8C03158
:1021A0000233C7F8C03107F1080307F108021288AB
:1021B000023A1A8001F048BE0023C7F8683107F5DB
:1021C000B473013307F10C02126807F10C01501CC3
:1021D000086012781A7007F5B47207F10C031B68D7
:1021E00007F10C01581C08601B78137007F5B473D5
:1021F000033307F10C02126807F10C01501C086050
:1022000012781A7007F5B473023307F10C021268E2
:1022100007F10C01501C086012781A70D7F8683169
:10222000B3F5000F2CD21F4B1B68184600214FF04E
:10223000FF32002307F074FDD7F868311A4A53645F
:1022400007F11003184A1946E423084611461A46B6
:102250000CF0EEFF134B1B681846002100220023F0
:1022600007F014FC07F11004694604F11003D422AE
:10227000084619460CF0DCFF94E80F0005F0F6FB69
:10228000D7F8C0310233C7F8C03107F1080307F1AE
:1022900008021288023A1A8001F0D6BD17293101CE
:1022A000E8303101605D0020005C00204FF0000349
:1022B000C7F8643107F5B273013307F10C021268F5
:1022C00007F10C01501C086012781A7007F5B27201
:1022D00007F10C031B6807F10C01581C08601B7800
:1022E000137007F5B273033307F10C02126807F19C
:1022F0000C01501C086012781A7007F5B273023393
:1023000007F10C02126807F10C01501C08601278EA
:102310001A70D7ED597AF5EEC07AF1EE10FA35DB86
:10232000D7ED597AB3EE047AF4EEC77AF1EE10FAEB
:102330002CD8CE4B1B68184600214FF0FF320023EB
:1023400007F0EEFCD7F86431C94A936407F1100333
:10235000C74A1946E423084611461A460CF068FF9E
:10236000C24B1B68184600210022002307F08EFB99
:1023700007F11004694604F11003D42208461946F7
:102380000CF056FF94E80F0005F070FBD7F8C03151
:102390000233C7F8C03107F1080307F108021288B9
:1023A000023A1A8001F050BD0023C7F8603107F5EA
:1023B000B073013307F10C02126807F10C01501CD5
:1023C000086012781A7007F5B07207F10C031B68E9
:1023D00007F10C01581C08601B78137007F5B073E7
:1023E000033307F10C02126807F10C01501C08605E
:1023F00012781A7007F5B073023307F10C021268F5
:1024000007F10C01501C086012781A70D7F860317F
:10241000B3F5000F2CD2954B1B68184600214FF0E6
:10242000FF32002307F07CFCD7F86031904A9365B7
:1024300007F110038E4A1946E423084611461A464E
:102440000CF0F6FE894B1B68184600210022002381
:1024500007F01CFB07F11004694604F11003D422B5
:10246000084619460CF0E4FE94E80F0005F0FEFA69
:10247000D7F8C0310233C7F8C03107F1080307F1BC
:1024800008021288023A1A8001F0DEBC4FF0000305
:10249000C7F85C3107F5AE73013307F10C0212681F
:1024A00007F10C01501C086012781A7007F5AE7223
:1024B00007F10C031B6807F10C01581C08601B781E
:1024C000137007F5AE73033307F10C02126807F1BE
:1024D0000C01501C086012781A7007F5AE730233B5
:1024E00007F10C02126807F10C01501C0860127809
:1024F0001A70D7ED577AF5EEC07AF1EE10FA35DBA7
:10250000D7ED577AB3EE047AF4EEC77AF1EE10FA0B
:102510002CD8564B1B68184600214FF0FF32002381
:1025200007F0FEFBD7F85C31514AD36507F1100381
:102530004F4A1946E423084611461A460CF078FE25
:102540004A4B1B68184600210022002307F09EFA20
:1025500007F11004694604F11003D4220846194615
:102560000CF066FE94E80F0005F080FAD7F8C03151
:102570000233C7F8C03107F1080307F108021288D7
:10258000023A1A8001F060BC0023C7F8583107F501
:10259000AC73013307F10C02126807F10C01501CF7
:1025A000086012781A7007F5AC7207F10C031B680B
:1025B00007F10C01581C08601B78137007F5AC7309
:1025C000033307F10C02126807F10C01501C08607C
:1025D00012781A7007F5AC73023307F10C02126817
:1025E00007F10C01501C086012781A70D7F85831A6
:1025F000B3F5000F2CD21D4B1B68184600214FF07D
:10260000FF32002307F08CFBD7F85831184A1366C5
:1026100007F11003164A1946E423084611461A46E4
:102620000CF006FE114B1B68184600210022002307
:1026300007F02CFA07F11004694604F11003D422C4
:10264000084619460CF0F4FD94E80F0005F00EFA68
:10265000D7F8C0310233C7F8C03107F1080307F1DA
:1026600008021288023A1A8001F0EEBB605D002079
:10267000005C00204FF00003C7F8543107F5AA733F
:10268000013307F10C02126807F10C01501C0860BD
:1026900012781A7007F5AA7207F10C031B6807F18C
:1026A0000C01581C08601B78137007F5AA730333DC
:1026B00007F10C02126807F10C01501C0860127837
:1026C0001A7007F5AA73023307F10C02126807F1BA
:1026D0000C01501C086012781A70D7ED557AF5EE8F
:1026E000C07AF1EE10FA35DBD7ED557AB3EE047A05
:1026F000F4EEC77AF1EE10FA2CD8CE4B1B681846D0
:1027000000214FF0FF32002307F00AFBD7F85431C5
:10271000C94A536607F11003C74A1946E42308461D
:1027200011461A460CF084FDC24B1B681846002166
:102730000022002307F0AAF907F11004694604F10A
:102740001003D422084619460CF072FD94E80F00DD
:1027500005F08CF9D7F8C0310233C7F8C03107F162
:10276000080307F108021288023A1A8001F06CBBD4
:102770000023C7F8503107F5A873013307F10C02A5
:10278000126807F10C01501C086012781A7007F5E6
:10279000A87207F10C031B6807F10C01581C0860B4
:1027A0001B78137007F5A873033307F10C02126846
:1027B00007F10C01501C086012781A7007F5A87315
:1027C000023307F10C02126807F10C01501C08607B
:1027D00012781A70D7F85031B3F5000F2CD2954B00
:1027E0001B68184600214FF0FF32002307F098FACB
:1027F000D7F85031904A136207F110038E4A1946F8
:10280000E423084611461A460CF012FD894B1B685A
:10281000184600210022002307F038F907F11004C0
:10282000694604F11003D422084619460CF000FD55
:1028300094E80F0005F01AF9D7F8C0310233C7F851
:10284000C03107F1080307F108021288023A1A8022
:1028500001F0FABA4FF00003C7F84C3107F5A67340
:10286000013307F10C02126807F10C01501C0860DB
:1028700012781A7007F5A67207F10C031B6807F1AE
:102880000C01581C08601B78137007F5A6730333FE
:1028900007F10C02126807F10C01501C0860127855
:1028A0001A7007F5A673023307F10C02126807F1DC
:1028B0000C01501C086012781A70D7ED537AF5EEAF
:1028C000C07AF1EE10FA35DBD7ED537AB3EE047A25
:1028D000F4EEC77AF1EE10FA2CD8564B1B68184666
:1028E00000214FF0FF32002307F01AFAD7F84C31DD
:1028F000514A536207F110034F4A1946E423084630
:1029000011461A460CF094FC4A4B1B6818460021ED
:102910000022002307F0BAF807F11004694604F119
:102920001003D422084619460CF082FC94E80F00EC
:1029300005F09CF8D7F8C0310233C7F8C03107F171
:10294000080307F108021288023A1A8001F07CBAE3
:102950000023C7F8483107F5A473013307F10C02CF
:10296000126807F10C01501C086012781A7007F504
:10297000A47207F10C031B6807F10C01581C0860D6
:102980001B78137007F5A473033307F10C02126868
:1029900007F10C01501C086012781A7007F5A47337
:1029A000023307F10C02126807F10C01501C086099
:1029B00012781A70D7F84831B3F5000F2CD21D4B9E
:1029C0001B68184600214FF0FF32002307F0A8F9DA
:1029D000D7F84831184A936207F11003164A19468E
:1029E000E423084611461A460CF022FC114B1B68E2
:1029F000184600210022002307F048F807F11004D0
:102A0000694604F11003D422084619460CF010FC64
:102A100094E80F0005F02AF8D7F8C0310233C7F860
:102A2000C03107F1080307F108021288023A1A8040
:102A300001F00ABA605D0020005C00204FF0000346
:102A4000C7F8443107F5A273013307F10C0212688D
:102A500007F10C01501C086012781A7007F5A27279
:102A600007F10C031B6807F10C01581C08601B7868
:102A7000137007F5A273033307F10C02126807F114
:102A80000C01501C086012781A7007F5A27302330B
:102A900007F10C02126807F10C01501C0860127853
:102AA0001A70D7ED517AF5EEC07AF1EE10FA35DBF7
:102AB000D7ED517AB3EE047AF4EEC77AF1EE10FA5C
:102AC0002CD8CE4B1B68184600214FF0FF32002354
:102AD00007F026F9D7F84431C94AD36207F1100349
:102AE000C74A1946E423084611461A460CF0A0FBD3
:102AF000C24B1B68184600210022002306F0C6FFC7
:102B000007F11004694604F11003D422084619465F
:102B10000CF08EFB94E80F0004F0A8FFD7F8C0314A
:102B20000233C7F8C03107F1080307F10802128821
:102B3000023A1A8001F088B90023C7F8403107F53E
:102B4000A073013307F10C02126807F10C01501C4D
:102B5000086012781A7007F5A07207F10C031B6861
:102B600007F10C01581C08601B78137007F5A0735F
:102B7000033307F10C02126807F10C01501C0860C6
:102B800012781A7007F5A073023307F10C0212686D
:102B900007F10C01501C086012781A70D7F8403108
:102BA000B3F5000F2CD2954B1B68184600214FF04F
:102BB000FF32002307F0B4F8D7F84031904A536051
:102BC00007F110038E4A1946E423084611461A46B7
:102BD0000CF02EFB894B1B681846002100220023B5
:102BE00006F054FF07F11004694604F11003D422E3
:102BF000084619460CF01CFB94E80F0004F036FF61
:102C0000D7F8C0310233C7F8C03107F1080307F124
:102C100008021288023A1A8001F016B94FF0000338
:102C2000C7F83C3107F59E73013307F10C021268B7
:102C300007F10C01501C086012781A7007F59E729B
:102C400007F10C031B6807F10C01581C08601B7886
:102C5000137007F59E73033307F10C02126807F136
:102C60000C01501C086012781A7007F59E7302332D
:102C700007F10C02126807F10C01501C0860127871
:102C80001A70D7ED4F7AF5EEC07AF1EE10FA35DB17
:102C9000D7ED4F7AB3EE047AF4EEC77AF1EE10FA7C
:102CA0002CD8564B1B68184600214FF0FF320023EA
:102CB00007F036F8D7F83C31514A936007F110031A
:102CC0004F4A1946E423084611461A460CF0B0FA5A
:102CD0004A4B1B68184600210022002306F0D6FE4E
:102CE00007F11004694604F11003D422084619467E
:102CF0000CF09EFA94E80F0004F0B8FED7F8C0314B
:102D00000233C7F8C03107F1080307F1080212883F
:102D1000023A1A8001F098B80023C7F8383107F555
:102D20009C73013307F10C02126807F10C01501C6F
:102D3000086012781A7007F59C7207F10C031B6883
:102D400007F10C01581C08601B78137007F59C7381
:102D5000033307F10C02126807F10C01501C0860E4
:102D600012781A7007F59C73023307F10C0212688F
:102D700007F10C01501C086012781A70D7F838312E
:102D8000B3F5000F2CD21D4B1B68184600214FF0E5
:102D9000FF32002306F0C4FFD7F83831184AD36059
:102DA00007F11003164A1946E423084611461A464D
:102DB0000CF03EFA114B1B6818460021002200233C
:102DC00006F064FE07F11004694604F11003D422F2
:102DD000084619460CF02CFA94E80F0004F046FE61
:102DE000D7F8C0310233C7F8C03107F1080307F143
:102DF00008021288023A1A8001F026B8605D0020AD
:102E0000005C00204FF00003C7F8343107F59A73D7
:102E1000013307F10C02126807F10C01501C086025
:102E200012781A7007F59A7207F10C031B6807F104
:102E30000C01581C08601B78137007F59A73033354
:102E400007F10C02126807F10C01501C086012789F
:102E50001A7007F59A73023307F10C02126807F132
:102E60000C01501C086012781A70D7ED4D7AF5EEFF
:102E7000C07AF1EE10FA35DBD7ED4D7AB3EE047A75
:102E8000F4EEC77AF1EE10FA2CD8D04B1B68184636
:102E900000214FF0FF32002306F042FFD7F8343113
:102EA000CB4A136107F11003C94A1946E4230846C7
:102EB00011461A460CF0BCF9C44B1B681846002199
:102EC0000022002306F0E2FD07F11004694604F138
:102ED0001003D422084619460CF0AAF994E80F0012
:102EE00004F0C4FDD7F8C0310233C7F8C03107F190
:102EF000080307F108021288023A1A8000F0A4BF02
:102F00000023C7F8303107F59873013307F10C023D
:102F1000126807F10C01501C086012781A7007F54E
:102F2000987207F10C031B6807F10C01581C08602C
:102F30001B78137007F59873033307F10C021268BE
:102F400007F10C01501C086012781A7007F598738D
:102F5000023307F10C02126807F10C01501C0860E3
:102F600012781A70D7F83031B3F5000F2DD2974B85
:102F70001B68184600214FF0FF32002306F0D0FEF8
:102F8000D7F83031924AC2F8AC3007F11003904ABA
:102F90001946E423084611461A460CF049F98B4BB2
:102FA0001B68184600210022002306F06FFD07F180
:102FB0001004694604F11003D422084619460CF0A7
:102FC00037F994E80F0004F051FDD7F8C03102330F
:102FD000C7F8C03107F1080307F108021288023A66
:102FE0001A8000F031BF4FF00003C7F82C3107F50D
:102FF0009673013307F10C02126807F10C01501CA3
:10300000086012781A7007F5967207F10C031B68B6
:1030100007F10C01581C08601B78137007F59673B4
:10302000033307F10C02126807F10C01501C086011
:1030300012781A7007F59673023307F10C021268C2
:1030400007F10C01501C086012781A70D7ED4B7A0A
:10305000F5EEC07AF1EE10FA36DBD7ED4B7AB3EE2F
:10306000047AF4EEC77AF1EE10FA2DD8574B1B68AC
:10307000184600214FF0FF32002306F051FED7F82A
:103080002C31534AC2F8B03007F11003504A1946A8
:10309000E423084611461A460CF0CAF84B4B1B684D
:1030A000184600210022002306F0F0FC07F110046E
:1030B000694604F11003D422084619460CF0B8F80A
:1030C00094E80F0004F0D2FCD7F8C0310233C7F8FF
:1030D000C03107F1080307F108021288023A1A808A
:1030E00000F0B2BE0023C7F8283107F5947301330E
:1030F00007F10C02126807F10C01501C08601278ED
:103100001A7007F5947207F10C031B6807F10C01A4
:10311000581C08601B78137007F59473033307F18C
:103120000C02126807F10C01501C086012781A702A
:1031300007F59473023307F10C02126807F10C01D2
:10314000501C086012781A70D7F82831B3F5000FB8
:103150002DD21E4B1B68184600214FF0FF32002372
:1031600006F0DEFDD7F82831194AC2F8B43007F16D
:103170001003174A1946E423084611461A460CF074
:1031800057F8124B1B68184600210022002306F056
:103190007DFC07F11004694604F11003D4220846AF
:1031A00019460CF045F894E80F0004F05FFCD7F8DE
:1031B000C0310233C7F8C03107F1080307F1080234
:1031C0001288023A1A8000F03FBE00BF605D002006
:1031D000005C00204FF00003C7F8243107F592731C
:1031E000013307F10C02126807F10C01501C086052
:1031F00012781A7007F5927207F10C031B6807F139
:103200000C01581C08601B78137007F59273033388
:1032100007F10C02126807F10C01501C08601278CB
:103220001A7007F59273023307F10C02126807F166
:103230000C01501C086012781A70D7ED497AF5EE2F
:10324000C07AF1EE10FA36DBD7ED497AB3EE047AA4
:10325000F4EEC77AF1EE10FA2DD8D04B1B68184661
:1032600000214FF0FF32002306F05AFDD7F8243139
:10327000CB4AC2F8B83007F11003C94A1946E42313
:10328000084611461A460BF0D3FFC44B1B6818467C
:1032900000210022002306F0F9FB07F11004694623
:1032A00004F11003D422084619460BF0C1FF94E83C
:1032B0000F0004F0DBFBD7F8C0310233C7F8C03190
:1032C00007F1080307F108021288023A1A8000F099
:1032D000BBBD0023C7F8203107F59073013307F118
:1032E0000C02126807F10C01501C086012781A7069
:1032F00007F5907207F10C031B6807F10C01581CCD
:1033000008601B78137007F59073033307F10C0204
:10331000126807F10C01501C086012781A7007F54A
:103320009073023307F10C02126807F10C01501C74
:10333000086012781A70D7F82031B3F5000F2DD23B
:10334000964B1B68184600214FF0FF32002306F011
:10335000E7FCD7F82031924AC2F8C83007F11003D1
:103360008F4A1946E423084611461A460BF060FFBF
:103370008A4B1B68184600210022002306F086FBBA
:1033800007F11004694604F11003D42208461946D7
:103390000BF04EFF94E80F0004F068FBD7F8C03143
:1033A0000233C7F8C03107F1080307F10802128899
:1033B000023A1A8000F048BD4FF00003C7F81C31F4
:1033C00007F58E73013307F10C02126807F10C0147
:1033D000501C086012781A7007F58E7207F10C0302
:1033E0001B6807F10C01581C08601B78137007F567
:1033F0008E73033307F10C02126807F10C01501CA5
:10340000086012781A7007F58E73023307F10C0208
:10341000126807F10C01501C086012781A70D7ED81
:10342000477AF5EEC07AF1EE10FA36DBD7ED477A3F
:10343000B3EE047AF4EEC77AF1EE10FA2DD8574BBA
:103440001B68184600214FF0FF32002306F068FC8D
:10345000D7F81C31524AC2F8CC3007F11003504A59
:103460001946E423084611461A460BF0E1FE4B4B81
:103470001B68184600210022002306F007FB07F115
:103480001004694604F11003D422084619460BF0D3
:10349000CFFE94E80F0004F0E9FAD7F8C031023308
:1034A000C7F8C03107F1080307F108021288023A91
:1034B0001A8000F0C9BC0023C7F8183107F58C73D7
:1034C000013307F10C02126807F10C01501C08606F
:1034D00012781A7007F58C7207F10C031B6807F15C
:1034E0000C01581C08601B78137007F58C730333AC
:1034F00007F10C02126807F10C01501C08601278E9
:103500001A7007F58C73023307F10C02126807F189
:103510000C01501C086012781A70D7F81831B3F5F6
:10352000000F2DD21D4B1B68184600214FF0FF32B3
:10353000002306F0F5FBD7F81831194AC2F8D0304D
:1035400007F11003164A1946E423084611461A46A5
:103550000BF06EFE114B1B68184600210022002361
:1035600006F094FA07F11004694604F11003D4221E
:10357000084619460BF05CFE94E80F0004F076FA5A
:10358000D7F8C0310233C7F8C03107F1080307F19B
:1035900008021288023A1A8000F056BC605D0020D2
:1035A000005C00204FF00003C7F8143107F58A7360
:1035B000013307F10C02126807F10C01501C08607E
:1035C00012781A7007F58A7207F10C031B6807F16D
:1035D0000C01581C08601B78137007F58A730333BD
:1035E00007F10C02126807F10C01501C08601278F8
:1035F0001A7007F58A73023307F10C02126807F19B
:103600000C01501C086012781A70D7ED457AF5EE5F
:10361000C07AF1EE10FA36DBD7ED457AB3EE047AD4
:10362000F4EEC77AF1EE10FA2DD8CE4B1B6818468F
:1036300000214FF0FF32002306F072FBD7F814315F
:10364000C94AC2F8D43007F11003C74A1946E42327
:10365000084611461A460BF0EBFDC24B1B68184694
:1036600000210022002306F011FA07F11004694638
:1036700004F11003D422084619460BF0D9FD94E852
:103680000F0004F0F3F9D7F8C0310233C7F8C031A6
:1036900007F1080307F108021288023A1A80D3E3FF
:1036A0000023C7F8103107F58873013307F10C02C6
:1036B000126807F10C01501C086012781A7007F5A7
:1036C000887207F10C031B6807F10C01581C086095
:1036D0001B78137007F58873033307F10C02126827
:1036E00007F10C01501C086012781A7007F58873F6
:1036F000023307F10C02126807F10C01501C08603C
:1037000012781A70D7F81031B3F5000F2DD2954BFF
:103710001B68184600214FF0FF32002306F000FB23
:10372000D7F81031904AC2F8903007F110038E4A52
:103730001946E423084611461A460BF079FD894BD9
:103740001B68184600210022002306F09FF907F1AC
:103750001004694604F11003D422084619460BF000
:1037600067FD94E80F0004F081F9D7F8C031023307
:10377000C7F8C03107F1080307F108021288023ABE
:103780001A8061E34FF00003C7F80C3107F5867328
:10379000013307F10C02126807F10C01501C08609C
:1037A00012781A7007F5867207F10C031B6807F18F
:1037B0000C01581C08601B78137007F586730333DF
:1037C00007F10C02126807F10C01501C0860127816
:1037D0001A7007F58673023307F10C02126807F1BD
:1037E0000C01501C086012781A70D7ED437AF5EE80
:1037F000C07AF1EE10FA36DBD7ED437AB3EE047AF5
:10380000F4EEC77AF1EE10FA2DD8564B1B68184625
:1038100000214FF0FF32002306F082FAD7F80C3176
:10382000514AC2F8943007F110034F4A1946E42375
:10383000084611461A460BF0FBFC4A4B1B6818461B
:1038400000210022002306F021F907F11004694647
:1038500004F11003D422084619460BF0E9FC94E861
:103860000F0004F003F9D7F8C0310233C7F8C031B4
:1038700007F1080307F108021288023A1A80E3E20E
:103880000023C7F8083107F58473013307F10C02F0
:10389000126807F10C01501C086012781A7007F5C5
:1038A000847207F10C031B6807F10C01581C0860B7
:1038B0001B78137007F58473033307F10C02126849
:1038C00007F10C01501C086012781A7007F5847318
:1038D000023307F10C02126807F10C01501C08605A
:1038E00012781A70D7F80831B3F5000F2DD21D4B9E
:1038F0001B68184600214FF0FF32002306F010FA33
:10390000D7F80831184AC2F8983007F11003164A60
:103910001946E423084611461A460BF089FC114B60
:103920001B68184600210022002306F0AFF807F1BB
:103930001004694604F11003D422084619460BF01E
:1039400077FC94E80F0004F091F8D7F8C031023307
:10395000C7F8C03107F1080307F108021288023ADC
:103960001A8071E2605D0020005C00204FF00003CF
:10397000C7F8043107F58273013307F10C021268AE
:1039800007F10C01501C086012781A7007F582725A
:1039900007F10C031B6807F10C01581C08601B7829
:1039A000137007F58273033307F10C02126807F1F5
:1039B0000C01501C086012781A7007F582730233EC
:1039C00007F10C02126807F10C01501C0860127814
:1039D0001A70D7ED417AF5EEC07AF1EE10FA36DBC7
:1039E000D7ED417AB3EE047AF4EEC77AF1EE10FA2D
:1039F0002DD8CD4B1B68184600214FF0FF32002315
:103A000006F08EF9D7F80431C84AC2F89C3007F1A5
:103A10001003C64A1946E423084611461A460BF01D
:103A200007FCC14B1B68184600210022002306F04A
:103A30002DF807F11004694604F11003D42208465A
:103A400019460BF0F5FB94E80F0004F00FF8D7F8D7
:103A5000C0310233C7F8C03107F1080307F108028B
:103A60001288023A1A80EFE10023C7F8003107F507
:103A70008073013307F10C02126807F10C01501C2E
:103A8000086012781A7007F5807207F10C031B6842
:103A900007F10C01581C08601B78137007F5807340
:103AA000033307F10C02126807F10C01501C086087
:103AB00012781A7007F58073023307F10C0212684E
:103AC00007F10C01501C086012781A70D7F8003109
:103AD000B3F5000F2CD2944B1B68184600214FF011
:103AE000FF32002306F01CF9D7F800318F4A5367E4
:103AF00007F110038D4A1946E423084611461A4679
:103B00000BF096FB884B1B6818460021002200230F
:103B100005F0BCFF07F11004694604F11003D4223C
:103B2000084619460BF084FB94E80F0003F09EFF53
:103B3000D7F8C0310233C7F8C03107F1080307F1E5
:103B400008021288023A1A807EE14FF00003C7F89B
:103B5000FC3007F1FC03013307F10C02126807F196
:103B60000C01501C086012781A7007F1FC0207F172
:103B70000C031B6807F10C01581C08601B781370BC
:103B800007F1FC03033307F10C02126807F10C0183
:103B9000501C086012781A7007F1FC03023307F119
:103BA0000C02126807F10C01501C086012781A70A0
:103BB000D7ED3F7AF5EEC07AF1EE10FA35DBD7EDAE
:103BC0003F7AB3EE047AF4EEC77AF1EE10FA2CD80D
:103BD000554B1B68184600214FF0FF32002306F0BA
:103BE0009FF8D7F8FC30514A936707F110034F4A0A
:103BF0001946E423084611461A460BF019FB4A4BB6
:103C00001B68184600210022002305F03FFF07F142
:103C10001004694604F11003D422084619460BF03B
:103C200007FB94E80F0003F021FFD7F8C0310233FF
:103C3000C7F8C03107F1080307F108021288023AF9
:103C40001A8001E10023C7F8F83007F1F8030133C7
:103C500007F10C02126807F10C01501C0860127881
:103C60001A7007F1F80207F10C031B6807F10C0149
:103C7000581C08601B78137007F1F803033307F131
:103C80000C02126807F10C01501C086012781A70BF
:103C900007F1F803023307F10C02126807F10C0177
:103CA000501C086012781A70D7F8F830B3F5000F7E
:103CB0002CD21D4B1B68184600214FF0FF32002309
:103CC00006F02EF8D7F8F830184AD36707F110033A
:103CD000164A1946E423084611461A460BF0A8FA7C
:103CE000114B1B68184600210022002305F0CEFE70
:103CF00007F11004694604F11003D422084619465E
:103D00000BF096FA94E80F0003F0B0FED7F8C0313C
:103D10000233C7F8C03107F1080307F1080212881F
:103D2000023A1A8090E000BF605D0020005C002035
:103D30004FF00003C7F8F43007F1F403013307F143
:103D40000C02126807F10C01501C086012781A70FE
:103D500007F1F40207F10C031B6807F10C01581C72
:103D600008601B78137007F1F403033307F10C02AA
:103D7000126807F10C01501C086012781A7007F1E4
:103D8000F403023307F10C02126807F10C01501C16
:103D9000086012781A70D7ED3D7AF5EEC07AF1EE30
:103DA00010FA36DBD7ED3D7AB3EE047AF4EEC77A3B
:103DB000F1EE10FA2DD82E4B1B68184600214FF05B
:103DC000FF32002305F0ACFFD7F8F430294AC2F8DF
:103DD000803007F11003274A1946E42308461146AC
:103DE0001A460BF025FA224B1B68184600210022C8
:103DF000002305F04BFE07F11004694604F110039F
:103E0000D422084619460BF013FA94E80F0003F089
:103E10002DFED7F8C0310233C7F8C03107F10803CF
:103E200007F108021288023A1A800DE007F1080330
:103E30001A8807F10803013A1A8007F10C0307F109
:103E40000C0212681A6000BF07F108031B88002BE0
:103E50007DF423AE00BF02E0012387F8C73197F855
:103E6000C731B546184607F5E677BD46BDE8F0838D
:103E7000605D0020005C002080B485B000AFF86079
:103E8000084611461A4603467B810B463B81134682
:103E9000FB71012318461437BD465DF8047B70475B
:103EA00080B483B000AF78600B467B8013463B80C4
:103EB000012318460C37BD465DF8047B704700BFF0
:103EC00080B598B000AFF860B9601346FB8000235E
:103ED00087F85F30002387F858300023A7F85C305C
:103EE0000023A7F85A300023A7F85C3079E0B7F830
:103EF0005C2013465B0013445B001A46BB68134406
:103F00001B88002B64D1B7F85C2013465B00134478
:103F10005B001A46BB6813445B88A7F85A303CE044
:103F2000FB685A1CFA6047221A70FB685A1CFA6038
:103F300006221A70B7F85A2007F1100310461946E6
:103F400001F040FF034687F8583097F85830002BAF
:103F50001BD1002387F85930002387F859300FE030
:103F6000FB685A1CFA6097F8592007F160010A446F
:103F700012F8502C1A7097F85930013387F85930DD
:103F800097F85930452BEBD902E0012387F85F30D1
:103F9000B7F85A300133A7F85A30B7F85A10B7F8C3
:103FA0005C2013465B0013445B001A46BB68134455
:103FB0005B881846B7F85C2013465B0013445B002F
:103FC0001A46BB6813449B8803449942A8DB03E06C
:103FD000012387F85F3000BFB7F85C300133A7F8E2
:103FE0005C30B7F85C20FB889A4280D397F85F304A
:103FF00018466037BD4680BD80B586B004AF10203E
:10400000012101F00DFD02233B6001233B710123DF
:10401000BB710023FB7100237B713B460A481946A4
:1040200003F054FD01230093002301930023029326
:1040300000230393054806494FF48072002301F0E2
:10404000FBFF0837BD4680BD001002405940000804
:10405000F4FF000800000000B0B58AB000AF78603F
:104060004FF47A73FB6102F079FA0346FB600A2091
:10407000002101F077FF07F10C031846F96902F0FF
:10408000A9F8574B1B881BB2012B0BD1544B0022B4
:104090001A80544A534B1B8B9BB243F002039BB2D2
:1040A00013830AE04E4B01221A804E4A4D4B5B8B24
:1040B0009BB243F002039BB253834FF00003BB61FA
:1040C000494B1B68184600214FF0FF32002305F0D2
:1040D00027FE07F11403002019460AF0D9F807F16A
:1040E0001003002019460AF0A7F9404BD3E9060156
:1040F0003E4BD3E90223821A61EB030310461946B3
:104100000BF02CFF07EE100ADFED397AC7EE277AA5
:10411000C7ED067A374B1B68002B25D0B8690BF02A
:104120009FFB04460D46334B1B6807EE903AF8EEB2
:10413000677A17EE900A0BF093FB02460B46104687
:1041400019464FF000022C4B0BF008FD02460B46BF
:10415000204629460BF002FD02460B461046194642
:104160000BF0E4FD034601E04FF000031F4A136724
:104170001E4BD3E906231D49C1E902231A4B1B68D4
:10418000184600210022002305F080FC194B002274
:104190001A6000233B6216E0786A0BF061FB02466E
:1041A0000B46104619460CA3D3E900230BF0FAF98D
:1041B00002460B46104619460BF0B8FD03467B62DB
:1041C0003B6A01333B623B6A0C4A9342E4DD0A20BE
:1041D00001F0E0FE4FE700BF74122C0C12185A3F9A
:1041E000FC47002000100240E45C0020E85C002056
:1041F00000C8AF47F847002000408F401FA10700CC
:1042000090B587B002AF7860084611461A4603465B
:10421000FB700B46BB7013467B700023FB737B68FF
:10422000022283F83620BB78002B05D0BB78002B08
:1042300002D0BB78F72B02D90223FB734BE07B68DB
:10424000BA7883F83420FB78002B2CD17B68244A81
:10425000DA607B68234A1A617B68234A9A617B682B
:10426000224A5A617B680022DA617B68204A1A621E
:104270007B68204A5A627B681F4A9A627B6803F116
:1042800038007B6803F150017B6893F834207C7818
:104290003B6A009397F824300193234604F0F2F828
:1042A0000346FB7301E00223FB73FB7B002B12D15F
:1042B0007B686433184600F0B5FA0346002B02D140
:1042C0000323FB7307E07B68FA7883F835207B686B
:1042D000012283F83620FB7B18461437BD4690BD7B
:1042E0000585000835850008D98500085D8500082A
:1042F000A9860008698700080588000880B584B091
:1043000000AF78600023FB737B6893F83630012B95
:104310000FD17B68DB687A6802F168007A6802F185
:1043200038017A68503298477B68002283F836203B
:1043300001E00623FB73FB7B18461037BD4680BDAA
:10434000B0B586B002AF78600023FB727B6893F84B
:104350003630002B01D00623ADE07B6803F1640208
:1043600007F10A031046194600F07EFA0346012BB6
:1043700040F0A080BB7A032B00F29C8001A252F88F
:1043800023F000BFB544000895430008DB43000854
:10439000B54400087B685C697B6803F168007B6852
:1043A000191D7A687B680633A0470346FB72FB7AC7
:1043B000002B11D17B681A797B6893F834309A42CC
:1043C00003D07B681B79002B06D17B6864331846C9
:1043D000022100F035FA6DE06CE07B681B681A780A
:1043E0007B685A717B6801221A720023FB6022E00D
:1043F000334AFB6812F83330002B00D11EE0304AFC
:10440000FB6812F833207B685B799A4210D12C4A02
:10441000FB68DB0013445B687A6811687A680632CF
:1044200008461146984703461A467B681A7205E00B
:10443000FB680133FB60FB68102BD9DD7B681B79BF
:10444000002B36D07B681B7A002B1DD07B680022A6
:10445000DA807B681A687B68DB88591C88B27968C7
:10446000C88013447A68527962F07F02D2B21A701F
:104470007B681A687B68DB88591C88B27968C880B9
:1044800013447A68127A1A707B689C697B6803F11E
:1044900068007B6803F138017B6893F834207B68FF
:1044A0001D687B68DB8800932B46A0470346FB72A0
:1044B000FFE700BF002318461037BD46B0BD00BF60
:1044C0000800002080B483B000AF78600B46FB701A
:1044D000FB78002B06D00949084BDA6B7B68134345
:1044E000CB6306E00549054BDA6B7B68DB43134081
:1044F000CB630C37BD465DF8047B7047002C014050
:1045000080B485B000AF78600023FB73084B5A6B12
:104510007B681340002B02D00123FB7301E00023D2
:10452000FB73FB7B18461437BD465DF8047B704770
:10453000002C014080B483B000AF7860034A7B68F0
:1045400093630C37BD465DF8047B7047002C014037
:1045500080B586B004AF344806F0C8FC324803F09A
:104560003BFC324806F022FE304803F0F3FC3048B2
:1045700006F0D0FE2E4803F0ABFD4FF461430093EC
:1045800000230193284800210A220023FFF738FE68
:104590000346FB714FF461430093002301932348CA
:1045A00000210A220023FFF72BFE0346FB714FF484
:1045B00061430093002301931D4800210A22002338
:1045C000FFF71EFE0346FB710123009300230193B6
:1045D0000023029300230393164817494FF40072F7
:1045E000002301F029FD0123009300230193002300
:1045F000029300230393114811494FF400720023E2
:1046000001F01AFD0123009300230193002302937C
:10461000002303930B480C494FF40072002301F070
:104620000BFD0837BD4680BD7449002000480020BE
:10463000E84A00204D460008000001087D460008B9
:1046400010000108AD4600082000010880B582B0C6
:1046500000AF78600848FFF751FE0120002101F00B
:1046600081FC0548FFF76CFE0A2001F041FE0120A5
:1046700001F090FCF5E700BF7449002080B582B0DE
:1046800000AF78600848FFF739FE0020002101F0F4
:1046900069FC0548FFF754FE0A2001F029FE0020BE
:1046A00001F078FCF5E700BF0048002080B582B03B
:1046B00000AF78600848FFF721FE0220002101F0DA
:1046C00051FC0548FFF73CFE0A2001F011FE0220D4
:1046D00001F060FCF5E700BFE84A002080B586B035
:1046E00000AF786039600023BB753B681B88052BE1
:1046F0006ED17B6801331B789BB21B02BB827B6847
:1047000002331B789AB2BB8A1343BB82BB8A013344
:10471000BB827B6803331B789BB21B027B827B6866
:1047200004331B789AB27B8A13437B827B8A002BEB
:104730004AD07B8AB3F5FA6F46D27B68FB603B6850
:1047400000221A80FB685A1CFA6002221A703B6829
:104750001B8801339AB23B681A807B8A03F00703F7
:10476000002B06D07B8ADB089BB2DBB20133FB75E2
:1047700003E07B8ADB089BB2FB75FB685A1CFA607E
:10478000FA7D1A703B681B8801339AB23B681A8025
:10479000BA8A7B8AF86811461A46FFF781FB0346FE
:1047A000FB72FB7A002B06D0FB7A184600F068FB00
:1047B0000346BB750BE03B681A88FB7D9BB2134434
:1047C0009AB23B681A8002E00323BB7502E001E065
:1047D0000323BB75BB7D18461837BD4680BD00BF9F
:1047E00080B400AFBD465DF8047B704780B483B0F1
:1047F00000AF0346FB710C37BD465DF8047B704784
:1048000080B400AFBD465DF8047B704780B400AF54
:10481000BD465DF8047B704780B400AFBD465DF8CF
:10482000047B704780B483B000AF78607B6800225F
:104830005A70012318460C37BD465DF8047B70475B
:1048400080B483B000AF78600B46FB707B680122B8
:104850005A707B68FA781A70012318460C37BD46E7
:104860005DF8047B704700BF80B584B000AF78600E
:1048700039600023FB737B685B78002B12D07B6868
:104880001A783B681A707B6800225A700123FB7308
:104890007B681B78032B05D1054B5B6A05480649ED
:1048A000064A9847FB7B18461037BD4680BD00BFBF
:1048B000E84A0020504B0020204B00204C4B0020A9
:1048C00080B582B000AF786039607B685A1C094BB4
:1048D0001B88104608491A460AF0AAFC054B1B889B
:1048E00001339AB23B681A80002318460837BD4648
:1048F00080BD00BF280600200806002080B58AB0D1
:1049000000AF7860396000237B6200233B620023A4
:10491000FB610023BB617B681B8A9BB27B627B6A65
:1049200023F440537B623B68DB881A467B6A13435F
:104930007B627B6A9AB27B681A827B689B899BB296
:104940007B627B6A23F4B05323F00C037B623B68E9
:104950009A883B681B8913439AB23B685B8913436F
:104960009BB21A467B6A13437B627B6A9AB27B686E
:104970009A817B689B8A9BB27B627B6A23F440733B
:104980007B623B689B891A467B6A13437B627B6A26
:104990009AB27B689A8207F10803184600F058FF24
:1049A0007B68314A934203D07B68304A934202D1FC
:1049B0007B693B6201E03B693B627B689B899BB200
:1049C0009BB21BB2002B0CDA3A6A13469B001344CD
:1049D0009A001A443B681B685B00B2FBF3F3FB616F
:1049E0000BE03A6A13469B0013449A001A443B6852
:1049F0001B689B00B2FBF3F3FB61FB691C4AA2FB43
:104A000003235B091B017B627B6A1B09642202FB97
:104A100003F3FA69D31ABB617B689B899BB29BB293
:104A20001BB2002B0CDABB69DB003233104AA2FB4D
:104A300003235B0903F007037A6A13437B620BE0ED
:104A4000BB691B0132330A4AA2FB03235B0903F053
:104A50000F037A6A13437B627B6A9AB27B681A817E
:104A60002837BD4680BD00BF001001400014014042
:104A70001F85EB5180B483B000AF78600B46FB70AC
:104A8000FB78002B08D07B689B899BB243F40053D2
:104A90009AB27B689A8107E07B689B899BB223F47A
:104AA00000539AB27B689A810C37BD465DF8047B4F
:104AB000704700BF80B483B000AF78600B467B8046
:104AC0007B88C3F308039AB27B689A800C37BD4693
:104AD0005DF8047B704700BF80B483B000AF78609E
:104AE0007B689B889BB2C3F308039BB218460C37C4
:104AF000BD465DF8047B704780B487B000AF786036
:104B00000B467B8013467B7000233B610023FB60D8
:104B10000023BB6000237B617B687B617B88DBB209
:104B20005B09DBB23B617B8803F01F03FB60FB6822
:104B3000012202FA03F3BB603B69012B03D17B69BD
:104B40000C337B6109E03B69022B03D17B69103395
:104B50007B6102E07B6914337B617B78002B06D09C
:104B60007B697A691168BA680A431A6006E07B6952
:104B70007A691168BA68D2430A401A601C37BD4688
:104B80005DF8047B704700BF80B485B000AF7860EB
:104B90000B467B800023FB737B681B889AB27B8863
:104BA00013409BB2002B02D00123FB7301E00023D2
:104BB000FB73FB7B18461437BD465DF8047B7047DA
:104BC00080B483B000AF78600B467B807B88DB438A
:104BD0009AB27B681A800C37BD465DF8047B70473B
:104BE00080B487B000AF78600B467B800023FB6009
:104BF00000237B610023BB600023FB747B88DBB256
:104C00005B09DBB2BB607B8803F01F037B617B69C0
:104C1000012202FA03F37B61BB68012B07D17B6899
:104C20009B899BB21A467B6913407B6111E0BB688C
:104C3000022B07D17B681B8A9BB21A467B69134003
:104C40007B6106E07B689B8A9BB21A467B691340B6
:104C50007B617B881B0A9BB2FB60FB68012202FA26
:104C600003F3FB607B681B889BB21A46FB6813400A
:104C7000FB607B69002B05D0FB68002B02D0012371
:104C8000FB7401E00023FB74FB7C18461C37BD4617
:104C90005DF8047B704700BF80B483B000AF03466B
:104CA000FB71044AFB7913600C37BD465DF8047B49
:104CB000704700BF20000E4280B485B000AF78601E
:104CC0000023FB60094B1B68FB60FB6823F0E003DB
:104CD000FB60FA687B681343FB60044AFB6813605F
:104CE0001437BD465DF8047B704700BF007000407C
:104CF00080B483B000AF0346FB71044AFB791360B4
:104D00000C37BD465DF8047B704700BF10000E42B3
:104D100080B586B000AF00237B6100233B614FF07C
:104D20008050012100F0B8FE0120FFF7B5FF0120FF
:104D300000F06EFD00BF412000F008FF0346002B8D
:104D4000F9D04FF4807000F02DFEFF233B617F23EC
:104D50007B61012000F054FE09F0DCF9002043F2F1
:104D6000F22109F0B7FB3B1D184609F079F97B6980
:104D7000BB603B69FB6000237B603B1D184609F06C
:104D800033F91837BD4680BD80B500AF4FF4807051
:104D9000FFF7B6FB0346002B0AD02B4B00221A70FC
:104DA0004FF48070FFF7C6FB284B01221A6041E0E8
:104DB0000220FFF7A5FB0346002B06D00220FFF7D9
:104DC000B9FB214B02221A7034E00820FFF798FB50
:104DD0000346002B06D00820FFF7ACFB1A4B042239
:104DE0001A7027E02020FFF78BFB0346002B06D02C
:104DF0002020FFF79FFB144B06221A701AE01020A8
:104E0000FFF77EFB0346002B06D01020FFF792FB36
:104E10000D4B05221A700DE04FF40070FFF770FB88
:104E20000346002B06D04FF40070FFF783FB064BC0
:104E300007221A704CF23A300021FFF743FB024B75
:104E40001B78DBB2184680BD680600206C06002087
:104E500080B500AF074B1B6803F0C053002B07D091
:104E6000054B01221A6005484FF0C25103F0A4FD22
:104E700080BD00BF006402407006002058640240FC
:104E800080B485B000AF0346FB71FB79012B06D0DF
:104E9000072B07D0002B08D10023FB7308E0022367
:104EA000FB7305E00623FB7302E00423FB7300BFE2
:104EB000FB7B18461437BD465DF8047B704700BF86
:104EC00080B500AFFFF760FF80BD00BF80B500AFC9
:104ED000FFF7BEFF80BD00BF80B582B000AF124BB0
:104EE0007B60124B3B6007E03B681A1D3A607A68B2
:104EF000111D796012681A603B680D4A9342F3D322
:104F00000C480D494FF000028842B8BF40F8042B0E
:104F1000FADBDFF82800016841F47001016000F05D
:104F20000FFC0837BD4680BD50040108000000207A
:104F30000806002008060020645D002088ED00E0DF
:104F400080B400AFFEE700BF80B483B000AF03467B
:104F5000FB80044AFB8813600C37BD465DF8047B78
:104F6000704700BF0030004080B483B000AF0346FC
:104F7000FB71044AFB7953600C37BD465DF8047B36
:104F8000704700BF0030004080B483B000AF0346DC
:104F9000FB80044AFB8893600C37BD465DF8047BB8
:104FA000704700BF0030004080B400AF034B4AF6AA
:104FB000AA221A60BD465DF8047B704700300040AD
:104FC00080B400AF034B4CF6CC421A60BD465DF88E
:104FD000047B70470030004080B584B000AF78603B
:104FE00039600023FB733B681B88052B24D17B6849
:104FF00001331B789BB21B02BB817B6802331B7899
:105000009AB2BB891343BB81BB890133BB817B68E7
:10501000DA1CBB891046194601220123FCF78EFBDE
:105020000346FB72FB7A002B08D0FB7A1846FFF789
:1050300027FF0346FB7301E00323FB73FB7B18464A
:105040001037BD4680BD00BF80B584B000AF78602A
:1050500039600023FB733B681B88052B4AD97B68AA
:1050600001331B789BB21B02BB817B6802331B7828
:105070009AB2BB891343BB81BB890133BB817B6877
:1050800003331B789BB21B027B817B6804331B7844
:105090009AB27B8913437B817B685B797B727B89C6
:1050A000002B23D07B89782B20D87B89DBB25B0057
:1050B000DBB27A7A9A4219D17B68991DBA897B89C9
:1050C000084611461A460123FCF738FB03463B729B
:1050D0003B7A002B06D03B7A1846FFF7D1FE0346F9
:1050E000FB7306E03B6805221A8002E00323FB7392
:1050F00002E001E00323FB73FB7B18461037BD463B
:1051000080BD00BF80B586B000AF786039600023F5
:10511000FB753B681B88052B5FD17B6801331B78CF
:105120009BB21B02BB827B6802331B789AB2BB8A9C
:105130001343BB82BB8A0133BB827B6803331B787A
:105140009BB21B027B827B6804331B787B827B8A49
:10515000002B3ED07B8A7D2B3BD87B68FB603B6875
:1051600000221A80FB685A1CFA6003221A703B68FE
:105170001B8801339AB23B681A80FB685A1CFA609C
:105180007A8AD2B25200D2B21A703B681B880133BD
:105190009AB23B681A80BA8A7B8AF86811461A4626
:1051A0000023FCF7CBFA0346FB72FB7A002B06D0F8
:1051B000FB7A1846FFF764FE0346FB750CE03B687C
:1051C0001A887B8A5B009BB213449AB23B681A80B0
:1051D00002E00323FB7502E001E00323FB75FB7D86
:1051E00018461837BD4680BD80B586B000AF7860E0
:1051F00039600023FB753B681B88092B40F29F80B8
:105200007B6801331B789BB21B02BB827B68023335
:105210001B789AB2BB8A1343BB82BB8A0133BB8221
:105220007B6803331B789BB21B027B827B68043351
:105230001B789AB27B8A13437B827B6805331B7889
:105240009BB21B023B827B6806331B789AB23B8A77
:1052500013433B823B8A01333B827B6807331B78D5
:105260009BB21B02FB817B6808331B789AB2FB89D7
:105270001343FB817B685B7A7B737B8A002B5CD05A
:105280007B8A7D2B59D8FB89002B56D0FB89792B43
:1052900053D8FB895A007B7B9A424ED17B6803F13D
:1052A0000A013A8AFB89084611461A460123FCF78F
:1052B00045FA0346BB75BB7D002B33D17B68BB60D1
:1052C0003B6800221A80BB685A1CBA6017221A7009
:1052D0003B681B8801339AB23B681A80BB685A1C32
:1052E000BA607A8AD2B25200D2B21A703B681B8876
:1052F00001339AB23B681A80BA8A7B8AB868114631
:105300001A460023FCF71AFA0346BB75BB7D002B37
:1053100008D13B681A887B8A5B009BB213449AB21F
:105320003B681A80BB7D002B06D0BB7D1846FFF77B
:10533000A7FD0346FB7502E001E00323FB75FB7D3F
:1053400018461837BD4680BD80B584B000AFF86000
:105350007A603B600B46FB72F86803F05BFBF86811
:1053600000F01CF8FB683A68C3F8E025FB68BA69EE
:10537000C3F8E425FB687A68C3F8E825FB7AF86887
:10538000194608F015FCFB68D3F8E4351B6898470C
:10539000F86803F08FFB1037BD4680BD80B483B042
:1053A00000AF7860002318460C37BD465DF8047BDB
:1053B000704700BF80B584B000AF786007F1080384
:1053C0007868194603F0BAFF3B7A03F01F03012BFC
:1053D0000AD0022B0FD0002B14D107F108037868F4
:1053E000194603F0D5FB16E007F108037868194663
:1053F00003F01EFC0FE007F108037868194603F07C
:105400004BFC08E03B7A23F07F03DBB27868194657
:1054100008F058FD00BF002318461037BD4680BD78
:1054200080B584B000AF78600B46FB70FB78002B32
:1054300044D17B6803F55C73FB607B6893F81131A2
:10544000032B4ED1FB68DA69FB689B689A4220D92E
:10545000FB68DA69FB689B68D21AFB68DA617B68D3
:10546000DB78012B06D1FB68DA68FB689B681A447D
:10547000FB68DA60FB68D968FB689A68FB68DB69DF
:10548000934228BF13469BB278681A4609F0CAF8BF
:1054900027E07B68D3F8E0351B69002B0AD07B68D6
:1054A00093F81231032B05D17B68D3F8E0351B69E3
:1054B00078689847786809F0C9F812E07B68D3F8F3
:1054C000E0359B69002B0CD07B6893F81231032BDD
:1054D00007D17B68D3F8E0359B69FA787868114684
:1054E0009847002318461037BD4680BD80B584B06C
:1054F00000AF78600B46FB70FB78002B60D17B68B7
:1055000003F58C73FB607B6893F81131022B6AD131
:10551000FB68DA69FB689B689A421CD9FB68DA6908
:10552000FB689B68D21AFB68DA617B68DB78012B29
:1055300006D1FB68DA68FB689B681A44FB68DA608E
:10554000FB68DA68FB68DB699BB2786811461A462B
:1055500009F034F847E0FB681B6AFA689268B3FB0D
:10556000F2F102FB01F29B1A002B14D1FB681A6ABC
:10557000FB689B689A420ED3FB681A6AFB685B6AF9
:105580009A4208D278680021002209F017F8FB68D7
:1055900000225A6227E07B68D3F8E035DB68002BF5
:1055A0000AD07B6893F81231032B05D17B68D3F8BE
:1055B000E035DB6878689847786809F05FF812E0B2
:1055C0007B68D3F8E0355B69002B0CD07B6893F8DF
:1055D0001231032B07D17B68D3F8E0355B69FA7889
:1055E000786811469847002318461037BD4680BD9D
:1055F00080B582B000AF7860786800214022002337
:1056000008F056FB786880214022002308F050FB08
:105610007B68012283F812217B68D3F8E4355B684C
:105620007A68927810469847002318460837BD4696
:1056300080BD00BF80B582B000AF78607B68D3F8D2
:10564000E4351B6998477B68032283F81221002305
:1056500018460837BD4680BD80B582B000AF78607F
:105660007B68042283F812217B68D3F8E435DB6879
:105670009847002318460837BD4680BD80B582B0E4
:1056800000AF78607B68D3F8E035DB69002B05D08C
:105690007B68D3F8E035DB697868984700231846C3
:1056A0000837BD4680BD00BF80B582B000AF7860CE
:1056B0000B46FB707B68D3F8E0351B68FA78786896
:1056C000114698477B68D3F8E4359B6898470023D8
:1056D00018460837BD4680BD80B582B000AF7860FF
:1056E0000B46FB707B68D3F8E0355B68FA78786826
:1056F00011469847002318460837BD4680BD00BFB5
:1057000080B582B000AF78607B68D3F8E0351B6A63
:1057100078689847002318460837BD4680BD00BF0B
:1057200080B582B000AF78607B68D3F8E0355B6A03
:1057300078689847002318460837BD4680BD00BFEB
:1057400080B500AF03F08AF809F0AEF800F022FE51
:10575000FEE700BF80B483B000AF00237B60054B41
:105760001B680133034A13600C37BD465DF8047BA8
:10577000704700BFF847002080B400AFFEE700BFCD
:1057800080B483B000AF78603960FEE780B582B046
:1057900000AF09F055F803467B607B680837BD46CB
:1057A00080BD00BF80B485B000AF78600B467B80C1
:1057B000FF23FB73FF23BB7313E07B685A1C7A60E3
:1057C0001A78BB7B5340DBB2BB600F4ABB68134403
:1057D0001A78FB7B5340BB730C4ABB6813441B789D
:1057E000FB737B885A1E7A80002BE6D1FB7B1B0261
:1057F0009AB2BB7B9BB213439BB29BB21846143741
:10580000BD465DF8047B70472C0001082C0101089F
:1058100080B483B000AF0346FB710C4B00221A70BA
:105820000A4B00221A70FB79012B02D0042B04D002
:1058300007E0064B01221A7003E0044B05221A70A0
:1058400000BF0C37BD465DF8047B704770380240DE
:1058500080B489B000AF78600023BB6100237B6116
:105860000023FB6102233B610023FB600223BB603A
:10587000484B9B6803F00C03BB61BB69042B07D04A
:10588000082B09D0002B3FD17B68434A1A603FE0C8
:105890007B68424A1A603BE03E4B5B6803F480033E
:1058A0009B0DFB603B4B5B6803F03F03BB60FB68F9
:1058B000002B0DD0394ABB68B2FBF3F2354B596867
:1058C00047F6C0730B409B0903FB02F3FB610CE03E
:1058D000314ABB68B2FBF3F22E4B596847F6C073EE
:1058E0000B409B0903FB02F3FB612A4B5B6803F44B
:1058F00040331B0C01335B003B61FA693B69B2FB2F
:10590000F3F27B681A6003E07B68234A1A6000BFE9
:10591000204B9B6803F0F003BB61BB691B09BB61B3
:105920001F4ABB6913441B78DBB27B617B681A6832
:105930007B69DA407B685A60164B9B6803F4E0533E
:10594000BB61BB699B0ABB61154ABB6913441B78E9
:10595000DBB27B617B685A687B69DA407B689A605E
:105960000C4B9B6803F46043BB61BB695B0BBB6181
:105970000B4ABB6913441B78DBB27B617B685A68B6
:105980007B69DA407B68DA602437BD465DF8047BCA
:10599000704700BF003802400024F40000127A0073
:1059A000DC00002080B485B000AF78600023FB608D
:1059B0007B6803F44073B3F5407F11D10F4B9B68B4
:1059C000FB60FB6823F4F813FB607B6823F07043F3
:1059D00023F44073FA681343FB60084AFB68936042
:1059E0000649064B1A6F7B68C3F30B0313430B671F
:1059F0001437BD465DF8047B704700BF0038024095
:105A000080B483B000AF0346FB71044AFB79136096
:105A10000C37BD465DF8047B704700BF3C0E474223
:105A200080B483B000AF78600B46FB70FB78002B2E
:105A300006D00949084B1A6B7B6813430B6306E0D9
:105A40000549054B1A6B7B68DB4313400B630C372E
:105A5000BD465DF8047B70470038024080B483B0D7
:105A600000AF78600B46FB70FB78002B06D009492D
:105A7000084B5A6B7B6813434B6306E00549054BA3
:105A80005A6B7B68DB4313404B630C37BD465DF8B4
:105A9000047B70470038024080B483B000AF786068
:105AA0000B46FB70FB78002B06D00949084B1A6C9B
:105AB0007B6813430B6406E00549054B1A6C7B6851
:105AC000DB4313400B640C37BD465DF8047B704725
:105AD0000038024080B483B000AF78600B46FB70A2
