:020000040800F2
:10000000A4610020495A0008AD5A0008AD5A000802
:10001000AD5A0008AD5A0008AD5A000800000000B3
:10002000000000000000000000000000C1A6000861
:10003000AD5A00080000000081A80008C5A800080B
:10004000AD5A000809080108AD5A0008AD5A000869
:10005000AD5A0008AD5A0008AD5A0008AD5A000864
:10006000AD5A0008AD5A0008AD5A0008AD5A000854
:10007000AD5A0008AD5A0008AD5A0008AD5A000844
:10008000AD5A0008AD5A0008AD5A0008AD5A000834
:10009000AD5A0008AD5A0008AD5A0008AD5A000824
:1000A000AD5A0008A5900008AD5A0008AD5A0008E6
:1000B000BDE90008AD5A0008258D0008AD5A0008BA
:1000C000AD5A0008AD5A0008AD5A0008AD5A0008F4
:1000D000AD5A0008AD5A0008AD5A000849C00008E2
:1000E000AD5A0008AD5A0008399C0008AD5A000806
:1000F000AD5A0008AD5A0008AD5A0008AD5A0008C4
:10010000AD5A0008315A0008E58E0008AD5A0008C3
:10011000AD5A0008AD5A0008AD5A0008AD5A0008A3
:10012000AD5A0008AD5A0008AD5A00083D5A000803
:10013000AD5A0008AD5A0008AD5A0008AD5A000883
:10014000AD5A0008AD5A0008AD5A00086D9C000871
:10015000AD5A0008AD5A0008AD5A00084DC300085A
:10016000AD5A0008AD5A0008AD5A0008AD5A000853
:10017000AD5A0008AD5A0008AD5A0008AD5A000843
:10018000AD5A0008AD5A000880B485B000AF786061
:100190004FF00003FB607B68DB684FF0FF325A6072
:1001A0007B68DB684FF0FF325A61FB6843F0004325
:1001B000FB60FB6843F40063FB607B68DB68FA6804
:1001C0009A6107F11407BD4680BC704780B586B0C0
:1001D00000AF78604FF00003FB744FF000037B61C9
:1001E0004FF00003FB604FF0030009F0E9FC7B686F
:1001F000DB681B69FB607B6903F101037B617A6942
:100200001A4B9A4202D94FF0000329E0FB68C3F36E
:10021000C073DBB2002BE6D04FF000037B61FB68BC
:1002200043F00103FB607B68DB68FA681A617B6856
:10023000DB681B69FB607B6903F101037B617A6901
:100240000A4B9A4206D8FB68C3F30003DBB2012BCA
:10025000EDD000E000BF4FF0030009F0B1FCFB7CE3
:10026000184607F11807BD4680BD00BF400D0300CA
:1002700080B489B000AFF860B960FA71BB804FF00C
:100280000003FB76FB68DB78002B2CD14FF00003DA
:100290007B614FF00003FB61BB8803F10303002B7C
:1002A00001DA03F103034FEAA3037B61FB79FA68E8
:1002B00003F132034FEA8303D3189B683B614FF08D
:1002C0000003FB610BE0BB681A683B691A60FB69BD
:1002D00003F10103FB61BB6803F10403BB60FA692E
:1002E0007B699A42EFD3FB7E184607F12407BD468F
:1002F00080BC704780B489B000AFF860B960134625
:10030000FB804FF00003FB61FB8803F10303002B2C
:1003100001DA03F103034FEAA303BB61FB68D3F8DF
:10032000D0307B614FF00003FB610BE07B691A6802
:10033000BB681A60FB6903F10103FB61BB6803F151
:100340000403BB60FA69BB699A42EFD3BB681846E5
:1003500007F12407BD4680BC704700BF80B487B05A
:1003600000AF78600B46FB704FF000033B614FF02D
:100370000003FB737B684FF00002DA707B684FF07C
:1003800001029A707B684FF040029A80FB78012B43
:1003900017D14FF0A0433B617B684FF00102DA7246
:1003A0007B684FF008021A707B684FF004025A70A5
:1003B0007B684FF4A072DA807B684FF002021A72F9
:1003C00014E0FB78002B11D14F4B3B617B684FF061
:1003D0000002DA727B684FF00C021A707B684FF0F3
:1003E00006025A707B684FF4A062DA803A697B6833
:1003F000DA603B6903F500631A467B681A614FF0C7
:1004000000037B6123E07B694FEA43123B69D31809
:1004100003F510631A4679687B6903F104034FEA18
:100420008303CB189A607B694FEA43123B69D31868
:1004300003F530631A4679687B6903F114034FEAC8
:100440008303CB185A607B6903F101037B617B68EE
:100450005B781A467B699A42D5D83B6903F580637D
:100460001A467B685A613B6903F588631A467B68C4
:10047000C3F8CC204FF000037B6113E07B694FEAA7
:1004800043123B69D31803F5A0631A4679687B6968
:1004900003F122034FEA8303CB189A607B6903F1CF
:1004A00001037B617B681B781A467B699A42E5D819
:1004B0004FF000037B6113E07B694FEA03323B6935
:1004C000D31803F580531A4679687B6903F1320328
:1004D0004FEA8303CB189A607B6903F101037B61C8
:1004E0007B681B781A467B699A42E5D83B6903F51D
:1004F00060631A467B68C3F80C21FB7B184607F142
:100500001C07BD4680BC70470000044080B588B021
:1005100000AF78604FF00003FB774FF00003BB6142
:100520004FF000037B614FF00003FB607B681B7A98
:10053000012B51D17B68DB689B6B7B617B696FF31F
:1005400010437B617B685B7A002B03D07B6943F4AB
:1005500080137B617B68DB687A699A634FF00003E4
:10056000BB617B68DB68DB68BB61BB696FF38613CB
:10057000BB61BB696FF39653BB61BB6943F010036A
:10058000BB61BB696FF3C303BB61BB696FF3C71387
:10059000BB61BB696FF35143BB61BB696FF3D3436D
:1005A000BB617B68DB68BA69DA607868FFF70EFECA
:1005B0007B68DB78012B40F08980FB684FF00502F7
:1005C00062F34403FB60FB6843F02003FB607B683D
:1005D000DB68FA689A6079E07B68DB68DB68BB619E
:1005E000BB6943F04003BB617B68DB68BA69DA60D2
:1005F0007868FFF7EBFD4FF000037B617B6943F404
:1006000080337B617B681B7A032B03D17B6943F4C6
:1006100000337B617B6943F480237B617B6943F416
:1006200000237B617B6943F400137B617B685B7A09
:10063000002B03D07B6943F480137B617B68DB680C
:100640007A699A634FF0140009F0E6FA7B68DB6878
:10065000DB68BB617B681B7A032B03D1BB6943F466
:100660008033BB617B68DB68BA69DA607B681B7AC0
:10067000032B2BD17B68DB681B6B3B613B694FF025
:10068000010262F39B633B613B696FF3D7533B61AC
:100690003B6943F080533B613B694FF02D0262F3AD
:1006A00016433B617B68DB683A691A634FF0C80008
:1006B00009F0B2FA3B6943F400033B617B68DB68F5
:1006C0003A691A634FF0C80009F0A6FA7B68DB7834
:1006D000012B11D17B68DB689B68FB60FB684FF0E6
:1006E000050262F34403FB60FB6843F02003FB60F8
:1006F0007B68DB68FA689A60FB7F184607F1200781
:10070000BD4680BD80B485B000AF78604FF0000377
:10071000FB734FF00003BB60BB6843F00103BB6099
:100720007B68DB687A68D2689168BA680A439A6025
:10073000FB7B184607F11407BD4680BC704700BF1D
:1007400080B485B000AF78604FF00003FB734FF0CA
:100750000003BB60BB6843F00103BB607B68DB68E0
:100760007A68D2689168BA686FEA02020A409A60B1
:10077000FB7B184607F11407BD4680BC704700BFDD
:1007800080B586B000AF786039604FF00003FB742D
:100790004FF000037B614FF00003FB60FB6843F008
:1007A0002003FB603B68DBB203F01F03DAB2FB6897
:1007B00062F38A13FB607B68DB68FA681A617B6806
:1007C000DB681B69FB607B6903F101037B617A696C
:1007D0000A4B9A4206D8FB68C3F34013DBB2012BE5
:1007E000EDD000E000BF4FF0030009F0E9F9FB7C19
:1007F000184607F11807BD4680BD00BF400D030035
:1008000080B586B000AF78604FF00003FB744FF006
:1008100000037B614FF00003FB60FB6843F01003B3
:10082000FB607B68DB68FA681A617B68DB681B69C0
:10083000FB607B6903F101037B617A690A4B9A4291
:1008400006D8FB68C3F30013DBB2012BEDD000E048
:1008500000BF4FF0030009F0B3F9FB7C184607F125
:100860001807BD4680BD00BF400D030080B584B0B1
:1008700000AF78600B46FB704FF00003FB737B68A2
:10088000DB68DB68BB60BB686FF35D73BB60BB6834
:100890006FF39E73BB60FB78012B04D1BB6843F000
:1008A0000053BB6006E0FB78002B03D1BB6843F02C
:1008B0008043BB607B68DB68BA68DA604FF0320067
:1008C00009F0AAF9FB7B184607F11007BD4680BD69
:1008D00080B483B000AF78607B68DB685B6903F04D
:1008E0000103184607F10C07BD4680BC704700BFE6
:1008F00080B582B000AF78607868FFF7E9FF034603
:10090000012B0CBF00230123DBB2184607F10807B7
:10091000BD4680BD80B485B000AF78604FF0000365
:10092000FB607B68DB685B69FB607B68DB689B69FD
:10093000FA681340FB60FB68184607F11407BD46D0
:1009400080BC704780B485B000AF78600B46FB7008
:100950007B681B691B68FB60FB7803F00303DAB25A
:10096000FB6862F30103FB607B681B69FA681A602D
:1009700007F11407BD4680BC704700BF80B58CB03E
:1009800000AF78604FF0000387F82B304FF0000382
:100990007B624FF000033B624FF00003FB614FF0BE
:1009A0000003BB614FF000037B617B68D3F80C311F
:1009B0004FF000021A607B681B691B683B623B6A50
:1009C0006FF3CC233B627B681B693A6A1A607B68D1
:1009D000DB7A012B47D178684FF00301FFF7B2FFB4
:1009E0007B68DB684FF080025A62FB694FF020029F
:1009F00062F31F43FB61FB694FF0800262F30F0358
:100A0000FB617B68DB68FA699A62BA8BFB8BD3184F
:100A10009BB23B83BB694FF0800262F31F43BB6113
:100A20007B68DB68BA69C3F804213A8B7B8BD318E7
:100A30009BB23B83BB694FF0200262F31F43BB6153
:100A40007B68DB68BA69C3F808213A8B7B8BD318C3
:100A50009BB23B83BB696FF31F43BB617B68DB6861
:100A6000BA69C3F80C2178684FF01001FFF788FECF
:100A70007868FFF7C5FE7B681B694FF000021A61BA
:100A80007B681B694FF000025A617B681B694FF05D
:100A9000FF329A617B681B694FF00002DA614FF008
:100AA0000003FB6242E07A68FB6A03F104034FEA49
:100AB0008303D3189B681B687B627B6AC3F3C07394
:100AC000DBB2002B0BD04FF000037B627B6A43F05C
:100AD00080437B627B6A43F000637B6202E04FF0FD
:100AE00000037B627A68FB6A03F104034FEA830325
:100AF000D3189B687A6A1A607A68FB6A03F1040368
:100B00004FEA8303D3189B684FF000021A617A689A
:100B1000FB6A03F104034FEA8303D3189B684FF089
:100B2000FF029A60FB6A03F10103FB627B685B785A
:100B30001A46FB6A9A42B6D84FF00003FB6242E0C5
:100B40007A68FB6A03F114034FEA8303D3185B68E6
:100B50001B68FB60FB68C3F3C073DBB2002B0BD0D8
:100B60004FF00003FB60FB6843F08043FB60FB68D1
:100B700043F00063FB6002E04FF00003FB607A6823
:100B8000FB6A03F114034FEA8303D3185B68FA6826
:100B90001A607A68FB6A03F114034FEA8303D318DF
:100BA0005B684FF000021A617A68FB6A03F1140374
:100BB0004FEA8303D3185B684FF0FF029A60FB6A29
:100BC00003F10103FB627B685B781A46FB6A9A4279
:100BD000B6D84FF000037B617B6943F480737B617F
:100BE0007B681B697A68126911697A696FEA020287
:100BF00011407A690A431A617B68DB78012B1ED1A8
:100C00004FF000033B613B6943F001033B613B69EB
:100C100043F002033B613B694FF0400262F38A03F9
:100C20003B613B6943F480333B613B694FF04002D9
:100C300062F359433B617B681B693A691A637868C0
:100C400000F008F897F82B30184607F13007BD463A
:100C500080BD00BF80B584B000AF78604FF0000366
:100C6000FB734FF00003BB607B68DB684FF0000252
:100C70009A617B68DB684FF0FF325A617868FFF752
:100C800083FA7B68DB78002B03D1BB6843F0100349
:100C9000BB60BB6843F40063BB60BB6843F4805334
:100CA000BB60BB6843F40053BB60BB6843F4802364
:100CB000BB60BB6843F40023BB60BB6843F0080320
:100CC000BB60BB6843F48013BB60BB6843F4001394
:100CD000BB607B68DB687A68D2689169BA686FEA42
:100CE00002021140BA680A439A61FB7B184607F179
:100CF0001007BD4680BD00BF80B485B000AF7860EE
:100D00004FF00003FB737B681B699B68BB60BB688B
:100D1000C3F34103DBB2022B0BD0032B05D0012B15
:100D200003D04FF00303FB7307E04FF00203FB73A4
:100D300003E04FF00103FB7300BFFB7B184607F194
:100D40001407BD4680BC704780B487B000AF7860A0
:100D50004FF00003FB754FF00003BB607B681B691D
:100D60009B683B617B689B691B68FB603B69C3F3C5
:100D70004103DBB2022B04D0FB686FF30A03FB6074
:100D800006E0FB684FF0030262F30A03FB6000BF5A
:100D90007B689B69FA681A60BB6843F48073BB6028
:100DA0007B681B697A6812695168BA686FEA020247
:100DB0001140BA680A435A60FB7D184607F11C07C8
:100DC000BD4680BC704700BF80B487B000AF78607C
:100DD00039604FF00003FB744FF00003FB604FF0ED
:100DE0000003BB603B685B78012B12D13B681B782A
:100DF0007A6803F104034FEA8303D3189B687B618D
:100E00003B681B784FF0010202FA03F39BB23B816F
:100E100014E03B681B787A6803F114034FEA8303FC
:100E2000D3185B687B613B681B784FF0010202FAC4
:100E300003F39AB2BB6862F31F43BB607B691B6814
:100E4000FB60FB68C3F3C033DBB2002B29D13B68E6
:100E50009B689BB24FEA43534FEA53539AB2FB68E5
:100E600062F30A03FB603B68DB7803F00303DAB24A
:100E7000FB6862F39343FB603B68DB88DBB203F003
:100E80000F03DAB2FB6862F39953FB60FB6843F02F
:100E90008053FB60FB6843F40043FB60FA687B69A6
:100EA0001A607B681B697A681269D169BA680A435B
:100EB000DA61FB7C184607F11C07BD4680BC704711
:100EC00080B487B000AF786039604FF00003FB74E6
:100ED0004FF00003FB604FF00003BB603B685B78A2
:100EE000012B12D13B681B787A6803F104034FEAA7
:100EF0008303D3189B687B613B681B784FF001022A
:100F000002FA03F39BB23B8114E03B681B787A68DA
:100F100003F114034FEA8303D3185B687B613B68DA
:100F20001B784FF0010202FA03F39AB2BB6862F336
:100F30001F43BB60FB686FF3CF33FB60FA687B69CC
:100F40001A607B681B697A681269D169BA686FEAAE
:100F500002020A40DA61FB7C184607F11C07BD4615
:100F600080BC704780B588B000AF786039604FF0C2
:100F70000003FB774FF00003BB614FF000037B6180
:100F80004FF000033B613B685B78012B40F0BD8074
:100F90003B681B787A6803F104034FEA8303D31894
:100FA0009B681B687B613B681B787A6803F10403CC
:100FB0004FEA8303D3189B681B693B613B685B69FD
:100FC000002B0AD13B696FF312033B613B694FF081
:100FD000010262F3DC433B6128E03B685B6923F07C
:100FE0007F4222F478023B6962F312033B613B6863
:100FF0005A693B689B68D31803F1FF323B689B68D2
:10100000B2FBF3F39BB24FEA83534FEA93539AB286
:101010003B6962F3DC433B613B68DB78012B05D124
:101020003B694FF0010262F35E733B613B681B78E2
:101030007A6803F104034FEA8303D3189B683A6983
:101040001A617B68DB78012B0CD13B681B787A68CE
:1010500003F104034FEA8303D3189B683A681269CB
:101060005A6116E03B68DB78012B12D03B685B6964
:10107000002B0ED03B681B784FF0010202FA03F3FD
:10108000BB617B681B697A681269516BBA690A4354
:101090005A633B68DB78012B14D17B681B699B6822
:1010A000FB60FB68C3F30D239BB203F00103002B2D
:1010B00004D17B6943F000537B6103E07B6943F01B
:1010C00080537B617B6943F080637B617B6943F084
:1010D00000437B613B681B787A6803F104034FEAA5
:1010E0008303D3189B687A691A603B68DB78012B0D
:1010F00040F09A803B68D9683B681A783B685B6926
:101100009BB27868FFF7B4F88EE03B681B787A688A
:1011100003F114034FEA8303D3185B681B687B61F8
:101120003B681B787A6803F114034FEA8303D318F2
:101130005B681B693B613B685B69002B10D13B68B6
:101140009B6823F07F4222F478023B6962F312032A
:101150003B613B694FF0010262F3DC433B6124E0F9
:101160003B685A693B689B68D31803F1FF323B68C0
:101170009B68B2FBF3F39BB24FEA83534FEA93535E
:101180009AB23B6962F3DC433B613B69C3F3C943F9
:101190009BB23A68926802FB03F323F07F4222F489
:1011A00078023B6962F312033B613B681B787A6803
:1011B00003F114034FEA8303D3185B683A691A6199
:1011C0007B68DB78012B0BD13B681B787A6803F1D5
:1011D00014034FEA8303D3185B683A6812695A61B3
:1011E0003B68DB78012B0CD13B685B79002B04D08A
:1011F0007B6943F000537B6103E07B6943F08053DC
:101200007B617B6943F080637B617B6943F00043D2
:101210007B613B681B787A6803F114034FEA830310
:10122000D3185B687A691A60FB7F184607F12007BC
:10123000BD4680BD80B489B000AF786039604FF0A2
:101240000003FB774FF00003BB614FF000033B61ED
:101250004FF00003BB603B685B78012B75D17B6866
:101260009B697B617B691B683B617B691B69BB6018
:101270003B685B69002B0AD13B7A6FF306033B7234
:10128000BB7A4FF0010262F3C403BB7224E03B68F7
:101290005A693B689B689A420ED93B689A683B68DA
:1012A0005A613B689B68DBB203F07F03DAB23B7A9A
:1012B00062F306033B7209E03B685B69DBB203F053
:1012C0007F03DAB23B7A62F306033B72BB7A4FF0DC
:1012D000010262F3C403BB72BA687B691A617B685E
:1012E000DB78012B0BD13B681B787A6803F1040390
:1012F0004FEA8303D3189B683A6812695A613B69C5
:1013000043F080633B613B6943F000433B613A69D2
:101310007B691A607B68DB78002B40F083803B6838
:101320005B69002B7ED03B681B784FF0010202FA0C
:1013300003F3BA691343BB617B681B697A6812695E
:10134000516BBA690A435A636CE03B681B787A6850
:1013500003F114034FEA8303D3185B681B683B61F6
:101360003B681B787A6803F114034FEA8303D318B0
:101370005B681B69BB603B685B69002B10D13B68F5
:101380009B68DBB203F07F03DAB23B7A62F30603B9
:101390003B72BB7A4FF0010262F3C403BB7213E0ED
:1013A0003B689A683B685A613B689B68DBB203F014
:1013B0007F03DAB23B7A62F306033B72BB7A4FF0EB
:1013C000010262F3C403BB723B681B787A6803F1C5
:1013D00014034FEA8303D3185B68BA681A617B6809
:1013E000DB78012B0BD13B681B787A6803F114037F
:1013F0004FEA8303D3185B683A6812695A613B6904
:1014000043F080633B613B6943F000433B613B68D1
:101410001B787A6803F114034FEA8303D3185B68DF
:101420003A691A60FB7F184607F12407BD4680BC65
:10143000704700BF80B487B000AF786039604FF06C
:101440000003FB754FF00003FB603B685B78012BEA
:101450001ED13B681B787A6803F104034FEA8303CB
:10146000D3189B683B613B691B68FB60FB68C3F357
:10147000C073DBB2002B03D0FB6843F08043FB60FA
:10148000FB6843F40013FB60FA683B691A6013E0E1
:101490003B681B787A6803F114034FEA8303D3187F
:1014A0005B683B613B691B68FB60FB6843F40013AE
:1014B000FB60FA683B691A60FB7D184607F11C0760
:1014C000BD4680BC704700BF80B487B000AF786075
:1014D00039604FF00003FB744FF00003FB603B6882
:1014E0005B78012B0AD13B681B787A6803F104030F
:1014F0004FEA8303D3189B687B6109E03B681B7844
:101500007A6803F114034FEA8303D3185B687B61A5
:101510007B691B68FB60FB686FF35553FB603B689E
:10152000DB78032B03D03B68DB78022B03D1FB680D
:1015300043F08053FB60FA687B691A60FB7C1846B5
:1015400007F11C07BD4680BC704700BF80B485B062
:1015500000AF78607B681B699B69FB607B681B69D7
:10156000DB69FA681340FB60FB684FEA13431846D7
:1015700007F11407BD4680BC704700BF80B485B03A
:1015800000AF78600B46FB70FB787A6803F11403B8
:101590004FEA8303D3185B689B68FB607B681B6919
:1015A0005B69FA681340FB60FB68184607F1140793
:1015B000BD4680BC704700BF80B485B000AF786086
:1015C0007B681B699B69FB607B681B69DB69FA6848
:1015D0001340FB60FB684FEA03434FEA134318468E
:1015E00007F11407BD4680BC704700BF80B487B0C8
:1015F00000AF78604FF000033B61FB7C43F0C00319
:10160000FB74BB7C4FF0010262F3C403BB743B7CF0
:101610004FF0180262F306033B747B685B6D3A6916
:101620001A617B68DB78012B17D14FF00003FB6058
:101630007B685B6D7A6802F5B9625A617B685B6DA5
:101640001B68FB60FB6843F00043FB604FF08023A6
:10165000FB607B685B6DFA681A6007F11C07BD468A
:1016600080BC704780B485B000AF78607B689B7A9F
:10167000002B1BD07B681B699B68FB60FB68C3F376
:101680000003DBB2012B11D17B6803F586731B6865
:10169000BB60BB686FF34103BB60BB686FF30003C3
:1016A000BB607B68D3F80C31BA681A6007F1140785
:1016B000BD4680BC704700BF80B400AFBD4680BC53
:1016C000704700BF80B400AFBD4680BC704700BF0C
:1016D0002DE9F04387B000AF786013460A467A8060
:1016E0003B806B461E464FF00003FB75984B197804
:1016F0000B4603F1FF33FB60CAB24FF000034FEA21
:1017000012704FEA031940EA09094FEA0218CAB2F7
:101710004FF000034FEA12704FEA031505434FEAFA
:1017200002140B464FEA430303F1010303F10703DD
:101730004FEAD3034FEAC303ADEB030D6B4603F14E
:1017400001034FEA53034FEA4303BB60814B1B681D
:1017500018464FF000014FF0FF324FF0000309F040
:1017600021FBBB687C4A12681A60BB6803F1040362
:10177000794A52681A60BB6803F10801764BD3E9D5
:10178000022313460B60BB6803F10C01724BD3E9D3
:10179000042313460B60BB6803F110036E4A926981
:1017A0001A60BB6803F114036B4AD2691A60BB6804
:1017B00003F11803684A926C1A60BB6803F11C03BA
:1017C000654AD26C1A60BB6803F12003624A526C0E
:1017D0001A60BB6803F124035F4A126C1A60BB688D
:1017E00003F128035C4A926D1A60BB6803F12C0375
:1017F000594AD26D1A60BB6803F13003564A526DE4
:101800001A60BB6803F13403534A126D1A60BB6857
:1018100003F13804504B9B6A184610F011F9034647
:101820002360BB6803F13C044B4BDB6A184610F0A5
:1018300007F903462360BB6803F14004464B5B6A2B
:10184000184610F0FDF803462360BB6803F144041A
:10185000414B1B6A184610F0F3F803462360BB683F
:1018600003F148043C4B9B6B184610F0E9F8034623
:101870002360BB6803F14C04374BDB6B184610F058
:10188000DFF803462360BB6803F15004324B5B6B07
:10189000184610F0D5F803462360BB6803F15404E2
:1018A0002D4B1B6B184610F0CBF803462360294BD9
:1018B0001B6818464FF000014FF000024FF0000384
:1018C00009F056F9254B1B787A889A4235D37A88E5
:1018D0003B88D218214B1B7819461D4B1B78CB181F
:1018E0009A422ADC7A881E4B1B78D31A3B6120E08F
:1018F000BB683A6933F812304FEA13239BB2DAB26D
:101900007B681A707B6803F101037B60BB683A69EE
:1019100033F81230DAB27B681A707B6803F1010386
:101920007B603B6903F101033B613B8803F1FF33BB
:101930003B803B88002BDBD102E04FF00103FB75BD
:10194000FB7DB546184607F11C07BD46BDE8F08390
:10195000020000203C5900204059002000000020D7
:10196000040000202DE9F043F9B01EAF07F10C068A
:101970003060084611461A4607F10A03188007F13D
:101980000803198007F107031A706B461E464FF0D3
:10199000000387F867312E4B19780B4603F1FF33AC
:1019A000C7F85C31CAB24FF000034FEA12704FEA39
:1019B000031940EA09094FEA0218CAB24FF00003BE
:1019C0004FEA12704FEA031505434FEA02140B4623
:1019D0004FEA430303F1010303F107034FEAD30383
:1019E0004FEAC303ADEB030D1EAB03F101034FEA56
:1019F00053034FEA4303C7F85831164B1B7807F1DE
:101A00000A0212889A42C3F0168007F10A031A8864
:101A100007F108031B88D2180E4B1B7819460C4B94
:101A20001B78CB189A4203F3068007F10A031A8841
:101A3000094B1B78D31AC7F8603107F107031B78ED
:101A4000002B0BD0012B02F0EE8702F0F3BF00BF9A
:101A500003000020010000200500002007F5AA7304
:101A60004FF0000019460DF001FF07F5A8734FF085
:101A7000000019460DF0E2FF97F856311A46D7F8E4
:101A800058311A8097F855311A46D7F858315A808C
:101A900097F854311A46D7F858319A8097F852314E
:101AA0001A46D7F85831DA8097F851311A46D7F8E4
:101AB00058311A8197F853311A46D7F858315A815C
:101AC00097F850311A46D7F858319A81D7F85831DB
:101AD00003F10E03914A12681A60D7F8583103F1E6
:101AE00012038E4A526A1A60D7F8583103F116036E
:101AF0008A4A926A1A60D7F8583103F11A03874A62
:101B0000D26A1A60D7F8583103F11E03834A126B68
:101B10001A60D7F8583103F12203804A526B1A60D9
:101B2000D7F8583103F126037C4A926B1A60D7F834
:101B3000583103F12A03794AD26B1A60D7F8583129
:101B400003F12E03754A126C1A60D7F8583103F16D
:101B50003203724A52691A60D7F8583103F13603DA
:101B60006E4A92691A60D7F8583103F13A036B4A0A
:101B7000D2691A60D7F8583103F13E03674A126AF6
:101B80001A60D7F8583103F14203644A52681A6068
:101B9000D7F8583103F14603604A92681A60D7F8C3
:101BA000583103F14A035D4AD2681A60D7F85831B8
:101BB00003F14E03594A12691A60D7F8583103F1FC
:101BC0005203564A526E1A60D7F8583103F1560341
:101BD000524A926E1A60D7F8583103F15A034F4AAD
:101BE000D26E1A60D7F8583103F15E034B4A126F78
:101BF0001A60D7F8583103F16203484A526F1A60ED
:101C0000D7F8583103F16603444A926F1A60D7F847
:101C1000583103F16A03414AD26F1A60D7F858313C
:101C200003F16E033D4AD2F880201A60D7F858318C
:101C300003F17203394A526D1A60D7F8583103F133
:101C40007603364A926D1A60D7F8583103F17A0359
:101C5000324AD26D1A60D7F8583103F17E032F4A09
:101C6000126E1A60D7F8583103F182032B4A526C76
:101C70001A60D7F8583103F18603284A926C1A602B
:101C8000D7F8583103F18A03244AD26C1A60D7F886
:101C9000583103F18E03214A126D1A6036E0D7F8ED
:101CA0005831D7F8602133F812304FEA13239BB232
:101CB000DAB207F10C031B681A7007F10C0307F185
:101CC0000C02126802F101021A60D7F85831D7F8F5
:101CD000602133F81230DAB207F10C031B681A7076
:101CE00007F10C0307F10C02126802F101021A60FD
:101CF000D7F8603103F10103C7F8603107F1080339
:101D000007F10802128802F1FF321A8007F1080376
:101D10001B88002BC3D102F08DBE00BFB858002035
:101D2000D7F86031472B02F26F8601A252F823F0F8
:101D3000511E0008DF1E00086D1F0008FB1F000871
:101D40008920000817210008A52100083322000877
:101D5000094A00085F230008094A00088124000896
:101D6000094A0008D9250008094A0008FB2600088E
:101D7000094A000835280008094A00086D290008AA
:101D8000094A0008A72A0008094A0008C92B0008C8
:101D9000094A0008192D0008094A00083B2E0008CE
:101DA000094A0008752F0008094A0008AD300008EC
:101DB000094A0008E7310008094A00080933000809
:101DC000094A000859340008094A00087B35000810
:101DD000094A0008B5360008094A0008ED3700082E
:101DE000094A000827390008094A0008493A00084A
:101DF000094A0008993B0008094A0008BB3C000852
:101E0000094A0008F53D0008094A00082D3F00086E
:101E1000094A000869400008094A00088B41000887
:101E2000094A0008D9420008094A0008F943000895
:101E3000094A000831450008094A000865460008BB
:101E4000094A00089D470008094A0008BD480008E3
:101E50004FF00003A7F84E3107F5A4734FF00000D0
:101E600019460DF003FD07F5A77303F1010307F110
:101E70000C02126812781A7007F10C0307F10C02B9
:101E8000126802F101021A6007F5A77307F10C024C
:101E9000126812781A7007F10C0307F10C0212682D
:101EA00002F101021A60B7F84E31DBB287F84A310D
:101EB00007F5A4734FF0000019460DF045FCD7F864
:101EC000603103F10103C7F8603107F1080307F13E
:101ED0000802128802F1FF321A8002F0A4BD4FF00E
:101EE0000003A7F8463107F5A0734FF0000019462C
:101EF0000DF0BCFC07F5A37303F1010307F10C021D
:101F0000126812781A7007F10C0307F10C021268BC
:101F100002F101021A6007F5A37307F10C021268BF
:101F200012781A7007F10C0307F10C02126802F123
:101F300001021A60B7F84631DBB287F8413107F584
:101F4000A0734FF0000019460DF0FEFBD7F860318A
:101F500003F10103C7F8603107F1080307F1080234
:101F6000128802F1FF321A8002F05DBD4FF00003CB
:101F7000A7F83E3107F59C734FF0000019460DF0AD
:101F800075FC07F59F7303F1010307F10C0212685A
:101F900012781A7007F10C0307F10C02126802F1B3
:101FA00001021A6007F59F7307F10C02126812789C
:101FB0001A7007F10C0307F10C02126802F101021A
:101FC0001A60B7F83E31DBB287F8383107F59C73F9
:101FD0004FF0000019460DF0B7FBD7F8603103F160
:101FE0000103C7F8603107F1080307F108021288FE
:101FF00002F1FF321A8002F016BD4FF00003A7F87D
:10200000363107F598734FF0000019460DF016FDB4
:1020100007F59B7303F1010307F10C0212681278B4
:102020001A7007F10C0307F10C02126802F10102A9
:102030001A6007F59B7307F10C02126812781A7088
:1020400007F10C0307F10C02126802F101021A6099
:10205000B7F83631DBB287F8323107F598734FF0B5
:10206000000019460DF054FCD7F8603103F101036C
:10207000C7F8603107F1080307F10802128802F17E
:10208000FF321A8002F0CFBC4FF00003A7F82E31C8
:1020900007F594734FF0000019460DF0CFFC07F5DB
:1020A000977303F1010307F10C02126812781A709A
:1020B00007F10C0307F10C02126802F101021A6029
:1020C00007F5977307F10C02126812781A7007F17E
:1020D0000C0307F10C02126802F101021A60B7F852
:1020E0002E31DBB287F8293107F594734FF00000E9
:1020F00019460DF00DFCD7F8603103F10103C7F864
:10210000603107F1080307F10802128802F1FF327B
:102110001A8002F088BC4FF00003A7F8263107F5BB
:1021200090734FF0000019460DF088FC07F593738B
:1021300003F1010307F10C02126812781A7007F11B
:102140000C0307F10C02126802F101021A6007F594
:10215000937307F10C02126812781A7007F10C03DE
:1021600007F10C02126802F101021A60B7F8263179
:10217000DBB287F8233107F590734FF00000194662
:102180000DF0C6FBD7F8603103F10103C7F86031E9
:1021900007F1080307F10802128802F1FF321A80E2
:1021A00002F041BC4FF00003A7F81E3107F58C7315
:1021B0004FF0000019460DF041FC07F58F7303F155
:1021C000010307F10C02126812781A7007F10C0370
:1021D00007F10C02126802F101021A6007F58F7311
:1021E00007F10C02126812781A7007F10C0307F15C
:1021F0000C02126802F101021A60B7F81E31DBB25C
:1022000087F8183107F58C734FF0000019460DF070
:102210007FFBD7F8603103F10103C7F8603107F1A4
:10222000080307F10802128802F1FF321A8002F057
:10223000FABB4FF00003C7F8143107F58A7303F1B6
:10224000010307F10C02126812781A7007F10C03EF
:1022500007F10C02126802F101021A6007F58A7395
:1022600007F10C02126812781A7007F10C0307F1DB
:102270000C02126802F101021A6007F58A7303F179
:10228000030307F10C02126812781A7007F10C03AD
:1022900007F10C02126802F101021A6007F58A7355
:1022A00003F1020307F10C02126812781A7007F1A9
:1022B0000C0307F10C02126802F101021A60D7F850
:1022C0001421BE4B9A423AD9D7F81421BC4B9A42FA
:1022D00035D8BC4B1B6818464FF000014FF0FF3259
:1022E0004FF0000308F05EFDD7F81421B64B1A60DA
:1022F00007F11002B44B11461A464FF0840308460A
:1023000011461A460EF0ACFBAE4B1B6818464FF058
:1023100000014FF000024FF0000308F029FC07F124
:102320001004694604F110024FF074030846114688
:102330001A460EF095FB94E80F0006F00BFBD7F859
:10234000603103F10203C7F8603107F1080307F1B8
:1023500008021288A2F102021A8002F064BB4FF058
:102360000003C7F8103107F5887303F1010307F183
:102370000C02126812781A7007F10C0307F10C02B4
:10238000126802F101021A6007F5887307F10C0266
:10239000126812781A7007F10C0307F10C02126828
:1023A00002F101021A6007F5887303F1030307F1D4
:1023B0000C02126812781A7007F10C0307F10C0274
:1023C000126802F101021A6007F5887303F1020333
:1023D00007F10C02126812781A7007F10C0307F16A
:1023E0000C02126802F101021A60D7F81021774B33
:1023F0009A4235D8734B1B6818464FF000014FF0D6
:10240000FF324FF0000308F0CDFCD7F810216E4BDF
:102410005A6207F110026C4B11461A464FF08403C2
:10242000084611461A460EF01BFB664B1B68184601
:102430004FF000014FF000024FF0000308F098FB4E
:1024400007F11004694604F110024FF074030846C6
:1024500011461A460EF004FB94E80F0006F07AFAD3
:10246000D7F8603103F10203C7F8603107F10803C0
:1024700007F108021288A2F102021A8002F0D3BA10
:10248000534BC7F80C3107F5867303F1010307F1CD
:102490000C02126812781A7007F10C0307F10C0293
:1024A000126802F101021A6007F5867307F10C0247
:1024B000126812781A7007F10C0307F10C02126807
:1024C00002F101021A6007F5867303F1030307F1B5
:1024D0000C02126812781A7007F10C0307F10C0253
:1024E000126802F101021A6007F5867303F1020314
:1024F00007F10C02126812781A7007F10C0307F149
:102500000C02126802F101021A60D7F80C31184669
:102510002F490FF081FA0346002B3ED0D7F80C313B
:1025200018462C490FF06EFA0346002B35D0254B88
:102530001B6818464FF000014FF0FF324FF00003C8
:1025400008F030FCD7F80C211F4B9A6207F11002FB
:102550001D4B11461A464FF08403084611461A4691
:102560000EF07EFA174B1B6818464FF000014FF033
:1025700000024FF0000308F0FBFA07F1100469466F
:1025800004F110024FF07403084611461A460EF08B
:1025900067FA94E80F0006F0DDF9D7F8603103F12F
:1025A0000203C7F8603107F1080307F10802128837
:1025B000A2F102021A8002F036BA00BF17293101D7
:1025C000E8303101A0590020B8580020FFFF7F00FB
:1025D000000000000000A0414FF00003C7F80831E0
:1025E00007F5847303F1010307F10C0212681278F6
:1025F0001A7007F10C0307F10C02126802F10102D4
:102600001A6007F5847307F10C02126812781A70C9
:1026100007F10C0307F10C02126802F101021A60C3
:1026200007F5847303F1030307F10C0212681278B3
:102630001A7007F10C0307F10C02126802F1010293
:102640001A6007F5847303F1020307F10C021268A4
:1026500012781A7007F10C0307F10C02126802F1EC
:1026600001021A60D7F80821BB4B9A4235D8BB4B00
:102670001B6818464FF000014FF0FF324FF0000387
:1026800008F090FBD7F80821B54BDA6207F1100289
:10269000B34B11461A464FF08403084611461A46BA
:1026A0000EF0DEF9AD4B1B6818464FF000014FF0FD
:1026B00000024FF0000308F05BFA07F110046946CE
:1026C00004F110024FF07403084611461A460EF04A
:1026D000C7F994E80F0006F03DF9D7F8603103F12F
:1026E0000203C7F8603107F1080307F108021288F6
:1026F000A2F102021A8002F096B99A4BC7F804318F
:1027000007F5827303F1010307F10C0212681278D6
:102710001A7007F10C0307F10C02126802F10102B2
:102720001A6007F5827307F10C02126812781A70AA
:1027300007F10C0307F10C02126802F101021A60A2
:1027400007F5827303F1030307F10C021268127894
:102750001A7007F10C0307F10C02126802F1010272
:102760001A6007F5827303F1020307F10C02126885
:1027700012781A7007F10C0307F10C02126802F1CB
:1027800001021A60D7F80431184676490FF044F96F
:102790000346002B3ED0D7F80431184672490FF09B
:1027A00031F90346002B35D06C4B1B6818464FF0AF
:1027B00000014FF0FF324FF0000308F0F3FAD7F8B2
:1027C0000421674B1A6307F11002654B11461A4644
:1027D0004FF08403084611461A460EF041F95F4B4C
:1027E0001B6818464FF000014FF000024FF0000345
:1027F00008F0BEF907F11004694604F110024FF029
:102800007403084611461A460EF02AF994E80F00A0
:1028100006F0A0F8D7F8603103F10203C7F8603181
:1028200007F1080307F108021288A2F102021A80D8
:1028300002F0F9B84FF00003C7F8003107F58073D4
:1028400003F1010307F10C02126812781A7007F104
:102850000C0307F10C02126802F101021A6007F57D
:10286000807307F10C02126812781A7007F10C03DA
:1028700007F10C02126802F101021A6007F5807379
:1028800003F1030307F10C02126812781A7007F1C2
:102890000C0307F10C02126802F101021A6007F53D
:1028A000807303F1020307F10C02126812781A70A8
:1028B00007F10C0307F10C02126802F101021A6021
:1028C000D7F80021244B9A4235D8244B1B68184670
:1028D0004FF000014FF0FF324FF0000308F062FAB2
:1028E000D7F800211E4B5A6307F110021C4B11460A
:1028F0001A464FF08403084611461A460EF0B0F807
:10290000164B1B6818464FF000014FF000024FF0C5
:10291000000308F02DF907F11004694604F11002D4
:102920004FF07403084611461A460EF099F894E8E1
:102930000F0006F00FF8D7F8603103F10203C7F873
:10294000603107F1080307F108021288A2F10202C0
:102950001A8002F068B800BFFFFF7F00A059002076
:10296000B8580020000000000000A041E84BC7F864
:10297000FC3007F1FC0303F1010307F10C021268BC
:1029800012781A7007F10C0307F10C02126802F1B9
:1029900001021A6007F1FC0307F10C0212681278B9
:1029A0001A7007F10C0307F10C02126802F1010220
:1029B0001A6007F1FC0303F1030307F10C0212682C
:1029C00012781A7007F10C0307F10C02126802F179
:1029D00001021A6007F1FC0303F1020307F10C0284
:1029E000126812781A7007F10C0307F10C021268D2
:1029F00002F101021A60D7F8FC301846C4490FF002
:102A00000BF80346002B3ED0D7F8FC301846C149DE
:102A10000EF0F8FF0346002B35D0BA4B1B68184662
:102A20004FF000014FF0FF324FF0000308F0BAF909
:102A3000D7F8FC20B44B9A6307F11002B24B114651
:102A40001A464FF08403084611461A460EF008F85D
:102A5000AC4B1B6818464FF000014FF000024FF0DE
:102A6000000308F085F807F11004694604F110022C
:102A70004FF07403084611461A460DF0F1FF94E832
:102A80000F0005F067FFD7F8603103F10203C7F8C4
:102A9000603107F1080307F108021288A2F102026F
:102AA0001A8001F0C0BF4FF00003C7F8F83007F1FB
:102AB000F80303F1010307F10C02126812781A708F
:102AC00007F10C0307F10C02126802F101021A600F
:102AD00007F1F80307F10C02126812781A7007F177
:102AE0000C0307F10C02126802F101021A6007F1EF
:102AF000F80303F1030307F10C02126812781A704D
:102B000007F10C0307F10C02126802F101021A60CE
:102B100007F1F80303F1020307F10C0212681278BF
:102B20001A7007F10C0307F10C02126802F101029E
:102B30001A60D7F8F820754B9A4235D8714B1B684C
:102B400018464FF000014FF0FF324FF0000308F03D
:102B500029F9D7F8F8206C4BDA6307F110026A4BB9
:102B600011461A464FF08403084611461A460DF0E6
:102B700077FF644B1B6818464FF000014FF00002CE
:102B80004FF0000307F0F4FF07F11004694604F169
:102B900010024FF07403084611461A460DF060FF0C
:102BA00094E80F0005F0D6FED7F8603103F1020378
:102BB000C7F8603107F1080307F108021288A2F193
:102BC00002021A8001F02FBF514BC7F8F43007F111
:102BD000F40303F1010307F10C02126812781A7072
:102BE00007F10C0307F10C02126802F101021A60EE
:102BF00007F1F40307F10C02126812781A7007F15A
:102C00000C0307F10C02126802F101021A6007F1CD
:102C1000F40303F1030307F10C02126812781A702F
:102C200007F10C0307F10C02126802F101021A60AD
:102C300007F1F40303F1020307F10C0212681278A2
:102C40001A7007F10C0307F10C02126802F101027D
:102C50001A60D7F8F43018462D490EF0DDFE034611
:102C6000002B3ED0D7F8F43018462A490EF0CAFEA1
:102C70000346002B35D0234B1B6818464FF000014C
:102C80004FF0FF324FF0000308F08CF8D7F8F42033
:102C90001D4B1A6407F110021B4B11461A464FF0E8
:102CA0008403084611461A460DF0DAFE154B1B68E0
:102CB00018464FF000014FF000024FF0000307F0FC
:102CC00057FF07F11004694604F110024FF0740336
:102CD000084611461A460DF0C3FE94E80F0005F0B1
:102CE00039FED7F8603103F10203C7F8603107F10C
:102CF000080307F108021288A2F102021A8001F00B
:102D000092BE00BFA0590020B8580020FFFF7F00EE
:102D1000000000000000A0414FF00003C7F8F030B1
:102D200007F1F00303F1010307F10C0212681278B6
:102D30001A7007F10C0307F10C02126802F101028C
:102D40001A6007F1F00307F10C02126812781A708A
:102D500007F10C0307F10C02126802F101021A607C
:102D600007F1F00303F1030307F10C021268127874
:102D70001A7007F10C0307F10C02126802F101024C
:102D80001A6007F1F00303F1020307F10C02126865
:102D900012781A7007F10C0307F10C02126802F1A5
:102DA00001021A60D7F8F020BB4B9A4235D8BB4BD2
:102DB0001B6818464FF000014FF0FF324FF0000340
:102DC00007F0F0FFD7F8F020B54B5A6107F1100279
:102DD000B34B11461A464FF08403084611461A4673
:102DE0000DF03EFEAD4B1B6818464FF000014FF052
:102DF00000024FF0000307F0BBFE07F11004694624
:102E000004F110024FF07403084611461A460DF003
:102E100027FE94E80F0005F09DFDD7F8603103F11F
:102E20000203C7F8603107F1080307F108021288AE
:102E3000A2F102021A8001F0F6BD9A4BC7F8EC30FD
:102E400007F1EC0303F1010307F10C021268127899
:102E50001A7007F10C0307F10C02126802F101026B
:102E60001A6007F1EC0307F10C02126812781A706D
:102E700007F10C0307F10C02126802F101021A605B
:102E800007F1EC0303F1030307F10C021268127857
:102E90001A7007F10C0307F10C02126802F101022B
:102EA0001A6007F1EC0303F1020307F10C02126848
:102EB00012781A7007F10C0307F10C02126802F184
:102EC00001021A60D7F8EC30184676490EF0A4FDDE
:102ED0000346002B3ED0D7F8EC30184672490EF06E
:102EE00091FD0346002B35D06C4B1B6818464FF004
:102EF00000014FF0FF324FF0000307F053FFD7F807
:102F0000EC20674B9A6107F11002654B11461A4697
:102F10004FF08403084611461A460DF0A1FD5F4BA1
:102F20001B6818464FF000014FF000024FF00003FD
:102F300007F01EFE07F11004694604F110024FF07D
:102F40007403084611461A460DF08AFD94E80F00F6
:102F500005F000FDD7F8603103F10203C7F86031D6
:102F600007F1080307F108021288A2F102021A8091
:102F700001F059BD4FF00003C7F8E83007F1E8034E
:102F800003F1010307F10C02126812781A7007F1BD
:102F90000C0307F10C02126802F101021A6007F13A
:102FA000E80307F10C02126812781A7007F10C039B
:102FB00007F10C02126802F101021A6007F1E8033E
:102FC00003F1030307F10C02126812781A7007F17B
:102FD0000C0307F10C02126802F101021A6007F1FA
:102FE000E80303F1020307F10C02126812781A7069
:102FF00007F10C0307F10C02126802F101021A60DA
:10300000D7F8E820244B9A4235D8244B1B68184641
:103010004FF000014FF0FF324FF0000307F0C2FE07
:10302000D7F8E8201E4BDA6107F110021C4B11465D
:103030001A464FF08403084611461A460DF010FD5B
:10304000164B1B6818464FF000014FF000024FF07E
:10305000000307F08DFD07F11004694604F110022A
:103060004FF07403084611461A460DF0F9FC94E837
:103070000F0005F06FFCD7F8603103F10203C7F8C9
:10308000603107F1080307F108021288A2F1020279
:103090001A8001F0C8BC00BFFFFF7F00A0590020CC
:1030A000B8580020000000000000A041E84BC7F81D
:1030B000E43007F1E40303F1010307F10C021268A5
:1030C00012781A7007F10C0307F10C02126802F172
:1030D00001021A6007F1E40307F10C02126812788A
:1030E0001A7007F10C0307F10C02126802F10102D9
:1030F0001A6007F1E40303F1030307F10C021268FD
:1031000012781A7007F10C0307F10C02126802F131
:1031100001021A6007F1E40303F1020307F10C0254
:10312000126812781A7007F10C0307F10C0212688A
:1031300002F101021A60D7F8E4301846C4490EF0D3
:103140006BFC0346002B3ED0D7F8E4301846C1494B
:103150000EF058FC0346002B35D0BA4B1B681846BE
:103160004FF000014FF0FF324FF0000307F01AFE5E
:10317000D7F8E420B44B1A6207F11002B24B1146A3
:103180001A464FF08403084611461A460DF068FCB3
:10319000AC4B1B6818464FF000014FF000024FF097
:1031A000000307F0E5FC07F11004694604F1100282
:1031B0004FF07403084611461A460DF051FC94E88E
:1031C0000F0005F0C7FBD7F8603103F10203C7F821
:1031D000603107F1080307F108021288A2F1020228
:1031E0001A8001F020BC4FF00003C7F8E03007F16F
:1031F000E00303F1010307F10C02126812781A7060
:1032000007F10C0307F10C02126802F101021A60C7
:1032100007F1E00307F10C02126812781A7007F147
:103220000C0307F10C02126802F101021A6007F1A7
:10323000E00303F1030307F10C02126812781A701D
:1032400007F10C0307F10C02126802F101021A6087
:1032500007F1E00303F1020307F10C021268127890
:103260001A7007F10C0307F10C02126802F1010257
:103270001A60D7F8E020754B9A4235D8714B1B681D
:1032800018464FF000014FF0FF324FF0000307F0F7
:1032900089FDD7F8E0206C4B5A6007F110026A4BA9
:1032A00011461A464FF08403084611461A460DF09F
:1032B000D7FB644B1B6818464FF000014FF000022B
:1032C0004FF0000307F054FC07F11004694604F1C5
:1032D00010024FF07403084611461A460DF0C0FB69
:1032E00094E80F0005F036FBD7F8603103F10203D4
:1032F000C7F8603107F1080307F108021288A2F14C
:1033000002021A8001F08FBB514BC7F8DC3007F185
:10331000DC0303F1010307F10C02126812781A7042
:1033200007F10C0307F10C02126802F101021A60A6
:1033300007F1DC0307F10C02126812781A7007F12A
:103340000C0307F10C02126802F101021A6007F186
:10335000DC0303F1030307F10C02126812781A7000
:1033600007F10C0307F10C02126802F101021A6066
:1033700007F1DC0303F1020307F10C021268127873
:103380001A7007F10C0307F10C02126802F1010236
:103390001A60D7F8DC3018462D490EF03DFB034685
:1033A000002B3ED0D7F8DC3018462A490EF02AFB15
:1033B0000346002B35D0234B1B6818464FF0000105
:1033C0004FF0FF324FF0000307F0ECFCD7F8DC20A1
:1033D0001D4B9A6007F110021B4B11461A464FF025
:1033E0008403084611461A460DF03AFB154B1B683C
:1033F00018464FF000014FF000024FF0000307F0B5
:10340000B7FB07F11004694604F110024FF0740392
:10341000084611461A460DF023FB94E80F0005F00C
:1034200099FAD7F8603103F10203C7F8603107F168
:10343000080307F108021288A2F102021A8001F0C3
:10344000F2BA00BFA0590020B8580020FFFF7F004B
:10345000000000000000A0414FF00003C7F8D83082
:1034600007F1D80303F1010307F10C021268127887
:103470001A7007F10C0307F10C02126802F1010245
:103480001A6007F1D80307F10C02126812781A705B
:1034900007F10C0307F10C02126802F101021A6035
:1034A00007F1D80303F1030307F10C021268127845
:1034B0001A7007F10C0307F10C02126802F1010205
:1034C0001A6007F1D80303F1020307F10C02126836
:1034D00012781A7007F10C0307F10C02126802F15E
:1034E00001021A60D7F8D820BB4B9A4235D8BB4BA3
:1034F0001B6818464FF000014FF0FF324FF00003F9
:1035000007F050FCD7F8D820B54BDA6007F110026D
:10351000B34B11461A464FF08403084611461A462B
:103520000DF09EFAAD4B1B6818464FF000014FF0AE
:1035300000024FF0000307F01BFB07F1100469467F
:1035400004F110024FF07403084611461A460DF0BC
:1035500087FA94E80F0005F0FDF9D7F8603103F120
:103560000203C7F8603107F1080307F10802128867
:10357000A2F102021A8001F056BA9A4BC7F8D43071
:1035800007F1D40303F1010307F10C02126812786A
:103590001A7007F10C0307F10C02126802F1010224
:1035A0001A6007F1D40307F10C02126812781A703E
:1035B00007F10C0307F10C02126802F101021A6014
:1035C00007F1D40303F1030307F10C021268127828
:1035D0001A7007F10C0307F10C02126802F10102E4
:1035E0001A6007F1D40303F1020307F10C02126819
:1035F00012781A7007F10C0307F10C02126802F13D
:1036000001021A60D7F8D430184676490EF004FA51
:103610000346002B3ED0D7F8D430184672490EF03E
:10362000F1F90346002B35D06C4B1B6818464FF060
:1036300000014FF0FF324FF0000307F0B3FBD7F863
:10364000D420674B1A6107F11002654B11461A46E8
:103650004FF08403084611461A460DF001FA5F4BFD
:103660001B6818464FF000014FF000024FF00003B6
:1036700007F07EFA07F11004694604F110024FF0DA
:103680007403084611461A460DF0EAF994E80F0053
:1036900005F060F9D7F8603103F10203C7F8603133
:1036A00007F1080307F108021288A2F102021A804A
:1036B00001F0B9B94FF00003C7F8D03007F1D003DB
:1036C00003F1010307F10C02126812781A7007F176
:1036D0000C0307F10C02126802F101021A6007F1F3
:1036E000D00307F10C02126812781A7007F10C036C
:1036F00007F10C02126802F101021A6007F1D0030F
:1037000003F1030307F10C02126812781A7007F133
:103710000C0307F10C02126802F101021A6007F1B2
:10372000D00303F1020307F10C02126812781A7039
:1037300007F10C0307F10C02126802F101021A6092
:10374000D7F8D020244B9A4235D8244B1B68184612
:103750004FF000014FF0FF324FF0000307F022FB63
:10376000D7F8D0201E4B5A6607F110021C4B1146A9
:103770001A464FF08403084611461A460DF070F9B8
:10378000164B1B6818464FF000014FF000024FF037
:10379000000307F0EDF907F11004694604F1100287
:1037A0004FF07403084611461A460DF059F994E893
:1037B0000F0005F0CFF8D7F8603103F10203C7F826
:1037C000603107F1080307F108021288A2F1020232
:1037D0001A8001F028B900BFFFFF7F00A059002028
:1037E000B8580020000000000000A041E84BC7F8D6
:1037F000CC3007F1CC0303F1010307F10C0212688E
:1038000012781A7007F10C0307F10C02126802F12A
:1038100001021A6007F1CC0307F10C02126812785A
:103820001A7007F10C0307F10C02126802F1010291
:103830001A6007F1CC0303F1030307F10C021268CD
:1038400012781A7007F10C0307F10C02126802F1EA
:1038500001021A6007F1CC0303F1020307F10C0225
:10386000126812781A7007F10C0307F10C02126843
:1038700002F101021A60D7F8CC301846C4490EF0A4
:10388000CBF80346002B3ED0D7F8CC301846C149C0
:103890000EF0B8F80346002B35D0BA4B1B6818461B
:1038A0004FF000014FF0FF324FF0000307F07AFABB
:1038B000D7F8CC20B44B9A6607F11002B24B1146F0
:1038C0001A464FF08403084611461A460DF0C8F810
:1038D000AC4B1B6818464FF000014FF000024FF050
:1038E000000307F045F907F11004694604F11002DE
:1038F0004FF07403084611461A460DF0B1F894E8EB
:103900000F0005F027F8D7F8603103F10203C7F87C
:10391000603107F1080307F108021288A2F10202E0
:103920001A8001F080B84FF00003C7F8C83007F1E3
:10393000C80303F1010307F10C02126812781A7030
:1039400007F10C0307F10C02126802F101021A6080
:1039500007F1C80307F10C02126812781A7007F118
:103960000C0307F10C02126802F101021A6007F160
:10397000C80303F1030307F10C02126812781A70EE
:1039800007F10C0307F10C02126802F101021A6040
:1039900007F1C80303F1020307F10C021268127861
:1039A0001A7007F10C0307F10C02126802F1010210
:1039B0001A60D7F8C820754B9A4235D8714B1B68EE
:1039C00018464FF000014FF0FF324FF0000307F0B0
:1039D000E9F9D7F8C8206C4BDA6607F110026A4B98
:1039E00011461A464FF08403084611461A460DF058
:1039F00037F8644B1B6818464FF000014FF0000287
:103A00004FF0000307F0B4F807F11004694604F121
:103A100010024FF07403084611461A460DF020F8C4
:103A200094E80F0004F096FFD7F8603103F1020329
:103A3000C7F8603107F1080307F108021288A2F104
:103A400002021A8000F0EFBF514BC7F8C43007F1F3
:103A5000C40303F1010307F10C02126812781A7013
:103A600007F10C0307F10C02126802F101021A605F
:103A700007F1C40307F10C02126812781A7007F1FB
:103A80000C0307F10C02126802F101021A6007F13F
:103A9000C40303F1030307F10C02126812781A70D1
:103AA00007F10C0307F10C02126802F101021A601F
:103AB00007F1C40303F1020307F10C021268127844
:103AC0001A7007F10C0307F10C02126802F10102EF
:103AD0001A60D7F8C43018462D490DF09DFF0346F3
:103AE000002B3ED0D7F8C43018462A490DF08AFF83
:103AF0000346002B35D0234B1B6818464FF00001BE
:103B00004FF0FF324FF0000307F04CF9D7F8C42014
:103B10001D4B1A6707F110021B4B11461A464FF056
:103B20008403084611461A460CF09AFF154B1B6891
:103B300018464FF000014FF000024FF0000307F06D
:103B400017F807F11004694604F110024FF07403EE
:103B5000084611461A460CF083FF94E80F0004F063
:103B6000F9FED7F8603103F10203C7F8603107F1BD
:103B7000080307F108021288A2F102021A8000F07D
:103B800052BF00BFA0590020B8580020FFFF7F009F
:103B9000000000000000A0414FF00003C7F8C03053
:103BA00007F1C00303F1010307F10C021268127858
:103BB0001A7007F10C0307F10C02126802F10102FE
:103BC0001A6007F1C00307F10C02126812781A702C
:103BD00007F10C0307F10C02126802F101021A60EE
:103BE00007F1C00303F1030307F10C021268127816
:103BF0001A7007F10C0307F10C02126802F10102BE
:103C00001A6007F1C00303F1020307F10C02126806
:103C100012781A7007F10C0307F10C02126802F116
:103C200001021A60D7F8C020BB4B9A4235D8BB4B73
:103C30001B6818464FF000014FF0FF324FF00003B1
:103C400007F0B0F8D7F8C020B54B5A6707F110025B
:103C5000B34B11461A464FF08403084611461A46E4
:103C60000CF0FEFEAD4B1B6818464FF000014FF004
:103C700000024FF0000306F07BFF07F110046946D5
:103C800004F110024FF07403084611461A460CF076
:103C9000E7FE94E80F0004F05DFED7F8603103F111
:103CA0000203C7F8603107F1080307F10802128820
:103CB000A2F102021A8000F0B6BE9A4BC7F8BC30DF
:103CC00007F1BC0303F1010307F10C02126812783B
:103CD0001A7007F10C0307F10C02126802F10102DD
:103CE0001A6007F1BC0307F10C02126812781A700F
:103CF00007F10C0307F10C02126802F101021A60CD
:103D000007F1BC0303F1030307F10C0212681278F8
:103D10001A7007F10C0307F10C02126802F101029C
:103D20001A6007F1BC0303F1020307F10C021268E9
:103D300012781A7007F10C0307F10C02126802F1F5
:103D400001021A60D7F8BC30184676490DF064FEBF
:103D50000346002B3ED0D7F8BC30184672490DF010
:103D600051FE0346002B35D06C4B1B6818464FF0B4
:103D700000014FF0FF324FF0000307F013F8D7F8BF
:103D8000BC20674B9A6707F11002654B11461A4633
:103D90004FF08403084611461A460CF061FE5F4B53
:103DA0001B6818464FF000014FF000024FF000036F
:103DB00006F0DEFE07F11004694604F110024FF030
:103DC0007403084611461A460CF04AFE94E80F00A8
:103DD00004F0C0FDD7F8603103F10203C7F8603189
:103DE00007F1080307F108021288A2F102021A8003
:103DF00000F019BE4FF00003C7F8B83007F1B80360
:103E000003F1010307F10C02126812781A7007F12E
:103E10000C0307F10C02126802F101021A6007F1AB
:103E2000B80307F10C02126812781A7007F10C033C
:103E300007F10C02126802F101021A6007F1B803DF
:103E400003F1030307F10C02126812781A7007F1EC
:103E50000C0307F10C02126802F101021A6007F16B
:103E6000B80303F1020307F10C02126812781A700A
:103E700007F10C0307F10C02126802F101021A604B
:103E8000D7F8B820244B9A4235D8244B1B681846E3
:103E90004FF000014FF0FF324FF0000306F082FFB9
:103EA000D7F8B8201E4BDA6707F110021C4B1146F9
:103EB0001A464FF08403084611461A460CF0D0FD0E
:103EC000164B1B6818464FF000014FF000024FF0F0
:103ED000000306F04DFE07F11004694604F11002DC
:103EE0004FF07403084611461A460CF0B9FD94E8E9
:103EF0000F0004F02FFDD7F8603103F10203C7F87B
:103F0000603107F1080307F108021288A2F10202EA
:103F10001A8000F088BD00BFFFFF7F00A05900207D
:103F2000B8580020000000000000A041E84BC7F88E
:103F3000B43007F1B40303F1010307F10C02126876
:103F400012781A7007F10C0307F10C02126802F1E3
:103F500001021A6007F1B40307F10C02126812782B
:103F60001A7007F10C0307F10C02126802F101024A
:103F70001A6007F1B40303F1030307F10C0212689E
:103F800012781A7007F10C0307F10C02126802F1A3
:103F900001021A6007F1B40303F1020307F10C02F6
:103FA000126812781A7007F10C0307F10C021268FC
:103FB00002F101021A60D7F8B4301846C4490DF076
:103FC0002BFD0346002B3FD0D7F8B4301846C1492B
:103FD0000DF018FD0346002B36D0BA4B1B6818466F
:103FE0004FF000014FF0FF324FF0000306F0DAFE11
:103FF000D7F8B420B44BC3F8802007F11002B24BBD
:1040000011461A464FF08403084611461A460CF032
:1040100027FDAC4B1B6818464FF000014FF0000223
:104020004FF0000306F0A4FD07F11004694604F107
:1040300010024FF07403084611461A460CF010FDAA
:1040400094E80F0004F086FCD7F8603103F1020316
:10405000C7F8603107F1080307F108021288A2F1DE
:1040600002021A8000F0DFBC4FF00003C7F8B03046
:1040700007F1B00303F1010307F10C021268127893
:104080001A7007F10C0307F10C02126802F1010229
:104090001A6007F1B00307F10C02126812781A7067
:1040A00007F10C0307F10C02126802F101021A6019
:1040B00007F1B00303F1030307F10C021268127851
:1040C0001A7007F10C0307F10C02126802F10102E9
:1040D0001A6007F1B00303F1020307F10C02126842
:1040E00012781A7007F10C0307F10C02126802F142
:1040F00001021A60D7F8B020744B9A4235D8714B40
:104100001B6818464FF000014FF0FF324FF00003DC
:1041100006F048FED7F8B0206B4B5A6507F1100245
:10412000694B11461A464FF08403084611461A4659
:104130000CF096FC634B1B6818464FF000014FF0E3
:1041400000024FF0000306F013FD07F1100469466A
:1041500004F110024FF07403084611461A460CF0A1
:104160007FFC94E80F0004F0F5FBD7F8603103F111
:104170000203C7F8603107F1080307F1080212884B
:10418000A2F102021A8000F04EBC514BC7F8AC30CD
:1041900007F1AC0303F1010307F10C021268127876
:1041A0001A7007F10C0307F10C02126802F1010208
:1041B0001A6007F1AC0307F10C02126812781A704A
:1041C00007F10C0307F10C02126802F101021A60F8
:1041D00007F1AC0303F1030307F10C021268127834
:1041E0001A7007F10C0307F10C02126802F10102C8
:1041F0001A6007F1AC0303F1020307F10C02126825
:1042000012781A7007F10C0307F10C02126802F120
:1042100001021A60D7F8AC3018462D490DF0FCFBAE
:104220000346002B3ED0D7F8AC30184629490DF094
:10423000E9FB0346002B35D0224B1B6818464FF094
:1042400000014FF0FF324FF0000306F0ABFDD7F84E
:10425000AC201D4B9A6507F110021B4B11461A4604
:104260004FF08403084611461A460CF0F9FB154B33
:104270001B6818464FF000014FF000024FF000039A
:1042800006F076FC07F11004694604F110024FF0C5
:104290007403084611461A460CF0E2FB94E80F003E
:1042A00004F058FBD7F8603103F10203C7F860311E
:1042B00007F1080307F108021288A2F102021A802E
:1042C000B1E300BFA0590020B8580020FFFF7F00D5
:1042D000000000000000A0414FF00003C7F8A83024
:1042E00007F1A80303F1010307F10C021268127829
:1042F0001A7007F10C0307F10C02126802F10102B7
:104300001A6007F1A80307F10C02126812781A70FC
:1043100007F10C0307F10C02126802F101021A60A6
:1043200007F1A80303F1030307F10C0212681278E6
:104330001A7007F10C0307F10C02126802F1010276
:104340001A6007F1A80303F1020307F10C021268D7
:1043500012781A7007F10C0307F10C02126802F1CF
:1043600001021A60D7F8A820B94B9A4235D8B94B48
:104370001B6818464FF000014FF0FF324FF000036A
:1043800006F010FDD7F8A820B34BDA6507F110024C
:10439000B14B11461A464FF08403084611461A469F
:1043A0000CF05EFBAB4B1B6818464FF000014FF062
:1043B00000024FF0000306F0DBFB07F11004694632
:1043C00004F110024FF07403084611461A460CF02F
:1043D00047FB94E80F0004F0BDFAD7F8603103F111
:1043E0000203C7F8603107F1080307F108021288D9
:1043F000A2F102021A8016E3984BC7F8A43007F125
:10440000A40303F1010307F10C02126812781A7079
:1044100007F10C0307F10C02126802F101021A60A5
:1044200007F1A40307F10C02126812781A7007F161
:104430000C0307F10C02126802F101021A6007F185
:10444000A40303F1030307F10C02126812781A7037
:1044500007F10C0307F10C02126802F101021A6065
:1044600007F1A40303F1020307F10C0212681278AA
:104470001A7007F10C0307F10C02126802F1010235
:104480001A60D7F8A430184674490DF0C5FA0346EF
:10449000002B3ED0D7F8A430184671490DF0B2FA7F
:1044A0000346002B35D06B4B1B6818464FF00001BC
:1044B0004FF0FF324FF0000306F074FCD7F8A42051
:1044C000654B1A6607F11002634B11461A464FF00E
:1044D0008403084611461A460CF0C2FA5D4B1B686D
:1044E00018464FF000014FF000024FF0000306F0B5
:1044F0003FFB07F11004694604F110024FF074030A
:10450000084611461A460CF0ABFA94E80F0004F086
:1045100021FAD7F8603103F10203C7F8603107F1DF
:10452000080307F108021288A2F102021A807AE257
:104530004FF00003C7F8A03007F1A00303F1010317
:1045400007F10C02126812781A7007F10C0307F1D8
:104550000C02126802F101021A6007F1A00307F1D0
:104560000C02126812781A7007F10C0307F10C02A2
:10457000126802F101021A6007F1A00303F10303BC
:1045800007F10C02126812781A7007F10C0307F198
:104590000C02126802F101021A6007F1A00303F194
:1045A000020307F10C02126812781A7007F10C036B
:1045B00007F10C02126802F101021A60D7F8A0207C
:1045C000234B9A4235D8234B1B6818464FF0000105
:1045D0004FF0FF324FF0000306F0E4FBD7F8A020C5
:1045E0001D4B5A6407F110021B4B11461A464FF03F
:1045F0008403084611461A460CF032FA154B1B6824
:1046000018464FF000014FF000024FF0000306F093
:10461000AFFA07F11004694604F110024FF0740379
:10462000084611461A460CF01BFA94E80F0004F0F5
:1046300091F9D7F8603103F10203C7F8603107F14F
:10464000080307F108021288A2F102021A80EAE1C7
:10465000FFFF7F00A0590020B85800200000000094
:104660000000A041E64BC7F89C3007F19C0303F122
:10467000010307F10C02126812781A7007F10C039B
:1046800007F10C02126802F101021A6007F19C03A3
:1046900007F10C02126812781A7007F10C0307F187
:1046A0000C02126802F101021A6007F19C0303F187
:1046B000030307F10C02126812781A7007F10C0359
:1046C00007F10C02126802F101021A6007F19C0363
:1046D00003F1020307F10C02126812781A7007F155
:1046E0000C0307F10C02126802F101021A60D7F8FC
:1046F0009C301846C2490DF08FF90346002B3ED07E
:10470000D7F89C301846BF490DF07CF90346002BC2
:1047100035D0B84B1B6818464FF000014FF0FF3200
:104720004FF0000306F03EFBD7F89C20B24B9A6492
:1047300007F11002B04B11461A464FF084030846A9
:1047400011461A460CF08CF9AA4B1B6818464FF01C
:1047500000014FF000024FF0000306F009FA07F1E4
:104760001004694604F110024FF074030846114624
:104770001A460CF075F994E80F0004F0EBF8D7F83E
:10478000603103F10203C7F8603107F1080307F154
:1047900008021288A2F102021A8044E14FF00003DD
:1047A000C7F8983007F1980303F1010307F10C02F1
:1047B000126812781A7007F10C0307F10C021268E4
:1047C00002F101021A6007F1980307F10C02126866
:1047D00012781A7007F10C0307F10C02126802F14B
:1047E00001021A6007F1980303F1030307F10C02B9
:1047F000126812781A7007F10C0307F10C021268A4
:1048000002F101021A6007F1980303F1020307F1B4
:104810000C02126812781A7007F10C0307F10C02EF
:10482000126802F101021A60D7F89820734B9A427D
:1048300035D8704B1B6818464FF000014FF0FF321F
:104840004FF0000306F0AEFAD7F898206A4BDA640E
:1048500007F11002684B11461A464FF084030846D0
:1048600011461A460CF0FCF8624B1B6818464FF0D4
:1048700000014FF000024FF0000306F079F907F154
:104880001004694604F110024FF074030846114603
:104890001A460CF0E5F894E80F0004F05BF8D7F83E
:1048A000603103F10203C7F8603107F1080307F133
:1048B00008021288A2F102021A80B4E0504BC7F835
:1048C000943007F1940303F1010307F10C0212681D
:1048D00012781A7007F10C0307F10C02126802F14A
:1048E00001021A6007F1940307F10C0212681278B2
:1048F0001A7007F10C0307F10C02126802F10102B1
:104900001A6007F1940303F1030307F10C02126824
:1049100012781A7007F10C0307F10C02126802F109
:1049200001021A6007F1940303F1020307F10C027C
:10493000126812781A7007F10C0307F10C02126862
:1049400002F101021A60D7F8943018462C490DF094
:1049500063F80346002B3ED0D7F894301846294917
:104960000DF050F80346002B35D0224B1B6818463B
:104970004FF000014FF0FF324FF0000306F012FA43
:10498000D7F894201C4B1A6507F110021A4B1146F8
:104990001A464FF08403084611461A460CF060F898
:1049A000144B1B6818464FF000014FF000024FF007
:1049B000000306F0DDF807F11004694604F1100267
:1049C0004FF07403084611461A460CF049F894E873
:1049D0000F0003F0BFFFD7F8603103F10203C7F8FF
:1049E000603107F1080307F108021288A2F1020200
:1049F0001A8018E0A0590020B8580020FFFF7F005F
:104A0000000000000000A04107F1080307F10802C0
:104A1000128802F1FF321A8007F10C0307F10C0231
:104A200012681A6000BF07F108031B88002B7DF491
:104A300077A900BF03E04FF0010387F8673197F8CB
:104A40006731B546184607F5B677BD46BDE8F08331
:104A500080B485B000AFF86079813A81FB714FF086
:104A60000103184607F11407BD4680BC704700BF1C
:104A700080B483B000AF786013460A467A803B80EA
:104A80004FF00103184607F10C07BD4680BC704784
:104A900080B598B000AFF860B9601346FB804FF066
:104AA000000387F85F304FF0000387F858304FF06D
:104AB0000003A7F85C304FF00003A7F85A304FF01E
:104AC0000003A7F85C308CE0B7F85C2013464FEA8F
:104AD00043039B184FEA4303BA68D3181B88002B83
:104AE00074D1B7F85C2013464FEA43039B184FEA92
:104AF0004303BA68D3185B88A7F85A3049E0FB68CB
:104B00004FF047021A70FB6803F10103FB60FB687A
:104B10004FF006021A70FB6803F10103FB60B7F85F
:104B20005A2007F110031046194601F0BFFF034653
:104B300087F8583097F85830002B20D14FF00003F9
:104B400087F859304FF0000387F8593012E097F892
:104B5000593007F16002D31813F8502CFB681A7013
:104B6000FB6803F10103FB6097F8593003F101037F
:104B700087F8593097F85930452BE8D903E04FF0C2
:104B8000010387F85F30B7F85A3003F10103A7F843
:104B90005A30B7F85A10B7F85C2013464FEA43036F
:104BA0009B184FEA4303BA68D3185B881846B7F8D6
:104BB0005C2013464FEA43039B184FEA4303BA684D
:104BC000D3189B88C318994299DB04E04FF0010386
:104BD00087F85F3000BFB7F85C3003F10103A7F836
:104BE0005C30B7F85C20FB889A42FFF46DAF97F811
:104BF0005F30184607F16007BD4680BD80B483B0C2
:104C000000AF78600B46FB70FB78002B06D00A4B98
:104C1000094AD16B7A680A43DA6307E0064B064A11
:104C2000D16B7A686FEA02020A40DA6307F10C0777
:104C3000BD4680BC704700BF002C014080B485B0E9
:104C400000AF78604FF00003FB730A4B5A6B7B6830
:104C50001340002B03D04FF00103FB7302E04FF031
:104C60000003FB73FB7B184607F11407BD4680BCAD
:104C7000704700BF002C014080B483B000AF786063
:104C8000034B7A689A6307F10C07BD4680BC7047F6
:104C9000002C014090B587B002AF7860F970BA700F
:104CA0007B704FF00003FB737B684FF0020283F8C8
:104CB0003620BB78002B05D0BB78002B02D0BB7808
:104CC000F72B03D94FF00203FB734FE07B68BA78F0
:104CD00083F83420FB78002B2CD17B68264ADA60DD
:104CE0007B68264A1A617B68254A9A617B68254A57
:104CF0005A617B684FF00002DA617B68224A1A62CF
:104D00007B68224A5A627B68214A9A627B6803F177
:104D100038007B6803F150017B6893F834207B787E
:104D20003C6A009497F82440019404F011FB034678
:104D3000FB7302E04FF00203FB73FB7B002B15D1EA
:104D40007B6803F16403184600F0CAFA0346002B9F
:104D500003D14FF00303FB7308E07B68FA7883F814
:104D600035207B684FF0010283F83620FB7B184624
:104D700007F11407BD4690BDD59300080D940008B7
:104D8000C99400083D940008B19500088196000878
:104D90003197000880B584B000AF78604FF0000311
:104DA000FB737B6893F83630012B11D17B68DB688D
:104DB0007A6802F168007A6802F138017A6802F1D3
:104DC000500298477B684FF0000283F8362002E0DB
:104DD0004FF00603FB73FB7B184607F11007BD4637
:104DE00080BD00BFB0B586B002AF78604FF0000361
:104DF000FB727B6893F83630002B02D04FF006032D
:104E0000BEE07B6803F1640207F10A03104619460D
:104E100000F08CFA0346012B40F0B080BB7A032BE4
:104E200000F2AC8001A252F823F000BF7D4F0008D1
:104E30003D4E00088B4E00087D4F00087B685C6982
:104E40007B6803F168007B6803F104017A687B6882
:104E500003F10603A0470346FB72FB7A002B40F0E8
:104E60008A807B681A797B6893F834309A4203D041
:104E70007B681B79002B7ED17B6803F164031846A5
:104E80004FF0020100F03CFA75E07B681B681A786D
:104E90007B685A717B684FF001021A724FF0000371
:104EA000FB6024E0394BFA6813F83230002B22D033
:104EB000364BFA6813F832207B685B799A4212D13C
:104EC000324AFB684FEAC303D3185B687A681168FB
:104ED0007A6802F1060208461146984703461A46C8
:104EE0007B681A7208E0FB6803F10103FB60FB6852
:104EF000102BD7DD00E000BF7B681B79002B3CD076
:104F00007B681B7A002B22D07B684FF00002DA808E
:104F10007B6819687B68DB881A468A187968497942
:104F200061F07F01C9B2117003F101039AB27B688D
:104F3000DA807B6819687B68DB881A468A1879688A
:104F4000097A117003F101039AB27B68DA807B68F9
:104F50009C697B6803F168007B6803F138017B681A
:104F600093F834207B681B687D68ED880095A04726
:104F70000346FB7201E000BF00E000BF4FF00003FA
:104F8000184607F11007BD46B0BD00BF080000205D
:104F900080B586B004AF424807F09EF8404803F061
:104FA000DDFE404807F01AFA3E4803F0B7FF3E48DE
:104FB00007F0D8FA3C4804F091F84FF461430093AD
:104FC0004FF00003019336484FF000014FF00A0202
:104FD0004FF00003FFF75EFE0346FB714FF46143A1
:104FE00000934FF0000301932E484FF000014FF063
:104FF0000A024FF00003FFF74DFE0346FB714FF42A
:10500000614300934FF00003019327484FF00001E4
:105010004FF00A024FF00003FFF73CFE0346FB711E
:105020004FF0010300934FF0000301934FF0000392
:1050300002934FF0000303931C481D494FF4007284
:105040004FF0000301F09EFE4FF0010300934FF07C
:10505000000301934FF0000302934FF0000303930A
:10506000144815494FF400724FF0000301F08AFE16
:105070004FF0010300934FF0000301934FF0000342
:1050800002934FF0000303930C480D494FF4007254
:105090004FF0000301F076FE07F10807BD4680BD22
:1050A00034460020C0440020A8470020C550000816
:1050B000801A0108FD500008901A010835510008B7
:1050C000A01A010880B582B000AF78600A48FFF7E7
:1050D00061FE4FF001004FF0000101F0DFFD0648D6
:1050E000FFF780FE4FF00A0001F004FF4FF00100CF
:1050F00001F0ECFDF3E700BF3446002080B582B03C
:1051000000AF78600A48FFF745FE4FF000004FF00F
:10511000000101F0C3FD0648FFF764FE4FF00A00EE
:1051200001F0E8FE4FF0000001F0D0FDF3E700BF12
:10513000C044002080B582B000AF78600A48FFF715
:1051400029FE4FF002004FF0000101F0A7FD0648D4
:10515000FFF748FE4FF00A0001F0CCFE4FF00200CE
:1051600001F0B4FDF3E700BFA847002080B586B08A
:1051700000AF786039604FF00003BB753B681B8857
:10518000052B40F081807B6803F101031B784FEA17
:105190000323BB827B6803F102031B781A46BB8A98
:1051A0001343BB82BB8A03F10103BB827B6803F11B
:1051B00003031B784FEA03237B827B6803F104031C
:1051C0001B781A467B8A13437B827B8A002B57D03D
:1051D0007A8A40F2CF739A4252D87B68FB603B6870
:1051E0004FF000021A80FB684FF002021A70FB6851
:1051F00003F10103FB603B681B8803F101039AB2D2
:105200003B681A807B8A03F00703002B08D07B8A57
:105210004FEAD3039BB2DBB203F10103FB7504E059
:105220007B8A4FEAD3039BB2FB75FB68FA7D1A7049
:10523000FB6803F10103FB603B681B8803F101037A
:105240009AB23B681A80BA8A7B8AF86811461A4675
:10525000FFF70EFC0346FB72FB7A002B06D0FB7AAD
:10526000184600F0C1FB0346BB7510E03B681A8886
:10527000FB7D9BB2D3189AB23B681A8000BF06E050
:105280004FF00303BB7502E04FF00303BB75BB7D1A
:10529000184607F11807BD4680BD00BF80B400AFB7
:1052A000BD4680BC704700BF80B483B000AF0346EA
:1052B000FB7107F10C07BD4680BC704780B400AF9E
:1052C000BD4680BC704700BF80B400AFBD4680BC07
:1052D000704700BF80B400AFBD4680BC704700BFC0
:1052E00080B483B000AF78607B684FF000025A70E2
:1052F0004FF00103184607F10C07BD4680BC70470C
:1053000080B483B000AF78600B46FB707B684FF0D1
:1053100001025A707B68FA781A704FF00103184640
:1053200007F10C07BD4680BC704700BF80B584B054
:1053300000AF786039604FF00003FB737B685B78E7
:10534000002B14D07B681A783B681A707B684FF08A
:1053500000025A704FF00103FB737B681B78032B2C
:1053600005D1064B5B6A06480649074A9847FB7B0E
:10537000184607F11007BD4680BD00BFA8470020B2
:1053800010480020E04700200C48002080B582B083
:1053900000AF786039607B6803F101020A4B1B881B
:1053A00010460A491A460BF05BFB074B1B8803F1BA
:1053B00001039AB23B681A804FF00003184607F1C8
:1053C0000807BD4680BD00BFF0020020D0020020CB
:1053D00080B58AB000AF786039604FF000037B621F
:1053E0004FF000033B624FF00003FB614FF00003FE
:1053F000BB617B681B8A9BB27B627B6A23F4405350
:105400007B623B68DB887A6A13437B627B6A9AB271
:105410007B681A827B689B899BB27B627B6A23F4E0
:10542000B05323F00C037B623B689A883B681B896E
:1054300013439AB23B685B8913439BB27A6A134366
:105440007B627B6A9AB27B689A817B689B8A9BB2FB
:105450007B627B6A23F440737B623B689B897A6A38
:1054600013437B627B6A9AB27B689A8207F10803D6
:10547000184601F00FF87A68394B9A4203D07A68DF
:10548000384B9A4202D17B693B6201E03B693B6247
:105490007B689B899BB29BB21BB2002B0FDA3A6AE6
:1054A00013464FEA83039B184FEA83029A183B681E
:1054B0001B684FEA4303B2FBF3F3FB610EE03A6A69
:1054C00013464FEA83039B184FEA83029A183B68FE
:1054D0001B684FEA8303B2FBF3F3FB61FA69224BCB
:1054E000A3FB02134FEA53134FEA03137B627B6A59
:1054F0004FEA13134FF0640202FB03F3FA69D31A65
:10550000BB617B689B899BB29BB21BB2002B0FDAFD
:10551000BB694FEAC30303F13202134BA3FB02132F
:105520004FEA531303F007037A6A13437B620EE0DA
:10553000BB694FEA031303F132020B4BA3FB0213C7
:105540004FEA531303F00F037A6A13437B627B6ABB
:105550009AB27B681A8107F12807BD4680BD00BF5B
:1055600000100140001401401F85EB5180B483B04E
:1055700000AF78600B46FB70FB78002B08D07B688F
:105580009B899BB243F400539AB27B689A8107E0EF
:105590007B689B899BB223F400539AB27B689A8103
:1055A00007F10C07BD4680BC704700BF80B483B0D4
:1055B00000AF78600B467B807B884FEAC3534FEA8D
:1055C000D3539AB27B689A8007F10C07BD4680BC22
:1055D000704700BF80B483B000AF78607B689B8861
:1055E0009BB24FEAC3534FEAD3539BB2184607F11D
:1055F0000C07BD4680BC704780B487B000AF7860B0
:1056000013460A467A807B704FF000033B614FF0EF
:105610000003FB604FF00003BB604FF000037B61B1
:105620007B687B617B88DBB24FEA5313DBB23B6163
:105630007B8803F01F03FB60FB684FF0010202FA56
:1056400003F3BB603B69012B04D17B6903F10C03BD
:105650007B610BE03B69022B04D17B6903F11003F2
:105660007B6103E07B6903F114037B617B78002B92
:1056700006D07B697A691168BA680A431A6007E044
:105680007B697A691168BA686FEA02020A401A6097
:1056900007F11C07BD4680BC704700BF80B485B0D1
:1056A00000AF78600B467B804FF00003FB737B6894
:1056B0001B889AB27B8813409BB2002B03D04FF01B
:1056C0000103FB7302E04FF00003FB73FB7B184602
:1056D00007F11407BD4680BC704700BF80B483B09B
:1056E00000AF78600B467B807B886FEA03039AB239
:1056F0007B681A8007F10C07BD4680BC704700BF6D
:1057000080B487B000AF78600B467B804FF0000319
:10571000FB604FF000037B614FF00003BB604FF074
:105720000003FB747B88DBB24FEA5313DBB2BB6030
:105730007B8803F01F037B617B694FF0010202FA53
:1057400003F37B61BB68012B06D17B689B899BB20D
:105750007A6913407B610FE0BB68022B06D17B683E
:105760001B8A9BB27A6913407B6105E07B689B8A48
:105770009BB27A6913407B617B884FEA13239BB20B
:10578000FB60FB684FF0010202FA03F3FB607B68E9
:105790001B889BB2FA681340FB607B69002B06D024
:1057A000FB68002B03D04FF00103FB7402E04FF0C5
:1057B0000003FB74FB7C184607F11C07BD4680BC48
:1057C000704700BF80B483B000AF0346FB71044B49
:1057D000FA791A6007F10C07BD4680BC704700BF1C
:1057E00020000E4280B485B000AF78604FF0000317
:1057F000FB60094B1B68FB60FB6823F0E003FB6068
:10580000FA687B681343FB60034BFA681A6007F180
:105810001407BD4680BC70470070004080B483B060
:1058200000AF0346FB71044BFA791A6007F10C07CD
:10583000BD4680BC704700BF10000E4280B500AF6F
:105840004FF48070FFF7FAF90346002B0CD0334B6E
:105850004FF000021A704FF48070FFF70DFA304BD2
:105860004FF001021A604EE04FF00200FFF7E6F938
:105870000346002B08D04FF00200FFF7FDF9274B3D
:105880004FF002021A703EE04FF00800FFF7D6F921
:105890000346002B08D04FF00800FFF7EDF91F4B2F
:1058A0004FF004021A702EE04FF02000FFF7C6F907
:1058B0000346002B08D04FF02000FFF7DDF9174B0F
:1058C0004FF006021A701EE04FF01000FFF7B6F915
:1058D0000346002B08D04FF01000FFF7CDF90F4B17
:1058E0004FF005021A700EE04FF40070FFF7A6F9B2
:1058F0000346002B07D04FF40070FFF7BDF9074BAC
:105900004FF007021A704CF23A304FF00001FFF7E7
:1059100075F9024B1B78DBB2184680BD30030020BE
:105920003403002080B500AF074B1B6803F0C05361
:10593000002B08D0054B4FF001021A6004484FF0CD
:10594000C25104F08BF880BD00640240380300208F
:105950005864024080B586B000AF4FF000037B6111
:105960004FF000033B614FF080504FF0010100F019
:10597000CDFE4FF00100FFF725FF4FF0010000F0D2
:1059800063FD00BF4FF0410000F020FF0346002BF5
:10599000F8D04FF4807000F039FE4FF0FF033B6108
:1059A0004FF07F037B614FF0010000F05FFE09F0D4
:1059B00087FE4FF0000043F2F2210AF091F807F160
:1059C0000403184609F018FE7B69BB603B69FB6065
:1059D0004FF000037B6007F10403184609F0C8FD8F
:1059E00007F11807BD4680BD80B485B000AF0346FF
:1059F000FB71FB79012B07D0072B09D0002B0BD1B2
:105A00004FF00003FB730BE04FF00203FB7307E062
:105A10004FF00603FB7303E04FF00403FB7300BF7A
:105A2000FB7B184607F11407BD4680BC704700BFDA
:105A300080B500AFFFF702FF80BD00BF80B500AFAB
:105A4000FFF770FF80BD00BF80B582B000AF124B82
:105A50007B60124B3B600BE07B681A683B681A6006
:105A60003B6803F104033B607B6803F104037B6044
:105A70003A680B4B9A42EFD30A480B494FF00002A9
:105A80008842B8BF40F8042BFFF6FAAF00F07AFC6A
:105A900007F10807BD4680BD781E01080000002000
:105AA000CC020020D0020020A459002080B400AF16
:105AB000FEE700BF80B483B000AF0346FB80044B19
:105AC000FA881A6007F10C07BD4680BC704700BF1A
:105AD0000030004080B483B000AF0346FB71044B3C
