:020000040800F2
:100000004436002051160008B9160008B916000839
:10001000B9160008B9160008B9160008000000005B
:100020000000000000000000000000002958000847
:10003000B9160008000000004D5A0008915A000847
:10004000B9160008E1900008B9160008B9160008B2
:10005000B9160008B9160008B9160008B916000844
:10006000B9160008B9160008B9160008B916000834
:10007000B9160008B9160008B9160008B916000824
:10008000B9160008B9160008B9160008B916000814
:10009000B9160008B9160008B9160008B916000804
:1000A000B9160008B9160008B9160008B9160008F4
:1000B0004D780008B9160008294D0008B916000847
:1000C000B9160008B9160008B9160008B9160008D4
:1000D000B9160008B9160008B916000845670008E7
:1000E000B9160008B9160008B9160008B9160008B4
:1000F000B9160008B9160008B9160008B9160008A4
:10010000B9160008B9160008714F0008B9160008A2
:10011000256B0008B9160008B9160008B9160008C2
:10012000B9160008B9160008B9160008B916000873
:10013000B9160008B9160008B9160008B916000863
:10014000B9160008B9160008B9160008B916000853
:10015000B9160008B9160008B9160008B916000843
:10016000B9160008B9160008B9160008B916000833
:10017000B9160008B9160008B9160008B916000823
:10018000B9160008B916000880B400AFBD4680BC9F
:10019000704700BF80B400AFBD4680BC704700BF51
:1001A00080B594B000AF786013460A467A803B80F1
:1001B0004FF0000387F84F3042F6FC53C2F20003C1
:1001C0001B6818464FF000014FF0FF324FF000035C
:1001D00005F0D8FE07F1080242F60063C2F2000300
:1001E0001B68136007F1080303F1040242F6006381
:1001F000C2F200035B68136007F1080303F1080112
:1002000042F60063C2F20003D3E9022313460B60F7
:1002100007F1080303F10C0142F60063C2F2000388
:10022000D3E9042313460B6007F1080303F110021E
:1002300042F60063C2F200039B69136007F10803F2
:1002400003F1140242F60063C2F20003DB6913609B
:1002500007F1080303F1180242F60063C2F200033B
:100260001B6A136007F1080303F11C0242F60063E6
:10027000C2F200035B6A136007F1080303F1200276
:1002800042F60063C2F200039B6A136007F10803A1
:1002900003F1240242F60063C2F20003DB6A13603A
:1002A00007F1080303F1280242F60063C2F20003DB
:1002B0001B6B136007F1080303F12C0242F6006385
:1002C000C2F200035B6B136042F6FC53C2F2000300
:1002D0001B6818464FF000014FF000024FF000037A
:1002E00005F036FD40F20003C2F200031B787A8865
:1002F0009A4246D37A883B88D21840F20003C2F271
:1003000000031B78194640F20203C2F200031B7877
:10031000CB189A4235DC7A8840F20403C2F200031B
:100320001B78D31ABB6428E0BB6C4FEA430307F188
:100330005002D31833F8483C4FEA13239BB2DAB289
:100340007B681A707B6803F101037B60BB6C4FEA2A
:10035000430307F15002D31833F8483CDAB27B6804
:100360001A707B6803F101037B60BB6C03F101032E
:10037000BB643B8803F1FF333B803B88002BD3D128
:1003800003E04FF0010387F84F3097F84F301846DD
:1003900007F15007BD4680BD80B5B8B000AFF8602A
:1003A00079813A81FB714FF0000387F8DF3040F22A
:1003B0000103C2F200031B787A899A42C0F08B8253
:1003C0007A893B89D21840F20103C2F200031B78FC
:1003D000194640F20303C2F200031B78CB189A427D
:1003E00000F379827A8940F20503C2F200031B7898
:1003F000D31AC7F8D830FB79002B03D0012B00F0BB
:1004000064826CE207F154034FF00000194607F0D4
:10041000A3FF07F150034FF00000194608F094F8CD
:1004200097F85630A7F8583097F85530A7F85A3053
:1004300097F85430A7F85C3097F85230A7F85E3040
:1004400097F85130A7F8603097F85330A7F862302A
:1004500097F85030A7F8643007F1580303F10E0203
:1004600042F6F853C2F200031B6813602CE0D7F881
:10047000D8304FEA430307F1E002D31833F8883C41
:100480004FEA13239BB2DAB2FB681A70FB6803F1E0
:100490000103FB60D7F8D8304FEA430307F1E002CD
:1004A000D31833F8883CDAB2FB681A70FB6803F1A2
:1004B0000103FB60D7F8D83003F10103C7F8D83047
:1004C0003B8903F1FF333B813B89002BCFD101E214
:1004D000D7F8D830072B00F2F38101A252F823F0AD
:1004E000010500086D050008D9050008410600084F
:1004F000A90600081107000879070008DF070008AF
:100500004FF00003A7F84E3007F148034FF000000A
:10051000194607F021FF07F14E0303F10103FA68C2
:1005200012781A70FB6803F10103FB6007F14E03B8
:10053000FA6812781A70FB6803F10103FB60B7F8E0
:100540004E30DBB287F84A3007F148034FF0000025
:10055000194607F05BFED7F8D83003F10103C7F85E
:10056000D8303B8903F1FF333B81AEE14FF000030C
:10057000A7F8463007F140034FF00000194607F096
:10058000EBFE07F1460303F10103FA6812781A70D3
:10059000FB6803F10103FB6007F14603FA68127878
:1005A0001A70FB6803F10103FB60B7F84630DBB259
:1005B00087F8413007F140034FF00000194607F07B
:1005C00025FED7F8D83003F10103C7F8D8303B89AE
:1005D00003F1FF333B8178E14FF00003FB8707F124
:1005E00038034FF00000194607F0B6FE07F13E034E
:1005F00003F10103FA6812781A70FB6803F1010332
:10060000FB6007F13E03FA6812781A70FB6803F189
:100610000103FB60FB8FDBB287F8383007F138034A
:100620004FF00000194607F0F1FDD7F8D83003F17C
:100630000103C7F8D8303B8903F1FF333B8144E124
:100640004FF00003FB8607F130034FF0000019461E
:1006500007F07AFF07F1360303F10103FA68127815
:100660001A70FB6803F10103FB6007F13603FA68B7
:1006700012781A70FB6803F10103FB60FB8EDBB29A
:1006800087F8323007F130034FF00000194607F0C9
:10069000B9FED7F8D83003F10103C7F8D8303B8949
:1006A00003F1FF333B8110E14FF00003FB8507F1BD
:1006B00028034FF00000194607F046FF07F12E030C
:1006C00003F10103FA6812781A70FB6803F1010361
:1006D000FB6007F12E03FA6812781A70FB6803F1C9
:1006E0000103FB60FB8DDBB287F8293007F128039B
:1006F0004FF00000194607F085FED7F8D83003F117
:100700000103C7F8D8303B8903F1FF333B81DCE0BC
:100710004FF00003FB8407F120034FF0000019465F
:1007200007F012FF07F1260303F10103FA681278BC
:100730001A70FB6803F10103FB6007F12603FA68F6
:1007400012781A70FB6803F10103FB60FB8CDBB2CB
:1007500087F8233007F120034FF00000194607F017
:1007600051FED7F8D83003F10103C7F8D8303B89E0
:1007700003F1FF333B81A8E04FF00003FB8307F157
:1007800018034FF00000194607F0DEFE07F11E03C4
:1007900003F10103FA6812781A70FB6803F1010390
:1007A000FB6007F11E03FA6812781A70FB6803F108
:1007B0000103FB60FB8BDBB23B7607F118034FF0C4
:1007C0000000194607F01EFED7F8D83003F10103E8
:1007D000C7F8D8303B8903F1FF333B8175E04FF018
:1007E00000037B6107F1140303F10103FA68127837
:1007F0001A70FB6803F10103FB6007F11403FA6848
:1008000012781A70FB6803F10103FB6007F114030F
:1008100003F10303FA6812781A70FB6803F101030D
:10082000FB6007F1140303F10203FA6812781A70EF
:10083000FB6803F10103FB607A6942F61713C0F20B
:1008400031139A4231D97A6943F2E803C0F2311385
:100850009A422AD842F64063C2F200031B68184647
:100860004FF000014FF0FF324FF0000305F08AFB1C
:100870007A6942F6F853C2F200031A6042F6F8535E
:10088000C2F200031B683B6142F64063C2F2000300
:100890001B6818464FF000014FF000024FF00003B4
:1008A00005F056FA386904F049F8D7F8D83003F162
:1008B0000203C7F8D8303B89A3F102033B8104E06F
:1008C0003B8903F1FF333B8100BF3B89002B7FF461
:1008D000FFAD00BF03E04FF0010387F8DF3097F86A
:1008E000DF30184607F1E007BD4680BD80B485B013
:1008F00000AFF86079813A81FB714FF0010318462F
:1009000007F11407BD4680BC704700BF80B483B0B8
:1009100000AF786013460A467A803B804FF00103AF
:10092000184607F10C07BD4680BC704780B598B0EB
:1009300000AFF860B9601346FB804FF0000387F802
:100940005F304FF0000387F858304FF00003A7F8EE
:100950005C304FF00003A7F85A304FF00003A7F8BF
:100960005C308CE0B7F85C2013464FEA43039B18D9
:100970004FEA4303BA68D3181B88002B74D1B7F829
:100980005C2013464FEA43039B184FEA4303BA68BF
:10099000D3185B88A7F85A3049E0FB684FF047024C
:1009A0001A70FB6803F10103FB60FB684FF006025D
:1009B0001A70FB6803F10103FB60B7F85A2007F1D6
:1009C00010031046194601F00DFD034687F8583014
:1009D00097F85830002B20D14FF0000387F859309A
:1009E0004FF0000387F8593012E097F8593007F1BB
:1009F0006002D31813F8502CFB681A70FB6803F1DF
:100A00000103FB6097F8593003F1010387F859306F
:100A100097F85930452BE8D903E04FF0010387F8E8
:100A20005F30B7F85A3003F10103A7F85A30B7F82E
:100A30005A10B7F85C2013464FEA43039B184FEA5D
:100A40004303BA68D3185B881846B7F85C2013468E
:100A50004FEA43039B184FEA4303BA68D3189B88B5
:100A6000C318994299DB04E04FF0010387F85F3027
:100A700000BFB7F85C3003F10103A7F85C30B7F8AA
:100A80005C20FB889A42FFF46DAF97F85F30184600
:100A900007F16007BD4680BD90B587B002AF7860B2
:100AA000F970BA707B704FF00003FB737B684FF0F6
:100AB000020283F83620BB78002B05D0BB78002BD0
:100AC00002D0BB78F72B03D94FF00203FB7364E02D
:100AD0007B68BA7883F83420FB78002B41D17A68A0
:100AE00045F2C903C0F60003D3607A6845F20113EA
:100AF000C0F6000313617A6845F2C113C0F6000323
:100B000093617A6845F23113C0F6000353617B6844
:100B10004FF00002DA617A6845F2A923C0F60003BB
:100B200013627A6845F27933C0F6000353627A683B
:100B300045F22943C0F6000393627B6803F1380055
:100B40007B6803F150017B6893F834207B783C6A22
:100B5000009497F82440019404F072FA0346FB7362
:100B600002E04FF00203FB73FB7B002B15D17B6887
:100B700003F16403184600F073FA0346002B03D117
:100B80004FF00303FB7308E07B68FA7883F83520A5
:100B90007B684FF0010283F83620FB7B184607F193
:100BA0001407BD4690BD00BF80B584B000AF78602B
:100BB0004FF00003FB737B6893F83630012B11D1A3
:100BC0007B68DB687A6802F168007A6802F13801B4
:100BD0007A6802F1500298477B684FF0000283F870
:100BE000362002E04FF00603FB73FB7B184607F14B
:100BF0001007BD4680BD00BFB0B586B002AF7860BB
:100C00004FF00003FB727B6893F83630002B02D064
:100C10004FF00603CAE07B6803F1640207F10A03A0
:100C20001046194600F042FA0346012B40F0BC8002
:100C3000BB7A032B00F2B88001A252F823F000BF68
:100C4000A90D0008510C0008A10C0008A90D00080E
:100C50007B685C697B6803F168007B6803F10401D1
:100C60007A687B6803F10603A0470346FB72FB7AB0
:100C7000002B40F094807B681A797B6893F83430BD
:100C80009A4204D07B681B79002B40F08A807B68F5
:100C900003F1640318464FF0020100F0F1F983E01C
:100CA0007B681B681A787B685A717B684FF0010279
:100CB0001A724FF00003FB602DE040F20803C2F20D
:100CC0000003FA6813F83230002B28D040F20803F2
:100CD000C2F20003FA6813F832207B685B799A420B
:100CE00015D140F20802C2F20002FB684FEAC303CA
:100CF000D3185B687A6811687A6802F106020846C0
:100D00001146984703461A467B681A7208E0FB684A
:100D100003F10103FB60FB68102BCEDD00E000BF98
:100D20007B681B79002B3ED07B681B7A002B22D07E
:100D30007B684FF00002DA807B6819687B68DB888B
:100D40001A468A187968497961F07F01C9B2117031
:100D500003F101039AB27B68DA807B6819687B68CB
:100D6000DB881A468A187968097A117003F1010341
:100D70009AB27B68DA807B689C697B6803F16800C3
:100D80007B6803F138017B6893F834207B681B682B
:100D90007D68ED880095A0470346FB7204E000BF24
:100DA00002E000BF00E000BF4FF00003184607F16B
:100DB0001007BD46B0BD00BF80B586B004AF42F697
:100DC000A830C2F2000005F02BFD42F6A830C2F2B6
:100DD000000003F0D3FF42F63420C2F2000005F019
:100DE0000FFF42F63420C2F2000004F0EBF84FF49B
:100DF000614300934FF00003019342F6A830C2F222
:100E000000004FF000014FF00A024FF00003FFF71F
:100E100043FE0346FB714FF4614300934FF0000320
:100E2000019342F63420C2F200004FF000014FF06F
:100E30000A024FF00003FFF72FFE0346FB714FF04D
:100E4000010300934FF0000301934FF0000302935E
:100E50004FF00003039340F6B160C0F6000049F67E
:100E60001801C0F600014FF400724FF0000301F0CA
:100E7000B3FD4FF0010300934FF0000301934FF0D7
:100E8000000302934FF00003039340F6F160C0F6B5
:100E9000000049F62801C0F600014FF400724FF03F
:100EA000000301F099FD07F10807BD4680BD00BFB2
:100EB00080B582B000AF786042F6A830C2F2000080
:100EC000FFF772FE4FF001004FF0000101F004FD4A
:100ED00042F6A830C2F20000FFF78EFE4FF00A0083
:100EE00001F056FE4FF0010001F010FDF0E700BFE9
:100EF00080B582B000AF786042F63420C2F20000C4
:100F0000FFF752FE4FF000004FF0000101F0E4FC4B
:100F100042F63420C2F20000FFF76EFE4FF00A00E6
:100F200001F036FE4FF0000001F0F0FCF0E700BFEA
:100F300080B586B000AF786039604FF00003BB75B4
:100F40003B681B88052B40F082807B6803F101031E
:100F50001B784FEA0323BB827B6803F102031B78F3
:100F60001A46BB8A42EA0303BB82BB8A03F1010330
:100F7000BB827B6803F103031B784FEA03237B8268
:100F80007B6803F104031B781A467B8A42EA030359
:100F90007B827B8A002B56D07A8A40F2CF739A42AA
:100FA00051D87B68FB603B684FF000021A80FB68F9
:100FB0004FF002021A70FB6803F10103FB603B680B
:100FC0001B8803F101039AB23B681A807B8A03F005
:100FD0000703002B08D07B8A4FEAD3039BB2DBB216
:100FE00003F10103FB7504E07B8A4FEAD3039BB254
:100FF000FB75FB68FA7D1A70FB6803F10103FB6067
:101000003B681B8803F101039AB23B681A80BA8AD5
:101010007B8AF86811461A46FFF778FC0346FB7294
:10102000FB7A002B06D0FB7A184600F0EDFA034657
:10103000BB750FE03B681A88FB7D9BB2D3189AB250
:101040003B681A8006E04FF00303BB7502E04FF0E7
:101050000303BB75BB7D184607F11807BD4680BD6D
:1010600080B483B000AF78607B684FF000025A70A4
:101070004FF00103184607F10C07BD4680BC7047CE
:1010800080B483B000AF78600B46FB707B684FF094
:1010900001025A707B68FA781A704FF00103184603
:1010A00007F10C07BD4680BC704700BF80B485B017
:1010B00000AF786039604FF00003FB737B685B78AA
:1010C000002B0AD07B681A783B681A707B684FF057
:1010D00000025A704FF00103FB73FB7B184607F1C7
:1010E0001407BD4680BC704780B582B000AF786001
:1010F00039607B6803F1010240F2E003C2F20003B1
:101100001B88104640F2C001C2F200011A4608F0E6
:1011100081FA40F2E003C2F200031B8803F10103ED
:101120009AB23B681A804FF00003184607F108078F
:10113000BD4680BD80B58AB000AF786039604FF0A1
:1011400000037B624FF000033B624FF00003FB6142
:101150004FF00003BB617B681B8A9BB27B627B6A9A
:1011600023F440537B623B68DB887A6A42EA0303DC
:101170007B627B6A9AB27B681A827B689B899BB28E
:101180007B627B6A23F4B05323F00C037B623B68E1
:101190009A883B681B8942EA03039AB23B685B89E1
:1011A00042EA03039BB27A6A42EA03037B627B6AE8
:1011B0009AB27B689A817B689B8A9BB27B627B6ACE
:1011C00023F440737B623B689B897A6A42EA03039B
:1011D0007B627B6A9AB27B689A8207F108031846A1
:1011E00000F052FD7A684FF48053C4F201039A4232
:1011F00006D07A684FF4A053C4F201039A4202D198
:101200007B693B6201E03B693B627B689B899BB2E7
:101210009BB21BB2002B0FDA3A6A13464FEA8303E4
:101220009B184FEA83029A183B681B684FEA4303F6
:10123000B2FBF3F3FB610EE03A6A13464FEA830315
:101240009B184FEA83029A183B681B684FEA830396
:10125000B2FBF3F3FB61FA6948F21F53C5F2EB13DB
:10126000A3FB02134FEA53134FEA03137B627B6A1B
:101270004FEA13134FF0640202FB03F3FA69D31A27
:10128000BB617B689B899BB29BB21BB2002B13DABC
:10129000BB694FEAC30303F1320248F21F53C5F2A0
:1012A000EB13A3FB02134FEA531303F007037A6A0D
:1012B00042EA03037B6212E0BB694FEA031303F1C6
:1012C000320248F21F53C5F2EB13A3FB02134FEA9D
:1012D000531303F00F037A6A42EA03037B627B6ACB
:1012E0009AB27B681A8107F12807BD4680BD00BF0E
:1012F00080B483B000AF78600B46FB70FB78002BA6
:1013000008D07B689B899BB243F400539AB27B68F8
:101310009A8107E07B689B899BB223F400539AB2C1
:101320007B689A8107F10C07BD4680BC704700BFFF
:1013300080B483B000AF78600B467B807B884FEA37
:10134000C3534FEAD3539AB27B689A8007F10C07D4
:10135000BD4680BC704700BF80B483B000AF7860EA
:101360007B689B889BB24FEAC3534FEAD3539BB22F
:10137000184607F10C07BD4680BC704780B487B0A3
:1013800000AF786013460A467A807B704FF0000306
:101390003B614FF00003FB604FF00003BB604FF078
:1013A00000037B617B687B617B88DBB24FEA531370
:1013B000DBB23B617B8803F01F03FB60FB684FF0EF
:1013C000010202FA03F3BB603B69012B04D17B6984
:1013D00003F10C037B610BE03B69022B04D17B69B9
:1013E00003F110037B6103E07B6903F114037B616C
:1013F0007B78002B07D07B697A691168BA6841EA6B
:1014000002021A6008E07B697A691168BA686FEABB
:10141000020201EA02021A6007F11C07BD4680BC05
:10142000704700BF80B485B000AF78600B467B800A
:101430004FF00003FB737B681B889AB27B8802EA3B
:1014400003039BB2002B03D04FF00103FB7302E0B8
:101450004FF00003FB73FB7B184607F11407BD46F2
:1014600080BC704780B483B000AF78600B467B804F
:101470007B886FEA03039AB27B681A8007F10C0736
:10148000BD4680BC704700BF80B487B000AF7860B5
:101490000B467B804FF00003FB604FF000037B6145
:1014A0004FF00003BB604FF00003FB747B88DBB29E
:1014B0004FEA5313DBB2BB607B8803F01F037B61F1
:1014C0007B694FF0010202FA03F37B61BB68012BD9
:1014D00007D17B689B899BB27A6902EA03037B612F
:1014E00011E0BB68022B07D17B681B8A9BB27A692B
:1014F00002EA03037B6106E07B689B8A9BB27A6900
:1015000002EA03037B617B884FEA13239BB2FB60F3
:10151000FB684FF0010202FA03F3FB607B681B8853
:101520009BB2FA6802EA0303FB607B69002B06D0DA
:10153000FB68002B03D04FF00103FB7402E04FF077
:101540000003FB74FB7C184607F11C07BD4680BCFA
:10155000704700BF80B483B000AF0346FB714FF00B
:101560002003C4F20E23FA791A6007F10C07BD4676
:1015700080BC704780B586B000AF4FF000037B6140
:101580004FF000033B614FF080504FF0010100F03D
:10159000E1FC4FF00100FFF7DDFF4FF0010000F02C
:1015A00045FB00BF4FF0410000F05EFD0346002BFD
:1015B000F8D04FF4807000F051FC4FF0FF033B6116
:1015C0004FF07F037B614FF0010000F085FC06F0D7
:1015D000C5FD4FF0000043F2F22107F009F807F1D2
:1015E0000403184606F048FD7B69BB603B69FB605D
:1015F0004FF000037B6007F10403184606F0D8FCA7
:1016000007F11807BD4680BD80B485B000AF034622
:10161000FB71FB79012B07D0072B09D0002B0BD1D5
:101620004FF00003FB730BE04FF00203FB7307E086
:101630004FF00603FB7303E04FF00403FB7300BF9E
:10164000FB7B184607F11407BD4680BC704700BFFE
:1016500080B582B000AF49F68423C0F600037B60FA
:1016600040F20003C2F200033B600BE07B681A68A3
:101670003B681A603B6803F104033B607B6803F13D
:1016800004037B603A6840F2C003C2F200039A424E
:10169000ECD3074807494FF000028842B8BF40F832
:1016A000042BFADB00F05AFA07F10807BD4680BDAB
:1016B000C0000020442E002080B400AFFEE700BF31
:1016C00080B483B000AF0346FB804FF44053C4F2B4
:1016D0000003FA881A6007F10C07BD4680BC70470A
:1016E00080B483B000AF0346FB714FF44053C4F2A3
:1016F0000003FA795A6007F10C07BD4680BC7047B9
:1017000080B483B000AF0346FB804FF44053C4F273
:101710000003FA889A6007F10C07BD4680BC704749
:1017200080B400AF4FF44053C4F200034AF6AA223B
:101730001A60BD4680BC704780B400AF4FF4405380
:10174000C4F200034CF6CC421A60BD4680BC704720
:1017500080B584B000AF786039604FF00003FB7350
:101760003B681B88052B2BD17B6803F101031B7899
:101770004FEA0323BB817B6803F102031B781A46FF
:10178000BB8942EA0303BB81BB8903F10103BB812F
:101790007B6803F10302BB89104619464FF0010232
:1017A0004FF00103FEF7F8FD0346FB72FB7A002BB6
:1017B00009D0FB7A1846FFF727FF0346FB7302E0C8
:1017C0004FF00303FB73FB7B184607F11007BD4680
:1017D00080BD00BF80B584B000AF786039604FF045
:1017E0000003FB733B681B88052B57D97B6803F10B
:1017F00001031B784FEA0323BB817B6803F10203DB
:101800001B781A46BB8942EA0303BB81BB8903F1FB
:101810000103BB817B6803F103031B784FEA0323B9
:101820007B817B6803F104031B781A467B8942EABB
:1018300003037B817B6803F105031B787B727B8943
:10184000002B27D07B89782B24D87B89DBB24FEA09
:101850004303DBB27A7A9A421CD17B6803F106011A
:10186000BA897B89084611461A464FF00103FEF7F4
:1018700093FD03463B723B7A002B06D03B7A184619
:10188000FFF7C2FE0346FB730BE03B684FF0050217
:101890001A8006E04FF00303FB7302E04FF00303EE
:1018A000FB73FB7B184607F11007BD4680BD00BFE8
:1018B00080B586B000AF786039604FF00003FB75EB
:1018C0003B681B88052B70D17B6803F101031B78F3
:1018D0004FEA0323BB827B6803F102031B781A469D
:1018E000BB8A42EA0303BB82BB8A03F10103BB82CA
:1018F0007B6803F103031B784FEA03237B827B6839
:1019000003F104031B787B827B8A002B49D07B8AFE
:101910007D2B46D87B68FB603B684FF000021A8045
:10192000FB684FF003021A70FB6803F10103FB60D0
:101930003B681B8803F101039AB23B681A807B8ADB
:10194000DBB24FEA4303DAB2FB681A70FB6803F1BB
:101950000103FB603B681B8803F101039AB23B68FB
:101960001A80BA8A7B8AF86811461A464FF000033B
:10197000FEF712FD0346FB72FB7A002B06D0FB7AC2
:101980001846FFF741FE0346FB7511E03B681A88D5
:101990007B8A4FEA43039BB2D3189AB23B681A8002
:1019A00006E04FF00303FB7502E04FF00303FB7505
:1019B000FB7D184607F11807BD4680BD80B586B08F
:1019C00000AF786039604FF00003FB753B681B88FF
:1019D000092B40F2BC807B6803F101031B784FEABE
:1019E0000323BB827B6803F102031B781A46BB8A80
:1019F00042EA0303BB82BB8A03F10103BB827B681B
:101A000003F103031B784FEA03237B827B6803F116
:101A100004031B781A467B8A42EA03037B827B68B5
:101A200003F105031B784FEA03233B827B6803F134
:101A300006031B781A463B8A42EA03033B823B8A31
:101A400003F101033B827B6803F107031B784FEA34
:101A50000323FB817B6803F108031B781A46FB898B
:101A600042EA0303FB817B6803F109031B787B7364
:101A70007B8A002B68D07B8A7D2B65D8FB89002B65
:101A800062D0FB89792B5FD8FB894FEA43027B7BCD
:101A90009A4259D17B6803F10A013A8AFB890846C8
:101AA00011461A464FF00103FEF776FC0346BB755C
:101AB000BB7D002B3ED17B68BB603B684FF00002D2
:101AC0001A80BB684FF017021A70BB6803F101035C
:101AD000BB603B681B8803F101039AB23B681A8024
:101AE0007B8ADBB24FEA4303DAB2BB681A70BB6889
:101AF00003F10103BB603B681B8803F101039AB249
:101B00003B681A80BA8A7B8AB86811461A464FF039
:101B10000003FEF741FC0346BB75BB7D002B09D1DA
:101B20003B681A887B8A4FEA43039BB2D3189AB268
:101B30003B681A80BB7D002B09D0BB7D1846FFF7A0
:101B400063FD0346FB7502E04FF00303FB75FB7D6D
:101B5000184607F11807BD4680BD00BF80B500AF2D
:101B600003F04EFD06F0DAFE01F064F8FEE700BF78
:101B700080B400AFFEE700BF80B483B000AF7860F0
:101B80003960FEE780B582B000AF06F085FE0346FF
:101B90007B607B6807F10807BD4680BD80B485B0D7
:101BA00000AF78600B467B804FF0FF03FB734FF074
:101BB000FF03BB731DE07B681A78BB7B82EA0303DB
:101BC000DBB2BB607B6803F101037B6049F638033D
:101BD000C0F60003BA689B181A78FB7B82EA0303FD
:101BE000BB7349F63813C0F60003BA689B181B781C
:101BF000FB737B88002B0CBF00230123DBB27A88A8
:101C000002F1FF327A80002BD5D1FB7B4FEA032310
:101C10009AB2BB7B9BB242EA03039BB29BB21846CB
:101C200007F11407BD4680BC704700BF80B483B085
:101C300000AF0346FB7143F67003C4F202034FF09A
:101C400000021A7043F67003C4F202034FF0000260
:101C50001A70FB79012B02D0042B08D00FE043F659
:101C60007003C4F202034FF001021A7007E043F65A
:101C70007003C4F202034FF005021A7000BF07F1AF
:101C80000C07BD4680BC704780B489B000AF786057
:101C90004FF00003BB614FF000037B614FF0000386
:101CA000FB614FF002033B614FF00003FB604FF01C
:101CB0000203BB604FF46053C4F202039B6803F05D
:101CC0000C03BB61BB69042B0AD0082B0FD0002B7F
:101CD00064D17A684FF41053C0F2F403136064E0E7
:101CE0007A684FF49053C0F27A0313605DE04FF4CA
:101CF0006053C4F202035B6803F480034FEA93531A
:101D0000FB604FF46053C4F202035B6803F03F03CF
:101D1000BB60FB68002B16D04FF49053C0F27A03DF
:101D2000BA68B3FBF2F24FF46053C4F202035B688B
:101D3000194647F6C07301EA03034FEA931303FB06
:101D400002F3FB6115E04FF41053C0F2F403BA68DC
:101D5000B3FBF2F24FF46053C4F202035B6819461E
:101D600047F6C07301EA03034FEA931303FB02F340
:101D7000FB614FF46053C4F202035B6803F4403329
:101D80004FEA134303F101034FEA43033B61FA694E
:101D90003B69B2FBF3F27B681A6006E07A684FF4A5
:101DA0001053C0F2F403136000BF4FF46053C4F249
:101DB00002039B6803F0F003BB61BB694FEA131396
:101DC000BB6140F29003C2F20003BA699B181B7812
:101DD000DBB27B617B681A687B6922FA03F27B685D
:101DE0005A604FF46053C4F202039B6803F4E0535B
:101DF000BB61BB694FEA9323BB6140F29003C2F21F
:101E00000003BA699B181B78DBB27B617B685A6858
:101E10007B6922FA03F27B689A604FF46053C4F244
:101E200002039B6803F46043BB61BB694FEA533311
:101E3000BB6140F29003C2F20003BA699B181B78A1
:101E4000DBB27B617B685A687B6922FA03F27B68AC
:101E5000DA6007F12407BD4680BC704780B485B0C6
:101E600000AF78604FF00003FB607B6803F44073C1
:101E7000B3F5407F18D14FF46053C4F202039B685E
:101E8000FB60FB6823F4F813FB607B6823F070436E
:101E900023F44073FA6842EA0303FB604FF4605393
:101EA000C4F20203FA689A604FF46053C4F202036A
:101EB0004FF46052C4F20202126F11467A684FEA80
:101EC00002524FEA125241EA02021A6707F114075E
:101ED000BD4680BC704700BF80B483B000AF0346EE
:101EE000FB7140F63C63C4F24723FA791A6007F1AC
:101EF0000C07BD4680BC704780B483B000AF7860EB
:101F00000B46FB70FB78002B0ED04FF46053C4F2ED
:101F100002034FF46052C4F20202126B11467A6857
:101F200041EA02021A630FE04FF46053C4F2020365
:101F30004FF46052C4F20202126B11467A686FEAE3
:101F4000020201EA02021A6307F10C07BD4680BCD7
:101F5000704700BF80B483B000AF78600B46FB7061
:101F6000FB78002B0ED04FF46053C4F202034FF401
:101F70006052C4F20202126C11467A6841EA02020F
:101F80001A640FE04FF46053C4F202034FF460523E
:101F9000C4F20202126C11467A686FEA020201EA88
:101FA00002021A6407F10C07BD4680BC704700BFEF
:101FB00080B483B000AF78600B46FB70FB78002BD9
:101FC0000ED04FF46053C4F202034FF46052C4F2D7
:101FD0000202526C11467A6841EA02025A640FE02A
:101FE0004FF46053C4F202034FF46052C4F2020291
:101FF000526C11467A686FEA020201EA02025A64E0
:1020000007F10C07BD4680BC704700BF80B483B0A9
:1020100000AF78600B46FB70FB78002B0ED04FF4BE
:102020006053C4F202034FF46052C4F20202126A17
:1020300011467A6841EA02021A620FE04FF46053D7
:10204000C4F202034FF46052C4F20202126A114653
:102050007A686FEA020201EA02021A6207F10C07CB
:10206000BD4680BC704700BF80B487B000AF034658
:10207000FB714FF00003FB604FF000037B614FF0FA
:102080000003FB74FB794FEA5313DBB2FB60FB6880
:10209000012B06D14FF46053C4F202031B687B612D
:1020A0000FE0FB68022B06D14FF46053C4F2020329
:1020B0001B6F7B6105E04FF46053C4F202035B6F5A
:1020C0007B61FB7903F01F03FB60FB687A6922FAEE
:1020D00003F303F00103DBB2002B03D04FF0010345
:1020E000FB7402E04FF00003FB74FB7C184607F121
:1020F0001C07BD4680BC704780B59EB000AF7860BD
:1021000039604FF0000387F875304FF0000387F80F
:1021100074303B681B88082B40F215817B6803F103
:1021200001031B78A7F87630B7F8762044F625131C
:10213000C2F29243A3FB0213D21A4FEA52029B1837
:102140004FEA93039BB287F873304FF0000387F890
:10215000753062E097F875207B6803F104031B7803
:1021600019467B6803F103031B784FEA03239BB2F4
:1021700041EA03039BB299B213464FEA43039B180B
:102180004FEA430307F17802D318A3F170030A461C
:102190001A8097F875207B6803F106031B781946AF
:1021A0007B6803F105031B784FEA03239BB241EAE6
:1021B00003039BB299B213464FEA43039B184FEABD
:1021C000430307F17802D318A3F170030A465A803B
:1021D00097F875207B6803F108031B7819467B6824
:1021E00003F107031B784FEA03239BB241EA030381
:1021F0009BB299B213464FEA43039B184FEA43033D
:1022000007F17802D318A3F170030A469A8097F871
:10221000753003F1010387F8753097F8752097F84A
:1022200073309A4296D397F87330002B00F0868073
:1022300097F87330092B00F281807B68FB663B685E
:102240004FF000021A80FB6E4FF014021A70FB6E02
:1022500003F10103FB663B681B8803F101039AB29B
:102260003B681A804FF00003A7F876304FF0000368
:1022700087F875301FE097F8752013464FEA43033F
:102280009B184FEA430307F17801CB18A3F17003C1
:102290009B881A464FEAC202D3184FEAC3039AB288
:1022A000B7F87630D318A7F8763097F8753003F181
:1022B000010387F8753097F8752097F873309A42C4
:1022C000D9D3B7F87630FA2B33D8B7F87630DAB2FC
:1022D000FB6E1A70FB6E03F10103FB663B681B8803
:1022E00003F101039AB23B681A8097F873309BB2EE
:1022F00007F10802F86E11461A46FEF717FB03466F
:1023000087F86B3097F86B30002B08D097F86B305C
:102310001846FFF779F9034687F8743017E03B68F1
:102320001A88B7F87630DBB2D3189AB23B681A80B5
:102330000DE04FF0030387F8743008E04FF003031B
:1023400087F8743003E04FF0030387F8743097F890
:102350007430184607F17807BD4680BD80B586B059
:1023600004AF4FF00003FB7140F2E403C2F200033C
:102370004FF0280019464FF0020201F0E1FC03463D
:10238000FB7140F2E403C2F200031B889BB2642B92
:1023900002D8FB79002B06D040F2E403C2F200031E
:1023A0004FF000021A804FF0010300934FF000033A
:1023B00001934FF0000302934FF00003039342F2A6
:1023C000ED40C0F6000049F63821C0F600014FF498
:1023D00080724FF0000300F0FFFA07F10807BD46D6
:1023E00080BD00BF80B584B000AF03463960FB807C
:1023F0004FF00003FB73FB88632B18D8FB881A4649
:102400004FEA8202D3181A464FEAC202D31A4FEAA1
:1024100043039BB203F130039BB2184639684FF077
:10242000460201F08DFC0346FB73FB7B01E04FF09D
:102430000403184607F11007BD4680BD80B584B07F
:1024400000AF78604FF00003FB7340F2E403C2F288
:1024500000031B889BB21A464FEA8202D3181A4621
:102460004FEAC202D31A4FEA43039BB203F130038F
:102470009BB2184679684FF0460202F087F803468F
:10248000FB73FB7B002B01D0FB7B2AE040F2E403D3
:10249000C2F200031B889BB203F101039AB240F21F
:1024A000E403C2F200031A8040F2E403C2F2000324
:1024B0001B889BB2642B06D940F2E403C2F20003EE
:1024C0004FF000021A8040F2E403C2F200034FF022
:1024D000280019464FF0020202F058F80346FB7339
:1024E000FB7B184607F11007BD4680BDB0B596B01E
:1024F00000AF78604FF0000387F8573042F61C5366
:10250000C2F200033B654FF4FA6000F041FB4FF06C
:1025100009004FF0000100F0DFF942F61C53C2F24F
:1025200000033B6507F14C034FF00000194606F02D
:102530000BF807F148034FF00000194605F00CFFB7
:1025400042F6FC53C2F200031B6818464FF000012C
:102550004FF0FF324FF0000303F014FD42F600632A
:10256000C2F2000307F108041D460FCD0FC40FCDC2
:102570000FC40FCD0FC495E80F0084E80F0042F69A
:10258000FC53C2F200031B6818464FF000014FF0E5
:1025900000024FF0000303F0DBFB97F84E203B6D89
:1025A0001A703B6D03F101033B6597F84D203B6DBD
:1025B0001A703B6D03F101033B6597F84F203B6DAB
:1025C0001A703B6D03F101033B6597F848203B6DA2
:1025D0001A703B6D03F101033B6597F849203B6D91
:1025E0001A703B6D03F101033B6597F84A203B6D80
:1025F0001A703B6D03F101033B654FF0000387F850
:10260000573014E03A6D97F857304FEA830307F1DB
:102610005801CB1853F8503C13603B6D03F1040391
:102620003B6597F8573003F1010387F8573097F867
:102630005730012BE6D94FF0000387F8573025E0DB
:102640003B6D07F1080202F1080197F857204FEAA5
:10265000C2028A1812681A603B6D03F1040307F185
:10266000080202F1080197F857204FEAC20202F16E
:1026700004028A1812681A603B6D03F108033B6577
:1026800097F8573003F1010387F8573097F8573020
:10269000012BD5D94FF0000387F8573016E03A6D7B
:1026A00097F8573003F106034FEA830307F1580107
:1026B000CB1853F8503C13603B6D03F104033B65AA
:1026C00097F8573003F1010387F8573097F85730E0
:1026D000012BE4D94FF0000387F8573016E03A6D2C
:1026E00097F8573003F108034FEA830307F15801C5
:1026F000CB1853F8503C13603B6D03F104033B656A
:1027000097F8573003F1010387F8573097F857309F
:10271000072BE4D942F61C50C2F20000FFF78EFEF0
:102720004FF0090000F0F2F84FF009004FF00101FE
:1027300000F0D2F8E7E600BF80B586B000AF786061
:1027400039604FF00003FB753B681B88052B72D185
:102750007B6803F101031B784FEA0323BB827B688C
:1027600003F102031B781A46BB8A42EA0303BB82C9
:10277000BB8A03F10103BB827B6803F103031B786F
:102780004FEA03237B827B6803F104031B781A461C
:102790007B8A42EA03037B827B8A002B47D07B8AB9
:1027A0007C2B44D87B68FB603B684FF000021A80AA
:1027B000FB684FF004021A70FB6803F10103FB6031
:1027C0003B681B8803F101039AB23B681A807B8A3D
:1027D000DBB24FEA4303DAB2FB681A70FB6803F11D
:1027E0000103FB603B681B8803F101039AB23B685D
:1027F0001A80BA8A7B8AF86811461A46FDF7D0FC1F
:102800000346FB72FB7A002B06D0FB7A1846FEF7D4
:10281000FBFE0346FB7511E03B681A887B8A4FEA92
:1028200043039BB2D3189AB23B681A8006E04FF07C
:102830000303FB7502E04FF00303FB75FB7D1846B5
:1028400007F11807BD4680BD80B586B004AF4FF0D4
:102850000003FB710EE0FB7942F69C52C2F20002CB
:102860004FEAC303D3184FF001021A71FB7903F149
:102870000103FB71FB79092BEDD945F25550FEF7A9
:102880001FFF4FF00600FEF72BFF40F27120FEF70E
:1028900037FFFEF745FFFEF74FFF4FF001030093B0
:1028A0004FF0000301934FF0000302934FF0000339
:1028B000039342F64510C0F6000049F63C21C0F6ED
:1028C00000014FF080024FF0000300F085F807F19F
:1028D0000807BD4680BD00BF80B483B000AF02468C
:1028E0000B46FA71BB71FB79092B09D8FB7942F6CB
:1028F0009C52C2F200024FEAC303D318BA791A718C
:1029000007F10C07BD4680BC704700BF80B483B0A0
:1029100000AF0346FB71FB79092B0ED8FA7942F61A
:102920009C53C2F2000353F8323003F1010142F626
:102930009C53C2F2000343F8321007F10C07BD4666
:1029400080BC704780B584B000AF78604FF0000362
:10295000FB734FF00003BB734FF00003FB731AE0EF
:10296000FA7B42F69C53C2F2000353F83230002B3C
:102970000DD1FB7B42F69C52C2F200024FEAC30328
:10298000D3181B79002B02D14FF00103BB73FB7BE3
:1029900003F10103FB73FB7B092BE1D9BB7B012B0B
:1029A00015D0FEF7BDFE4FF00003FB730CE0FA7B81
:1029B00042F69C53C2F200034FF0000143F832107C
:1029C000FB7B03F10103FB73FB7B092BEFD94FF476
:1029D000FA6000F0DDF8B9E780B58AB002AFF860C0
:1029E000B9603B601346FB80FB68002B02D103F00B
:1029F0001FF8FEE7BB6A042B02D903F019F8FEE7C3
:102A0000FB881846396B00F069FEB861BB69002B82
:102A100000F09F80BB691A6BFB8803F1FF334FEA1C
:102A20008303D3187B617B6923F007037B617B6998
:102A300003F00703002B02D002F0FAFFFEE7FB8849
:102A40000093B869B968BA6A7B6B00F005FD7869D4
:102A5000F9683A6802F0A6FE03461A46BB691A6096
:102A6000FB6A002B02D0FB6ABA691A6002F094FF7D
:102A700040F2C013C2F200031B6803F1010240F2EE
:102A8000C013C2F200031A6040F2E803C2F200036E
:102A90001B68002B0FD140F2E803C2F20003BA69B1
:102AA0001A6040F2C013C2F200031B68012B18D158
:102AB00000F030FD15E040F2CC13C2F200031B68B9
:102AC000002B0ED140F2E803C2F200031B68DA6A61
:102AD000BB6A9A4205D840F2E803C2F20003BA6921
:102AE0001A6040F2DC13C2F200031B6803F101021A
:102AF00040F2DC13C2F200031A60BB69DB6A4FF0DC
:102B0000010202FA03F240F2C813C2F200031B688A
:102B10001A4340F2C813C2F200031A60BB69DA6AB2
:102B200013464FEA83039B184FEA83031A4640F289
:102B3000EC03C2F20003D218BB6903F10403104690
:102B4000194602F0D3FC4FF00103FB6102F04CFF89
:102B500002E04FF0FF33FB61FB69012B11D140F222
:102B6000CC13C2F200031B68002B0AD040F2E8032A
:102B7000C2F200031B68DA6ABB6A9A4201D202F011
:102B8000FBFEFB69184607F12007BD4680BD00BF6C
:102B900080B584B000AF78604FF00003FB607B68C5
:102BA000002B3DD040F2E013C2F200031B68002B63
:102BB00002D002F03DFFFEE700F07AF840F2C413C5
:102BC000C2F200031A687B68D318BB6040F2E803C6
:102BD000C2F200031B6803F10403184602F0E4FC90
:102BE0000346002B16D140F2E803C2F200031B6833
:102BF000DB6A4FF0010202FA03F36FEA030240F2CC
:102C0000C813C2F200031B681A4040F2C813C2F294
:102C100000031A60B86800F01BFD00F05BF8F86074
:102C2000FB68002B01D102F0A7FE07F11007BD469B
:102C300080BD00BF80B586B004AF4FF000030093A5
:102C40004FF0000301934FF0000302934FF0000395
:102C5000039343F23540C0F6000049F64421C0F624
:102C600000014FF046024FF00003FFF7B5FE786019
:102C70007B68012B12D102F0DBFE40F2CC13C2F2D2
:102C800000034FF001021A6040F2C413C2F20003C5
:102C90004FF000021A6002F0E9FD05E07B68002BAE
:102CA00002D102F0C5FEFEE707F10807BD4680BD70
:102CB00080B400AF40F2E013C2F200031B6803F1DE
:102CC000010240F2E013C2F200031A60BD4680BC6C
:102CD000704700BF80B582B000AF4FF000037B604B
:102CE00040F2E013C2F200031B68002B02D102F095
:102CF0009FFEFEE702F050FE40F2E013C2F2000336
:102D00001B6803F1FF3240F2E013C2F200031A60C5
:102D100040F2E013C2F200031B68002B40F08D80EC
:102D200040F2C013C2F200031B68002B00F0858044
:102D300049E040F28013C2F20003DB68DB683B60CD
:102D40003B6803F11803184602F02EFC3B6803F1C0
:102D50000403184602F028FC3B68DB6A4FF00102CE
:102D600002FA03F240F2C813C2F200031B681A43CE
:102D700040F2C813C2F200031A603B68DA6A1346D5
:102D80004FEA83039B184FEA83031A4640F2EC0391
:102D9000C2F20003D2183B6803F10403104619463F
:102DA00002F0A4FB3B68DA6A40F2E803C2F20003D7
:102DB0001B68DB6A9A4206D340F2D413C2F20003C6
:102DC0004FF001021A6040F28013C2F200031B6848
:102DD000002BAED140F2D013C2F200031B68002BCF
:102DE0001FD017E000F032F80346002B06D040F267
:102DF000D413C2F200034FF001021A6040F2D01364
:102E0000C2F200031B6803F1FF3240F2D013C2F29A
:102E100000031A6040F2D013C2F200031B68002BBB
:102E2000E0D140F2D413C2F200031B68012B04D19D
:102E30004FF001037B6002F09FFD02F0D5FD7B683F
:102E4000184607F10807BD4680BD00BF80B586B0B3
:102E500000AF4FF000037B6140F2E013C2F20003C9
:102E60001B68002B40F0D88040F2C413C2F200036C
:102E70001B6803F1010240F2C413C2F200031A609E
:102E800040F2C413C2F200031B683B613B69002B94
:102E90002ED140F27813C2F200031B681B68002B8E
:102EA00002D002F0C5FDFEE740F27813C2F2000343
:102EB0001B68FB6040F27C13C2F200031A6840F208
:102EC0007813C2F200031A6040F27C13C2F20003CE
:102ED000FA681A6040F2D813C2F200031B6803F1CB
:102EE000010240F2D813C2F200031A6000F044FC61
:102EF00040F2A003C2F200031B683A699A4272D3FF
:102F000000E000BF40F27813C2F200031B681B68A8
:102F1000002B02D14FF0010301E04FF00003002B22
:102F200007D040F2A003C2F200034FF0FF321A6054
:102F300059E040F27813C2F200031B68DB68DB68DB
:102F4000BB60BB685B687B603A697B689A4206D26B
:102F500040F2A003C2F200037A681A6043E0BB6843
:102F600003F10403184602F01FFBBB689B6A002BA9
:102F700005D0BB6803F11803184602F015FBBB68C7
:102F8000DB6A4FF0010202FA03F240F2C813C2F208
:102F900000031B681A4340F2C813C2F200031A6010
:102FA000BB68DA6A13464FEA83039B184FEA830330
:102FB0001A4640F2EC03C2F20003D218BB6803F1D8
:102FC00004031046194602F091FABB68DA6A40F22F
:102FD000E803C2F200031B68DB6A9A4291D34FF008
:102FE00001037B618EE740F2E803C2F200031B6835
:102FF000DA6A13464FEA83039B184FEA83031A46A3
:1030000040F2EC03C2F20003D3181B68012B0FD966
:103010004FF001037B610BE040F2D013C2F20003DA
:103020001B6803F1010240F2D013C2F200031A60E0
:1030300040F2D413C2F200031B68002B02D04FF001
:1030400001037B617B69184607F11807BD4680BD07
:1030500090B585B000AF40F2E013C2F200031B68E8
:10306000002B07D040F2D413C2F200034FF001024C
:103070001A608FE040F2D413C2F200034FF0000256
:103080001A6040F2E803C2F200031B681A6840F2BB
:10309000E803C2F200031B681B6B9A420FD840F290
:1030A000E803C2F200031A6840F2E803C2F2000328
:1030B0001B6803F1340310461946FEF75DFD40F22C
:1030C000E803C2F200031B681B6B184649F64C214B
:1030D000C0F600014FF0140206F070FA0346002B10
:1030E0000FD040F2E803C2F200031A6840F2E8038E
:1030F000C2F200031B6803F1340310461946FEF7C1
:103100003BFD40F2C813C2F200031B687B607B6882
:10311000B3FA83F4FC70FB78C3F11F03FB60FA6819
:1031200013464FEA83039B184FEA83031A4640F283
:10313000EC03C2F20003D3181B68002B02D102F08B
:1031400077FCFEE7FA6813464FEA83039B184FEAC1
:1031500083031A4640F2EC03C2F20003D318BB60AB
:10316000BB685B685A68BB685A60BB685A68BB68D2
:1031700003F108039A4204D1BB685B685A68BB68D4
:103180005A60BB685B68DB681A4640F2E803C2F22B
:1031900000031A6007F11407BD4690BD80B584B0E6
:1031A00000AF786039607B68002B02D102F040FCF0
:1031B000FEE740F2E803C2F200031B6803F11803C4
:1031C0007868194602F0B6F940F2E803C2F200034B
:1031D0001B6803F10403184602F0E6F90346002BCE
:1031E00016D140F2E803C2F200031B68DB6A4FF01D
:1031F000010202FA03F36FEA030240F2C813C2F2BB
:1032000000031B681A4040F2C813C2F200031A60A0
:103210003B68B3F1FF3F0ED140F2E803C2F2000376
:103220001B6803F1040340F2AC10C2F2000019461F
:1032300002F05CF90AE040F2C413C2F200031A681B
:103240003B68D318FB60F86800F002FA07F110073A
:10325000BD4680BD80B584B000AF78607B68DB6818
:10326000DB68BB60BB68002B02D102F0E1FBFEE72C
:10327000BB6803F11803184602F096F940F2E01318
:10328000C2F200031B68002B2CD1BB6803F10403BE
:10329000184602F089F9BB68DB6A4FF0010202FAB6
:1032A00003F240F2C813C2F200031B681A4340F253
:1032B000C813C2F200031A60BB68DA6A13464FEA09
:1032C00083039B184FEA83031A4640F2EC03C2F2D1
:1032D0000003D218BB6803F104031046194602F03C
:1032E00005F909E0BB6803F1180340F28010C2F24F
:1032F0000000194602F0FAF8BB68DA6A40F2E80307
:10330000C2F200031B68DB6A9A420AD94FF001033C
:10331000FB6040F2D413C2F200034FF001021A60C6
:1033200002E04FF00003FB60FB68184607F110074E
:10333000BD4680BD80B582B000AF78607B68002B51
:1033400002D102F075FBFEE740F2D813C2F200038F
:103350001A687B681A6040F2C413C2F200031A684C
:103360007B685A6007F10807BD4680BD80B584B010
:1033700000AF786039607B68002B02D102F058FB07
:10338000FEE73B68002B02D102F052FBFEE702F0A1
:1033900003FB40F2C413C2F200031B68BB603B682E
:1033A0001B68B3F1FF3F03D14FF00003FB602CE03B
:1033B0007B681A6840F2D813C2F200031B689A4275
:1033C00008D07B685A68BB689A4203D84FF0010363
:1033D000FB601AE07B685B68BA68D21A3B681B68BE
:1033E0009A420FD23B681A687B685968BB68CB1A4F
:1033F000D2183B681A607868FFF79CFF4FF0000313
:10340000FB6002E04FF00103FB6002F0EDFAFB68A5
:10341000184607F11007BD4680BD00BF80B400AF5D
:1034200040F2D413C2F200034FF001021A60BD460D
:1034300080BC704780B582B000AF786000F0BCF807
:1034400040F2EC03C2F200031B68012B01D902F029
:1034500093FAFEF797FBF1E780B586B000AFF8600E
:10346000B9607A603B604FF000037B6113E0BA689B
:103470007B69D3181A78F9687B69CB1803F130039C
:103480001A71BA687B69D3181B78002B07D07B6947
:1034900003F101037B617B69092BE8D900E000BFE0
:1034A000FB684FF0000283F83D207B68042B02D9B3
:1034B0004FF004037B60FB687A68DA62FB687A6825
:1034C0001A64FB684FF000025A64FB6803F10403BE
:1034D000184601F0FDFFFB6803F11803184601F0E0
:1034E000F7FFFB68FA681A617B68C3F10502FB68A5
:1034F0009A61FB68FA685A62FB684FF000029A64AE
:10350000FB684FF0000283F84C2007F11807BD4616
:1035100080BD00BF80B582B000AF4FF000037B607C
:1035200013E07A6813464FEA83039B184FEA83033C
:103530001A4640F2EC03C2F20003D318184601F019
:10354000A3FF7B6803F101037B607B68042BE8D950
:1035500040F25010C2F2000001F096FF40F26410F9
:10356000C2F2000001F090FF40F28010C2F20000B1
:1035700001F08AFF40F29410C2F2000001F084FFD3
:1035800040F2AC10C2F2000001F07EFF40F278136E
:10359000C2F2000340F25012C2F200021A6040F27E
:1035A0007C13C2F2000340F26412C2F200021A60FD
:1035B00007F10807BD4680BD80B582B000AF3CE092
:1035C000FFF776FB40F29413C2F200031B68002B56
:1035D00014BF002301237B60FFF77CFB7B68002B7B
:1035E0002BD102F0D9F940F29413C2F20003DB6848
:1035F000DB683B603B6803F10403184601F0D4FF2D
:1036000040F2C013C2F200031B6803F1FF3240F224
:10361000C013C2F200031A6040F2A813C2F2000302
:103620001B6803F1FF3240F2A813C2F200031A60D4
:1036300002F0DAF9386800F08FF840F2A813C2F20D
:1036400000031B68002BBBD107F10807BD4680BDF6
:1036500080B582B000AF786040F2E803C2F20003A8
:103660001B687A685A6040F2C413C2F200031B68F8
:103670007A689A4210D240F27C13C2F200031A68B0
:1036800040F2E803C2F200031B6803F10403104692
:10369000194601F04FFF1DE040F27813C2F200031B
:1036A0001A6840F2E803C2F200031B6803F1040346
:1036B0001046194601F03EFF40F2A003C2F200039B
:1036C0001B687A689A4205D240F2A003C2F2000356
:1036D0007A681A6007F10807BD4680BD80B584B0DE
:1036E00000AF03463960FB803B68002B07D1FB88A5
:1036F0004FEA8303184604F0D9FF034600E03B6815
:10370000BB60BB68002B10D04FF0500004F0CEFF20
:103710000346FB60FB68002B03D0FB68BA681A63A2
:1037200006E0B86805F074F802E04FF00003FB60B3
:10373000FB68002B0AD0FB681A6BFB884FEA8303F7
:1037400010464FF0A5011A4606F00CF8FB68184623
:1037500007F11007BD4680BD80B582B000AF78602C
:103760007B681B6B184605F053F8786805F050F835
:1037700007F10807BD4680BD80B483B000AF40F2BA
:103780007813C2F200031B681B68002B02D14FF0B4
:10379000010301E04FF00003002B07D040F2A0032B
:1037A000C2F200034FF0FF321A600EE040F27813CD
:1037B000C2F200031B68DB68DB687B607B685A68C9
:1037C00040F2A003C2F200031A6007F10C07BD46E5
:1037D00080BC704780B584B000AF78607B68FB60C8
:1037E0007B68002B00F09680FB68DA6A40F2E80301
:1037F000C2F200031B68DB6A9A4280F08B80FB6890
:103800009B69002B09DB40F2E803C2F200031B684E
:10381000DB6AC3F10502FB689A61FB685969FB68C2
:10382000DA6A13464FEA83039B184FEA83031A466A
:1038300040F2EC03C2F20003D318994202D14FF0D8
:10384000010301E04FF00003002B5BD0FB6803F1A4
:103850000403184601F0A8FE0346002B23D1FB68A1
:10386000DA6A13464FEA83039B184FEA83031A462A
:1038700040F2EC03C2F20003D3181B68002B12D1F4
:10388000FB68DB6A4FF0010202FA03F36FEA0302FE
:1038900040F2C813C2F200031B681A4040F2C8137A
:1038A000C2F200031A6040F2E803C2F200031B6890
:1038B000DA6AFB68DA62FB68DB6A4FF0010202FA3F
:1038C00003F240F2C813C2F200031B681A4340F22D
:1038D000C813C2F200031A60FB68DA6A13464FEAA3
:1038E00083039B184FEA83031A4640F2EC03C2F2AB
:1038F0000003D218FB6803F104031046194601F0D7
:10390000F5FD07E040F2E803C2F200031B68DA6A43
:10391000FB68DA6207F11007BD4680BD80B584B050
:1039200000AF78607B68BB604FF00003FB607B6892
:10393000002B76D0BB685B6C002B02D102F078F8CC
:10394000FEE7BB685B6C03F1FF32BB685A64BB687F
:10395000DA6ABB681B6C9A4263D0BB685B6C002B55
:103960005FD1BB6803F10403184601F01DFE034656
:10397000002B23D1BB68DA6A13464FEA83039B18F6
:103980004FEA83031A4640F2EC03C2F20003D31855
:103990001B68002B12D1BB68DB6A4FF0010202FAF0
:1039A00003F36FEA030240F2C813C2F200031B687C
:1039B0001A4040F2C813C2F200031A60BB681A6CC6
:1039C000BB68DA62BB68DB6AC3F10502BB689A6157
:1039D000BB68DB6A4FF0010202FA03F240F2C8133F
:1039E000C2F200031B681A4340F2C813C2F200037C
:1039F0001A60BB68DA6A13464FEA83039B184FEAE2
:103A000083031A4640F2EC03C2F20003D218BB68EB
:103A100003F104031046194601F068FD4FF001035D
:103A2000FB60FB68184607F11007BD4680BD00BF6C
:103A300080B400AF40F2E803C2F200031B68002B21
:103A400008D040F2E803C2F200031B685A6C02F18E
:103A500001025A6440F2E803C2F200031B681846F0
:103A6000BD4680BC704700BF80B586B000AF4FF444
:103A700000104FF00101FEF76DFA4FF002004FF019
:103A80000101FEF739FA4FF48060C4F202004FF0F2
:103A900009014FF0040201F033F84FF48060C4F2E2
:103AA00002004FF008014FF0040201F029F84FF432
:103AB00040733B614FF002033B754FF000037B7591
:103AC0004FF00103BB754FF00103FB7507F11003C5
:103AD0004FF48060C4F20200194600F065FF4FF415
:103AE000A840C4F2000003F051FA4FF00003BB807D
:103AF0004BF6FF73FB804FF0A0033B814FF48063D4
:103B00007B814FF48043BB814FF4D453C0F2060352
:103B10003B603B464FF4A840C4F20000194603F056
:103B200079FA4FF4A840C4F200004FF0010103F00D
:103B30004DFB4FF0010002F0B7F8024642F6EC539D
:103B4000C2F200031A6007F11807BD4680BD00BF2E
:103B500080B588B000AF4FF400104FF00001FEF7C1
:103B6000F9F94FF4A840C4F200004FF0000103F04F
:103B70002DFB4FF002004FF00101FEF7BDF94FF4AD
:103B800040733B614FF001033B754FF000037B75C1
:103B90004FF00103BB754FF00103FB7507F11003F4
:103BA0004FF48060C4F20200194600F0FDFE4FF0B1
:103BB0000003FB774FF00003BB614FF48063C4F256
:103BC00002034FF48062C4F20202528B92B242F4BA
:103BD000807292B25A834FF00003FB773FE04FF0C0
:103BE0001F03BB6100BFBB69002B0CBF0023012377
:103BF000DBB2BA6902F1FF32BA61002BF3D14FF4A4
:103C00008063C4F202034FF48062C4F20202128B9A
:103C100092B242F4807292B21A834FF01F03BB61DA
:103C200000BFBB69002B0CBF00230123DBB2BA69C4
:103C300002F1FF32BA61002BF3D14FF48063C4F27A
:103C400002034FF48062C4F20202528B92B242F439
:103C5000807292B25A83FB7F03F10103FB77FB7FF3
:103C6000092BBCD94FF48063C4F202034FF4806285
:103C7000C4F20202528B92B242F4807292B25A8320
:103C80004FF400104FF00101FEF764F94FF480602B
:103C9000C4F202004FF009014FF0040200F030FFBF
:103CA0004FF48060C4F202004FF008014FF00402AC
:103CB00000F026FF4FF440733B614FF002033B7569
:103CC0004FF000037B754FF00103BB754FF001030C
:103CD000FB7507F110034FF48060C4F2020019462F
:103CE00000F062FE4FF4A840C4F2000003F04EF969
:103CF0004FF00003BB804BF6FF73FB804FF0A00337
:103D00003B814FF480637B814FF48043BB814FF450
:103D1000D453C0F206033B603B464FF4A840C4F2C4
:103D20000000194603F076F94FF4A840C4F20000F1
:103D30004FF0010103F04AFA07F12007BD4680BDAC
:103D400080B586B000AFB96013460246FA81FB80A9
:103D500042F210737B6142F6EC53C2F200031B681F
:103D600018464FF000014FF0FF324FF0000302F011
:103D700009F94FF000037B8242F210737B611EE071
:103D80007B69002B14BF00230123DBB27A6902F1A7
:103D9000FF327A61002B12D0FFF7DAFE42F6EC53C5
:103DA000C2F200031B6818464FF000014FF00002FA
:103DB0004FF0000301F0CCFF4FF00503E1E34FF4B7
:103DC000A840C4F200004FF4003103F013FB034697
:103DD000002BD5D14FF4A840C4F200004FF00101F0
:103DE00003F014FA42F210737B6126E07B69002B2A
:103DF00014BF00230123DBB27A6902F1FF327A613A
:103E0000002B1AD04FF4A840C4F200004FF001017B
:103E100003F01CFAFFF79CFE42F6EC53C2F20003DB
:103E20001B6818464FF000014FF000024FF00003EE
:103E300001F08EFF4FF00503A3E34FF4A840C4F256
:103E400000004FF00101C0F2030103F09BFA0346AA
:103E5000002BCBD04FF4A840C4F200004FF0A001DB
:103E60004FF0000203F012FA42F210737B6126E079
:103E70007B69002B14BF00230123DBB27A6902F1B6
:103E8000FF327A61002B1AD04FF4A840C4F2000030
:103E90004FF0010103F0DAF9FFF75AFE42F6EC5356
:103EA000C2F200031B6818464FF000014FF00002F9
:103EB0004FF0000301F04CFF4FF0050361E34FF4B6
:103EC000A840C4F200004FF08201C0F2070103F0E5
:103ED00059FA0346002BCBD0FB894FEA13239BB240
:103EE000DBB24FF4A840C4F20000194603F02CFAEC
:103EF00042F210737B6126E07B69002B14BF002324
:103F00000123DBB27A6902F1FF327A61002B1AD009
:103F10004FF4A840C4F200004FF0010103F096F9FD
:103F2000FFF716FE42F6EC53C2F200031B68184678
:103F30004FF000014FF000024FF0000301F008FFC6
:103F40004FF005031DE34FF4A840C4F200004FF00A
:103F50008401C0F2070103F015FA0346002BCBD011
:103F6000FB89DBB24FF4A840C4F20000194603F00D
:103F7000EBF942F210737B6126E07B69002B14BFE2
:103F800000230123DBB27A6902F1FF327A61002B50
:103F90001AD04FF4A840C4F200004FF0010103F022
:103FA00055F9FFF7D5FD42F6EC53C2F200031B684A
:103FB00018464FF000014FF000024FF0000301F0EF
:103FC000C7FE4FF00503DCE24FF4A840C4F2000046
:103FD0004FF08401C0F2070103F0D4F90346002B2F
:103FE000CBD04FF4A840C4F200004FF0010103F021
:103FF0002DF94FF4A840C4F200004FF0010103F086
:1040000063F94FF4A840C4F200004FF2FF7103F0CF
:104010007BF94FF4A840C4F200004FF0010103F017
:10402000F5F842F210737B6126E07B69002B14BF28
:1040300000230123DBB27A6902F1FF327A61002B9F
:104040001AD04FF4A840C4F200004FF0010103F071
:10405000FDF8FFF77DFD42F6EC53C2F200031B684A
:1040600018464FF000014FF000024FF0000301F03E
:104070006FFE4FF0050384E24FF4A840C4F2000045
:104080004FF00101C0F2030103F07CF90346002B5D
:10409000CBD04FF4A840C4F200004FF0A0014FF085
:1040A000010203F0F3F842F210737B611EE07B69BA
:1040B000002B14BF00230123DBB27A6902F1FF3227
:1040C0007A61002B12D0FFF743FD42F6EC53C2F2A7
:1040D00000031B6818464FF000014FF000024FF03C
:1040E000000301F035FE4FF005034AE24FF4A8400B
:1040F000C4F200004FF00201C1F2000103F07AF9AE
:104100000346002BD3D0FB88022B40F2328142F2CF
:1041100010737B6126E07B69002B14BF0023012311
:10412000DBB27A6902F1FF327A61002B1AD04FF4C8
:10413000A840C4F200004FF0010103F087F8FFF738
:1041400007FD42F6EC53C2F200031B6818464FF01D
:1041500000014FF000024FF0000301F0F9FD4FF0B5
:1041600005030EE24FF4A840C4F200004FF04001F6
:10417000C0F2030103F006F90346002BCBD045E063
:104180004FF4A840C4F2000003F0EEF803461A46CC
:10419000BB681A70BB6803F10103BB6042F2107385
:1041A0007B6126E07B69002B14BF00230123DBB277
:1041B0007A6902F1FF327A61002B1AD04FF4A840DD
:1041C000C4F200004FF0010103F040F8FFF7C0FC1B
:1041D00042F6EC53C2F200031B6818464FF0000190
:1041E0004FF000024FF0000301F0B2FD4FF0050365
:1041F000C7E14FF4A840C4F200004FF04001C0F204
:10420000030103F0BFF80346002BCBD0FB88032B40
:104210000CBF00230123DBB2FA8802F1FF32FA80DF
:10422000002BADD142F210737B6126E07B69002B3D
:1042300014BF00230123DBB27A6902F1FF327A61F5
:10424000002B1AD04FF4A840C4F200004FF0010137
:1042500002F0FCFFFFF77CFC42F6EC53C2F20003D5
:104260001B6818464FF000014FF000024FF00003AA
:1042700001F06EFD4FF0050383E14FF4A840C4F256
:1042800000004FF00401C1F2000103F0B3F803464F
:10429000012BCBD14FF4A840C4F200004FF0000135
:1042A00003F012F84FF4A840C4F2000003F05CF8E9
:1042B00003461A46BB681A70BB6803F10103BB6072
:1042C0004FF4A840C4F200004FF0010102F0BEFF1D
:1042D0004FF4A840C4F2000003F046F803461A4623
:1042E000BB681A70BB6803F10103BB6042F2107334
:1042F0007B6126E07B69002B14BF00230123DBB226
:104300007A6902F1FF327A61002B1AD04FF4A8408B
:10431000C4F200004FF0010102F098FFFFF718FC13
:1043200042F6EC53C2F200031B6818464FF000013E
:104330004FF000024FF0000301F00AFD4FF00503BB
:104340001FE14FF4A840C4F200004FF04001C1F259
:10435000000103F04FF80346012BCBD14FF4A840E6
:10436000C4F2000003F000F803461A46BB681A7056
:10437000EDE0FB88022B40F0958042F210737B61E8
:1043800026E07B69002B14BF00230123DBB27A698E
:1043900002F1FF327A61002B1AD04FF4A840C4F228
:1043A00000004FF0010102F051FFFFF7D1FB42F690
:1043B000EC53C2F200031B6818464FF000014FF0A7
:1043C00000024FF0000301F0C3FC4FF00503D8E0FA
:1043D0004FF4A840C4F200004FF04001C0F20301C6
:1043E00002F0D0FF0346002BCBD04FF4A840C4F21C
:1043F000000002F0B9FF03461A46BB681A70BB689A
:1044000003F10103BB604FF4A840C4F200004FF079
:10441000000102F059FF42F210737B6126E07B69D4
:10442000002B14BF00230123DBB27A6902F1FF32B3
:104430007A61002B1AD04FF4A840C4F200004FF06C
:10444000010102F003FFFFF783FB42F6EC53C2F2D7
:1044500000031B6818464FF000014FF000024FF0B8
:10446000000301F075FC4FF005038AE04FF4A8400B
:10447000C4F200004FF04001C0F2030102F082FFDD
:104480000346002BCBD04FF4A840C4F2000002F04A
:104490006BFF03461A46BB681A70BB6803F1010341
:1044A000BB6054E0FB88012B51D14FF4A840C4F20B
:1044B00000004FF0000102F007FF42F210737B6131
:1044C00026E07B69002B14BF00230123DBB27A694D
:1044D00002F1FF327A61002B1AD04FF4A840C4F2E7
:1044E00000004FF0010102F0B1FEFFF731FB42F690
:1044F000EC53C2F200031B6818464FF000014FF066
:1045000000024FF0000301F023FC4FF0050338E0F8
:104510004FF4A840C4F200004FF04001C1F2000186
:1045200002F068FF0346002BCBD04FF4A840C4F242
:1045300000004FF0010102F089FE4FF4A840C4F2E0
:10454000000002F011FF03461A46BB681A704FF4D0
:10455000A840C4F200004FF0010102F0B5FEFFF7E1
:10456000F7FA42F6EC53C2F200031B6818464FF00C
:1045700000014FF000024FF0000301F0E9FB4FF0A3
:104580000003184607F11807BD4680BD80B586B008
:1045900000AFB96013460246FA81FB8042F2107305
:1045A0007B6142F6EC53C2F200031B6818464FF0E1
:1045B00000014FF0FF324FF0000301F0E3FC4FF039
:1045C00000037B824FF4A840C4F200004FF00101C9
:1045D00002F01CFE42F210737B6126E07B69002B27
:1045E00014BF00230123DBB27A6902F1FF327A6142
:1045F000002B1AD04FF4A840C4F200004FF0010184
:1046000002F024FEFFF7A4FA42F6EC53C2F20003D4
:104610001B6818464FF000014FF000024FF00003F6
:1046200001F096FB4FF005033CE14FF4A840C4F2C3
:1046300000004FF00101C0F2030102F0A3FE0346A7
:10464000002BCBD04FF4A840C4F200004FF0A001E3
:104650004FF0000202F01AFE42F210737B6126E076
:104660007B69002B14BF00230123DBB27A6902F1BE
:10467000FF327A61002B1AD04FF4A840C4F2000038
:104680004FF0010102F0E2FDFFF762FA42F6EC534F
:10469000C2F200031B6818464FF000014FF0000201
:1046A0004FF0000301F054FB4FF00503FAE04FF424
:1046B000A840C4F200004FF08201C0F2070102F0EE
:1046C00061FE0346002BCBD0FB894FEA13239BB23C
:1046D000DBB24FF4A840C4F20000194602F034FEE9
:1046E00042F210737B6126E07B69002B14BF00232C
:1046F0000123DBB27A6902F1FF327A61002B1AD012
:104700004FF4A840C4F200004FF0010102F09EFDFA
:10471000FFF71EFA42F6EC53C2F200031B6818467C
:104720004FF000014FF000024FF0000301F010FBCA
:104730004FF00503B6E04FF4A840C4F200004FF07C
:104740008401C0F2070102F01DFE0346002BCBD00E
:10475000FB89DBB24FF4A840C4F20000194602F016
:10476000F3FD42F210737B6126E07B69002B14BFDE
:1047700000230123DBB27A6902F1FF327A61002B58
:104780001AD04FF4A840C4F200004FF0010102F02B
:104790005DFDFFF7DDF942F6EC53C2F200031B6842
:1047A00018464FF000014FF000024FF0000301F0F7
:1047B000CFFA4FF0050375E04FF4A840C4F20000B3
:1047C0004FF08401C0F2070102F0DCFD0346002B2C
:1047D000CBD04FF000037B8246E07B8ABA68D318C7
:1047E0001B784FF4A840C4F20000194602F0ACFD5B
:1047F00042F210737B6126E07B69002B14BF00231B
:104800000123DBB27A6902F1FF327A61002B1AD000
:104810004FF4A840C4F200004FF0010102F016FD71
:10482000FFF796F942F6EC53C2F200031B681846F4
:104830004FF000014FF000024FF0000301F088FA42
:104840004FF005032EE04FF4A840C4F200004FF0F3
:104850008401C0F2070102F095FD0346002BCBD086
:104860007B8A03F101037B827A8AFB889A42B4D364
:104870004FF4A840C4F200004FF0010102F0E6FC42
:10488000FFF766F942F6EC53C2F200031B681846C4
:104890004FF000014FF000024FF0000301F058FA12
:1048A0004FF00003184607F11807BD4680BD00BF52
:1048B00080B584B000AF78604FF000037B8107F1D2
:1048C0000C034FF0000019464FF00402FFF738FACE
:1048D0000346002B02D04FF0040329E007F10A033E
:1048E0004FF02A0019464FF00202FFF729FA03465B
:1048F000002B02D04FF004031AE007F10C03184616
:104900004FF00401FDF74AF903461A467B899A42A3
:1049100005D17B68FA681A604FF0000308E07A68F6
:1049200049F68023C0F600031B6813604FF00603AE
:10493000184607F11007BD4680BD00BF80B584B0A2
:1049400000AF78604FF00003FB8107F104031846C5
:104950004FF00401FDF722F90346FB8107F1040340
:104960004FF0000019464FF00402FFF70FFE034618
:10497000002B02D04FF0040310E007F10E034FF0BC
:104980002A0019464FF00202FFF700FE0346002BF3
:1049900002D04FF0040301E04FF00003184607F186
:1049A0001007BD4680BD00BF80B487B000AF7860FF
:1049B00039604FF000037B614FF000033B614FF023
:1049C0000003FB604FF000037B618FE07B694FF0D9
:1049D000010202FA03F33B613B681A683B6902EA91
:1049E0000303FB60FA683B699A427BD17B681B68D2
:1049F0001A467B694FEA43034FF0030101FA03F3C0
:104A00006FEA03031A407B681A607B681B681A46CA
:104A10003B681B7919467B694FEA430301FA03F3AC
:104A20001A437B681A603B681B79012B03D03B68F3
:104A30001B79022B38D17B689B681A467B694FEA49
:104A400043034FF0030101FA03F36FEA03031A4033
:104A50007B689A607B689B681A463B685B7919465D
:104A60007B694FEA430301FA03F31A437B689A60B8
:104A70007B685B681A467B699BB24FF0010101FAC3
:104A800003F36FEA03031A407B685A607B685B6834
:104A90001A463B689B7919467B699BB201FA03F37E
:104AA0009BB21A437B685A607B68DB681A467B6955
:104AB0009BB24FEA43034FF0030101FA03F36FEA9D
:104AC00003031A407B68DA607B68DB681A463B6840
:104AD000DB7919467B694FEA430301FA03F31A4372
:104AE0007B68DA607B6903F101037B617B690F2BD3
:104AF0007FF66CAF07F11C07BD4680BC704700BF56
:104B000080B485B000AF786013460A467A807B7027
:104B10004FF00003FB604FF00003BB607A787B88A6
:104B200003F007034FEA830302FA03F3FB607B8879
:104B30004FEAD3039BB21A467B884FEAD3039BB25A
:104B400019467B6801F1080153F8213019467B882A
:104B500003F007034FEA83034FF00F0000FA03F35B
:104B60006FEA030319407B6802F1080243F8221040
:104B70007B884FEAD3039BB21A467B6802F1080296
:104B800053F822301A46FB6842EA0303BB607B8875
:104B90004FEAD3039BB21A467B6802F10802B96858
:104BA00043F8221007F11407BD4680BC704700BFD0
:104BB00080B588B000AF0346FB804FF00003FB8355
:104BC0004FF004004FF00101FDF7C4F940F2A403D7
:104BD000C2F200031A6841F25973CDF2B713A3FB76
:104BE00002134FEA93339BB203F1FF33FB83FB883D
:104BF0007B61FB8B3B824FF000033B834FF0000354
:104C00007B8207F110034FF40060C4F200001946E4
:104C100003F0D6FE4FF40060C4F200004FF0010133
:104C200003F076FF4FF4407003F03AF94FF01E03A3
:104C30003B734FF00E037B734FF00103BB734FF0D8
:104C40000103FB7307F10C03184603F03DF94FF421
:104C50000060C4F200004FF0010104F09DF84FF431
:104C60000060C4F200004FF001014FF0000204F0B8
:104C70005BF84FF40060C4F200004FF0000103F055
:104C800067FF4FF00103184607F12007BD4680BDBE
:104C900080B500AF4FF40060C4F200004FF0010196
:104CA00004F07AF84FF40060C4F200004FF0010104
:104CB0004FF0010204F038F84FF40060C4F2000035
:104CC0004FF0000103F016FF4FF40060C4F2000043
:104CD0004FF0010103F03CFF80BD00BF80B500AF85
:104CE0004FF40060C4F200004FF0000103F030FF09
:104CF0004FF40060C4F200004FF0000103F0FAFE30
:104D00004FF40060C4F200004FF001014FF00002C8
:104D100004F00AF84FF40060C4F200004FF0010103
:104D200004F03AF880BD00BF98B500AF4FF40060C2
:104D3000C4F200004FF0010104F02EF840F2E41339
:104D4000C2F200031B689C6A40F2E413C2F2000343
:104D50001B6803F1680140F2E413C2F200031B6810
:104D600003F1500240F2E413C2F200031B6803F1A6
:104D70006403084611461A46A04798BD80B483B024
:104D800000AF786040F2E413C2F200037A681A6060
:104D900040F2E413C2F200031B684FF000021A66EF
:104DA00040F2E413C2F200031A6844F6DD43C0F691
:104DB0000003D36540F2E413C2F200031A6844F61C
:104DC0009143C0F60003936540F2E413C2F200037E
:104DD0001B684FF000025A6540F2E413C2F2000370
:104DE0001A6844F6B133C0F60003136507F10C07E7
:104DF000BD4680BC704700BF80B588B000AF034699
:104E0000FB804FF00003FB834FF008004FF00101DF
:104E1000FDF7A0F840F2A403C2F200031A6841F2C1
:104E20005973CDF2B713A3FB02134FEA93339BB22E
:104E300003F1FF33FB83FB887B61FB8B3B824FF0ED
:104E400000033B834FF000037B8207F110034FF414
:104E50004060C4F20000194603F0B2FD4FF4406018
:104E6000C4F200004FF0010103F052FE4FF4407015
:104E700003F016F84FF032033B734FF00E037B73D1
:104E80004FF00103BB734FF00103FB7307F10C03F9
:104E9000184603F019F84FF44060C4F200004FF0D8
:104EA000010103F079FF4FF44060C4F200004FF0BD
:104EB00001014FF0000203F037FF4FF44060C4F2ED
:104EC00000004FF0000103F043FE4FF001031846CD
:104ED00007F12007BD4680BD80B500AF4FF44060AC
:104EE000C4F200004FF0010103F056FF4FF44060A0
:104EF000C4F200004FF001014FF0010203F014FF73
:104F00004FF44060C4F200004FF0000103F0F2FDE6
:104F10004FF44060C4F200004FF0010103F018FEAE
:104F200080BD00BF80B500AF4FF44060C4F2000008
:104F30004FF0000103F00CFE4FF44060C4F200009B
:104F40004FF0000103F0D6FD4FF44060C4F20000C2
:104F50004FF001014FF0000203F0E6FE4FF4406015
:104F6000C4F200004FF0010103F016FF80BD00BF46
:104F700098B500AF4FF44060C4F200004FF001015B
:104F800003F00AFF40F2E813C2F200031B689C6AB8
:104F900040F2E813C2F200031B6803F1680140F21B
:104FA000E813C2F200031B6803F1500240F2E81359
:104FB000C2F200031B6803F16403084611461A4657
:104FC000A04798BD80B483B000AF786040F2E8138A
:104FD000C2F200037A681A6040F2E813C2F20003DA
:104FE0001B684FF000021A6640F2E813C2F2000399
:104FF0001A6844F62573C0F60003D36540F2E8133F
:10500000C2F200031A6844F6D963C0F60003936540
:1050100040F2E813C2F200031B684FF000025A6529
:1050200040F2E813C2F200031A6844F6F953C0F6DE
:105030000003136507F10C07BD4680BC704700BF35
:1050400090B587B000AFF860B960FA71BB714FF0EE
:105050000003FB75FBF798F8FB685C68BA7997F872
:105060002C301046B96A4FF00802A0470346012BC6
:1050700003D04FF00303FB751DE0BB6AB3F5964FF9
:1050800003D94FF023033B6109E0BB6A4FEA4302B7
:1050900047F6A073C0F21703B3FBF2F33B61BB68A2
:1050A0001B683A6992B2104698470346012B02D01A
:1050B0004FF00303FB75FBF76DF8FB7D184607F116
:1050C0001C07BD4690BD00BF80B584B000AFF8603E
:1050D000B9607A60FBF758F8FB684FF000025A702D
:1050E000BB681B684FF001004FF0000198477B68D8
:1050F0009B689847FBF74EF807F11007BD4680BD47
:1051000080B582B000AF78603960FBF73DF87B680E
:105110001B684FF000004FF0000198473B68DB68C8
:105120009847FBF737F807F10807BD4680BD00BF79
:1051300080B586B000AFF860B9607A603B604FF030
:105140000003BB754FF00003FB75FBF71DF8FB6810
:10515000B3F80A319BB2032B26D9FB6803F1020294
:10516000FB68B3F80A319BB210461946FCF716FDEE
:105170000346002B18D1FB689B78DAB2BB681A7023
:10518000FB68B3F80A319BB2A3F103039AB23B6800
:105190001A80FB6803F1020303F101027B681A60C5
:1051A0004FF00103BB7502E04FF00503FB75FAF702
:1051B000F1FFFB7D184607F11807BD4680BD00BF13
:1051C00080B586B000AFF860B9603B601346FB71F4
:1051D0004FF00003FB75FAF7D7FFFB685B78DBB293
:1051E000012B55D13B6803F1FF32FB68C3F8042162
:1051F000FB684FF00102A3F80821FB68D3F80431E3
:10520000FA791A70FB68B3F808319AB23B8CD3185C
:105210009AB2FB68A3F80821FB68D3F80421FB6865
:10522000B3F808319BB210461946FCF7B7FC0346A9
:10523000BB82FB68B3F808319BB21A46B98AC9B27F
:10524000F8688218917003F101039AB2FB68A3F821
:105250000821FB68B3F808319BB21A46B98A4FEAB5
:10526000112189B2C9B2F8688218917003F1010363
:105270009AB2FB68A3F80821FB684FF001021A708C
:10528000BB681B684FF000004FF00101984702E037
:105290004FF00503FB75FAF77DFFFB7D184607F11C
:1052A0001807BD4680BD00BF80B586B000AFF8606E
:1052B000B9607A604FF00003FB757B68DB6807F12B
:1052C000160210469847FB685B78DBB2032B4DD87B
:1052D00001A252F823F000BFE9520008F952000879
:1052E00031530008F1520008BB689B6898473DE0C5
:1052F000BB689B68984739E0FB684FF00002A3F851
:105300000A21FB68B3F80A319BB21A46B97DF868E6
:105310008218917003F101039AB2FB68A3F80A2185
:10532000FB684FF002025A70BB689B6898471DE00B
:10533000FB68B3F80A319BB2FF2B0FD8FB68B3F8B8
:105340000A319BB21A46B97DF8688218917003F150
:1053500001039AB2FB68A3F80A2103E0FB684FF04F
:1053600003025A70BB689B68984700BFFB7D1846D4
:1053700007F11807BD4680BD80B586B000AFF86064
:10538000B9607A604FF00003FB75FB681B78DBB2F5
:10539000002B02D0012B08D040E0BB681B684FF007
:1053A00001004FF00001984738E0FB68B3F808317E
:1053B0009BB2002B1DD0BB689B68FA68D2F8042111
:1053C0001278D2B2D2B252B210469847FB68D3F8E4
:1053D000043103F10102FB68C3F80421FB68B3F850
:1053E00008319BB203F1FF339AB2FB68A3F808219E
:1053F00014E007F1040318464FF00301FBF740FEE9
:105400000346FB75BB681B684FF001004FF00001BD
:105410009847FB684FF000021A7000BFFB7D1846EA
:1054200007F11807BD4680BD80B586B000AFF860B3
:10543000B9607A604FF00003FB75FB685B78DBB204
:10544000022B0BD0032B11D0002B10D178684FF01A
:105450000001FBF715FE0346FB7508E078684FF086
:105460000101FBF70DFE0346FB7500E000BFBB68C2
:10547000DB689847FB684FF001025A70FB7D1846C5
:1054800007F11807BD4680BD80B483B000AF7860D7
:105490007B6803F108031A467B685A607B684FF00B
:1054A000FF329A607B6803F108031A467B68DA6072
:1054B0007B6803F108031A467B681A617B684FF02A
:1054C00000021A6007F10C07BD4680BC704700BFA0
:1054D00080B483B000AF78607B684FF000021A613F
:1054E00007F10C07BD4680BC704700BF80B485B093
:1054F00000AF786039607B685B68FB603B68FA6886
:105500005A60FB689A683B689A60FB689B683A68D7
:105510005A60FB683A689A603B687A681A617B68EF
:105520001B6803F101027B681A6007F11407BD468E
:1055300080BC704780B485B000AF786039603B684C
:105540001B68BB60BB68B3F1FF3F03D17B681B697D
:10555000FB600DE07B6803F10803FB6002E0FB6881
:105560005B68FB60FB685B681A68BB689A42F6D9A7
:10557000FB685A683B685A603B685B683A689A60A7
:105580003B68FA689A60FB683A685A603B687A68D8
:105590001A617B681B6803F101027B681A6007F1DE
:1055A0001407BD4680BC704780B485B000AF7860FA
:1055B0007B681B69FB607B685B687A6892689A60AD
:1055C0007B689B687A6852685A60FB685A687B6897
:1055D0009A4203D17B689A68FB685A607B684FF0F7
:1055E00000021A61FB681B6803F1FF32FB681A6056
:1055F000FB681B68184607F11407BD4680BC70475E
:1056000080B500AF4FF46053C4F202034FF4605210
:10561000C4F20202126842F001021A604FF46053B1
:10562000C4F202034FF000029A604FF46053C4F2D8
:1056300002034FF46052C4F20202126822F0847234
:1056400022F480321A604FF46053C4F2020343F232
:105650001002C2F200425A604FF46053C4F20203D7
:105660004FF46052C4F20202126822F480221A60DF
:105670004FF46053C4F202034FF00002DA6000F00E
:1056800009F84FF46D43CEF200034FF000629A60C8
:1056900080BD00BF80B483B000AF4FF000037B60DB
:1056A0004FF000033B604FF46053C4F202034FF429
:1056B0006052C4F20202126842F480321A604FF45F
:1056C0006053C4F202031B6803F400333B607B6841
:1056D00003F101037B603B68002B03D17B68B3F5CA
:1056E000A06FECD14FF46053C4F202031B6803F4C3
:1056F0000033002B03D04FF001033B6002E04FF07A
:1057000000033B603B68012B46D14FF46053C4F269
:1057100002034FF46052C4F2020292689A604FF49E
:105720006053C4F202034FF46052C4F20202926862
:105730009A604FF46053C4F202034FF46052C4F213
:10574000020292689A604FF47053C4F202034FF45D
:10575000E0621A604FF46053C4F202034FF46052E7
:10576000C4F20202926822F003029A604FF460537E
:10577000C4F202034FF46052C4F20202926842F093
:1057800001029A6000BF4FF46053C4F202039B68A9
:1057900003F00C03042BF6D107F10C07BD4680BCC7
:1057A000704700BF80B485B000AFF860B9607A6020
:1057B000FB68A3F10403FB60FB684FF080721A6082
:1057C000FB68A3F10403FB60BA68FB681A60FB681E
:1057D000A3F10403FB6045F60903C0F60003FA6871
:1057E0001360FB68A3F11403FB607A68FB681A601E
:1057F000FB68A3F12003FB60FB68184607F1140760
:10580000BD4680BC704700BF80B500AF40F2B80312
:10581000C2F200031B68B3F1FF3F02D000F008F9A9
:10582000FEE700F005F9FEE7074B19680868B0E8E5
:10583000F00F80F30988BFF36F8F4FF0000080F303
:1058400011884EF00D0E7047E800002006480068F1
:10585000006880F3088862B661B6BFF34F8FBFF36C
:105860006F8F00DF00BF000008ED00E080B584B05E
:1058700000AF4FF46443CEF20003FB60FB681B787B
:10588000DBB2BB60FB684FF0FF021A70FB681B784D
:10589000DBB2FB71FB79DBB203F05003DAB240F20A
:1058A000EC13C2F200031A7040F2F013C2F20003CC
:1058B0004FF007021A6011E040F2F013C2F2000349
:1058C0001B6803F1FF3240F2F013C2F200031A60CA
:1058D000FB79DBB24FEA4303DBB2FB71FB79DBB24E
:1058E000DBB25BB2002BE7DB40F2F013C2F2000345
:1058F0001B684FEA032240F2F013C2F200031A6061
:1059000040F2F013C2F200031B6803F4E06240F2BD
:10591000F013C2F200031A60BB68DAB2FB681A70B7
:105920004EF62053CEF200034EF62052CEF2000285
:10593000126842F470021A604EF62053CEF2000351
:105940004EF62052CEF20002126842F070421A6007
:1059500000F0B4F840F2B803C2F200034FF00002C6
:105960001A60FFF773FFFFF74FFF4FF00003184671
:1059700007F11007BD4680BD80B400AF4EF604535A
:10598000CEF200034FF080521A60BFF34F8FBFF387
:105990006F8FBD4680BC704780B500AF00F048F8FF
:1059A00040F2B803C2F200031B6803F1010240F2A7
:1059B000B803C2F200031A60BFF34F8FBFF36F8FBB
:1059C00040F2B803C2F200031B68012B0BD14EF664
:1059D0000453CEF200031B6803F0FF03002B02D038
:1059E00000F026F8FEE780BD80B500AF40F2B803B6
:1059F000C2F200031B68002B02D100F019F8FEE789
:105A000040F2B803C2F200031B6803F1FF3240F218
:105A1000B803C2F200031A6040F2B803C2F20003F6
:105A20001B68002B03D14FF0000000F00BF880BD85
:105A3000EFF311804FF0500181F3118870474FF060
:105A40000003184680F31188704700BFEFF3098008
:105A5000BFF36F8F0D4B1A6820E9F00F10602DE92E
:105A600008404FF0500080F31188FDF7F1FA4FF035
:105A7000000080F31188BDE8084019680868B0E8A4
:105A8000F00F80F30988BFF36F8F7047E8000020A4
:105A900080B500AFFFF7CCFFFDF7D8F90346002B28
:105AA00006D04EF60453CEF200034FF080521A6037
:105AB0004FF00000FFF7C6FF80BD00BF80B400AF0D
:105AC0004EF21403CEF2000344F61F621A604EF247
:105AD0001003CEF200034FF007021A60BD4680BCEF
