:020000040800F2
:10000000744E0020710E0008D90E0008D90E0008A9
:10001000D90E0008D90E0008D90E00080000000013
:10002000000000000000000000000000C9360008C9
:10003000D90E000800000000ED3800083139000832
:10004000D90E000869600008D90E0008D90E000812
:10005000D90E0008D90E0008D90E0008D90E0008E4
:10006000D90E0008D90E0008D90E0008D90E0008D4
:10007000D90E0008D90E0008D90E0008D90E0008C4
:10008000D90E0008D90E0008D90E0008D90E0008B4
:10009000D90E0008D90E0008D90E0008D90E0008A4
:1000A000D90E0008D90E0008D90E0008D90E000894
:1000B000C9510008D90E0008C92B0008D90E000844
:1000C000D90E0008D90E0008D90E0008D90E000874
:1000D000D90E0008D90E0008D90E00086D45000899
:1000E000D90E0008D90E0008D90E0008D90E000854
:1000F000D90E0008D90E0008D90E0008D90E000844
:10010000D90E0008D90E0008112E0008D90E0008DB
:100110004D490008D90E0008D90E0008D90E000874
:10012000D90E0008D90E0008D90E0008D90E000813
:10013000D90E0008D90E0008D90E0008D90E000803
:10014000D90E0008D90E0008D90E0008D90E0008F3
:10015000D90E0008D90E0008D90E0008D90E0008E3
:10016000D90E0008D90E0008D90E0008D90E0008D3
:10017000D90E0008D90E0008D90E0008D90E0008C3
:10018000D90E0008D90E000880B400AFBD4680BC6F
:10019000704700BF80B400AFBD4680BC704700BF51
:1001A00080B586B000AF786013460A467A803B80FF
:1001B0004FF00003FB754FF00003FB8140F2060394
:1001C000C2F200034FF010021A7044F26463C2F2EC
:1001D00000031B68184603F0ADFE0346002B0FD04A
:1001E00044F26463C2F200031B68184640F2BC018B
:1001F000C2F200014FF000024FF0000303F0BEFD19
:1002000044F26463C2F200035B68184603F092FE96
:100210000346002B0DD044F26463C2F200035A6817
:10022000304B104619464FF000024FF0000303F028
:10023000A5FD40F20403C2F200031B787A889A42BB
:1002400046D37A883B88D21840F20403C2F20003F6
:100250001B78194640F20603C2F200031B78CB1844
:100260009A4235DC7A8840F20803C2F200031B7818
:10027000D31A3B6128E040F2BC03C2F200033A69A2
:1002800033F812309BB24FEA13239BB2DAB27B6889
:100290001A707B6803F101037B6040F2BC03C2F279
:1002A00000033A6933F812309BB2DAB27B681A70F5
:1002B0007B6803F101037B603B6903F101033B6150
:1002C0003B8803F1FF333B803B88002BD3D102E016
:1002D0004FF00103FB75FB7D184607F11807BD467B
:1002E00080BD00BFC000002080B487B000AFF860C0
:1002F00079813A81FB714FF00003FB75FB7D184655
:1003000007F11C07BD4680BC704700BF80B485B0B4
:1003100000AFF86079813A81FB714FF00103184614
:1003200007F11407BD4680BC704700BF80B483B09E
:1003300000AF786013460A467A803B804FF0010395
:10034000184607F10C07BD4680BC704790B587B0D2
:1003500002AF7860F970BA707B704FF00003FB73E6
:100360007B684FF0020283F83620BB78002B05D063
:10037000BB78002B02D0BB78F72B03D94FF00203D8
:10038000FB7364E07B68BA7883F83420FB78002B39
:1003900041D17A6842F66973C0F60003D3607A6887
:1003A00042F6A173C0F6000313617A6843F2610359
:1003B000C0F6000393617A6842F6D173C0F6000379
:1003C00053617B684FF00002DA617A6843F24913A7
:1003D000C0F6000313627A6843F21923C0F60003E3
:1003E00053627A6843F2C923C0F6000393627B68C4
:1003F00003F138007B6803F150017B6893F83420E7
:100400007B783C6A009497F82440019402F068FDE0
:100410000346FB7302E04FF00203FB73FB7B002BF0
:1004200015D17B6803F16403184600F083FA034694
:10043000002B03D14FF00303FB7308E07B68FA78CD
:1004400083F835207B684FF0010283F83620FB7B70
:10045000184607F11407BD4690BD00BF80B584B0B3
:1004600000AF78604FF00003FB737B6893F8363081
:10047000012B11D17B68DB687A6802F168007A6829
:1004800002F138017A6802F1500298477B684FF018
:10049000000283F8362002E04FF00603FB73FB7B7B
:1004A000184607F11007BD4680BD00BFB0B586B045
:1004B00002AF78604FF00003FB727B6893F8363030
:1004C000002B02D04FF00603CAE07B6803F1640200
:1004D00007F10A031046194600F052FA0346012BB1
:1004E00040F0BC80BB7A032B00F2B88001A252F826
:1004F00023F000BF5D06000805050008550500084B
:100500005D0600087B685C697B6803F168007B68B6
:1005100003F104017A687B6803F10603A0470346F0
:10052000FB72FB7A002B40F094807B681A797B6821
:1005300093F834309A4204D07B681B79002B40F04A
:100540008A807B6803F1640318464FF0020100F0D3
:1005500001FA83E07B681B681A787B685A717B68B4
:100560004FF001021A724FF00003FB602DE040F2E1
:100570000C03C2F20003FA6813F83230002B28D0C3
:1005800040F20C03C2F20003FA6813F832207B68D1
:100590005B799A4215D140F20C02C2F20002FB686C
:1005A0004FEAC303D3185B687A6811687A6802F16E
:1005B000060208461146984703461A467B681A7297
:1005C00008E0FB6803F10103FB60FB680F2BCEDD45
:1005D00000E000BF7B681B79002B3ED07B681B7A54
:1005E000002B22D07B684FF00002DA807B6819680C
:1005F0007B68DB881A468A187968497961F07F013F
:10060000C9B2117003F101039AB27B68DA807B688A
:1006100019687B68DB881A468A187968097A11702C
:1006200003F101039AB27B68DA807B689C697B687E
:1006300003F168007B6803F138017B6893F834208C
:100640007B681B687D68ED880095A0470346FB72B8
:1006500004E000BF02E000BF00E000BF4FF0000375
:10066000184607F11007BD46B0BD00BF80B586B083
:1006700004AF44F2A040C2F2000003F0E5FF44F2F0
:10068000A040C2F2000002F0C9FA44F22C30C2F2DB
:10069000000004F0C9F944F22C30C2F2000002F06C
:1006A000E1FB4FF4614300934FF00003019344F2E8
:1006B000A040C2F200004FF000014FF00A024FF0DC
:1006C0000003FFF743FE0346FB714FF461430093C1
:1006D0004FF00003019344F22C30C2F200004FF0BF
:1006E00000014FF00A024FF00003FFF72FFE034610
:1006F000FB714FF0010300934FF0000301934FF0A3
:10070000000302934FF00003039340F26570C0F6BC
:10071000000046F2A071C0F600014FF480624FF075
:10072000000301F049F84FF0010300934FF000037C
:1007300001934FF0000302934FF00003039340F244
:10074000B570C0F6000046F2B071C0F600014FF47B
:1007500080624FF0000301F02FF807F10807BD4653
:1007600080BD00BF80B582B000AF786044F2A04089
:10077000C2F20000FFF772FE44F21463C2F20003FB
:100780004FF000021A7144F2A040C2F20000FFF7DD
:100790008DFE4FF00A0001F0EBF844F21463C2F250
:1007A00000031B6803F1010244F21463C2F2000368
:1007B0001A60E8E780B582B000AF786044F22C3070
:1007C000C2F20000FFF74AFE44F21463C2F20003D3
:1007D0004FF000021A7144F22C30C2F20000FFF711
:1007E00065FE4FF00A0001F0C3F844F21463C2F250
:1007F00000031B6803F1010244F21463C2F2000318
:100800001A60E8E780B586B000AF786039604FF0D5
:100810000003BB753B681B88052B40F082807B681A
:1008200003F101031B784FEA0323BB827B6803F1CA
:1008300002031B781A46BB8A42EA0303BB82BB8AC7
:1008400003F10103BB827B6803F103031B784FEACA
:1008500003237B827B6803F104031B781A467B8A9F
:1008600042EA03037B827B8A002B56D07A8A40F2CD
:10087000CF739A4251D87B68FB603B684FF000020F
:100880001A80FB684FF002021A70FB6803F1010343
:10089000FB603B681B8803F101039AB23B681A8036
:1008A0007B8A03F00703002B08D07B8A4FEAD3032F
:1008B0009BB2DBB203F10103FB7504E07B8A4FEAD4
:1008C000D3039BB2FB75FB68FA7D1A70FB6803F1DA
:1008D0000103FB603B681B8803F101039AB23B688C
:1008E0001A80BA8A7B8AF86811461A46FFF71EFDFD
:1008F0000346FB72FB7A002B06D0FB7A184600F009
:1009000093FA0346BB750FE03B681A88FB7D9BB2E8
:10091000D3189AB23B681A8006E04FF00303BB7508
:1009200002E04FF00303BB75BB7D184607F11807C3
:10093000BD4680BD80B483B000AF78607B684FF067
:1009400000025A704FF00103184607F10C07BD462C
:1009500080BC704780B483B000AF78600B46FB70FA
:100960007B684FF001025A707B68FA781A704FF07A
:100970000103184607F10C07BD4680BC704700BF55
:1009800080B485B000AF786039604FF00003FB732E
:100990007B685B78002B0AD07B681A783B681A70FA
:1009A0007B684FF000025A704FF00103FB73FB7B32
:1009B000184607F11407BD4680BC704780B582B069
:1009C00000AF786039607B6803F1010240F2DC130C
:1009D000C2F200031B88104640F2BC11C2F20001B3
:1009E0001A4605F0DBFD40F2DC13C2F200031B885F
:1009F00003F101039AB23B681A804FF000031846D6
:100A000007F10807BD4680BD80B58AB000AF7860A9
:100A100039604FF000037B624FF000033B624FF000
:100A20000003FB614FF00003BB617B681B8A9BB234
:100A30007B627B6A23F440537B623B68DB887A6A83
:100A400042EA03037B627B6A9AB27B681A827B6804
:100A50009B899BB27B627B6A23F4B05323F00C0327
:100A60007B623B689A883B681B8942EA03039AB21F
:100A70003B685B8942EA03039BB27A6A42EA03035A
:100A80007B627B6A9AB27B689A817B689B8A9BB205
:100A90007B627B6A23F440737B623B689B897A6A42
:100AA00042EA03037B627B6A9AB27B689A8207F10F
:100AB0000803184600F084FC7A684FF48053C4F2AF
:100AC00001039A4206D07A684FF4A053C4F201039E
:100AD0009A4202D17B693B6201E03B693B627B68E1
:100AE0009B899BB29BB21BB2002B0FDA3A6A13466A
:100AF0004FEA83039B184FEA83029A183B681B68EE
:100B00004FEA4303B2FBF3F3FB610EE03A6A13468C
:100B10004FEA83039B184FEA83029A183B681B68CD
:100B20004FEA8303B2FBF3F3FB61FA6948F21F5308
:100B3000C5F2EB13A3FB02134FEA53134FEA03135F
:100B40007B627B6A4FEA13134FF0640202FB03F3EC
:100B5000FA69D31ABB617B689B899BB29BB21BB2BB
:100B6000002B13DABB694FEAC30303F1320248F2E8
:100B70001F53C5F2EB13A3FB02134FEA531303F009
:100B800007037A6A42EA03037B6212E0BB694FEA19
:100B9000031303F1320248F21F53C5F2EB13A3FB18
:100BA00002134FEA531303F00F037A6A42EA030376
:100BB0007B627B6A9AB27B681A8107F12807BD467F
:100BC00080BD00BF80B483B000AF78600B46FB707F
:100BD000FB78002B08D07B689B899BB243F40053C1
:100BE0009AB27B689A8107E07B689B899BB223F469
:100BF00000539AB27B689A8107F10C07BD4680BC0E
:100C0000704700BF80B483B000AF78600B467B8034
:100C10007B884FEAC3534FEAD3539AB27B689A80DA
:100C200007F10C07BD4680BC704700BF80B483B09D
:100C300000AF78607B689B889BB24FEAC3534FEA52
:100C4000D3539BB2184607F10C07BD4680BC7047D2
:100C500080B487B000AF786013460A467A807B7014
:100C60004FF000033B614FF00003FB604FF00003C7
:100C7000BB604FF000037B617B687B617B88DBB2EC
:100C80004FEA5313DBB23B617B8803F01F03FB6029
:100C9000FB684FF0010202FA03F3BB603B69012BD2
:100CA00004D17B6903F10C037B610BE03B69022BF0
:100CB00004D17B6903F110037B6103E07B6903F1DD
:100CC00014037B617B78002B07D07B697A691168FC
:100CD000BA6841EA02021A6008E07B697A69116821
:100CE000BA686FEA020201EA02021A6007F11C0701
:100CF000BD4680BC704700BF80B485B000AF78604F
:100D00000B467B804FF00003FB737B681B889AB215
:100D10007B8802EA03039BB2002B03D04FF0010350
:100D2000FB7302E04FF00003FB73FB7B184607F1F7
:100D30001407BD4680BC704780B483B000AF7860B4
:100D40000B467B807B886FEA03039AB27B681A802C
:100D500007F10C07BD4680BC704700BF80B487B068
:100D600000AF78600B467B804FF00003FB604FF0D4
:100D700000037B614FF00003BB604FF00003FB7486
:100D80007B88DBB24FEA5313DBB2BB607B8803F096
:100D90001F037B617B694FF0010202FA03F37B6161
:100DA000BB68012B07D17B689B899BB27A6902EAF9
:100DB00003037B6111E0BB68022B07D17B681B8AB0
:100DC0009BB27A6902EA03037B6106E07B689B8A37
:100DD0009BB27A6902EA03037B617B884FEA1323A3
:100DE0009BB2FB60FB684FF0010202FA03F3FB6069
:100DF0007B681B889BB2FA6802EA0303FB607B698D
:100E0000002B06D0FB68002B03D04FF00103FB74CE
:100E100002E04FF00003FB74FB7C184607F11C074F
:100E2000BD4680BC704700BF80B485B000AF0346AC
:100E3000FB71FB79012B07D0072B09D0002B0BD1BD
:100E40004FF00003FB730BE04FF00203FB7307E06E
:100E50004FF00603FB7303E04FF00403FB7300BF86
:100E6000FB7B184607F11407BD4680BC704700BFE6
:100E700080B582B000AF46F6FC13C0F600037B607D
:100E800040F20003C2F200033B600BE07B681A688B
:100E90003B681A603B6803F104033B607B6803F125
:100EA00004037B603A6840F2BC03C2F200039A423A
:100EB000ECD3074807494FF000028842B8BF40F81A
:100EC000042BFADB00F012FA07F10807BD4680BDDB
:100ED000BC0000207446002080B400AFFEE700BFD5
:100EE00080B584B000AF786039604FF00003FB73C9
:100EF0003B681B88052B2BD17B6803F101031B7812
:100F00004FEA0323BB817B6803F102031B781A4677
:100F1000BB8942EA0303BB81BB8903F10103BB81A7
:100F20007B6803F10302BB89104619464FF00102AA
:100F30004FF00103FFF7D8F90346FB72FB7A002B51
:100F400009D0FB7A1846FFF76FFF0346FB7302E0F8
:100F50004FF00303FB73FB7B184607F11007BD46F8
:100F600080BD00BF80B584B000AF786039604FF0BD
:100F70000003FB733B681B88052B57D97B6803F183
:100F800001031B784FEA0323BB817B6803F1020353
:100F90001B781A46BB8942EA0303BB81BB8903F174
:100FA0000103BB817B6803F103031B784FEA032332
:100FB0007B817B6803F104031B781A467B8942EA34
:100FC00003037B817B6803F105031B787B727B89BC
:100FD000002B27D07B89782B24D87B89DBB24FEA82
:100FE0004303DBB27A7A9A421CD17B6803F1060193
:100FF000BA897B89084611461A464FF00103FFF76C
:1010000073F903463B723B7A002B06D03B7A1846B5
:10101000FFF70AFF0346FB730BE03B684FF0050246
:101020001A8006E04FF00303FB7302E04FF0030366
:10103000FB73FB7B184607F11007BD4680BD00BF60
:1010400080B586B000AF786039604FF00003FB7563
:101050003B681B88052B70D17B6803F101031B786B
:101060004FEA0323BB827B6803F102031B781A4615
:10107000BB8A42EA0303BB82BB8A03F10103BB8242
:101080007B6803F103031B784FEA03237B827B68B1
:1010900003F104031B787B827B8A002B49D07B8A77
:1010A0007D2B46D87B68FB603B684FF000021A80BE
:1010B000FB684FF003021A70FB6803F10103FB6049
:1010C0003B681B8803F101039AB23B681A807B8A54
:1010D000DBB24FEA4303DAB2FB681A70FB6803F134
:1010E0000103FB603B681B8803F101039AB23B6874
:1010F0001A80BA8A7B8AF86811461A464FF00003B4
:10110000FFF7F2F80346FB72FB7A002B06D0FB7A5E
:101110001846FFF789FE0346FB7511E03B681A8805
:101120007B8A4FEA43039BB2D3189AB23B681A807A
:1011300006E04FF00303FB7502E04FF00303FB757D
:10114000FB7D184607F11807BD4680BD80B586B007
:1011500000AF786039604FF00003FB753B681B8877
:10116000092B40F2BC807B6803F101031B784FEA36
:101170000323BB827B6803F102031B781A46BB8AF8
:1011800042EA0303BB82BB8A03F10103BB827B6893
:1011900003F103031B784FEA03237B827B6803F18F
:1011A00004031B781A467B8A42EA03037B827B682E
:1011B00003F105031B784FEA03233B827B6803F1AD
:1011C00006031B781A463B8A42EA03033B823B8AAA
:1011D00003F101033B827B6803F107031B784FEAAD
:1011E0000323FB817B6803F108031B781A46FB8904
:1011F00042EA0303FB817B6803F109031B787B73DD
:101200007B8A002B68D07B8A7D2B65D8FB89002BDD
:1012100062D0FB89792B5FD8FB894FEA43027B7B45
:101220009A4259D17B6803F10A013A8AFB89084640
:1012300011461A464FF00103FFF756F80346BB75F7
:10124000BB7D002B3ED17B68BB603B684FF000024A
:101250001A80BB684FF017021A70BB6803F10103D4
:10126000BB603B681B8803F101039AB23B681A809C
:101270007B8ADBB24FEA4303DAB2BB681A70BB6801
:1012800003F10103BB603B681B8803F101039AB2C1
:101290003B681A80BA8A7B8AB86811461A464FF0B2
:1012A0000003FFF721F80346BB75BB7D002B09D176
:1012B0003B681A887B8A4FEA43039BB2D3189AB2E1
:1012C0003B681A80BB7D002B09D0BB7D1846FFF719
:1012D000ABFD0346FB7502E04FF00303FB75FB7D9E
:1012E000184607F11807BD4680BD00BF80B500AFA6
:1012F00002F0D6F8FFF7BAF903F078FD00F08AFBA8
:10130000FEE700BF80B400AFFEE700BF80B483B04B
:1013100000AF78603960FEE780B582B000AF04F0BE
:10132000D1FA03467B607B6807F10807BD4680BDA4
:1013300080B485B000AF78600B467B804FF0FF0330
:10134000FB734FF0FF03BB731DE07B681A78BB7B18
:1013500082EA0303DBB2BB607B6803F101037B60BD
:1013600046F2C073C0F60003BA689B181A78FB7B7C
:1013700082EA0303BB7346F6C003C0F60003BA68F3
:101380009B181B78FB737B88002B0CBF0023012369
:10139000DBB27A8802F1FF327A80002BD5D1FB7B59
:1013A0004FEA03239AB2BB7B9BB242EA03039BB290
:1013B0009BB2184607F11407BD4680BC704700BFBA
:1013C00080B489B000AF78604FF00003BB614FF08C
:1013D00000037B614FF00003FB614FF002033B61B0
:1013E0004FF00003FB604FF00203BB604FF460530B
:1013F000C4F202039B6803F00C03BB61BB69042BBE
:101400000AD0082B0FD0002B64D17A684FF4105308
:10141000C0F2F403136064E07A684FF49053C0F2B2
:101420007A0313605DE04FF46053C4F202035B681B
:1014300003F480034FEA9353FB604FF46053C4F20C
:1014400002035B6803F03F03BB60FB68002B16D010
:101450004FF49053C0F27A03BA68B3FBF2F24FF440
:101460006053C4F202035B68194647F6C07301EA91
:1014700003034FEA931303FB02F3FB6115E04FF400
:101480001053C0F2F403BA68B3FBF2F24FF46053A6
:10149000C4F202035B68194647F6C07301EA03030E
:1014A0004FEA931303FB02F3FB614FF46053C4F262
:1014B00002035B6803F440334FEA134303F1010373
:1014C0004FEA43033B61FA693B69B2FBF3F27B6885
:1014D0001A6006E07A684FF41053C0F2F403136008
:1014E00000BF4FF46053C4F202039B6803F0F003A3
:1014F000BB61BB694FEA1313BB6140F28C03C2F2BC
:101500000003BA699B181B78DBB27B617B681A68A1
:101510007B6922FA03F27B685A604FF46053C4F28D
:1015200002039B6803F4E053BB61BB694FEA93235A
:10153000BB6140F28C03C2F20003BA699B181B78AE
:10154000DBB27B617B685A687B6922FA03F27B68B5
:101550009A604FF46053C4F202039B6803F4604343
:10156000BB61BB694FEA5333BB6140F28C03C2F2EB
:101570000003BA699B181B78DBB27B617B685A68F1
:101580007B6922FA03F27B68DA6007F12407BD4623
:1015900080BC704780B483B000AF78600B46FB70AE
:1015A000FB78002B0ED04FF46053C4F202034FF4CB
:1015B0006052C4F20202126B11467A6841EA0202DA
:1015C0001A630FE04FF46053C4F202034FF4605209
:1015D000C4F20202126B11467A686FEA020201EA53
:1015E00002021A6307F10C07BD4680BC704700BFBA
:1015F00080B483B000AF78600B46FB70FB78002BA3
:101600000ED04FF46053C4F202034FF46052C4F2A0
:101610000202126C11467A6841EA02021A640FE073
:101620004FF46053C4F202034FF46052C4F202025A
:10163000126C11467A686FEA020201EA02021A6429
:1016400007F10C07BD4680BC704700BF80B483B073
:1016500000AF78600B46FB70FB78002B0ED04FF488
:101660006053C4F202034FF46052C4F20202526C9F
:1016700011467A6841EA02025A640FE04FF460535F
:10168000C4F202034FF46052C4F20202526C1146DB
:101690007A686FEA020201EA02025A6407F10C0753
:1016A000BD4680BC704700BF80B586B000AF786093
:1016B00039604FF00003FB753B681B88052B72D126
:1016C0007B6803F101031B784FEA0323BB827B682D
:1016D00003F102031B781A46BB8A42EA0303BB826A
:1016E000BB8A03F10103BB827B6803F103031B7810
:1016F0004FEA03237B827B6803F104031B781A46BD
:101700007B8A42EA03037B827B8A002B47D07B8A59
:101710007C2B44D87B68FB603B684FF000021A804A
:10172000FB684FF004021A70FB6803F10103FB60D1
:101730003B681B8803F101039AB23B681A807B8ADD
:10174000DBB24FEA4303DAB2FB681A70FB6803F1BD
:101750000103FB603B681B8803F101039AB23B68FD
:101760001A80BA8A7B8AF86811461A46FEF718FD75
:101770000346FB72FB7A002B06D0FB7A1846FFF774
:1017800053FB0346FB7511E03B681A887B8A4FEADE
:1017900043039BB2D3189AB23B681A8006E04FF01D
:1017A0000303FB7502E04FF00303FB75FB7D184656
:1017B00007F11807BD4680BD80B58AB002AFF8605A
:1017C000B9603B601346FB80FB68002B02D102F03E
:1017D0007FF8FEE7BB6A042B02D902F079F8FEE736
:1017E000FB881846396B00F069FEB861BB69002BB5
:1017F00000F09F80BB691A6BFB8803F1FF334FEA4F
:101800008303D3187B617B6923F007037B617B69CA
:1018100003F00703002B02D002F05AF8FEE7FB8822
:101820000093B869B968BA6A7B6B00F005FD786906
:10183000F9683A6801F006FF03461A46BB691A6068
:10184000FB6A002B02D0FB6ABA691A6001F0F4FF50
:1018500040F2B823C2F200031B6803F1010240F218
:10186000B823C2F200031A6040F2E013C2F2000390
:101870001B68002B0FD140F2E013C2F20003BA69DB
:101880001A6040F2B823C2F200031B68012B18D182
:1018900000F030FD15E040F2C423C2F200031B68E3
:1018A000002B0ED140F2E013C2F200031B68DA6A8B
:1018B000BB6A9A4205D840F2E013C2F20003BA694B
:1018C0001A6040F2D423C2F200031B6803F1010244
:1018D00040F2D423C2F200031A60BB69DB6A4FF006
:1018E000010202FA03F240F2C023C2F200031B68B5
:1018F0001A4340F2C023C2F200031A60BB69DA6ADD
:1019000013464FEA83039B184FEA83031A4640F2BB
:10191000E413C2F20003D218BB6903F104031046BA
:10192000194601F033FD4FF00103FB6101F0ACFFFC
:1019300002E04FF0FF33FB61FB69012B11D140F254
:10194000C423C2F200031B68002B0AD040F2E0134C
:10195000C2F200031B68DA6ABB6A9A4201D201F044
:101960005BFFFB69184607F12007BD4680BD00BF3D
:1019700080B584B000AF78604FF00003FB607B68F7
:10198000002B3DD040F2D823C2F200031B68002B8D
:1019900002D001F09DFFFEE700F07AF840F2BC2390
:1019A000C2F200031A687B68D318BB6040F2E013F0
:1019B000C2F200031B6803F10403184601F044FD62
:1019C0000346002B16D140F2E013C2F200031B685D
:1019D000DB6A4FF0010202FA03F36FEA030240F2FE
:1019E000C023C2F200031B681A4040F2C023C2F2B7
:1019F00000031A60B86800F01BFD00F05BF8F860A7
:101A0000FB68002B01D101F007FF07F11007BD466D
:101A100080BD00BF80B586B004AF4FF000030093D7
:101A20004FF0000301934FF0000302934FF00003C7
:101A3000039342F21520C0F6000046F6C011C0F62E
:101A400000014FF046024FF00003FFF7B5FE78604B
:101A50007B68012B12D101F03BFF40F2C423C2F29C
:101A600000034FF001021A6040F2BC23C2F20003EF
:101A70004FF000021A6001F049FE05E07B68002B80
:101A800002D101F025FFFEE707F10807BD4680BD42
:101A900080B400AF40F2D823C2F200031B6803F108
:101AA000010240F2D823C2F200031A60BD4680BC96
:101AB000704700BF80B582B000AF4FF000037B607D
:101AC00040F2D823C2F200031B68002B02D101F0C0
:101AD000FFFEFEE701F0B0FE40F2D823C2F20003A1
:101AE0001B6803F1FF3240F2D823C2F200031A60F0
:101AF00040F2D823C2F200031B68002B40F08D8017
:101B000040F2B823C2F200031B68002B00F085806E
:101B100049E040F27823C2F20003DB68DB683B60F7
:101B20003B6803F11803184601F08EFC3B6803F193
:101B30000403184601F088FC3B68DB6A4FF00102A1
:101B400002FA03F240F2C023C2F200031B681A43F8
:101B500040F2C023C2F200031A603B68DA6A1346FF
:101B60004FEA83039B184FEA83031A4640F2E413BB
:101B7000C2F20003D2183B6803F104031046194671
:101B800001F004FC3B68DA6A40F2E013C2F20003A1
:101B90001B68DB6A9A4206D340F2CC23C2F20003F0
:101BA0004FF001021A6040F27823C2F200031B6872
:101BB000002BAED140F2C823C2F200031B68002BF9
:101BC0001FD017E000F032F80346002B06D040F299
:101BD000CC23C2F200034FF001021A6040F2C82386
:101BE000C2F200031B6803F1FF3240F2C823C2F2C5
:101BF00000031A6040F2C823C2F200031B68002BE6
:101C0000E0D140F2CC23C2F200031B68012B04D1C7
:101C10004FF001037B6001F0FFFD01F035FE7B68B2
:101C2000184607F10807BD4680BD00BF80B586B0E5
:101C300000AF4FF000037B6140F2D823C2F20003F3
:101C40001B68002B40F0D88040F2BC23C2F2000396
:101C50001B6803F1010240F2BC23C2F200031A60C8
:101C600040F2BC23C2F200031B683B613B69002BBE
:101C70002ED140F27023C2F200031B681B68002BB8
:101C800002D001F025FEFEE740F27023C2F200030D
:101C90001B68FB6040F27423C2F200031A6840F232
:101CA0007023C2F200031A6040F27423C2F20003F0
:101CB000FA681A6040F2D023C2F200031B6803F1F5
:101CC000010240F2D023C2F200031A6000F044FC8B
:101CD00040F29C03C2F200031B683A699A4272D335
:101CE00000E000BF40F27023C2F200031B681B68D3
:101CF000002B02D14FF0010301E04FF00003002B55
:101D000007D040F29C03C2F200034FF0FF321A608A
:101D100059E040F27023C2F200031B68DB68DB6805
:101D2000BB60BB685B687B603A697B689A4206D29D
:101D300040F29C03C2F200037A681A6043E0BB6879
:101D400003F10403184601F07FFBBB689B6A002B7C
:101D500005D0BB6803F11803184601F075FBBB689A
:101D6000DB6A4FF0010202FA03F240F2C023C2F232
:101D700000031B681A4340F2C023C2F200031A603A
:101D8000BB68DA6A13464FEA83039B184FEA830362
:101D90001A4640F2E413C2F20003D218BB6803F102
:101DA00004031046194601F0F1FABB68DA6A40F202
:101DB000E013C2F200031B68DB6A9A4291D34FF032
:101DC00001037B618EE740F2E013C2F200031B685F
:101DD000DA6A13464FEA83039B184FEA83031A46D5
:101DE00040F2E413C2F20003D3181B68012B0FD991
:101DF0004FF001037B610BE040F2C823C2F2000305
:101E00001B6803F1010240F2C823C2F200031A600A
:101E100040F2CC23C2F200031B68002B02D04FF02B
:101E200001037B617B69184607F11807BD4680BD39
:101E300090B585B000AF40F2D823C2F200031B6812
:101E4000002B07D040F2CC23C2F200034FF0010276
:101E50001A608FE040F2CC23C2F200034FF0000280
:101E60001A6040F2E013C2F200031B681A6840F2E5
:101E7000E013C2F200031B681B6B9A420FD840F2BA
:101E8000E013C2F200031A6840F2E013C2F200034A
:101E90001B6803F1340310461946FFF737FA40F286
:101EA000E013C2F200031B681B6B184646F6C8110C
:101EB000C0F600014FF0140204F044FB0346002B6F
:101EC0000FD040F2E013C2F200031A6840F2E013B0
:101ED000C2F200031B6803F1340310461946FFF7F2
:101EE00015FA40F2C023C2F200031B687B607B68D6
:101EF000B3FA83F4FC70FB78C3F11F03FB60FA684C
:101F000013464FEA83039B184FEA83031A4640F2B5
:101F1000E413C2F20003D3181B68002B02D101F0B6
:101F2000D7FCFEE7FA6813464FEA83039B184FEA93
:101F300083031A4640F2E413C2F20003D318BB60D5
:101F4000BB685B685A68BB685A60BB685A68BB6804
:101F500003F108039A4204D1BB685B685A68BB6806
:101F60005A60BB685B68DB681A4640F2E013C2F255
:101F700000031A6007F11407BD4690BD80B584B018
:101F800000AF786039607B68002B02D101F0A0FCC3
:101F9000FEE740F2E013C2F200031B6803F11803EE
:101FA0007868194601F016FA40F2E013C2F2000315
:101FB0001B6803F10403184601F046FA0346002BA0
:101FC00016D140F2E013C2F200031B68DB6A4FF047
:101FD000010202FA03F36FEA030240F2C023C2F2E5
:101FE00000031B681A4040F2C023C2F200031A60CB
:101FF0003B68B3F1FF3F0ED140F2E013C2F20003A1
:102000001B6803F1040340F2A420C2F20000194649
:1020100001F0BCF90AE040F2BC23C2F200031A68E6
:102020003B68D318FB60F86800F002FA07F110076C
:10203000BD4680BD80B584B000AF78607B68DB684A
:10204000DB68BB60BB68002B02D101F041FCFEE7FE
:10205000BB6803F11803184601F0F6F940F2D823E3
:10206000C2F200031B68002B2CD1BB6803F10403F0
:10207000184601F0E9F9BB68DB6A4FF0010202FA89
:1020800003F240F2C023C2F200031B681A4340F27D
:10209000C023C2F200031A60BB68DA6A13464FEA33
:1020A00083039B184FEA83031A4640F2E413C2F2FB
:1020B0000003D218BB6803F104031046194601F06F
:1020C00065F909E0BB6803F1180340F27820C2F219
:1020D0000000194601F05AF9BB68DA6A40F2E013D1
:1020E000C2F200031B68DB6A9A420AD94FF001036F
:1020F000FB6040F2CC23C2F200034FF001021A60F1
:1021000002E04FF00003FB60FB68184607F1100780
:10211000BD4680BD80B582B000AF78607B68002B83
:1021200002D101F0D5FBFEE740F2D023C2F200035A
:102130001A687B681A6040F2BC23C2F200031A6876
:102140007B685A6007F10807BD4680BD80B584B042
:1021500000AF786039607B68002B02D101F0B8FBDA
:10216000FEE73B68002B02D101F0B2FBFEE701F075
:1021700063FB40F2BC23C2F200031B68BB603B68F8
:102180001B68B3F1FF3F03D14FF00003FB602CE06D
:102190007B681A6840F2D023C2F200031B689A429F
:1021A00008D07B685A68BB689A4203D84FF0010395
:1021B000FB601AE07B685B68BA68D21A3B681B68F0
:1021C0009A420FD23B681A687B685968BB68CB1A81
:1021D000D2183B681A607868FFF79CFF4FF0000345
:1021E000FB6002E04FF00103FB6001F04DFBFB6878
:1021F000184607F11007BD4680BD00BF80B400AF90
:1022000040F2CC23C2F200034FF001021A60BD4637
:1022100080BC704780B582B000AF786000F0BCF839
:1022200040F2E413C2F200031B68012B01D901F054
:10223000F3FAFFF771F8F1E780B586B000AFF86008
:10224000B9607A603B604FF000037B6113E0BA68CD
:102250007B69D3181A78F9687B69CB1803F13003CE
:102260001A71BA687B69D3181B78002B07D07B6979
:1022700003F101037B617B69092BE8D900E000BF12
:10228000FB684FF0000283F83D207B68042B02D9E5
:102290004FF004037B60FB687A68DA62FB687A6857
:1022A0001A64FB684FF000025A64FB6803F10403F0
:1022B000184601F05DF8FB6803F11803184601F0B9
:1022C00057F8FB68FA681A617B68C3F10502FB687E
:1022D0009A61FB68FA685A62FB684FF000029A64E0
:1022E000FB684FF0000283F84C2007F11807BD4649
:1022F00080BD00BF80B582B000AF4FF000037B60AF
:1023000013E07A6813464FEA83039B184FEA83036E
:102310001A4640F2E413C2F20003D318184601F043
:1023200003F87B6803F101037B607B68042BE8D929
:1023300040F24820C2F2000000F0F6FF40F25C20BC
:10234000C2F2000000F0F0FF40F27820C2F200007C
:1023500000F0EAFF40F28C20C2F2000000F0E4FF3F
:1023600040F2A420C2F2000000F0DEFF40F2702331
:10237000C2F2000340F24822C2F200021A6040F2A8
:102380007423C2F2000340F25C22C2F200021A601F
:1023900007F10807BD4680BD80B582B000AF3CE0C4
:1023A000FFF776FB40F28C23C2F200031B68002B80
:1023B00014BF002301237B60FFF77CFB7B68002BAD
:1023C0002BD101F039FA40F28C23C2F20003DB6812
:1023D000DB683B603B6803F10403184601F034F806
:1023E00040F2B823C2F200031B6803F1FF3240F24F
:1023F000B823C2F200031A6040F2A023C2F2000325
:102400001B6803F1FF3240F2A023C2F200031A60FE
:1024100001F03AFA386800F08FF840F2A023C2F2D7
:1024200000031B68002BBBD107F10807BD4680BD28
:1024300080B582B000AF786040F2E013C2F20003D2
:102440001B687A685A6040F2BC23C2F200031B6822
:102450007A689A4210D240F27423C2F200031A68DA
:1024600040F2E013C2F200031B6803F104031046BC
:10247000194600F0AFFF1DE040F27023C2F20003E6
:102480001A6840F2E013C2F200031B6803F1040370
:102490001046194600F09EFF40F29C03C2F2000372
:1024A0001B687A689A4205D240F29C03C2F200038C
:1024B0007A681A6007F10807BD4680BD80B584B010
:1024C00000AF03463960FB803B68002B07D1FB88D7
:1024D0004FEA8303184603F0FFF8034600E03B6829
:1024E000BB60BB68002B10D04FF0500003F0F4F835
:1024F0000346FB60FB68002B03D0FB68BA681A63D5
:1025000006E0B86803F09AF902E04FF00003FB60C0
:10251000FB68002B0AD0FB681A6BFB884FEA830329
:1025200010464FF0A5011A4604F0E0F8FB68184683
:1025300007F11007BD4680BD80B582B000AF78605E
:102540007B681B6B184603F079F9786803F076F91D
:1025500007F10807BD4680BD80B483B000AF40F2EC
:102560007023C2F200031B681B68002B02D14FF0DE
:10257000010301E04FF00003002B07D040F29C0361
:10258000C2F200034FF0FF321A600EE040F27023F7
:10259000C2F200031B68DB68DB687B607B685A68FB
:1025A00040F29C03C2F200031A6007F10C07BD461B
:1025B00080BC704780B584B000AF78607B68FB60FA
:1025C0007B68002B00F09680FB68DA6A40F2E0132B
:1025D000C2F200031B68DB6A9A4280F08B80FB68C2
:1025E0009B69002B09DB40F2E013C2F200031B6879
:1025F000DB6AC3F10502FB689A61FB685969FB68F5
:10260000DA6A13464FEA83039B184FEA83031A469C
:1026100040F2E413C2F20003D318994202D14FF002
:10262000010301E04FF00003002B5BD0FB6803F1D6
:102630000403184600F008FF0346002B23D1FB6873
:10264000DA6A13464FEA83039B184FEA83031A465C
:1026500040F2E413C2F20003D3181B68002B12D11E
:10266000FB68DB6A4FF0010202FA03F36FEA030230
:1026700040F2C023C2F200031B681A4040F2C0239C
:10268000C2F200031A6040F2E013C2F200031B68BA
:10269000DA6AFB68DA62FB68DB6A4FF0010202FA71
:1026A00003F240F2C023C2F200031B681A4340F257
:1026B000C023C2F200031A60FB68DA6A13464FEACD
:1026C00083039B184FEA83031A4640F2E413C2F2D5
:1026D0000003D218FB6803F104031046194600F00A
:1026E00055FE07E040F2E013C2F200031B68DA6A0D
:1026F000FB68DA6207F11007BD4680BD80B584B083
:1027000000AF78607B68BB604FF00003FB607B68C4
:10271000002B76D0BB685B6C002B02D101F0D8F89F
:10272000FEE7BB685B6C03F1FF32BB685A64BB68B1
:10273000DA6ABB681B6C9A4263D0BB685B6C002B87
:102740005FD1BB6803F10403184600F07DFE034629
:10275000002B23D1BB68DA6A13464FEA83039B1828
:102760004FEA83031A4640F2E413C2F20003D3187F
:102770001B68002B12D1BB68DB6A4FF0010202FA22
:1027800003F36FEA030240F2C023C2F200031B68A6
:102790001A4040F2C023C2F200031A60BB681A6CF0
:1027A000BB68DA62BB68DB6AC3F10502BB689A6189
:1027B000BB68DB6A4FF0010202FA03F240F2C02369
:1027C000C2F200031B681A4340F2C023C2F20003A6
:1027D0001A60BB68DA6A13464FEA83039B184FEA14
:1027E00083031A4640F2E413C2F20003D218BB6816
:1027F00003F104031046194600F0C8FD4FF0010331
:10280000FB60FB68184607F11007BD4680BD00BF9E
:1028100080B400AF40F2E013C2F200031B68002B4B
:1028200008D040F2E013C2F200031B685A6C02F1B8
:1028300001025A6440F2E013C2F200031B6818461A
:10284000BD4680BC704700BF80B487B000AF7860E1
:1028500039604FF000037B614FF000033B614FF0A4
:102860000003FB604FF000037B618FE07B694FF05A
:10287000010202FA03F33B613B681A683B6902EA12
:102880000303FB60FA683B699A427BD17B681B6853
:102890001A467B694FEA43034FF0030101FA03F341
:1028A0006FEA03031A407B681A607B681B681A464C
:1028B0003B681B7919467B694FEA430301FA03F32E
:1028C0001A437B681A603B681B79012B03D03B6875
:1028D0001B79022B38D17B689B681A467B694FEACB
:1028E00043034FF0030101FA03F36FEA03031A40B5
:1028F0007B689A607B689B681A463B685B791946DF
:102900007B694FEA430301FA03F31A437B689A6039
:102910007B685B681A467B699BB24FF0010101FA44
:1029200003F36FEA03031A407B685A607B685B68B5
:102930001A463B689B7919467B699BB201FA03F3FF
:102940009BB21A437B685A607B68DB681A467B69D6
:102950009BB24FEA43034FF0030101FA03F36FEA1E
:1029600003031A407B68DA607B68DB681A463B68C1
:10297000DB7919467B694FEA430301FA03F31A43F3
:102980007B68DA607B6903F101037B617B690F2B54
:102990007FF66CAF07F11C07BD4680BC704700BFD7
:1029A00080B485B000AF786013460A467A807B70A9
:1029B0004FF00003FB604FF00003BB607A787B8828
:1029C00003F007034FEA830302FA03F3FB607B88FB
:1029D0004FEAD3039BB21A467B884FEAD3039BB2DC
:1029E00019467B6801F1080153F8213019467B88AC
:1029F00003F007034FEA83034FF00F0000FA03F3DD
:102A00006FEA030319407B6802F1080243F82210C1
:102A10007B884FEAD3039BB21A467B6802F1080217
:102A200053F822301A46FB6842EA0303BB607B88F6
:102A30004FEAD3039BB21A467B6802F10802B968D9
:102A400043F8221007F11407BD4680BC704700BF51
:102A500080B588B000AF0346FB804FF00003FB83D6
:102A60004FF004004FF00101FEF7C2FD40F2A00359
:102A7000C2F200031A6841F25973CDF2B713A3FBF7
:102A800002134FEA93339BB203F1FF33FB83FB88BE
:102A90007B61FB8B3B824FF000033B834FF00003D5
:102AA0007B8207F110034FF40060C4F20000194666
:102AB00002F04AFF4FF40060C4F200004FF0010141
:102AC00002F0EAFF4FF4407002F07EFD4FF01E036B
:102AD0003B734FF00E037B734FF00103BB734FF05A
:102AE0000103FB7307F10C03184602F081FD4FF45C
:102AF0000060C4F200004FF0010103F011F94FF43F
:102B00000060C4F200004FF001014FF0000203F03A
:102B1000CFF84FF40060C4F200004FF0000102F063
:102B2000DBFF4FF00103184607F12007BD4680BDCB
:102B300080B500AF4FF40060C4F200004FF0010117
:102B400003F0EEF84FF40060C4F200004FF0010112
:102B50004FF0010203F0ACF84FF40060C4F2000043
:102B60004FF0000102F08AFF4FF40060C4F2000051
:102B70004FF0010102F0B0FF80BD00BF80B500AF93
:102B80004FF40060C4F200004FF0000102F0A4FF17
:102B90004FF40060C4F200004FF0000102F06EFF3D
:102BA0004FF40060C4F200004FF001014FF000024A
:102BB00003F07EF84FF40060C4F200004FF0010112
:102BC00003F0AEF880BD00BF98B500AF4FF40060D1
:102BD000C4F200004FF0010103F0A2F840F2DC2340
:102BE000C2F200031B689C6A40F2DC23C2F20003BD
:102BF0001B6803F1680140F2DC23C2F200031B688A
:102C000003F1500240F2DC23C2F200031B6803F11F
:102C10006403084611461A46A04798BD80B483B0A5
:102C200000AF786040F2DC23C2F200037A681A60D9
:102C300040F2DC23C2F200031B684FF000021A6668
:102C400040F2DC23C2F200031A6842F67D33C0F67C
:102C50000003D36540F2DC23C2F200031A6842F697
:102C60003133C0F60003936540F2DC23C2F2000367
:102C70001B684FF000025A6540F2DC23C2F20003E9
:102C80001A6842F65123C0F60003136507F10C07DA
:102C9000BD4680BC704700BF80B588B000AF03461A
:102CA000FB804FF00003FB834FF008004FF0010161
:102CB000FEF79EFC40F2A003C2F200031A6841F244
:102CC0005973CDF2B713A3FB02134FEA93339BB2B0
:102CD00003F1FF33FB83FB887B61FB8B3B824FF06F
:102CE00000033B834FF000037B8207F110034FF496
:102CF0004060C4F20000194602F026FE4FF4406026
:102D0000C4F200004FF0010102F0C6FE4FF4407023
:102D100002F05AFC4FF032033B734FF00E037B730B
:102D20004FF00103BB734FF00103FB7307F10C037A
:102D3000184602F05DFC4FF44060C4F200004FF012
:102D4000010102F0EDFF4FF44060C4F200004FF0CB
:102D500001014FF0000202F0ABFF4FF44060C4F2FB
:102D600000004FF0000102F0B7FE4FF001031846DB
:102D700007F12007BD4680BD80B500AF4FF440602D
:102D8000C4F200004FF0010102F0CAFF4FF44060AE
:102D9000C4F200004FF001014FF0010202F088FF81
:102DA0004FF44060C4F200004FF0000102F066FEF4
:102DB0004FF44060C4F200004FF0010102F08CFEBD
:102DC00080BD00BF80B500AF4FF44060C4F200008A
:102DD0004FF0000102F080FE4FF44060C4F20000AA
:102DE0004FF0000102F04AFE4FF44060C4F20000D0
:102DF0004FF001014FF0000202F05AFF4FF4406023
:102E0000C4F200004FF0010102F08AFF80BD00BF54
:102E100098B500AF4FF44060C4F200004FF00101DC
:102E200002F07EFF40F2E023C2F200031B689C6ABE
:102E300040F2E023C2F200031B6803F1680140F294
:102E4000E023C2F200031B6803F1500240F2E023CA
:102E5000C2F200031B6803F16403084611461A46D8
:102E6000A04798BD80B483B000AF786040F2E02303
:102E7000C2F200037A681A6040F2E023C2F2000353
:102E80001B684FF000021A6640F2E023C2F2000312
:102E90001A6842F6C553C0F60003D36540F2E0233A
:102EA000C2F200031A6842F67953C0F60003936534
:102EB00040F2E023C2F200031B684FF000025A65A3
:102EC00040F2E023C2F200031A6842F69943C0F6CA
:102ED0000003136507F10C07BD4680BC704700BFB7
:102EE00090B587B000AFF860B960FA71BB714FF070
:102EF0000003FB75FDF748F9FB685C68BA7997F841
:102F00002C301046B96A4FF00802A0470346012B47
:102F100003D04FF00303FB751DE0BB6AB3F5964F7A
:102F200003D94FF023033B6109E0BB6A4FEA430238
:102F300047F6A073C0F21703B3FBF2F33B61BB6823
:102F40001B683A6992B2104698470346012B02D09B
:102F50004FF00303FB75FDF71DF9FB7D184607F1E4
:102F60001C07BD4690BD00BF80B584B000AFF860BF
:102F7000B9607A60FDF708F9FB684FF000025A70FB
:102F8000BB681B684FF001004FF0000198477B6859
:102F90009B689847FDF7FEF807F11007BD4680BD16
:102FA00080B582B000AF78603960FDF7EDF87B68DE
:102FB0001B684FF000004FF0000198473B68DB684A
:102FC0009847FDF7E7F807F10807BD4680BD00BF49
:102FD00080B586B000AFF860B9607A603B604FF0B2
:102FE0000003BB754FF00003FB75FDF7CDF8FB68E0
:102FF000B3F80A319BB2032B26D9FB6803F1020216
:10300000FB68B3F80A319BB210461946FEF790F9F7
:103010000346002B18D1FB689B78DAB2BB681A70A4
:10302000FB68B3F80A319BB2A3F103039AB23B6881
:103030001A80FB6803F1020303F101027B681A6046
:103040004FF00103BB7502E04FF00503FB75FDF780
:10305000A1F8FB7D184607F11807BD4680BD00BFEB
:1030600080B586B000AFF860B9603B601346FB7175
:103070004FF00003FB75FDF787F8FB685B78DBB268
:10308000012B55D13B6803F1FF32FB68C3F80421E3
:10309000FB684FF00102A3F80821FB68D3F8043164
:1030A000FA791A70FB68B3F808319AB23B8CD318DE
:1030B0009AB2FB68A3F80821FB68D3F80421FB68E7
:1030C000B3F808319BB210461946FEF731F90346B2
:1030D000BB82FB68B3F808319BB21A46B98AC9B201
:1030E000F8688218917003F101039AB2FB68A3F8A3
:1030F0000821FB68B3F808319BB21A46B98A4FEA37
:10310000112189B2C9B2F8688218917003F10103E4
:103110009AB2FB68A3F80821FB684FF001021A700D
:10312000BB681B684FF000004FF00101984702E0B8
:103130004FF00503FB75FDF72DF8FB7D184607F1F1
:103140001807BD4680BD00BF80B586B000AFF860EF
:10315000B9607A604FF00003FB757B68DB6807F1AC
:10316000160210469847FB685B78DBB2032B4DD8FC
:1031700001A252F823F000BF8931000899310008FC
:10318000D131000891310008BB689B6898473DE049
:10319000BB689B68984739E0FB684FF00002A3F8D2
:1031A0000A21FB68B3F80A319BB21A46B97DF86868
:1031B0008218917003F101039AB2FB68A3F80A2107
:1031C000FB684FF002025A70BB689B6898471DE08D
:1031D000FB68B3F80A319BB2FF2B0FD8FB68B3F83A
:1031E0000A319BB21A46B97DF8688218917003F1D2
:1031F00001039AB2FB68A3F80A2103E0FB684FF0D1
:1032000003025A70BB689B68984700BFFB7D184655
:1032100007F11807BD4680BD80B586B000AFF860E5
:10322000B9607A604FF00003FB75FB681B78DBB276
:10323000002B02D0012B08D040E0BB681B684FF088
:1032400001004FF00001984738E0FB68B3F80831FF
:103250009BB2002B1DD0BB689B68FA68D2F8042192
:103260001278D2B2D2B252B210469847FB68D3F865
:10327000043103F10102FB68C3F80421FB68B3F8D1
:1032800008319BB203F1FF339AB2FB68A3F808211F
:1032900014E007F1040318464FF00301FDF75AFB51
:1032A0000346FB75BB681B684FF001004FF000013F
:1032B0009847FB684FF000021A7000BFFB7D18466C
:1032C00007F11807BD4680BD80B586B000AFF86035
:1032D000B9607A604FF00003FB75FB685B78DBB286
:1032E000022B0BD0032B11D0002B10D178684FF09C
:1032F0000001FDF72FFB0346FB7508E078684FF0EF
:103300000101FDF727FB0346FB7500E000BFBB682A
:10331000DB689847FB684FF001025A70FB7D184646
:1033200007F11807BD4680BD80B483B000AF786058
:103330007B6803F108031A467B685A607B684FF08C
:10334000FF329A607B6803F108031A467B68DA60F3
:103350007B6803F108031A467B681A617B684FF0AB
:1033600000021A6007F10C07BD4680BC704700BF21
:1033700080B483B000AF78607B684FF000021A61C0
:1033800007F10C07BD4680BC704700BF80B485B014
:1033900000AF786039607B685B68FB603B68FA6807
:1033A0005A60FB689A683B689A60FB689B683A6859
:1033B0005A60FB683A689A603B687A681A617B6871
:1033C0001B6803F101027B681A6007F11407BD4610
:1033D00080BC704780B485B000AF786039603B68CE
:1033E0001B68BB60BB68B3F1FF3F03D17B681B69FF
:1033F000FB600DE07B6803F10803FB6002E0FB6803
:103400005B68FB60FB685B681A68BB689A42F6D928
:10341000FB685A683B685A603B685B683A689A6028
:103420003B68FA689A60FB683A685A603B687A6859
:103430001A617B681B6803F101027B681A6007F15F
:103440001407BD4680BC704780B485B000AF78607B
:103450007B681B69FB607B685B687A6892689A602E
:103460007B689B687A6852685A60FB685A687B6818
:103470009A4203D17B689A68FB685A607B684FF078
:1034800000021A61FB681B6803F1FF32FB681A60D7
:10349000FB681B68184607F11407BD4680BC7047DF
:1034A00080B500AF4FF46053C4F202034FF4605292
:1034B000C4F20202126842F001021A604FF4605333
:1034C000C4F202034FF000029A604FF46053C4F25A
:1034D00002034FF46052C4F20202126822F08472B6
:1034E00022F480321A604FF46053C4F2020343F2B4
:1034F0001002C2F200425A604FF46053C4F2020359
:103500004FF46052C4F20202126822F480221A6060
:103510004FF46053C4F202034FF00002DA6000F08F
:1035200009F84FF46D43CEF200034FF000629A6049
:1035300080BD00BF80B483B000AF4FF000037B605C
:103540004FF000033B604FF46053C4F202034FF4AA
:103550006052C4F20202126842F480321A604FF4E0
:103560006053C4F202031B6803F400333B607B68C2
:1035700003F101037B603B68002B03D17B68B3F54B
:10358000A06FECD14FF46053C4F202031B6803F444
:103590000033002B03D04FF001033B6002E04FF0FB
:1035A00000033B603B68012B46D14FF46053C4F2EB
:1035B00002034FF46052C4F2020292689A604FF420
:1035C0006053C4F202034FF46052C4F202029268E4
:1035D0009A604FF46053C4F202034FF46052C4F295
:1035E000020292689A604FF47053C4F202034FF4DF
:1035F000E0621A604FF46053C4F202034FF4605269
:10360000C4F20202926822F003029A604FF46053FF
:10361000C4F202034FF46052C4F20202926842F014
:1036200001029A6000BF4FF46053C4F202039B682A
:1036300003F00C03042BF6D107F10C07BD4680BC48
:10364000704700BF80B485B000AFF860B9607A60A1
:10365000FB68A3F10403FB60FB684FF080721A6003
:10366000FB68A3F10403FB60BA68FB681A60FB689F
:10367000A3F10403FB6043F2A963C0F60003FA68F8
:103680001360FB68A3F11403FB607A68FB681A609F
:10369000FB68A3F12003FB60FB68184607F11407E1
:1036A000BD4680BC704700BF80B500AF40F2B40398
:1036B000C2F200031B68B3F1FF3F02D000F008F92B
:1036C000FEE700F005F9FEE7074B19680868B0E867
:1036D000F00F80F30988BFF36F8F4FF0000080F385
:1036E00011884EF00D0E7047E0010020064800687A
:1036F000006880F3088862B661B6BFF34F8FBFF3EE
:103700006F8F00DF00BF000008ED00E080B584B0DF
:1037100000AF4FF46443CEF20003FB60FB681B78FC
:10372000DBB2BB60FB684FF0FF021A70FB681B78CE
:10373000DBB2FB71FB79DBB203F05003DAB240F28B
:10374000E423C2F200031A7040F2E823C2F200033D
:103750004FF007021A6011E040F2E823C2F20003C2
:103760001B6803F1FF3240F2E823C2F200031A6043
:10377000FB79DBB24FEA4303DBB2FB71FB79DBB2CF
:10378000DBB25BB2002BE7DB40F2E823C2F20003BE
:103790001B684FEA032240F2E823C2F200031A60DA
:1037A00040F2E823C2F200031B6803F4E06240F237
:1037B000E823C2F200031A60BB68DAB2FB681A7031
:1037C0004EF62053CEF200034EF62052CEF2000207
:1037D000126842F470021A604EF62053CEF20003D3
:1037E0004EF62052CEF20002126842F070421A6089
:1037F00000F0B4F840F2B403C2F200034FF000024C
:103800001A60FFF773FFFFF74FFF4FF000031846F2
:1038100007F11007BD4680BD80B400AF4EF60453DB
:10382000CEF200034FF080521A60BFF34F8FBFF308
:103830006F8FBD4680BC704780B500AF00F048F880
:1038400040F2B403C2F200031B6803F1010240F22C
:10385000B403C2F200031A60BFF34F8FBFF36F8F40
:1038600040F2B403C2F200031B68012B0BD14EF6E9
:103870000453CEF200031B6803F0FF03002B02D0B9
:1038800000F026F8FEE780BD80B500AF40F2B4033B
:10389000C2F200031B68002B02D100F019F8FEE70A
:1038A00040F2B403C2F200031B6803F1FF3240F29E
:1038B000B403C2F200031A6040F2B403C2F2000380
:1038C0001B68002B03D14FF0000000F00BF880BD07
:1038D000EFF311804FF0500181F3118870474FF0E2
:1038E0000003184680F31188704700BFEFF309808A
:1038F000BFF36F8F0D4B1A6820E9F00F10602DE9B0
:1039000008404FF0500080F31188FEF791FA4FF015
:10391000000080F31188BDE8084019680868B0E825
:10392000F00F80F30988BFF36F8F7047E00100202C
:1039300080B500AFFFF7CCFFFEF778F90346002B08
:1039400006D04EF60453CEF200034FF080521A60B8
:103950004FF00000FFF7C6FF80BD00BF80B400AF8E
:103960004EF21403CEF2000344F61F621A604EF2C8
:103970001003CEF200034FF007021A60BD4680BC70
:10398000704700BF90B583B000AFEFF305847C6053
:103990007B680F2B13D946F6DC13C0F600031A68B8
:1039A0007B68D3181B78FB7040F2E423C2F200035B
:1039B0001B78FA789A4202D2FFF78AFFFEE74EF6AA
:1039C0000C53CEF200031B6803F4E06240F2E823DC
:1039D000C2F200031B689A4202D9FFF779FFFEE7A3
:1039E00007F10C07BD4690BD80B584B000AF78608C
:1039F00039607B68FB60FB68002B02D1FFF768FF32
:103A0000FEE7FFF719FFFB681A68FB68DB6BF968D4
:103A1000096C01FB03F3D218FB685A60FB684FF096
:103A200000029A63FB681A68FB689A60FB681A6870
:103A3000FB68DB6B03F1FF33F968096C01FB03F3EF
:103A4000D218FB68DA60FB684FF0FF325A64FB68FB
:103A50004FF0FF329A643B68002B0FD1FB681B6963
:103A6000002B17D0FB6803F110031846FEF7E2FAAB
:103A70000346012B0ED1FFF7CFFE0BE0FB6803F1ED
:103A800010031846FFF750FCFB6803F124031846A7
:103A9000FFF74AFCFFF7F8FE4FF00103184607F165
:103AA0001007BD4680BD00BF80B588B000AFF8608C
:103AB000B9601346FB714FF00003BB61FB68002B3C
:103AC00002D1FFF705FFFEE7BB68002B03D14FF0E3
:103AD0000003FB6106E0FB68BA6802FB03F303F135
:103AE0000103FB61FB6903F14C03184601F0F4FD8F
:103AF00003467B617B69002B1AD07B693B61BB6805
:103B0000002B03D13A693B691A6004E07B6903F139
:103B10004C023B691A603B69FA68DA633B69BA6830
:103B20001A6438694FF00101FFF75EFF3B69BB6122
:103B3000BB69002B02D1FFF7CBFEFEE7BB6918463D
:103B400007F12007BD4680BD80B58AB000AFF860A0
:103B5000B9607A603B604FF000037B62FB683B62B8
:103B60003B6A002B02D1FFF7B3FEFEE7BB68002BD8
:103B700003D13B6A1B6C002B02D14FF0010301E023
:103B80004FF00003002B02D1FFF7A2FEFEE73B68D7
:103B9000022B03D13B6ADB6B012B02D14FF00103F7
:103BA00001E04FF00003002B03D1FFF791FEFEE789
:103BB00000BFFFF741FE3B6A9B6B1A463B6ADB6B1B
:103BC0009A4202D33B68022B1FD1386AB9683A681F
:103BD00000F0C8F9F8613B6A5B6A002B0BD03B6AC6
:103BE00003F124031846FEF725FA0346012B07D1FB
:103BF000FFF712FE04E0FB69002B01D0FFF70CFE7B
:103C0000FFF742FE4FF001035DE07B68002B04D11B
:103C1000FFF73AFE4FF0000355E07B6A002B07D117
:103C200007F114031846FEF775FA4FF001037B62A3
:103C3000FFF72AFEFDF72CFFFFF7FEFD3B6A5B6CEA
:103C4000B3F1FF3F03D13B6A4FF000025A643B6A75
:103C50009B6CB3F1FF3F03D13B6A4FF000029A64C3
:103C6000FFF712FE07F1140207F10403104619468C
:103C7000FEF76CFA0346002B1ED1386A00F078FA82
:103C80000346002B12D03B6A03F110027B681046FA
:103C90001946FEF773F9386A00F000FAFDF70AFFDB
:103CA0000346002B84D1FFF7B7FD82E7386A00F0A6
:103CB000F5F9FDF7FFFE7CE7386A00F0EFF9FDF754
:103CC000F9FE4FF00003184607F12807BD4680BDF6
:103CD00080B586B000AF786039607B683B613B6936
:103CE000002B02D1FFF7F4FDFEE73B691B6C002BB4
:103CF00002D0FFF7EDFDFEE7FFF744FEFFF7E8FD1A
:103D0000F8603B699B6B1A463B69DB6B9A4229D290
:103D10003B699B6B03F101023B699A633B699B6CB6
:103D2000B3F1FF3F14D13B695B6A002B16D03B69AE
:103D300003F124031846FEF77DF90346002B0DD04E
:103D40003B68002B0AD03B684FF001021A6005E087
:103D50003B699B6C03F101023B699A644FF00103DC
:103D60007B6102E04FF000037B61F868FFF7BAFD6A
:103D70007B69184607F11807BD4680BD80B58AB03B
:103D800000AFF860B9607A603B604FF000037B627F
:103D9000FB683B623B6A002B02D1FFF799FDFEE70F
:103DA000BB68002B03D13B6A1B6C002B02D14FF088
:103DB000010301E04FF00003002B03D1FFF788FD62
:103DC000FEE700BFFFF738FD3B6A9B6B002B40D03E
:103DD0003B6ADB68FB61386AB96800F037F93B6819
:103DE000002B1FD13B6A9B6B03F1FF323B6A9A6346
:103DF0003B6A1B68002B05D1FEF70AFD03461A46F5
:103E00003B6A5A603B6A1B69002B1DD03B6A03F179
:103E100010031846FEF70EF90346012B14D1FFF7E5
:103E2000FBFC11E03B6AFA69DA603B6A5B6A002BD3
:103E30000AD03B6A03F124031846FEF7FBF8034659
:103E4000002B01D0FFF7E8FCFFF71EFD4FF0010348
:103E50006BE07B68002B04D1FFF716FD4FF00003E9
:103E600063E07B6A002B07D107F114031846FEF7C5
:103E700051F94FF001037B62FFF706FDFDF708FEE5
:103E8000FFF7DAFC3B6A5B6CB3F1FF3F03D13B6A9F
:103E90004FF000025A643B6A9B6CB3F1FF3F03D1C1
:103EA0003B6A4FF000029A64FFF7EEFC07F1140240
:103EB00007F1040310461946FEF748F90346002BA4
:103EC0002CD1386A00F03AF90346002B20D03B6A27
:103ED0001B68002B08D1FFF7AFFC3B6A5B681846F4
:103EE000FEF768FBFFF7D0FC3B6A03F124027B6816
:103EF00010461946FEF742F8386A00F0CFF8FDF791
:103F0000D9FD0346002B7FF45CAFFFF785FC59E732
:103F1000386A00F0C3F8FDF7CDFD53E7386A00F0CA
:103F2000BDF8FDF7C7FD4FF00003184607F128075D
:103F3000BD4680BD80B584B000AF78607B68002B43
:103F400002D1FFF7C5FCFEE7FFF776FC7B689B6BB1
:103F5000FB60FFF799FCFB68184607F11007BD46A8
:103F600080BD00BF80B586B000AFF860B9607A60F0
:103F70004FF000037B61FB681B6C002B0ED1FB68CC
:103F80001B68002B56D1FB685B681846FEF7B6FB32
:103F90007861FB684FF000025A604BE07B68002BB1
:103FA0001AD1FB689A68FB681B6C1046B9681A4600
:103FB00002F0F4FAFB689A68FB681B6CD218FB6885
:103FC0009A60FB689A68FB685B689A4232D3FB6828
:103FD0001A68FB689A602DE0FB68DA68FB681B6C66
:103FE0001046B9681A4602F0D9FAFB68DA68FB682D
:103FF0001B6CC3F10003D218FB68DA60FB68DA6857
:10400000FB681B689A4208D2FB685A68FB681B6C05
:10401000C3F10003D218FB68DA607B68022B09D178
:10402000FB689B6B002B05D0FB689B6B03F1FF3299
:10403000FB689A63FB689B6B03F10102FB689A6360
:104040007B69184607F11807BD4680BD80B582B070
:1040500000AF786039607B681B6C002B19D07B68DF
:10406000DA687B681B6CD2187B68DA607B68DA6878
:104070007B685B689A4203D37B681A687B68DA6066
:104080007B68DA687B681B6C386811461A4602F058
:1040900085FA07F10807BD4680BD00BF80B582B034
:1040A00000AF7860FFF7C8FB14E07B685B6A002B09
:1040B00015D07B6803F124031846FDF7BBFF0346C8
:1040C000002B01D0FEF79AF87B689B6C03F1FF325E
:1040D0007B689A647B689B6C002BE6DC00E000BF89
:1040E0007B684FF0FF329A64FFF7CEFBFFF7A4FB2B
:1040F00014E07B681B69002B15D07B6803F110036B
:104100001846FDF797FF0346002B01D0FEF776F81F
:104110007B685B6C03F1FF327B685A647B685B6C85
:10412000002BE6DC00E000BF7B684FF0FF325A64F2
:10413000FFF7AAFB07F10807BD4680BD80B584B034
:1041400000AF7860FFF778FB7B689B6B002B03D197
:104150004FF00103FB6002E04FF00003FB60FFF74C
:1041600093FBFB68184607F11007BD4680BD00BFF2
:1041700080B584B000AF7860FFF75EFB7B689B6B17
:104180001A467B68DB6B9A4203D14FF00103FB6058
:1041900002E04FF00003FB60FFF776FBFB68184678
:1041A00007F11007BD4680BD80B483B000AF034661
:1041B000FB714FF46143CEF2000397F907204FEAF9
:1041C0005212F97901F01F014FF0010000FA01F1DC
:1041D00043F8221007F10C07BD4680BC704700BFB2
:1041E00090B583B000AF02460B46FA71BB71FB7904
:1041F000012B26D14FF49040C4F2000040F225512B
:104200004FF00102FCF724FD4FF48063C4F2020377
:104210004FF48062C4F20202528B92B242F0020268
:1042200092B25A834FF48063C4F202034FF4806267
:10423000C4F20202528B92B242F0040292B25A834A
:1042400025E04FF49040C4F2000040F225514FF0B9
:104250000002FCF7FDFC4FF48063C4F202034FF44C
:104260008062C4F20202128B92B242F0020292B257
:104270001A834FF48063C4F202034FF48062C4F2E5
:104280000202128B92B242F0040292B21A83BB79FC
:10429000012B45D14FF49040C4F2000040F226615A
:1042A0004FF00102FCF7D4FC4FF48063C4F2020328
:1042B0004FF48062C4F20202128B92B242F0020208
:1042C00092B21A834FF48063C4F202034FF4806207
:1042D000C4F20202128B92B242F0040292B21A832A
:1042E00040F2EC23C2F200031B685C6A40F2EC234C
:1042F000C2F200031B6803F1680140F2EC23C2F232
:1043000000031B6803F1380240F2EC23C2F2000301
:104310001B6803F16403084611461A46A04725E0CE
:104320004FF49040C4F2000040F226614FF00002CA
:10433000FCF78EFC4FF48063C4F202034FF48062FA
:10434000C4F20202528B92B242F0020292B25A833B
:104350004FF48063C4F202034FF48062C4F202029D
:10436000528B92B242F0040292B25A8307F10C07C8
:10437000BD4690BD80B58CB000AFB9600146F97301
:10438000FA71BB714FF480204FF00101FDF730F955
:104390004FF002004FF00101FDF7FCF84FF44063CD
:1043A000BB624FF0020387F82C304FF0020387F80E
:1043B0002D304FF0000387F82E304FF0010387F8BF
:1043C0002F3007F128034FF48060C4F20200194631
:1043D000FEF73AFA4FF48060C4F202004FF00A018F
:1043E0004FF00702FEF7DCFA4FF48060C4F20200DF
:1043F0004FF00B014FF00702FEF7D2FABB68BB612A
:104400004FF00003BB834FF00003FB834FF000032A
:104410003B844FF00003BB844FF00C037B8407F117
:1044200018034FF49040C4F200001946FCF7ECFA70
:104430004FF49043C4F200034FF4AE721A814FF070
:104440000603BB624FF0010387F82C304FF00003E6
:1044500087F82E304FF0000387F82F304FF002031B
:1044600087F82D3007F128034FF48060C4F2020072
:104470001946FEF7E9F94FF49040C4F200004FF0FE
:10448000A001FCF759FC4FF49040C4F200004FF03B
:104490000101FCF797FB4FF4407001F095F84FF0E5
:1044A00027033B754FF00E037B754FF00003BB7580
:1044B0004FF00103FB7507F11403184601F098F85B
:1044C0004FF02700FFF770FE40F2EC23C2F200032A
:1044D0001B689B6B4FF001004FF0000198474FF0B5
:1044E0000103184607F13007BD4680BD80B582B094
:1044F00000AF0346FB7197F907309BB24FF4904031
:10450000C4F200001946FCF77DFB00BF4FF4904059
:10451000C4F200004FF08001FCF7EEFB0346002BD5
:10452000F4D04FF00103184607F10807BD4680BDDF
:1045300080B582B000AF78604FF49040C4F20000C4
:1045400040F22551FCF7F8FB4FF49040C4F2000014
:10455000FCF76CFB0346DAB27B681A704FF001037C
:10456000184607F10807BD4680BD00BF98B500AFEB
:1045700040F2F823C2F200034FF000021A604FF439
:104580009040C4F2000040F22661FCF7E7FB0346CE
:10459000002B1FD040F2EC23C2F200031B685C6AC0
:1045A00040F2EC23C2F200031B6803F1680140F201
:1045B000EC23C2F200031B6803F1380240F2EC2343
:1045C000C2F200031B6803F16403084611461A4651
:1045D000A04729E04FF49040C4F2000040F225517A
:1045E000FCF7BCFB0346002B1ED040F2EC23C2F2CA
:1045F00000031B681C6A40F2EC23C2F200031B6834
:1046000003F1680140F2EC23C2F200031B6803F1DE
:10461000500240F2EC23C2F200031B6803F138039E
:10462000084611461A46A04740F2F823C2F200039A
:104630001B68002B06D04EF60453CEF200034FF059
:1046400080521A6098BD00BF80B483B000AF78601C
:1046500040F2EC23C2F200037A681A6040F2EC23C5
:10466000C2F200031A6844F27533C0F60003D36344
:1046700040F2EC23C2F200031A6844F2E113C0F6E0
:104680000003936340F2EC23C2F200031A6844F281
:10469000ED43C0F60003136440F2EC23C2F20003C2
:1046A0001A6844F23153C0F60003536440F2EC231D
:1046B000C2F200031B684FF000029A6440F2EC2340
:1046C000C2F200031B684FF00002DA6407F10C0726
:1046D000BD4680BC704700BF90B583B000AF0246B6
:1046E0000B46FA71BB71FB79012B0AD14FF498404C
:1046F000C4F2000040F225514FF00102FCF7A8FA85
:1047000009E04FF49840C4F2000040F225514FF008
:104710000002FCF79DFABB79012B29D14FF4984098
:10472000C4F2000040F226614FF00102FCF790FA5B
:1047300040F2F023C2F200031B685C6A40F2F023EF
:10474000C2F200031B6803F1680140F2F023C2F2D9
:1047500000031B6803F1380240F2F023C2F20003A9
:104760001B6803F16403084611461A46A04709E096
:104770004FF49840C4F2000040F226614FF000026E
:10478000FCF766FA07F10C07BD4690BD80B58CB00A
:1047900000AFB9600146F973FA71BB714FF40020A4
:1047A0004FF00101FCF724FF4FF004004FF001012E
:1047B000FCF7F0FE4FF44063BB624FF0020387F852
:1047C0002C304FF0020387F82D304FF0000387F8AC
:1047D0002E304FF0010387F82F3007F128034FF4F4
:1047E0000060C4F202001946FEF72EF84FF4006094
:1047F000C4F202004FF00A014FF00802FEF7D0F8B1
:104800004FF40060C4F202004FF00B014FF00802B9
:10481000FEF7C6F8BB68BB614FF00003BB834FF0E7
:104820000003FB834FF000033B844FF00003BB8485
:104830004FF00C037B8407F118034FF49840C4F247
:1048400000001946FCF7E0F84FF49843C4F2000367
:104850004FF4AE721A814FF49840C4F200004FF04A
:10486000A001FCF769FA4FF49840C4F200004FF041
:104870000101FCF7A7F94FF4407000F0A5FE4FF0DE
:1048800034033B754FF00E037B754FF00003BB758F
:104890004FF00103FB7507F11403184600F0A8FE62
:1048A0004FF03400FFF780FC40F2F023C2F2000327
:1048B0001B689B6B4FF001004FF0000198474FF0D1
:1048C0000103184607F13007BD4680BD80B582B0B0
:1048D00000AF0346FB7197F907309BB24FF4984045
:1048E000C4F200001946FCF78DF900BF4FF4984060
:1048F000C4F200004FF08001FCF7FEF90346002BE4
:10490000F4D04FF00103184607F10807BD4680BDFB
:1049100080B582B000AF78604FF49840C4F20000D8
:1049200040F22551FCF708FA4FF49840C4F2000019
:10493000FCF77CF90346DAB27B681A704FF001038A
:10494000184607F10807BD4680BD00BF98B500AF07
:1049500040F2F423C2F200034FF000021A604FF459
:104960009840C4F2000040F22661FCF7F7F90346D4
:10497000002B1FD040F2F023C2F200031B685C6AD8
:1049800040F2F023C2F200031B6803F1680140F219
:10499000F023C2F200031B6803F1380240F2F02357
:1049A000C2F200031B6803F16403084611461A466D
:1049B000A04729E04FF49840C4F2000040F225518E
:1049C000FCF7CCF90346002B1ED040F2F023C2F2D4
:1049D00000031B681C6A40F2F023C2F200031B684C
:1049E00003F1680140F2F023C2F200031B6803F1F7
:1049F000500240F2F023C2F200031B6803F13803B7
:104A0000084611461A46A04740F2F423C2F20003BA
:104A10001B68002B06D04EF60453CEF200034FF075
:104A200080521A6098BD00BF80B483B000AF786038
:104A300040F2F023C2F200037A681A6040F2F023D9
:104A4000C2F200031A6844F28D73C0F60003D36308
:104A500040F2F023C2F200031A6844F2D963C0F6B0
:104A60000003936340F2F023C2F200031A6844F695
:104A7000CD03C0F60003136440F2F023C2F200033A
:104A80001A6844F61113C0F60003536440F2F02391
:104A9000C2F200031B684FF000029A6440F2F02358
:104AA000C2F200031B684FF00002DA6407F10C0742
:104AB000BD4680BC704700BF80B586B000AF78604F
:104AC00039604FF00003BB753B681B88052B40F035
:104AD00084807B6803F101031B784FEA0323BB82C8
:104AE0007B6803F102031B781A46BB8A42EA030380
:104AF000BB82BB8A03F10103BB827B6803F1030322
:104B00001B784FEA03237B827B6803F104031B7845
:104B10001A467B8A42EA03037B827B8A002B58D0A9
:104B20007A8A40F2CF739A4253D87B68FB603B6825
:104B30004FF000021A80FB684FF001021A70FB6808
:104B400003F10103FB603B681B8803F101039AB288
:104B50003B681A807B8A03F00703002B08D07B8A0E
:104B60004FEAD3039BB2DBB203F10103FB7504E010
:104B70007B8A4FEAD3039BB2FB75FB68FA7D1A7000
:104B8000FB6803F10103FB603B681B8803F1010331
:104B90009AB23B681A80BA8A7B8AF86811461A462C
:104BA0004FF00003FBF7B2FB0346FB72FB7A002BCE
:104BB00006D0FB7A1846FCF737F90346BB750FE0C1
:104BC0003B681A88FB7D9BB2D3189AB23B681A8067
:104BD00006E04FF00303BB7502E04FF00303BB7523
:104BE000BB7D184607F11807BD4680BD80B584B06F
:104BF00000AF786039604FF00003FB733B681B889F
:104C0000052B50D17B6803F101031B784FEA032386
:104C1000BB817B6803F102031B781A46BB8942EA19
:104C20000303BB81BB8903F10103BB817B6803F1F3
:104C300004031B78002B32D17B6803F103031B783C
:104C4000FF2B05D07B6803F103031B78002B26D1D3
:104C50004FF000037B727B6803F103031B78FF2B8B
:104C600003D14FF001033B7202E04FF000033B72AF
:104C700007F10802BB89104619464FF001024FF0B8
:104C80000103FBF743FB0346FB72FB7A002B0DD0BD
:104C9000FB7A1846FCF7C8F80346FB7306E04FF0B2
:104CA0000303FB7302E04FF00303FB73FB7B184627
:104CB00007F11007BD4680BD80B584B000AF7860B5
:104CC00039604FF00003BB733B681B88052B67D925
:104CD0007B6803F101031B784FEA0323BB817B68E8
:104CE00003F102031B781A46BB8942EA0303BB8126
:104CF000BB8903F10103BB817B6803F103031B78CC
:104D00004FEA03237B817B6803F104031B781A4677
:104D10007B8942EA03037B817B6803F105031B78EF
:104D20007B727B8903F00703002B08D07B894FEA55
:104D3000D3039BB2DBB203F10103FB7304E07B8975
:104D40004FEAD3039BB2FB737B89002B24D07B8972
:104D5000B3F5F66F20D8FA7B7B7A9A421CD17B6838
:104D600003F10601BA897B89084611461A464FF0BD
:104D70000103FBF7CBFA03463B723B7A002B06D0CC
:104D80003B7A1846FCF750F80346BB730BE03B68D0
:104D90004FF005021A8006E04FF00303BB7302E0F8
:104DA0004FF00303BB73BB7B184607F11007BD46EA
:104DB00080BD00BF80B483B000AF0346FB714FF4E9
:104DC0006143CEF2000397F907204FEA5212F979B6
:104DD00001F01F014FF0010000FA01F143F8221029
:104DE00007F10C07BD4680BC704700BF80B58EB090
:104DF00004AF4FF001004FF00101FCF7CBFB4FF087
:104E000001004FF00101FCF7F3FB4FF002004FF0FF
:104E10000101FCF71BFC4FF001004FF00101FCF712
:104E200015FC4FF0FF33BB604FF00003BB804FF029
:104E30000003BB814FF00003FB8007F104034FF038
:104E40008040194600F080FD4FF006033B624FF0B2
:104E5000020387F824304FF0020387F825304FF023
:104E6000000387F826304FF0010387F8273007F159
:104E700020034FF00000C4F202001946FDF7E4FCE5
:104E80004FF00000C4F202004FF001014FF00102A8
:104E9000FDF786FD4FF00000C4F202004FF0020162
:104EA0004FF00102FDF77CFD4FF00403BB824FF091
:104EB0000003FB824FF001033B834FF000037B8331
:104EC0004FF00503BB8307F114034FF080401946F0
:104ED00000F022FE4FF00803BB824FF00003FB827C
:104EE0004FF001033B834FF000037B834FF005033A
:104EF000BB8307F114034FF08040194600F00CFE0D
:104F00004FF080404FF0010100F0C6FD4FF01C0053
:104F1000FFF750FF4FF4407000F056FB4FF01C03BA
:104F20003B744FF00E037B744FF00103BB744FF0E2
:104F30000103FB7407F11003184600F059FB4FF012
:104F400080404FF00C014FF0010200F0B1FE4FF035
:104F500080404FF00C0100F0D1FE4FF080404FF048
:104F6000010100F0B9FD4FF001033B624FF0020375
:104F700087F824304FF0020387F825304FF0000304
:104F800087F826304FF0010387F8273007F1200318
:104F90004FF00000C4F202001946FDF755FC4FF037
:104FA0000000C4F202004FF000014FF00302FDF7D1
:104FB000F7FC4FF480533B624FF0020387F8243034
:104FC0004FF0020387F825304FF0000387F82630B2
:104FD0004FF0010387F8273007F120034FF000005E
:104FE000C4F202001946FDF72FFC4FF00000C4F296
:104FF00002004FF00C014FF00102FDF7D1FC07F168
:105000000403184600F01CFD4FF00003BB804FF076
:105010000003FB804FF6FF73BB604FF00003BB81C2
:1050200007F104034FF48060C4F20100194600F058
:105030008BFC4FF48060C4F201004FF000014FF090
:1050400000024FF0000300F07DFE4FF48060C4F2D8
:1050500001004FF0010100F03FFD07F104034FF0A4
:105060000000C4F20100194600F06EFC4FF0000091
:10507000C4F201004FF000014FF000024FF00003B6
:1050800000F060FE4FF00000C4F201004FF001019B
:1050900000F022FD4FF001004FF000014FF003023D
:1050A000FEF702FD024644F26C63C2F200031A608E
:1050B00044F26C63C2F200031B68002B0DD044F273
:1050C0006C63C2F200031B6818464FF000014FF0FA
:1050D00000024FF00003FEF737FD4FF001004FF0E4
:1050E00000014FF00302FEF7DFFC024644F26C635E
:1050F000C2F200035A6044F26C63C2F200035B68C0
:10510000002B0DD044F26C63C2F200035B681846BA
:105110004FF000014FF000024FF00003FEF714FDC6
:105120004FF002004FF004014FF00002FEF7BCFC0C
:10513000024644F26463C2F200031A604FF00200B8
:105140004FF004014FF00002FEF7AEFC024644F2BD
:105150006463C2F200035A604FF0010300934FF002
:10516000000301934FF0000302934FF000030393F9
:1051700045F22930C0F6000046F6E011C0F6000105
:105180004FF040024FF00003FCF716FB4FF0010315
:1051900000934FF0000301934FF0000302934FF090
:1051A0000003039345F23940C0F6000046F6EC11C7
:1051B000C0F600014FF040024FF00003FCF7FCFA8C
:1051C00007F12807BD4680BD80B500AF4FF0804392
:1051D0001B8A9BB203F00403002B4DD04FF0804399
:1051E0009B899BB203F00403002B45D04FF0804312
:1051F0004FF08042128A92B222F0040292B21A82D6
:105200004FF080434FF08042928992B222F0040224
:1052100092B29A8140F2FC23C2F200035B681A4604
:1052200040F2FC23C2F200031A604FF080439B6BF4
:105230001A4640F2FC23C2F200035A604FF4806326
:10524000C4F201035B6A1A4640F2FC23C2F2000377
:105250009A604FF48063C4F201034FF000025A6277
:1052600044F26C63C2F200031B68184640F214312A
:10527000C2F20001FEF72CFD4FF080431B8A9BB267
:1052800003F00803002B4DD04FF080439B899BB265
:1052900003F00803002B45D04FF080434FF08042CD
:1052A000128A92B222F0080292B21A824FF0804320
:1052B0004FF08042928992B222F0080292B29A8113
:1052C00040F2FC23C2F200031B691A4640F2FC23A1
:1052D000C2F20003DA604FF08043DB6B1A4640F203
:1052E000FC23C2F200031A614FF00003C4F2010371
:1052F0005B6A1A4640F2FC23C2F200035A614FF087
:105300000003C4F201034FF000025A6244F26C63DE
:10531000C2F200035B68184640F21431C2F2000189
:10532000FEF7D6FC80BD00BF90B585B000AF7860B9
:105330004FF00003FB604FF0FA00FCF719FB4FF051
:1053400080434FF08042128A92B222F0040292B25D
:105350001A824FF080434FF08042928992B242F01D
:10536000040292B29A8144F26C63C2F200031B6899
:1053700018464FF0000142F210724FF00003FEF7A2
:10538000FDFC0346012B41D140F2FC23C2F2000395
:105390005B681A4640F2FC23C2F200031B689A4283
:1053A0000DD940F2FC23C2F200035B681A4640F2BA
:1053B000FC23C2F200031B68D31AFB600CE040F22E
:1053C000FC23C2F200031B681A4640F2FC23C2F21F
:1053D00000035B68D31AFB6040F2FC23C2F20003B7
:1053E0009B68184600F006FF03461846104900F077
:1053F00059FF03461C46F86800F0FCFE03462046B1
:10540000194601F003F80346BB6001E0094BBB609D
:1054100044F26463C2F200031A6807F108031046FD
:1054200019464FF000024FF00003FEF78DFB82E7B4
:10543000B495984B0000000090B585B000AF78603F
:105440004FF00003FB604FF0FA00FCF791FA4FF0C9
:1054500080434FF08042128A92B222F0080292B248
:105460001A824FF080434FF08042928992B242F00C
:10547000080292B29A8144F26C63C2F200035B6844
:1054800018464FF0000142F210724FF00003FEF791
:1054900075FC0346012B41D140F2FC23C2F200030C
:1054A0001B691A4640F2FC23C2F20003DB689A42F1
:1054B0000DD940F2FC23C2F200031B691A4640F2E8
:1054C000FC23C2F20003DB68D31AFB600CE040F25D
:1054D000FC23C2F20003DB681A4640F2FC23C2F24E
:1054E00000031B69D31AFB6040F2FC23C2F20003E5
:1054F0005B69184600F07EFE03461846104900F02E
:10550000D1FE03461C46F86800F074FE03462046B0
:10551000194600F07BFF0346BB6001E0094BBB600E
:1055200044F26463C2F200035A6807F108031046AC
:1055300019464FF000024FF00003FEF705FB82E72B
:10554000B495984B0000000080B485B000AF78603F
:105550004FF00003FB734FF00003BB604FF4705338
:10556000C4F201031B681A467B6802EA0303BB60AE
:105570004FF47053C4F201035B691A467B6802EA78
:105580000303002B06D0BB68002B03D04FF00103B0
:10559000FB7302E04FF00003FB73FB7B184607F13F
:1055A0001407BD4680BC704780B483B000AF7860FC
:1055B0004FF47053C4F201037A685A6107F10C0783
:1055C000BD4680BC704700BF80B483B000AF786038
:1055D0004FF46D43CEF200037A6842F0BE6242F4AB
:1055E0002022DA6007F10C07BD4680BC704700BF7F
:1055F00080B485B000AF78604FF00003FB734FF0CC
:105600000003BB734FF00F037B737B68DB78002BC9
:1056100047D04FF46D43CEF20003DB686FEA03031B
:1056200003F4E0634FEA1323FB73FB7BC3F1040332
:10563000BB737A7BFB7B42FA03F37B737B685B78FB
:105640001A46BB7B02FA03F3FB737B689A787B7B79
:1056500002EA0303DAB2FB7B42EA0303FB73FB7B40
:105660004FEA0313FB734FF46143CEF200037A68F1
:1056700012789B18FA7B83F800234FF46143CEF233
:1056800000037A6812784FEA5212D2B27968097828
:1056900001F01F014FF0010000FA01F143F8221060
:1056A00014E04FF46143CEF200037A6812784FEAB7
:1056B0005212D2B27968097801F01F014FF001004F
:1056C00000FA01F102F1200243F8221007F1140759
:1056D000BD4680BC704700BF80B588B000AF786021
:1056E0004FF000037B61FCF7D3F944F22833C2F298
:1056F00000031B68002B08D100F0F0F844F22833B7
:10570000C2F200034FF001021A607B68002B12D036
:1057100046F6F813C0F600031B887A68D3187B603E
:105720007B6803F00703002B05D07B6823F0070399
:1057300003F108037B607B68002B72D07A6843F624
:10574000F7739A426DD844F21833C2F20003BB617A
:1057500044F21833C2F200031B68FB6104E0FB69EA
:10576000BB61FB691B68FB61FB695A687B689A42F5
:1057700003D2FB691B68002BF1D1FA6944F2203394
:10578000C2F200039A424CD0BB691A6846F6F8137D
:10579000C0F600031B88D3187B61FB691A68BB69DC
:1057A0001A60FB695A687B68D21A46F6F813C0F68D
:1057B00000031B884FEA43039A4225D9FA697B68A4
:1057C000D318FB60FB695A687B68D21AFB685A6081
:1057D000FB697A685A60FB685B68BB6044F2183307
:1057E000C2F200033B6102E03B691B683B613B691D
:1057F0001B685A68BB689A42F6D33B691A68FB6813
:105800001A603B69FA681A6040F2B803C2F20003FA
:105810001A68FB695B68D21A40F2B803C2F200034F
:105820001A60FCF747F97B69002B01D1FBF76AFD91
:105830007B69184607F12007BD4680BD80B586B05C
:1058400000AF78607B683B617B68002B35D046F603
:10585000F813C0F600031B88C3F100033A69D3189C
:105860003B613B69FB60FCF713F9FB685B68BB605D
:1058700044F21833C2F200037B6102E07B691B68CB
:105880007B617B691B685A68BB689A42F6D37B6967
:105890001A68FB681A607B69FA681A60FB685A68C4
:1058A00040F2B803C2F200031B68D21840F2B803FA
:1058B000C2F200031A60FCF7FDF807F11807BD46B5
:1058C00080BD00BF80B400AF40F2B803C2F2000355
:1058D0001B681846BD4680BC704700BF80B483B0CB
:1058E00000AF184B23F007037B607A6844F218334B
:1058F000C2F200031A6044F21833C2F200034FF000
:1059000000025A6044F22033C2F2000343F6F872F8
:105910005A6044F22033C2F200034FF000021A60D2
:105920007B683B603B6843F6F8725A603A6844F221
:105930002033C2F20003136007F10C07BD4680BCA0
:10594000704700BF2003002080B485B000AF7860AE
:1059500039604FF00003FB817B681B88FB817A680C
:105960004FF00003C4F201039A421FD07A684FF44B
:105970008063C4F201039A4218D07B68B3F1804F70
:1059800014D07A684FF48063C4F200039A420DD0B9
:105990007A684FF40063C4F200039A4206D07A6832
:1059A0004FF44063C4F200039A4209D1FB8923F00B
:1059B0007003FB813B685A88FB8942EA0303FB8141
:1059C0007A684FF48053C4F200039A4210D07A6888
:1059D0004FF4A053C4F200039A4209D0FB8923F488
:1059E0004073FB813B681A89FB8942EA0303FB8110
:1059F0007B68FA891A803B685A687B68DA623B6880
:105A00001A887B681A857A684FF00003C4F2010394
:105A10009A4206D07A684FF48063C4F201039A4236
:105A200004D13B689B7A1A467B681A867B684FF0E4
:105A300001029A8207F11407BD4680BC704700BF7F
:105A400080B483B000AF78607B684FF0FF325A605B
:105A50007B684FF000021A807B684FF000021A81C9
:105A60007B684FF000025A807B684FF000029A7208
:105A700007F10C07BD4680BC704700BF80B483B0FF
:105A800000AF786039607B683A685A6207F10C07AA
:105A9000BD4680BC704700BF80B483B000AF786063
:105AA0000B46FB70FB78002B08D07B681B889BB2F1
:105AB00043F080039AB27B681A8007E07B681B88FA
:105AC0009BB223F080039AB27B681A8007F10C071F
:105AD000BD4680BC704700BF80B483B000AF786023
